:020000040002F8
:10000000F8230010053103000D3103000F31030008
:10001000113103001331030015310300000000000B
:100020000000000000000000000000001731030085
:1000300019310300000000001B3103004179020068
:100040001F310300E307020077080200B308020033
:10005000C5080200BF4A03001F3103001F3103001F
:10006000D74A03001F3103001F3103001F31030073
:100070001F3103001F3103001F3103001F31030034
:100080001F3103001F3103001F3103001F31030024
:100090001F3103001F3103001F3103001F31030014
:1000A000417503001F3103001F3103001F3103009E
:1000B0001F3103001F3103001F3103001F310300F4
:1000C0001F3103001F3103001F3103001F310300E4
:1000D0001F3103001F310300970502001F31030089
:1000E0001F31030000F002F800F076F80AA090E853
:1000F000000C82448344AAF10107DA4501D100F0E3
:100100006BF8AFF2090EBAE80F0013F0010F18BF39
:10011000FB1A43F001031847684B0400884B0400A6
:100120000A444FF0000C10F8013B13F0070408BF1D
:1001300010F8014B1D1108BF10F8015B641E05D0BB
:1001400010F8016B641E01F8016BF9D113F0080F70
:100150001EBF10F8014BAD1C0C1B09D16D1E58BF02
:1001600001F801CBFAD505E014F8016B01F8016B39
:100170006D1EF9D59142D6D37047000000230024AC
:1001800000250026103A28BF78C1FBD8520728BFA7
:1001900030C148BF0B607047662926F0FB83672992
:1001A00026F0F88364291CF0038173291CF0C586AE
:1001B000002070471FB51CF001FC04000020002146
:1001C00025F09AF9401C60600020002125F0AAF972
:1001D000E0601FBD10B510BD1DF01AFA1146FFF703
:1001E000E9FF00F023F91DF0B5FC03B4FFF7F2FFBF
:1001F00003BC1DF0B9FC000040F2012082490860F8
:100200008249C1F88401804908310860091D0860ED
:10021000091D0860091D0860091D0860091D0860A6
:10022000091D0860091D0860091D0860091D086096
:10023000091D0860091D0860091D0860091D086086
:10024000714980310860091D0860091D0860091D99
:100250000860091D0860091D0860091D0860091D66
:100260000860091D0860091D0860091D0860091D56
:100270000860091D0860091D0860091D08606249C1
:10028000D4310860091D0860091D08605E494439C1
:1002900008605D49E4310860091F08605A49E83187
:1002A0000860594940390860091D0860091D086047
:1002B000554930390860544920390860524910398D
:1002C0000860091D086070472DE9F04100BF00BFBC
:1002D0004F48006840F400604D49C439C1F8C4007B
:1002E00041F61F704B49086001204B49086000200F
:1002F0008860FFF781FF494800684949B0FBF1F782
:100300004348C438D0F8000100B17F084FF47A7038
:10031000B0FBF7F404F11300B0FBF4F03E490863BE
:100320000F204863002088630120C86304F1130094
:10033000B0FBF4F0801C08640120486404F13E0026
:10034000B0FBF4F0886404F13E00B0FBF4F0C86444
:100350000F20086504F13E00B0FBF4F04865012071
:100360008865886240F203302E4908604FF4D060FF
:100370002949C1F800016421012000F0B4F940F2DC
:10038000831025490862C821012000F0ACF940F231
:1003900003102149086202204862002600E0761C12
:1003A000802EFCD341F68465A5F1100085B22D1195
:1003B00005FB07F04FF47A71B0FBF1F085B21648F7
:1003C00045628320144908621748058800200862A6
:1003D0001448001F006840F40020C1F8000101210A
:1003E000084600F080F90121084600F07CF9094830
:1003F000006820F01F0848F011000549C439C1F811
:10040000DC01BDE8F081000080C1024000C0024074
:10041000C4C00F40DCC10F4000C0092078010010AB
:1004200040420F0004C10920003003A0002013F057
:10043000A8FA044600206C4908601D200121814073
:100440004209920002F1E022C2F8001100BF62B638
:100450006648B4FBF0F0411EB1F1807F00D31DE08F
:1004600021F07F40401E4FF0E022506150171F22C4
:10047000002807DAD3061E0E5D4B00F00F052D1F76
:100480005E5503E0D3061D0E5A4B1D5400BF0020DD
:100490004FF0E02290610720106100BF14F084FF4C
:1004A00002205549086000205449088054490870CA
:1004B000544908703CE050480068801E182835D226
:1004C000DFE800F00C3412150F30343418341B34CC
:1004D00034342124272A2D34341E343107F0F0FC23
:1004E00025E008F01DF822E008F049FE1FE008F0C2
:1004F00092FE1CE011F071FD19E00EF039FC16E0DF
:100500000FF00DFF13E00EF0CFFB10E007F0EAFD57
:100510000DE007F056FF0AE007F0BFFF07E00DF01F
:10052000A1FF04E003E00FF0B3FE00E000BF00BF56
:10053000C1E72DE9F041012133A016F0FFFB07468A
:10054000002F25DD4FF47A6232480168384616F0F4
:10055000D5FC022130A016F0F1FB0446002C11DD81
:10056000002500BF4FF47A622A480168204616F041
:100570002FFE064635442B488542F3D3204616F01D
:10058000BEFE01E0BDE8F081384616F0B8FE00E09E
:10059000F8E700BFF6E710B500220621104613F079
:1005A0005AF830B10920204908604021002013F09A
:1005B0007DF800220521104613F04DF830B10C20D3
:1005C000194908602021002013F070F8002207214B
:1005D000104613F040F830B10E2013490860802116
:1005E000002013F063F810BDCC000010A0860100BD
:1005F00018ED00E000E400E02001001018010010F8
:100600001A0100101B0100104D53524541442E5455
:10061000585400000C0200105A43353532302E5425
:1006200058540000809698002401001010B5FE4830
:1006300090F89E00FD490860FB4890F89E00086015
:10064000F94890F89E00086008460068072802D91B
:10065000084600680860F44890F89E00F349086076
:1006600008460068082803D108460068401C086056
:10067000EF480068EF49096888421DD0ED480068DE
:10068000EB490860EC480078002804DDEA4800786F
:10069000401EE9490870E848007820B9E24890F81F
:1006A0009E00002809DCE448007820B9DE4890F874
:1006B0009E0000B910BDFDE7FCE7DB4890F89E0006
:1006C000042800DA09E0D8480478DC48807BA0429E
:1006D00000D002E014F026FD00BF0020D24981F8CE
:1006E0009E0000BFE6E7F8B902224FF040235A60AF
:1006F0000022DA60D24A12684FF47A73B2FBF3F246
:10070000521E4A434FF040239A61FF221A6004228E
:100710005A6101225A6000BF4FF04022526802F035
:100720000102002AF8D15BE001281CD10222C54B4E
:100730005A600022DA60C24A12684FF47A73B2FB40
:10074000F3F2521E4A43BF4B9A61FF221A60042201
:100750005A6101225A6000BFBA4A526802F001028F
:10076000002AF9D13CE002281CD10222B64B5A6083
:100770000022DA60B24A12684FF47A73B2FBF3F2E5
:10078000521E4A43B04B9A61FF221A6004225A61FA
:1007900001225A6000BFAC4A526802F00102002AEE
:1007A000F9D11DE003281BD10222A84B5A60002278
:1007B000DA60A34A12684FF47A73B2FBF3F2521E66
:1007C0004A43A24B9A61FF221A6004225A61012215
:1007D0005A6000BF9D4A526802F00102002AF9D116
:1007E000704710B501204FF040210860984800681C
:1007F000062813D197480078401C9649087008468F
:100800000078092810DD0020087001209249087046
:1008100092480089401C9149088105E08D48007884
:1008200010B100208B4908708448407B88B98C48FF
:100830000078401C8A49087008460078092808DDBD
:10084000002008707B480068401C7A490860FFF768
:10085000EDFE00240CE0834850F8240030B18148BC
:1008600050F82400401E7F4941F82400601CC4B2A7
:10087000062CF0DB10BD10B50120724908607A48E3
:100880000078401C784908707148006806280FD12C
:10089000084600780A2802D107F0DFF808E072481D
:1008A0000078142804DB00206F49087007F0DBF89B
:1008B00010BD0120644908606C480068401C6B4909
:1008C0000860704701206149086069480068401C61
:1008D00067490860704720B901214FF040225160FC
:1008E00010E0012803D10121564A51600AE0022894
:1008F00003D10121544A516004E0032802D10121AF
:10090000524A5160704720B900214FF04022516097
:1009100010E0012803D100214A4A51600AE0022870
:1009200003D10021484A516004E0032802D100218C
:10093000454A51607047014631B94FF04022506836
:1009400040F00200506016E0012905D13D4A506890
:1009500040F0020050600EE0022905D13A4A50688A
:1009600040F00200506006E0032904D1374A506885
:1009700040F002005060704770B505460C46F5B96E
:1009800000203C4908603C48006840F002003A49B9
:10099000C439C1F8C4004FF04020406840F0020064
:1009A0004FF0402148604EF65F20C86008468461E1
:1009B00003204861012000F07CF8012070BD012D6A
:1009C0001CD100202D4908602B48006840F004002D
:1009D0002949C439C1F8C4001A48406840F00200EF
:1009E000184948604EF65F20C860084684610320BD
:1009F0004861022000F05DF80120DFE7022D3FD1C1
:100A000000201A4908601C48006840F480001A4918
:100A1000C439C1F8C4000C48846103200A49486104
:100A200000F047F80120C9E7DB1600101C00001099
:100A3000140000101000001090010010E40F0010CE
:100A40007C01001000800040000009400040094087
:100A50002001001020000010FA00001030030010E8
:100A600021000010B80B0010220000100800001038
:100A70000C00001000000010C4C00F400400001063
:100A8000032D14D10020104908601048006840F47C
:100A900000000E49C439C1F8C4000D488461032028
:100AA0000B494861042000F004F8012086E700208B
:100AB00084E700F01F02012191404209920002F1F7
:100AC000E022C2F8001170470C000010C4C00F40B3
:100AD0000040094008B5B0B1F949896941F0010108
:100AE000F74A916142F21071009108E0F449896976
:100AF00041F40061F24A91610099491E0091009908
:100B00000029F3D115E0EE49896921F40061EC4A2E
:100B1000916142F21071009102E00099491E00912A
:100B200000990029F9D1E649896921F00101E44AD7
:100B3000916108BDE34A002102E008C808C2491CCF
:100B40008029FAD3704750B506460C4600BF2720CF
:100B5000DD490860DD49C1F81801DD490860091D5B
:100B60000860091D0860DA494C390860091D0860F1
:100B7000091D0860091D0860091D0860091D08603D
:100B8000D34918310860D24934390860091D08601A
:100B9000091D0860091D0860CD4914390860CC4959
:100BA00008390860CA4910390860C849C1F81001FD
:100BB000C848006A40F00200C64908620846806BD7
:100BC00040F0040088630846006840F002000860B6
:100BD0000846806940F02A008861BF48D0F8C40008
:100BE00040F00100BC49C1F8C400BC48006820F0D6
:100BF0000100BA4908600020B1498861084680694F
:100C000020F00E0088610846806940F00C00886181
:100C10000846806940F0200088610846806920F01D
:100C2000800088610846806920F4807088610846E9
:100C3000806920F4007088610846806920F4806033
:100C400088610846806920F400608861A4480068D3
:100C5000A449B0FBF1F0A049C1F8B80198488068F8
:100C600040F08060964988600846806820F0200047
:100C700088600846806840F40060886008468068A4
:100C800040F4805088600846806820F400508860F6
:100C90000846806820F48040886008468068924951
:100CA000084087498860084680689049084384491D
:100CB0008860002008600846006840F01C5008600A
:100CC0000846006840F4802008600846006840F448
:100CD000807008600846006840F0740008600020DA
:100CE00048600846406840F0006048600846406838
:100CF00040F4002048600846406840F48060486046
:100D00000846406840F20F1108436D494860784832
:100D10000861486114B12046FFF70CFF50BD744ACA
:100D2000002102E022F8020B491CB1F5FF3FF9D384
:100D3000704730B56E4BB0F5F07F02DAB1F5887FC1
:100D400000DB30BDC1EB011500EB451403EB4403A0
:100D50001A8000BFF5E72DE9F04F04460D46914695
:100D60009A46DDF824B04C4503DD0FFA89F7A14619
:100D7000BCB2554503DD0FFA8AF7AA46BDB2A9EB0E
:100D800004000FFA80F8AAEB050006B2B8F1000FD4
:100D90000BD100BF5A4629462046FFF7CAFF681C00
:100DA00085B2AA45F6DABDE8F08F56B900BF5A46BB
:100DB00029462046FFF7BDFF601C84B2A145F6DA44
:100DC000F1E7B04521DDC8EB460007B215E05A4611
:100DD00029462046FFF7ADFF601C84B2002F08DDD6
:100DE000681C85B27000022101FB1800384407B26C
:100DF00003E0022000FB067007B24C45E7D15A46DB
:100E000029462046FFF795FF20E0C6EB480007B2D1
:100E100015E05A4629462046FFF78BFF681C85B22D
:100E2000002F08DD601C84B27000022101FB180055
:100E3000384407B203E0022000FB067007B25545B4
:100E4000E7D15A4629462046FFF773FF00BFAAE7BD
:100E50002DE9F84105460E4617469846079CA0B274
:100E600033463A46314600902846FFF774FFA0B259
:100E700043463A46414600902846FFF76CFFA0B231
:100E800043462A46314600902846FFF764FFA0B249
:100E900043463A46314600903846FFF75CFFBDE8CE
:100EA000F8812DE9F0411C46069FC1EB011CDFF8DB
:100EB000408008EB8C1C0CEB400300262AE000006D
:100EC000008008200082082074C2024000C0024056
:100ED0001CC102400080092000C00F40008C082087
:100EE0007C0100109C997400FFFF00FC0000DF01F2
:100EF000000001A0002502E023F8027B6D1CA2EB9C
:100F0000000CAC45F8D8A2EB000CCCF5F07C03EB60
:100F10004C03761CA4EB010CB445EBD8BDE8F08182
:100F20002DE9F04704460D461746784200214FEA66
:100F30004708C8F10202F94E00BFA4EB000805EB18
:100F400001094FF4F07A0AFB098846F8283004EBCF
:100F5000000805EB01090AFB098846F8283004EB74
:100F60000008A5EB01090AFB098846F82830A4EB24
:100F70000008A5EB01090AFB098846F828309446C9
:100F80008C450DDC01F1010841464FF0010909EBE8
:100F900048084244C84203D1844501DC4FF0000CAC
:100FA000844507DD00F1010840464FF0010909EBD7
:100FB000480842440028C0DDBDE8F08770B505460A
:100FC0000E461446A2B231462846FFF7B2FE70BD67
:100FD0002DE9FF5F06460F4690469946DDF838B08A
:100FE0004146684600F0A8FC00241DE01DF804A05E
:100FF000002516E0C5F107004AFA00F000F00100F4
:1010000038B13A1991B2721990B24A46FFF791FE7F
:1010100006E03A1991B2721990B25A46FFF789FE6A
:101020006D1C082DE6D3641C102CDFD3BDE8FF9F98
:101030002DE9FE4F06460F4690469946DDF830B042
:101040004146684600F085FC002415E01DF804A028
:1010500000250EE0C5F107004AFA00F000F001009B
:1010600030B13A1991B2721990B24A46FFF761FE57
:101070006D1C082DEED3641C0C2CE7D3BDE8FE8F4D
:101080002DE9F84305460E4614469846DDF82090B3
:1010900000BF14F8017B43463A4631462846CDF856
:1010A0000090FFF795FFB5F5EC7F03DA05F1080036
:1010B00085B208E0FF2E04DC002506F1100086B2A0
:1010C00001E00025002620780028E2D1BDE8F88361
:1010D0002DE9FF4F074688469B463C464546BA46A3
:1010E00046464FF0000915E0A4F1140188B22946E4
:1010F000029AFFF71EFE601C84B2A6F1140081B2B2
:101100005046029AFFF715FE701C86B209F10100E5
:101110001FFA80F9B9F1280FE6DB3C464546BA468E
:1011200046464FF000092BE0A5F1140291B2A4F15C
:10113000140290B25A46FFF7FCFD05F1140291B279
:10114000A4F1140290B25A46FFF7F3FD601C84B27A
:10115000A6F1140291B2AAF1140290B25A46FFF716
:10116000E8FDA6F1140291B20AF1140290B25A46B7
:10117000FFF7DFFD701C86B209F101001FFA80F94C
:10118000B9F10A0FD0DB3C464546BA4646464FF019
:1011900000092BE0A5F1140291B204F10A0290B209
:1011A0005A46FFF7C6FD05F1140291B204F10A0296
:1011B00090B25A46FFF7BDFD601C84B206F10A02E8
:1011C00091B2AAF1140290B25A46FFF7B2FD06F1AD
:1011D0000A0291B20AF1140290B25A46FFF7A9FD31
:1011E000701C86B209F101001FFA80F9B9F10A0FEB
:1011F000D0DBBDE8FF8F10B50246002112E001EB05
:101200008110474B185C1378984209D1507801EB54
:101210008113434C23445B78984201D1084610BDAA
:10122000481C81B20029EAD00020F8E710B5024638
:10123000002114E001EB01103A4B13F81000137871
:1012400098420AD1507801EB0113364C04EB43036A
:101250005B78984201D1084610BD481C81B2B22982
:10126000E8D30020F8E72DE9F04F04460F46154675
:101270009846A3464FF0000900262FE0099810F881
:1012800006904FF0000A23E009F0800038B12648AC
:10129000008882B239462046FFF74BFD06E022481F
:1012A000808882B239462046FFF743FD4FEA496005
:1012B0004FEA1069601C84B2A4EB0B00A84203D172
:1012C0005C46781C87B206E00AF1010000F0FF0AD4
:1012D000BAF1080FD8DB00BF701C86B205FB08F01E
:1012E000C11700EB5171B6EBE10FC7DBBDE8F08F22
:1012F0002DE9F04F0546894692469B46A8460026B2
:10130000BBF1000F3CD1002437E00AEB0A1005497D
:1013100001EB4000801C065D002729E0000001A0D1
:10132000946A0400D56A04002400001006F08000CE
:1013300038B1FD48008882B249462846FFF7F9FCDB
:1013400006E0F948808882B249462846FFF7F1FC5A
:101350007006060E681C85B2A5EB0800102805D1A2
:10136000454609F101001FFA80F903E0781CC7B275
:10137000082FDBDB00BF601CC4B2202CC5DB33E0D0
:1013800000242FE00AEB0A10E84901EB4000801C22
:10139000065D002721E006F0800038B1E248808831
:1013A00082B249462846FFF7C4FC06E0DE480088C2
:1013B00082B249462846FFF7BCFC7006060E681C40
:1013C00085B2A5EB0800102805D1454609F10100BA
:1013D0001FFA80F903E0781CC7B2082FDBDB00BFDF
:1013E000601CC4B2202CCDDBBDE8F08F2DE9F04F9E
:1013F0000546894692469B46A8460026BBF1000F4B
:1014000033D100242EE00AEB8A10C9490844801C1D
:10141000065D002721E006F0800038B1C248008850
:1014200082B249462846FFF784FC06E0BE48808821
:1014300082B249462846FFF77CFC7006060E681CFF
:1014400085B2A5EB0800182805D1454609F1010031
:101450001FFA80F903E0781CC7B2082FDBDB00BF5E
:10146000601CC4B23F2CCEDB32E000242EE00AEB3D
:101470008A10AF490844801C065D002721E006F071
:10148000800038B1A848808882B249462846FFF7D4
:1014900050FC06E0A448008882B249462846FFF77F
:1014A00048FC7006060E681C85B2A5EB08001828DB
:1014B00005D1454609F101001FFA80F903E0781CC7
:1014C000C7B2082FDBDB00BF601CC4B23F2CCEDBF1
:1014D000BDE8F08FF0B504460D4616461F463B4664
:1014E000224631462846FFF781FF1820F0BDF0B5AF
:1014F00004460D4616461F463B46224631462846C0
:10150000FFF7F6FE1220F0BD2DE9F84306460D4622
:1015100014461F464FF00008C14654E0207800B939
:1015200052E006EB090086B2207880281ADD06F129
:101530001800B0F5F07F07DD002605F1160085B232
:10154000B5F5887F00DD00252046FFF754FE1FFA21
:1015500080F83B462A4631464046FFF7BBFF8146AE
:10156000A41C2FE020780D280AD105F1160085B2C1
:10157000B5F5887F00DD0025641C4FF0000922E0EE
:1015800020780A2804D10026641C4FF000091AE0D4
:1015900006F10C00B0F5F07F07DD002605F10C0028
:1015A00085B2B5F5887F00DD00255F48808880B270
:1015B00000905D48008883B2227829463046FFF7C4
:1015C00007FD641C00BFA9E700BFBDE8F8832DE953
:1015D000F84305468846144600263FE0207800B9C7
:1015E0003DE02078302807DB2078392804DC20789B
:1015F00030381FFA80F919E020782E2802D14FF0F8
:101600000A0913E020782D2802D14FF00B090DE0D4
:101610002078202802D14FF00C0907E020785628C6
:1016200002D14FF00D0901E04FF00E094FEA4917C2
:10163000F81707EB5070C01000EBC001C1EB801031
:101640003C490844A919009088B23723202241461A
:10165000FFF709FE641C06F1200086B2BEE700BF5A
:10166000BDE8F8832DE9F84306460D4614461F46AB
:101670004FF00008C14656E0207800B95CE006EB68
:10168000090086B2207880281ADD06F11000B0F536
:10169000F07F07DD002605F1100085B2B5F5887FE3
:1016A00000DD00252046FFF7C1FD1FFA80F83B460C
:1016B0002A4631464046FFF71AFF8146A41C31E016
:1016C00020780D280AD105F1100085B2B5F5887F84
:1016D00000DD0025641C4FF0000924E020780A2872
:1016E00004D10026641C4FF000091CE006F108003C
:1016F000B0F5F07F07DD002605F1100085B2B5F5E5
:10170000887F00DD00250848808880B20090064868
:10171000008883B2227829463046FFF759FC641CC2
:101720004FF00A0900BFA7E724000010D56A0400A3
:10173000946A040089A3040000BFBDE8F8832DE982
:10174000F84306460D4614461F464FF00008C146B2
:1017500056E0207800B954E006EB090086B2207804
:1017600080281ADD06F11000B0F5F07F07DD0026B5
:1017700005F1100085B2B5F5887F00DD0025204613
:10178000FFF754FD1FFA80F83B462A463146404693
:10179000FFF7ADFE8146A41C31E020780D280AD168
:1017A00005F1100085B2B5F5887F00DD0025641CC9
:1017B0004FF0000924E020780A2804D10026641C98
:1017C0004FF000091CE006F10800B0F5F07F07DDDE
:1017D000002605F1080085B2B5F5887F00DD0025FB
:1017E0005248808880B200905048008883B22278A6
:1017F00029463046FFF71CFC641C4FF0080900BF67
:10180000A7E700BFBDE8F883F0B504461D46062AE9
:1018100000DD0A2202B90122052900DD05219142DD
:1018200000DD1146002004E02026414F3E54461CB6
:10183000F0B20C28F8D310460FE00A26B4FBF6F7F6
:1018400006FB17463036471EDFF8E4C00CF8076089
:101850000A26B4FBF6F4461EF0B20028EDDC89B18E
:101860001346084605E05E1E314FBE5DFE545E1E07
:10187000F3B2061EA0F10107F8B2F4D12E262C4FC8
:10188000FE5402E020262A4FBE54A5B900200EE0E7
:10189000274E365C302E07D1254F461CBE5D2E2EBE
:1018A00002D020263E5400E004E0461CF0B2561E52
:1018B0008642EDDC00BF561CF2B2104604E0002662
:1018C0001B4F3E54461CF0B20C28F8D3F0BD30B587
:1018D000184A00210BE08478457844EA052405780D
:1018E00044EA054308C2401C401C401C491CB1F599
:1018F000FF3FF0D330BD70B50E4B002112E0002247
:101900000CE005782D04467845EA0625867845EAF8
:10191000060410C3401C401C401C521CB2F5F07F52
:10192000EFD3491CB1F5887FE9D370BD24000010C6
:10193000980F0010000001A070B505460C46A4F1F8
:1019400020000B4A02EB0011102228461AF01FFF5C
:1019500070BDA1F1200202EB4202064B03EB8202B2
:1019600013680360536843609268826070470000A8
:1019700079820400698804003EB5054642F6692074
:101980001EF0D5FA00241DE0F74841000322CDE9FE
:1019900000210290601C00EB4000042202EB0010CA
:1019A000062202FB040304EB4400042202EB0010B5
:1019B000062202FB04014FF4EE724FF4BE701DF0DC
:1019C0008BFF641C052CDFD33EBD10B542F66920A9
:1019D000E64948604FF6FF7008600023E4A2F12159
:1019E0005420FFF73FFE0023E3A2F121A420FFF7DC
:1019F00039FE10BD70B5054642F66920DB494860E6
:101A00004FF6FF700860A5B900240FE004EB440115
:101A1000DB4B03EB410204EB8401542303EB011085
:101A20000023F121FFF71EFE601CC4B2052CEDDB84
:101A300014E0002410E0611D01EB4101D04B03EBE9
:101A4000410204EB8401542303EB01100023F12134
:101A5000FFF708FE601CC4B2052CECDB70BD10B5AE
:101A600042F66920C14948604FF6FF7008600023C4
:101A7000C4A2F1215420FFF7F5FD10BD10B542F6C8
:101A80006920BA4948604FF6FF7008600023C0A281
:101A9000F1215420FFF7E6FD10BD10B50446002CDF
:101AA00039D14FF6FF70B149086042F669204860AD
:101AB0000023B8A2E7215420FFF7D4FD0023B7A2EA
:101AC000FB215420FFF7CEFD0023B2A2E721A42082
:101AD000FFF7C8FD0023B3A2FB21A420FFF7C2FD3E
:101AE0000023B2A2E721F420FFF7BCFD0023ADA242
:101AF000FB21F420FFF7B6FD0023ACA2E7214FF451
:101B0000A270FFF7AFFD0023AAA2FB214FF4A27041
:101B1000FFF7A8FD2EE0012C2CD14FF6FF70934962
:101B2000086042F6692048600023A4A2E7215420FF
:101B3000FFF798FD0023A3A2FB215420FFF792FD9D
:101B40000023A2A2E721A420FFF78CFD0023A1A27D
:101B5000FB21A420FFF786FD0023A0A2E7214FF47C
:101B6000CA70FFF77FFD00239EA2FB214FF4CA70CD
:101B7000FFF778FD10BD10B54FF6FF707B49086088
:101B800042F669204860002398A2E7215420FFF71D
:101B900069FD002397A2FB215420FFF763FD00237A
:101BA00096A2F1214FF4A270FFF75CFD002396A2EC
:101BB000F1214FF4CA70FFF755FD10BD10B5044672
:101BC0000CB1012C33D14FF6FF706849086042F622
:101BD0006920486000238FA2F1215420FFF742FDC5
:101BE00000238FA2E721A420FFF73CFD00238EA253
:101BF000FB21A420FFF736FD00238DA2E721F4206E
:101C0000FFF730FD002388A2FB21F420FFF72AFD17
:101C100000237AA2F1214FF4A270FFF723FD0023E5
:101C200079A2F1214FF4CA70FFF71CFD26E04FF6B0
:101C3000FF704E49086042F669204860002375A293
:101C4000F1215420FFF70EFD002377A2E721A42005
:101C5000FFF708FD002378A2FB21A420FFF702FD77
:101C6000002366A2F1214FF4A270FFF7FBFC0023D2
:101C700065A2F1214FF4CA70FFF7F4FC10BD10B556
:101C80000446002C39D14FF6FF703849086042F6FF
:101C90006920486000233FA2E7215420FFF7E2FCBF
:101CA00000233EA2FB215420FFF7DCFC002339A2D5
:101CB000E721A420FFF7D6FC00233AA2FB21A420B1
:101CC000FFF7D0FC002339A2E721F420FFF7CAFC7C
:101CD000002334A2FB21F420FFF7C4FC002333A22D
:101CE000E7214FF4A270FFF7BDFC002331A2FB21D6
:101CF0004FF4A270FFF7B6FC34E0012C32D14FF65E
:101D0000FF701A49086042F66920486000232BA240
:101D1000E7215420FFF7A6FC00232AA2FB21542030
:101D2000FFF7A0FC002321A2E721A420FFF79AFCE3
:101D300000231CA2FB21A420FFF794FC002340A257
:101D4000F121F420FFF78EFC002324A2E7214FF4B9
:101D5000CA70FFF787FC002322A2FB214FF4CA7050
:101D6000FFF780FC10BD0000404040002400001040
:101D7000206DCEA92020000020CEA9200000000068
:101D8000A531050020E7A1AEE8AEA42000000000C8
:101D90002A310000E6B58BE9878F0000E698BEE7A0
:101DA000A4BA0000E8AEBEE7BDAE0000E7B3BBE7F3
:101DB000BB9F0000E4BFA1E681AF0000E69687E488
:101DC000BBB60000E7AEA1E790860000E4BF9DE54A
:101DD000AD980000E695B0E68DAE0000E69BB4E558
:101DE000A49A000020322F3200000000E6B885E9F6
:101DF00099A40000E8A1A8E6A0BC0000E4B88AE429
:101E0000B880E9A1B5000000E4B88BE4B880E9A18E
:101E1000B5000000E588A0E999A4E8A18C000000C5
:101E2000E7BABFE680A70000E887AAE58AA8000015
:101E3000E5AFB9E695B00000E5A48DE588B60000F1
:101E4000E5B7A5E585B7000010B54FF6FF70FE4970
:101E5000086042F6692048600023AFF2C802E7211B
:101E60005420FFF7FFFB0023AFF2D002FB215420E8
:101E7000FFF7F8FB0023AFF2E402E721A420FFF70D
:101E8000F1FB0023AFF2E402FB21A420FFF7EAFB01
:101E90000023AFF2E802E721F420FFF7E3FB002381
:101EA000AFF20012FB21F420FFF7DCFB0023AFF2BE
:101EB0000412E7214FF4A270FFF7D4FB0023AFF226
:101EC0000C12FB214FF4A270FFF7CCFB10BD38B50C
:101ED00004460020182340F2E11201460090FEF76C
:101EE000E0FF0020D84948604FF6FF7008600023EB
:101EF000D6A203210420FFF7B5FB38BD08B543F691
:101F0000AC101EF014F80520FD234FF4BA725C21CA
:101F1000009004201DF0AEFD08BD10B504464AF245
:101F2000FF501EF004F8CB481EF012F81823C02210
:101F3000002108461DF072FD00201DF0F8FF022070
:101F40001EF044F8C44901EB4411C44A127801EB75
:101F50000210022200211DF081FC10BD10B50020EE
:101F6000FFF7DBFFFFF7CAFF10BD7CB50546002079
:101F70001EF02CF842F669201DF0CEFF6FF07F4076
:101F80001DF0D5FF00242EE04FF4BE70ADF8000028
:101F900004EB4400042101EB0010062101FB0400C6
:101FA00000B2ADF802004FF4EE70ADF80400601C12
:101FB00000EB4000042101EB0010062101FB0400AE
:101FC00000B2ADF80600C4EBC401A54A02EB8101E2
:101FD000A24A1278C2EBC20201EB42000E2269460D
:101FE0001DF050FC641C052CCED37CBD10B5FFF752
:101FF000B5FF0020FFF7C0FC0020FFF7B6FF00246C
:102000001FE0032C0ED2974800EB0412601C00EB7B
:1020100040001A2303EBC00081B200230420FFF725
:1020200021FB0DE08F4800EB0412A01E00EB4000E6
:102030001A2303EBC00081B20023B820FFF712FB84
:10204000641C062CDDD310BD08B543F6AC10BE23CE
:1020500040F2DF12702100900020FEF722FF08BD41
:1020600010B50020FFF733FFFFF7EEFF10BD08B5F6
:1020700043F6AC10A02340F2DF125621009000205E
:10208000FEF70FFF43F6AC10E32340F2DF12C1214D
:1020900000900020FEF705FF08BD10B50020FFF7F7
:1020A00016FFFFF7E4FF10BD08B543F6AC10A02300
:1020B00040F2DF12602100900020FEF7F2FE08BD22
:1020C00010B50020FFF703FFFFF7EEFF10BD10B5BE
:1020D000FFF7F6FF4FF6FF705B49086040F23F20C4
:1020E00048600023604A04211846FFF7BBFA4FF608
:1020F000FF70554908605D48486000235CA21A21C2
:102100000420FFF7AFFA00235CA232212C20FFF756
:10211000A9FA00235CA232219020FFF7A3FA002342
:102120005CA23221F420FFF79DFA00235BA232214A
:102130004FF4AC70FFF796FA00235AA232214FF405
:10214000DE70FFF78FFA0020FFF7A7FC10BD704785
:1021500000B5FFF7FCFF00BD10B50120FFF70CFC38
:102160000320FFF7DAFE4FF6FF701DF0E0FE3F4858
:102170001DF0D2FE002422E0042C0FD24A4901EBCC
:102180004411364B1B7801EB031004EB4401C900EA
:1021900001F11A0204211DF061FB0FE0424901EB3D
:1021A00044112E4B1B7801EB0310211F01EB410161
:1021B000C90001F11A02B8211DF050FB641C072C64
:1021C000DAD310BD70B50120FFF7D6FB0120FFF771
:1021D000A4FE4FF6FF701DF0AAFE24481DF09CFEE1
:1021E0001E4890F8360000EB80011C48383050F84B
:1021F00031002E490D5C00247FE004F0010008BB93
:10220000164991F8361001EB81031449383151F821
:1022100033104D235943264B03EB8101C4EBC40318
:1022200001EB83010D4B1B78C3EBC30301EB4300B0
:10223000610801EB4101C90001F11A0204211DF0FE
:102240000DFB59E036E00000240000105A4374658D
:102250006B000000606C05007F2B0500E40F001090
:10226000F32A0500031D0500812C05003366CC0010
:10227000E696B9E5BC8F203A00000000E9A291E79C
:102280008E875B487A5D0000E794B5E5B9B35B568D
:102290005D00000043705B465D000000445B205D14
:1022A00000000000434D50003CD304008CD20400D9
:1022B000B8D90400FC4991F8361001EB8103FA49C2
:1022C000383151F833104D235943F84B03EB81015A
:1022D000C4EBC40301EB8301F34B1B78C3EBC303D3
:1022E00001EB4300611E01EB4101C9001A2303EB1E
:1022F0005102B8211DF0B2FA641CAC42FFF47DAF6C
:1023000070BD10B50446EA4901EB4411E64A127863
:1023100001EB0210F222B4211DF0A0FA10BD2DE94C
:10232000F8430446204623F009FC05460022E14B11
:1023300023F098FD0BD2E04C41F29C30ADF8000048
:1023400002208DF8020001208DF8030080E0204675
:1023500023F0F4FB05460022D84B23F083FD14D86C
:10236000204623F0EBFB05460022D54B23F0DEF997
:10237000074623F09FFB80B2ADF8000002208DF8E5
:10238000020001208DF8030062E0204623F0D6FB16
:1023900005460022CB4B23F065FD14D8204623F0E0
:1023A000CDFB05460022C84B23F0C0F9074623F0B9
:1023B00081FB80B2ADF8000003208DF802000120FF
:1023C0008DF8030044E0204623F0B8FB05460022C8
:1023D000BE4B23F047FD14D8204623F0AFFB054643
:1023E0000022BB4B23F0A2F9074623F063FB80B227
:1023F000ADF8000001208DF8020000208DF80300E8
:1024000026E0204623F09AFB05460022AC4B23F041
:1024100029FD14D8204623F091FB05460022AD4B40
:1024200023F084F9074623F045FB80B2ADF80000A5
:1024300002208DF8020000208DF8030008E0A0B211
:10244000ADF8000003208DF8020000208DF8030095
:102450000098BDE8F8832DE9F8430446204623F0B0
:102460006DFB05460022934B23F0FCFC0AD2924CF4
:1024700041F29C30ADF8000002208DF802008DF88A
:1024800003007EE0204623F059FB054600228B4BDB
:1024900023F0E8FC14D8204623F050FB0546002228
:1024A000874B23F043F9074623F004FB80B2ADF8D5
:1024B000000002208DF8020003208DF8030060E088
:1024C000204623F03BFB054600227E4B23F0CAFC4E
:1024D00014D8204623F032FB054600227A4B23F025
:1024E00025F9074623F0E6FA80B2ADF80000012096
:1024F0008DF8020002208DF8030042E0204623F010
:102500001DFB05460022714B23F0ACFC14D820467D
:1025100023F014FB054600226B4B23F007F9074616
:1025200023F0C8FA80B2ADF8000001208DF8020057
:1025300002208DF8030024E0204623F0FFFA054630
:1025400000225F4B23F08EFC13D8204623F0F6FACE
:10255000054600225E4B23F0E9F8074623F0AAFA6D
:1025600080B2ADF8000002208DF802008DF8030063
:1025700007E0A0B2ADF8000001208DF802008DF850
:1025800003000098BDE8F88338B5044652481DF0B2
:10259000CEFC52481DF0C0FC51481DF0D9FC002073
:1025A0001DF014FD4F490023042208680321FFF7A2
:1025B0002BF94DA14D481AF0DEF804EB84008000A1
:1025C00000F12802502149481DF048F9364890F89A
:1025D000360000EB80013448383050F831000528CF
:1025E00060D2DFE800F0030453B8E80000BF3D48C4
:1025F00040684FF6FF71884206D13C483CA10A680A
:1026000002608988818033E02748C08D01281CD171
:1026100034484268244890F83610491E00F5FD7091
:1026200030F81100824203D200202E4948600CE0AD
:102630002C4842681C4890F83610491E00F5FD7081
:1026400030F81100101A274948602B4800780128FB
:1026500007D124490023042248680321FFF7D4F856
:1026600006E020490023042248680221FFF7CCF845
:1026700022A11E481AF07FF804EB8400800000F1CC
:102680002802A02119481DF0E9F896E01548406895
:102690001B4988423CD115481AA10A680260496862
:1026A00041604EE088E00000E40F0010B8D904005B
:1026B0007CD5040084D7874180F0FA02D0126341B0
:1026C0000088C34080842E4100408F40006AF8405B
:1026D0000000594000002440FFFF80003366CC001A
:1026E000606C0500300300106B560000980F00105E
:1026F0005550504552000000FB0000106D41200075
:10270000F6FF0900555050455220202000000000DF
:10271000FE494868FFF79FFE0090FD480099016060
:1027200002469178108800230422FFF76DF8F848DC
:10273000C07800EB4000F74A02EB4001F6481AF07F
:102740001AF804EB8400800000F12802A021F2486E
:102750001DF084F831E0ED4840684FF6FF71884283
:1027600007D1ED48AFF264010A6802604968416030
:102770000EE0E6494868FFF7D2FD0090E448009972
:10278000016002469178108800230422FFF73CF88C
:10279000DF48C07800EB4000E04A8118DE4819F0BD
:1027A000EAFF04EB8400800000F12802A021DA484F
:1027B0001DF054F801E000E000BF00BFD3490889D4
:1027C000002304220121FFF71FF8D5A1D24819F0F8
:1027D000D2FFF3225421D0481DF040F8D1490878A7
:1027E000FFF78FFD38BD2DE9F8430446204623F05E
:1027F000A5F905460022CC4B23F034FB13D8204624
:1028000023F09CF905460022C84B22F08FFF0746B3
:1028100023F050F980B2ADF8000002208DF80200DC
:102820008DF8030025E0204623F088F905460022B4
:10283000BF4B23F017FB13D8204623F07FF9054642
:102840000022BC4B22F072FF074623F033F980B21E
:10285000ADF8000002208DF802008DF8030008E0BA
:10286000A0B2ADF8000003208DF8020001208DF821
:1028700003000098BDE8F88338B50120FFF77CF825
:102880000520FFF74AFB6FF07F401DF050FBAA4880
:102890001DF05EFB00240FE0A84A02EB4412A84B97
:1028A0001B7802EB031004EB8402642303EB021198
:1028B00028221CF0D3FF641C032CEDD3A1481DF08B
:1028C00047FB00241EE0601C00EB800080002830E5
:1028D00002B202231421601C1CF018FF611C01EBE2
:1028E0008101890001F12802611C01EB81039449F7
:1028F000383151F83310944B03EBC10032211CF0F6
:10290000ADFF641C8E4890F83500A042DBD88F489C
:102910001DF00DFB88481DF01BFB002468E0611CC6
:1029200001EB81028649383101EBC2010023042208
:1029300048680321FEF768FFAFF25421764819F08A
:102940001AFF601C00EB8000800000F1280250217B
:1029500071481CF083FF611C01EB8102784938311A
:1029600001EBC2018868FFF73EFF00909DF802105E
:10297000BDF8000000230422FEF746FF601C00EBB8
:1029800080016F48383050F8310040B1601C00EBD6
:1029900080016B48383050F83100012804D16C496F
:1029A0005D4819F0E8FE13E0601C00EB800164480C
:1029B000383050F8310002280AD19DF80300644AEB
:1029C000103A02EB001000F10801534819F0D3FE51
:1029D000601C00EB8000800000F12802A0214E481E
:1029E0001CF03CFF64221146EA201CF07BFE641CB4
:1029F000534890F83500A04291D84F481DF0A8FAEE
:102A000038BD38B50120FEF7B7FF0020FFF785FA83
:102A10006FF07F401DF08BFA4E481DF07DFA0024C8
:102A200048E004F0010010BB454991F8361001EB75
:102A300081034349383151F833104D235943464BF4
:102A400003EB8101C4EBC40301EB83013C4B1B7816
:102A5000C3EBC30301EB4300611C490801EB4101D7
:102A6000C90001F11A0204211CF0F8FE21E03449EA
:102A700091F8361001EB81033149383151F83310A8
:102A80004D235943344B03EB8101C4EBC40301EBE9
:102A900083012B4B1B78C3EBC30301EB4300611E87
:102AA000490801EB4101C90001F11A02B8211CF0EB
:102AB000D5FE641C0B2CB4D36FF07F401DF037FAA9
:102AC0001F4890F8353090F8362024A1124819F0AC
:102AD000F1FB1A22782110481CF0C0FE184991F829
:102AE000361001EB81021649383151F83210164A7E
:102AF00002EBC1001A224FF496711CF0AFFE104891
:102B000090F8360000EB80010D482BE030030010F8
:102B10002C000010AB300500980F0010E1310500CB
:102B20002073000024010010006AF84000005940A2
:102B300000409F4000002440606C0500DCD204008F
:102B4000E40F00106C2306000C130500FFFF80004B
:102B5000641305003366CC00BCDF040025642F2518
:102B600064000000383050F83100052874D2DFE8E6
:102B700000F003F9F8F7F600FA4991F8361001EB86
:102B80008102F849383101EBC20100230422486870
:102B90000321FEF739FEAFF2B041F34819F0EBFD27
:102BA00032227821F0481CF059FEEE4890F83600A9
:102BB00000EB8001EB48383000EBC100C068C0B1C9
:102BC000E84991F8361001EB8102E649383101EB12
:102BD000C20100230422C8680121FEF715FEE3A10B
:102BE000E14819F0C8FD4A227821DF481CF036FE82
:102BF00008E0DC490978DE4A02EBC1004A2278216C
:102C00001CF02CFED748C08B38B3D64890F836005D
:102C100000EB8001D348383000EBC1008069E8B197
:102C2000D04890F8360000EB8001CE48383000EBF9
:102C3000C1008069092811D8CA4991F8361001EB02
:102C40008102C849383101EBC2010123622288693F
:102C500078211CF05BFD38E0FEE309E0C14909780A
:102C6000C44A02EBC100622278211CF0F7FD2CE07F
:102C7000BC4890F8360000EB8001BA48383000EBD1
:102C8000C1008069C0B1B74991F8361001EB8102EB
:102C9000B449383101EBC2010023032288690121C4
:102CA000FEF7B2FDB4A1B04819F065FD62227821AB
:102CB000AD481CF0D3FD08E0AA490978AD4A02EB03
:102CC000C100622278211CF0C9FDA64991F8361096
:102CD00001EB8102A349383101EBC2018868FFF79B
:102CE00082FD00909DF80210BDF800000023042230
:102CF000FEF78AFDA1499C4819F03DFD32224FF4B0
:102D0000967199481CF0AAFD964890F8360000EBA1
:102D100080019448383000EBC100006918B3914934
:102D200091F8361001EB81028E49383101EBC20176
:102D30000869FFF758FD00909DF80210BDF80000EB
:102D400000230422FEF760FD8C49874819F013FD2B
:102D50004A224FF4967184481CF080FD0DE056E342
:102D60007AE29FE139E07F490978824A02EBC100AB
:102D70004A224FF496711CF071FD4FF6FF701DF062
:102D8000D6F87F481DF0C8F800201DF01FF97D48D7
:102D90001DF0DEF8782228217BA01CF05FFD782250
:102DA000F021AFF2BC601CF059FDAA22282177A0C7
:102DB0001CF054FDAA22F0216FA01CF04FFD7448B6
:102DC0001DF0C6F8F322342172A01CF047FDF32257
:102DD0008C2166A01CF042FD66E3624991F8361032
:102DE00001EB81025F49383101EBC201002304226B
:102DF00048680321FEF708FDAFF214715A4819F034
:102E0000BAFC3222782158481CF028FD554890F829
:102E1000360000EB80015348383000EBC100C06839
:102E2000C0B1504991F8361001EB81024D4938315B
:102E300001EBC20100230422C8680121FEF7E4FC73
:102E40004AA1494819F097FC4A22782146481CF0CB
:102E500005FD08E043490978454A02EBC1004A22D2
:102E600078211CF0FBFC3F4991F8361001EB810200
:102E70003C49383101EBC2018868FFF7B4FC00908F
:102E80009DF80210BDF8000000230422FEF7BCFCF0
:102E90003A49354819F06FFC32224FF496713248A6
:102EA0001CF0DCFC2F4890F8360000EB80012D4828
:102EB000383000EBC1000069F8B12A4991F83610AA
:102EC00001EB81022749383101EBC2010869FFF7A4
:102ED0008AFC00909DF80210BDF800000023042237
:102EE000FEF792FC2549204819F045FC4A224FF490
:102EF00096711D481CF0B2FC09E01A4909781D4A78
:102F000002EBC1004A224FF496711CF0A7FC154851
:102F1000C08B30B3134890F8360000EB80011148A5
:102F2000383000EBC1008069B0B30E4890F836002D
:102F300000EB80010B48383000EBC10080690928A4
:102F40002BD8084991F8361001EB81020549383138
:102F500001EBC20101236222886978211CF0D6FBB3
:102F60006BE024E0E40F0010980F001073000000E5
:102F7000FC1205000C1205006D41000064130500F1
:102F80003366CC00C0C60500563A0000493A00003E
:102F9000606C050054203A00FFE7FE490978FE4ABC
:102FA00002EBC100622278211CF058FC45E0F94890
:102FB00090F8360000EB8001F648383000EBC10095
:102FC000806980B3F34890F8360000EB8001F14847
:102FD000383000EBC1008069C8280AD9C821ED4803
:102FE00090F8360000EB8002EA48383000EBC2006F
:102FF0008161E84991F8361001EB8102E5493831E9
:1030000001EBC2010023032288690121FEF7FCFBCA
:10301000AFF29C01E14819F0AEFB62227821DF4853
:103020001CF01CFC09E0FFE7DA490978DA4A02EBF8
:10303000C100622278211CF011FC4FF6FF701CF0D9
:1030400076FFD7481CF068FF00201CF0BFFFD54872
:103050001CF07EFF78222821AFF2D4001CF0FEFB8A
:103060007822F021AFF680101CF0F8FBAA2228216C
:10307000AFF2E8001CF0F2FBAA22F021AFF2081038
:103080001CF0ECFBC8481CF063FFF3223421AFF2C4
:10309000FC001CF0E3FBF3228C21AFF230101CF09B
:1030A000DDFB01E2BB4991F8361001EB8102B94921
:1030B000383101EBC2010023042248680321FEF7E6
:1030C000A3FBAFF6DC11B54819F055FB322278218D
:1030D000B2481CF0C3FBAF4890F8360000EB80010B
:1030E000AC48383000EBC100C068C8B1A94991F8BC
:1030F000361001EB8102A749383101EBC2010023F0
:103100000422C8680121FEF77FFBAFF2A011A3489B
:1031100019F031FB4A227821A0481CF09FFB08E0FF
:103120009C490978A14A02EBC1004A2278211CF08F
:1031300095FB984890F8360000EB800195483830B0
:1031400000EBC100806828B3924991F8361001EB7A
:1031500081029049383101EBC2018868FFF77BF9A1
:1031600000909DF80210BDF8000000230422FEF735
:103170004BFB9DF803008E4A02EB001000F10801A2
:10318000864819F0F8FA32224FF4967183481CF001
:1031900065FB09E07F4909787F4A02EBC1003222D2
:1031A0004FF496711CF05AFB7A4991F8361001EBF6
:1031B00081027849383101EBC2010869FFF74BF908
:1031C00000909DF80210BDF8000000230422FEF7D5
:1031D0001BFB9DF80300764A02EB001000F108018A
:1031E0006E4819F0C8FA4A224FF496716B481CF0E9
:1031F00035FB4FF6FF701CF09AFE69481CF08CFE00
:1032000000201CF0E3FE67481CF0A2FE7822282173
:10321000AFF28C201CF022FB7822F021AFF6383080
:103220001CF01CFBAA22282162A01CF017FBAA227A
:10323000F02161A01CF012FB5B481CF089FEF32218
:103240003421AFF2B0201CF009FBF3228C21AFF245
:10325000E4201CF003FB27E14E4890F8360000EB19
:1032600080014C48383000EBC10054A102694B4842
:1032700019F020F83222782148481CF0EFFA45482E
:1032800090F8360000EB80014248383000EBC10076
:103290008068642813D33F4890F8360000EB800123
:1032A0003C48383000EBC10044A182683B4819F02B
:1032B00001F84A22782139481CF0D0FA08E0354953
:1032C0000978354A02EBC1004A2278211CF0C6FA7F
:1032D000304890F8360000EB80012E48383000EB83
:1032E000C100006AD0B32B4890F8360000EB800193
:1032F0002848383000EBC100006AB0F57A7F13D35C
:10330000244890F8360000EB80012248383000EB6A
:10331000C100006A0A21B0FBF1F50023042202215A
:103320002846FEF771FA0EE01A4991F8361001EBC3
:1033300081021849383101EBC20100230422086AD6
:103340000321FEF761FA1F49144819F014FA3222DA
:103350004FF4967111481CF081FA06E0FFE7322223
:103360004FF4967118A01CF079FA4FF6FF701CF01C
:10337000DEFD0B481CF0D0FD00201CF027FE0948A4
:103380001CF0E6FD78222821AFF204401CF066FA1A
:1033900078221DE0E40F00100C120500980F0010B9
:1033A0003366CC00C0C60500606C0500FC12050049
:1033B00054130500523A0000CEA9000025336425BD
:1033C00025000000E43105004E4F4E45000000008E
:1033D000F021AFF6EC401CF041FAAA222821FBA014
:1033E0001CF03CFAAA22F021F9A01CF037FAF948A7
:1033F0001CF0AEFDF3223421AFF268401CF02EFA2F
:10340000F3228C21AFF29C401CF028FA4CE03222CF
:103410007821F1A01CF022FAF14991F8361001EB65
:103420008102EF49383101EBC201496AED4A02EBF2
:103430000111EB4A127801EBC20032224FF496716F
:103440001CF00CFAE64890F8360000EB8001E448E6
:10345000383000EBC10000E025E0C068C8B1E049A9
:1034600091F8361001EB8102DD49383101EBC201E0
:1034700000230422C8680121FEF7C6F9AFF21451F7
:10348000D94819F078F94A227821D7481CF0E6F992
:1034900008E0D3490978D54A02EBC1004A227821D5
:1034A0001CF0DCF900E000BF00BF38BD10B5012002
:1034B000FEF762FA0220FEF730FD4FF6FF701CF0B7
:1034C00036FDCB481CF028FD00242CE004F0010060
:1034D000A0B9C4EB0411C74B03EB4101C04B1B78EF
:1034E000C3EB0313C818611C490801EB4101C90073
:1034F00001F11A0204211CF0B1F913E0C4EB04112C
:10350000BC4B03EB4101B64B1B78C3EB0313C8184C
:10351000611E490801EB4101C90001F11A02B821FD
:103520001CF09CF9641C0F2CD0D310BD38B5044698
:10353000012C00D100E0002005461DB1FF20AE495E
:10354000486002E0AA48AC494860AB48808880B235
:103550004823C022302100905420FDF7A2FCA64849
:10356000808880B20090A448008883B2A348007885
:103570003130C2B230216C20FDF72AFD022C01D17E
:10358000012000E0002005461DB1FF209A49486057
:1035900002E09748984948609849097801EB810210
:1035A0009649891C01EB8201C8890023042219462F
:1035B000FEF72AF99048808880B25E23C0224A2113
:1035C00000905420FDF76DFC0023874A4A215C20BF
:1035D000FEF748F800238AA24A218E20FEF742F81F
:1035E000032C01D1012000E0002005461DB1FF2081
:1035F0008149486002E07E487F4948607F490978F8
:1036000001EB81027D49891C01EB8201088A0023BC
:1036100004221946FEF7F8F87748808880B27623AE
:10362000C022622100905420FDF73BFC00236E4A2B
:1036300062215C20FEF716F8002371A262218E2021
:10364000FEF710F8042C01D1012000E0002005460F
:103650001DB1FF206849486002E06548664948603E
:103660006848006811281DD16348808880B24623CD
:103670004FF4C872302100904FF48670FDF711FCB2
:103680005E48007800EB80015C48801C00EB810004
:1036900040895D4901EB0012002332214FF486700E
:1036A000FDF7E0FF052C01D1012000E000200546D8
:1036B0001DB1FF205049486002E04D484E49486026
:1036C0004E49097801EB81024C49891C01EB8201CA
:1036D0004888002304221946FEF796F84648808859
:1036E00080B25E234FF4C8724A2100904FF4847078
:1036F000FDF7D7FB00233C4A4A214FF48D70FDF7BC
:10370000B1FF002341A24A214FF4A070FDF7AAFFA8
:10371000062C01D1012000E0002005461DB1FF204C
:103720003549486002E032483349486033490978F6
:1037300001EB81023149891C01EB82018888002359
:1037400004220121FEF760F80023274A62214FF48A
:103750008870FDF787FF0023AFF63C4262214FF4EB
:10376000A070FDF77FFF38BD7CB506460D460120F1
:10377000FEF702F902201CF029FC6FF07F401CF0DC
:10378000D6FB0024C4E04FF4BE70ADF8000004EB9B
:103790004400042101EB0010062101FB040000B2EB
:1037A000ADF802004FF4EE70ADF80400601C00EBC1
:1037B0004000042101EB0010062101FB040000B2CF
:1037C000ADF80600052E3FD222E00000433A00008B
:1037D0006E460000606C05005041555345000000E6
:1037E000E40F00100C120500980F0010FC120500E9
:1037F0003366CC006217050024000010B0080010EA
:103800004DCEA900200100103822050020560000EE
:10381000DFE806F0031B334B6300C5EBC50101EB8A
:103820008101FD4A02EB8101FC4A1278C2EBC2021F
:1038300002EB820201EB4201C4EBC40201EB420045
:103840000E2269461CF01EF85FE0C5EBC50101EBD6
:103850008101F34A02EB8101F04A1278C2EBC20205
:1038600002EB820201EB4201C4EBC40201EB420015
:103870000E2269461CF006F847E0C5EBC50101EBD6
:103880008101E84A02EB8101E44A1278C2EBC202EC
:1038900002EB820201EB4201C4EBC40201EB4200E5
:1038A0000E2269461BF0EEFF2FE0C5EBC50101EBD0
:1038B0008101DD4A02EB8101D84A1278C2EBC202D3
:1038C00002EB820201EB4201C4EBC40201EB4200B5
:1038D0000E2269461BF0D6FF17E0C5EBC50101EBD0
:1038E0008101D24A02EB8101CC4A1278C2EBC202BA
:1038F00002EB820201EB4201C4EBC40201EB420085
:103900000E2269461BF0BEFF00BF00BF601CC4B2A0
:10391000052CFFF638AF7CBDF8B50546BF4991F8D8
:10392000361001EB8102BD49383151F83210C04ADE
:10393000515C481C00EBD071C1F34707012437E00C
:10394000AC4203D1FF201CF0F2FA02E0B9481CF0AF
:10395000EEFA04F00100A0B1601E012202EB50005B
:1039600000EB4000C00000F11803601E00EB4000B7
:10397000C000182202EB5001B4225A201CF04EF86D
:1039800015E0601E012202EB500000EB4000C00079
:1039900000F11803601E400800EB4000C00000F179
:1039A00018014FF4B7724FF48A701CF037F8641C9A
:1039B0009A4890F8360000EB80019848383050F86B
:1039C00031009B49085C401CA042B9D802201CF081
:1039D000FDFA6FF07F401CF0AAFA904890F835305D
:1039E00090F83620AFF68C61934818F063FC1A22E9
:1039F000782191481BF032FF884991F8361001EB8D
:103A000081028649383151F832108C4A02EBC100EC
:103A10001A224FF496711BF021FF804890F836006F
:103A200000EB80017D48383050F83100052871D214
:103A3000DFE810F0050099019E03D504740577496D
:103A400091F8361001EB81027449383101EBC20163
:103A50000023042248680321FDF7D6FE78A17648AA
:103A600018F089FE3222782173481BF0F7FE6B486C
:103A700090F8360000EB80016848383000EBC10058
:103A8000C068C8B1654991F8361001EB81026349FD
:103A9000383101EBC20100230422C8680121FDF77F
:103AA000B3FEAFF63831644818F065FE4A2278213B
:103AB00061481BF0D3FE08E058490978614A02EBDF
:103AC000C1004A2278211BF0C9FE544890F8360004
:103AD00000EB80015148383000EBC1004069D0B1A3
:103AE0004E4991F8361001EB81024C49383101EB17
:103AF000C2010023042248690121FDF785FEAFF6CB
:103B000094314D4818F037FE622278214A481BF064
:103B1000A5FE09E0FEE3414909784B4A02EBC100EA
:103B2000622278211BF09AFE3C4890F8360000EBA8
:103B300080013A48383000EBC100C069C8B137494C
:103B400091F8361001EB81023449383101EBC201A2
:103B500000230422C8690121FDF756FEAFF6F431B7
:103B6000354818F008FE7A22782133481BF076FE9B
:103B700008E02A490978344A02EBC1007A22782108
:103B80001BF06CFE254991F8361001EB81022349A8
:103B9000383101EBC2018868FEF725FE00909DF8E0
:103BA0000210BDF8000000230422FDF72DFE274976
:103BB000214818F0E0FD32224FF496711E481BF0A8
:103BC0004DFE164890F8360000EB8001134838305F
:103BD00000EBC1000069D8B3104991F8361001EB31
:103BE00081020E49383101EBC2010869FEF7FBFD85
:103BF00000909DF80210BDF8000000230422FDF79C
:103C000003FE12490C4818F0B6FD4A224FF4967193
:103C100009481BF023FE26E0C0E50400E40F001075
:103C200098EF040028F60400EC04050034080500B1
:103C30008CD204003366CC00980F00100C130500E2
:103C40006B560000FC1205000C1205006413050001
:103C5000FFE7FE490978FE4A02EBC1004A224FF411
:103C600096711BF0FBFDF948C08BE0B3F74890F864
:103C7000360000EB8001F548383000EBC100806968
:103C800009280AD90921F14890F8360000EB800292
:103C9000EE48383000EBC2008161EC4890F8360005
:103CA00000EB8001E948383000EBC1008069F0B1D9
:103CB000E64890F8360000EB8001E448383000EB2D
:103CC000C1008069092812D8E04991F8361001EB4B
:103CD0008102DE49383101EBC20101236222886989
:103CE0004FF4967100E00DE01BF010FD3AE0D7496B
:103CF0000978D74A02EBC10062224FF496711BF09B
:103D0000ADFD2FE0D14890F8360000EB8001CF48A0
:103D1000383000EBC1008069D0B1CC4991F8361041
:103D200001EB8102C949383101EBC20100230322B2
:103D300088690121FDF768FDAFF6C451C54818F048
:103D40001AFD62224FF49671C2481BF087FD09E00C
:103D5000BE490978BE4A02EBC10062224FF4967157
:103D60001BF07CFD03E2B94991F8361001EB8102AA
:103D7000B649383101EBC20100230422486803210F
:103D8000FDF742FDAFF24811B24818F0F4FC3222C0
:103D90007821B0481BF062FDAC4890F8360000EB8B
:103DA0008001AA48383000EBC100C068C8B1A749FB
:103DB00091F8361001EB8102A449383101EBC201C0
:103DC00000230422C8680121FDF71EFDAFF66461DF
:103DD000A04818F0D0FC4A2278219E481BF03EFDF6
:103DE00008E09A4909789C4A02EBC1004A227821EE
:103DF0001BF034FD954890F8360000EB80019348A5
:103E0000383000EBC1004069C8B1904991F83610D4
:103E100001EB81028D49383101EBC20100230422FC
:103E200048690121FDF7F0FCAFF6C061894818F040
:103E3000A2FC6222782187481BF010FD08E083492C
:103E40000978834A02EBC100622278211BF006FD4B
:103E50007E4890F8360000EB80017C48383000EB5B
:103E6000C100C069C8B1794991F8361001EB8102EF
:103E70007649383101EBC20100230422C8690121CF
:103E8000FDF7C2FCAFF61C71724818F074FC7A2280
:103E9000782170481BF0E2FC08E06C4909786C4A14
:103EA00002EBC1007A2278211BF0D8FC674890F819
:103EB000360000EB80016548383000EBC100406AF5
:103EC00080B3624890F8360000EB80015F483830DC
:103ED00000EBC100406A40F6AC51884209D35B4810
:103EE00090F8360000EB80025848383000EBC200F2
:103EF0004162564991F8361001EB8102534938313D
:103F000001EBC20100230422486A0121FDF77CFC79
:103F100052A1504818F02FFC922278214D481BF0F6
:103F20009DFC15E0FFE7494991F8361001EB81024D
:103F30004649383101EBC201496A454A02EB011199
:103F4000424A127801EBC200922278211BF086FCD3
:103F50003E4991F8361001EB81023C49383101EBC2
:103F6000C2018868FEF73FFC00909DF80210BDF882
:103F7000000000230422FDF747FC3949354818F0BA
:103F8000FAFB32224FF4967132481BF067FC2F483F
:103F900090F8360000EB80012C48383000EBC1006F
:103FA0000069F8B1294991F8361001EB81022749DF
:103FB000383101EBC2010869FEF715FC00909DF84D
:103FC0000210BDF8000000230422FDF71DFC244967
:103FD000204818F0D0FB4A224FF496711D481BF080
:103FE0003DFC09E019490978194A02EBC1004A224F
:103FF0004FF496711BF032FC1448C08B28B3134861
:1040000090F8360000EB80011048383000EBC1001A
:10401000806909280AD909210C4890F8360000EB7C
:1040200080020A48383000EBC2008161074890F8EE
:10403000360000EB80010548383000EBC100806994
:1040400048B3024890F836000CE030E0E40F00106E
:104050000C120500980F0010FC12050075410000BD
:104060006413050000EB8001FE4800EBC10080698D
:10407000092810D8FB49383991F8361001EB810234
:10408000F84901EBC2010123622288694FF496715D
:104090001BF03CFB3BE0F34938390978F24A02EB6C
:1040A000C10062224FF496711BF0D8FB2FE0ED485F
:1040B000383890F8360000EB8001EA4800EBC10088
:1040C0008069C8B1E749383991F8361001EB8102AF
:1040D000E44901EBC2010023042288690121FDF7B4
:1040E00093FBE2A1E24818F046FB62224FF496717E
:1040F000DF481BF0B3FB0AE0DA4938390978DA4ABD
:1041000002EBC10062224FF496711BF0A7FBD54869
:10411000383890F8360000EB8001D24800EBC1003F
:10412000006AC8B1CF49383991F8361001EB8102E5
:10413000CC4901EBC20100230422086A0121FDF7EA
:1041400063FBCCA1CA4818F016FB7A224FF4967193
:10415000C7481BF083FB0AE0C24938390978C24AD4
:1041600002EBC1007A224FF496711BF077FB23E239
:10417000BC49383991F8361001EB8102B94901EB9D
:10418000C2010023042248680321FDF73DFBAFF282
:104190005051B74818F0EFFA32227821B4481BF09A
:1041A0005DFBB048383890F8360000EB8001AD4830
:1041B00000EBC100C068C0B1AA49383991F8361087
:1041C00001EB8102A74901EBC20100230422C86868
:1041D0000121FDF719FBA7A1A54818F0CCFA4A2246
:1041E0007821A3481BF03AFB09E09E493839097849
:1041F000A14A02EBC1004A2278211BF02FFB99480B
:10420000383890F8360000EB8001964800EBC1008A
:104210004069C0B19349383991F8361001EB8102F9
:10422000904901EBC2010023042248690121FDF7F6
:10423000EBFA90A18E4818F09EFA622278218C4801
:104240001BF00CFB09E0874938390978864A02EBF4
:10425000C100622278211BF001FB8248383890F8B7
:10426000360000EB80017F4800EBC100C069C0B19F
:104270007C49383991F8361001EB8102794901EB1C
:10428000C20100230422C8690121FDF7BDFA79A10A
:10429000774818F070FA7A22782175481BF0DEFA18
:1042A00009E07049383909786F4A02EBC1007A2277
:1042B00078211BF0D3FA6B48383890F8360000EBC1
:1042C0008001684800EBC100806838B3654938391F
:1042D00091F8361001EB8102624901EBC201886856
:1042E000FEF7B9F800909DF80210BDF80000002319
:1042F0000422FDF789FA9DF80300604A02EB0010E2
:1043000000F108015A4818F036FA32224FF496713B
:10431000574800E04FE11BF0A1FA0AE05149383953
:104320000978514A02EBC10032224FF496711BF01A
:1043300095FA4C49383991F8361001EB8102494918
:1043400001EBC2010869FEF786F800909DF80210A3
:10435000BDF8000000230422FDF756FA9DF8030083
:10436000464A02EB001000F10801414818F003FA38
:104370004A224FF496713E481BF070FA3949383999
:104380000978C1EBC1013E4A02EBC1023549383917
:1043900091F8361001EB8103324901EBC3018969C1
:1043A00002EBC10062224FF496711BF057FA2D49BF
:1043B000383991F8361001EB81022A4901EBC2012C
:1043C000496A294A02EB0111264A383A127801EB70
:1043D000C2007A224FF496711BF040FAECE02148BB
:1043E000383890F8360000EB80011E4800EBC10021
:1043F000244902691E4817F05DFF322278211C48CB
:104400001BF02CFA1748383890F8360000EB800182
:10441000144800EBC1008068642813D31148383871
:1044200090F8360000EB80010E4800EBC100154902
:1044300082680F4817F03EFF4A2278210C481BF093
:104440000DFA09E0074938390978074A02EBC1003B
:104450004A2278211BF002FA0248383890F83600D8
:1044600012E000001C1000100C1205006D4100004D
:10447000980F001073000000FC1205005413050093
:104480008C120500BC33020000EB8001FE4800EBFB
:10449000C100006AD0B3FC48383890F8360000EB11
:1044A0008001F94800EBC100006AB0F57A7F13D3B0
:1044B000F548383890F8360000EB8001F24800EB00
:1044C000C100006A0A21B0FBF1F600230422022198
:1044D0003046FDF799F90EE0EB49383991F836107E
:1044E00001EB8102E84901EBC20100230422086AC2
:1044F0000321FDF789F9E549E54818F03CF9322236
:104500004FF49671E2481BF0A9F906E0FFE732226A
:104510004FF49671DF481BF0A1F94DE0322278216B
:10452000AFF64C501BF09AF9D749383991F836104C
:1045300001EB8102D44901EBC201496AD64A02EB80
:104540000111D14A383A127801EBC20032224FF4FD
:1045500096711BF083F9CC48383890F8360000EBA0
:104560008001C94800EBC100C068C8B1C6493839EC
:1045700091F8361001EB8102C34901EBC20100231F
:104580000422C8680121FDF73FF9AFF21811C048B5
:1045900018F0F1F84A227821BD481BF05FF909E0D4
:1045A000B94938390978BD4A02EBC1004A2278215D
:1045B0001BF054F900E000BF00BFB349383991F84F
:1045C000361001EB8102B04911F832002946FFF79D
:1045D000CBF8F8BD7CB505460120FDF7CDF942F6D4
:1045E00069201BF099FC02201BF0F0FC6FF07F406B
:1045F0001BF09DFC002438E04FF4BE70ADF80000C5
:1046000004EB4400042101EB0010062101FB04002F
:1046100000B2ADF802004FF4EE70ADF80400601C7B
:1046200000EB4000042101EB0010062101FB040017
:1046300000B2ADF80600C5EBC50101EB8101984A57
:1046400002EB8101904A383A1278C2EBC20202EBC7
:10465000820201EB4201C4EBC40201EB42000E22D4
:1046600069461BF00FF9601CC4B2052CC4DB7CBD8D
:104670002DE9F0470746844C243C0F2601253BE0FA
:10468000BD4203D1FF201BF052FC02E085481BF025
:104690004EFC701C00EBD071B5EB610F0FD805EB31
:1046A0004500C00000F11803681E00EB4000C00088
:1046B00000F11801B4226E201BF0B0F91BE006F1E6
:1046C000010808EBD870A5EB600000EB4000C000CB
:1046D00000F11803C14609EBD970A5EB6000401E3C
:1046E00000EB4000C00000F118014FF4B7724FF426
:1046F00094701BF093F96D1CB5F5E17FC0D90220D1
:104700001BF064FC6FF07F401BF011FC002526E0DD
:10471000012D0ED134F81500B0F57A7F09D105EBE3
:1047200045001A2101EBC00278215FA01BF096F82A
:1047300014E034F81500002303220121FDF764F88A
:10474000AFF2D021524818F016F805EB45001A21B7
:1047500001EBC00278214E481BF080F86D1C032D40
:10476000D6D3E1884C4A02EB0111474A383A127815
:1047700001EBC200622278211BF070F821894B4ABC
:1047800002EBC1007A2278211BF068F86189484A5F
:1047900002EB01113C4A383A127801EBC200922236
:1047A00078211BF05BF8A08950B93749383909786E
:1047B000394A02EBC100AA2278211BF04FF80AE027
:1047C000A089002302221946FDF71EF8AA227821AB
:1047D0002F481BF043F8E1892F4A02EB01112A4AC6
:1047E000383A127801EBC200C22278211BF036F869
:1047F000218A294A02EB0111234A383A127801EB47
:10480000C2001A224FF496711BF028F8618A224ADE
:1048100002EB01111C4A383A127801EBC200322235
:104820004FF496711BF01AF8A18A224A02EB01118B
:10483000154A383A127801EBC2004A224FF49671B9
:104840001BF00CF8E18A144A02EB01110E4A383AC7
:10485000127801EBC20062224FF496711AF0FEFF4B
:10486000218B0D4A02EB0111074A383A127801EB0D
:10487000C2007A224FF496711AF0F0FF618B064A5B
:1048800002EB0111004A17E01C100010E431050092
:10489000980F0010C83302000C120500FC1205002E
:1048A0002CFC04003366CC004B4559003413050042
:1048B0006C1205002C120500383A127801EBC20088
:1048C00092224FF496711AF0C9FFA08B88B1A08B89
:1048D000002302220121FCF797FFAFF26841FE4856
:1048E00017F049FFAA224FF49671FB481AF0B6FF61
:1048F00009E0FA490978FA4A02EBC100AA224FF40A
:1049000096711AF0ABFF3846FFF764FEBDE8F087FA
:104910001CB50120FDF730F802201BF057FB6FF0AB
:104920007F401BF004FB00242BE04FF4BE70ADF879
:10493000000004EB4400042101EB0010062101FB00
:10494000040000B2ADF802004FF4EE70ADF80400C0
:10495000601C00EB4000042101EB0010062101FB6C
:10496000040000B2ADF80600DE4901EB4411DB4A59
:10497000127801EB02100E2269461AF083FF601CC8
:10498000C4B2052CD1DB1CBD10B502201BF01EFBF0
:104990006FF07F401BF0CBFA32227821D2A01AF0C0
:1049A0005DFFCE490978D24A02EB41104A227821B4
:1049B0001AF054FFC9490A78CD49403101EB421041
:1049C0007A2278211AF04AFFC4490A78C84980310E
:1049D00001EB4210922278211AF040FFBF490A7879
:1049E000C349C03101EB4210AA2278211AF036FFE8
:1049F000FFF78EFF10BD70B504460D46601EBD4A20
:104A0000115C002304222846FCF7FEFE601C00EB2C
:104A10004000C00000F11A010123AF4A4FF4A27018
:104A2000FCF720FE70BD38B50546002432E0601C5E
:104A3000854203D1FF20B049486002E0AF48AE494B
:104A40004860AD48808880B20090E01C00EB4000D8
:104A5000C000163083B2A01C00EB4000C00018302C
:104A600081B2E822A420FCF71CFAA24A115DA44AF4
:104A700032F8240000230422FCF7C6FEA01C00EB41
:104A80004000C0001A3081B20123934AA420FCF7F1
:104A9000E9FD641C052CCAD398489749486038BD85
:104AA00030B58DB0044695489349486002A99548B1
:104AB00010F094FF94A10AA817F0FCFB00230AAAA7
:104AC000AA215E20FCF7CEFD92A10AA817F0F2FB06
:104AD00000230AAAC2217220FCF7C4FD062C01D1D2
:104AE000012000E0002005461DB1FF2082494860FA
:104AF00002E082488049486089A10AA8099A17F013
:104B0000D9FB7D48808880B2BE238622AA210090EE
:104B10005E20FCF7C6F900230AAAAA215E20FCF752
:104B2000A1FD072C01D1012000E0002005461DB1A8
:104B3000FF207149486002E070486F49486078A1E1
:104B40000AA8089A17F0B6FB6B48808880B2BE238B
:104B5000A422AA2100909020FCF7A3F900230AAA1E
:104B6000AA219020FCF77EFD082C01D1012000E055
:104B7000002005461DB1FF205F49486002E05F4804
:104B80005D49486066A10AA8059A17F093FB5A4848
:104B9000808880B2BE23C222AA210090AE20FCF7FA
:104BA00080F900230AAAAA21AE20FCF75BFD092C9C
:104BB00001D1012000E0002005461DB1FF204E4933
:104BC000486002E04D484C49486055A10AA8049A43
:104BD00017F070FB4848808880B2D6238622C22115
:104BE00000907220FCF75DF900230AAAC22172200E
:104BF000FCF738FD0A2C01D1012000E00020054619
:104C00001DB1FF203C49486002E03C483A494860F9
:104C100043A10AA8039A17F04DFB3748808880B259
:104C2000D623A422C22100909020FCF73AF9002359
:104C30000AAAC2219020FCF715FD0B2C01D10120FE
:104C400000E0002005461DB1FF202B49486002E02E
:104C50002A482949486032A10AA8029A17F02AFB7B
:104C60002548808880B2D623C22211460090AE200B
:104C7000FCF717F900230AAAC221AE20FCF7F2FCC8
:104C80000DB030BD7CB505460120FCF775FE022055
:104C90001BF09CF96FF07F401BF049F9002461E0A4
:104CA0004FF4BE70ADF8000004EB4400042101EBAA
:104CB0000010062101FB040000B2ADF802004FF421
:104CC000EE70ADF80400601C00EB4000042101EB25
:104CD0000010062128E00000980F0010E40F0010DB
:104CE0000C120500DCD404004A4B3933313000008B
:104CF0007CD804003C330500240000103366CC004F
:104D0000E007001000400240202020203A20203AF6
:104D10002020000020203A20203A2020000000001F
:104D2000253032640000000001FB040000B2ADF841
:104D30000600C5EBC50101EB8101F74A02EB8101D9
:104D4000F64A1278C2EBC20202EB820201EB420188
:104D5000C4EBC40201EB42000E2269461AF092FD38
:104D6000601CC4B2052C9BDB7CBD70B505460726D4
:104D700001242DE0AC4203D1FF201BF0D8F802E063
:104D8000E7481BF0D4F8042C0FD804EB4400C00013
:104D900000F11803601E00EB4000C00000F1180194
:104DA000A0226E201AF03AFE11E0201F00EB400016
:104DB000C00000F11803601F00EB4000C00000F1CC
:104DC000180140F25F124FF494701AF027FE641C31
:104DD000701C8442CED302201BF0F8F86FF07F40A5
:104DE0001BF0A5F8CD490978C1EBC10101EB8101A8
:104DF000CC4A02EB4101C94A1278C2EBC20201EB74
:104E000042001A2278211AF029FDC4490978C1EB21
:104E1000C10101EB8102C3498C3101EB4201BF4A60
:104E20005278C2EBC20201EB4200322278211AF022
:104E300015FDBA490978C1EBC10101EB8102BA49FC
:104E400001EB4201B54A9278C2EBC20201EB42008B
:104E50004A2278211AF002FDB0490978C1EBC1015C
:104E600001EB8102B0498C3101EB4201AB4AD278AF
:104E7000C2EBC20201EB4200622278211AF0EEFC82
:104E8000A6490978C1EBC10101EB8102A74901EBF9
:104E90004201A24A527BC2EBC20201EB42001A223B
:104EA0004FF496711AF0DAFC9C49887B0323322276
:104EB0004FF496711AF02AFC98490978C1EBC101A8
:104EC00001EB81029A4901EB4201944AD27BC2EB89
:104ED000C20201EB42004A224FF496711AF0BEFC66
:104EE0002846FFF7CFFE70BD10B50020FCF7EFFF9E
:104EF00010BD10B5FFF7F8FF4FF6FF708D49086041
:104F000040F23F2048604FF6FF70086084484860D8
:104F100000240FE004EB840101EBC401864BCA18A6
:104F200004EB84014901091D88B200233221FCF7FA
:104F300099FB641C032CEDD3002410E004EB8400E7
:104F400000EBC4007D4BC218A01C00EB4000C00069
:104F50001A3081B200230420FCF784FB641C052C6A
:104F6000ECD310BD08B543F6AC10B62340F2DF1207
:104F70007A2100900020FBF794FF08BD10B50020B7
:104F8000FCF7A5FFFFF7EEFF10BD08B543F6AC1028
:104F9000B62340F2DF127A2100900020FBF781FF58
:104FA00008BD10B50020FCF792FF10BD10B5FFF74B
:104FB000F8FF4FF6FF705F49086040F23F204860FD
:104FC00000235F4A04211846FCF74CFB4FF6FF70A4
:104FD000584908605248486000235A4A1A21042060
:104FE000FCF740FB01240CE0564901EB0412611E62
:104FF0004D235943223188B200233221FCF732FB82
:10500000641C072CF0D30020FCF739FE10BD38B526
:10501000002416E04FF6FF700090601C00EB40008B
:105020001A2202EBC000801E83B2601C00EB40001D
:1050300002EBC000801E81B2BE225A20FBF78BFE1D
:10504000641C052CE6D338BD10B50220FCF73FFFE9
:1050500010BD10B50120FCF78FFC0420FCF75DFFAC
:105060004FF6FF701AF063FF2D481AF055FF002429
:1050700010E0354901EB4411284B1B7801EB03107C
:10508000611C01EB4101C90001F11A0204211AF06F
:10509000E5FB641C062CECD310BD70B50546284614
:1050A000FCF715FF4FF6FF702249086008601C48A6
:1050B0004860022D11D100240DE0244800EB0412B9
:1050C000601C00EB4000C0001A3081B200230420B5
:1050D000FCF7C8FA641C072CEFD370BD2DE9F34F21
:1050E00083B00C4642F20F716068884206D90A21EB
:1050F0006068B0FBF1F060600420A060A068C0F1BF
:105100000400A060D4F80490E06820B94FF47A70ED
:1051100009FB00F92BE01BE038EB0400E40F001062
:105120003366CC007C0B0500940C0500C40E050012
:10513000DC0F0500240000107A2E0500A12E0500CA
:10514000D92C0500C33005001CD40400F429050047
:10515000E06801280BD1484620F0F0FC0746002209
:10516000FE4B20F081FD054620F0A4FC8146A0689E
:1051700020F0E4FC07463A460B460020F8491FF0B1
:1051800091FC05460E46484620F0D8FC2A46334698
:10519000CDE9000120F0CAFA824620F08BFC81465E
:1051A000484620F0CBFC05460022EE4B20F05AFE8C
:1051B00009D2DFF8B49340F6B83060600220A060F6
:1051C0000120E0605FE0484620F0B8FC0546002280
:1051D000E64B20F047FE09D842F21070B9FBF0F020
:1051E00060600220A0600120E0604CE0484620F0B2
:1051F000A5FC05460022D94B20F034FE09D84FF417
:105200007A70B9FBF0F060600320A0600120E060DC
:1052100039E0484620F092FC05460022D44B20F0AD
:1052200021FE08D86420B9FBF0F060600120A06086
:105230000020E06027E0484620F080FC0546002280
:10524000CC4B20F00FFE08D80A20B9FBF0F06060CC
:105250000220A0600020E06015E0484620F06EFCCF
:1052600005460022C44B20F0FDFD06D8C4F804908A
:105270000320A0600020E06005E0C4F80490032053
:10528000A0600020E060C4F818901C22214603981A
:1052900017F004FB05B0BDE8F08F0146888800B226
:1052A00070472DE9F04105460C46E06870BBA068E8
:1052B000052829D2DFE800F00314151C22006068DD
:1052C00020F03CFC06460022A94B20F0CBFD04D286
:1052D000AA4860600020206101E00120206114E004
:1052E00013E04FF47A716068B0FBF1F060600CE09D
:1052F00064216068B0FBF1F0606006E00A2160683C
:10530000B0FBF1F0606000E000BF45E0A068062857
:105310003ED2DFE800F00310181926329749606882
:10532000884202D90846606004E04FF47A716068F0
:10533000484360602FE0606820B10A216068B0FBDC
:10534000F1F0606027E026E042F210716068884268
:1053500001D908466060606800EB80004000606032
:1053600019E06068B0F57A7F02D94FF47A70606016
:1053700064216068484360600DE06068642801D97A
:10538000642060604FF47A7160684843606002E0B6
:105390007B48606000BF00BF1C222146284617F0F2
:1053A0007DFABDE8F0812DE9F34F83B08A4642F2E1
:1053B0000F71DAF80400884209D90A21DAF80400EA
:1053C000B0FBF1F0CAF804000420CAF808004FF45A
:1053D0007A71DAF8040000FB01FBDAF80810C1F179
:1053E000040020F0ABFB02460B46CDE90001002093
:1053F0005B491FF057FB04460D46584620F09EFBC4
:10540000064622462B4620F091F9804620F052FBBA
:1054100083464EF66020834500D9834642F21070E1
:10542000834508D90220CAF808000A20BBFBF0F027
:10543000CAF8040004E00320CAF80800CAF804B05F
:10544000CAF818B01C225146039817F027FA05B085
:10545000BDE8F08F2DE9F05F82460C460020E06049
:10546000A06821F0D9F8834620F00EFF07463A469F
:105470000B4600203A491FF015FB054620F01AFBA9
:1054800081466068B0FBF9F9B9F1640F01D90220D7
:10549000A0601C222146504617F000FABDE8F09F9C
:1054A00008B53848372328225C2100903C20FBF7C0
:1054B000DAFE3548372328225C2100906420FBF770
:1054C000D2FE324837232822932100903C20FBF75C
:1054D000CAFE2D4837232822932100906420FBF731
:1054E000C2FE08BD10B500240BE004EBC400C0EB05
:1054F000841000F16E0126A28C20FCF768F8601C75
:10550000C4B2032CF1DB10BD08B523482349486021
:105510001E48372328226E2100906420FBF7A3FE4B
:105520001F48372328226E2100904FF49670FBF716
:105530009AFE1C48372328226E2100904FF4AA704F
:10554000FBF791FE184837232822A52100906420FC
:10555000FBF789FE14483723282227E080842E4158
:1055600000002440389C7C4180C3C901D0126341B3
:10557000006AF8400088C34000408F40A0860100C8
:1055800040420F00E98C0400018E0400E8B50400DD
:105590002D2D2D2D2D0000003366CC002400001091
:1055A00080BE040005C604008ACD0400A521009039
:1055B0004FF4AA70FBF757FEFC4837232822DC2162
:1055C00000906420FBF74FFEF94837232822DC21A6
:1055D00000904FF4AA70FBF746FE08BD08B50146DF
:1055E000F4480078022806DC88B2ADF800000220FA
:1055F0008DF8020008E088B2ADF8000003208DF8B5
:10560000020001208DF80300009808BD38B504465B
:105610006FF07F401AF08BFCE74890F8353090F837
:105620003620E649E64816F045FE1A227821E4487D
:105630001AF014F9E04991F8361001EB8102DE49C5
:10564000383151F83210DF4A02EBC1001A224FF410
:1056500096711AF003F9DC481AF05EFCDB481AF088
:1056600066FC00201AF0B2FCD9481AF071FCD2484E
:1056700090F8360000EB8001CF48383050F8310008
:1056800004280FD0012C07D1D24900230422086836
:105690000321FCF7B9F805E0002304220321184692
:1056A000FCF7B2F878225A21C5481AF0D7F8C24858
:1056B00090F8360000EB8001BF48383050F83100D8
:1056C000052875D2DFE800F0030465A6E10000BFFD
:1056D000012C41D1BF4840684FF6FF71884206D186
:1056E000B748BD490A680260898881803AE0B248BB
:1056F000C08D01281CD1B7484268AF4890F83610D9
:10570000491E00F5FD7030F81100824203D20020DE
:10571000B04948600CE0AF484268A74890F836109E
:10572000491E00F5FD7030F81100101AA9494860B3
:10573000A0480078012807D1A64900230422486820
:105740000321FCF761F80DE0A24900230422486818
:105750000221FCF759F805E0002304220321184632
:10576000FCF752F898481AF0E2FBE823F022AA214D
:105770005A201AF053F995481AF0D9FBAA225A2157
:105780008F481AF06BF8AA22F02194A01AF066F85C
:105790007DE0012C32D18F4840689249884208D17F
:1057A00087488D4914310A680260496841602BE0DE
:1057B0006CE088494868FCF74EFE00909DF80210A6
:1057C000BDF8000000230422FCF71EF87E481AF002
:1057D000AEFBE823F022AA215A201AF01FF97B48D9
:1057E0001AF0A5FB9DF8031001EB41017E4A02EB84
:1057F0004100AA22F0211AF031F805E0002303222B
:1058000001211846FCF700F8AA225A216C481AF028
:1058100025F83CE0012C1BD16E4840684FF6FF7123
:10582000884207D166486C4914310A6802604968A9
:10583000416013E067494868FFF7D0FE00909DF88B
:105840000210BDF8000000230422FBF7DDFF05E095
:105850000023042203211846FBF7D6FF5A481AF00A
:1058600066FBE823F022AA215A201AF0D7F85748FD
:105870001AF05DFBAA225A21514819F0EFFFAA2223
:10588000F0215A4819F0EAFF01E000E000BF00BF34
:1058900057481AF05DFB012C07D14E4908890023B7
:1058A00004220121FBF7B0FF05E0002304220121BF
:1058B0001846FBF7A9FFF3225421414819F0CEFF07
:1058C0004C490878FCF71DFD38BD30B585B004465D
:1058D0000D4649A003C8CDE9030149A103C9CDE99B
:1058E000010103A8005D40F21311484346490844F2
:1058F000372328225C2100904FF4BE70FBF7B3FCE5
:1059000001A8405D40F2131148433F490844372342
:1059100028225C2100904FF4D270FBF7A4FC05B064
:1059200030BD30B585B004460D4633A003C8CDE97F
:10593000030133A103C9CDE9010103A8005D40F2D1
:1059400013114843304908443723282293210090FB
:105950004FF4BE70FBF787FC01A8405D40F21311C5
:1059600048432949084437232822932100904FF4C3
:10597000D270FBF778FC05B030BD10B586B01421AD
:1059800001A816F0C5FF214800680090002409E036
:105990001DF804101E480EF065FC012002F077F897
:1059A000601CC4B2032CF3DB06B010BD9DCE040016
:1059B000B0CF0400FB000010E40F00105C2B0200CD
:1059C000980F00100C1305003366CC00FFFF800019
:1059D000C0C6050030030010F02602006D412020F3
:1059E00000000000F6FF0900AB300500E4310500BF
:1059F000606C0500240100100C0F1011160E0D0034
:105A0000121314020B17160089B004005C3605004F
:105A100000C0004038B50446FA48FB494860FB48DE
:105A200000EB84020123C8211420FBF71BFEF84879
:105A300000EB84020123C8214FF48C70FBF712FEA7
:105A400043F6AC10F0494860F248372328227A2107
:105A500000905020FBF707FCEF48372328227A21DB
:105A600000907820FBF7FFFBEC48372328227A21AF
:105A700000908C20FBF7F7FB38BD70B504460D464F
:105A800004EB4400E64942180123C8218020FBF7BB
:105A9000E9FD05EB4500E34942180123C8218820B0
:105AA000FBF7E0FD70BD70B504460D4604EB440005
:105AB000DB4942180023C8214FF4C270FBF7D2FD26
:105AC00005EB4500D74942180023C8214FF4C670A2
:105AD000FBF7C8FD70BD10B5002421E0012C01DDED
