:020000040000FA
:1000000080250010AD020000B5020000B70200001C
:10001000B9020000BB020000BD02000000000000A9
:10002000000000000000000000000000BF0200000F
:10003000C102000000000000C3020000D5780000EB
:10004000C70200001D08000085080000C10800006C
:10005000D30800001F140100C7020000C7020000FF
:1000600037140100C7020000C7020000C7020000E9
:10007000C7020000C7020000C7020000C70200005C
:10008000C7020000C7020000C7020000C70200004C
:10009000C7020000C7020000C7020000C70200003C
:1000A000993C0100C7020000C7020000C70200001F
:1000B000C7020000C7020000C7020000C70200001C
:1000C000C7020000C7020000C7020000C70200000C
:1000D000C7020000C702000089060000C702000036
:1000E000C702000000F002F800F0B0F80AA090E8A3
:1000F000000C82448344AAF10107DA4501D100F0E3
:10010000A5F8AFF2090EBAE80F0013F0010F18BFFF
:10011000FB1A43F00103184700390400203904009A
:100120000A444FF0000C10F8013B13F0070408BF1D
:1001300010F8014B1D1108BF10F8015B641E05D0BB
:1001400010F8016B641E01F8016BF9D113F0080F70
:100150001EBF10F8014BAD1C0C1B09D16D1E58BF02
:1001600001F801CBFAD505E014F8016B01F8016B39
:100170006D1EF9D59142D6D37047000000230024AC
:1001800000250026103A28BF78C1FBD8520728BFA7
:1001900030C148BF0B6070476E291BF06A8270291E
:1001A0001BF0D985662925F0BF84652925F0BC841C
:1001B000672925F0B984612925F0B88403681B0AF2
:1001C00028BF41F0800169291AF0C48664291AF019
:1001D000C18675291AF0BE866F291BF066857829BD
:1001E0001BF0A585E9291BF00185E4291BF0FE849D
:1001F000F5291BF0FB84EF291BF06385F8291BF020
:10020000A4850368DB0928BF41F0800163291BF046
:10021000828473291BF08784E3291CF05581F3291C
:100220001CF05A81002070471FB51BF097F904009D
:100230000020002124F02AFA401C606000200021E8
:1002400024F03AFAE0601FBD10B510BD1CF0AAFA08
:100250001146FFF7E9FF00F06DF91CF045FD03B40E
:10026000FFF7F2FF03BC1CF049FD000070B5054626
:100270000C46A4F120000B4A02EB00111022284684
:100280001BF055F870BDA1F1200202EB4202064BB3
:1002900003EB8202136803605368436092688260D4
:1002A0007047000011740200017A0200094880477B
:1002B00009480047FEE7FEE7FEE7FEE7FEE7FEE748
:1002C000FEE7FEE7FEE7FEE704480549034A054B63
:1002D00070470000E9FD0000E5000000801D0010EF
:1002E00080250010801D001010B51BF037F9001D8F
:1002F00010BD00BF994302001BF0E7BDFFFFFFFFE9
:1003000040F20120824908608249C1F88401804995
:1003100008310860091D0860091D0860091D086092
:10032000091D0860091D0860091D0860091D086095
:10033000091D0860091D0860091D0860091D086085
:10034000091D0860091D0860714980310860091D98
:100350000860091D0860091D0860091D0860091D65
:100360000860091D0860091D0860091D0860091D55
:100370000860091D0860091D0860091D0860091D45
:100380000860091D08606249D4310860091D0860D1
:10039000091D08605E49443908605D49E431086020
:1003A000091F08605A49E831086059494039086016
:1003B000091D0860091D0860554930390860544915
:1003C00020390860524910390860091D08607047DB
:1003D0002DE9F04100BF00BF4F48006840F40060C5
:1003E0004D49C439C1F8C40041F61F704B4908603B
:1003F00001204B49086000208860FFF781FF4948D1
:1004000000684949B0FBF1F74348C438D0F800010F
:1004100000B17F084FF47A70B0FBF7F404F11300D9
:10042000B0FBF4F03E4908630F2048630020886366
:100430000120C86304F11300B0FBF4F0801C0864D1
:100440000120486404F13E00B0FBF4F0886404F13C
:100450003E00B0FBF4F0C8640F20086504F13E00D4
:10046000B0FBF4F0486501208865886240F20330F3
:100470002E4908604FF4D0602949C1F80001642179
:10048000012000F04DF940F2831025490862C8218F
:10049000012000F045F940F20310214908620220D2
:1004A0004862002600E0761C802EFCD341F684656D
:1004B000A5F1100085B22D1105FB07F04FF47A71FC
:1004C000B0FBF1F085B216484562832014490862FA
:1004D00017480588002008621448001F006840F48F
:1004E0000020C1F800010121084600F019F901219E
:1004F000084600F015F90948006820F01F0848F088
:1005000011000549C439C1F8DC01BDE8F0810000E3
:1005100080C1024000C00240C4C00F40DCC10F4097
:1005200000C009206801001040420F0004C10920EA
:10053000003003A000200FF028FF04460020674988
:1005400008606748B4FBF0F0411EB1F1807F00D332
:100550001DE021F07F40401E4FF0E0225061501717
:100560001F22002807DAD3061E0E5E4B00F00F058F
:100570002D1F5E5503E0D3061D0E5B4B1D5400BFBF
:1005800000204FF0E02290610720106100BF11F0C1
:10059000CFF8022055490860002055490880554988
:1005A0000870554908703CE050480068801E1828C3
:1005B00035D2DFE800F00C3412150F303434183423
:1005C0001B3434342124272A2D34341E343107F0CF
:1005D00001FC25E007F05AFF22E008F0DDFC1FE0F7
:1005E00008F026FD1CE00EF0A4FA19E00BF073FAF7
:1005F00016E00CF032FD13E00BF022FA10E007F0E9
:10060000FBFC0DE007F069FE0AE007F0D2FE07E010
:100610000AF05DFE04E003E00CF0D8FC00E000BF4F
:1006200000BFC1E72DE9F041012134A012F032FFF3
:100630000746002F25DD4FF47A62334801683846BB
:1006400013F008F8022131A012F024FF0446002C18
:1006500011DD002500BF4FF47A622B480168204667
:1006600013F062F9064635442B488542F3D3204601
:1006700013F0F1F901E0BDE8F081384613F0EBF931
:1006800000E0F8E700BFF6E710B5002206211046AB
:100690000FF0E5FC30B1092020490860402100201E
:1006A0000FF008FD0022052110460FF0D8FC30B1F4
:1006B0000C201A490860202100200FF0FBFC0022CA
:1006C000072110460FF0CBFC30B10E201349086013
:1006D000802100200FF0EEFC10BD0000BC000010D7
:1006E000A086010018ED00E000E400E01001001019
:1006F000080100100A0100100B0100104D53524573
:1007000041442E5458540000EC0100105A43353532
:1007100032302E5458540000809698001401001076
:10072000F8B902224FF040235A600022DA60D44A1E
:1007300012684FF47A73B2FBF3F2521E4A434FF041
:1007400040239A61FF221A6004225A6101225A60F2
:1007500000BF4FF04022526802F00102002AF8D197
:100760005BE001281CD10222C64B5A600022DA60ED
:10077000C34A12684FF47A73B2FBF3F2521E4A4333
:10078000C04B9A61FF221A6004225A6101225A600A
:1007900000BFBC4A526802F00102002AF9D13CE0D5
:1007A00002281CD10222B84B5A600022DA60B44AF7
:1007B00012684FF47A73B2FBF3F2521E4A43B24B03
:1007C0009A61FF221A6004225A6101225A6000BF16
:1007D000AD4A526802F00102002AF9D11DE0032857
:1007E0001BD10222A94B5A600022DA60A44A126887
:1007F0004FF47A73B2FBF3F2521E4A43A34B9A6151
:10080000FF221A6004225A6101225A6000BF9F4AE7
:10081000526802F00102002AF9D1704701214FF01D
:10082000402211609A490968062913D1994909782B
:10083000491C984A117011460978092910DD0021D8
:1008400011700121944A117094490989491C934AF5
:10085000118105E08F49097811B100218D4A11708D
:1008600000200CE08E4951F8201031B18C4951F82C
:100870002010491E8A4A42F82010411CC8B206289E
:10088000F0DB704710B501207E490860854800788C
:10089000401C844908707E48006806280FD108462D
:1008A00000780A2802D107F0A2F808E07D48007815
:1008B000142804DB00207B49087007F09EF810BD67
:1008C00001207149086078480068401C764908603A
:1008D000704701206D49086074480068401C7349E6
:1008E0000860704720B901214FF04022516010E0AC
:1008F000012803D10121634A51600AE0022803D193
:100900000121614A516004E0032802D101215F4ABC
:100910005160704720B900214FF04022516010E033
:10092000012803D10021574A51600AE0022803D16F
:100930000021554A516004E0032802D10021524AA7
:1009400051607047014631B94FF04022506840F085
:100950000200506016E0012905D14A4A506840F073
:10096000020050600EE0022905D1474A506840F06D
:100970000200506006E0032904D1444A506840F068
:1009800002005060704770B505460C46F5B900206E
:10099000474908604748006840F002004549C439AB
:1009A000C1F8C4004FF04020406840F002004FF012
:1009B000402148604EF65F20C860084684610320ED
:1009C0004861012000F050F8012070BD012D1CD1BC
:1009D0000020394908603748006840F00400354974
:1009E000C439C1F8C4002748406840F002002549D6
:1009F00048604EF65F20C860084684610320486165
:100A0000022000F031F80120DFE7022D13D1002091
:100A1000254908602748006840F480002549C4390A
:100A2000C1F8C4001848846103201749486100F0E8
:100A30001BF80120C9E7032D14D100201B490860D1
:100A40001C48006840F400001A49C439C1F8C400C9
:100A50000E48846103200D494861042000F004F829
:100A60000120B2E70020B0E700F01F020121914011
:100A70004209920002F1E022C2F800117047000022
:100A80006C01001000800040000009400040094057
:100A90001001001010000010EA00001024030010E4
:100AA000AC0B001011000010080000100C0000102A
:100AB00000000010C4C00F400400001008B5B0B121
:100AC000F949896941F00101F74A916142F21071D7
:100AD000009108E0F449896941F40061F24A9161AA
:100AE0000099491E009100990029F3D115E0EE49C3
:100AF000896921F40061EC4A916142F21071009120
:100B000002E00099491E009100990029F9D1E649B7
:100B1000896921F00101E44A916108BDE34A00219D
:100B200002E008C808C2491C8029FAD3704750B5B2
:100B300006460C4600BF2720DD490860DD49C1F8A4
:100B40001801DD490860091D0860091D0860DA49BF
:100B50004C390860091D0860091D0860091D0860FE
:100B6000091D0860091D0860D34918310860D24981
:100B700034390860091D0860091D0860091D0860F6
:100B8000CD4914390860CC4908390860CA49103980
:100B90000860C849C1F81001C848006A40F0020066
:100BA000C64908620846806B40F004008863084626
:100BB000006840F0020008600846806940F02A00A2
:100BC0008861BF48D0F8C40040F00100BC49C1F8BA
:100BD000C400BC48006820F00100BA490860002049
:100BE000B14988610846806920F00E008861084696
:100BF000806940F00C0088610846806940F0200060
:100C000088610846806920F0800088610846806914
:100C100020F4807088610846806920F40070886143
:100C20000846806920F4806088610846806920F465
:100C300000608861A4480068A449B0FBF1F0A049B5
:100C4000C1F8B8019848806840F080609649886093
:100C50000846806820F0200088600846806840F4DC
:100C6000006088600846806840F4805088600846CC
:100C7000806820F4005088600846806820F4804036
:100C8000886008468068924908408749886008461D
:100C900080689049084384498860002008600846BD
:100CA000006840F01C5008600846006840F480204E
:100CB00008600846006840F48070086008460068D4
:100CC00040F074000860002048600846406840F02A
:100CD000006048600846406840F4002048600846CC
:100CE000406840F4806048600846406840F20F1158
:100CF00008436D49486078480861486114B120464E
:100D0000FFF70CFF50BD744A002102E022F8020BED
:100D1000491CB1F5FF3FF9D3704730B56E4BB0F5C4
:100D2000F07F02DAB1F5887F00DB30BDC1EB011541
:100D300000EB451403EB44031A8000BFF5E72DE9EF
:100D4000F04F04460D4691469A46DDF824B04C45D6
:100D500003DD0FFA89F7A146BCB2554503DD0FFA52
:100D60008AF7AA46BDB2A9EB04000FFA80F8AAEBF5
:100D7000050006B2B8F1000F0BD100BF5A46294654
:100D80002046FFF7CAFF681C85B2AA45F6DABDE81F
:100D9000F08F56B900BF5A4629462046FFF7BDFFDF
:100DA000601C84B2A145F6DAF1E7B04521DDC8EB5D
:100DB000460007B215E05A4629462046FFF7ADFF28
:100DC000601C84B2002F08DD681C85B2700002210F
:100DD00001FB1800384407B203E0022000FB067054
:100DE00007B24C45E7D15A4629462046FFF795FF02
:100DF00020E0C6EB480007B215E05A4629462046D7
:100E0000FFF78BFF681C85B2002F08DD601C84B2E1
:100E10007000022101FB1800384407B203E00220F1
:100E200000FB067007B25545E7D15A4629462046D1
:100E3000FFF773FF00BFAAE72DE9F84105460E460C
:100E400017469846079CA0B233463A463146009072
:100E50002846FFF774FFA0B243463A464146009049
:100E60002846FFF76CFFA0B243462A463146009061
:100E70002846FFF764FFA0B243463A463146009049
:100E80003846FFF75CFFBDE8F8812DE9F0411C46CC
:100E9000069FC1EB011CDFF8408008EB8C1C0CEBBB
:100EA000400300262AE0000000800820008208207D
:100EB00074C2024000C002401CC1024000800920F0
:100EC00000C00F40008C08206C0100109C99740039
:100ED000FFFF00FC0000DF01000001A0002502E090
:100EE00023F8027B6D1CA2EB000CAC45F8D8A2EBFA
:100EF000000CCCF5F07C03EB4C03761CA4EB010C4E
:100F0000B445EBD8BDE8F0812DE9F04704460D4625
:100F10001746784200214FEA4708C8F10202F94E0D
:100F200000BFA4EB000805EB01094FF4F07A0AFBBF
:100F3000098846F8283004EB000805EB01090AFB94
:100F4000098846F8283004EB0008A5EB01090AFBE4
:100F5000098846F82830A4EB0008A5EB01090AFB34
:100F6000098846F8283094468C450DDC01F10108CB
:100F700041464FF0010909EB48084244C84203D1F9
:100F8000844501DC4FF0000C844507DD00F10108C9
:100F900040464FF0010909EB480842440028C0DDF3
:100FA000BDE8F08770B505460E461446A2B231463C
:100FB0002846FFF7B2FE70BD2DE9FF5F06460F46DB
:100FC00090469946DDF838B041466846FFF74EF93D
:100FD00000241DE01DF804A0002516E0C5F107005F
:100FE0004AFA00F000F0010038B13A1991B27219D2
:100FF00090B24A46FFF791FE06E03A1991B2721993
:1010000090B25A46FFF789FE6D1C082DE6D3641C8A
:10101000102CDFD3BDE8FF9F2DE9FE4F06460F469B
:1010200090469946DDF830B041466846FFF72BF907
:10103000002415E01DF804A000250EE0C5F107000E
:101040004AFA00F000F0010030B13A1991B2721979
:1010500090B24A46FFF761FE6D1C082DEED3641C6A
:101060000C2CE7D3BDE8FE8F2DE9F84305460E466C
:1010700014469846DDF8209000BF14F8017B4346E3
:101080003A4631462846CDF80090FFF795FFB5F572
:10109000EC7F03DA05F1080085B208E0FF2E04DCDE
:1010A000002506F1100086B201E000250026207818
:1010B0000028E2D1BDE8F8832DE9FF4F07468846B6
:1010C0009B463C464546BA4646464FF0000915E069
:1010D000A4F1140188B22946029AFFF71EFE601C93
:1010E00084B2A6F1140081B25046029AFFF715FEB1
:1010F000701C86B209F101001FFA80F9B9F1280FBE
:10110000E6DB3C464546BA4646464FF000092BE032
:10111000A5F1140291B2A4F1140290B25A46FFF75D
:10112000FCFD05F1140291B2A4F1140290B25A46EA
:10113000FFF7F3FD601C84B2A6F1140291B2AAF18C
:10114000140290B25A46FFF7E8FDA6F1140291B2DC
:101150000AF1140290B25A46FFF7DFFD701C86B206
:1011600009F101001FFA80F9B9F10A0FD0DB3C4602
:101170004546BA4646464FF000092BE0A5F1140259
:1011800091B204F10A0290B25A46FFF7C6FD05F18A
:10119000140291B204F10A0290B25A46FFF7BDFD63
:1011A000601C84B206F10A0291B2AAF1140290B254
:1011B0005A46FFF7B2FD06F10A0291B20AF1140293
:1011C00090B25A46FFF7A9FD701C86B209F10100E2
:1011D0001FFA80F9B9F10A0FD0DBBDE8FF8F10B517
:1011E0000246002112E001EB8110474B185C137896
:1011F000984209D1507801EB8113434C23445B782A
:10120000984201D1084610BD481C81B20029EAD09D
:101210000020F8E710B50246002114E001EB0110B0
:101220003A4B13F81000137898420AD1507801EB2A
:101230000113364C04EB43035B78984201D1084616
:1012400010BD481C81B2B229E8D30020F8E72DE98F
:10125000F04F04460F4615469846A3464FF0000946
:1012600000262FE0099810F806904FF0000A23E0BE
:1012700009F0800038B12648008882B239462046FD
:10128000FFF74BFD06E02248808882B239462046AF
:10129000FFF743FD4FEA49604FEA1069601C84B2D2
:1012A000A4EB0B00A84203D15C46781C87B206E091
:1012B0000AF1010000F0FF0ABAF1080FD8DB00BF05
:1012C000701C86B205FB08F0C11700EB5171B6EB3C
:1012D000E10FC7DBBDE8F08F2DE9F04F05468946E9
:1012E00092469B46A8460026BBF1000F3CD1002445
:1012F00037E00AEB0A10054901EB4000801C065D4F
:10130000002729E0000001A02C5C02006D5C0200B7
:101310001400001006F0800038B1FD48008882B249
:1013200049462846FFF7F9FC06E0F948808882B272
:1013300049462846FFF7F1FC7006060E681C85B288
:10134000A5EB0800102805D1454609F101001FFA58
:1013500080F903E0781CC7B2082FDBDB00BF601CFC
:10136000C4B2202CC5DB33E000242FE00AEB0A10C6
:10137000E84901EB4000801C065D002721E006F0F3
:10138000800038B1E248808882B249462846FFF79B
:10139000C4FC06E0DE48008882B249462846FFF7D2
:1013A000BCFC7006060E681C85B2A5EB0800102870
:1013B00005D1454609F101001FFA80F903E0781CC8
:1013C000C7B2082FDBDB00BF601CC4B2202CCDDB12
:1013D000BDE8F08F2DE9F04F0546894692469B46C1
:1013E000A8460026BBF1000F33D100242EE00AEB03
:1013F0008A10C9490844801C065D002721E006F0D8
:10140000800038B1C248008882B249462846FFF7BA
:1014100084FC06E0BE48808882B249462846FFF731
:101420007CFC7006060E681C85B2A5EB0800182827
:1014300005D1454609F101001FFA80F903E0781C47
:10144000C7B2082FDBDB00BF601CC4B23F2CCEDB71
:1014500032E000242EE00AEB8A10AF490844801CD9
:10146000065D002721E006F0800038B1A84880889A
:1014700082B249462846FFF750FC06E0A44800889F
:1014800082B249462846FFF748FC7006060E681CE3
:1014900085B2A5EB0800182805D1454609F10100E1
:1014A0001FFA80F903E0781CC7B2082FDBDB00BF0E
:1014B000601CC4B23F2CCEDBBDE8F08FF0B5044613
:1014C0000D4616461F463B46224631462846FFF744
:1014D00081FF1820F0BDF0B504460D4616461F46A4
:1014E0003B46224631462846FFF7F6FE1220F0BD65
:1014F0002DE9F84306460D4614461F464FF00008F6
:10150000C14654E0207800B952E006EB090086B2EB
:10151000207880281ADD06F11800B0F5F07F07DD8D
:10152000002605F1160085B2B5F5887F00DD00259F
:101530002046FFF754FE1FFA80F83B462A46314604
:101540004046FFF7BBFF8146A41C2FE020780D2802
:101550000AD105F1160085B2B5F5887F00DD0025BA
:10156000641C4FF0000922E020780A2804D10026EC
:10157000641C4FF000091AE006F10C00B0F5F07F92
:1015800007DD002605F10C0085B2B5F5887F00DD8A
:1015900000255F48808880B200905D48008883B253
:1015A000227829463046FFF707FD641C00BFA9E7F3
:1015B00000BFBDE8F8832DE9F84305468846144688
:1015C00000263FE0207800B93DE02078302807DB96
:1015D0002078392804DC207830381FFA80F919E0A7
:1015E00020782E2802D14FF00A0913E020782D2808
:1015F00002D14FF00B090DE02078202802D14FF0E6
:101600000C0907E02078562802D14FF00D0901E0BF
:101610004FF00E094FEA4917F81707EB5070C0104A
:1016200000EBC001C1EB80103C490844A9190090AF
:1016300088B2372320224146FFF709FE641C06F1D9
:10164000200086B2BEE700BFBDE8F8832DE9F8436D
:1016500006460D4614461F464FF00008C14656E0A8
:10166000207800B95CE006EB090086B2207880287B
:101670001ADD06F11000B0F5F07F07DD002605F158
:10168000100085B2B5F5887F00DD00252046FFF704
:10169000C1FD1FFA80F83B462A4631464046FFF717
:1016A0001AFF8146A41C31E020780D280AD105F1EB
:1016B000100085B2B5F5887F00DD0025641C4FF071
:1016C000000924E020780A2804D10026641C4FF089
:1016D00000091CE006F10800B0F5F07F07DD0026E8
:1016E00005F1100085B2B5F5887F00DD00250848BA
:1016F000808880B200900648008883B2227829460C
:101700003046FFF759FC641C4FF00A0900BFA7E7F9
:10171000140000106D5C02002C5C02002195020098
:1017200000BFBDE8F8832DE9F84306460D46144690
:101730001F464FF00008C14656E0207800B954E03B
:1017400006EB090086B2207880281ADD06F1100029
:10175000B0F5F07F07DD002605F1100085B2B5F584
:10176000887F00DD00252046FFF754FD1FFA80F832
:101770003B462A4631464046FFF7ADFE8146A41C53
:1017800031E020780D280AD105F1100085B2B5F5B9
:10179000887F00DD0025641C4FF0000924E02078DC
:1017A0000A2804D10026641C4FF000091CE006F151
:1017B0000800B0F5F07F07DD002605F1080085B2CE
:1017C000B5F5887F00DD00255248808880B2009002
:1017D0005048008883B2227829463046FFF71CFC27
:1017E000641C4FF0080900BFA7E700BFBDE8F883FD
:1017F000F0B504461D46062A00DD0A2202B9012280
:10180000052900DD0521914200DD1146002004E09C
:101810002026414F3E54461CF0B20C28F8D3104607
:101820000FE00A26B4FBF6F706FB17463036471ED4
:10183000DFF8E4C00CF807600A26B4FBF6F4461E95
:10184000F0B20028EDDC89B11346084605E05E1EC3
:10185000314FBE5DFE545E1EF3B2061EA0F10107BD
:10186000F8B2F4D12E262C4FFE5402E020262A4F47
:10187000BE54A5B900200EE0274E365C302E07D1AD
:10188000254F461CBE5D2E2E02D020263E5400E081
:1018900004E0461CF0B2561E8642EDDC00BF561C2A
:1018A000F2B2104604E000261B4F3E54461CF0B234
:1018B0000C28F8D3F0BD30B5184A00210BE084782D
:1018C000457844EA0524057844EA054308C2401CEB
:1018D000401C401C491CB1F5FF3FF0D330BD70B532
:1018E0000E4B002112E000220CE005782D04467812
:1018F00045EA0625867845EA060410C3401C401CCC
:10190000401C521CB2F5F07FEFD3491CB1F5887F23
:10191000E9D370BD140000108C0F0010000001A06E
:101920003EB5054642F669201DF0CBFB00241DE0C4
:10193000F74841000322CDE900210290601C00EB32
:101940004000042202EB0010062202FB040304EB19
:101950004400042202EB0010062202FB04014FF4B3
:10196000EE724FF4BE701DF081F8641C052CDFD3BD
:101970003EBD10B542F66920E64948604FF6FF705B
:1019800008600023E4A2F1215420FFF75FFE00234A
:10199000E3A2F121A420FFF759FE10BD70B5054662
:1019A00042F66920DB4948604FF6FF700860A5B930
:1019B00000240FE004EB4401DB4B03EB410204EB9A
:1019C0008401542303EB01100023F121FFF73EFEB5
:1019D000601CC4B2052CEDDB14E0002410E0611D96
:1019E00001EB4101D04B03EB410204EB8401542392
:1019F00003EB01100023F121FFF728FE601CC4B2A5
:101A0000052CECDB70BD10B542F66920C149486079
:101A10004FF6FF7008600023C4A2F1215420FFF7A5
:101A200015FE10BD10B542F66920BA4948604FF660
:101A3000FF7008600023C0A2F1215420FFF706FECA
:101A400010BD10B50446002C39D14FF6FF70B149D6
:101A5000086042F6692048600023B8A2E7215420BC
:101A6000FFF7F4FD0023B7A2FB215420FFF7EEFDA2
:101A70000023B2A2E721A420FFF7E8FD0023B3A2D0
:101A8000FB21A420FFF7E2FD0023B2A2E721F4200E
:101A9000FFF7DCFD0023ADA2FB21F420FFF7D6FD0C
:101AA0000023ACA2E7214FF4A270FFF7CFFD002383
:101AB000AAA2FB214FF4A270FFF7C8FD2EE0012C73
:101AC0002CD14FF6FF709349086042F669204860B8
:101AD0000023A4A2E7215420FFF7B8FD0023A3A20E
:101AE000FB215420FFF7B2FD0023A2A2E721A4208E
:101AF000FFF7ACFD0023A1A2FB21A420FFF7A6FD68
:101B00000023A0A2E7214FF4CA70FFF79FFD002336
:101B10009EA2FB214FF4CA70FFF798FD10BD10B5CF
:101B20004FF6FF707B49086042F669204860002349
:101B300098A2E7215420FFF789FD002397A2FB21FB
:101B40005420FFF783FD002396A2F1214FF4A270E9
:101B5000FFF77CFD002396A2F1214FF4CA70FFF736
:101B600075FD10BD10B504460CB1012C33D14FF6F4
:101B7000FF706849086042F66920486000238FA220
:101B8000F1215420FFF762FD00238FA2E721A4205A
:101B9000FFF75CFD00238EA2FB21A420FFF756FD7A
:101BA00000238DA2E721F420FFF750FD002388A237
:101BB000FB21F420FFF74AFD00237AA2F1214FF424
:101BC000A270FFF743FD002379A2F1214FF4CA7000
:101BD000FFF73CFD26E04FF6FF704E49086042F6E5
:101BE00069204860002375A2F1215420FFF72EFDE3
:101BF000002377A2E721A420FFF728FD002378A285
:101C0000FB21A420FFF722FD002366A2F1214FF45F
:101C1000A270FFF71BFD002365A2F1214FF4CA70EB
:101C2000FFF714FD10BD10B50446002C39D14FF656
:101C3000FF703849086042F66920486000233FA2DF
:101C4000E7215420FFF702FD00233EA2FB21542090
:101C5000FFF7FCFC002339A2E721A420FFF7F6FCE4
:101C600000233AA2FB21A420FFF7F0FC002339A2B5
:101C7000E721F420FFF7EAFC002334A2FB21F42043
:101C8000FFF7E4FC002333A2E7214FF4A270FFF733
:101C9000DDFC002331A2FB214FF4A270FFF7D6FC3C
:101CA00034E0012C32D14FF6FF701A49086042F639
:101CB0006920486000232BA2E7215420FFF7C6FCCF
:101CC00000232AA2FB215420FFF7C0FC002321A2FD
:101CD000E721A420FFF7BAFC00231CA2FB21A420CB
:101CE000FFF7B4FC002340A2F121F420FFF7AEFC83
:101CF000002324A2E7214FF4CA70FFF7A7FC0023BA
:101D000022A2FB214FF4CA70FFF7A0FC10BD000017
:101D10004040400014000010206DCEA9202000009B
:101D200020CEA92000000000E720030020E7A1AE9C
:101D3000E8AEA420000000002A310000E6B58BE9DF
:101D4000878F0000E698BEE7A4BA0000E8AEBEE7C1
:101D5000BDAE0000E7B3BBE7BB9F0000E4BFA1E658
:101D600081AF0000E69687E4BBB60000E7AEA1E7CE
:101D700090860000E4BF9DE5AD980000E695B0E6D2
:101D80008DAE0000E69BB4E5A49A000020322F320D
:101D900000000000E6B885E999A40000E8A1A8E6E3
:101DA000A0BC0000E4B88AE4B880E9A1B500000056
:101DB000E4B88BE4B880E9A1B5000000E588A0E9AB
:101DC00099A4E8A18C000000E7BABFE680A7000054
:101DD000E887AAE58AA80000E5AFB9E695B000005B
:101DE000E5A48DE588B60000E5B7A5E585B7000058
:101DF00010B54FF6FF70FC49086042F66920486054
:101E00000023AFF2C802E7215420FFF71FFC002394
:101E1000AFF2D002FB215420FFF718FC0023AFF2F1
:101E2000E402E721A420FFF711FC0023AFF2E40253
:101E3000FB21A420FFF70AFC0023AFF2E802E72110
:101E4000F420FFF703FC0023AFF20012FB21F42083
:101E5000FFF7FCFB0023AFF20412E7214FF4A2705E
:101E6000FFF7F4FB0023AFF20C12FB214FF4A2703A
:101E7000FFF7ECFB10BD38B504460020182340F2F4
:101E8000E11201460090FFF700F80020D6494860B3
:101E90004FF6FF7008600023D4A203210420FFF74F
:101EA000D5FB38BD08B543F6AC101DF00AF9052086
:101EB000FD234FF4BA725C21009004201CF0A4FEB4
:101EC00008BD10B504464AF2FF501DF0FAF8C948A3
:101ED0001DF008F91823C022002108461CF068FEF6
:101EE00000201DF0EEF802201DF03AF9C24901EB86
:101EF0000410022200211CF07BFD10BD10B5002053
:101F0000FFF7DFFFFFF7CEFF10BD7CB505460020D1
:101F10001DF026F942F669201DF0C8F86FF07F40E9
:101F20001DF0CFF800242EE04FF4BE70ADF8000095
:101F300004EB4400042101EB0010062101FB040026
:101F400000B2ADF802004FF4EE70ADF80400601C72
:101F500000EB4000042101EB0010062101FB04000E
:101F600000B2ADF80600C4EBC401A44A02EB810143
:101F7000A34A1278C2EBC20201EB42000E2269466C
:101F80001CF04AFD641C052CCED37CBD10B5FFF7B8
:101F9000B5FF0020FFF7C4FC0020FFF7B6FF0024C8
:101FA0001FE0032C0ED2974800EB0412601C00EBDC
:101FB00040001A2303EBC00081B200230420FFF786
:101FC00045FB0DE08F4800EB0412A01E00EB400023
:101FD0001A2303EBC00081B20023B820FFF736FBC1
:101FE000641C062CDDD310BD08B543F6AC10BE232F
:101FF00040F2DF12702100900020FEF746FF08BD7E
:1020000010B50020FFF737FFFFF7EEFF10BD08B552
:1020100043F6AC10A02340F2DF12562100900020BE
:10202000FEF733FF43F6AC10E32340F2DF12C12189
:1020300000900020FEF729FF08BD10B50020FFF733
:102040001AFFFFF7E4FF10BD08B543F6AC10A0235C
:1020500040F2DF12602100900020FEF716FF08BD5D
:1020600010B50020FFF707FFFFF7EEFF10BD10B51A
:10207000FFF7F6FF4FF6FF705B49086040F23F2024
:1020800048600023604A04211846FFF7DFFA4FF644
:10209000FF70554908605D48486000235CA21A2122
:1020A0000420FFF7D3FA00235CA232212C20FFF793
:1020B000CDFA00235CA232219020FFF7C7FA00235B
:1020C0005CA23221F420FFF7C1FA00235BA2322187
:1020D0004FF4AC70FFF7BAFA00235AA232214FF442
:1020E000DE70FFF7B3FA0020FFF7ABFC10BD7047BE
:1020F00000B5FFF7FCFF00BD10B50120FFF710FC95
:102100000520FFF7DEFE4FF6FF701CF0DAFF3F48B8
:102110001CF0CCFF002422E0042C0FD24A4901EB32
:102120004411374B1B7801EB031004EB4401C90049
:1021300001F11A0204211CF05BFC0FE0424901EBA3
:1021400044112F4B1B7801EB0310211F01EB4101C0
:10215000C90001F11A02B8211CF04AFC641C072CCA
:10216000DAD310BD70B50120FFF7DAFB0120FFF7CD
:10217000A8FE4FF6FF701CF0A4FF24481CF096FF49
:102180001F4890F8360000EB80011D48383050F8A9
:1021900031002E490D5C00247FE004F0010008BBF3
:1021A000174991F8361001EB81031549383151F880
:1021B00033104D235943264B03EB8101C4EBC40379
:1021C00001EB83010E4B1B78C3EBC30301EB430010
:1021D000610801EB4101C90001F11A0204211CF060
:1021E00007FC59E036E00000140000105A43746503
:1021F0006B000000A45B0300171B03008B1A030095
:10220000D80F00109D0C0300C91B03003366CC00DF
:10221000E696B9E5BC8F203A00000000E9A291E7FC
:102220008E875B487A5D0000E794B5E5B9B35B56ED
:102230005D00000043705B465D000000445B205D74
:1022400000000000434D5000D4C4020024C402002A
:1022500050CB0200FE4991F8361001EB8103FC4996
:10226000383151F833104D235943FA4B03EB8101B8
:10227000C4EBC40301EB8301F54B1B78C3EBC30331
:1022800001EB4300611E01EB4101C9001A2303EB7E
:102290005102B8211CF0ACFB641CAC42FFF47DAFD2
:1022A00070BD2DE9F8430446204622F011FD054695
:1022B0000022E94B22F0A0FE0BD2E84C41F29C3008
:1022C000ADF8000002208DF8020001208DF8030017
:1022D00080E0204622F0FCFC05460022E04B22F084
:1022E0008BFE14D8204622F0F3FC05460022DD4B7D
:1022F00022F0E6FA074622F0A7FC80B2ADF8000013
:1023000002208DF8020001208DF8030062E02046D3
:1023100022F0DEFC05460022D34B22F06DFE14D8DD
:10232000204622F0D5FC05460022D04B22F0C8FA08
:10233000074622F089FC80B2ADF8000003208DF83A
:10234000020001208DF8030044E0204622F0C0FC8A
:1023500005460022C64B22F04FFE14D8204622F03C
:10236000B7FC05460022C34B22F0AAFA074622F02A
:102370006BFC80B2ADF8000001208DF80200002057
:102380008DF8030026E0204622F0A2FC054600223C
:10239000B44B22F031FE14D8204622F099FC0546B9
:1023A0000022B54B22F08CFA074622F04DFC80B299
:1023B000ADF8000002208DF8020000208DF8030027
:1023C00008E0A0B2ADF8000003208DF80200002064
:1023D0008DF803000098BDE8F8832DE9F843044622
:1023E000204622F075FC054600229B4B22F004FE9D
:1023F0000AD29A4C41F29C30ADF8000002208DF8D0
:1024000002008DF803007EE0204622F061FC0546C4
:102410000022934B22F0F0FD14D8204622F058FC05
:10242000054600228F4B22F04BFA074622F00CFCA7
:1024300080B2ADF8000002208DF8020003208DF874
:10244000030060E0204622F043FC05460022864B54
:1024500022F0D2FD14D8204622F03AFC0546002294
:10246000824B22F02DFA074622F0EEFB80B2ADF847
:10247000000001208DF8020002208DF8030042E0E8
:10248000204622F025FC05460022794B22F0B4FDBF
:1024900014D8204622F01CFC05460022734B22F083
:1024A0000FFA074622F0D0FB80B2ADF80000012001
:1024B0008DF8020002208DF8030024E0204622F06F
:1024C00007FC05460022674B22F096FD13D82046F4
:1024D00022F0FEFB05460022664B22F0F1F907468A
:1024E00022F0B2FB80B2ADF8000002208DF80200AD
:1024F0008DF8030007E0A0B2ADF8000001208DF8D0
:1025000002008DF803000098BDE8F88338B5044652
:102510005A481CF0D6FD5A481CF0C8FD59481CF01A
:10252000E1FD00201CF01CFE57490023042208682E
:102530000321FFF75DF955A1554818F0ECFE04EBB7
:102540008400800000F12802502151481CF050FA0C
:102550003F4890F8360000EB80013D48383050F895
:102560003100052872D2DFE800F0030453BEEF000B
:1025700000BF454840684FF6FF71884206D1444885
:1025800044A10A6802608988818033E03048C08DA8
:1025900001281CD13C4842682D4890F83610491E4D
:1025A00000F5FD7030F81100824203D20020364958
:1025B00048600CE034484268254890F83610491EBF
:1025C00000F5FD7030F81100101A2F4948603348AB
:1025D0000078012807D12C490023042248680321F0
:1025E000FFF706F906E02849002304224868022183
:1025F000FFF7FEF82AA1264818F08DFE04EB8400B0
:10260000800000F12802A02121481CF0F1F99DE092
:102610001D4840682349884206D11D4822A10A6806
:1026200002604968416058E017494868FFF7D5FEE5
:10263000009020480099016002469178108800239C
:102640000422FFF7D5F81B48C07835E07DE0000094
:10265000D80F001050CB020084D7874180F0FA02D7
:10266000D01263410088C34080842E4100408F40D7
:10267000006AF8400000594000002440FFFF80003D
:102680003366CC00A45B0300240300106B560000EB
:102690008C0F00105550504552000000EB00001008
:1026A0006D412000F6FF0900555050455220202072
:1026B000000000001C00001000EB4000FE4A02EB8E
:1026C0004001FE4818F027FE04EB8400800000F172
:1026D0002802A021F9481CF08BF996225A21F748CC
:1026E0001CF086F932E0F64840684FF6FF718842E8
:1026F00007D1F248AFF250010A68026049684160B0
:102700000EE0EF494868FFF7CCFD0090ED480099D6
:10271000016002469178108800230422FFF768F8D0
:10272000E848C07800EB4000E74A8118E34818F019
:10273000F2FD04EB8400800000F12802A021DF48B4
:102740001CF056F902E0FFE700E000BF00BFDC49E3
:102750000889002304220121FFF74AF8DBA1D748AA
:1027600018F0D9FDDC225421D4481CF041F938BDC1
:102770002DE9F8430446204622F0AAFA0546002235
:10278000D34B22F039FC13D8204622F0A1FA05469B
:102790000022D04B22F094F8074622F055FA80B27E
:1027A000ADF8000002208DF802008DF8030025E04E
:1027B000204622F08DFA05460022C74B22F01CFC71
:1027C00013D8204622F084FA05460022C34B22F09B
:1027D00077F8074622F038FA80B2ADF80000022000
:1027E0008DF802008DF8030008E0A0B2ADF80000FB
:1027F00003208DF8020001208DF803000098BDE849
:10280000F88338B50120FFF78BF80620FFF759FB56
:102810006FF07F401CF055FCB1481CF063FC0024B5
:102820000FE0B04A02EB4412AF4B1B7802EB0310EF
:1028300004EB8402642303EB021128221CF0D8F875
:10284000641C032CEDD3A9481CF04CFC00241EE0B2
:10285000601C00EB80008000283002B202231421AB
:10286000601C1CF01DF8611C01EB8101890001F165
:102870002802611C01EB81039B49383151F8331068
:102880009B4B03EBC10032211CF0B2F8641C96484C
:1028900090F83500A042DBD896481CF012FC904816
:1028A0001CF020FC002468E0611C01EB81028E49D1
:1028B000383101EBC2010023042248680321FEF7EE
:1028C00097FFAFF238217D4818F025FD601C00EB22
:1028D0008000800000F12802502178481CF088F820
:1028E000611C01EB81028049383101EBC20188682B
:1028F000FFF73EFF00909DF80210BDF80000002396
:102900000422FEF775FF601C00EB8001764838302A
:1029100050F8310040B1601C00EB80017248383043
:1029200050F83100012804D17349644818F0F3FCD1
:1029300013E0601C00EB80016B48383050F8310028
:1029400002280AD19DF803006B4A103A02EB0010EE
:1029500000F10801594818F0DEFC601C00EB800013
:10296000800000F12802A02154481CF041F86422A4
:102970001146EA201BF080FF641C5B4890F835008C
:10298000A04291D856481CF0ADFB38BD38B50120A7
:10299000FEF7C6FF0020FFF794FA6FF07F401CF0AF
:1029A00090FB56481CF082FB002448E004F0010034
:1029B00010BB4D4991F8361001EB81034A4938317B
:1029C00051F833104D2359434D4B03EB8101C4EBB8
:1029D000C40301EB8301444B1B78C3EBC30301EB3E
:1029E0004300611C490801EB4101C90001F11A02D1
:1029F00004211BF0FDFF21E03B4991F8361001EB6B
:102A000081033949383151F833104D2359433C4B38
:102A100003EB8101C4EBC40301EB8301324B1B7850
:102A2000C3EBC30301EB4300611E490801EB410105
:102A3000C90001F11A02B8211BF0DAFF641C0B2C4B
:102A4000B4D36FF07F401CF03CFB274890F8353042
:102A500090F836202BA1194818F0FAF91A226421AF
:102A600016481BF0C5FF204991F8361001EB810292
:102A70001D49383151F832101D4A02EBC1001A22AB
:102A80004FF48C711BF0B4FF174890F8360000EB40
:102A900080011548383050F8310005287ED2DFE833
:102AA00000F003FEFDFCFB000F4991F8361001EB2E
:102AB00081020D49383129E0F31F03008C0F00100B
:102AC000240300101C0000102321030020730000C9
:102AD000006AF8400000594000409F400000244038
:102AE000A45B030074C40200D80F0010AC100400F3
:102AF000A4040300FFFF8000FC0403003366CC0045
:102B000054D1020025642F256400000001EBC201AE
:102B10000023042248680321FEF76AFEAFF29441C5
:102B2000F84818F0F8FB32226421F6481BF060FFE9
:102B3000F54890F8360000EB8001F348383000EBA0
:102B4000C100C068C0B1F04991F8361001EB8102B4
:102B5000ED49383101EBC20100230422C86801218C
:102B6000FEF746FEE9A1E74818F0D5FB4A226421AA
:102B7000E4481BF03DFF08E0E3490978E44A02EB32
:102B8000C1004A2264211BF033FFDF48C08B90B3A1
:102B9000DD4890F8360000EB800100E0EAE3DA4817
:102BA000383000EBC1008069D8B1D74890F83600C2
:102BB00000EB8001D448383000EBC100806909285F
:102BC0000FD8D14991F8361001EB8102CE49383146
:102BD00001EBC20101236222886964211BF060FEBF
:102BE00037E0C9490978CB4A02EBC100622264216F
:102BF0001BF0FEFE2DE0FFE7C34890F8360000EB27
:102C00008001C148383000EBC1008069C0B1BE49C5
:102C100091F8361001EB8102BB49383101EBC2015A
:102C20000023032288690121FEF7E2FDBAA1B5481D
:102C300018F071FB62226421B2481BF0D9FE08E053
:102C4000B1490978B34A02EBC100622264211BF04A
:102C5000CFFEAD4991F8361001EB8102AA49383117
:102C600001EBC2018868FFF783FD00909DF8021018
:102C7000BDF8000000230422FEF7BAFDA749A148D1
:102C800018F049FB32224FF48C719E481BF0B0FEC5
:102C90009D4890F8360003E081E3A2E2C7E161E0DD
:102CA00000EB80019848383000EBC1000069F8B1B2
:102CB000954991F8361001EB81029349383101EBC7
:102CC000C2010869FFF754FD00909DF80210BDF89D
:102CD000000000230422FEF78BFD9049894818F07C
:102CE0001AFB4A224FF48C7186481BF081FE09E0E2
:102CF00085490978874A02EBC1004A224FF48C715A
:102D00001BF076FE4FF6FF701CF0DBF984481CF0D8
:102D1000CDF900201CF024FA82481CF0E3F9782257
:102D2000282181A01BF064FE7822F021AFF2A4607C
:102D30001BF05EFEAA2228217CA01BF059FEAA22CD
:102D4000F02175A01BF054FE79481CF0CBF9F3225A
:102D5000342178A01BF04CFEF3228C216BA01BF0D9
:102D600047FE67E3684991F8361001EB8102664936
:102D7000383101EBC2010023042248680321FEF729
:102D800037FDAFF2F8615F4818F0C5FA32226421CE
:102D90005C481BF02DFE5C4890F8360000EB80018B
:102DA0005948383000EBC100C068C0B1564991F8AD
:102DB000361001EB81025449383101EBC201002386
:102DC0000422C8680121FEF713FD50A14D4818F0F8
:102DD000A2FA4A2264214B481BF00AFE08E04A4945
:102DE00009784B4A02EBC1004A2264211BF000FE25
:102DF000454991F8361001EB81024349383101EB26
:102E0000C2018868FFF7B4FC00909DF80210BDF87D
:102E1000000000230422FEF7EBFC4049394818F07B
:102E20007AFA32224FF48C7136481BF0E1FD3648B5
:102E300090F8360000EB80013348383000EBC100D9
:102E40000069F8B1304991F8361001EB81022E4942
:102E5000383101EBC2010869FFF78AFC00909DF848
:102E60000210BDF8000000230422FEF7C1FC2B492C
:102E7000244818F050FA4A224FF48C7121481BF074
:102E8000B7FD09E020490978224A02EBC1004A2235
:102E90004FF48C711BF0ACFD1B48C08B80B31A48FB
:102EA00090F8360000EB80011748383000EBC10085
:102EB0008069D8B1144890F8360000EB80011248C0
:102EC000383000EBC100806909280FD80E4991F80D
:102ED000361001EB81020C49383101EBC2010123AC
:102EE0006222886964211BF0DBFC6BE006490978EB
:102EF000084A02EBC100622264211BF079FD61E007
:102F00001AE000008C0F0010D80F001073000000B2
:102F100094040300A40303006D410000FC040300BB
:102F20003366CC0004B60300563A0000493A00006C
:102F3000A45B030054203A00FE4890F8360000EBF2
:102F40008001FC48383000EBC100806980B3F9484B
:102F500090F8360000EB8001F648383000EBC100F5
:102F60008069C8280AD9C821F24890F8360000EBD9
:102F70008002F048383000EBC2008161ED4991F8E1
:102F8000361001EB8102EB49383101EBC20100231D
:102F9000032288690121FEF72BFCAFF28401E64889
:102FA00018F0B9F962226421E3481BF021FD09E021
:102FB000FFE7E0490978E14A02EBC100622264219F
:102FC0001BF016FD4FF6FF701CF07BF8DC481CF080
:102FD0006DF800201CF0C4F8DA481CF083F8782261
:102FE0002821AFF2BC001BF003FD7822F021AFF6E0
:102FF00064101BF0FDFCAA222821AFF2D0001BF0C8
:10300000F7FCAA22F021AFF2F0001BF0F1FCCE4851
:103010001CF068F8F3223421AFF2E8001BF0E8FC62
:10302000F3228C21AFF21C101BF0E2FC02E2C1493A
:1030300091F8361001EB8102BE49383101EBC20133
:103040000023042248680321FEF7D2FBAFF6C41127
:10305000B94818F060F932226421B7481BF0C8FC67
:10306000B44890F8360000EB8001B248383000EBED
:10307000C100C068C8B1AF4991F8361001EB8102B8
:10308000AC49383101EBC20100230422C868012198
:10309000FEF7AEFBAFF28C11A74818F03CF94A22BC
:1030A0006421A5481BF0A4FC08E0A2490978A74ABE
:1030B00002EBC1004A2264211BF09AFC9D4890F863
:1030C000360000EB80019B48383000EBC10080687F
:1030D00028B3984991F8361001EB810295493831AF
:1030E00001EBC2018868FFF778F900909DF80210A3
:1030F000BDF8000000230422FEF77AFB9DF80300D0
:10310000934A02EB001000F108018B4818F003F914
:1031100032224FF48C7188481BF06AFC09E0854923
:103120000978864A02EBC10032224FF48C711BF001
:103130005FFC804991F8361001EB81027D493831FE
:1031400001EBC2010869FFF748F900909DF80210F1
:10315000BDF8000000230422FEF74AFB9DF803009F
:103160007B4A02EB001000F10801734818F0D3F815
:103170004A224FF48C7170481BF03AFC4FF6FF70F6
:103180001BF09FFF6E481BF091FF00201BF0E8FF33
:103190006C481BF0A7FF78222821AFF274201BF0A7
:1031A00027FC7822F021AFF61C301BF021FCAA226C
:1031B000282168A01BF01CFCAA22F02166A01BF0AD
:1031C00017FC61481BF08EFFF3223421AFF29C20E4
:1031D0001BF00EFCF3228C21AFF2D0201BF008FC78
:1031E00028E1544890F8360000EB8001514838300F
:1031F00000EBC10059A102694F4817F029FE3222A5
:1032000064214D481BF0F4FB4A4890F8360000EB6F
:1032100080014848383000EBC1008068642813D32F
:10322000444890F8360000EB80014248383000EB0B
:10323000C1004AA18268404817F00AFE4A22642170
:103240003D481BF0D5FB08E03A4909783B4A02EBC0
:10325000C1004A2264211BF0CBFB364890F83600AF
:1032600000EB80013348383000EBC100006AD0B376
:10327000304890F8360000EB80012E48383000EBE3
:10328000C100006AB0F57A7F13D32A4890F836005F
:1032900000EB80012748383000EBC100006A0A21AA
:1032A000B0FBF1F50023042202212846FEF7A0FA24
:1032B0000EE0204991F8361001EB81021D493831AA
:1032C00001EBC20100230422086A0321FEF790FAF1
:1032D0002449194818F01FF832224FF48C7116480F
:1032E0001BF086FB06E0FFE732224FF48C711EA034
:1032F0001BF07EFB4FF6FF701BF0E3FE10481BF047
:10330000D5FE00201BF02CFF0E481BF0EBFE7822B0
:103310002821AFF2EC301BF06BFB7822F021AFF6E6
:1033200094401BF065FBAA22282111A01BF060FB32
:10333000AA2220E0D80F00108C0F0010A403030075
:103340003366CC0004B60300A45B030094040300BE
:10335000EC040300523A0000CEA900002533642596
:1033600025000000262103004E4F4E4500000000BE
:10337000433A00005DE0F021FEA01BF039FBFE485F
:103380001BF0B0FEF3223421AFF258401BF030FBAB
:10339000F3228C21AFF28C401BF02AFB4AE0322250
:1033A0006421F6A01BF024FBF64991F8361001EBDE
:1033B0008102F449383101EBC201496AF24A02EB59
:1033C0000111F04A127801EBC20032224FF48C71E5
:1033D0001BF00EFBEB4890F8360000EB8001E9484B
:1033E000383000EBC100C068C8B1E64991F836102A
:1033F00001EB8102E349383101EBC20100230422D1
:10340000C8680121FEF7F4F9AFF20051DF4817F068
:1034100082FF4A226421DD481BF0EAFA08E0D9491C
:103420000978DB4A02EBC1004A2264211BF0E0FA72
:1034300000E000BF00BF38BD10B50120FEF770FAF4
:103440000320FEF73EFD4FF6FF701BF03AFED14819
:103450001BF02CFE00242CE004F00100A0B9C4EB0A
:103460000411CD4B03EB4101C64B1B78C3EB031397
:10347000C818611C490801EB4101C90001F11A0299
:1034800004211BF0B5FA13E0C4EB0411C24B03EBAB
:103490004101BC4B1B78C3EB0313C818611E4908DC
:1034A00001EB4101C90001F11A02B8211BF0A0FA99
:1034B000641C0F2CD0D310BD38B50446012C00D1AC
:1034C00000E0002005461DB1FF20B449486002E03D
:1034D000B048B2494860B148808880B24823C022D1
:1034E000302100905420FDF7D0FCAC48808880B299
:1034F0000090AA48008883B2A94800783130C2B24F
:1035000030216C20FDF758FD022C01D1012000E094
:10351000002005461DB1FF20A049486002E09D48FB
:103520009E4948609E49097801EB81029C49891CAB
:1035300001EB8201C889002304221946FEF758F9DD
:103540009648808880B25E23C0224A210090542091
:10355000FDF79BFC00238D4A4A215C20FEF776F89C
:10356000002390A24A218E20FEF770F8032C01D18F
:10357000012000E0002005461DB1FF20874948607A
:1035800002E08448854948608549097801EB810259
:103590008349891C01EB8201088A00230422194611
:1035A000FEF726F97D48808880B27623C02262210A
:1035B00000905420FDF769FC0023744A62215C20CE
:1035C000FEF744F8002377A262218E20FEF73EF832
:1035D000042C01D1012000E0002005461DB1FF2090
:1035E0006E49486002E06B486C4948606E4800686C
:1035F00011281DD16948808880B246234FF4C872D3
:10360000302100904FF48670FDF73FFC644800784D
:1036100000EB80016248801C00EB81004089634917
:1036200001EB0012002332214FF48670FEF70EF8F2
:10363000052C01D1012000E0002005461DB1FF202E
:103640005649486002E05348544948605449097853
:1036500001EB81025249891C01EB82014888002359
:1036600004221946FEF7C4F84C48808880B25E23D5
:103670004FF4C8724A2100904FF48470FDF705FCA6
:103680000023424A4A214FF48D70FDF7DFFF0023EB
:1036900047A24A214FF4A070FDF7D8FF062C01D1B4
:1036A000012000E0002005461DB1FF203B49486095
:1036B00002E03848394948603949097801EB81020C
:1036C0003749891C01EB82018888002304220121EB
:1036D000FEF78EF800232D4A62214FF48870FDF723
:1036E000B5FF0023AFF61C4262214FF4A070FDF736
:1036F000ADFF38BD7CB506460D460120FEF710F93A
:1037000002201BF02DFD6FF07F401BF0DAFC00243F
:10371000C4E04FF4BE70ADF8000004EB4400042197
:1037200001EB0010062101FB040000B2ADF802001D
:103730004FF4EE70ADF80400601C00EB4000042173
:1037400001EB0010062101FB040000B2ADF80600F9
:10375000052E3FD2DFE806F0033F576F8700C5EB29
:10376000C50101EB8101134A02EB8101054A127880
:1037700022E000006E460000A45B03005041555358
:1037800045000000D80F0010A40303008C0F0010A8
:10379000940403003366CC00FC0603001400001000
:1037A000A40800104DCEA90010010010D011030094
:1037B0002056000058D70200C2EBC20202EB820280
:1037C00001EB4201C4EBC40201EB42000E22694648
:1037D0001BF022F95FE0C5EBC50101EB8101FE4A58
:1037E00002EB8101FD4A1278C2EBC20202EB8202B7
:1037F00001EB4201C4EBC40201EB42000E22694618
:103800001BF00AF947E0C5EBC50101EB8101F44A61
:1038100002EB8101F14A1278C2EBC20202EB820292
:1038200001EB4201C4EBC40201EB42000E226946E7
:103830001BF0F2F82FE0C5EBC50101EB8101E94A6D
:1038400002EB8101E54A1278C2EBC20202EB82026E
:1038500001EB4201C4EBC40201EB42000E226946B7
:103860001BF0DAF817E0C5EBC50101EB8101DE4A78
:1038700002EB8101D94A1278C2EBC20202EB82024A
:1038800001EB4201C4EBC40201EB42000E22694687
:103890001BF0C2F800BF00BF601CC4B2052CFFF6CD
:1038A00038AF7CBDF8B50546CC4991F8361001EB30
:1038B0008102CA49383151F83210CC4A515C481C57
:1038C00000EBD071C1F34707012437E0AC4203D1CC
:1038D000FF201BF0F6FB02E0C5481BF0F2FB04F0F2
:1038E0000100A0B1601E012202EB500000EB40007D
:1038F000C00000F11803601E00EB4000C000182259
:1039000002EB5001B4225A201BF052F915E0601E60
:10391000012202EB500000EB4000C00000F1180350
:10392000601E400800EB4000C00000F118014FF499
:10393000B7724FF48A701BF03BF9641CA74890F8EB
:10394000360000EB8001A548383050F83100A74917
:10395000085C401CA042B9D802201BF001FC6FF0AB
:103960007F401BF0AEFB9D4890F8353090F8362034
:10397000AFF670619F4817F06BFA1A2264219D48D8
:103980001BF036F8954991F8361001EB8102934906
:10399000383151F83210984A02EBC1001A224FF424
:1039A0008C711BF025F88D4890F8360000EB8001F3
:1039B0008A48383050F83100052871D2DFE810F01D
:1039C000050096019A03CA046705844991F83610E8
:1039D00001EB81028149383101EBC201002304224D
:1039E00048680321FDF704FF84A1824817F093FC87
:1039F000322264217F481AF0FBFF784890F83600A5
:103A000000EB80017548383000EBC100C068C8B1D8
:103A1000724991F8361001EB81027049383101EB9F
:103A2000C20100230422C8680121FDF7E1FEAFF6C0
:103A30002431704817F06FFC4A2264216D481AF057
:103A4000D7FF08E0654909786D4A02EBC1004A22B8
:103A500064211AF0CDFF614890F8360000EB800138
:103A60005E48383000EBC1004069D0B15B4991F845
:103A7000361001EB81025949383101EBC2010023B4
:103A8000042248690121FDF7B3FEAFF680315948A1
:103A900017F041FC6222642156481AF0A9FF09E0A0
:103AA000F9E34E490978574A02EBC10062226421CA
:103AB0001AF09EFF494890F8360000EB8001474815
:103AC000383000EBC100C069C8B1444991F83610E4
:103AD00001EB81024149383101EBC201002304228C
:103AE000C8690121FDF784FEAFF6E031414817F0C7
:103AF00012FC7A2264213F481AF07AFF08E0374925
:103B00000978404A02EBC1007A2264211AF070FF62
:103B1000324991F8361001EB81023049383101EB1E
:103B2000C2018868FEF724FE00909DF80210BDF8DF
:103B3000000000230422FDF75BFE33492D4817F0F7
:103B4000EAFB32224FF48C712A481AF051FF2348C5
:103B500090F8360000EB80012048383000EBC100BF
:103B60000069F8B11D4991F8361001EB81021B493B
:103B7000383101EBC2010869FEF7FAFD00909DF8AB
:103B80000210BDF8000000230422FDF731FE1E499B
:103B9000184817F0C0FB4A224FF48C7115481AF0F0
:103BA00027FF09E00D490978164A02EBC1004A22B5
:103BB0004FF48C711AF01CFF0848C08B30B30748D3
:103BC00090F8360000EB80010448383000EBC1006B
:103BD0008069092826D91AE030E10200D80F0010C8
:103BE000C0E7020084F60200CCF9020024C40200FF
:103BF0003366CC008C0F0010A40403006B56000049
:103C000094040300A4030300FC0403003DE0092125
:103C1000FB4890F8360000EB8002F948383000EBA2
:103C2000C2008161F64890F8360000EB8001F4484C
:103C3000383000EBC1008069E0B1F14890F83600FF
:103C400000EB8001EE48383000EBC10080690928A4
:103C500010D8EB4991F8361001EB8102E849383170
:103C600001EBC2010123622288694FF48C711AF0C2
:103C700017FE3AE0E2490978E24A02EBC10062220B
:103C80004FF48C711AF0B4FE2FE0DD4890F8360046
:103C900000EB8001DA48383000EBC1008069D0B118
:103CA000D74991F8361001EB8102D549383101EB43
:103CB000C2010023032288690121FDF799FDAFF6B7
:103CC000A851D14817F027FB62224FF48C71CE48DF
:103CD0001AF08EFE09E0CA490978CA4A02EBC1000F
:103CE00062224FF48C711AF083FE02E2C44991F80B
:103CF000361001EB8102C249383101EBC2010023C9
:103D0000042248680321FDF773FDAFF21011BE488D
:103D100017F001FB32226421BB481AF069FEB84853
:103D200090F8360000EB8001B548383000EBC10058
:103D3000C068C8B1B24991F8361001EB8102B049B0
:103D4000383101EBC20100230422C8680121FDF7CC
:103D50004FFDAFF64861AC4817F0DDFA4A22642106
:103D6000A9481AF045FE08E0A5490978A74A02EBE0
:103D7000C1004A2264211AF03BFEA14890F83600A7
:103D800000EB80019E48383000EBC1004069C8B1AB
:103D90009B4991F8361001EB81029949383101EBCA
:103DA000C2010023042248690121FDF721FDAFF67D
:103DB000A461954817F0AFFA6222642192481AF084
:103DC00017FE08E08E4909788E4A02EBC100622294
:103DD00064211AF00DFE8A4890F8360000EB80014D
:103DE0008748383000EBC100C069C8B1844991F8F8
:103DF000361001EB81028249383101EBC201002308
:103E00000422C8690121FDF7F3FCAFF600717E487A
:103E100017F081FA7A2264217B481AF0E9FD08E064
:103E200077490978774A02EBC1007A2264211AF0B7
:103E3000DFFD734890F8360000EB800170483830A1
:103E400000EBC100406A80B36D4890F8360000EB8B
:103E500080016B48383000EBC100406A40F6AC513D
:103E6000884209D3664890F8360000EB8002644827
:103E7000383000EBC2004162614991F8361001EB25
:103E800081025F49383101EBC20100230422486AF4
:103E90000121FDF7ADFC5EA15B4817F03CFA9222D0
:103EA000642159481AF0A4FD15E0FFE7544991F840
:103EB000361001EB81025249383101EBC201496AE7
:103EC000504A02EB01114E4A127801EBC2009222D5
:103ED00064211AF08DFD4A4991F8361001EB8102F8
:103EE0004749383101EBC2018868FEF741FC009078
:103EF0009DF80210BDF8000000230422FDF778FCB5
:103F00004449414817F007FA32224FF48C713E4879
:103F10001AF06EFD3A4890F8360000EB8001384800
:103F2000383000EBC1000069F8B1354991F836101E
:103F300001EB81023249383101EBC2010869FEF719
:103F400017FC00909DF80210BDF800000023042229
:103F5000FDF74EFC2F492C4817F0DDF94A224FF4AB
:103F60008C7129481AF044FD09E025490978254A51
:103F700002EBC1004A224FF48C711AF039FD20483F
:103F8000C08BE0B31E4890F8360000EB80011C485F
:103F9000383000EBC100806909280AD90921184886
:103FA00090F8360000EB80021548383000EBC20074
:103FB0008161134890F8360000EB800110483830DA
:103FC00000EBC100806938B30D4890F8360000EB73
:103FD00080010B48383000EBC100806909281FD8E8
:103FE000074991F8361001EB81020549383101EBA0
:103FF000C2010123622288694FF48C710DE01AE03E
:10400000D80F0010A40303008C0F001094040300C9
:1040100075410000FC04030002E01AF041FC39E0A5
:10402000FE490978FE4A02EBC10062224FF48C710E
:104030001AF0DEFC2EE0F94890F8360000EB800123
:10404000F648383000EBC1008069C8B1F34991F8F7
:10405000361001EB8102F149383101EBC201002336
:10406000042288690121FDF7C3FBEEA1EE4817F099
:1040700052F962224FF48C71EB481AF0B9FC09E056
:10408000E6490978E64A02EBC10062224FF48C71DE
:104090001AF0AEFCE14890F8360000EB8001DF48F2
:1040A000383000EBC100006AC8B1DC4991F8361025
:1040B00001EB8102D949383101EBC201002304220E
:1040C000086A0121FDF794FBD8A1D74817F023F91E
:1040D0007A224FF48C71D4481AF08AFC09E0CF4957
:1040E0000978CF4A02EBC1007A224FF48C711AF0A2
:1040F0007FFC18E2C94991F8361001EB8102C749EB
:10410000383101EBC2010023042248680321FDF786
:104110006FFBAFF21851C44817F0FDF8322264214A
:10412000C1481AF065FCBD4890F8360000EB8001EC
:10413000BA48383000EBC100C068C0B1B74991F847
:10414000361001EB8102B549383101EBC201002381
:104150000422C8680121FDF74BFBB4A1B24817F057
:10416000DAF84A226421B0481AF042FC08E0AB4970
:104170000978AF4A02EBC1004A2264211AF038FCE8
:10418000A64890F8360000EB8001A448383000EBD8
:10419000C1004069C0B1A14991F8361001EB81021C
:1041A0009E49383101EBC2010023042248690121F4
:1041B000FDF71EFB9DA19C4817F0ADF8622264211B
:1041C00099481AF015FC08E094490978944A02EBE2
:1041D000C100622264211AF00BFC904890F836006E
:1041E00000EB80018D48383000EBC100C069C0B1E0
:1041F0008A4991F8361001EB81028849383101EB88
:10420000C20100230422C8690121FDF7F1FA87A148
:10421000854817F080F87A22642183481AF0E8FB79
:1042200008E07E4909787E4A02EBC1007A226421C7
:104230001AF0DEFB794890F8360000EB80017748F1
:10424000383000EBC100806830B3744991F8361003
:1042500001EB81027149383101EBC2018868FEF738
:10426000BCF800909DF80210BDF800000023042265
:10427000FDF7BEFA9DF803006E4A02EB001000F154
:104280000801694817F047F832224FF48C716648EC
:104290001AF0AEFB0AE045E160490978604A02EB9A
:1042A000C10032224FF48C711AF0A2FB5B4991F8E5
:1042B000361001EB81025949383101EBC20108691E
:1042C000FEF78BF800909DF80210BDF80000002367
:1042D0000422FDF78DFA9DF80300564A02EB001008
:1042E00000F10801504817F016F84A224FF48C717B
:1042F0004D481AF07DFB49490978C1EBC1014E4A8E
:1043000002EBC102454991F8361001EB81034349A4
:10431000383101EBC301896902EBC10062224FF41D
:104320008C711AF065FB3D4991F8361001EB810262
:104330003A49383101EBC201496A394A02EB0111AD
:10434000364A127801EBC2007A224FF48C711AF0CF
:104350004FFBE8E0314890F8360000EB80012F4831
:10436000383000EBC100354902692F4816F070FD66
:10437000322264212C481AF03BFB284890F8360082
:1043800000EB80012548383000EBC10080686428CC
:1043900013D3224890F8360000EB80011F483830D4
:1043A00000EBC100254982681F4816F051FD4A22E2
:1043B00064211D481AF01CFB08E018490978184AC6
:1043C00002EBC1004A2264211AF012FB134890F854
:1043D000360000EB80011148383000EBC100006A64
:1043E00070B30E4890F8360000EB80010B4838306F
:1043F00000EBC100006AB0F57A7F27D3074890F838
:10440000360000EB80010548383000EBC100006A3F
:104410000A21B0FBF1F60023042212E0D80F0010AD
:10442000A40303006D4100008C0F00107300000016
:1044300094040300EC040300240403005C33000034
:104440001EE002213046FDF7D3F90EE0FA4991F85B
:10445000361001EB8102F849383101EBC20100232B
:104460000422086A0321FDF7C3F9F449F44816F061
:1044700052FF32224FF48C71F1481AF0B9FA05E07C
:1044800032224FF48C71EF481AF0B2FA4BE032222C
:104490006421AFF618501AF0ABFAE74991F83610DC
:1044A00001EB8102E449383101EBC201496AE64A75
:1044B00002EB0111E04A127801EBC20032224FF404
:1044C0008C711AF095FADC4890F8360000EB800108
:1044D000D948383000EBC100C068C8B1D64991F85E
:1044E000361001EB8102D449383101EBC2010023BF
:1044F0000422C8680121FDF77BF9AFF2D001D04852
:1045000016F009FF4A226421CD481AF071FA08E03A
:10451000C9490978CD4A02EBC1004A2264211AF048
:1045200067FA00E000BF00BFC34991F8361001EB05
:104530008102C149383111F832002946FFF7DAF813
:10454000F8BD7CB505460120FDF7EAF942F6692081
:104550001AF0ACFD02201AF003FE6FF07F401AF053
:10456000B0FD002437E04FF4BE70ADF8000004EB5E
:104570004400042101EB0010062101FB040000B2FD
:10458000ADF802004FF4EE70ADF80400601C00EBD3
:104590004000042101EB0010062101FB040000B2E1
:1045A000ADF80600C5EBC50101EB8101A84A02EB9D
:1045B0008101A14A1278C2EBC20202EB820201EB36
:1045C0004201C4EBC40201EB42000E2269461AF01C
:1045D00023FA601CC4B2052CC5DB7CBD2DE9F04775
:1045E0000746954C14340F2601253BE0BD4203D10C
:1045F000FF201AF066FD02E096481AF062FD701C7A
:1046000000EBD071B5EB610F0FD805EB4500C00092
:1046100000F11803681E00EB4000C00000F1180113
:10462000B4225A201AF0C4FA1BE006F1010808EB84
:10463000D870A5EB600000EB4000C00000F118034B
:10464000C14609EBD970A5EB6000401E00EB4000AD
:10465000C00000F118014FF4B7724FF48A701AF0DD
:10466000A7FA6D1CB5F5E17FC0D902201AF078FDDC
:104670006FF07F401AF025FD002526E0012D0ED1B8
:1046800034F81500B0F57A7F09D105EB45001A2101
:1046900001EBC002642170A01AF0AAF914E034F80A
:1046A0001500002303220121FDF7A2F8AFF28421B7
:1046B000634816F030FE05EB45001A2101EBC002FD
:1046C00064215F481AF094F96D1C032DD6D3E1885C
:1046D0005D4A02EB0111584A127801EBC2006222D6
:1046E00064211AF085F921895C4A02EBC1007A2223
:1046F00064211AF07DF96189594A02EB01114E4A91
:10470000127801EBC200922264211AF071F9A0899B
:1047100048B9494909784C4A02EBC100AA226421F0
:104720001AF066F90AE0A089002302221946FDF773
:104730005FF8AA22642142481AF05AF9E189424AF4
:1047400002EB01113C4A127801EBC200C222642143
:104750001AF04EF9218A3C4A02EB0111364A1278CE
:1047600001EBC2001A224FF48C711AF041F9618AF0
:10477000354A02EB0111304A127801EBC2003222B5
:104780004FF48C711AF034F9A18A364A02EB011108
:10479000294A127801EBC2004A224FF48C711AF0B8
:1047A00027F9E18A284A02EB0111234A127801EB2A
:1047B000C20062224FF48C711AF01AF9218B224A3E
:1047C00002EB01111C4A127801EBC2007A224FF46D
:1047D0008C711AF00DF9618B1B4A02EB0111164A1C
:1047E000127801EBC20092224FF48C711AF000F99A
:1047F000A08B88B1A08B002302220121FCF7F8FFD7
:10480000AFF2D8310E4816F086FDAA224FF48C7113
:104810000B481AF0EDF809E0074909780A4A02EB5B
:10482000C100AA224FF48C711AF0E2F83846FFF763
:1048300088FEBDE8F0870000D80F00102621030095
:104840008C0F001068330000A403030094040300DD
:10485000C4ED02003366CC004B455900CC04030084
:1048600004040300C40303001CB50120FDF758F83D
:1048700002201AF075FC6FF07F401AF022FC002431
:104880002BE04FF4BE70ADF8000004EB44000421AF
:1048900001EB0010062101FB040000B2ADF802009C
:1048A0004FF4EE70ADF80400601C00EB40000421F2
:1048B00001EB0010062101FB040000B2ADF8060078
:1048C000FB4901EB4411FB4A127801EB02100E2266
:1048D00069461AF0A1F8601CC4B2052CD1DB1CBDDE
:1048E00010B502201AF03CFC6FF07F401AF0E9FB93
:1048F00032226421F0A01AF07BF8EE490978F04AE0
:1049000002EB41104A2264211AF072F8E9490A7850
:10491000EB49403101EB42107A2264211AF068F829
:10492000E4490A78E649803101EB42109222642181
:104930001AF05EF8DF490A78E149C03101EB421014
:10494000AA2264211AF054F8FFF78EFF10BD70B54B
:1049500004460D46601EDB4A115C002304222846F3
:10496000FCF746FF601C00EB4000C00000F11A019C
:104970000123D54A4FF4A270FCF768FE70BD38B52C
:104980000546002432E0601C854203D1FF20CF4958
:10499000486002E0CE48CD494860CC48808880B26B
:1049A0000090E01C00EB4000C000163083B2A01C59
:1049B00000EB4000C000183081B2E822A420FCF7D0
:1049C00064FAC04A115DC34A32F82400002304226D
:1049D000FCF70EFFA01C00EB4000C0001A3081B2B3
:1049E0000123B94AA420FCF731FE641C052CCAD36C
:1049F000B748B649486038BD30B58DB00446B448B4
:104A0000B249486002A9B4480DF0ACF9B3A10AA8B4
:104A100016F01EFA00230AAAAA215E20FCF716FE51
:104A2000B1A10AA816F014FA00230AAAC221722022
:104A3000FCF70CFE062C01D1012000E00020054609
:104A40001DB1FF20A149486002E0A1489F4948608C
:104A5000A8A10AA8099A16F0FBF99C48808880B2A0
:104A6000BE238622AA2100905E20FCF70EFA0023C6
:104A70000AAAAA215E20FCF7E9FD072C01D101203A
:104A800000E0002005461DB1FF209049486002E08B
:104A90008F488E49486097A10AA8089A16F0D8F95D
:104AA0008A48808880B2BE23A422AA210090902048
:104AB000FCF7EBF900230AAAAA219020FCF7C6FD17
:104AC000082C01D1012000E0002005461DB1FF2087
:104AD0007E49486002E07E487C49486085A10AA87A
:104AE000059A16F0B5F97948808880B2BE23C222B3
:104AF000AA210090AE20FCF7C8F900230AAAAA2137
:104B0000AE20FCF7A3FD092C01D1012000E000201C
:104B100005461DB1FF206D49486002E06C486B49B5
:104B2000486074A10AA8049A16F092F96748808830
:104B300080B2D6238622C22100907220FCF7A5F90C
:104B400000230AAAC2217220FCF780FD0A2C01D1A1
:104B5000012000E0002005461DB1FF205B494860B0
:104B600002E05B485949486062A10AA8039A16F01E
:104B70006FF95648808880B2D623A422C2210090C3
:104B80009020FCF782F900230AAAC2219020FCF7AA
:104B90005DFD0B2C01D1012000E0002005461DB178
:104BA000FF204A49486002E049484849486051A10D
:104BB0000AA8029A16F04CF94448808880B2D6239D
:104BC000C22211460090AE20FCF75FF900230AAA2A
:104BD000C221AE20FCF73AFD0DB030BD7CB50546D4
:104BE0000120FCF79DFE02201AF0BAFA6FF07F4018
:104BF0001AF067FA002437E04FF4BE70ADF80000F9
:104C000004EB4400042101EB0010062101FB040029
:104C100000B2ADF802004FF4EE70ADF80400601C75
:104C200000EB4000042101EB0010062101FB040011
:104C300000B2ADF80600C5EBC50101EB81012F4ABA
:104C400002EB81011B4A1278C2EBC20202EB820224
:104C500001EB4201C4EBC40201EB42000E226946A3
:104C600019F0DAFE601CC4B2052CC5DB7CBD70B542
:104C700005460726012456E0AC4203D1FF201AF076
:104C800020FA02E012481AF01CFA042C38D804EB7F
:104C90004400C00000F11803601E00EB4000C0009B
:104CA00000F11801A0225A2019F082FF3AE000001A
:104CB00074C60200D80F00104A4B37313330000061
:104CC00014CA0200802203008C0F00101400001090
:104CD0003366CC00D4070010004002402020202082
:104CE0003A20203A2020000020203A20203A20209C
:104CF000000000002530326400000000D0DC02001B
:104D0000201F00EB4000C00000F11803601F00EB03
:104D10004000C00000F118014FF4AD724FF48A70EA
:104D200019F046FF641C701C8442A5D302201AF0BF
:104D300017FA6FF07F401AF0C4F9FD490978C1EB0A
:104D4000C10101EB8101FB4A02EB4101F84A1278F3
:104D5000C2EBC20201EB42001A22642119F048FEA4
:104D6000F3490978C1EBC10101EB8102F1498C31B2
:104D700001EB4201EE4A5278C2EBC20201EB420063
:104D80003222642119F034FEE9490978C1EBC101EE
:104D900001EB8102E84901EB4201E54A9278C2EB5E
:104DA000C20201EB42004A22642119F021FEE049CF
:104DB0000978C1EBC10101EB8102DF498C3101EBC4
:104DC0004201DB4AD278C2EBC20201EB420062220E
:104DD000642119F00DFED649497BC1EBC10101EBFD
:104DE0008102D64901EB4201D14A1278C2EBC202DC
:104DF00001EB42001A224FF48C7119F0F9FDCC49F5
:104E0000887B032332224FF48C7119F049FDC84985
:104E10000978C1EBC10101EB8102C94901EB4201F3
:104E2000C34AD27BC2EBC20201EB42004A224FF4DA
:104E30008C7119F0DDFD2846FFF7D0FE70BD10B56E
:104E40000020FDF718F810BD10B5FFF7F8FF4FF67A
:104E5000FF70BC49086040F23F2048604FF6FF7089
:104E60000860B948486000240FE004EB840101EBBE
:104E7000C401B64BCA1804EB84014901091D88B26C
:104E800000233221FCF7E2FB641C032CEDD3002449
:104E900010E004EB840000EBC400AD4BC218A01C72
:104EA00000EB4000C0001A3081B200230420FCF760
:104EB000CDFB641C052CECD310BD08B543F6AC103B
:104EC000B62340F2DF127A2100900020FBF7DDFFCD
:104ED00008BD10B50020FCF7CEFFFFF7EEFF10BDB8
:104EE00008B543F6AC10B62340F2DF127A210090E9
:104EF0000020FBF7CAFF08BD10B50020FCF7BBFF80
:104F000010BD10B5FFF7F8FF4FF6FF708D49086030
:104F100040F23F20486000238E4A04211846FCF7E7
:104F200095FB4FF6FF70874908608748486000236B
:104F3000894A1A210420FCF789FB01240CE08649E8
:104F400001EB0412611E4D235943223188B2002324
:104F50003221FCF77BFB641C072CF0D30020FCF70C
:104F600062FE10BD38B5002416E04FF6FF700090C9
:104F7000601C00EB40001A2202EBC000801E83B2CE
:104F8000601C00EB400002EBC000801E81B2BE221C
:104F90005A20FBF7D4FE641C052CE6D338BD10B5AF
:104FA0000220FCF768FF10BD10B50120FCF7B8FC2B
:104FB0000420FCF786FF4FF6FF701AF082F8624873
:104FC0001AF074F8002410E0644901EB4411584BC6
:104FD0001B7801EB0310611C01EB4101C90001F1D9
:104FE0001A02042119F004FD641C062CECD310BD38
:104FF00070B505462846FCF73EFF4FF6FF70514955
:105000000860086050484860022D11D100240DE06E
:10501000534800EB0412601C00EB4000C0001A3043
:1050200081B200230420FCF711FB641C072CEFD392
:1050300070BD2DE9F34F83B00C4642F20F716068EA
:10504000884206D90A216068B0FBF1F06060042054
:10505000A060A068C0F10400A060D4F80490E068EB
:1050600020B94FF47A7009FB00F90EE0E0680128DE
:105070000BD148461FF02CFE07460022394B1FF08B
:10508000BDFE05461FF0E0FD8146A0681FF020FE32
:1050900007463A460B46002033491EF0CDFD054633
:1050A0000E4648461FF014FE2A463346CDE900015D
:1050B0001FF006FC82461FF0C7FD814648461FF0E0
:1050C00007FE05460022294B1FF096FF09D2DFF8A4
:1050D000A09040F6B83060600220A0600120E0603F
:1050E00084E048461FF0F4FD05460022214B1FF0E6
:1050F00083FF09D842F21070B9FBF0F06060022023
:10510000A0600120E06071E048461FF0E1FD054627
:105110000022144B1FF070FF2ED84FF47A70B9FBA9
:10512000F0F060600320A0600120E0605EE000001D
:10513000D80F001014FD02002CFE02005C000300DA
:1051400074010300140000103366CC00C21D03007C
:10515000E91D0300211C030005200300B4C5020063
:105160008C19030080842E4100002440389C7C412F
:1051700080C3C901D012634148461FF0A9FD05460E
:105180000022FE4B1FF038FF08D86420B9FBF0F076
:1051900060600120A0600020E06027E048461FF02A
:1051A00097FD05460022F64B1FF026FF08D80A207F
:1051B000B9FBF0F060600220A0600020E06015E024
:1051C00048461FF085FD05460022EE4B1FF014FFF8
:1051D00006D8C4F804900320A0600020E06005E039
:1051E000C4F804900320A0600020E060C4F8189088
:1051F0001C222146039816F021F905B0BDE8F08F76
:105200000146888800B270472DE9F04105460C46FA
:10521000E06870BBA068052829D2DFE800F003141D
:10522000151C220060681FF053FD06460022D34B78
:105230001FF0E2FE04D2D44860600020206101E04B
:105240000120206114E013E04FF47A716068B0FB34
:10525000F1F060600CE064216068B0FBF1F0606028
:1052600006E00A216068B0FBF1F0606000E000BF7A
:1052700046E0FFE7A06806283ED2DFE800F0031012
:1052800018192632C0496068884202D90846606011
:1052900004E04FF47A716068484360602FE0606812
:1052A00020B10A216068B0FBF1F0606027E026E0E1
:1052B00042F210716068884201D9084660606068F7
:1052C00000EB80004000606019E06068B0F57A7F14
:1052D00002D94FF47A70606064216068484360606E
:1052E0000DE06068642801D9642060604FF47A7131
:1052F00060684843606002E0A448606000BF00BF8F
:105300001C222146284616F099F8BDE8F0812DE9C7
:10531000F34F83B08A4642F20F71DAF804008842F4
:1053200009D90A21DAF80400B0FBF1F0CAF8040048
:105330000420CAF808004FF47A71DAF8040000FB80
:1053400001FBDAF80810C1F104001FF0C1FC0246AD
:105350000B46CDE9000100208D491EF06DFC04468E
:105360000D4658461FF0B4FC064622462B461FF059
:10537000A7FA80461FF068FC83464EF660208345FE
:1053800000D9834642F21070834508D90220CAF83A
:1053900008000A20BBFBF0F0CAF8040004E0032078
:1053A000CAF80800CAF804B0CAF818B01C2251465E
:1053B000039816F043F805B0BDE8F08F2DE9F05FD3
:1053C00082460C460020E060A06820F0EFF983469A
:1053D00020F024F807463A460B4600206C491EF0A0
:1053E0002BFC05461FF030FC81466068B0FBF9F9E4
:1053F000B9F1640F01D90220A0601C222146504659
:1054000016F01CF8BDE8F09F08B562483723282243
:105410005C2100903C20FBF71AFF5F4837232822CD
:105420005C2100906420FBF712FF5C4837232822A0
:10543000932100903C20FBF70AFF5748372328228E
:10544000932100906420FBF702FF08BD10B50024F3
:105450000BE004EBC400C0EB841000F16E0150A21D
:105460008C20FCF7A8F8601CC4B2032CF1DB10BD43
:1054700008B54D484D4948604848372328226E21D9
:1054800000906420FBF7E3FE4948372328226E2171
:1054900000904FF49670FBF7DAFE46483723282237
:1054A0006E2100904FF4AA70FBF7D1FE42483723DB
:1054B0002822A52100906420FBF7C9FE3E4837232F
:1054C0002822A52100904FF4AA70FBF7C0FE3B48AC
:1054D00037232822DC2100906420FBF7B8FE3848EF
:1054E00037232822DC2100904FF4AA70FBF7AFFE8F
:1054F00008BD08B5014633480078022806DC88B2AA
:10550000ADF8000002208DF8020008E088B2ADF886
:10551000000003208DF8020001208DF803000098A0
:1055200008BD10B50446284901EB4411274A1278FA
:1055300001EB0210F222B42119F05AFA10BD38B56D
:1055400004466FF07F4019F0BCFD204890F83530DC
:1055500090F836201E491F4815F07AFC1A22642163
:105560001C4819F045FA194991F8361001EB8102EF
:105570001649383151F83210174A2FE0006AF840C6
:105580000088C34000408F40A086010040420F00C9
:1055900000002440817E0200997F020080A7020063
:1055A0002D2D2D2D2D0000003366CC001400001091
:1055B00018B002009DB7020022BF020035C00200F1
:1055C00048C10200EB00001014C70200D80F001001
:1055D000042B00008C0F0010A404030002EBC10098
:1055E0001A224FF48C7119F003FAFA4819F05EFD93
:1055F000F94819F066FD002019F0B2FDF74819F0DE
:1056000071FDF74890F8360000EB8001F44838301F
:1056100050F8310004280FD0012C07D1F1490023A4
:10562000042208680321FCF7E3F805E000230422C4
:1056300003211846FCF7DCF878225A21EA4819F0D1
:10564000D7F9E74890F8360000EB8001E44838309D
:1056500050F83100052875D2DFE800F0030465A694
:10566000E10000BF012C41D1DE4840684FF6FF71D8
:10567000884206D1DC48DD490A6802608988818059
:105680003AE0D748C08D01281CD1D6484268D4489A
:1056900090F83610491E00F5FD7030F81100824276
:1056A00003D20020CF4948600CE0CE484268CC4885
:1056B00090F83610491E00F5FD7030F81100101AF0
:1056C000C8494860CA480078012807D1C549002365
:1056D000042248680321FCF78BF80DE0C149002340
:1056E000042248680221FCF783F805E00023042225
:1056F00003211846FCF77CF8B64819F0E2FCE823D1
:10570000F022AA215A2019F053FAB34819F0D9FC13
:10571000AA225A21B44819F06BF9AA22F021B5A0A7
:1057200019F066F97DE0012C32D1AE484068B349EA
:10573000884208D1AC48AD4914310A680260496812
:1057400041602BE06CE0A7494868FCF746FE0090FA
:105750009DF80210BDF8000000230422FCF748F871
:105760009C4819F0AEFCE823F022AA215A2019F037
:105770001FFA994819F0A5FC9DF8031001EB4101AF
:105780009F4A02EB4100AA22F02119F031F905E00D
:105790000023032201211846FCF72AF8AA225A21E5
:1057A000914819F025F93CE0012C1BD18D48406847
:1057B0004FF6FF71884207D18B488C4914310A6833
:1057C00002604968416013E086494868FFF791FE2E
:1057D00000909DF80210BDF8000000230422FCF7A1
:1057E00007F805E00023042203211846FCF700F81F
:1057F000784819F066FCE823F022AA215A2019F013
:10580000D7F9754819F05DFCAA225A21764819F09B
:10581000EFF8AA22F0217B4819F0EAF801E000E055
:1058200000BF00BF784819F05DFC012C07D16D491D
:105830000889002304220121FBF7DAFF05E0002399
:10584000042201211846FBF7D3FFF32254216648B6
:1058500019F0CEF86D490878FFF763FE38BD30B512
:1058600085B004460D466AA003C8CDE903016AA1CC
:1058700003C9CDE9010103A8005D40F213114843BB
:1058800067490844372328225C2100904FF4BE70FA
:10589000FBF7DDFC01A8405D40F21311484360496D
:1058A0000844372328225C2100904FF4D270FBF784
:1058B000CEFC05B030BD30B585B004460D4654A0D1
:1058C00003C8CDE9030154A103C9CDE9010103A82F
:1058D000005D40F213114843514908443723282200
:1058E000932100904FF4BE70FBF7B1FC01A8405D1E
:1058F00040F2131148434A49084437232822932190
:1059000000904FF4D270FBF7A2FC05B030BD10B58B
:1059100086B0142101A815F0CBFD42480068009024
:10592000002409E01DF804103F480BF09FF9012006
:1059300002F077F8601CC4B2032CF3DB06B010BD94
:1059400038B50446234839494860394800EB840299
:105950000123C8211420FBF779FE364800EB8402AE
:105960000123C8214FF48C70FBF770FE43F6AC1096
:105970002E4948603048372328227A210090502051
:10598000FBF765FC2D48372328227A2100907820E8
:10599000FBF75DFC2A48372328227A2100908C20CF
:1059A000FBF755FC38BD70B504460D4604EB4400CA
:1059B0001449C91E42180123C8218020FBF746FE66
:1059C00005EB45001F4942180123C8218820FBF739
:1059D0003DFE70BD3366CC00FFFF800004B60300BF
:1059E000D80F0010240300108C0F00109426000024
:1059F000EB0000106D41202000000000F6FF0900C0
:105A0000F31F030026210300A45B03001401001010
:105A10000C0F1011160E0D00121314020B171600A6
:105A200021A20200A025030000C0004014000010C5
:105A3000B70D0300130E0300A6A90200E9BB020084
:105A4000FCBC02005021030070B504460D4604EB77
:105A50004400FE4942180023C8214FF4C270FBF7EE
:105A6000F5FD05EB4500FA4942180023C8214FF423
:105A7000C670FBF7EBFD70BD10B5002421E0012CD2
:105A800001DD072C01DB082C04DD43F6AC10F149E5
:105A9000486002E0F048EF494860F04951F82400BE
:105AA000002306221946FBF7A3FEC4EB041000F105
:105AB0003A010123EA4A4FF4A270FBF734FE601C5E
:105AC000C4B20B2CDBDB10BD2DE9F04104460D46C2
:105AD0001646E44B1B5D03EB4303DD4FDA19B1B20D
