:020000040002F8
:10000000E8330010BDDF0300C5DF0300C7DF0300D6
:10001000C9DF0300CBDF0300CDDF030000000000D9
:10002000000000000000000000000000CFDF03001F
:10003000D1DF030000000000D3DF0300C9B90200D4
:10004000D7DF0300DF07020073080200AF080200D9
:10005000C1080200FD0E0400D7DF0300D7DF030054
:10006000150F0400D7DF0300D7DF0300D7DF03003D
:10007000D7DF0300D7DF0300D7DF0300D7DF03009C
:10008000D7DF0300D7DF0300D7DF0300D7DF03008C
:10009000D7DF0300D7DF0300D7DF0300D7DF03007C
:1000A000A13A0400D7DF0300D7DF0300D7DF030046
:1000B000D7DF0300D7DF0300D7DF0300D7DF03005C
:1000C000D7DF0300D7DF0300D7DF0300D7DF03004C
:1000D000D7DF0300D7DF030097050200D7DF030057
:1000E000D7DF030000F002F800F076F80AA090E8ED
:1000F000000C82448344AAF10107DA4501D100F0E3
:100100006BF8AFF2090EBAE80F0013F0010F18BF39
:10011000FB1A43F001031847302105005021050068
:100120000A444FF0000C10F8013B13F0070408BF1D
:1001300010F8014B1D1108BF10F8015B641E05D0BB
:1001400010F8016B641E01F8016BF9D113F0080F70
:100150001EBF10F8014BAD1C0C1B09D16D1E58BF02
:1001600001F801CBFAD505E014F8016B01F8016B39
:100170006D1EF9D59142D6D37047000000230024AC
:1001800000250026103A28BF78C1FBD8520728BFA7
:1001900030C148BF0B607047662932F0348667294A
:1001A00032F03186642928F0B383732929F09581D0
:1001B000002070471FB528F0D3FE04000020002166
:1001C00031F0D6FB401C60600020002131F0E6FBDE
:1001D000E0601FBD10B510BD29F0B8FC1146FFF757
:1001E000E9FF00F023F929F029FF03B4FFF7F2FF3C
:1001F00003BC29F02DFF000040F201208249086075
:100200008249C1F88401804908310860091D0860ED
:10021000091D0860091D0860091D0860091D0860A6
:10022000091D0860091D0860091D0860091D086096
:10023000091D0860091D0860091D0860091D086086
:10024000714980310860091D0860091D0860091D99
:100250000860091D0860091D0860091D0860091D66
:100260000860091D0860091D0860091D0860091D56
:100270000860091D0860091D0860091D08606249C1
:10028000D4310860091D0860091D08605E494439C1
:1002900008605D49E4310860091F08605A49E83187
:1002A0000860594940390860091D0860091D086047
:1002B000554930390860544920390860524910398D
:1002C0000860091D086070472DE9F04100BF00BFBC
:1002D0004F48006840F400604D49C439C1F8C4007B
:1002E00041F61F704B49086001204B49086000200F
:1002F0008860FFF781FF494800684949B0FBF1F782
:100300004348C438D0F8000100B17F084FF47A7038
:10031000B0FBF7F404F11300B0FBF4F03E490863BE
:100320000F204863002088630120C86304F1130094
:10033000B0FBF4F0801C08640120486404F13E0026
:10034000B0FBF4F0886404F13E00B0FBF4F0C86444
:100350000F20086504F13E00B0FBF4F04865012071
:100360008865886240F203302E4908604FF4D060FF
:100370002949C1F800016421012000F0B2F940F2DE
:10038000831025490862C821012000F0AAF940F233
:1003900003102149086202204862002600E0761C12
:1003A000802EFCD341F68465A5F1100085B22D1195
:1003B00005FB07F04FF47A71B0FBF1F085B21648F7
:1003C00045628320144908621748058800200862A6
:1003D0001448001F006840F40020C1F8000101210A
:1003E000084600F07EF90121084600F07AF9094834
:1003F000006820F01F0848F011000549C439C1F811
:10040000DC01BDE8F081000080C1024000C0024074
:10041000C4C00F40DCC10F4000C009207C010010A7
:1004200040420F0004C10920003003A000201EF04C
:1004300006FA044600206B4908601D200121814016
:100440004209920002F1E022C2F8001100BF62B638
:100450006548B4FBF0F0411EB1F1807F00D31DE090
:1004600021F07F40401E4FF0E022506150171F22C4
:10047000002807DAD3061E0E5C4B00F00F052D1F77
:100480005E5503E0D3061D0E594B1D5400BF0020DE
:100490004FF0E02290610720106100BF21F034FA94
:1004A00002205449086000205349088053490870CD
:1004B000534908703CE04F480068801E182835D228
:1004C000DFE800F00C3412150F30343418341B34CC
:1004D00034342124272A2D34341E34310BF034FDDA
:1004E00025E00CF005F922E00DF05EFA1FE00DF0BA
:1004F000A7FA1CE01BF0DBFC19E018F0B5FA16E0D7
:1005000019F0C2FD13E018F060FA10E00BF02EFEB7
:100510000DE00CF035F80AE00CF09EF807E017F05B
:1005200028FE04E003E019F061FD00E000BF00BF19
:10053000C1E72DE9F041012132A022F0AFFE0746CC
:10054000002F25DD4FF47A6231480168384622F0E9
:1005500085FF02212FA022F0A1FE0446002C11DD10
:10056000002500BF4FF47A6229480168204623F035
:10057000DFF8064635442A488542F3D3204623F067
:100580006EF901E0BDE8F081384623F068F900E03B
:10059000F8E700BFF6E710B50022062110461DF06F
:1005A000B8FF30B109201F490860402100201DF02C
:1005B000DBFF0022052110461DF0ABFF30B10C20FF
:1005C00018490860202100201DF0CEFF00220721DD
:1005D00010461DF09EFF18B1802100201DF0C4FFC1
:1005E00010BD0000D0000010A086010018ED00E052
:1005F00000E400E0240100101C0100101E010010A6
:100600001F0100104D53524541442E5458540000D0
:10061000100200105A43353532302E545854000021
:10062000809698002801001010B5FE4890F89E00B2
:10063000FD490860FB4890F89E000860F94890F872
:100640009E00086008460068072802D9084600682E
:100650000860F44890F89E00F34908600846006876
:10066000082803D108460068401C0860EF4800686D
:10067000EF49096888421DD0ED480068EB490860E1
:10068000EC480078002804DDEA480078401EE9497B
:100690000870E848007820B9E24890F89E000028E9
:1006A00009DCE448007820B9DE4890F89E0000B9E3
:1006B00010BDFDE7FCE7DB4890F89E00042800DA57
:1006C00009E0D8480478DC48807BA04200D002E0F2
:1006D00020F0D1FF00BF0020D24981F89E0000BF6A
:1006E000E6E7F8B902224FF040235A600022DA60B0
:1006F000D24A12684FF47A73B2FBF3F2521E4A43A5
:100700004FF040239A61FF221A6004225A610122AD
:100710005A6000BF4FF04022526802F00102002AE6
:10072000F8D15BE001281CD10222C54B5A6000229F
:10073000DA60C24A12684FF47A73B2FBF3F2521EC7
:100740004A43BF4B9A61FF221A6004225A61012278
:100750005A6000BFBA4A526802F00102002AF9D179
:100760003CE002281CD10222B64B5A600022DA601B
:10077000B24A12684FF47A73B2FBF3F2521E4A4344
:10078000B04B9A61FF221A6004225A6101225A601A
:1007900000BFAC4A526802F00102002AF9D11DE004
:1007A00003281BD10222A84B5A600022DA60A34A18
:1007B00012684FF47A73B2FBF3F2521E4A43A24B13
:1007C0009A61FF221A6004225A6101225A6000BF16
:1007D0009D4A526802F00102002AF9D1704710B513
:1007E00001204FF04021086098480068062813D186
:1007F00097480078401C96490870084600780928F8
:1008000010DD00200870012092490870924800898C
:10081000401C9149088105E08D48007810B1002006
:100820008B4908708448407B88B98C480078401C0C
:100830008A49087008460078092808DD00200870F9
:100840007B480068401C7A490860FFF7EDFE0024F1
:100850000CE0834850F8240030B1814850F824005F
:10086000401E7F4941F82400601CC4B2062CF0DB16
:1008700010BD10B50120724908607A480078401C0C
:10088000784908707148006806280FD1084600783A
:100890000A2802D10BF025F908E0724800781428E4
:1008A00004DB00206F4908700BF021F910BD012016
:1008B000644908606C480068401C6B4908607047D8
:1008C00001206149086069480068401C6749086068
:1008D000704720B901214FF04022516010E00128FB
:1008E00003D10121564A51600AE0022803D10121B7
:1008F000544A516004E0032802D10121524A516058
:10090000704720B900214FF04022516010E00128CB
:1009100003D100214A4A51600AE0022803D1002194
:10092000484A516004E0032802D10021454A516041
:100930007047014631B94FF04022506840F0020044
:10094000506016E0012905D13D4A506840F0020090
:1009500050600EE0022905D13A4A506840F002008A
:10096000506006E0032904D1374A506840F0020085
:100970005060704770B505460C46F5B900203C49FB
:1009800008603C48006840F002003A49C439C1F8A8
:10099000C4004FF04020406840F002004FF040217A
:1009A00048604DF20B50C8600846846103204861DE
:1009B000012000F07CF8012070BD012D1CD1002029
:1009C0002D4908602B48006840F004002949C439CB
:1009D000C1F8C4001A48406840F002001849486055
:1009E0004EF65F20C86008468461032048610220FB
:1009F00000F05DF80120DFE7022D3FD100201A4909
:100A000008601C48006840F480001A49C439C1F8E5
:100A1000C4000C48846103200A49486100F047F88B
:100A20000120C9E7D12200101C00001014000010A2
:100A30001000001094010010C00F00108001001081
:100A400000800040000009400040094024010010DF
:100A500020000010FE0000103403001021000010E0
:100A6000940B001022000010080000100C00001071
:100A700000000010C4C00F4004000010032D14D16A
:100A80000020104908601048006840F400000E493A
:100A9000C439C1F8C4000D48846103200B49486182
:100AA000042000F004F8012086E7002084E700F02D
:100AB0001F02012191404209920002F1E022C2F896
:100AC000001170470C000010C4C00F4000400940E6
:100AD00008B5B0B1F949896941F00101F74A91615E
:100AE00042F21071009108E0F449896941F4006113
:100AF000F24A91610099491E009100990029F3D1B1
:100B000015E0EE49896921F40061EC4A916142F2F5
:100B10001071009102E00099491E0091009900298E
:100B2000F9D1E649896921F00101E44A916108BDE2
:100B3000E34A002102E008C808C2491C8029FAD310
:100B4000704750B506460C4600BF2720DD490860B7
:100B5000DD49C1F81801DD490860091D0860091D5B
:100B60000860DA494C390860091D0860091D0860F1
:100B7000091D0860091D0860091D0860D349183166
:100B80000860D24934390860091D0860091D0860F1
:100B9000091D0860CD4914390860CC49083908603E
:100BA000CA4910390860C849C1F81001C848006A2C
:100BB00040F00200C64908620846806B40F004001D
:100BC00088630846006840F00200086008468069B3
:100BD00040F02A008861BF48D0F8C40040F001000E
:100BE000BC49C1F8C400BC48006820F00100BA4903
:100BF00008600020B14988610846806920F00E0035
:100C000088610846806940F00C0088610846806968
:100C100040F0200088610846806920F080008861EB
:100C20000846806920F4807088610846806920F455
:100C3000007088610846806920F4806088610846F9
:100C4000806920F400608861A4480068A449B0FB72
:100C5000F1F0A049C1F8B8019848806840F0806080
:100C6000964988600846806820F020008860084621
:100C7000806840F4006088600846806840F48050D6
:100C800088600846806820F40050886008468068C4
:100C900020F480408860084680689249084087496F
:100CA000886008468068904908438449886000202D
:100CB00008600846006840F01C500860084600685C
:100CC00040F4802008600846006840F480700860A6
:100CD0000846006840F0740008600020486008463C
:100CE000406840F0006048600846406840F40020DA
:100CF00048600846406840F48060486008464068A4
:100D000040F20F1108436D49486078480861486116
:100D100014B12046FFF70CFF50BD744A002102E0D9
:100D200022F8020B491CB1F5FF3FF9D3704730B5EB
:100D30006E4BB0F5F07F02DAB1F5887F00DB30BD95
:100D4000C1EB011500EB451403EB44031A8000BF0F
:100D5000F5E72DE9F04F04460D4691469A46DDF839
:100D600024B04C4503DD0FFA89F7A146BCB25545C6
:100D700003DD0FFA8AF7AA46BDB2A9EB04000FFA09
:100D800080F8AAEB050006B2B8F1000F0BD100BF46
:100D90005A4629462046FFF7CAFF681C85B2AA4575
:100DA000F6DABDE8F08F56B900BF5A46294620460C
:100DB000FFF7BDFF601C84B2A145F6DAF1E7B0454C
:100DC00021DDC8EB460007B215E05A462946204609
:100DD000FFF7ADFF601C84B2002F08DD681C85B2F0
:100DE0007000022101FB1800384407B203E0022022
:100DF00000FB067007B24C45E7D15A46294620460B
:100E0000FFF795FF20E0C6EB480007B215E05A4611
:100E100029462046FFF78BFF681C85B2002F08DDAE
:100E2000601C84B27000022101FB1800384407B234
:100E300003E0022000FB067007B25545E7D15A4691
:100E400029462046FFF773FF00BFAAE72DE9F841C6
:100E500005460E4617469846079CA0B233463A46CA
:100E6000314600902846FFF774FFA0B243463A4649
:100E7000414600902846FFF76CFFA0B243462A4641
:100E8000314600902846FFF764FFA0B243463A4639
:100E9000314600903846FFF75CFFBDE8F8812DE948
:100EA000F0411C46069FC1EB011CDFF8408008EBB7
:100EB0008C1C0CEB400300262AE000000080082078
:100EC0000082082074C2024000C002401CC10240DF
:100ED0000080092000C00F40008C08208001001015
:100EE0009C997400FFFF00FC0000DF01000001A0DE
:100EF000002502E023F8027B6D1CA2EB000CAC4540
:100F0000F8D8A2EB000CCCF5F07C03EB4C03761C7C
:100F1000A4EB010CB445EBD8BDE8F0812DE9F04716
:100F200004460D461746784200214FEA4708C8F1AB
:100F30000202F94E00BFA4EB000805EB01094FF4D3
:100F4000F07A0AFB098846F8283004EB000805EB24
:100F500001090AFB098846F8283004EB0008A5EBD4
:100F600001090AFB098846F82830A4EB0008A5EB24
:100F700001090AFB098846F8283094468C450DDCA7
:100F800001F1010841464FF0010909EB48084244CC
:100F9000C84203D1844501DC4FF0000C844507DDD5
:100FA00000F1010840464FF0010909EB48084244AE
:100FB0000028C0DDBDE8F08770B505460E46144632
:100FC000A2B231462846FFF7B2FE70BD2DE9FF5FA1
:100FD00006460F4690469946DDF838B041466846C9
:100FE00000F0A8FC00241DE01DF804A0002516E078
:100FF000C5F107004AFA00F000F0010038B13A19D3
:1010000091B2721990B24A46FFF791FE06E03A1982
:1010100091B2721990B25A46FFF789FE6D1C082DE5
:10102000E6D3641C102CDFD3BDE8FF9F2DE9FE4FF3
:1010300006460F4690469946DDF830B04146684670
:1010400000F085FC002415E01DF804A000250EE04A
:10105000C5F107004AFA00F000F0010030B13A197A
:1010600091B2721990B24A46FFF761FE6D1C082DCD
:10107000EED3641C0C2CE7D3BDE8FE8F2DE9F843BA
:1010800005460E4614469846DDF8209000BF14F839
:10109000017B43463A4631462846CDF80090FFF79B
:1010A00095FFB5F5EC7F03DA05F1080085B208E09D
:1010B000FF2E04DC002506F1100086B201E00025B9
:1010C000002620780028E2D1BDE8F8832DE9FF4F03
:1010D000074688469B463C464546BA4646464FF03C
:1010E000000915E0A4F1140188B22946029AFFF71D
:1010F0001EFE601C84B2A6F1140081B25046029A12
:10110000FFF715FE701C86B209F101001FFA80F985
:10111000B9F1280FE6DB3C464546BA4646464FF055
:1011200000092BE0A5F1140291B2A4F1140290B2CF
:101130005A46FFF7FCFD05F1140291B2A4F1140226
:1011400090B25A46FFF7F3FD601C84B2A6F1140278
:1011500091B2AAF1140290B25A46FFF7E8FDA6F147
:10116000140291B20AF1140290B25A46FFF7DFFD61
:10117000701C86B209F101001FFA80F9B9F10A0F5B
:10118000D0DB3C464546BA4646464FF000092BE0C8
:10119000A5F1140291B204F10A0290B25A46FFF787
:1011A000C6FD05F1140291B204F10A0290B25A464A
:1011B000FFF7BDFD601C84B206F10A0291B2AAF1EC
:1011C000140290B25A46FFF7B2FD06F10A0291B23C
:1011D0000AF1140290B25A46FFF7A9FD701C86B2BC
:1011E00009F101001FFA80F9B9F10A0FD0DBBDE85F
:1011F000FF8F10B50246002112E001EB8110474B32
:10120000185C1378984209D1507801EB8113434C54
:1012100023445B78984201D1084610BD481C81B236
:101220000029EAD00020F8E710B50246002114E0BA
:1012300001EB01103A4B13F81000137898420AD1D1
:10124000507801EB0113364C04EB43035B78984272
:1012500001D1084610BD481C81B2B229E8D3002054
:10126000F8E72DE9F04F04460F4615469846A34689
:101270004FF0000900262FE0099810F806904FF073
:10128000000A23E009F0800038B12648008882B2C5
:1012900039462046FFF74BFD06E02248808882B29F
:1012A00039462046FFF743FD4FEA49604FEA10698F
:1012B000601C84B2A4EB0B00A84203D15C46781CEE
:1012C00087B206E00AF1010000F0FF0ABAF1080F48
:1012D000D8DB00BF701C86B205FB08F0C11700EB1D
:1012E0005171B6EBE10FC7DBBDE8F08F2DE9F04F90
:1012F0000546894692469B46A8460026BBF1000F4C
:101300003CD1002437E00AEB0A10054901EB40000C
:10131000801C065D002729E0000001A0062F0500C3
:10132000472F05002400001006F0800038B1FD486A
:10133000008882B249462846FFF7F9FC06E0F948E2
:10134000808882B249462846FFF7F1FC7006060EF7
:10135000681C85B2A5EB0800102805D1454609F1A7
:1013600001001FFA80F903E0781CC7B2082FDBDB0D
:1013700000BF601CC4B2202CC5DB33E000242FE08A
:101380000AEB0A10E84901EB4000801C065D0027CB
:1013900021E006F0800038B1E248808882B24946F8
:1013A0002846FFF7C4FC06E0DE48008882B24946C2
:1013B0002846FFF7BCFC7006060E681C85B2A5EB3C
:1013C0000800102805D1454609F101001FFA80F9EF
:1013D00003E0781CC7B2082FDBDB00BF601CC4B27F
:1013E000202CCDDBBDE8F08F2DE9F04F0546894676
:1013F00092469B46A8460026BBF1000F33D100243D
:101400002EE00AEB8A10C9490844801C065D0027BB
:1014100021E006F0800038B1C248008882B2494617
:101420002846FFF784FC06E0BE48808882B2494621
:101430002846FFF77CFC7006060E681C85B2A5EBFB
:101440000800182805D1454609F101001FFA80F966
:1014500003E0781CC7B2082FDBDB00BF601CC4B2FE
:101460003F2CCEDB32E000242EE00AEB8A10AF499D
:101470000844801C065D002721E006F0800038B19A
:10148000A848808882B249462846FFF750FC06E00B
:10149000A448008882B249462846FFF748FC7006F7
:1014A000060E681C85B2A5EB0800182805D1454634
:1014B00009F101001FFA80F903E0781CC7B2082F78
:1014C000DBDB00BF601CC4B23F2CCEDBBDE8F08F7D
:1014D000F0B504460D4616461F463B4622463146A9
:1014E0002846FFF781FF1820F0BDF0B504460D46F1
:1014F00016461F463B46224631462846FFF7F6FE73
:101500001220F0BD2DE9F84306460D4614461F464D
:101510004FF00008C14654E0207800B952E006EBD5
:10152000090086B2207880281ADD06F11800B0F58F
:10153000F07F07DD002605F1160085B2B5F5887F3E
:1015400000DD00252046FFF754FE1FFA80F83B46D9
:101550002A4631464046FFF7BBFF8146A41C2FE0D8
:1015600020780D280AD105F1160085B2B5F5887FDF
:1015700000DD0025641C4FF0000922E020780A28D5
:1015800004D10026641C4FF000091AE006F10C009B
:10159000B0F5F07F07DD002605F10C0085B2B5F54A
:1015A000887F00DD00255F48808880B200905D481C
:1015B000008883B2227829463046FFF707FD641C75
:1015C00000BFA9E700BFBDE8F8832DE9F843054651
:1015D0008846144600263FE0207800B93DE0207898
:1015E000302807DB2078392804DC207830381FFACF
:1015F00080F919E020782E2802D14FF00A0913E073
:1016000020782D2802D14FF00B090DE020782028FA
:1016100002D14FF00C0907E02078562802D14FF094
:101620000D0901E04FF00E094FEA4917F81707EBD3
:101630005070C01000EBC001C1EB80103C49084461
:10164000A919009088B2372320224146FFF709FEEE
:10165000641C06F1200086B2BEE700BFBDE8F88337
:101660002DE9F84306460D4614461F464FF0000884
:10167000C14656E0207800B95CE006EB090086B26E
:10168000207880281ADD06F11000B0F5F07F07DD24
:10169000002605F1100085B2B5F5887F00DD002534
:1016A0002046FFF7C1FD1FFA80F83B462A46314627
:1016B0004046FFF71AFF8146A41C31E020780D2830
:1016C0000AD105F1100085B2B5F5887F00DD00254F
:1016D000641C4FF0000924E020780A2804D1002679
:1016E000641C4FF000091CE006F10800B0F5F07F23
:1016F00007DD002605F1100085B2B5F5887F00DD15
:1017000000250848808880B200900648008883B28F
:10171000227829463046FFF759FC641C4FF00A092D
:1017200000BFA7E724000010472F0500062F050083
:10173000FB67050000BFBDE8F8832DE9F8430646C6
:101740000D4614461F464FF00008C14656E020786B
:1017500000B954E006EB090086B2207880281ADD33
:1017600006F11000B0F5F07F07DD002605F110004E
:1017700085B2B5F5887F00DD00252046FFF754FDD2
:101780001FFA80F83B462A4631464046FFF7ADFE39
:101790008146A41C31E020780D280AD105F1100003
:1017A00085B2B5F5887F00DD0025641C4FF0000987
:1017B00024E020780A2804D10026641C4FF0000998
:1017C0001CE006F10800B0F5F07F07DD002605F10A
:1017D000080085B2B5F5887F00DD00255248808875
:1017E00080B200905048008883B222782946304663
:1017F000FFF71CFC641C4FF0080900BFA7E700BFFF
:10180000BDE8F883F0B504461D46062A00DD0A222D
:1018100002B90122052900DD0521914200DD1146B2
:10182000002004E02026414F3E54461CF0B20C2814
:10183000F8D310460FE00A26B4FBF6F706FB17466E
:101840003036471EDFF8E4C00CF807600A26B4FB08
:10185000F6F4461EF0B20028EDDC89B113460846C6
:1018600005E05E1E314FBE5DFE545E1EF3B2061EE5
:10187000A0F10107F8B2F4D12E262C4FFE5402E05D
:1018800020262A4FBE54A5B900200EE0274E365C14
:10189000302E07D1254F461CBE5D2E2E02D02026AD
:1018A0003E5400E004E0461CF0B2561E8642EDDCD9
:1018B00000BF561CF2B2104604E000261B4F3E54F7
:1018C000461CF0B20C28F8D3F0BD30B5184A002100
:1018D0000BE08478457844EA0524057844EA05431A
:1018E00008C2401C401C401C491CB1F5FF3FF0D30E
:1018F00030BD70B50E4B002112E000220CE00578DF
:101900002D04467845EA0625867845EA060410C384
:10191000401C401C401C521CB2F5F07FEFD3491C08
:10192000B1F5887FE9D370BD24000010740F00105A
:10193000000001A070B505460C46A4F120000B4A3A
:1019400002EB00111022284627F0D1F970BDA1F159
:10195000200202EB4202064B03EB82021368036093
:10196000536843609268826070470000EB46050050
:10197000DB4C05003EB5054642F669202AF025FD00
:1019800000241DE0F74841000322CDE90021029028
:10199000601C00EB4000042202EB0010062202FB58
:1019A000040304EB4400042202EB0010062202FBB5
:1019B00004014FF4EE724FF4BE702AF0DBF9641CA0
:1019C000052CDFD33EBD10B542F66920E6494860DC
:1019D0004FF6FF7008600023E4A2F1215420FFF7C6
:1019E0003FFE0023E3A2F121A420FFF739FE10BD42
:1019F00070B5054642F66920DB4948604FF6FF7036
:101A00000860A5B900240FE004EB4401DB4B03EBB5
:101A1000410204EB8401542303EB01100023F12164
:101A2000FFF71EFE601CC4B2052CEDDB14E00024A1
:101A300010E0611D01EB4101D04B03EB410204EBCF
:101A40008401542303EB01100023F121FFF708FE6A
:101A5000601CC4B2052CECDB70BD10B542F66920E9
:101A6000C14948604FF6FF7008600023C4A2F1210D
:101A70005420FFF7F5FD10BD10B542F66920BA49B4
:101A800048604FF6FF7008600023C0A2F121542087
:101A9000FFF7E6FD10BD10B50446002C39D14FF616
:101AA000FF70B149086042F6692048600023B8A27F
:101AB000E7215420FFF7D4FD0023B7A2FB215420D7
:101AC000FFF7CEFD0023B2A2E721A420FFF7C8FD57
:101AD0000023B3A2FB21A420FFF7C2FD0023B2A282
:101AE000E721F420FFF7BCFD0023ADA2FB21F42089
:101AF000FFF7B6FD0023ACA2E7214FF4A270FFF779
:101B0000AFFD0023AAA2FB214FF4A270FFF7A8FDAE
:101B10002EE0012C2CD14FF6FF709349086042F65D
:101B2000692048600023A4A2E7215420FFF798FD14
:101B30000023A3A2FB215420FFF792FD0023A2A2C1
:101B4000E721A420FFF78CFD0023A1A2FB21A42004
:101B5000FFF786FD0023A0A2E7214FF4CA70FFF72C
:101B60007FFD00239EA2FB214FF4CA70FFF778FD92
:101B700010BD10B54FF6FF707B49086042F6692032
:101B80004860002398A2E7215420FFF769FD002355
:101B900097A2FB215420FFF763FD002396A2F121B9
:101BA0004FF4A270FFF75CFD002396A2F1214FF4E1
:101BB000CA70FFF755FD10BD10B504460CB1012CDD
:101BC00033D14FF6FF706849086042F669204860DB
:101BD00000238FA2F1215420FFF742FD00238FA2A2
:101BE000E721A420FFF73CFD00238EA2FB21A420C7
:101BF000FFF736FD00238DA2E721F420FFF730FD2B
:101C0000002388A2FB21F420FFF72AFD00237AA2FB
:101C1000F1214FF4A270FFF723FD002379A2F121F7
:101C20004FF4CA70FFF71CFD26E04FF6FF704E49D7
:101C3000086042F669204860002375A2F121542013
:101C4000FFF70EFD002377A2E721A420FFF708FD90
:101C5000002378A2FB21A420FFF702FD002366A247
:101C6000F1214FF4A270FFF7FBFC002365A2F121E4
:101C70004FF4CA70FFF7F4FC10BD10B50446002CF9
:101C800039D14FF6FF703849086042F66920486044
:101C900000233FA2E7215420FFF7E2FC00233EA2ED
:101CA000FB215420FFF7DCFC002339A2E721A4200C
:101CB000FFF7D6FC00233AA2FB21A420FFF7D0FCBB
:101CC000002339A2E721F420FFF7CAFC002334A245
:101CD000FB21F420FFF7C4FC002333A2E7214FF4DB
:101CE000A270FFF7BDFC002331A2FB214FF4A270CC
:101CF000FFF7B6FC34E0012C32D14FF6FF701A49E1
:101D0000086042F66920486000232BA2E721542096
:101D1000FFF7A6FC00232AA2FB215420FFF7A0FC1A
:101D2000002321A2E721A420FFF79AFC00231CA294
:101D3000FB21A420FFF794FC002340A2F121F42012
:101D4000FFF78EFC002324A2E7214FF4CA70FFF7AF
:101D500087FC002322A2FB214FF4CA70FFF780FC0E
:101D600010BD00004040400024000010206DCEA9AE
:101D70002020000020CEA92000000000150406004D
:101D800020E7A1AEE8AEA420000000002A31000048
:101D9000E6B58BE9878F0000E698BEE7A4BA00009D
:101DA000E8AEBEE7BDAE0000E7B3BBE7BB9F0000F7
:101DB000E4BFA1E681AF0000E69687E4BBB6000071
:101DC000E7AEA1E790860000E4BF9DE5AD98000076
:101DD000E695B0E68DAE0000E69BB4E5A49A00005F
:101DE00020322F3200000000E6B885E999A40000F7
:101DF000E8A1A8E6A0BC0000E4B88AE4B880E9A1A4
:101E0000B5000000E4B88BE4B880E9A1B50000009B
:101E1000E588A0E999A4E8A18C000000E7BABFE634
:101E200080A70000E887AAE58AA80000E5AFB9E628
:101E300095B00000E5A48DE588B60000E5B7A5E5FE
:101E400085B7000010B54FF6FF70FD49086042F6F7
:101E5000692048600023AFF2C802E7215420FFF751
:101E6000FFFB0023AFF2D002FB215420FFF7F8FB69
:101E70000023AFF2E402E721A420FFF7F1FB0023E7
:101E8000AFF2E402FB21A420FFF7EAFB0023AFF24C
:101E9000E802E721F420FFF7E3FB0023AFF2001292
:101EA000FB21F420FFF7DCFB0023AFF20412E72153
:101EB0004FF4A270FFF7D4FB0023AFF20C12FB210A
:101EC0004FF4A270FFF7CCFB10BD38B504460020DC
:101ED000182340F2E11201460090FEF7E0FF0020D7
:101EE000D74948604FF6FF7008600023D5A2032150
:101EF0000420FFF7B5FB38BD08B543F6AC102AF057
:101F000064FA0520FD234FF4BA725C21009004208E
:101F100029F0FEFF08BD10B504464AF2FF502AF032
:101F200054FACA482AF062FA1823C022002108464F
:101F300029F0C2FF00202AF048FA02202AF094FA81
:101F4000C34901EB4411C34A127801EB021002228B
:101F5000002129F0D1FE10BD10B50020FFF7DBFFF6
:101F6000FFF7CAFF10BD7CB5054600202AF07CFAB9
:101F700042F669202AF01EFA6FF07F402AF025FA17
:101F800000242EE04FF4BE70ADF8000004EB4400D6
:101F9000042101EB0010062101FB040000B2ADF8A2
:101FA00002004FF4EE70ADF80400601C00EB40003E
:101FB000042101EB0010062101FB040000B2ADF882
:101FC0000600C4EBC401A44A02EB8101A14A1278C5
:101FD000C2EBC20201EB42000E22694629F0A0FECC
:101FE000641C052CCED37CBD10B5FFF7B5FF0020D7
:101FF000FFF7C0FC0020FFF7B6FF00241FE0032C12
:102000000ED2964800EB0412601C00EB40001A232D
:1020100003EBC00081B200230420FFF721FB0DE099
:102020008E4800EB0412A01E00EB40001A2303EBC5
:10203000C00081B20023B820FFF712FB641C062CFD
:10204000DDD310BD08B543F6AC10BE2340F2DF125D
:10205000702100900020FEF722FF08BD10B500207F
:10206000FFF733FFFFF7EEFF10BD08B543F6AC10E6
:10207000A02340F2DF12562100900020FEF70FFF50
:1020800043F6AC10E32340F2DF12C12100900020A0
:10209000FEF705FF08BD10B50020FFF716FFFFF79C
:1020A000E4FF10BD08B543F6AC10A02340F2DF12E8
:1020B000602100900020FEF7F2FE08BD10B5002060
:1020C000FFF703FFFFF7EEFF10BD10B5FFF7F6FFB8
:1020D0004FF6FF705A49086040F23F2048600023E5
:1020E0005F4A04211846FFF7BBFA4FF6FF705449C8
:1020F00008605C48486000235BA21A210420FFF7B7
:10210000AFFA00235BA232212C20FFF7A9FA0023AB
:102110005BA232219020FFF7A3FA00235BA23221B9
:10212000F420FFF79DFA00235AA232214FF4AC703D
:10213000FFF796FA002359A232214FF4DE70FFF721
:102140008FFA0020FFF7A7FC10BD704700B5FFF71E
:10215000FCFF00BD10B50120FFF70CFC0320FFF7CA
:10216000DAFE4FF6FF702AF030F93E482AF022F9E5
:10217000002422E0042C0FD2494901EB4411354BD5
:102180001B7801EB031004EB4401C90001F11A02B2
:10219000042129F0B1FD0FE0414901EB44112D4B21
:1021A0001B7801EB0310211F01EB4101C90001F174
:1021B0001A02B82129F0A0FD641C072CDAD310BD47
:1021C00070B50120FFF7D6FB0120FFF7A4FE4FF604
:1021D000FF702AF0FAF823482AF0ECF81D48B0F80E
:1021E000A60D2B2148431B49343101EBC000001DD3
:1021F0003439B1F8A61D2B225143164A343202EB72
:10220000C1018978C1EBC10110F8210025490D5C9D
:1022100000249CE004F0010088B90E49B1F8A61D25
:102220002B2359430B4B343303EBC101091D343BC2
:10223000B3F8A63D2B267343064E343634E054E003
:10224000240000105A4374656B00000038400600FB
:10225000DFFD0500C00F001053FD050065EF050010
:10226000E1FE05003366CC00E696B9E5BC8F203A66
:1022700000000000E9A291E78E875B487A5D0000CC
:10228000E794B5E5B9B35B565D00000043705B466B
:102290005D000000445B205D00000000434D5000E5
:1022A000AC970500FC96050006EBC3039B78C3EBD7
:1022B000C30311F823104D235943F84B03EB81015D
:1022C000C4EBC40301EB8301A6F134031B78C3EB19
:1022D000C30301EB4300610801EB4101C90001F1B7
:1022E0001A02042129F008FD30E0ED49B1F8A61DDD
:1022F0002B235943EA4B343303EBC1031B1DE8493D
:10230000B1F8A61D2B267143E54E343606EBC1010C
:102310008978C1EBC10113F821104D235943DF4BDC
:1023200003EB8101C4EBC40301EB8301DC4B1B789D
:10233000C3EBC30301EB4300611E01EB4101C90084
:102340001A2303EB5102B82129F0D6FC641CAC42DD
:10235000FFF460AF70BD10B50446D24901EB4411E3
:10236000CF4A127801EB0210F222B42129F0C4FC0A
:1023700010BD2DE9F843044620462FF01BFE05460C
:102380000022C94B2FF0AAFF0BD2C84C41F29C305F
:10239000ADF8000002208DF8020001208DF8030046
:1023A00080E020462FF006FE05460022C04B2FF0AD
:1023B00095FF14D820462FF0FDFD05460022BD4BA9
:1023C0002FF0F0FB07462FF0B1FD80B2ADF8000012
:1023D00002208DF8020001208DF8030062E0204603
:1023E0002FF0E8FD05460022B34B2FF077FF14D8FD
:1023F00020462FF0DFFD05460022B04B2FF0D2FB28
:1024000007462FF093FD80B2ADF8000003208DF851
:10241000020001208DF8030044E020462FF0CAFDA1
:1024200005460022A64B2FF059FF14D820462FF066
:10243000C1FD05460022A34B2FF0B4FB07462FF049
:1024400075FD80B2ADF8000001208DF8020000207B
:102450008DF8030026E020462FF0ACFD0546002253
:10246000944B2FF03BFF14D820462FF0A3FD0546D8
:102470000022954B2FF096FB07462FF057FD80B2B8
:10248000ADF8000002208DF8020000208DF8030056
:1024900008E0A0B2ADF8000003208DF80200002093
:1024A0008DF803000098BDE8F8832DE9F843044651
:1024B00020462FF07FFD054600227B4B2FF00EFFBC
:1024C0000AD27A4C41F29C30ADF8000002208DF81F
:1024D00002008DF803007EE020462FF06BFD0546DC
:1024E0000022734B2FF0FAFE14D820462FF062FD25
:1024F000054600226F4B2FF055FB07462FF016FDC7
:1025000080B2ADF8000002208DF8020003208DF8A3
:10251000030060E020462FF04DFD05460022664B8B
:102520002FF0DCFE14D820462FF044FD0546002293
:10253000624B2FF037FB07462FF0F8FC80B2ADF866
:10254000000001208DF8020002208DF8030042E017
:1025500020462FF02FFD05460022594B2FF0BEFEDE
:1025600014D820462FF026FD05460022534B2FF0AD
:1025700019FB07462FF0DAFC80B2ADF8000001200D
:102580008DF8020002208DF8030024E020462FF091
:1025900011FD05460022474B2FF0A0FE13D8204620
:1025A0002FF008FD05460022464B2FF0FBFA0746A8
:1025B0002FF0BCFC80B2ADF8000002208DF80200C4
:1025C0008DF8030007E0A0B2ADF8000001208DF8FF
:1025D00002008DF803000098BDE8F88338B5044682
:1025E0003A4829F0F2FE3A4829F0E4FE394829F049
:1025F000FDFE002029F038FF374900230422086837
:102600000321FFF7FFF835A1354826F064FB04EB02
:102610008400800000F128025021314829F06CFB31
:102620001F48B0F8A60D2B2148431D49343101EB5A
:10263000C000407802285BD11948B0F8A60D2B21C4
:1026400048431749343101EBC000001D3439B1F85B
:10265000A61D2B225143124A343202EBC101897864
:10266000C1EBC10110F8210002280BD114211D4833
:1026700026F0FEFB1B481A49096801601AA126F0E2
:102680002AFB4DE01421194826F0F2FB17481449A3
:102690000968016014A126F01EFB41E0489F050077
:1026A000C00F0010CC99050084D7874180F0FA0252
:1026B000D01263410088C34080842E4100408F4087
:1026C000006AF8400000594000002440FFFF8000ED
:1026D0003366CC0038400600340300106B5600000F
:1026E000740F0010A80700106B563B0094070010F1
:1026F0001421FE4826F0BCFBFC48FD490968016036
:10270000AFF21C0126F0E7FA1421FA4826F0B0FBDC
:10271000F848F74909680160AFF2340126F0DBFAA6
:10272000F548B0F8A60D2B214843F349343101EBAD
:10273000C000001D3439B1F8A61D2B225143EE4ACA
:10274000343202EBC1018978C1EBC10110F82100DC
:10275000052875D2DFE800F0030493E3F00000BF22
:10276000E64840684FF6FF71884206D1E048E4A190
:102770000A680260898881806FE0DF48C08D012887
:102780003CD1DD48B0F8A60D2B214843DA4934315D
:1027900001EBC00000F5A1703439B1F8A61D2B2261
:1027A0005143D54A343202EBC1018978491E30F8D1
:1027B0001100D2494968884203D90020CF494860B6
:1027C0001CE0CD48B0F8A60D2B214843CA4934314E
:1027D00001EBC00000F5A1703439B1F8A61D2B2221
:1027E0005143C54A343202EBC1018978491E30F8A1
:1027F0001100C2494968081AC0494860C2480078B7
:1028000001280CD1BD490023042248680321FEF7AA
:10281000F9FFB648B6490968C0F807101DE0BA4884
:10282000007870B9B5490023042248680221FEF7F8
:10283000E9FFAE48AE49D1F80110C0F807100CE02E
:102840009EE0AE490023042248680121FEF7DAFF2A
:10285000A648AEA10968C0F80710AEA1A34826F0AB
:102860003AFAADA1A24826F036FA04EB84008000C3
:1028700000F12802A0219E4829F03EFA81E09F48FD
:102880004068A64988420AD19948A5A10A68026011
:1028900049684160A5A1974826F01DFA1CE09749B8
:1028A0004868FFF702FE0090A248009901600246C6
:1028B0009178108800230422FEF7A4FF9D48C07879
:1028C00000EB80009C4A02EB4001894826F003FAA5
:1028D0008749884826F0FFF904EB8400800000F166
:1028E0002802A021824829F007FA9248C07820B92E
:1028F00092A1804826F0EFF910E08E48C0780128B8
:1029000004D18FA17B4826F0E6F907E08948C0781A
:10291000022803D18BA1774826F0DDF931E0774812
:1029200040684FF6FF71884207D171487CA10A6860
:102930000260496841600FE021E070494868FFF794
:1029400018FD00907B48009901600246917810883C
:1029500000230422FEF756FF7648C07800EB4000C3
:10296000794A8118624826F0B6F904EB84008000A9
:1029700000F12802A0215E4829F0BEF901E000E044
:1029800000BF00BF5D490889012304221946FEF7F4
:1029900039FF6EA1564826F09EF9F322542154487F
:1029A00029F0AAF96A490878FFF7D5FC38BD2DE966
:1029B000F843044620462FF0FDFA05460022654BF9
:1029C0002FF08CFC13D820462FF0F4FA0546002295
:1029D000614B2FF0E7F807462FF0A8FA80B2ADF868
:1029E000000002208DF802008DF8030025E020464B
:1029F0002FF0E0FA05460022584B2FF06FFC13D859
:102A000020462FF0D7FA05460022554B2FF0CAF882
:102A100007462FF08BFA80B2ADF8000002208DF847
:102A200002008DF8030008E0A0B2ADF8000003201A
:102A30008DF8020001208DF803000098BDE8F883AE
:102A400038B50120FEF796FF0520FFF764FA4548E8
:102A500029F0BBFC18234FF4B9720321C82029F0D8
:102A60002BFA022029F000FD6FF07F4029F0ADFC29
:102A70002148B0F8A60D421C3BA11D4825F0CAFE16
:102A80000322C8211A4829F037F96FF07F4029F056
:102A90009CFC384829F0AAFC00240FE0364A02EBDF
:102AA0004412154B1B7802EB031004EB84026423E1
:102AB00003EB0211282229F01FF9641C032CEDD32B
:102AC0002E4829F093FC002470E0601C00EB80008D
:102AD0008000283002B202231421601C29F064F81F
:102AE0000549B1F8A61D2B23594349E0940700106E
:102AF000740F0010A8070010C00F0010340300105E
:102B00005550504552000000FF000010302E30306C
:102B1000000000006D413B006D412000F6FF090000
:102B20005550504552202020000000003E393939D0
:102B3000390000002C0000100B0306006B3B000066
:102B40004D3B0000473B000051040600207300008D
:102B500028010010006AF8400000594000409F40E2
:102B6000000024403366CC0047726F75702025301A
:102B70002E326400384006004C97050034F90600F8
:102B8000FE4B03EBC101091D631CC3EBC30311F82A
:102B90002310FB4B03EBC100611C01EB8101890099
:102BA00001F12802322129F0A7F8641CF3483438D7
:102BB000B0F8A60D2B214843F04901EBC000407846
:102BC000A04282D8EF4829F000FCEF4829F00EFC23
:102BD000002490E0E9493439B1F8A61D2B22514375
:102BE000E64A02EBC101091D621CC2EBC20201EB05
:102BF00082014888002304220321FEF703FEAFF27E
:102C00002451E24826F067F8601C00EB8000800049
:102C100000F128025021DD4829F06EF8D7493439F7
:102C2000B1F8A61D2B225143D44A02EBC101091D64
:102C3000621CC2EBC20201EB82014868FFF7B7FEDB
:102C400000909DF80210BDF8000000230422FEF75A
:102C5000D9FDCA483438B0F8A60D2B214843C749DE
:102C600001EBC000001D611CC1EBC10110F8210087
:102C700080B1C2483438B0F8A60D2B214843BF4973
:102C800001EBC000001D611CC1EBC10110F8210067
:102C9000012804D1BE49BD4826F01DF81BE0B74805
:102CA0003438B0F8A60D2B214843B44901EBC000DD
:102CB000001D611CC1EBC10110F8210002280AD1DE
:102CC0009DF80300B24A103A02EB001000F108012F
:102CD000AE4826F000F8601C00EB8000800000F198
:102CE0002802A021A94829F007F864221146EA2009
:102CF00028F046FF641CA1483438B0F8A60D2B21FB
:102D000048439E4901EBC0004078A0423FF662AFC5
:102D10009D4829F06BFB38BD38B50120FEF72AFE2F
:102D20000020FFF7F8F89B4829F04FFB18234FF4D9
:102D3000B9720321C82029F0BFF8022029F094FBC2
:102D40006FF07F4029F041FB8C483438B0F8A60D75
:102D5000421CAFF2EC118D4825F05CFD0322C82126
:102D60008A4828F0C9FF6FF07F4029F02EFB894880
:102D700029F020FB002467E004F0010088BB7F49B4
:102D80003439B1F8A61D2B2359437C4B03EBC10109
:102D9000091D343BB3F8A63D2B256B43774D05EB5E
:102DA000C3039B78C3EBC30311F823104D2359438E
:102DB000794B03EB8101C4EBC40301EB8301A5F163
:102DC00034031B78C3EBC30301EB4300611C4908C8
:102DD00001EB4101C90001F11A02042128F08CFF26
:102DE00031E0FFE765493439B1F8A61D2B2359437B
:102DF000624B03EBC101091D343BB3F8A63D2B2503
:102E00006B435E4D05EBC3039B78C3EBC30311F823
:102E100023104D235943604B03EB8101C4EBC403E2
:102E200001EB8301A5F134031B78C3EBC30301EB72
:102E30004300611E490801EB4101C90001F11A027A
:102E4000B82128F059FF641C0B2C95D36FF07F40FC
:102E500029F0BBFA49483438B0F8A60D2B21484375
:102E6000464901EBC0004378A1F13400B0F8A60D4B
:102E70002B214843414901EBC000827847A14348D8
:102E800025F0C8FC1A227821404828F035FF3B493C
:102E90003439B1F8A61D2B225143384A02EBC10147
:102EA000091D343AB2F8A62D2B235A43334B03EBBA
:102EB000C2029278C2EBC20211F82210304A02EB31
:102EC000C1001A224FF4967128F016FF2B483438AF
:102ED000B0F8A60D2B214843284901EBC000001D86
:102EE0003439B1F8A61D2B225143244A02EBC1010B
:102EF0008978C1EBC10110F8210005287DD2DFE8F7
:102F000010F00500F00117045F05A4061B493439D1
:102F1000B1F8A61D2B225143184A02EBC101091D2D
:102F2000343AB2F8A62D2B235A43144B03EBC202BA
:102F30009278C2EBC20201EB82014888002304228E
:102F40000321FEF75FFCAFF66C01104825F0C3FECD
:102F5000322278210D4828F0CFFE08483438B0F8E6
:102F6000A60D2B214843054901EBC001091D03486B
:102F70003438B0F8A60D2B22504313E0F40F0010A4
:102F800050E50500FFFF800038400600740F001078
:102F9000A8E505003366CC004CA5050025642F2567
:102FA00064000000FE4A02EBC0008078C0EBC00065
:102FB00001EB8000008948B3A2F13401B1F8A61DED
:102FC0002B225143F64A02EBC102121DF449343957
:102FD000B1F8A61D2B235943F14B03EBC1018978AE
:102FE000C1EBC10102EB8101088900230422012108
:102FF000FEF708FCEBA1EC4800E0EAE325F06BFEED
:103000004A227821E84828F077FE09E0E44934397B
:103010000978E64A02EBC1004A22782128F06CFECA
:10302000DF483438C08B00285ED0DD483438B0F833
:10303000A60D2B214843DA4901EBC001091DD848F0
:103040003438B0F8A60D2B225043D54A02EBC0000D
:103050008078C0EBC00001EB8000408A002838DD9A
:10306000A2F13400B0F8A60D2B214843114601EB24
:10307000C000001D3439B1F8A61D2B225143C84AA7
:1030800002EBC1018978C1EBC10100EB8100408AEC
:1030900009281EDCA2F13401B1F8A61D2B225143F0
:1030A000BF4A02EBC102121DBD493439B1F8A61D59
:1030B0002B235943BA4B03EBC1018978C1EBC10102
:1030C00002EB8101488A01236222782128F06CFDFD
:1030D00055E0B34934390978B54A02EBC1006222A0
:1030E000782128F009FE4AE0AD483438B0F8A60D42
:1030F0002B214843AA4901EBC001091DA8483438D7
:10310000B0F8A60D2B225043A54A02EBC0008078F0
:10311000C0EBC00001EB8000408A30B3A2F1340163
:10312000B1F8A61D2B2251439D4A02EBC101091D96
:10313000343AB2F8A62D2B235A43994B03EBC20223
:103140009278C2EBC20201EB8201488A002303227B
:103150000121FEF757FB97A1934825F0BCFD6222A1
:103160007821914828F0C8FD09E08D493439097863
:103170008F4A02EBC1006222782128F0BDFD884908
:103180003439B1F8A61D2B225143854A02EBC10107
:10319000091D343AB2F8A62D2B235A43804B03EB7A
:1031A000C2029278C2EBC20201EB82014868FFF7CB
:1031B000FEFB00909DF80210BDF8000000230422E1
:1031C000FEF720FB7C49784825F085FD32224FF43C
:1031D0009671754828F090FD71483438B0F8A60D06
:1031E0002B2148436E4901EBC001091D6C4834385E
:1031F000B0F8A60D2B225043694A02EBC00080783C
:10320000C0EBC00001EB8000C06870B3A2F13401D4
:10321000B1F8A61D2B225143614A02EBC102121DD7
:103220005F493439B1F8A61D2B2359435C4B03EB9E
:10323000C1018978C1EBC10102EB8101C868FFF7C8
:10324000B6FB00909DF80210BDF800000023042298
:10325000FEF7D8FA5849544825F03DFD4A224FF46C
:103260009671514828F048FD0BE0FFE74C4934398E
:1032700009784F4A02EBC1004A224FF4967128F0B8
:103280003BFD4FF6FF7029F0A0F84C4829F092F86A
:10329000002029F0E9F84A4829F0A8F878222821E6
:1032A00048A028F029FD7822F021AFF6D03028F090
:1032B00023FDAA22282144A028F01EFDAA22F021E5
:1032C0003CA028F019FD414829F090F8F322342160
:1032D0003FA028F011FDF3228C2132A028F00CFD34
:1032E00025E22F493439B1F8A61D2B2251432C4A2F
:1032F00002EBC102121D2A493439B1F8A61D2B2355
:103300005943274B03EBC1018978C1EBC10102EBA3
:1033100081014888002304220321FEF773FAAFF6E7
:103320004441214825F0D7FC322278211E4828F05C
:10333000E3FC1B483438B0F8A60D2B21484318494C
:1033400001EBC000001D3439B1F8A61D2B225143FA
:10335000134A02EBC1018978C1EBC10100EB810086
:103360000089B8B3A2F13401B1F8A61D2B22514354
:103370000B4A02EBC101091D343AB2F8A62D2B23EA
:103380005A43074B03EBC2029278C2EBC20201EB35
:1033900082010889002304220121FEF733FA1AE092
:1033A000F40F001073000000740F001040E50500DA
:1033B00030E405006D410000A8E505003366CC004F
:1033C000E49B0600563A0000493A000038400600E7
:1033D00054203A000AE0AFF23401FE4825F07BFCAD
:1033E0004A227821FB4828F087FC08E0FA4909784E
:1033F000FA4A02EBC1004A22782128F07DFCF64906
:10340000B1F8A61D2B225143F34A343202EBC1011D
:10341000091D343AB2F8A62D2B235A43EE4B343310
:1034200003EBC2029278C2EBC20201EB8201486850
:10343000FFF7BDFA00909DF80210BDF800000023D0
:103440000422FEF7DFF9E649E24825F044FC322287
:103450004FF49671DF4828F04FFCDF48B0F8A60D16
:103460002B214843DC49343101EBC000001D3439C5
:10347000B1F8A61D2B225143D74A343202EBC101C9
:103480008978C1EBC10100EB8100C06870B3D249FB
:10349000B1F8A61D2B225143CF4A343202EBC102B0
:1034A000121DCD49B1F8A61D2B235943CA4B343305
:1034B00003EBC1018978C1EBC10102EB8101C8684E
:1034C000FFF775FA00909DF80210BDF80000002388
:1034D0000422FEF797F9C249BE4825F0FCFB4A22B8
:1034E0004FF49671BB4828F007FC09E0BA49097807
:1034F000BC4A02EBC1004A224FF4967128F0FCFB53
:10350000B548C08BF0B3B448B0F8A60D2B214843A2
:10351000B149343101EBC000001D3439B1F8A61DAA
:103520002B225143AC4A343202EBC1018978C1EB02
:10353000C10100EB8100408A00283ADDA648B0F8BE
:10354000A60D2B214843114601EBC000001D343964
:10355000B1F8A61D2B2251439F4A343202EBC10120
:103560008978C1EBC10100EB8100408A092820DC89
:103570009949B1F8A61D2B225143974A343202EBE8
:10358000C10200E01FE0121D9349B1F8A61D2B23D4
:103590005943914B343303EBC1018978C1EBC1012D
:1035A00002EB8101488A01236222782128F0FCFA8B
:1035B0008AE0894909788B4A02EBC10062227821AE
:1035C00028F09AFB80E08448B0F8A60D2B214843F0
:1035D0008149343101EBC001091D7F48B0F8A60DC7
:1035E0002B2250437C4A343202EBC0008078C0EB7F
:1035F000C00001EB8000408AF0B37748B0F8A60D18
:103600002B214843114601EBC000001D3439B1F8AD
:10361000A61D2B225143704A343202EBC101897836
:10362000C1EBC10100EB8100408AC82818DDC82326
:103630006948B0F8A60D2B214843114601EBC000A4
:10364000001D3439B1F8A61D2B224A43624934319A
:1036500001EBC2018978C1EBC10100EB810043821B
:103660005D49B1F8A61D2B2251435B4A343202EB6F
:10367000C101091D343A00E01DE0B2F8A62D2B234C
:103680005A43554B343303EBC2029278C2EBC20269
:1036900001EB8201488A002303220121FEF7B2F8E0
:1036A000AFF2F0214B4825F016FB62227821494801
:1036B00028F022FB08E0484909784A4A02EBC10099
:1036C0006222782128F018FB4FF6FF7028F07DFE6B
:1036D000454828F06FFE002028F0C6FE434828F039
:1036E00085FE78222821AFF2243028F005FB7822CD
:1036F000F0213FA028F000FBAA222821AFF23830A9
:1037000028F0FAFAAA22F021AFF2583028F0F4FAA1
:10371000384828F06BFEF3223421AFF24C3028F009
:10372000EBFAF3228C21AFF2843028F0E5FA04E3BF
:103730002949B1F8A61D2B225143274A343202EB06
:10374000C102121D2449B1F8A61D2B235943224B57
:10375000343303EBC1018978C1EBC10102EB810174
:103760004888002304220321FEF74CF820A11948C1
:1037700025F0B1FA32227821164828F0BDFA164811
:10378000B0F8A60D2B2148431349343101EBC0009A
:10379000001D3439B1F8A61D2B2251430E4A343294
:1037A00002EBC1018978C1EBC10100EB8100008906
:1037B000D8B30949B1F8A61D2B225143064A343229
:1037C00002EBC101091D343AB2F8A62D2B235A434E
:1037D00012E0B1E2740F0010C00F001040E50500C8
:1037E000A8E5050030E405003366CC00E49B060044
:1037F0006B56000038400600FE4B03EBC202927885
:10380000C2EBC20201EB82010889002304220121DC
:10381000FDF7F8FFAFF27441F74825F05CFA4A2251
:103820007821F54828F068FA0AE0FFE7F1493439D1
:103830000978F24A02EBC1004A22782128F05CFAAA
:10384000EC483438B0F8A60D2B214843E94901EB88
:10385000C001091DE7483438B0F8A60D2B225043AB
:10386000E44A02EBC0008078C0EBC00001EB8000AE
:10387000406898B3A2F13401B1F8A61D2B22514340
:10388000DC4A02EBC101091D343AB2F8A62D2B2304
:103890005A43D84B03EBC2029278C2EBC20201EB4F
:1038A00082014868FEF701FE00909DF80210BDF805
:1038B000000000230422FDF7A5FF9DF80300D04A75
:1038C00002EB001000F10801CB4825F004FA322287
:1038D0004FF49671C84828F00FFA0BE0FFE7C5498E
:1038E00034390978C74A02EBC10032224FF496718D
:1038F00028F002FABF493439B1F8A61D2B225143F2
:10390000BC4A02EBC101091D343AB2F8A62D2B23A3
:103910005A43B84B03EBC2029278C2EBC20201EBEE
:103920008201C868FEF7C1FD00909DF80210BDF845
:10393000000000230422FDF765FF9DF80300B04A54
:1039400002EB001000F10801AB4825F0C4F94A224F
:103950004FF49671A84828F0CFF94FF6FF7028F081
:1039600034FDA94828F026FD002028F07DFDA74859
:1039700028F03CFD78222821AFF2B85028F0BCF99D
:103980007822F021AFF2981028F0B6F9AA22282167
:103990009FA028F0B1F9AA22F0219EA028F0ACF94E
:1039A0009D4828F023FDF3223421AFF2DC5028F0AB
:1039B000A3F9F3228C21AFF2146028F09DF9BCE149
:1039C0008C483438B0F8A60D2B214843894901EBC7
:1039D000C000001D3439B1F8A61D2B235943854B77
:1039E00003EBC1018978C1EBC10100EB81008BA120
:1039F000C268814824F00EFF322278217E4828F0E8
:103A00007BF97C483438B0F8A60D2B21484379491E
:103A100001EBC001091D77483438B0F8A60D2B2200
:103A20005043744A02EBC0008078C0EBC00001EB49
:103A300080004068642821D3A2F13400B0F8A60DBC
:103A40002B214843114601EBC000001D3439B1F869
:103A5000A61D2B235943134603EBC1018978C1EB03
:103A6000C10100EB81006DA14268634824F0D2FEE1
:103A70004A227821604828F03FF909E05D4934394D
:103A80000978604A02EBC1004A22782128F034F913
:103A900058483438B0F8A60D2B214843554901EB5E
:103AA000C000001D3439B1F8A61D2B225143514AE4
:103AB00002EBC1018978C1EBC10100EB8100C08A32
:103AC000E8B3A2F13400B0F8A60D2B21484311460B
:103AD00001EBC000001D3439B1F8A61D2B22514363
:103AE000444A02EBC1018978C1EBC10100EB8100BE
:103AF000C08AB0F57A7F23DBA2F13400B0F8A60DBE
:103B00002B214843114601EBC001091DA2F13400ED
:103B1000B0F8A60D2B225043364A02EBC000807845
:103B2000C0EBC00001EB8000C08A0A2190FBF1F5D8
:103B30000023042202212846FDF764FE1DE027E051
:103B40002C493439B1F8A61D2B225143294A02EBE6
:103B5000C101091D343AB2F8A62D2B235A43254B37
:103B600003EBC2029278C2EBC20201EB8201C88A67
:103B7000002304220321FDF745FE2A491E4825F0B3
:103B8000AAF832224FF496711B4828F0B5F805E0E8
:103B900032224FF4967124A028F0AEF84FF6FF7051
:103BA00028F013FC184828F005FC002028F05CFCE5
:103BB000164828F01BFC78222821AFF2F87028F074
:103BC0009BF87822F021AFF2D83028F095F8AA229D
:103BD000282117A028F090F8AA22F02115A028F09B
:103BE0008BF80D4828F002FCF3223421AFF62000B8
:103BF00022E00000F40F0010740F001040E50500F3
:103C000098E5050030E405003366CC00E49B06002F
:103C1000523A0000CEA90000384006002533642542
:103C200025000000540406004E4F4E4500000000E1
:103C3000433A00006E46000028F05EF8F3228C2123
:103C4000AFF6A00028F058F877E032227821FEA0E5
:103C500028F052F8FE49B1F8A61D2B225143FC4A28
:103C6000343202EBC102121DF949B1F8A61D2B2313
:103C70005943F74B343303EBC1018978C1EBC101E0
:103C800002EB81018969F34A02EB0111F04A1278D3
:103C900001EBC20032224FF4967128F02DF8EC4867
:103CA000B0F8A60D2B214843E949343101EBC0009F
:103CB000001D3439B1F8A61D2B225143E44A343299
:103CC00002EBC1018978C1EBC10100EB81000089E1
:103CD00040B3DF49B1F8A61D2B225143DC4A3432F0
:103CE00002EBC102121DDA49B1F8A61D2B2359437C
:103CF000D74B343303EBC1018978C1EBC10102EB2F
:103D000081010889002304220121FDF77BFDAFF624
:103D10006C11D14824F0DFFF4A227821CE4827F0E9
:103D2000EBFF08E0CA490978CC4A02EBC1004A22FD
:103D3000782127F0E1FF00E000BF00BF38BD10B5DB
:103D40000120FDF717FE0220FEF7E5F84FF6FF70A1
:103D500028F03BFBC24828F02DFB00242CE004F0A7
:103D60000100A0B9C4EB0411BE4B03EB4101B84BF9
:103D70001B78C3EB0313C818611C490801EB410110
:103D8000C90001F11A02042127F0B6FF13E0C4EBC9
:103D90000411B44B03EB4101AD4B1B78C3EB031390
:103DA000C818611E490801EB4101C90001F11A025E
:103DB000B82127F0A1FF641C102CD0D310BD38B55A
:103DC0000446012C00D100E0002005461DB1FF2073
:103DD000A549486002E0A248A3494860A2488088FB
:103DE00080B24823C022302100905420FDF757F8BC
:103DF0009D48808880B200909B48008883B29B4891
:103E000000783130C2B230216C20FDF7DFF8022C8F
:103E100001D1012000E0002005461DB1FF2092499C
:103E2000486002E08E48904948609049097801EB6B
:103E300081028E49891C01EB8201C889002304227A
:103E40001946FDF7DFFC8848808880B25E23C022D7
:103E50004A2100905420FDF722F800237E4A4A218F
:103E60005C20FDF7FDFB002381A24A218E20FDF797
:103E7000F7FB032C01D1012000E0002005461DB115
:103E8000FF207949486002E07548774948607749E2
:103E9000097801EB81027549891C01EB8201088ACE
:103EA000002304221946FDF7ADFC6F48808880B2DC
:103EB0007623C022622100905420FCF7F0FF0023FB
:103EC000654A62215C20FDF7CBFB002368A26221DA
:103ED0008E20FDF7C5FB042C01D1012000E000205D
:103EE00005461DB1FF206049486002E05C485E491C
:103EF00048606048006811281DD15B48808880B206
:103F000046234FF4C872302100904FF48670FCF7BE
:103F1000C6FF5648007800EB80015448801C00EB37
:103F200081004089544901EB0012002332214FF4F3
:103F30008670FDF795FB052C01D1012000E00020E3
:103F400005461DB1FF204849486002E04448464903
:103F500048604649097801EB81024449891C01EB1C
:103F600082014888002304221946FDF74BFC3E4895
:103F7000808880B25E234FF4C8724A2100904FF4CB
:103F80008470FCF78CFF0023334A4A214FF48D7074
:103F9000FDF766FB002339A24A214FF4A070FDF71C
:103FA0005FFB062C01D1012000E0002005461DB179
:103FB000FF202D49486002E029482B4948602B49E1
:103FC000097801EB81022949891C01EB820188886B
:103FD000002304220121FDF715FC00231E4A622163
:103FE0004FF48870FDF73CFB002325A262214FF4BB
:103FF000A070FDF735FB38BD7CB506460D460120A7
:10400000FDF7B8FC022028F02FFA6FF07F4028F06F
:10401000DCF9002417E14FF4BE70ADF8000004EBAA
:104020004400042101EB0010062101FB040000B252
:10403000ADF802004FF4EE70ADF80400601C00EB28
:10404000400004211EE0000050415553450000008F
:10405000C00F001030E40500740F001040E50500AB
:104060003366CC00A6E90500240000108C0800107F
:104070004DCEA9002401001098F405002056000040
:104080002073000001EB0010062101FB040000B2C8
:10409000ADF80600052E38D2DFE806F00338506888
:1040A0009D00FE4890F8A50D032817D0C5EBC5016B
:1040B00001EB8101FA4A02EB8101F84A1278C2EB66
:1040C000C20202EB820201EB4201C4EBC40201EB2B
:1040D00042000E22694627F023FE16E0C5EBC5011B
:1040E00001EB8101EF4A02EB8101EC4A1278C2EB4D
:1040F000C20202EB820201EB4201C4EBC40201EBFB
:1041000042000E22694627F00BFE99E0C5EBC5017F
:1041100001EB8101E44A02EB8101E04A1278C2EB33
:10412000C20202EB820201EB4201C4EBC40201EBCA
:1041300042000E22694627F0F3FD81E0C5EBC50180
:1041400001EB8101D94A02EB8101D44A1278C2EB1A
:10415000C20202EB820201EB4201C4EBC40201EB9A
:1041600042000E22694627F0DBFD69E0CB4890F85B
:10417000A50D032817D0C5EBC50101EB8101CC4A81
:1041800002EB8101C54A1278C2EBC20202EB820245
:1041900001EB4201C4EBC40201EB42000E2269466E
:1041A00027F0BEFD16E0C5EBC50101EB8101C14A58
:1041B00002EB8101B94A1278C2EBC20202EB820221
:1041C00001EB4201C4EBC40201EB42000E2269463E
:1041D00027F0A6FD34E0B14890F8A50D032817D0CC
:1041E000C5EBC50101EB8101B34A02EB8101AB4A8A
:1041F0001278C2EBC20202EB820201EB4201C4EB75
:10420000C40201EB42000E22694627F089FD16E048
:10421000C5EBC50101EB8101A84A02EB81019F4A70
:104220001278C2EBC20202EB820201EB4201C4EB44
:10423000C40201EB42000E22694627F071FD00BF67
:1042400000BF601CC4B2052CFFF6E5AE7CBDF8B51E
:10425000054600BF9A4828F0B8F818234FF4B97201
:104260000321C82027F028FE022028F0FDF86FF077
:104270007F4028F0AAF88948B0F8A60D421C914961
:10428000914824F0C7FA0322C8218F4827F034FD53
:10429000012437E0AC4203D1FF2028F096F802E079
:1042A000874828F092F804F00100A0B1601E0122B6
:1042B00002EB500000EB4000C00000F11803601E4C
:1042C00000EB4000C000182202EB5001B4225A203B
:1042D00027F0F2FD15E0601E012202EB500000EB1A
:1042E0004000C00000F11803601E400800EB4000D1
:1042F000C00000F118014FF4B7724FF48A7027F034
:10430000DBFD641C6548B0F8A60D2B2148436349CA
:10431000343101EBC000001D3439B1F8A61D2B2249
:1043200051435E4A343202EBC1018978C1EBC101CD
:1043300010F821006549085C401CA042AAD8022060
:1043400028F092F86FF07F4028F03FF85348B0F81B
:10435000A60D2B2148435149343101EBC00043786D
:104360004E48B0F8A60D2B2148434C49343101EB9F
:10437000C00082785649544824F04CFA1A22782119
:10438000514827F0B9FC4549B1F8A61D2B225143ED
:10439000424A343202EBC101091D343AB2F8A62D6B
:1043A0002B235A433D4B343303EBC2029278C2EBCA
:1043B000C20211F82210474A02EBC1001A224FF440
:1043C000967127F099FC3548B0F8A60D2B2148438B
:1043D0003249343101EBC001091D3048B0F8A60D57
:1043E0002B2250432D4A343202EBC0008078C0EBC0
:1043F000C00011F82000052881F07F81DFE810F06F
:104400000500A6021906070805092449B1F8A61DEA
:104410002B225143214A343202EBC101091D343AA7
:10442000B2F8A62D2B235A431C4B343303EBC202A4
:104430009278C2EBC20201EB820148880023042279
:104440000321FDF7DFF9AFF658411F4824F043FC84
:10445000322278211C4827F04FFC1048B0F8A60DF6
:104460002B2148430D49343101EBC001091D0B4894
:10447000B0F8A60D2B225043084A343202EBC0009C
:104480008078C0EBC00001EB80000089F0B30349E5
:10449000B1F8A61D2B225143004A1DE0C00F0010A9
:1044A00050AB050058B70500C0C7050050CE050049
:1044B000C8B00500D0BC050010B4050018C0050048
:1044C0003366CC00682B0200740F0010FC960500C8
:1044D0009C2F020050E50500343202EBC102121D90
:1044E000FE49B1F8A61D2B235943FC4B343303EB93
:1044F000C1018978C1EBC10102EB81010889002368
:1045000004220121FDF77EF9F5A100E008E0F5485D
:1045100024F0E1FB4A227821F24827F0EDFB08E085
:10452000EE490978F04A02EBC1004A22782127F0CF
:10453000E3FBEA48B0F8A60D2B214843E7493431A4
:1045400001EBC001091DE548B0F8A60D2B22504330
:10455000E24A343202EBC0008078C0EBC00001EBCD
:104560008000008A38B3DD49B1F8A61D2B225143E3
:10457000DA4A343202EBC101091D343AB2F8A62DF1
:104580002B235A43D54B343303EBC2029278C2EB50
:10459000C20201EB8201088A002304220121FDF7F7
:1045A00031F9CFA1CF4824F096FB62227821CD4883
:1045B00027F0A2FB08E0C9490978CC4A02EBC10008
:1045C0006222782127F098FBC448B0F8A60D2B2171
:1045D0004843C249343101EBC000001D3439B1F801
:1045E000A61D2B225143BD4A343202EBC10189780A
:1045F000C1EBC10100EB8100808A38B3B749B1F843
:10460000A61D2B225143B54A343202EBC102121DC2
:10461000B249B1F8A61D2B235943B04B343303EBF9
:10462000C1018978C1EBC10102EB8101888A0023B5
:1046300004220121FDF7E6F8A9A1AA4824F04BFBCA
:104640007A227821A74827F057FB08E0A349097888
:10465000A64A02EBC1007A22782127F04DFB9F4940
:10466000B1F8A61D2B2251439C4A343202EBC10201
:10467000121D9A49B1F8A61D2B235943974B343389
:1046800003EBC1018978C1EBC10102EB81014868EC
:10469000FEF78DF900909DF80210BDF80000002390
:1046A0000422FDF7AFF892498E4824F014FB322221
:1046B0004FF496718B4827F01FFB8848B0F8A60D81
:1046C0002B2148438549343101EBC000001D3439AA
:1046D000B1F8A61D2B225143804A343202EBC101AE
:1046E0008978C1EBC10100EB8100C06870B37B49E0
:1046F000B1F8A61D2B225143784A343202EBC10196
:10470000091D343AB2F8A62D2B235A43734B343388
:1047100003EBC2029278C2EBC20201EB8201C868CD
:10472000FEF745F900909DF80210BDF80000002347
:104730000422FDF767F86E496A4824F0CCFA4A2251
:104740004FF49671674827F0D7FA09E06349097872
:10475000664A02EBC1004A224FF4967127F0CCFA68
:104760005E48C08B00287DD05C48B0F8A60D2B2198
:1047700048435A49343101EBC000001D3439B1F8C7
:10478000A61D2B225143554A343202EBC1018978D0
:10479000C1EBC10100EB8100408A092818DD092323
:1047A0004E48B0F8A60D2B214843114601EBC0013D
:1047B000091D4A48B0F8A60D2B225043474A34320F
:1047C00002EBC0008078C0EBC00001EB80004382A8
:1047D0004248B0F8A60D2B2148434049343101EB43
:1047E000C000001D3439B1F8A61D2B2251433B4AAD
:1047F000343202EBC1018978C1EBC10100EB8100C9
:10480000408A00283BDD3548B0F8A60D2B214843EF
:10481000114601EBC001091D3048B0F8A60D2B224E
:1048200050432E4A343202EBC0008078C0EBC00007
:1048300001EB8000408A092821DC2849B1F8A61D37
:104840002B225143254A343202EBC101091D343A6F
:10485000B2F8A62D2B235A43204B343303EBC2026C
:10486000927800E016E0C2EBC20201EB8201488AB6
:10487000012362224FF4967127F096F965E01749FB
:1048800009781A4A02EBC10062224FF4967127F0B0
:1048900033FA5AE01148B0F8A60D2B2148430F49CE
:1048A000343101EBC000001D3439B1F8A61D2B22B4
:1048B00051430A4A343202EBC1018978C1EBC1018C
:1048C00000EB8100408AA0B30449B1F8A61D2B2259
:1048D0005143024A343202EBC1010BE0C00F001019
:1048E00073000000740F001040E5050030E405007F
:1048F000A8E50500091D343AB2F8A62D2B235A432A
:10490000FE4B03EBC2029278C2EBC20201EB8201C2
:10491000488A002303220121FCF774FFF8A1F9481B
:1049200024F0D9F962224FF49671F64827F0E4F9A1
:104930000BE0FFE7F14934390978F34A02EBC10093
:1049400062224FF4967127F0D7F971E3EB493439BD
:10495000B1F8A61D2B225143E84A02EBC101091D03
:10496000343AB2F8A62D2B235A43E44B03EBC20290
:104970009278C2EBC20201EB820148880023042234
:104980000321FCF73FFFE1A1DE4824F0A4F9322225
:104990007821DC4827F0B0F9D8483438B0F8A60DB3
:1049A0002B214843D54901EBC001091DD3483438B8
:1049B000B0F8A60D2B225043D04A02EBC0008078FD
:1049C000C0EBC00001EB8000008938B3A2F13401D4
:1049D000B1F8A61D2B225143C84A02EBC101091DA3
:1049E000343AB2F8A62D2B235A43C44B03EBC20230
:1049F0009278C2EBC20201EB8201088900230422F3
:104A00000121FCF7FFFEAFF22811BE4824F063F944
:104A10004A227821BB4827F06FF909E0B7493439B9
:104A20000978BB4A02EBC1004A22782127F064F9D9
:104A3000B2483438B0F8A60D2B214843AF4901EBFA
:104A4000C001091DAD483438B0F8A60D2B225043E3
:104A5000AA4A02EBC0008078C0EBC00001EB8000E6
:104A6000008A38B3A2F13401B1F8A61D2B225143BC
:104A7000A24A02EBC101091D343AB2F8A62D2B233C
:104A80005A439E4B03EBC2029278C2EBC20201EB87
:104A90008201088A002304220121FCF7B3FEAFF251
:104AA000C011984824F017F962227821954827F020
:104AB00023F909E0914934390978934A02EBC1009E
:104AC0006222782127F018F98C483438B0F8A60D06
:104AD0002B214843894901EBC001091D874834381F
:104AE000B0F8A60D2B225043844A02EBC000807818
:104AF000C0EBC00001EB8000808A38B3A2F1340122
:104B0000B1F8A61D2B2251437C4A02EBC101091DBD
:104B1000343AB2F8A62D2B235A43784B03EBC2024A
:104B20009278C2EBC20201EB8201888A0023042240
:104B30000121FCF767FEAFF25821724824F0CBF850
:104B40007A2278216F4827F0D7F809E06B49343989
:104B500009786D4A02EBC1007A22782127F0CCF85F
:104B600066483438B0F8A60D2B214843634901EB61
:104B7000C000001D3439B1F8A61D2B2251435F4AF5
:104B800002EBC1018978C1EBC10100EB81008069B2
:104B9000E8B3A2F13400B0F8A60D2B21484311462A
:104BA00001EBC000001D3439B1F8A61D2B22514382
:104BB000524A02EBC1018978C1EBC10100EB8100CF
:104BC000806940F6AC51884219D30B46A2F13400FB
:104BD000B0F8A60D2B214843114601EBC001091D79
:104BE000A2F13400B0F8A60D2B225043434A02EB49
:104BF000C0008078C0EBC00001EB800083613F49BA
:104C00003439B1F8A61D2B2251433C4A00E020E084
:104C100002EBC102121D39493439B1F8A61D2B230C
:104C20005943364B03EBC1018978C1EBC10102EB5B
:104C300081010023042288690121FCF7E3FD35A1ED
:104C4000304824F048F8922278212E4827F054F872
:104C500024E02A493439B1F8A61D2B225143274AB2
:104C600002EBC102121D25493439B1F8A61D2B23D0
:104C70005943224B03EBC1018978C1EBC10102EB1F
:104C800081018969204A02EB0111A3F134021278F3
:104C900001EBC2009222782127F02EF8174934390F
:104CA000B1F8A61D2B225143144A02EBC102121D7A
:104CB00012493439B1F8A61D2B2359430F4B03EB8E
:104CC000C1018978C1EBC10102EB81014868FDF7A0
:104CD0006EFE00909DF80210BDF800000023042233
:104CE000FCF790FD0C49074823F0F5FF32224FF402
:104CF0009671044827F000F800480FE0F40F001008
:104D00006D410000740F001030E405006B56000088
:104D100040E5050075410000A8E505003438B0F80D
:104D2000A60D2B214843F74901EBC001091DF548A9
:104D30003438B0F8A60D2B225043F24A02EBC000E3
:104D40008078C0EBC00001EB8000C06870B3A2F1B6
:104D50003401B1F8A61D2B225143EA4A02EBC102ED
:104D6000121DE8493439B1F8A61D2B235943E54BF0
:104D700003EBC1018978C1EBC10102EB8101C86875
:104D8000FDF715FE00909DF80210BDF8000000230D
:104D90000422FCF737FDDC49DC4823F09CFF4A2263
:104DA0004FF49671D94826F0A7FF0AE0D549343967
:104DB0000978D74A02EBC1004A224FF4967126F0D7
:104DC0009BFFD0483438C08B00287DD0CD48343884
:104DD000B0F8A60D2B214843CA4901EBC000001DC5
:104DE0003439B1F8A61D2B225143C64A02EBC1014A
:104DF0008978C1EBC10100EB8100408A092819DDE7
:104E00000923A2F13400B0F8A60D2B214843114626
:104E100001EBC001091DA2F13400B0F8A60D2B2250
:104E20005043B84A02EBC0008078C0EBC00001EBF1
:104E300080004382B3483438B0F8A60D2B21484394
:104E4000B04901EBC001091DAE483438B0F8A60DD9
:104E50002B225043AB4A02EBC0008078C0EBC0006D
:104E600001EB8000408A00283CDDA2F13400B0F85C
:104E7000A60D2B214843114601EBC001091DA2F1EB
:104E80003400B0F8A60D2B2250439E4A02EBC0001E
:104E90008078C0EBC00001EB8000408A092821DC4B
:104EA000A2F13401B1F8A61D2B225143954A02EB21
:104EB000C102121D93493439B1F8A61D2B23594361
:104EC000904B03EBC10100E018E08978C1EBC10110
:104ED00002EB8101488A012362224FF4967126F089
:104EE00063FE58E0874934390978894A02EBC100EA
:104EF00062224FF4967126F0FFFE4CE08148343870
:104F0000B0F8A60D2B2148437E4901EBC000001DDF
:104F10003439B1F8A61D2B2251437A4A02EBC10164
:104F20008978C1EBC10100EB8100408A40B3A2F156
:104F30003401B1F8A61D2B225143724A02EBC10184
:104F4000091D343AB2F8A62D2B235A436D4B03EBBF
:104F5000C2029278C2EBC20201EB8201488A0023AE
:104F600004220121FCF74EFCAFF26C21674823F0CC
:104F7000B2FE62224FF49671644826F0BDFE0AE04C
:104F8000604934390978624A02EBC10062224FF469
:104F9000967126F0B1FE5B483438B0F8A60D2B218F
:104FA0004843584901EBC000001D3439B1F8A61D33
:104FB0002B225143534A02EBC1018978C1EBC10155
:104FC00000EB8100C08A40B3A2F13401B1F8A61D04
:104FD0002B2251434B4A02EBC101091D343AB2F86E
:104FE000A62D2B235A43474B03EBC2029278C2EB08
:104FF000C20201EB8201C88A002304220121FCF7CE
:1050000001FCAFF22471414823F065FE7A224FF48F
:1050100096713E4826F070FE0AE03A493439097824
:105020003B4A02EBC1007A224FF4967126F064FEEF
:1050300064E334493439B1F8A61D2B225143314A77
:1050400002EBC101091D343AB2F8A62D2B235A43B5
:105050002C4B03EBC2029278C2EBC20201EB82013D
:105060004888002304220321FCF7CCFBAFF2643113
:10507000264823F030FE32227821244826F03CFED8
:1050800020483438B0F8A60D2B2148431D4901EBC8
:10509000C000001D3439B1F8A61D2B225143194A16
:1050A00002EBC1018978C1EBC10100EB81000089ED
:1050B00080B3A2F13401B1F8A61D2B225143114A4D
:1050C00002EBC102121D0F493439B1F8A61D2B2382
:1050D00059430C4B03EBC1018978C1EBC10102EBD1
:1050E00081010889002304220121FCF78BFBAFF624
:1050F0001001064823F0EFFD4A227821034826F0EC
:10510000FBFD11E0F40F0010A8E50500740F00107E
:1051100030E40500FFE7FE490978FE4A02EBC100D2
:105120004A22782126F0E8FDF948B0F8A60D2B2197
:105130004843F749343101EBC001091DF448B0F888
:10514000A60D2B225043F24A343202EBC000807885
:10515000C0EBC00001EB8000008A40B3EC49B1F81D
:10516000A61D2B225143EA4A343202EBC101091D2C
:10517000343AB2F8A62D2B235A43E54B343303EBD4
:10518000C2029278C2EBC20201EB8201088A0023BC
:1051900004220121FCF736FBAFF6BC01DE4823F008
:1051A0009AFD62227821DC4826F0A6FD08E0D84965
:1051B0000978DA4A02EBC1006222782126F09CFDD0
:1051C000D348B0F8A60D2B214843D149343101EB27
:1051D000C001091DCE48B0F8A60D2B225043CC4A81
:1051E000343202EBC0008078C0EBC00001EB8000DD
:1051F000808A40B3C649B1F8A61D2B225143C44A48
:10520000343202EBC102121DC149B1F8A61D2B2395
:105210005943BF4B343303EBC1018978C1EBC10162
:1052200002EB8101888A002304220121FCF7EAFABB
:10523000AFF65411B84823F04EFD7A227821B648D3
:1052400026F05AFD08E0B2490978B44A02EBC100E1
:105250007A22782126F050FDAD48B0F8A60D2B211A
:105260004843AB49343101EBC000001D3439B1F87B
:10527000A61D2B225143A64A343202EBC101897884
:10528000C1EBC10100EB81004068A0B3A049B1F8B7
:10529000A61D2B2251439E4A343202EBC102121D3D
:1052A0009B49B1F8A61D2B235943994B343303EB8B
:1052B000C1018978C1EBC10102EB81014868FDF7AA
:1052C000F4F800909DF80210BDF8000000230422BD
:1052D000FCF798FA9DF80300914A02EB001000F1E8
:1052E00008018D4823F0F7FC32224FF496718A486A
:1052F00026F002FD0AE0FFE785490978874A02EBBC
:10530000C10032224FF4967126F0F6FC8049B1F8C4
:10531000A61D2B2251437E4A343202EBC102121DDC
:105320007B49B1F8A61D2B235943794B343303EB4A
:10533000C1018978C1EBC10102EB8101C868FDF7A9
:10534000B4F800909DF80210BDF80000002304227C
:10535000FCF758FA9DF80300714A02EB001000F1C7
:1053600008016D4823F0B7FC4A224FF496716A4851
:1053700026F0C2FC6649B1F8A61D2B225143644AAF
:10538000343202EBC102121D6149B1F8A61D2B2374
:1053900059435F4B343303EBC1018978C1EBC10141
:1053A00002EB8101498A5A4A1278C2EBC2025D4B74
:1053B00003EBC20202EBC10062224FF4967126F0A9
:1053C0009BFC5349B1F8A61D2B225143504A34325D
:1053D00002EBC102121D4E49B1F8A61D2B23594301
:1053E0004B4B343303EBC1018978C1EBC10102EBB4
:1053F00081018969494A02EB0111454A127801EBA2
:10540000C2007A224FF4967126F076FC76E140488D
:10541000B0F8A60D2B2148433D49343101EBC001C2
:10542000091D3B48B0F8A60D2B235843384B3433A5
:1054300003EBC0008078C0EBC00001EB80003A496C
:10544000C268354823F0E6F932227821324826F046
:1054500053FC2F48B0F8A60D2B2148432C4934317A
:1054600001EBC001091D2A48B0F8A60D2B225043BC
:10547000274A343202EBC0008078C0EBC00001EB59
:1054800080004068642820D32148B0F8A60D2B2165
:105490004843114601EBC001091D1D48B0F8A60D97
:1054A0002B235843134603EBC0008078C0EBC000A9
:1054B00001EB80001C494268174823F0ABF94A22EF
:1054C0007821154826F018FC08E011490978134A9C
:1054D00002EBC1004A22782126F00EFC0C48B0F8FD
:1054E000A60D2B2148430A49343101EBC000001DB1
:1054F0003439B1F8A61D2B225143054A343202EB50
:10550000C1018978C1EBC10100EB8100C08A0DE0C7
:10551000C00F001040E50500740F001030E40500D6
:1055200098E50500D0E405001C3C0200E8B3A2F1B8
:105530003400B0F8A60D2B214843114601EBC00002
:10554000001D3439B1F8A61D2B225143FE4A02EB4F
:10555000C1018978C1EBC10100EB8100C08AB0F5BF
:105560007A7F23DBA2F13400B0F8A60D2B2148434B
:10557000114601EBC001091DA2F13400B0F8A60DDF
:105580002B225043F04A02EBC0008078C0EBC000F1
:1055900001EB8000C08A0A2190FBF1F6002304226F
:1055A00002213046FCF72EF91DE027E0E6493439A8
:1055B000B1F8A61D2B225143E34A02EBC101091D9C
:1055C000343AB2F8A62D2B235A43DF4B03EBC20229
:1055D0009278C2EBC20201EB8201C88A0023042246
:1055E0000321FCF70FF9D949D94823F074FB322283
:1055F0004FF49671D64826F07FFB05E032224FF437
:105600009671D44826F078FB78E032227821D2488F
:1056100026F072FBCC493439B1F8A61D2B22514338
:10562000C94A02EBC102121DC7493439B1F8A61D9F
:105630002B235943C44B03EBC1018978C1EBC10152
:1056400002EB81018969C54A02EB0111A3F1340221
:10565000127801EBC20032224FF4967126F04CFB17
:10566000B9483438B0F8A60D2B214843B64901EBB0
:10567000C000001D3439B1F8A61D2B225143B24A97
:1056800002EBC1018978C1EBC10100EB8100008907
:1056900040B3A2F13401B1F8A61D2B225143AA4A0E
:1056A00002EBC102121DA8493439B1F8A61D2B2303
:1056B0005943A54B03EBC1018978C1EBC10102EB52
:1056C00081010889002304220121FCF79BF8AFF631
:1056D000F0519F4823F0FFFA4A2278219C4826F097
:1056E0000BFB09E09849343909789D4A02EBC10067
:1056F0004A22782126F000FB00E000BF00BF92495B
:105700003439B1F8A61D2B2251438F4A02EBC10157
:10571000091D343AB2F8A62D2B235A438A4B03EBCA
:10572000C2029278C2EBC20211F822002946FEF7AB
:1057300063FCF8BD7CB505460120FCF71BF942F679
:10574000692026F037FE022026F08EFE6FF07F40A3
:1057500026F03BFE002438E04FF4BE70ADF80000A8
:1057600004EB4400042101EB0010062101FB0400BE
:1057700000B2ADF802004FF4EE70ADF80400601C0A
:1057800000EB4000042101EB0010062101FB0400A6
:1057900000B2ADF80600C5EBC50101EB8101714A0D
:1057A00002EB8101684A343A1278C2EBC20202EB82
:1057B000820201EB4201C4EBC40201EB42000E2263
:1057C000694626F0ADFA601CC4B2052CC4DB7CBD72
:1057D0002DE9F04707465C4C203C102601253BE0B4
:1057E000BD4203D1FF2026F0F0FD02E05E4826F026
:1057F000ECFD701C00EBD071B5EB610F0FD805EB21
:105800004500C00000F11803681E00EB4000C00016
:1058100000F11801B4226E2026F04EFB1BE006F1C9
:10582000010808EBD870A5EB600000EB4000C00059
:1058300000F11803C14609EBD970A5EB6000401ECA
:1058400000EB4000C00000F118014FF4B7724FF4B4
:10585000947026F031FB6D1CB5F5F07FC0D90220A5
:1058600026F002FE6FF07F4026F0AFFD002526E017
:10587000012D0ED134F81500B0F57A7F09D105EB72
:1058800045001A2101EBC002782138A026F034FA35
:1058900014E034F81500002303220121FBF7B2FFC6
:1058A000AFF6C4712A4823F016FA05EB45001A2119
:1058B00001EBC0027821264826F01EFA6D1C032D4C
:1058C000D6D3214934390A782449103101EBC2007A
:1058D0006222782126F010FA2189254A02EBC100C4
:1058E0007A22782126F008FA6189224A02EB011116
:1058F000154A343A127801EBC2009222782126F040
:10590000FBF9A08950B9104934390978134A02EBE0
:10591000C100AA22782126F0EFF90AE0A08900232D
:1059200002221946FBF76EFFAA227821084826F0CA
:10593000E3F9E189094A02EB0111034A343A12788A
:1059400001EBC200C22217E0F40F0010540406005D
:10595000740F0010283C02004840020030E40500AB
:1059600040E5050054D405003366CC004B45590092
:1059700078E50500B0E40500782126F0BDF9218A1C
:10598000FE4A02EB0111FE4A127801EBC2001A2214
:105990004FF4967126F0B0F9618AF84A02EB0111D2
:1059A000F74A127801EBC20032224FF4967126F0CA
:1059B000A3F9A18AF34A02EB0111F14A127801EB33
:1059C000C2004A224FF4967126F096F9E18AEB4A1A
:1059D00002EB0111EA4A127801EBC20062224FF495
:1059E000967126F089F9218BE44A02EB0111E44A11
:1059F000127801EBC2007A224FF4967126F07CF9FE
:105A0000618BDE4A02EB0111DD4A127801EBC20024
:105A100092224FF4967126F06FF9A08B80B1A08B83
:105A2000002302220121FBF7EDFED7A1D74823F086
:105A300052F9AA224FF49671D44826F05DF909E094
:105A4000CF490978CD4A02EBC100AA224FF49671E2
:105A500026F052F9E18BCE4A02EB0111C84A1278C6
:105A600001EBC200C2224FF4967126F045F9384688
:105A7000FFF760FEBDE8F0871CB50120FBF77AFF59
:105A8000022026F0F1FC6FF07F4026F09EFC0024FF
:105A90002BE04FF4BE70ADF8000004EB440004218D
:105AA00001EB0010062101FB040000B2ADF802007A
:105AB0004FF4EE70ADF80400601C00EB40000421D0
:105AC00001EB0010062101FB040000B2ADF8060056
:105AD000B04901EB4411AA4A127801EB02100E22E0
