:020000040002F8
:100000005028001081430300894303008B43030001
:100010008D4303008F430300914303000000000061
:1000200000000000000000000000000093430300F7
:10003000954303000000000097430300097E02007F
:100040009B430300E307020077080200B3080200A5
:10005000C50802004F6C03009B4303009B43030051
:10006000676C03009B4303009B4303009B43030017
:100070009B4303009B4303009B4303009B430300FC
:100080009B4303009B4303009B4303009B430300EC
:100090009B4303009B4303009B4303009B430300DC
:1000A000499703009B4303009B4303009B430300CA
:1000B0009B4303009B4303009B4303009B430300BC
:1000C0009B4303009B4303009B4303009B430300AC
:1000D0009B4303009B430300970502009B430300DF
:1000E0009B43030000F002F800F076F80AA090E8C5
:1000F000000C82448344AAF10107DA4501D100F0E3
:100100006BF8AFF2090EBAE80F0013F0010F18BF39
:10011000FB1A43F001031847F07A0400107B040037
:100120000A444FF0000C10F8013B13F0070408BF1D
:1001300010F8014B1D1108BF10F8015B641E05D0BB
:1001400010F8016B641E01F8016BF9D113F0080F70
:100150001EBF10F8014BAD1C0C1B09D16D1E58BF02
:1001600001F801CBFAD505E014F8016B01F8016B39
:100170006D1EF9D59142D6D37047000000230024AC
:1001800000250026103A28BF78C1FBD8520728BFA7
:1001900030C148BF0B607047662928F08884672902
:1001A00028F0858464291EF0078273291EF0E987F0
:1001B000002070471FB51EF027FD0400002000211D
:1001C00027F02AFA401C60600020002127F03AFA4C
:1001D000E0601FBD10B510BD1FF00CFB1146FFF70E
:1001E000E9FF00F023F91FF07DFD03B4FFF7F2FFF4
:1001F00003BC1FF081FD000040F20120824908602D
:100200008249C1F88401804908310860091D0860ED
:10021000091D0860091D0860091D0860091D0860A6
:10022000091D0860091D0860091D0860091D086096
:10023000091D0860091D0860091D0860091D086086
:10024000714980310860091D0860091D0860091D99
:100250000860091D0860091D0860091D0860091D66
:100260000860091D0860091D0860091D0860091D56
:100270000860091D0860091D0860091D08606249C1
:10028000D4310860091D0860091D08605E494439C1
:1002900008605D49E4310860091F08605A49E83187
:1002A0000860594940390860091D0860091D086047
:1002B000554930390860544920390860524910398D
:1002C0000860091D086070472DE9F04100BF00BFBC
:1002D0004F48006840F400604D49C439C1F8C4007B
:1002E00041F61F704B49086001204B49086000200F
:1002F0008860FFF781FF494800684949B0FBF1F782
:100300004348C438D0F8000100B17F084FF47A7038
:10031000B0FBF7F404F11300B0FBF4F03E490863BE
:100320000F204863002088630120C86304F1130094
:10033000B0FBF4F0801C08640120486404F13E0026
:10034000B0FBF4F0886404F13E00B0FBF4F0C86444
:100350000F20086504F13E00B0FBF4F04865012071
:100360008865886240F203302E4908604FF4D060FF
:100370002949C1F800016421012000F0B4F940F2DC
:10038000831025490862C821012000F0ACF940F231
:1003900003102149086202204862002600E0761C12
:1003A000802EFCD341F68465A5F1100085B22D1195
:1003B00005FB07F04FF47A71B0FBF1F085B21648F7
:1003C00045628320144908621748058800200862A6
:1003D0001448001F006840F40020C1F8000101210A
:1003E000084600F080F90121084600F07CF9094830
:1003F000006820F01F0848F011000549C439C1F811
:10040000DC01BDE8F081000080C1024000C0024074
:10041000C4C00F40DCC10F4000C0092078010010AB
:1004200040420F0004C10920003003A0002014F056
:10043000E8FB044600206C4908601D200121814032
:100440004209920002F1E022C2F8001100BF62B638
:100450006648B4FBF0F0411EB1F1807F00D31DE08F
:1004600021F07F40401E4FF0E022506150171F22C4
:10047000002807DAD3061E0E5D4B00F00F052D1F76
:100480005E5503E0D3061D0E5A4B1D5400BF0020DD
:100490004FF0E02290610720106100BF17F088F84C
:1004A00002205549086000205449088054490870CA
:1004B000544908703CE050480068801E182835D226
:1004C000DFE800F00C3412150F30343418341B34CC
:1004D00034342124272A2D34341E343107F054FFBC
:1004E00025E008F0E1FA22E009F03BFA1FE009F00C
:1004F00084FA1CE012F0AFF919E00FF044F816E0AE
:1005000010F02EFB13E00EF0EFFF10E008F04EF8B5
:100510000DE008F018FA0AE008F081FA07E00EF0A2
:10052000C2FB04E003E010F0D6FA00E000BF00BF19
:10053000C1E72DE9F041012133A018F003FD074682
:10054000002F25DD4FF47A6232480168384618F0F2
:10055000D9FD022130A018F0F5FC0446002C11DD75
:10056000002500BF4FF47A622A480168204618F03F
:1005700033FF064635442B488542F3D3204618F016
:10058000C2FF01E0BDE8F081384618F0BCFF00E092
:10059000F8E700BFF6E710B500220621104614F078
:1005A0009AF930B10920204908604021002014F058
:1005B000BDF900220521104614F08DF930B10C2050
:1005C000194908602021002014F0B0F90022072109
:1005D000104614F080F930B10E20134908608021D4
:1005E000002014F0A3F910BDCC000010A08601007B
:1005F00018ED00E000E400E02001001018010010F8
:100600001A0100101B0100104D53524541442E5455
:10061000585400000C0200105A43353532302E5425
:1006200058540000809698002401001010B5FE4830
:1006300090F89E00FD490860FB4890F89E00086015
:10064000F94890F89E00086008460068072802D91B
:10065000084600680860F44890F89E00F349086076
:1006600008460068082803D108460068401C086056
:10067000EF480068EF49096888421DD0ED480068DE
:10068000EB490860EC480078002804DDEA4800786F
:10069000401EE9490870E848007820B9E24890F81F
:1006A0009E00002809DCE448007820B9DE4890F874
:1006B0009E0000B910BDFDE7FCE7DB4890F89E0006
:1006C000042800DA09E0D8480478DC48807BA0429E
:1006D00000D002E016F023FE00BF0020D24981F8CE
:1006E0009E0000BFE6E7F8B902224FF040235A60AF
:1006F0000022DA60D24A12684FF47A73B2FBF3F246
:10070000521E4A434FF040239A61FF221A6004228E
:100710005A6101225A6000BF4FF04022526802F035
:100720000102002AF8D15BE001281CD10222C54B4E
:100730005A600022DA60C24A12684FF47A73B2FB40
:10074000F3F2521E4A43BF4B9A61FF221A60042201
:100750005A6101225A6000BFBA4A526802F001028F
:10076000002AF9D13CE002281CD10222B64B5A6083
:100770000022DA60B24A12684FF47A73B2FBF3F2E5
:10078000521E4A43B04B9A61FF221A6004225A61FA
:1007900001225A6000BFAC4A526802F00102002AEE
:1007A000F9D11DE003281BD10222A84B5A60002278
:1007B000DA60A34A12684FF47A73B2FBF3F2521E66
:1007C0004A43A24B9A61FF221A6004225A61012215
:1007D0005A6000BF9D4A526802F00102002AF9D116
:1007E000704710B501204FF040210860984800681C
:1007F000062813D197480078401C9649087008468F
:100800000078092810DD0020087001209249087046
:1008100092480089401C9149088105E08D48007884
:1008200010B100208B4908708448407B88B98C48FF
:100830000078401C8A49087008460078092808DDBD
:10084000002008707B480068401C7A490860FFF768
:10085000EDFE00240CE0834850F8240030B18148BC
:1008600050F82400401E7F4941F82400601CC4B2A7
:10087000062CF0DB10BD10B50120724908607A48E3
:100880000078401C784908707148006806280FD12C
:10089000084600780A2802D107F043FB08E07248B6
:1008A0000078142804DB00206F49087007F03FFB34
:1008B00010BD0120644908606C480068401C6B4909
:1008C0000860704701206149086069480068401C61
:1008D00067490860704720B901214FF040225160FC
:1008E00010E0012803D10121564A51600AE0022894
:1008F00003D10121544A516004E0032802D10121AF
:10090000524A5160704720B900214FF04022516097
:1009100010E0012803D100214A4A51600AE0022870
:1009200003D10021484A516004E0032802D100218C
:10093000454A51607047014631B94FF04022506836
:1009400040F00200506016E0012905D13D4A506890
:1009500040F0020050600EE0022905D13A4A50688A
:1009600040F00200506006E0032904D1374A506885
:1009700040F002005060704770B505460C46F5B96E
:1009800000203C4908603C48006840F002003A49B9
:10099000C439C1F8C4004FF04020406840F0020064
:1009A0004FF0402148604DF20B50C860084684610A
:1009B00003204861012000F07CF8012070BD012D6A
:1009C0001CD100202D4908602B48006840F004002D
:1009D0002949C439C1F8C4001A48406840F00200EF
:1009E000184948604EF65F20C860084684610320BD
:1009F0004861022000F05DF80120DFE7022D3FD1C1
:100A000000201A4908601C48006840F480001A4918
:100A1000C439C1F8C4000C48846103200A49486104
:100A200000F047F80120C9E7391700101C0000103A
:100A3000140000101000001090010010BC0F0010F6
:100A40007C01001000800040000009400040094087
:100A50002001001020000010FA00001030030010E8
:100A600021000010900B0010220000100800001060
:100A70000C00001000000010C4C00F400400001063
:100A8000032D14D10020104908601048006840F47C
:100A900000000E49C439C1F8C4000D488461032028
:100AA0000B494861042000F004F8012086E700208B
:100AB00084E700F01F02012191404209920002F1F7
:100AC000E022C2F8001170470C000010C4C00F40B3
:100AD0000040094008B5B0B1F949896941F0010108
:100AE000F74A916142F21071009108E0F449896976
:100AF00041F40061F24A91610099491E0091009908
:100B00000029F3D115E0EE49896921F40061EC4A2E
:100B1000916142F21071009102E00099491E00912A
:100B200000990029F9D1E649896921F00101E44AD7
:100B3000916108BDE34A002102E008C808C2491CCF
:100B40008029FAD3704750B506460C4600BF2720CF
:100B5000DD490860DD49C1F81801DD490860091D5B
:100B60000860091D0860DA494C390860091D0860F1
:100B7000091D0860091D0860091D0860091D08603D
:100B8000D34918310860D24934390860091D08601A
:100B9000091D0860091D0860CD4914390860CC4959
:100BA00008390860CA4910390860C849C1F81001FD
:100BB000C848006A40F00200C64908620846806BD7
:100BC00040F0040088630846006840F002000860B6
:100BD0000846806940F02A008861BF48D0F8C40008
:100BE00040F00100BC49C1F8C400BC48006820F0D6
:100BF0000100BA4908600020B1498861084680694F
:100C000020F00E0088610846806940F00C00886181
:100C10000846806940F0200088610846806920F01D
:100C2000800088610846806920F4807088610846E9
:100C3000806920F4007088610846806920F4806033
:100C400088610846806920F400608861A4480068D3
:100C5000A449B0FBF1F0A049C1F8B80198488068F8
:100C600040F08060964988600846806820F0200047
:100C700088600846806840F40060886008468068A4
:100C800040F4805088600846806820F400508860F6
:100C90000846806820F48040886008468068924951
:100CA000084087498860084680689049084384491D
:100CB0008860002008600846006840F01C5008600A
:100CC0000846006840F4802008600846006840F448
:100CD000807008600846006840F0740008600020DA
:100CE00048600846406840F0006048600846406838
:100CF00040F4002048600846406840F48060486046
:100D00000846406840F20F1108436D494860784832
:100D10000861486114B12046FFF70CFF50BD744ACA
:100D2000002102E022F8020B491CB1F5FF3FF9D384
:100D3000704730B56E4BB0F5F07F02DAB1F5887FC1
:100D400000DB30BDC1EB011500EB451403EB4403A0
:100D50001A8000BFF5E72DE9F04F04460D46914695
:100D60009A46DDF824B04C4503DD0FFA89F7A14619
:100D7000BCB2554503DD0FFA8AF7AA46BDB2A9EB0E
:100D800004000FFA80F8AAEB050006B2B8F1000FD4
:100D90000BD100BF5A4629462046FFF7CAFF681C00
:100DA00085B2AA45F6DABDE8F08F56B900BF5A46BB
:100DB00029462046FFF7BDFF601C84B2A145F6DA44
:100DC000F1E7B04521DDC8EB460007B215E05A4611
:100DD00029462046FFF7ADFF601C84B2002F08DDD6
:100DE000681C85B27000022101FB1800384407B26C
:100DF00003E0022000FB067007B24C45E7D15A46DB
:100E000029462046FFF795FF20E0C6EB480007B2D1
:100E100015E05A4629462046FFF78BFF681C85B22D
:100E2000002F08DD601C84B27000022101FB180055
:100E3000384407B203E0022000FB067007B25545B4
:100E4000E7D15A4629462046FFF773FF00BFAAE7BD
:100E50002DE9F84105460E4617469846079CA0B274
:100E600033463A46314600902846FFF774FFA0B259
:100E700043463A46414600902846FFF76CFFA0B231
:100E800043462A46314600902846FFF764FFA0B249
:100E900043463A46314600903846FFF75CFFBDE8CE
:100EA000F8812DE9F0411C46069FC1EB011CDFF8DB
:100EB000408008EB8C1C0CEB400300262AE000006D
:100EC000008008200082082074C2024000C0024056
:100ED0001CC102400080092000C00F40008C082087
:100EE0007C0100109C997400FFFF00FC0000DF01F2
:100EF000000001A0002502E023F8027B6D1CA2EB9C
:100F0000000CAC45F8D8A2EB000CCCF5F07C03EB60
:100F10004C03761CA4EB010CB445EBD8BDE8F08182
:100F20002DE9F04704460D461746784200214FEA66
:100F30004708C8F10202F94E00BFA4EB000805EB18
:100F400001094FF4F07A0AFB098846F8283004EBCF
:100F5000000805EB01090AFB098846F8283004EB74
:100F60000008A5EB01090AFB098846F82830A4EB24
:100F70000008A5EB01090AFB098846F828309446C9
:100F80008C450DDC01F1010841464FF0010909EBE8
:100F900048084244C84203D1844501DC4FF0000CAC
:100FA000844507DD00F1010840464FF0010909EBD7
:100FB000480842440028C0DDBDE8F08770B505460A
:100FC0000E461446A2B231462846FFF7B2FE70BD67
:100FD0002DE9FF5F06460F4690469946DDF838B08A
:100FE0004146684600F0A8FC00241DE01DF804A05E
:100FF000002516E0C5F107004AFA00F000F00100F4
:1010000038B13A1991B2721990B24A46FFF791FE7F
:1010100006E03A1991B2721990B25A46FFF789FE6A
:101020006D1C082DE6D3641C102CDFD3BDE8FF9F98
:101030002DE9FE4F06460F4690469946DDF830B042
:101040004146684600F085FC002415E01DF804A028
:1010500000250EE0C5F107004AFA00F000F001009B
:1010600030B13A1991B2721990B24A46FFF761FE57
:101070006D1C082DEED3641C0C2CE7D3BDE8FE8F4D
:101080002DE9F84305460E4614469846DDF82090B3
:1010900000BF14F8017B43463A4631462846CDF856
:1010A0000090FFF795FFB5F5EC7F03DA05F1080036
:1010B00085B208E0FF2E04DC002506F1100086B2A0
:1010C00001E00025002620780028E2D1BDE8F88361
:1010D0002DE9FF4F074688469B463C464546BA46A3
:1010E00046464FF0000915E0A4F1140188B22946E4
:1010F000029AFFF71EFE601C84B2A6F1140081B2B2
:101100005046029AFFF715FE701C86B209F10100E5
:101110001FFA80F9B9F1280FE6DB3C464546BA468E
:1011200046464FF000092BE0A5F1140291B2A4F15C
:10113000140290B25A46FFF7FCFD05F1140291B279
:10114000A4F1140290B25A46FFF7F3FD601C84B27A
:10115000A6F1140291B2AAF1140290B25A46FFF716
:10116000E8FDA6F1140291B20AF1140290B25A46B7
:10117000FFF7DFFD701C86B209F101001FFA80F94C
:10118000B9F10A0FD0DB3C464546BA4646464FF019
:1011900000092BE0A5F1140291B204F10A0290B209
:1011A0005A46FFF7C6FD05F1140291B204F10A0296
:1011B00090B25A46FFF7BDFD601C84B206F10A02E8
:1011C00091B2AAF1140290B25A46FFF7B2FD06F1AD
:1011D0000A0291B20AF1140290B25A46FFF7A9FD31
:1011E000701C86B209F101001FFA80F9B9F10A0FEB
:1011F000D0DBBDE8FF8F10B50246002112E001EB05
:101200008110474B185C1378984209D1507801EB54
:101210008113434C23445B78984201D1084610BDAA
:10122000481C81B20029EAD00020F8E710B5024638
:10123000002114E001EB01103A4B13F81000137871
:1012400098420AD1507801EB0113364C04EB43036A
:101250005B78984201D1084610BD481C81B2B22982
:10126000E8D30020F8E72DE9F04F04460F46154675
:101270009846A3464FF0000900262FE0099810F881
:1012800006904FF0000A23E009F0800038B12648AC
:10129000008882B239462046FFF74BFD06E022481F
:1012A000808882B239462046FFF743FD4FEA496005
:1012B0004FEA1069601C84B2A4EB0B00A84203D172
:1012C0005C46781C87B206E00AF1010000F0FF0AD4
:1012D000BAF1080FD8DB00BF701C86B205FB08F01E
:1012E000C11700EB5171B6EBE10FC7DBBDE8F08F22
:1012F0002DE9F04F0546894692469B46A8460026B2
:10130000BBF1000F3CD1002437E00AEB0A1005497D
:1013100001EB4000801C065D002729E0000001A0D1
:10132000AE8B0400EF8B04002400001006F0800058
:1013300038B1FD48008882B249462846FFF7F9FCDB
:1013400006E0F948808882B249462846FFF7F1FC5A
:101350007006060E681C85B2A5EB0800102805D1A2
:10136000454609F101001FFA80F903E0781CC7B275
:10137000082FDBDB00BF601CC4B2202CC5DB33E0D0
:1013800000242FE00AEB0A10E84901EB4000801C22
:10139000065D002721E006F0800038B1E248808831
:1013A00082B249462846FFF7C4FC06E0DE480088C2
:1013B00082B249462846FFF7BCFC7006060E681C40
:1013C00085B2A5EB0800102805D1454609F10100BA
:1013D0001FFA80F903E0781CC7B2082FDBDB00BFDF
:1013E000601CC4B2202CCDDBBDE8F08F2DE9F04F9E
:1013F0000546894692469B46A8460026BBF1000F4B
:1014000033D100242EE00AEB8A10C9490844801C1D
:10141000065D002721E006F0800038B1C248008850
:1014200082B249462846FFF784FC06E0BE48808821
:1014300082B249462846FFF77CFC7006060E681CFF
:1014400085B2A5EB0800182805D1454609F1010031
:101450001FFA80F903E0781CC7B2082FDBDB00BF5E
:10146000601CC4B23F2CCEDB32E000242EE00AEB3D
:101470008A10AF490844801C065D002721E006F071
:10148000800038B1A848808882B249462846FFF7D4
:1014900050FC06E0A448008882B249462846FFF77F
:1014A00048FC7006060E681C85B2A5EB08001828DB
:1014B00005D1454609F101001FFA80F903E0781CC7
:1014C000C7B2082FDBDB00BF601CC4B23F2CCEDBF1
:1014D000BDE8F08FF0B504460D4616461F463B4664
:1014E000224631462846FFF781FF1820F0BDF0B5AF
:1014F00004460D4616461F463B46224631462846C0
:10150000FFF7F6FE1220F0BD2DE9F84306460D4622
:1015100014461F464FF00008C14654E0207800B939
:1015200052E006EB090086B2207880281ADD06F129
:101530001800B0F5F07F07DD002605F1160085B232
:10154000B5F5887F00DD00252046FFF754FE1FFA21
:1015500080F83B462A4631464046FFF7BBFF8146AE
:10156000A41C2FE020780D280AD105F1160085B2C1
:10157000B5F5887F00DD0025641C4FF0000922E0EE
:1015800020780A2804D10026641C4FF000091AE0D4
:1015900006F10C00B0F5F07F07DD002605F10C0028
:1015A00085B2B5F5887F00DD00255F48808880B270
:1015B00000905D48008883B2227829463046FFF7C4
:1015C00007FD641C00BFA9E700BFBDE8F8832DE953
:1015D000F84305468846144600263FE0207800B9C7
:1015E0003DE02078302807DB2078392804DC20789B
:1015F00030381FFA80F919E020782E2802D14FF0F8
:101600000A0913E020782D2802D14FF00B090DE0D4
:101610002078202802D14FF00C0907E020785628C6
:1016200002D14FF00D0901E04FF00E094FEA4917C2
:10163000F81707EB5070C01000EBC001C1EB801031
:101640003C490844A919009088B23723202241461A
:10165000FFF709FE641C06F1200086B2BEE700BF5A
:10166000BDE8F8832DE9F84306460D4614461F46AB
:101670004FF00008C14656E0207800B95CE006EB68
:10168000090086B2207880281ADD06F11000B0F536
:10169000F07F07DD002605F1100085B2B5F5887FE3
:1016A00000DD00252046FFF7C1FD1FFA80F83B460C
:1016B0002A4631464046FFF71AFF8146A41C31E016
:1016C00020780D280AD105F1100085B2B5F5887F84
:1016D00000DD0025641C4FF0000924E020780A2872
:1016E00004D10026641C4FF000091CE006F108003C
:1016F000B0F5F07F07DD002605F1100085B2B5F5E5
:10170000887F00DD00250848808880B20090064868
:10171000008883B2227829463046FFF759FC641CC2
:101720004FF00A0900BFA7E724000010EF8B040068
:10173000AE8B0400A3C4040000BFBDE8F8832DE90C
:10174000F84306460D4614461F464FF00008C146B2
:1017500056E0207800B954E006EB090086B2207804
:1017600080281ADD06F11000B0F5F07F07DD0026B5
:1017700005F1100085B2B5F5887F00DD0025204613
:10178000FFF754FD1FFA80F83B462A463146404693
:10179000FFF7ADFE8146A41C31E020780D280AD168
:1017A00005F1100085B2B5F5887F00DD0025641CC9
:1017B0004FF0000924E020780A2804D10026641C98
:1017C0004FF000091CE006F10800B0F5F07F07DDDE
:1017D000002605F1080085B2B5F5887F00DD0025FB
:1017E0005248808880B200905048008883B22278A6
:1017F00029463046FFF71CFC641C4FF0080900BF67
:10180000A7E700BFBDE8F883F0B504461D46062AE9
:1018100000DD0A2202B90122052900DD05219142DD
:1018200000DD1146002004E02026414F3E54461CB6
:10183000F0B20C28F8D310460FE00A26B4FBF6F7F6
:1018400006FB17463036471EDFF8E4C00CF8076089
:101850000A26B4FBF6F4461EF0B20028EDDC89B18E
:101860001346084605E05E1E314FBE5DFE545E1E07
:10187000F3B2061EA0F10107F8B2F4D12E262C4FC8
:10188000FE5402E020262A4FBE54A5B900200EE0E7
:10189000274E365C302E07D1254F461CBE5D2E2EBE
:1018A00002D020263E5400E004E0461CF0B2561E52
:1018B0008642EDDC00BF561CF2B2104604E0002662
:1018C0001B4F3E54461CF0B20C28F8D3F0BD30B587
:1018D000184A00210BE08478457844EA052405780D
:1018E00044EA054308C2401C401C401C491CB1F599
:1018F000FF3FF0D330BD70B50E4B002112E0002247
:101900000CE005782D04467845EA0625867845EAF8
:10191000060410C3401C401C401C521CB2F5F07F52
:10192000EFD3491CB1F5887FE9D370BD24000010C6
:10193000700F0010000001A070B505460C46A4F120
:1019400020000B4A02EB0011102228461DF023F85C
:1019500070BDA1F1200202EB4202064B03EB8202B2
:1019600013680360536843609268826070470000A8
:1019700093A3040083A904003EB5054642F66920FE
:1019800020F077FB00241DE0F74841000322CDE959
:1019900000210290601C00EB4000042202EB0010CA
:1019A000062202FB040304EB4400042202EB0010B5
:1019B000062202FB04014FF4EE724FF4BE7020F0D9
:1019C0002DF8641C052CDFD33EBD10B542F669200E
:1019D000E64948604FF6FF7008600023E4A2F12159
:1019E0005420FFF73FFE0023E3A2F121A420FFF7DC
:1019F00039FE10BD70B5054642F66920DB494860E6
:101A00004FF6FF700860A5B900240FE004EB440115
:101A1000DB4B03EB410204EB8401542303EB011085
:101A20000023F121FFF71EFE601CC4B2052CEDDB84
:101A300014E0002410E0611D01EB4101D04B03EBE9
:101A4000410204EB8401542303EB01100023F12134
:101A5000FFF708FE601CC4B2052CECDB70BD10B5AE
:101A600042F66920C14948604FF6FF7008600023C4
:101A7000C4A2F1215420FFF7F5FD10BD10B542F6C8
:101A80006920BA4948604FF6FF7008600023C0A281
:101A9000F1215420FFF7E6FD10BD10B50446002CDF
:101AA00039D14FF6FF70B149086042F669204860AD
:101AB0000023B8A2E7215420FFF7D4FD0023B7A2EA
:101AC000FB215420FFF7CEFD0023B2A2E721A42082
:101AD000FFF7C8FD0023B3A2FB21A420FFF7C2FD3E
:101AE0000023B2A2E721F420FFF7BCFD0023ADA242
:101AF000FB21F420FFF7B6FD0023ACA2E7214FF451
:101B0000A270FFF7AFFD0023AAA2FB214FF4A27041
:101B1000FFF7A8FD2EE0012C2CD14FF6FF70934962
:101B2000086042F6692048600023A4A2E7215420FF
:101B3000FFF798FD0023A3A2FB215420FFF792FD9D
:101B40000023A2A2E721A420FFF78CFD0023A1A27D
:101B5000FB21A420FFF786FD0023A0A2E7214FF47C
:101B6000CA70FFF77FFD00239EA2FB214FF4CA70CD
:101B7000FFF778FD10BD10B54FF6FF707B49086088
:101B800042F669204860002398A2E7215420FFF71D
:101B900069FD002397A2FB215420FFF763FD00237A
:101BA00096A2F1214FF4A270FFF75CFD002396A2EC
:101BB000F1214FF4CA70FFF755FD10BD10B5044672
:101BC0000CB1012C33D14FF6FF706849086042F622
:101BD0006920486000238FA2F1215420FFF742FDC5
:101BE00000238FA2E721A420FFF73CFD00238EA253
:101BF000FB21A420FFF736FD00238DA2E721F4206E
:101C0000FFF730FD002388A2FB21F420FFF72AFD17
:101C100000237AA2F1214FF4A270FFF723FD0023E5
:101C200079A2F1214FF4CA70FFF71CFD26E04FF6B0
:101C3000FF704E49086042F669204860002375A293
:101C4000F1215420FFF70EFD002377A2E721A42005
:101C5000FFF708FD002378A2FB21A420FFF702FD77
:101C6000002366A2F1214FF4A270FFF7FBFC0023D2
:101C700065A2F1214FF4CA70FFF7F4FC10BD10B556
:101C80000446002C39D14FF6FF703849086042F6FF
:101C90006920486000233FA2E7215420FFF7E2FCBF
:101CA00000233EA2FB215420FFF7DCFC002339A2D5
:101CB000E721A420FFF7D6FC00233AA2FB21A420B1
:101CC000FFF7D0FC002339A2E721F420FFF7CAFC7C
:101CD000002334A2FB21F420FFF7C4FC002333A22D
:101CE000E7214FF4A270FFF7BDFC002331A2FB21D6
:101CF0004FF4A270FFF7B6FC34E0012C32D14FF65E
:101D0000FF701A49086042F66920486000232BA240
:101D1000E7215420FFF7A6FC00232AA2FB21542030
:101D2000FFF7A0FC002321A2E721A420FFF79AFCE3
:101D300000231CA2FB21A420FFF794FC002340A257
:101D4000F121F420FFF78EFC002324A2E7214FF4B9
:101D5000CA70FFF787FC002322A2FB214FF4CA7050
:101D6000FFF780FC10BD0000404040002400001040
:101D7000206DCEA92020000020CEA9200000000068
:101D8000E55F050020E7A1AEE8AEA420000000005A
:101D90002A310000E6B58BE9878F0000E698BEE7A0
:101DA000A4BA0000E8AEBEE7BDAE0000E7B3BBE7F3
:101DB000BB9F0000E4BFA1E681AF0000E69687E488
:101DC000BBB60000E7AEA1E790860000E4BF9DE54A
:101DD000AD980000E695B0E68DAE0000E69BB4E558
:101DE000A49A000020322F3200000000E6B885E9F6
:101DF00099A40000E8A1A8E6A0BC0000E4B88AE429
:101E0000B880E9A1B5000000E4B88BE4B880E9A18E
:101E1000B5000000E588A0E999A4E8A18C000000C5
:101E2000E7BABFE680A70000E887AAE58AA8000015
:101E3000E5AFB9E695B00000E5A48DE588B60000F1
:101E4000E5B7A5E585B7000010B54FF6FF70FE4970
:101E5000086042F6692048600023AFF2C802E7211B
:101E60005420FFF7FFFB0023AFF2D002FB215420E8
:101E7000FFF7F8FB0023AFF2E402E721A420FFF70D
:101E8000F1FB0023AFF2E402FB21A420FFF7EAFB01
:101E90000023AFF2E802E721F420FFF7E3FB002381
:101EA000AFF20012FB21F420FFF7DCFB0023AFF2BE
:101EB0000412E7214FF4A270FFF7D4FB0023AFF226
:101EC0000C12FB214FF4A270FFF7CCFB10BD38B50C
:101ED00004460020182340F2E11201460090FEF76C
:101EE000E0FF0020D84948604FF6FF7008600023EB
:101EF000D6A203210420FFF7B5FB38BD08B543F691
:101F0000AC1020F0B6F80520FD234FF4BA725C2126
:101F1000009004201FF050FE08BD10B504464AF2A0
:101F2000FF5020F0A6F8CB4820F0B4F81823C022C8
:101F3000002108461FF014FE002020F09AF802202D
:101F400020F0E6F8C44901EB4411C44A127801EBD1
:101F50000210022200211FF023FD10BD10B5002049
:101F6000FFF7DBFFFFF7CAFF10BD7CB50546002079
:101F700020F0CEF842F6692020F070F86FF07F4034
:101F800020F077F800242EE04FF4BE70ADF800008A
:101F900004EB4400042101EB0010062101FB0400C6
:101FA00000B2ADF802004FF4EE70ADF80400601C12
:101FB00000EB4000042101EB0010062101FB0400AE
:101FC00000B2ADF80600C4EBC401A54A02EB8101E2
:101FD000A24A1278C2EBC20201EB42000E2269460D
:101FE0001FF0F2FC641C052CCED37CBD10B5FFF7AE
:101FF000B5FF0020FFF7C0FC0020FFF7B6FF00246C
:102000001FE0032C0ED2974800EB0412601C00EB7B
:1020100040001A2303EBC00081B200230420FFF725
:1020200021FB0DE08F4800EB0412A01E00EB4000E6
:102030001A2303EBC00081B20023B820FFF712FB84
:10204000641C062CDDD310BD08B543F6AC10BE23CE
:1020500040F2DF12702100900020FEF722FF08BD41
:1020600010B50020FFF733FFFFF7EEFF10BD08B5F6
:1020700043F6AC10A02340F2DF125621009000205E
:10208000FEF70FFF43F6AC10E32340F2DF12C1214D
:1020900000900020FEF705FF08BD10B50020FFF7F7
:1020A00016FFFFF7E4FF10BD08B543F6AC10A02300
:1020B00040F2DF12602100900020FEF7F2FE08BD22
:1020C00010B50020FFF703FFFFF7EEFF10BD10B5BE
:1020D000FFF7F6FF4FF6FF705B49086040F23F20C4
:1020E00048600023604A04211846FFF7BBFA4FF608
:1020F000FF70554908605D48486000235CA21A21C2
:102100000420FFF7AFFA00235CA232212C20FFF756
:10211000A9FA00235CA232219020FFF7A3FA002342
:102120005CA23221F420FFF79DFA00235BA232214A
:102130004FF4AC70FFF796FA00235AA232214FF405
:10214000DE70FFF78FFA0020FFF7A7FC10BD704785
:1021500000B5FFF7FCFF00BD10B50120FFF70CFC38
:102160000320FFF7DAFE4FF6FF701FF082FF3F48B3
:102170001FF074FF002422E0042C0FD24A4901EB27
:102180004411364B1B7801EB031004EB4401C900EA
:1021900001F11A0204211FF003FC0FE0424901EB98
:1021A00044112E4B1B7801EB0310211F01EB410161
:1021B000C90001F11A02B8211FF0F2FB641C072CC0
:1021C000DAD310BD70B50120FFF7D6FB0120FFF771
:1021D000A4FE4FF6FF701FF04CFF24481FF03EFF97
:1021E0001E4890F8360000EB80011C48383050F84B
:1021F00031002E490D5C00247FE004F0010008BB93
:10220000164991F8361001EB81031449383151F821
:1022100033104D235943264B03EB8101C4EBC40318
:1022200001EB83010D4B1B78C3EBC30301EB4300B0
:10223000610801EB4101C90001F11A0204211FF0FC
:10224000AFFB59E036E00000240000105A437465EB
:102250006B000000449B0500BF590500BC0F001037
:1022600033590500434B0500C15A05003366CC00C5
:10227000E696B9E5BC8F203A00000000E9A291E79C
:102280008E875B487A5D0000E794B5E5B9B35B568D
:102290005D00000043705B465D000000445B205D14
:1022A00000000000434D500054F40400A4F3040067
:1022B000F0FB0400FD4991F8361001EB8103FB4966
:1022C000383151F833104D235943F94B03EB810159
:1022D000C4EBC40301EB8301F44B1B78C3EBC303D2
:1022E00001EB4300611E01EB4101C9001A2303EB1E
:1022F0005102B8211FF054FB641CAC42FFF47DAFC7
:1023000070BD10B50446EB4901EB4411E74A127861
:1023100001EB0210F222B4211FF042FB10BD2DE9A7
:10232000F8430446204625F099FC05460022E24B7E
:1023300025F028FE0BD2E14C41F29C30ADF80000B4
:1023400002208DF8020001208DF8030080E0204675
:1023500025F084FC05460022D94B25F013FE14D845
:10236000204625F07BFC05460022D64B25F06EFA70
:10237000074625F02FFC80B2ADF8000002208DF852
:10238000020001208DF8030062E0204625F066FC83
:1023900005460022CC4B25F0F5FD14D8204625F04B
:1023A0005DFC05460022C94B25F050FA074625F092
:1023B00011FC80B2ADF8000003208DF8020001206E
:1023C0008DF8030044E0204625F048FC0546002235
:1023D000BF4B25F0D7FD14D8204625F03FFC05461D
:1023E0000022BC4B25F032FA074625F0F3FB80B201
:1023F000ADF8000001208DF8020000208DF80300E8
:1024000026E0204625F02AFC05460022AD4B25F0AB
:10241000B9FD14D8204625F021FC05460022AE4B1C
:1024200025F014FA074625F0D5FB80B2ADF8000080
:1024300002208DF8020000208DF8030008E0A0B211
:10244000ADF8000003208DF8020000208DF8030095
:102450000098BDE8F8832DE9F8430446204625F0AE
:10246000FDFB05460022944B25F08CFD0AD2934CCF
:1024700041F29C30ADF8000002208DF802008DF88A
:1024800003007EE0204625F0E9FB054600228C4B48
:1024900025F078FD14D8204625F0E0FB0546002203
:1024A000884B25F0D3F9074625F094FB80B2ADF8B0
:1024B000000002208DF8020003208DF8030060E088
:1024C000204625F0CBFB054600227F4B25F05AFD28
:1024D00014D8204625F0C2FB054600227B4B25F090
:1024E000B5F9074625F076FB80B2ADF80000012073
:1024F0008DF8020002208DF8030042E0204625F00E
:10250000ADFB05460022724B25F03CFD14D8204659
:1025100025F0A4FB054600226C4B25F097F90746F1
:1025200025F058FB80B2ADF8000001208DF80200C4
:1025300002208DF8030024E0204625F08FFB05469D
:102540000022604B25F01EFD13D8204625F086FBA7
:10255000054600225F4B25F079F9074625F03AFB46
:1025600080B2ADF8000002208DF802008DF8030063
:1025700007E0A0B2ADF8000001208DF802008DF850
:1025800003000098BDE8F88338B5044653481FF0AF
:1025900070FD53481FF062FD52481FF07BFD002084
:1025A0001FF0B6FD50490023042208680321FFF7FD
:1025B0002BF94EA14E481CF0E2F904EB8400800098
:1025C00000F1280250214A481FF0EAF9374890F8F4
:1025D0003500022822D1354890F8360000EB800102
:1025E0003248383050F8310002280BD114214148CC
:1025F0001CF092FA3F483E49096801603EA11CF078
:10260000BEF921E014213D481CF086FA3B483849C8
:102610000968016038A11CF0B2F915E014213748AF
:102620001CF07AFA354832490968016032A11CF081
:10263000A6F914212F481CF06FFA2E482C4909687E
:1026400001602DA11CF09BF9184890F8360000EBB2
:1026500080011648383050F83100052872D2DFE882
:1026600000F00304A1F3F10000BF1F4840684FF6DB
:10267000FF71884206D11E4821A10A68026089883C
:1026800081807DE00948C08D01284AD11648426802
:10269000064890F83610491E00F5FD7030F811001C
:1026A000824231D20020104948603AE0BC0F00104D
:1026B000F0FB040074F6040084D7874180F0FA022E
:1026C000D01263410088C34080842E4100408F4077
:1026D000006AF8400000594000002440FFFF8000DD
:1026E0003366CC00449B0500300300106B5600009D
:1026F000700F0010A40700106B563B0090070010ED
:102700005550504552000000FA484268FA4890F887
:102710003610491E00F5FD7030F81100101AF54909
:102720004860F648007801280DD1F24900230422C0
:1027300048680321FFF768F8F148F2490968C0F8D2
:1027400007101DE0B0E0ED48007868B9E9490023C2
:10275000042248680221FFF757F8E948E949D1F80F
:102760000110C0F807100BE0E2490023042248687A
:102770000121FFF749F8E248E3A10968C0F8071012
:10278000E3A1DF481CF0FBF8E2A1DE481CF0F7F8FB
:1027900004EB8400800000F12802A021D9481FF03A
:1027A000FFF882E0D3484068DB4988420AD1D54827
:1027B000DAA10A68026049684160DBA1DC481CF0CC
:1027C000DEF81CE0CB494868FFF745FE0090D94889
:1027D0000099016002469178108800230422FFF7D7
:1027E00013F8D448C07800EB4000D34A02EB400114
:1027F000C4481CF0C4F8C349CD481CF0C0F804EB31
:102800008400800000F12802A021BE481FF0C8F813
:10281000C848C07820B9C9A1C5481CF0B0F810E07C
:10282000C448C078012804D1C5A1C1481CF0A7F84C
:1028300007E0C048C078022803D1C2A1BC481CF000
:102840009EF832E02FE0FFE7AA4840684FF6FF719C
:10285000884206D1AB48B1A10A680260496841606C
:102860000EE0A4494868FFF75AFD0090B14800996E
:10287000016002469178108800230422FEF7C4FF0D
:10288000AC48C07800EB4000AF4A81189D481CF06E
:1028900076F804EB8400800000F12802A02199481A
:1028A0001FF07EF801E000E000BF00BF91490889F9
:1028B000012304221946FEF7A7FFA4A191481CF0AA
:1028C0005EF8F32254218F481FF06AF8A049087877
:1028D000FFF717FD38BD2DE9F8430446204625F0E3
:1028E000BDF9054600229B4B25F04CFB13D8204632
:1028F00025F0B4F905460022974B24F0A7FF0746C0
:1029000025F068F980B2ADF8000002208DF80200D1
:102910008DF8030025E0204625F0A0F905460022A9
:102920008E4B25F02FFB13D8204625F097F905464E
:1029300000228B4B24F08AFF074625F04BF980B22A
:10294000ADF8000002208DF802008DF8030008E0C9
:10295000A0B2ADF8000003208DF8020001208DF830
:1029600003000098BDE8F88338B50120FFF704F8AC
:102970000520FFF7D2FA6FF07F401FF07AFB79480D
:102980001FF088FB00240FE0774A02EB44125A4BF9
:102990001B7802EB031004EB8402642303EB0211A7
:1029A00028221EF0FDFF641C032CEDD36F481FF09E
:1029B00071FB00241EE0601C00EB800080002830CA
:1029C00002B202231421601C1EF042FF611C01EBC5
:1029D0008101890001F12802611C01EB8103464954
:1029E000383151F83310624B03EBC10032211EF035
:1029F000D7FF641C404890F83500A042DBD85D4802
:102A00001FF037FB57481FF045FB002468E0611CAE
:102A100001EB81023849383101EBC2010023042265
:102A200048680321FEF7F0FEAFF2403135481BF055
:102A3000A6FF601C00EB8000800000F128025021FE
:102A400030481EF0ADFF611C01EB81022A4938318C
:102A500001EBC2018868FFF73EFF00909DF802106D
:102A6000BDF8000000230422FEF7CEFE601C00EB40
:102A700080012148383050F8310040B1601C00EB33
:102A800080011D48383050F83100012804D13A49FE
:102A90001C481BF074FF13E0601C00EB800116481B
:102AA000383050F8310002280AD19DF80300324A2C
:102AB000103A02EB001000F1080112481BF05FFF12
:102AC000601C00EB8000800000F12802A0210D486E
:102AD0001EF066FF64221146EA201EF0A5FE641C6B
:102AE000054890F83500A04291D81E481FF0D2FA50
:102AF00038BD000030030010BC0F0010FB000010B8
:102B000090070010700F0010302E303000000000D1
:102B10006D413B006D412000F6FF090055505045C6
:102B200052202020000000003E39393939000000D1
:102B3000A40700102C000010EB5E05006B3B0000AA
:102B40004D3B0000473B0000216005002073000062
:102B500024010010006AF8400000594000409F40E6
:102B600000002440449B0500F4F30400F4520600E6
:102B70004C410500FFFF8000A441050038B501204D
:102B8000FEF7FAFE0020FFF7C8F96FF07F401FF054
:102B900070FAF8481FF062FA002448E004F00100DF
:102BA00010BBF54991F8361001EB8103F249383139
:102BB00051F833104D235943F04B03EB8101C4EB23
:102BC000C40301EB8301EC4B1B78C3EBC30301EBA4
:102BD0004300611C490801EB4101C90001F11A02DF
:102BE00004211EF0DDFE21E0E34991F8361001EBEF
:102BF0008103E149383151F833104D235943DF4BFC
:102C000003EB8101C4EBC40301EB8301DA4B1B78B6
:102C1000C3EBC30301EB4300611E490801EB410113
:102C2000C90001F11A02B8211EF0BAFE641C0B2C77
:102C3000B4D36FF07F401FF01CFACF4890F83530C6
:102C400090F83620CEA1D0481BF038FC1A2278210B
:102C5000CD481EF0A5FEC84991F8361001EB81025F
:102C6000C549383151F83210C84A02EBC1001A2266
:102C70004FF496711EF094FEBF4890F8360000EBBA
:102C80008001BD48383050F83100052874D2DFE8A3
:102C900000F003F9F8F7F600B74991F8361001EBA8
:102CA0008102B549383101EBC20100230422486892
:102CB0000321FEF7A9FDAFF2CC51B3481BF05FFE34
:102CC00032227821B0481EF06BFEAB4890F83600F7
:102CD00000EB8001A848383000EBC100C068C0B1EB
:102CE000A54991F8361001EB8102A349383101EB77
:102CF000C20100230422C8680121FEF785FDA4A1BA
:102D0000A1481BF03CFE4A2278219F481EF048FE55
:102D100008E0994909789F4A02EBC1004A227821CC
:102D20001EF03EFE9448C08B38B3934890F83600AE
:102D300000EB80019048383000EBC1008069E8B1B9
:102D40008D4890F8360000EB80018B48383000EB5E
:102D5000C1008069092811D8874991F8361001EB24
:102D600081028549383101EBC20101236222886961
:102D700078211EF06DFD38E0FDE309E07E49097819
:102D8000854A02EBC100622278211EF009FE2CE088
:102D9000794890F8360000EB80017748383000EB36
:102DA000C1008069C0B1744991F8361001EB81020D
:102DB0007149383101EBC2010023032288690121E6
:102DC000FEF722FD75A170481BF0D9FD6222782123
:102DD0006D481EF0E5FD08E0674909786E4A02EB90
:102DE000C100622278211EF0DBFD634991F83610A4
:102DF00001EB81026049383101EBC2018868FFF7BD
:102E00006AFD00909DF80210BDF800000023042226
:102E1000FEF7FAFC62495C481BF0B1FD32224FF428
:102E2000967159481EF0BCFD534890F8360000EBEF
:102E300080015148383000EBC100006918B34E4999
:102E400091F8361001EB81024B49383101EBC20198
:102E50000869FFF740FD00909DF80210BDF80000E2
:102E600000230422FEF7D0FC4D4947481BF087FDA4
:102E70004A224FF4967144481EF092FD0DE05BE348
:102E800084E2A7E139E03C490978434A02EBC100FA
:102E90004A224FF496711EF083FD4FF6FF701FF02B
:102EA000E8F834481FF0DAF800201FF031F93D4807
:102EB0001FF0F0F8782228213BA01EF071FD782247
:102EC000F021AFF2D8701EF06BFDAA22282137A0A6
:102ED0001EF066FDAA22F02130A01EF061FD3448EC
:102EE0001FF0D8F8F322342132A01EF059FDF3224E
:102EF0008C2127A01EF054FD6BE31F4991F836107A
:102F000001EB81021C49383101EBC201002304228C
:102F100048680321FEF778FCAFF630011A481BF031
:102F20002EFD3222782118481EF03AFD124890F802
:102F3000360000EB80011048383000EBC100C0685B
:102F4000D0B30D4991F8361001EB81020A493831AE
:102F500001EBC20100230422C8680121FEF754FCE2
:102F60000BA109481BF00BFD4A22782106481EF0F0
:102F700017FD2BE03366CC00BC0F0010F4010500F8
:102F800025642F2564000000700F00104C410500DF
:102F9000730000003C4105004C4005006D410000FD
:102FA000A4410500A4F50500563A0000493A000086
:102FB000449B050054203A00FFE7FE490978FE4A89
:102FC00002EBC1004A2278211EF0EAFCF94991F88F
:102FD000361001EB8102F749383101EBC2018868F4
:102FE000FFF779FC00909DF80210BDF80000002367
:102FF0000422FEF709FCF149F1481BF0C0FC322223
:103000004FF49671EE481EF0CBFCEA4890F836007B
:1030100000EB8001E748383000EBC1000069F8B1EF
:10302000E44991F8361001EB8102E249383101EBB5
:10303000C2010869FFF74FFC00909DF80210BDF82F
:10304000000000230422FEF7DFFBDC49DC481BF014
:1030500096FC4A224FF49671D9481EF0A1FC09E073
:10306000D4490978D74A02EBC1004A224FF496713D
:103070001EF096FCCF48C08B80B3CE4890F8360047
:1030800000EB8001CB48383000EBC1008069D8B13B
:10309000C84890F8360000EB8001C648383000EB95
:1030A000C100806909280FD8C24991F8361001EB98
:1030B0008102C049383101EBC201012362228869D3
:1030C00078211EF0C5FB50E0BA490978BD4A02EBF1
:1030D000C100622278211EF063FC46E0FFE7B5489C
:1030E00090F8360000EB8001B248383000EBC100A8
:1030F000806980B3AF4890F8360000EB8001AD489E
:10310000383000EBC1008069C8280AD9C821A94815
:1031100090F8360000EB8002A648383000EBC20081
:103120008161A44991F8361001EB8102A14938313F
:1031300001EBC2010023032288690121FEF764FB31
:10314000AFF2A8119E481BF01AFC622278219C481D
:103150001EF026FC09E0FFE796490978994A02EB40
:10316000C100622278211EF01BFC4FF6FF701EF09A
:1031700080FF95481EF072FF00201EF0C9FF9348A3
:103180001EF088FF78222821AFF2E4101EF008FC20
:103190007822F021AFF6AC201EF002FCAA222821F2
:1031A000AFF2F8101EF0FCFBAA22F021AFF21420BF
:1031B0001EF0F6FB86481EF06DFFF3223421AFF2BD
:1031C0000C201EF0EDFBF3228C21AFF23C201EF010
:1031D000E7FBFEE1774991F8361001EB8102754972
:1031E000383101EBC2010023042248680321FEF7B5
:1031F0000BFBAFF6083172481BF0C1FB322278217D
:103200006F481EF0CDFB6B4890F8360000EB800154
:103210006848383000EBC100C068C8B1654991F812
:10322000361001EB81026349383101EBC201002302
:103230000422C8680121FEF7E7FAAFF2AC2160482A
:103240001BF09DFB4A2278215D481EF0A9FB08E097
:1032500058490978584A02EBC1004A2278211EF0E9
:103260009FFB544890F8360000EB800151483830FD
:1032700000EBC100806830B34E4991F8361001EB85
:1032800081024C49383101EBC2018868FFF7E3F84D
:1032900000909DF80210BDF8000000230422FEF704
:1032A000B3FA9DF80300454A103A02EB001000F112
:1032B000080143481BF063FB32224FF496714048EB
:1032C0001EF06EFB09E03B4909783E4A02EBC10063
:1032D00032224FF496711EF063FB364991F8361096
:1032E00001EB81023349383101EBC2010869FFF774
:1032F000B2F800909DF80210BDF8000000230422EF
:10330000FEF782FA9DF803002C4A103A02EB0010F7
:1033100000F108012A481BF032FB4A224FF4967153
:1033200027481EF03DFB4FF6FF701EF0A2FE264818
:103330001EF094FE00201EF0EBFE24481EF0AAFEB4
:1033400078222821AFF2A0301EF02AFB7822F0214B
:10335000AFF668401EF024FBAA2228211DA01EF013
:103360001FFBAA22F0211CA01EF01AFB18481EF019
:1033700091FEF3223421AFF2C4301EF011FBF32290
:103380008C21AFF2F4301EF00BFB22E1094890F8DB
:10339000360000EB80010748383000EBC1000FA178
:1033A000026907481BF08AF83222782104481EF08F
:1033B000F7FA17E0BC0F00103C410500A4410500DE
:1033C000700F00104C4005003366CC00A4F50500DA
:1033D000449B0500523A0000CEA900002533642525
:1033E00025000000FC4890F8360000EB8001FA4808
:1033F000383000EBC1008068642814D3F64890F898
:10340000360000EB8001F448383000EBC100AFF229
:1034100034018268F1481BF051F84A227821EF48C4
:103420001EF0BEFA08E0EC490978ED4A02EBC10053
:103430004A2278211EF0B4FAE74890F8360000EBF3
:103440008001E548383000EBC100006AD0B3E248A3
:1034500090F8360000EB8001DF48383000EBC10007
:10346000006AB0F57A7F13D3DB4890F8360000EBA2
:103470008001D948383000EBC100006A0A21B0FB56
:10348000F1F50023042202212846FEF7BDF90EE0E3
:10349000D14991F8361001EB8102CF49383101EB67
:1034A000C20100230422086A0321FEF7ADF9CD49C9
:1034B000CA481BF064FA32224FF49671C7481EF0D6
:1034C0006FFA06E0FFE732224FF49671C6A01EF0B5
:1034D00067FA4FF6FF701EF0CCFDC5481EF0BEFD2A
:1034E00000201EF015FEC3481EF0D4FD78222821CE
:1034F000AFF24C501EF054FA7822F021AFF614606F
:103500001EF04EFAAA222821BBA01EF049FAAA22D8
:10351000F021BAA01EF044FAB9481EF0BBFDF32218
:103520003421AFF270501EF03BFAF3228C21AFF23F
:10353000A0501EF035FA4CE032227821B1A01EF0E6
:103540002FFAA54991F8361001EB8102A2493831D2
:1035500001EBC201496AA24A02EB01119E4A1278AC
:1035600001EBC20032224FF496711EF019FA9A480C
:1035700090F8360000E02BE000EB800196483830F0
:1035800000EBC100C068C8B1934991F8361001EB57
:1035900081029149383101EBC20100230422C8683D
:1035A0000121FEF731F9AFF218618C481BF0E7F901
:1035B0004A22782189481EF0F3F908E08649097803
:1035C000924A02EBC1004A2278211EF0E9F900E09C
:1035D00000BF00BF38BD10B50120FEF7CDF90220B5
:1035E000FEF79BFC4FF6FF701EF043FD80481EF077
:1035F00035FD00242CE004F00100A0B9C4EB041157
:10360000834B03EB4101744B1B78C3EB0313C818C6
:10361000611C490801EB4101C90001F11A020421B2
:103620001EF0BEF913E0C4EB0411794B03EB41012A
:10363000694B1B78C3EB0313C818611E490801EBE3
:103640004101C90001F11A02B8211EF0A9F9641C58
:103650000F2CD0D310BD38B50446012C00D100E0AA
:10366000002005461DB1FF206A49486002E060481D
:10367000684948606748808880B24823C02230216A
:1036800000905420FDF70DFC6248808880B20090C5
:103690006048008883B2604800783130C2B230217F
:1036A0006C20FDF795FC022C01D1012000E00020E8
:1036B00005461DB1FF205749486002E04C48554976
:1036C00048605549097801EB81025349891C01EB97
:1036D0008201C889002304221946FEF795F84D4857
:1036E000808880B25E23C0224A2100905420FDF7DA
:1036F000D8FB0023394A4A215C20FDF7B3FF0023A1
:1037000046A24A218E20FDF7ADFF032C01D10120F6
:1037100000E0002005461DB1FF203E49486002E060
:1037200033483C4948603C49097801EB81023A49F9
:10373000891C01EB8201088A002304221946FEF746
:1037400063F83448808880B27623C02262210090DA
:103750005420FDF7A6FB0023204A62215C20FDF7E0
:1037600081FF00232DA262218E20FDF77BFF042C18
:1037700001D1012000E0002005461DB1FF202549B0
:10378000486002E01A48234948602548006811282B
:103790001DD12048808880B246234FF4C872302162
:1037A00000904FF48670FDF77CFB1B48007800EB1F
:1037B00080011948801C00EB81004089194901EB08
:1037C0000012002332214FF48670FDF74BFF052CC9
:1037D0002AD1012029E00000BC0F0010700F00105A
:1037E0004C400500246005004E4F4E45000000008F
:1037F0003366CC00A4F50500433A00006E46000095
:10380000449B050050415553450000003C410500D4
:10381000A245050024000010880800104DCEA90024
:103820002001001078500500002005461DB1FF2042
:10383000F849486002E0F848F6494860F7490978D5
:1038400001EB8102F549891C01EB820148880023C4
:1038500004221946FDF7D8FFEE48808880B25E2327
:103860004FF4C8724A2100904FF48470FDF719FBA1
:103870000023EB4A4A214FF48D70FDF7F3FE00233D
:10388000E8A24A214FF4A070FDF7ECFE062C01D10E
:10389000012000E0002005461DB1FF20DD49486001
:1038A00002E0DD48DB494860DC49097801EB810230
:1038B000DA49891C01EB8201888800230422012156
:1038C000FDF7A2FF0023D64A62214FF48870FDF76E
:1038D000C9FE0023AFF68C5262214FF4A070FDF7B1
:1038E000C1FE38BD7CB506460D460120FEF744F802
:1038F00002201EF00DFC6FF07F401EF0BAFB00248A
:10390000F7E04FF4BE70ADF8000004EB4400042172
:1039100001EB0010062101FB040000B2ADF802002B
:103920004FF4EE70ADF80400601C00EB4000042181
:1039300001EB0010062101FB040000B2ADF8060007
:10394000052E38D2DFE806F0033850689D00B648EF
:1039500090F81102032817D0C5EBC50101EB8101D6
:10396000B24A02EB8101B04A1278C2EBC20202EB0A
:10397000820201EB4201C4EBC40201EB42000E22C1
:1039800069461EF021F816E0C5EBC50101EB810187
:10399000A74A02EB8101A44A1278C2EBC20202EBF1
:1039A000820201EB4201C4EBC40201EB42000E2291
:1039B00069461EF009F899E0C5EBC50101EB8101EC
:1039C0009C4A02EB8101984A1278C2EBC20202EBD8
:1039D000820201EB4201C4EBC40201EB42000E2261
:1039E00069461DF0F1FF81E0C5EBC50101EB8101E6
:1039F000914A02EB81018C4A1278C2EBC20202EBBF
:103A0000820201EB4201C4EBC40201EB42000E2230
:103A100069461DF0D9FF69E0834890F81102032838
:103A200017D0C5EBC50101EB8101844A02EB81018E
:103A30007D4A1278C2EBC20202EB820201EB420124
:103A4000C4EBC40201EB42000E2269461DF0BCFF2C
:103A500016E0C5EBC50101EB8101794A02EB81015A
:103A6000714A1278C2EBC20202EB820201EB420100
:103A7000C4EBC40201EB42000E2269461DF0A4FF14
:103A800034E0694890F81102032817D0C5EBC5014E
:103A900001EB81016B4A02EB8101634A1278C2EBB0
:103AA000C20202EB820201EB4201C4EBC40201EB51
:103AB00042000E2269461DF087FF16E0C5EBC501E6
:103AC00001EB8101604A02EB8101574A1278C2EB97
:103AD000C20202EB820201EB4201C4EBC40201EB21
:103AE00042000E2269461DF06FFF00BF00BF601C40
:103AF000C4B2052CFFF605AF7CBDF8B505464A49B2
:103B000091F8361001EB81024749383151F83210F3
:103B10004E4A515C481C00EBD071C1F347070124A9
:103B200037E0AC4203D1FF201EF0A3FA02E03A488E
:103B30001EF09FFA04F00100A0B1601E012202EB0A
:103B4000500000EB4000C00000F11803601E00EBC5
:103B50004000C000182202EB5001B4225A201DF090
:103B6000FFFF15E0601E012202EB500000EB400059
:103B7000C00000F11803601E400800EB4000C000C8
:103B800000F118014FF4B7724FF48A701DF0E8FF8E
:103B9000641C254890F8360000EB8001224838303C
:103BA00050F831002949085C401CA042B9D80220D5
:103BB0001EF0AEFA6FF07F401EF05BFA1A4890F8E4
:103BC000353090F83620AFF6484115481AF076FCAB
:103BD0001A22782112481DF0E3FE134991F836109D
:103BE00001EB81021049383151F83210184A02EBCA
:103BF000C1001A224FF496711DF0D2FE0A4890F8C7
:103C0000360000EB80010848383050F831000528B4
:103C10007ED21FE0240000103366CC00880800101C
:103C2000700F001020560000BC0F0010F8070500B0
:103C30000014050068240500F82A0500700D050031
:103C400078190500B8100500C01C0500A4F3040095
:103C50004C410500DFE810F005007D018003C4043D
:103C60004F05FE4991F8361001EB8102FB493831CE
:103C700001EBC2010023042248680321FDF7C4FDC3
:103C8000F7A1F8481AF07BFE32227821F5481DF0A2
:103C900087FEF24890F8360000EB8001EF4838309C
:103CA00000EBC100C068C8B1EC4991F8361001EBD7
:103CB0008102EA49383101EBC20100230422C868BD
:103CC0000121FDF7A1FDAFF63851E6481AF057FE85
:103CD0004A227821E3481DF063FE08E0DF490978B5
:103CE000E14A02EBC1004A2278211DF059FEDB486F
:103CF00090F8360000EB8001D848383000EBC10066
:103D00004069D8B1D54991F8361001EB810200E045
:103D1000FEE3D249383101EBC20100230422486995
:103D20000121FDF771FDAFF69851CE481AF027FE3C
:103D300062227821CB481DF033FE08E0C74909789C
:103D4000CA4A02EBC100622278211DF029FEC34855
:103D500090F8360000EB8001C048383000EBC1001D
:103D6000C069C8B1BD4991F8361001EB8102BB4969
:103D7000383101EBC20100230422C8690121FDF79B
:103D800043FDAFF6F451B7481AF0F9FD7A227821D5
:103D9000B4481DF005FE08E0B0490978B34A02EBCB
:103DA000C1007A2278211DF0FBFDAC4991F8361054
:103DB00001EB8102A949383101EBC2018868FEF7A5
:103DC0008AFD00909DF80210BDF800000023042237
:103DD000FDF71AFDA649A3481AF0D1FD32224FF48F
:103DE0009671A0481DF0DCFD9C4890F8360000EB71
:103DF00080019A48383000EBC1000069F8B197495A
:103E000091F8361001EB81029449383101EBC2017F
:103E10000869FEF760FD00909DF80210BDF80000F3
:103E200000230422FDF7F0FC91498E481AF0A7FD0B
:103E30004A224FF496718B481DF0B2FD09E0874984
:103E400009788A4A02EBC1004A224FF496711DF0AC
:103E5000A7FD8248C08BE0B3804890F8360000EBA5
:103E600080017E48383000EBC100806909280AD9FA
:103E700009217A4890F8360000EB80027748383004
:103E800000EBC2008161754890F8360000EB8001BC
:103E90007248383000EBC1008069F0B16F4890F88B
:103EA000360000EB80016D48383000EBC1008069BE
:103EB000092812D8694991F8361001EB8102674947
:103EC000383101EBC2010123622288694FF49671F7
:103ED00000E00DE01DF0BCFC3AE060490978634A5F
:103EE00002EBC10062224FF496711DF059FD2FE0E4
:103EF0005A4890F8360000EB80015848383000EB03
:103F0000C1008069D0B1554991F8361001EB8102AA
:103F10005249383101EBC201002303228869012193
:103F2000FDF772FCAFF68C714E481AF028FD622244
:103F30004FF496714B481DF033FD09E0474909786D
:103F40004A4A02EBC10062224FF496711DF028FD2F
:103F500001E2424991F8361001EB81023F493831C4
:103F600001EBC2010023042248680321FDF74CFC49
:103F70003BA13C481AF003FD3222782139481DF05C
:103F80000FFD364890F8360000EB8001334838309A
:103F900000EBC100C068C0B1304991F8361001EBA8
:103FA00081022E49383101EBC20100230422C86886
:103FB0000121FDF729FC2FA12A481AF0E0FC4A2232
:103FC000782128481DF0ECFC08E024490978264AAD
:103FD00002EBC1004A2278211DF0E2FC1F4890F854
:103FE000360000EB80011D48383000EBC10040690D
:103FF000C0B11A4991F8361001EB810217493831E6
:1040000001EBC2010023042248690121FDF7FCFBFA
:1040100018A114481AF0B3FC6222782111481DF04F
:10402000BFFC08E00D490978104A02EBC10062228A
:1040300078211DF0B5FC094890F8360000EB8001AE
:104040000648383000EBC100C06940B3034991F81D
:10405000361001EB8102014938310DE0BC0F001030
:104060006B560000700F00103C4105004C400500ED
:10407000A44105007300000001EBC20100230422EB
:10408000C8690121FDF7C0FBAFF21801FE481AF024
:1040900076FC7A227821FC481DF082FC08E0FB497E
:1040A0000978FB4A02EBC1007A2278211DF078FCE6
:1040B000F64890F8360000EB8001F448383000EB09
:1040C000C100406A80B3F14890F8360000EB8001EF
:1040D000EE48383000EBC100406A40F6AC518842EF
:1040E00009D3EA4890F8360000EB8002E748383000
:1040F00000EBC2004162E54991F8361001EB810204
:10410000E249383101EBC20100230422486A01214F
:10411000FDF77AFBDFA1DC481AF031FC922278210E
:10412000D9481DF03DFC15E0FFE7D84991F836105D
:1041300001EB8102D549383101EBC201496AD44A09
:1041400002EB0111D14A127801EBC20092227821D0
:104150001DF026FCCD4991F8361001EB8102CB49C8
:10416000383101EBC2018868FEF7B5FB00909DF87D
:104170000210BDF8000000230422FDF745FBC649EC
:10418000C1481AF0FCFB32224FF49671BE481DF074
:1041900007FCBE4890F8360000EB8001BB48383081
:1041A00000EBC1000069F8B1B84991F8361001EB95
:1041B0008102B649383101EBC2010869FEF78BFB79
:1041C00000909DF80210BDF8000000230422FDF7C6
:1041D0001BFBB149AC481AF0D2FB4A224FF496714E
:1041E000A9481DF0DDFB09E0A8490978A84A02EBBF
:1041F000C1004A224FF496711DF0D2FBA348C08B38
:10420000F0B3A24890F8360000EB80019F483830A8
:1042100000EBC100806909280AD909219B4890F860
:10422000360000EB80029948383000EBC200816113
:10423000964890F8360000EB80019448383000EB47
:10424000C1008069E8B1914890F8360000EB800128
:104250008E48383000EBC1008069092811D88B499D
:1042600091F8361001EB81028849383101EBC20127
:104270000123622288694FF496711DF0E9FA3AE051
:104280000AE082490978824A02EBC10062224FF4B7
:1042900096711DF085FB2EE07C4890F8360000EB0F
:1042A00080017A48383000EBC1008069C8B1774995
:1042B00091F8361001EB81027449383101EBC201EB
:1042C0000023042288690121FDF79EFA73A16E483C
:1042D0001AF055FB62224FF496716B481DF060FB9B
:1042E00009E06A4909786A4A02EBC10062224FF488
:1042F00096711DF055FB654890F8360000EB800183
:104300006248383000EBC100006AD0B15F4991F8D3
:10431000361001EB81025D49383101EBC201002307
:104320000422086A0121FDF76FFAAFF2B82156485E
:104330001AF025FB7A224FF4967153481DF030FB9A
:1043400009E052490978524A02EBC1007A224FF43F
:1043500096711DF025FB1AE24C4991F8361001EBDD
:1043600081024A49383101EBC20100230422486826
:104370000321FDF749FAAFF2183143481AF0FFFA6A
:104380003222782140481DF00BFB404890F836005F
:1043900000EB80013D48383000EBC100C068C8B177
:1043A0003A4991F8361001EB81023849383101EB76
:1043B000C20100230422C8680121FDF725FAAFF2EB
:1043C0004C3131481AF0DBFA4A2278212E481DF090
:1043D000E7FA08E02D490978314A02EBC1004A2288
:1043E00078211DF0DDFA294890F8360000EB8001B5
:1043F0002648383000EBC1004069C8B1234991F824
:10440000361001EB81022149383101EBC201002352
:10441000042248690121FDF7F7F9AFF2A8311A48E3
:104420001AF0ADFA6222782117481DF0B9FA08E0B7
:1044300016490978164A02EBC100622278211DF064
:10444000AFFA124890F8360000EB80010F48383080
:1044500000EBC100C06928B30C4991F8361001EB9C
:1044600081020A49383101EBC20100230422C869E4
:104470000121FDF7C9F9AFF2044103481AF07FFAB0
:104480007A22782100480EE0700F0010BC0F001057
:104490004C40050075410000A44105006D4100003D
:1044A0003C41050002E01DF07BFA08E0F94909787B
:1044B000F94A02EBC1007A2278211DF071FAF54821
:1044C00090F8360000EB8001F248383000EBC10074
:1044D000806838B3EF4991F8361001EB8102ED495D
:1044E000383101EBC2018868FDF7B5FF00909DF8F7
:1044F0000210BDF8000000230422FDF785F99DF8A5
:104500000300E64A02EB001000F10801E44800E075
:104510003CE11AF034FA32224FF49671E0481DF073
:104520003FFA09E0DB490978DB4A02EBC10032229D
:104530004FF496711DF034FAD64991F8361001EB1C
:104540008102D449383101EBC2010869FDF783FFCC
:1045500000909DF80210BDF8000000230422FDF732
:1045600053F99DF80300CD4A02EB001000F1080159
:10457000CB481AF004FA4A224FF49671C8481DF04D
:104580000FFAC4490978C1EBC101C64A02EBC10266
:10459000C04991F8361001EB8103BE49383101EB77
:1045A000C301896902EBC10062224FF496711DF0CC
:1045B000F7F9B84991F8361001EB8102B549383165
:1045C00001EBC201496AB44A02EB0111B14A127807
:1045D00001EBC2007A224FF496711DF0E1F9D6E0AA
:1045E000AC4890F8360000EB8001AA48383000EB68
:1045F000C100AD490269AA4819F060FF3222782152
:10460000A7481DF0CDF9A34890F8360000EB8001D3
:10461000A048383000EBC1008068642813D39D485F
:1046200090F8360000EB80019A48383000EBC1006A
:104630009D4982689A4819F041FF4A22782198489A
:104640001DF0AEF908E093490978934A02EBC100E6
:104650004A2278211DF0A4F98E4890F8360000EB2C
:1046600080018C48383000EBC100006AD0B3894823
:1046700090F8360000EB80018648383000EBC1002E
:10468000006AB0F57A7F13D3824890F8360000EBC9
:1046900080018048383000EBC100006A0A21B0FB7D
:1046A000F1F60023042202213046FDF7ADF80EE0BA
:1046B000784991F8361001EB81027649383101EBE7
:1046C000C20100230422086A0321FDF79DF87749FF
:1046D00073481AF054F932224FF4967170481DF065
:1046E0005FF907E0FFE732224FF49671AFF60870EA
:1046F0001DF056F94BE032227821AFF6F8601DF03C
:104700004FF9644991F8361001EB81026149383163
:1047100001EBC201496A604A02EB01115D4A12785D
:1047200001EBC20032224FF496711DF039F959485D
:1047300090F8360000EB80015648383000EBC1009D
:10474000C068C8B1534991F8361001EB8102514954
:10475000383101EBC20100230422C8680121FDF7B2
:1047600053F8AFF2F0614E481AF009F94A22782165
:104770004B481DF015F908E0464909784C4A02EB10
:10478000C1004A2278211DF00BF900E000BF00BFF4
:10479000404991F8361001EB81023E49383111F859
:1047A00032002946FFF79EF8F8BD7CB5054601208A
:1047B000FDF7E2F842F669201DF050FC02201DF0E2
:1047C000A7FC6FF07F401DF054FC002437E04FF44D
:1047D000BE70ADF8000004EB4400042101EB0010B2
:1047E000062101FB040000B2ADF802004FF4EE70A8
:1047F000ADF80400601C00EB4000042101EB001048
:10480000062101FB040000B2ADF80600C5EBC501AE
:1048100001EB8101274A02EB81011E4A1278C2EBAB
:10482000C20202EB820201EB4201C4EBC40201EBC3
:1048300042000E2269461DF0C7F8601CC4B2052C68
:10484000C5DB7CBD2DE9F0470746124D14350F2618
:10485000012450E0BC4203D1FF201DF00AFC02E01D
:1048600015481DF006FC701C00EBD071B4EB610F15
:1048700024D804EB4400C00000F11803601E00EBD4
:104880004000C00000F11801B4226E201DF068F94C
:1048900030E00000BC0F00104C40050094410500C2
:1048A000700F0010CC400500DC33020024600500CE
:1048B0003C410500FC3005003366CC0006F10108E0
:1048C00008EBD870A4EB600000EB4000C00000F1E2
:1048D0001803C14609EBD970A4EB6000401E00EB41
:1048E0004000C00000F118014FF4B7724FF494700B
:1048F0001DF036F9641CB4F5E17FABD902201DF040
:1049000007FC6FF07F401DF0B4FB002426E0012C73
:104910000ED135F81400B0F57A7F09D104EB4400CC
:104920001A2101EBC0027821FAA01DF039F814E039
:1049300035F81400002303220121FCF765FFAFF6D0
:10494000CC01F5481AF01BF804EB44001A2101EBE6
:10495000C0027821F0481DF023F8641C032CD6D344
:10496000EE490A78EE4901EBC200622278211DF07F
:1049700017F82989EB4A02EBC1007A2278211DF051
:104980000FF86989E84A02EB0111E44A127801EB59
:10499000C200922278211DF003F8A88950B9DF499E
:1049A0000978DF4A103A02EBC100AA2278211CF0F4
:1049B000F7FF0AE0A889002302221946FCF724FF2A
:1049C000AA227821D4481CF0EBFFE989D44A103A96
:1049D00002EB0111D14A127801EBC200C222782108
:1049E0001CF0DEFF298ACE4A103A02EB0111CB4AB5
:1049F000127801EBC2001A224FF496711CF0D0FF1E
:104A0000698AC74A103A02EB0111C44A127801EBD5
:104A1000C20032224FF496711CF0C2FFA98AC34A29
:104A200002EB0111BD4A127801EBC2004A224FF499
:104A300096711CF0B5FFE98AB94A103A02EB0111F0
:104A4000B64A127801EBC20062224FF496711CF054
:104A5000A7FF298BB24A103A02EB0111AF4A127834
:104A600001EBC2007A224FF496711CF099FF698B1A
:104A7000AB4A103A02EB0111A84A127801EBC200CE
:104A800092224FF496711CF08BFFA88B88B1A88BF3
:104A9000002302220121FCF7B7FEAFF628219E4831
:104AA00019F06DFFAA224FF496719B481CF078FF15
:104AB0000AE09A4909789A4A103A02EBC100AA2200
:104AC0004FF496711CF06CFF3846FFF76EFEBDE8A0
:104AD000F0871CB50120FCF74FFF02201DF018FBEA
:104AE0006FF07F401DF0C5FA00242BE04FF4BE703C
:104AF000ADF8000004EB4400042101EB0010062196
:104B000001FB040000B2ADF802004FF4EE70ADF806
:104B10000400601C00EB4000042101EB00100621A2
:104B200001FB040000B2ADF80600814901EB44111D
:104B30007A4A127801EB02100E2269461CF044FFFB
:104B4000601CC4B2052CD1DB1CBD10B502201DF0C9
:104B5000DFFA6FF07F401DF08CFA704890F8100279
:104B600078B96E4991F81112491E724A02EB81110F
:104B70006A4A127801EB4210322278211CF010FFB1
:104B800021E0664991F81112491E6B4A02EB81112E
:104B9000624A127801EB4210322278211CF000FFA9
:104BA0005E490A78654901EB42107A2278211CF0AF
:104BB000F7FE5A490A786149403101EB42109222CE
:104BC00078211CF0EDFE554909785C4A403A02EB29
:104BD0004110622278211CF0E3FEFFF77AFF10BD3E
:104BE00070B504460D46601E554A115C0023042230
:104BF0002846FCF709FE601C00EB4000C00000F1F5
:104C00001A010123444A4FF4A270FCF72BFD70BD3A
:104C100038B50546002432E0601C854203D1FF20F0
:104C20004849486002E0484846494860454880880D
:104C300080B20090E01C00EB4000C000163083B250
:104C4000A01C00EB4000C000183081B2E822A42074
:104C5000FCF727F93A4A115D3C4A32F82400002358
:104C60000422FCF7D1FDA01C00EB4000C0001A306C
:104C700081B20123284AA420FCF7F4FC641C052C13
:104C8000CAD331482F49486038BD30B58DB004468D
:104C90002D482C49486002A92D4812F0A3FF2DA1F0
:104CA0000AA819F00BFC00230AAAAA215E20FCF72F
:104CB000D9FC2BA10AA819F001FC00230AAAC221E1
:104CC0007220FCF7CFFC062C01D1012000E000206F
:104CD00005461DB1FF201B49486002E01A481949EA
:104CE000486022A10AA8099A19F0E8FB15488088B3
:104CF00080B2BE238622AA2100905E20FCF7D1F864
:104D000000230AAAAA215E20FCF7ACFC072C31D1B3
:104D1000012030E04B455900700F0010BC0F00100F
:104D20005C40050074410500AC4005006C40050086
:104D3000D4F5040034FA040074F9040034FB0400D0
:104D40007C610500240000103366CC00B807001019
:104D500000400240202020203A20203A202000005D
:104D600020203A20203A2020000000002530326424
:104D700000000000002005461DB1FF20F9494860F1
:104D800002E0F948F7494860AFF220010AA8089A02
:104D900019F094FBF348808880B2BE23A422AA2194
:104DA00000909020FCF77DF800230AAAAA21902009
:104DB000FCF758FC082C01D1012000E0002005463A
:104DC0001DB1FF20E749486002E0E748E549486037
:104DD000AFF268010AA8059A19F070FBE1488088D3
:104DE00080B2BE23C222AA210090AE20FCF759F85F
:104DF00000230AAAAA21AE20FCF734FC092C01D119
:104E0000012000E0002005461DB1FF20D549486083
:104E100002E0D548D3494860AFF2B0010AA8049A2D
:104E200019F04CFBCF48808880B2D6238622C2215D
:104E300000907220FCF735F800230AAAC2217220E4
:104E4000FCF710FC0A2C01D1012000E000200546EF
:104E50001DB1FF20C349486002E0C348C149486012
:104E6000AFF2F8010AA8039A19F028FBBD48808820
:104E700080B2D623A422C22100909020FCF711F822
:104E800000230AAAC2219020FCF7ECFB0B2C01D1D5
:104E9000012000E0002005461DB1FF20B149486017
:104EA00002E0B148AF494860AFF240110AA8029A47
:104EB00019F004FBAB48808880B2D623C222114689
:104EC0000090AE20FBF7EDFF00230AAAC221AE201E
:104ED000FCF7C8FB0DB030BD7CB505460120FCF7E2
:104EE0004BFD02201DF014F96FF07F401DF0C1F85A
:104EF000002437E04FF4BE70ADF8000004EB44002E
:104F0000042101EB0010062101FB040000B2ADF802
:104F100002004FF4EE70ADF80400601C00EB40009E
:104F2000042101EB0010062101FB040000B2ADF8E2
:104F30000600C5EBC50101EB81018C4A02EB810142
:104F40008B4A1278C2EBC20202EB820201EB4201F1
:104F5000C4EBC40201EB42000E2269461CF034FD92
:104F6000601CC4B2052CC5DB7CBD70B505460726A8
:104F700001242DE0AC4203D1FF201DF07AF802E0BD
:104F800079481DF076F8042C0FD804EB4400C000DB
:104F900000F11803601E00EB4000C00000F1180192
:104FA000A0226E201CF0DCFD11E0201F00EB400071
:104FB000C00000F11803601F00EB4000C00000F1CA
:104FC000180140F25F124FF494701CF0C9FD641C8C
:104FD000701C8442CED302201DF09AF86FF07F40FF
:104FE0001DF047F862490978C1EBC10101EB81016D
:104FF000604A02EB41015E4A1278C2EBC20201EB49
:1050000042001A2278211CF0CBFC59490978C1EBE7
:10501000C10101EB810257498C3101EB4201544A35
:105020005278C2EBC20201EB4200322278211CF01E
:10503000B7FC4F490978C1EBC10101EB81024E4930
:1050400001EB42014A4A9278C2EBC20201EB4200F4
:105050004A2278211CF0A4FC45490978C1EBC10122
:1050600001EB810244498C3101EB4201404AD27884
:10507000C2EBC20201EB4200622278211CF090FCDC
:105080003B490978C1EBC10101EB81023B4901EBCE
:105090004201374A527BC2EBC20201EB42001A22A4
:1050A0004FF496711CF07CFC3149887B032332223B
:1050B0004FF496711CF0CCFB2D490978C1EBC1016E
:1050C00001EB81022E4901EB4201294AD27BC2EB5E
:1050D000C20201EB42004A224FF496711CF060FCC0
:1050E0002846FFF7F9FE70BD10B50020FCF7EFFE73
:1050F00010BD10B5FFF7F8FF4FF6FF7019490860B3
:1051000040F23F2048604FF6FF7008601648486044
:1051100000240FE004EB840101EBC401194BCA1811
:1051200004EB84014901091D88B200233221FCF7F8
:1051300099FA641C032CEDD3002410E004EB8400E6
:1051400000EBC400104BC218A01C00EB4000C000D4
:105150001A3081B200230420FCF784FA641C052C69
:10516000ECD310BD240000103366CC0008200500ED
:10517000BC0F0010BC390500D43A0500043D050001
:105180001C3E0500BA5C0500E15C050008B543F66D
:10519000AC10B62340F2DF127A2100900020FBF71A
:1051A00080FE08BD10B50020FCF791FEFFF7EEFF72
:1051B00010BD08B543F6AC10B62340F2DF127A21D9
:1051C00000900020FBF76DFE08BD10B50020FCF735
:1051D0007EFE10BD10B5FFF7F8FF4FF6FF70FE49D9
:1051E000086040F23F2048600023FC4A0421184632
:1051F000FCF738FA4FF6FF70F7490860F848486046
:105200000023F84A1A210420FCF72CFA01240CE0B0
:10521000F44901EB0412611E4D235943223188B237
:1052200000233221FCF71EFA641C072CF0D3002067
:10523000FCF725FD10BD38B5002416E04FF6FF70D1
:105240000090601C00EB40001A2202EBC000801EA0
:1052500083B2601C00EB400002EBC000801E81B2F4
:10526000BE225A20FBF777FD641C052CE6D338BD1F
:1052700010B50220FCF72BFE10BD10B50120FCF785
:105280007BFB0420FCF749FE4FF6FF701CF0F1FE9B
:10529000D3481CF0E3FE002410E0D34901EB441195
:1052A000D24B1B7801EB0310611C01EB4101C900DB
:1052B00001F11A0204211CF073FB641C052CECD3D1
:1052C00010BD70B505462846FCF701FE4FF6FF708D
:1052D000C14908600860C2484860022D11D100240D
:1052E0000DE0C34800EB0412601C00EB4000C0005E
:1052F0001A3081B200230420FCF7B4F9641C072C97
:10530000EFD370BD2DE9F34F83B00C4642F20F711D
:105310006068884206D90A216068B0FBF1F06060DD
:105320000420A060A068C0F10400A060D4F804903C
:10533000E06820B94FF47A7009FB00F90EE0E068EC
:1053400001280BD1484622F089FC07460022A94BD0
:1053500022F01AFD054622F03DFC8146A06822F0AD
:105360007DFC07463A460B460020A34921F022FC6B
:1053700005460E46484622F071FC2A463346CDE9E2
:10538000000122F063FA824622F024FC814648465E
:1053900022F064FC05460022984B22F0F3FD09D26E
:1053A000DFF85C9240F6B83060600220A060012017
:1053B000E0605FE0484622F051FC05460022914B38
:1053C00022F0E0FD09D842F21070B9FBF0F0606005
:1053D0000220A0600120E0604CE0484622F03EFC44
:1053E00005460022834B22F0CDFD09D84FF47A7098
:1053F000B9FBF0F060600320A0600120E06039E0BC
:10540000484622F02BFC054600227F4B22F0BAFDD5
:1054100008D86420B9FBF0F060600120A060002093
:10542000E06027E0484622F019FC05460022774B51
:1054300022F0A8FD08D80A20B9FBF0F06060022035
:10544000A0600020E06015E0484622F007FC054619
:1054500000226F4B22F096FD06D8C4F8049003207A
:10546000A0600020E06005E0C4F804900320A06084
:105470000020E060C4F818901C222146039819F01F
:1054800011FB05B0BDE8F08F0146888800B2704777
:105490002DE9F04105460C46E06870BBA068052880
:1054A00029D2DFE800F00314151C2200606822F006
:1054B000D5FB06460022544B22F064FD04D2554829
:1054C00060600020206101E00120206114E013E011
:1054D0004FF47A716068B0FBF1F060600CE0642119
:1054E0006068B0FBF1F0606006E00A216068B0FB24
:1054F000F1F0606000E000BF46E0FFE7A06806282A
:105500003ED2DFE800F003101819263241496068E6
:10551000884202D90846606004E04FF47A716068FE
:10552000484360602FE0606820B10A216068B0FBEA
:10553000F1F0606027E026E042F210716068884276
:1055400001D908466060606800EB80004000606040
:1055500019E06068B0F57A7F02D94FF47A70606024
:1055600064216068484360600DE06068642801D988
:10557000642060604FF47A7160684843606002E0C4
:105580002548606000BF00BF1C222146284619F054
:1055900089FABDE8F0812DE9F34F83B08A4642F2E3
:1055A0000F71DAF80400884209D90A21DAF80400F8
:1055B000B0FBF1F0CAF804000420CAF808004FF468
:1055C0007A71DAF8040000FB01FBDAF80810C1F187
:1055D000040022F043FB21E024000010195B0500C9
:1055E0003366CC00035F050034F50400BC0F0010E7
:1055F0003458050080842E4100002440389C7C41B2
:1056000080C3C901D0126341006AF8400088C340DA
:1056100000408F40A086010040420F0002460B462A
:10562000CDE900010020FB4921F0C4FA04460D46F3
:10563000584622F013FB064622462B4622F006F976
:10564000804622F0C7FA83464EF66020834500D993
:10565000834642F21070834508D90220CAF8080038
:105660000A20BBFBF0F0CAF8040004E00320CAF8EB
:105670000800CAF804B0CAF818B01C2251460398B2
:1056800019F010FA05B0BDE8F08F2DE9F05F824601
:105690000C460020E060A06823F04EF8834622F01C
:1056A00083FE07463A460B460020DA4921F082FA8B
:1056B000054622F08FFA81466068B0FBF9F9B9F12E
:1056C000640F01D90220A0601C222146504619F027
:1056D000E9F9BDE8F09F08B5CF48372328225C21BF
:1056E00000903C20FBF7BFFDCC48372328225C21EB
:1056F00000906420FBF7B7FDC94837232822932187
:1057000000903C20FBF7AFFDC448372328229321AB
:1057100000906420FBF7A7FD08BD10B500240BE046
:1057200004EBC400C0EB841000F16E01BDA28C201C
:10573000FBF74DFF601CC4B2032CF1DB10BD08B5B4
:10574000BA48BB494860B648372328226E210090EA
:105750006420FBF788FDB748372328226E2100908C
:105760004FF49670FBF77FFDB348372328226E2154
:1057700000904FF4AA70FBF776FDB048372328223B
:10578000A52100906420FBF76EFDAC48372328224A
:10579000A52100904FF4AA70FBF765FDA8483723B8
:1057A0002822DC2100906420FBF75DFDA54837230B
:1057B0002822DC2100904FF4AA70FBF754FD08BDAD
:1057C00008B50146A0480078022806DC88B2ADF88A
:1057D000000002208DF8020008E088B2ADF8000059
:1057E00003208DF8020001208DF80300009808BD09
:1057F00038B504466FF07F401CF03BFC934890F8AE
:10580000353090F836209249924818F057FE1A2207
:10581000782190481CF0C4F88C4991F8361001EBBF
:1058200081028A49383151F832108B4A02EBC100AB
:105830001A224FF496711CF0B3F87C481CF00EFC51
:1058400086481CF016FC00201CF062FC84481CF00A
:1058500021FC7E4890F8360000EB80017B48383010
:1058600050F8310004280FD0012C07D17D490023C6
:10587000042208680321FBF7C7FF05E00023042288
:1058800003211846FBF7C0FF704890F83500022846
:1058900022D16E4890F8360000EB80016B4838301A
:1058A00050F8310002280BD114216F4819F034F957
:1058B0006D486849096801606C4919F060F821E099
:1058C00014216B4819F028F9694862490968016098
:1058D000664919F054F815E01421654819F01CF9CF
:1058E00063485C4909680160604919F048F814216F
:1058F0005D4819F011F95C485649096801605B4937
:1059000019F03DF878225A2152481CF049F84F48C6
:1059100090F8360000EB80014C48383050F83100E8
:10592000052875D2DFE800F00304D3FCFB0000BFBC
:10593000012C6ED14B4840684FF6FF71884203D06E
:105940004C48006809280ED14248484908310A6885
:10595000026089888180464847A10A88A0F807200C
:10596000897841724EE03948C08D01281CD13D48EC
:105970004268364890F83610491E00F5FD7030F840
:105980001100824203D20020364948600CE03548BD
:1059900042682E4890F83610491E00F5FD7030F828
:1059A0001100101A2F4948602748007801280CD1AF
:1059B0002C490023042248680321FBF725FF2C48CB
:1059C00024490968C0F807101CE01F48007868B92E
:1059D00024490023042248680221FBF715FF2448CC
:1059E0001C49D1F80110C0F807100BE01D49002335
:1059F000042248680121FBF707FF1D481F49096879
:105A0000C0F807101D490831194818F0B8FF3DE0EB
:105A100006E135E00000244003AE04001BAF0400A3
:105A200002D704002D2D2D2D2D0000003366CC0053
:105A3000240000109ADF04001FE70400A4EE040015
:105A4000B7EF0400CAF00400FB000010BC0F001008
:105A5000802F0200700F00104C410500FFFF8000F6
:105A6000A4F5050030030010A4070010F82602007A
:105A700090070010240100104F464C00082B020034
:105A80000023042203211846FBF7BEFEFB481CF04E
:105A9000F0FAE823F022AA215A201CF061F8F84815
:105AA0001CF0E7FAAA225A21F6481BF079FFF648C3
:105AB0000078022805DAAA22F021F4A01BF070FF7A
:105AC00004E0AA22F021F3A01BF06AFFA9E0012C58
:105AD0005FD1F2484068F24988420BD1E948F14968
