:020000040002F8
:10000000F8230010912F0300992F03009B2F03006A
:100010009D2F03009F2F0300A12F0300000000006D
:10002000000000000000000000000000A32F0300FB
:10003000A52F030000000000A72F0300397902005C
:10004000AB2F0300E307020071080200AD080200B5
:10005000BF0802004B490300AB2F0300AB2F030086
:1000600063490300AB2F0300AB2F0300AB2F03004A
:10007000AB2F0300AB2F0300AB2F0300AB2F03000C
:10008000AB2F0300AB2F0300AB2F0300AB2F0300FC
:10009000AB2F0300AB2F0300AB2F0300AB2F0300EC
:1000A000A1730300AB2F0300AB2F0300AB2F0300A2
:1000B000AB2F0300AB2F0300AB2F0300AB2F0300CC
:1000C000AB2F0300AB2F0300AB2F0300AB2F0300BC
:1000D000AB2F0300AB2F030097050200AB2F0300EB
:1000E000AB2F030000F002F800F076F80AA090E8C9
:1000F000000C82448344AAF10107DA4501D100F0E3
:100100006BF8AFF2090EBAE80F0013F0010F18BF39
:10011000FB1A43F00103184778470400984704008E
:100120000A444FF0000C10F8013B13F0070408BF1D
:1001300010F8014B1D1108BF10F8015B641E05D0BB
:1001400010F8016B641E01F8016BF9D113F0080F70
:100150001EBF10F8014BAD1C0C1B09D16D1E58BF02
:1001600001F801CBFAD505E014F8016B01F8016B39
:100170006D1EF9D59142D6D37047000000230024AC
:1001800000250026103A28BF78C1FBD8520728BFA7
:1001900030C148BF0B607047662926F02B83672962
:1001A00026F0288364291CF0338073291CF0F58520
:1001B000002070471FB51CF031FB04000020002117
:1001C00025F0CAF8401C60600020002125F0DAF814
:1001D000E0601FBD10B510BD1DF04AF91146FFF7D4
:1001E000E9FF00F023F91DF0E5FB03B4FFF7F2FF90
:1001F00003BC1DF0E9FB000040F2012082490860C9
:100200008249C1F88401804908310860091D0860ED
:10021000091D0860091D0860091D0860091D0860A6
:10022000091D0860091D0860091D0860091D086096
:10023000091D0860091D0860091D0860091D086086
:10024000714980310860091D0860091D0860091D99
:100250000860091D0860091D0860091D0860091D66
:100260000860091D0860091D0860091D0860091D56
:100270000860091D0860091D0860091D08606249C1
:10028000D4310860091D0860091D08605E494439C1
:1002900008605D49E4310860091F08605A49E83187
:1002A0000860594940390860091D0860091D086047
:1002B000554930390860544920390860524910398D
:1002C0000860091D086070472DE9F04100BF00BFBC
:1002D0004F48006840F400604D49C439C1F8C4007B
:1002E00041F61F704B49086001204B49086000200F
:1002F0008860FFF781FF494800684949B0FBF1F782
:100300004348C438D0F8000100B17F084FF47A7038
:10031000B0FBF7F404F11300B0FBF4F03E490863BE
:100320000F204863002088630120C86304F1130094
:10033000B0FBF4F0801C08640120486404F13E0026
:10034000B0FBF4F0886404F13E00B0FBF4F0C86444
:100350000F20086504F13E00B0FBF4F04865012071
:100360008865886240F203302E4908604FF4D060FF
:100370002949C1F800016421012000F0B4F940F2DC
:10038000831025490862C821012000F0ACF940F231
:1003900003102149086202204862002600E0761C12
:1003A000802EFCD341F68465A5F1100085B22D1195
:1003B00005FB07F04FF47A71B0FBF1F085B21648F7
:1003C00045628320144908621748058800200862A6
:1003D0001448001F006840F40020C1F8000101210A
:1003E000084600F080F90121084600F07CF9094830
:1003F000006820F01F0848F011000549C439C1F811
:10040000DC01BDE8F081000080C1024000C0024074
:10041000C4C00F40DCC10F4000C0092078010010AB
:1004200040420F0004C10920003003A0002013F057
:10043000EEF9044600206C4908601D20012181402E
:100440004209920002F1E022C2F8001100BF62B638
:100450006648B4FBF0F0411EB1F1807F00D31DE08F
:1004600021F07F40401E4FF0E022506150171F22C4
:10047000002807DAD3061E0E5D4B00F00F052D1F76
:100480005E5503E0D3061D0E5A4B1D5400BF0020DD
:100490004FF0E02290610720106100BF14F0B4FE1D
:1004A00002205549086000205449088054490870CA
:1004B000544908703CE050480068801E182835D226
:1004C000DFE800F00C3412150F30343418341B34CC
:1004D00034342124272A2D34341E343107F0ECFC27
:1004E00025E008F01AF822E008F09BFD1FE008F074
:1004F000E4FD1CE011F09BFC19E00EF05AFB16E045
:100500000FF038FE13E00EF005FB10E007F0E6FDFB
:100510000DE007F053FF0AE007F0BCFF07E00DF025
:10052000DCFE04E003E00FF0DEFD00E000BF00BFF2
:10053000C1E72DE9F041012133A016F02FFB07465A
:10054000002F25DD4FF47A6232480168384616F0F4
:1005500005FC022130A016F021FB0446002C11DD21
:10056000002500BF4FF47A622A480168204616F041
:100570005FFD064635442B488542F3D3204616F0EE
:10058000EEFD01E0BDE8F081384616F0E8FD00E040
:10059000F8E700BFF6E710B500220621104612F07A
:1005A000A0FF30B10920204908604021002012F04E
:1005B000C3FF00220521104612F093FF30B10C203A
:1005C000194908602021002012F0B6FF00220721FF
:1005D000104612F086FF30B10E20134908608021CA
:1005E000002012F0A9FF10BDCC000010A086010071
:1005F00018ED00E000E400E02001001018010010F8
:100600001A0100101B0100104D53524541442E5455
:10061000585400000C0200105A43353532302E5425
:1006200058540000809698002401001010B5FD4831
:1006300090F89E00FC490860FA4890F89E00086017
:10064000F84890F89E00086008460068072802D91C
:10065000084600680860F34890F89E00F249086078
:1006600008460068082803D108460068401C086056
:10067000EE480068EE49096888421DD0EC480068E1
:10068000EA490860EB480078002804DDE948007872
:10069000401EE8490870E748007820B9E14890F822
:1006A0009E00002809DCE348007820B9DD4890F876
:1006B0009E0000B910BDFDE7FCE7DA4890F89E0007
:1006C000042800DA09E0D7480478DB48807BA042A0
:1006D00000D002E014F056FC00BF0020D14981F8A0
:1006E0009E0000BFE6E7F8B902224FF040235A60AF
:1006F0000022DA60D14A12684FF47A73B2FBF3F247
:10070000521E4A434FF040239A61FF221A6004228E
:100710005A6101225A6000BF4FF04022526802F035
:100720000102002AF8D15BE001281CD10222C44B4F
:100730005A600022DA60C14A12684FF47A73B2FB41
:10074000F3F2521E4A43BE4B9A61FF221A60042202
:100750005A6101225A6000BFB94A526802F0010290
:10076000002AF9D13CE002281CD10222B54B5A6084
:100770000022DA60B14A12684FF47A73B2FBF3F2E6
:10078000521E4A43AF4B9A61FF221A6004225A61FB
:1007900001225A6000BFAB4A526802F00102002AEF
:1007A000F9D11DE003281BD10222A74B5A60002279
:1007B000DA60A24A12684FF47A73B2FBF3F2521E67
:1007C0004A43A14B9A61FF221A6004225A61012216
:1007D0005A6000BF9C4A526802F00102002AF9D117
:1007E000704710B501204FF040210860974800681D
:1007F000062813D196480078401C95490870084691
:100800000078092810DD0020087001209149087047
:1008100091480089401C9049088105E08C48007887
:1008200010B100208A4908708C480078401C8B4920
:10083000087008460078092808DD002008707C4808
:100840000068401C7A490860FFF7F0FE00240CE0C5
:10085000834850F8240030B1814850F82400401EED
:100860007F4941F82400601CC4B2062CF0DB10BDA7
:1008700010B50120724908607A480078401C794917
:1008800008707248006806280FD1084600780A28C8
:1008900002D107F0DEF808E072480078142804DB83
:1008A00000207049087007F0DAF810BD0120654992
:1008B00008606D480068401C6B4908607047012063
:1008C0006149086069480068401C684908607047D1
:1008D00020B901214FF04022516010E0012803D1DE
:1008E0000121574A51600AE0022803D10121554AEB
:1008F000516004E0032802D10121534A516070473E
:1009000020B900214FF04022516010E0012803D1AE
:1009100000214B4A51600AE0022803D10021494AD4
:10092000516004E0032802D10021464A516070471B
:10093000014631B94FF04022506840F0020050604B
:1009400016E0012905D13E4A506840F0020050608F
:100950000EE0022905D13B4A506840F00200506089
:1009600006E0032904D1384A506840F00200506084
:10097000704770B505460C46F5B900203C49086043
:100980003C48006840F002003A49C439C1F8C4004C
:100990004FF04020406840F002004FF04021486096
:1009A0004EF65F20C860084684610320486101203C
:1009B00000F07DF8012070BD012D1CD100202E49D2
:1009C00008602C48006840F004002A49C439C1F886
:1009D000C4001B48406840F00200194948604EF6C8
:1009E0005F20C8600846846103204861022000F04F
:1009F0005EF80120DFE7022D40D100201A4908608F
:100A00001C48006840F480001A49C439C1F8C40089
:100A10000C48846103200B49486100F048F801202C
:100A2000C9E70000DB1600101C00001014000010C5
:100A30001000001090010010E40F00107C01001065
:100A400000800040000009400040094020010010E3
:100A500020000010FA0000103003001021000010E8
:100A6000B80B001022000010080000100C0000104D
:100A700000000010C4C00F4004000010032D14D16A
:100A80000020104908601048006840F400000E493A
:100A9000C439C1F8C4000D48846103200B49486182
:100AA000042000F004F8012085E7002083E700F02F
:100AB0001F02012191404209920002F1E022C2F896
:100AC000001170470C000010C4C00F4000400940E6
:100AD00008B5B0B1F949896941F00101F74A91615E
:100AE00042F21071009108E0F449896941F4006113
:100AF000F24A91610099491E009100990029F3D1B1
:100B000015E0EE49896921F40061EC4A916142F2F5
:100B10001071009102E00099491E0091009900298E
:100B2000F9D1E649896921F00101E44A916108BDE2
:100B3000E34A002102E008C808C2491C8029FAD310
:100B4000704750B506460C4600BF2720DD490860B7
:100B5000DD49C1F81801DD490860091D0860091D5B
:100B60000860DA494C390860091D0860091D0860F1
:100B7000091D0860091D0860091D0860D349183166
:100B80000860D24934390860091D0860091D0860F1
:100B9000091D0860CD4914390860CC49083908603E
:100BA000CA4910390860C849C1F81001C848006A2C
:100BB00040F00200C64908620846806B40F004001D
:100BC00088630846006840F00200086008468069B3
:100BD00040F02A008861BF48D0F8C40040F001000E
:100BE000BC49C1F8C400BC48006820F00100BA4903
:100BF00008600020B14988610846806920F00E0035
:100C000088610846806940F00C0088610846806968
:100C100040F0200088610846806920F080008861EB
:100C20000846806920F4807088610846806920F455
:100C3000007088610846806920F4806088610846F9
:100C4000806920F400608861A4480068A449B0FB72
:100C5000F1F0A049C1F8B8019848806840F0806080
:100C6000964988600846806820F020008860084621
:100C7000806840F4006088600846806840F48050D6
:100C800088600846806820F40050886008468068C4
:100C900020F480408860084680689249084087496F
:100CA000886008468068904908438449886000202D
:100CB00008600846006840F01C500860084600685C
:100CC00040F4802008600846006840F480700860A6
:100CD0000846006840F0740008600020486008463C
:100CE000406840F0006048600846406840F40020DA
:100CF00048600846406840F48060486008464068A4
:100D000040F20F1108436D49486078480861486116
:100D100014B12046FFF70CFF50BD744A002102E0D9
:100D200022F8020B491CB1F5FF3FF9D3704730B5EB
:100D30006E4BB0F5F07F02DAB1F5887F00DB30BD95
:100D4000C1EB011500EB451403EB44031A8000BF0F
:100D5000F5E72DE9F04F04460D4691469A46DDF839
:100D600024B04C4503DD0FFA89F7A146BCB25545C6
:100D700003DD0FFA8AF7AA46BDB2A9EB04000FFA09
:100D800080F8AAEB050006B2B8F1000F0BD100BF46
:100D90005A4629462046FFF7CAFF681C85B2AA4575
:100DA000F6DABDE8F08F56B900BF5A46294620460C
:100DB000FFF7BDFF601C84B2A145F6DAF1E7B0454C
:100DC00021DDC8EB460007B215E05A462946204609
:100DD000FFF7ADFF601C84B2002F08DD681C85B2F0
:100DE0007000022101FB1800384407B203E0022022
:100DF00000FB067007B24C45E7D15A46294620460B
:100E0000FFF795FF20E0C6EB480007B215E05A4611
:100E100029462046FFF78BFF681C85B2002F08DDAE
:100E2000601C84B27000022101FB1800384407B234
:100E300003E0022000FB067007B25545E7D15A4691
:100E400029462046FFF773FF00BFAAE72DE9F841C6
:100E500005460E4617469846079CA0B233463A46CA
:100E6000314600902846FFF774FFA0B243463A4649
:100E7000414600902846FFF76CFFA0B243462A4641
:100E8000314600902846FFF764FFA0B243463A4639
:100E9000314600903846FFF75CFFBDE8F8812DE948
:100EA000F0411C46069FC1EB011CDFF8408008EBB7
:100EB0008C1C0CEB400300262AE000000080082078
:100EC0000082082074C2024000C002401CC10240DF
:100ED0000080092000C00F40008C08207C01001019
:100EE0009C997400FFFF00FC0000DF01000001A0DE
:100EF000002502E023F8027B6D1CA2EB000CAC4540
:100F0000F8D8A2EB000CCCF5F07C03EB4C03761C7C
:100F1000A4EB010CB445EBD8BDE8F0812DE9F04716
:100F200004460D461746784200214FEA4708C8F1AB
:100F30000202F94E00BFA4EB000805EB01094FF4D3
:100F4000F07A0AFB098846F8283004EB000805EB24
:100F500001090AFB098846F8283004EB0008A5EBD4
:100F600001090AFB098846F82830A4EB0008A5EB24
:100F700001090AFB098846F8283094468C450DDCA7
:100F800001F1010841464FF0010909EB48084244CC
:100F9000C84203D1844501DC4FF0000C844507DDD5
:100FA00000F1010840464FF0010909EB48084244AE
:100FB0000028C0DDBDE8F08770B505460E46144632
:100FC000A2B231462846FFF7B2FE70BD2DE9FF5FA1
:100FD00006460F4690469946DDF838B041466846C9
:100FE00000F0A8FC00241DE01DF804A0002516E078
:100FF000C5F107004AFA00F000F0010038B13A19D3
:1010000091B2721990B24A46FFF791FE06E03A1982
:1010100091B2721990B25A46FFF789FE6D1C082DE5
:10102000E6D3641C102CDFD3BDE8FF9F2DE9FE4FF3
:1010300006460F4690469946DDF830B04146684670
:1010400000F085FC002415E01DF804A000250EE04A
:10105000C5F107004AFA00F000F0010030B13A197A
:1010600091B2721990B24A46FFF761FE6D1C082DCD
:10107000EED3641C0C2CE7D3BDE8FE8F2DE9F843BA
:1010800005460E4614469846DDF8209000BF14F839
:10109000017B43463A4631462846CDF80090FFF79B
:1010A00095FFB5F5EC7F03DA05F1080085B208E09D
:1010B000FF2E04DC002506F1100086B201E00025B9
:1010C000002620780028E2D1BDE8F8832DE9FF4F03
:1010D000074688469B463C464546BA4646464FF03C
:1010E000000915E0A4F1140188B22946029AFFF71D
:1010F0001EFE601C84B2A6F1140081B25046029A12
:10110000FFF715FE701C86B209F101001FFA80F985
:10111000B9F1280FE6DB3C464546BA4646464FF055
:1011200000092BE0A5F1140291B2A4F1140290B2CF
:101130005A46FFF7FCFD05F1140291B2A4F1140226
:1011400090B25A46FFF7F3FD601C84B2A6F1140278
:1011500091B2AAF1140290B25A46FFF7E8FDA6F147
:10116000140291B20AF1140290B25A46FFF7DFFD61
:10117000701C86B209F101001FFA80F9B9F10A0F5B
:10118000D0DB3C464546BA4646464FF000092BE0C8
:10119000A5F1140291B204F10A0290B25A46FFF787
:1011A000C6FD05F1140291B204F10A0290B25A464A
:1011B000FFF7BDFD601C84B206F10A0291B2AAF1EC
:1011C000140290B25A46FFF7B2FD06F10A0291B23C
:1011D0000AF1140290B25A46FFF7A9FD701C86B2BC
:1011E00009F101001FFA80F9B9F10A0FD0DBBDE85F
:1011F000FF8F10B50246002112E001EB8110474B32
:10120000185C1378984209D1507801EB8113434C54
:1012100023445B78984201D1084610BD481C81B236
:101220000029EAD00020F8E710B50246002114E0BA
:1012300001EB01103A4B13F81000137898420AD1D1
:10124000507801EB0113364C04EB43035B78984272
:1012500001D1084610BD481C81B2B229E8D3002054
:10126000F8E72DE9F04F04460F4615469846A34689
:101270004FF0000900262FE0099810F806904FF073
:10128000000A23E009F0800038B12648008882B2C5
:1012900039462046FFF74BFD06E02248808882B29F
:1012A00039462046FFF743FD4FEA49604FEA10698F
:1012B000601C84B2A4EB0B00A84203D15C46781CEE
:1012C00087B206E00AF1010000F0FF0ABAF1080F48
:1012D000D8DB00BF701C86B205FB08F0C11700EB1D
:1012E0005171B6EBE10FC7DBBDE8F08F2DE9F04F90
:1012F0000546894692469B46A8460026BBF1000F4C
:101300003CD1002437E00AEB0A10054901EB40000C
:10131000801C065D002729E0000001A0F46804009D
:10132000356904002400001006F0800038B1FD4843
:10133000008882B249462846FFF7F9FC06E0F948E2
:10134000808882B249462846FFF7F1FC7006060EF7
:10135000681C85B2A5EB0800102805D1454609F1A7
:1013600001001FFA80F903E0781CC7B2082FDBDB0D
:1013700000BF601CC4B2202CC5DB33E000242FE08A
:101380000AEB0A10E84901EB4000801C065D0027CB
:1013900021E006F0800038B1E248808882B24946F8
:1013A0002846FFF7C4FC06E0DE48008882B24946C2
:1013B0002846FFF7BCFC7006060E681C85B2A5EB3C
:1013C0000800102805D1454609F101001FFA80F9EF
:1013D00003E0781CC7B2082FDBDB00BF601CC4B27F
:1013E000202CCDDBBDE8F08F2DE9F04F0546894676
:1013F00092469B46A8460026BBF1000F33D100243D
:101400002EE00AEB8A10C9490844801C065D0027BB
:1014100021E006F0800038B1C248008882B2494617
:101420002846FFF784FC06E0BE48808882B2494621
:101430002846FFF77CFC7006060E681C85B2A5EBFB
:101440000800182805D1454609F101001FFA80F966
:1014500003E0781CC7B2082FDBDB00BF601CC4B2FE
:101460003F2CCEDB32E000242EE00AEB8A10AF499D
:101470000844801C065D002721E006F0800038B19A
:10148000A848808882B249462846FFF750FC06E00B
:10149000A448008882B249462846FFF748FC7006F7
:1014A000060E681C85B2A5EB0800182805D1454634
:1014B00009F101001FFA80F903E0781CC7B2082F78
:1014C000DBDB00BF601CC4B23F2CCEDBBDE8F08F7D
:1014D000F0B504460D4616461F463B4622463146A9
:1014E0002846FFF781FF1820F0BDF0B504460D46F1
:1014F00016461F463B46224631462846FFF7F6FE73
:101500001220F0BD2DE9F84306460D4614461F464D
:101510004FF00008C14654E0207800B952E006EBD5
:10152000090086B2207880281ADD06F11800B0F58F
:10153000F07F07DD002605F1160085B2B5F5887F3E
:1015400000DD00252046FFF754FE1FFA80F83B46D9
:101550002A4631464046FFF7BBFF8146A41C2FE0D8
:1015600020780D280AD105F1160085B2B5F5887FDF
:1015700000DD0025641C4FF0000922E020780A28D5
:1015800004D10026641C4FF000091AE006F10C009B
:10159000B0F5F07F07DD002605F10C0085B2B5F54A
:1015A000887F00DD00255F48808880B200905D481C
:1015B000008883B2227829463046FFF707FD641C75
:1015C00000BFA9E700BFBDE8F8832DE9F843054651
:1015D0008846144600263FE0207800B93DE0207898
:1015E000302807DB2078392804DC207830381FFACF
:1015F00080F919E020782E2802D14FF00A0913E073
:1016000020782D2802D14FF00B090DE020782028FA
:1016100002D14FF00C0907E02078562802D14FF094
:101620000D0901E04FF00E094FEA4917F81707EBD3
:101630005070C01000EBC001C1EB80103C49084461
:10164000A919009088B2372320224146FFF709FEEE
:10165000641C06F1200086B2BEE700BFBDE8F88337
:101660002DE9F84306460D4614461F464FF0000884
:10167000C14656E0207800B95CE006EB090086B26E
:10168000207880281ADD06F11000B0F5F07F07DD24
:10169000002605F1100085B2B5F5887F00DD002534
:1016A0002046FFF7C1FD1FFA80F83B462A46314627
:1016B0004046FFF71AFF8146A41C31E020780D2830
:1016C0000AD105F1100085B2B5F5887F00DD00254F
:1016D000641C4FF0000924E020780A2804D1002679
:1016E000641C4FF000091CE006F10800B0F5F07F23
:1016F00007DD002605F1100085B2B5F5887F00DD15
:1017000000250848808880B200900648008883B28F
:10171000227829463046FFF759FC641C4FF00A092D
:1017200000BFA7E72400001035690400F468040036
:10173000E9A1040000BFBDE8F8832DE9F84306469F
:101740000D4614461F464FF00008C14656E020786B
:1017500000B954E006EB090086B2207880281ADD33
:1017600006F11000B0F5F07F07DD002605F110004E
:1017700085B2B5F5887F00DD00252046FFF754FDD2
:101780001FFA80F83B462A4631464046FFF7ADFE39
:101790008146A41C31E020780D280AD105F1100003
:1017A00085B2B5F5887F00DD0025641C4FF0000987
:1017B00024E020780A2804D10026641C4FF0000998
:1017C0001CE006F10800B0F5F07F07DD002605F10A
:1017D000080085B2B5F5887F00DD00255248808875
:1017E00080B200905048008883B222782946304663
:1017F000FFF71CFC641C4FF0080900BFA7E700BFFF
:10180000BDE8F883F0B504461D46062A00DD0A222D
:1018100002B90122052900DD0521914200DD1146B2
:10182000002004E02026414F3E54461CF0B20C2814
:10183000F8D310460FE00A26B4FBF6F706FB17466E
:101840003036471EDFF8E4C00CF807600A26B4FB08
:10185000F6F4461EF0B20028EDDC89B113460846C6
:1018600005E05E1E314FBE5DFE545E1EF3B2061EE5
:10187000A0F10107F8B2F4D12E262C4FFE5402E05D
:1018800020262A4FBE54A5B900200EE0274E365C14
:10189000302E07D1254F461CBE5D2E2E02D02026AD
:1018A0003E5400E004E0461CF0B2561E8642EDDCD9
:1018B00000BF561CF2B2104604E000261B4F3E54F7
:1018C000461CF0B20C28F8D3F0BD30B5184A002100
:1018D0000BE08478457844EA0524057844EA05431A
:1018E00008C2401C401C401C491CB1F5FF3FF0D30E
:1018F00030BD70B50E4B002112E000220CE00578DF
:101900002D04467845EA0625867845EA060410C384
:10191000401C401C401C521CB2F5F07FEFD3491C08
:10192000B1F5887FE9D370BD24000010980F001036
:10193000000001A070B505460C46A4F120000B4A3A
:1019400002EB0011102228461AF051FE70BDA1F1E1
:10195000200202EB4202064B03EB82021368036093
:10196000536843609268826070470000D980040029
:10197000C98604003EB5054642F669201EF007FA06
:1019800000241DE0F74841000322CDE90021029028
:10199000601C00EB4000042202EB0010062202FB58
:1019A000040304EB4400042202EB0010062202FBB5
:1019B00004014FF4EE724FF4BE701DF0BDFE641CC6
:1019C000052CDFD33EBD10B542F66920E6494860DC
:1019D0004FF6FF7008600023E4A2F1215420FFF7C6
:1019E0003FFE0023E3A2F121A420FFF739FE10BD42
:1019F00070B5054642F66920DB4948604FF6FF7036
:101A00000860A5B900240FE004EB4401DB4B03EBB5
:101A1000410204EB8401542303EB01100023F12164
:101A2000FFF71EFE601CC4B2052CEDDB14E00024A1
:101A300010E0611D01EB4101D04B03EB410204EBCF
:101A40008401542303EB01100023F121FFF708FE6A
:101A5000601CC4B2052CECDB70BD10B542F66920E9
:101A6000C14948604FF6FF7008600023C4A2F1210D
:101A70005420FFF7F5FD10BD10B542F66920BA49B4
:101A800048604FF6FF7008600023C0A2F121542087
:101A9000FFF7E6FD10BD10B50446002C39D14FF616
:101AA000FF70B149086042F6692048600023B8A27F
:101AB000E7215420FFF7D4FD0023B7A2FB215420D7
:101AC000FFF7CEFD0023B2A2E721A420FFF7C8FD57
:101AD0000023B3A2FB21A420FFF7C2FD0023B2A282
:101AE000E721F420FFF7BCFD0023ADA2FB21F42089
:101AF000FFF7B6FD0023ACA2E7214FF4A270FFF779
:101B0000AFFD0023AAA2FB214FF4A270FFF7A8FDAE
:101B10002EE0012C2CD14FF6FF709349086042F65D
:101B2000692048600023A4A2E7215420FFF798FD14
:101B30000023A3A2FB215420FFF792FD0023A2A2C1
:101B4000E721A420FFF78CFD0023A1A2FB21A42004
:101B5000FFF786FD0023A0A2E7214FF4CA70FFF72C
:101B60007FFD00239EA2FB214FF4CA70FFF778FD92
:101B700010BD10B54FF6FF707B49086042F6692032
:101B80004860002398A2E7215420FFF769FD002355
:101B900097A2FB215420FFF763FD002396A2F121B9
:101BA0004FF4A270FFF75CFD002396A2F1214FF4E1
:101BB000CA70FFF755FD10BD10B504460CB1012CDD
:101BC00033D14FF6FF706849086042F669204860DB
:101BD00000238FA2F1215420FFF742FD00238FA2A2
:101BE000E721A420FFF73CFD00238EA2FB21A420C7
:101BF000FFF736FD00238DA2E721F420FFF730FD2B
:101C0000002388A2FB21F420FFF72AFD00237AA2FB
:101C1000F1214FF4A270FFF723FD002379A2F121F7
:101C20004FF4CA70FFF71CFD26E04FF6FF704E49D7
:101C3000086042F669204860002375A2F121542013
:101C4000FFF70EFD002377A2E721A420FFF708FD90
:101C5000002378A2FB21A420FFF702FD002366A247
:101C6000F1214FF4A270FFF7FBFC002365A2F121E4
:101C70004FF4CA70FFF7F4FC10BD10B50446002CF9
:101C800039D14FF6FF703849086042F66920486044
:101C900000233FA2E7215420FFF7E2FC00233EA2ED
:101CA000FB215420FFF7DCFC002339A2E721A4200C
:101CB000FFF7D6FC00233AA2FB21A420FFF7D0FCBB
:101CC000002339A2E721F420FFF7CAFC002334A245
:101CD000FB21F420FFF7C4FC002333A2E7214FF4DB
:101CE000A270FFF7BDFC002331A2FB214FF4A270CC
:101CF000FFF7B6FC34E0012C32D14FF6FF701A49E1
:101D0000086042F66920486000232BA2E721542096
:101D1000FFF7A6FC00232AA2FB215420FFF7A0FC1A
:101D2000002321A2E721A420FFF79AFC00231CA294
:101D3000FB21A420FFF794FC002340A2F121F42012
:101D4000FFF78EFC002324A2E7214FF4CA70FFF7AF
:101D500087FC002322A2FB214FF4CA70FFF780FC0E
:101D600010BD00004040400024000010206DCEA9AE
:101D70002020000020CEA92000000000AF2D05008B
:101D800020E7A1AEE8AEA420000000002A31000048
:101D9000E6B58BE9878F0000E698BEE7A4BA00009D
:101DA000E8AEBEE7BDAE0000E7B3BBE7BB9F0000F7
:101DB000E4BFA1E681AF0000E69687E4BBB6000071
:101DC000E7AEA1E790860000E4BF9DE5AD98000076
:101DD000E695B0E68DAE0000E69BB4E5A49A00005F
:101DE00020322F3200000000E6B885E999A40000F7
:101DF000E8A1A8E6A0BC0000E4B88AE4B880E9A1A4
:101E0000B5000000E4B88BE4B880E9A1B50000009B
:101E1000E588A0E999A4E8A18C000000E7BABFE634
:101E200080A70000E887AAE58AA80000E5AFB9E628
:101E300095B00000E5A48DE588B60000E5B7A5E5FE
:101E400085B7000010B54FF6FF70FC49086042F6F8
:101E5000692048600023AFF2C802E7215420FFF751
:101E6000FFFB0023AFF2D002FB215420FFF7F8FB69
:101E70000023AFF2E402E721A420FFF7F1FB0023E7
:101E8000AFF2E402FB21A420FFF7EAFB0023AFF24C
:101E9000E802E721F420FFF7E3FB0023AFF2001292
:101EA000FB21F420FFF7DCFB0023AFF20412E72153
:101EB0004FF4A270FFF7D4FB0023AFF20C12FB210A
:101EC0004FF4A270FFF7CCFB10BD38B504460020DC
:101ED000182340F2E11201460090FEF7E0FF0020D7
:101EE000D64948604FF6FF7008600023D4A2032152
:101EF0000420FFF7B5FB38BD08B543F6AC101DF064
:101F000046FF0520FD234FF4BA725C2100900420A7
:101F10001DF0E0FC08BD10B504464AF2FF501DF06C
:101F200036FFC9481DF044FF1823C022002108468F
:101F30001DF0A4FC00201DF02AFF02201DF076FFFA
:101F4000C24901EB0410022200211DF0B7FB10BDB5
:101F500010B50020FFF7DFFFFFF7CEFF10BD7CB507
:101F6000054600201DF062FF42F669201DF004FFC7
:101F70006FF07F401DF00BFF00242EE04FF4BE7089
:101F8000ADF8000004EB4400042101EB0010062131
:101F900001FB040000B2ADF802004FF4EE70ADF8A2
:101FA0000400601C00EB4000042101EB001006213E
:101FB00001FB040000B2ADF80600C4EBC401A44A62
:101FC00002EB8101A34A1278C2EBC20201EB42008C
:101FD0000E2269461DF086FB641C052CCED37CBD09
:101FE00010B5FFF7B5FF0020FFF7C4FC0020FFF796
:101FF000B6FF00241FE0032C0ED2974800EB04121A
:10200000601C00EB40001A2303EBC00081B20023E8
:102010000420FFF725FB0DE08F4800EB0412A01E03
:1020200000EB40001A2303EBC00081B20023B8206C
:10203000FFF716FB641C062CDDD310BD08B543F674
:10204000AC10BE2340F2DF12702100900020FEF79A
:1020500026FF08BD10B50020FFF737FFFFF7EEFFA2
:1020600010BD08B543F6AC10A02340F2DF12562194
:1020700000900020FEF713FF43F6AC10E32340F27C
:10208000DF12C12100900020FEF709FF08BD10B546
:102090000020FFF71AFFFFF7E4FF10BD08B543F675
:1020A000AC10A02340F2DF12602100900020FEF768
:1020B000F6FE08BD10B50020FFF707FFFFF7EEFFA3
:1020C00010BD10B5FFF7F6FF4FF6FF705B490860D3
:1020D00040F23F2048600023604A04211846FFF781
:1020E000BFFA4FF6FF70554908605D48486000230D
:1020F0005CA21A210420FFF7B3FA00235CA232216C
:102100002C20FFF7ADFA00235CA232219020FFF7CC
:10211000A7FA00235CA23221F420FFF7A1FA0023E2
:102120005BA232214FF4AC70FFF79AFA00235AA257
:1021300032214FF4DE70FFF793FA0020FFF7ABFC7B
:1021400010BD704700B5FFF7FCFF00BD10B50120C2
:10215000FFF710FC0520FFF7DEFE4FF6FF701DF0C5
:1021600016FE3F481DF008FE002422E0042C0FD28A
:102170004A4901EB4411374B1B7801EB031004EB88
:102180004401C90001F11A0204211DF097FA0FE081
:10219000424901EB44112F4B1B7801EB0310211F27
:1021A00001EB4101C90001F11A02B8211DF086FAC4
:1021B000641C072CDAD310BD70B50120FFF7DAFBE1
:1021C0000120FFF7A8FE4FF6FF701DF0E0FD244848
:1021D0001DF0D2FD1F4890F8360000EB80011D482D
:1021E000383050F831002E490D5C00247FE004F0B7
:1021F000010008BB174991F8361001EB810315491E
:10220000383151F833104D235943264B03EB8101EC
:10221000C4EBC40301EB83010E4B1B78C3EBC30378
:1022200001EB4300610801EB4101C90001F11A0211
:1022300004211DF043FA59E036E0000024000010AC
:102240005A4374656B0000006C680500DF270500C9
:1022500053270500E40F00106519050091280500BB
:102260003366CC00E696B9E5BC8F203A000000004A
:10227000E9A291E78E875B487A5D0000E794B5E5B7
:10228000B9B35B565D00000043705B465D00000023
:10229000445B205D00000000434D50009CD10400D1
:1022A000ECD0040018D80400FE4991F8361001EB78
:1022B0008103FC49383151F833104D235943FA4B0F
:1022C00003EB8101C4EBC40301EB8301F54B1B78E5
:1022D000C3EBC30301EB4300611E01EB4101C900E5
:1022E0001A2303EB5102B8211DF0E8F9641CAC423B
:1022F000FFF47DAF70BD2DE9F8430446204623F07E
:102300004DFB05460022E94B23F0DCFC0BD2E84CE8
:1023100041F29C30ADF8000002208DF8020001204F
:102320008DF8030080E0204623F038FB05460022AC
:10233000E04B23F0C7FC14D8204623F02FFB0546C2
:102340000022DD4B23F022F9074623F0E3FA80B2A6
:10235000ADF8000002208DF8020001208DF8030086
:1023600062E0204623F01AFB05460022D34B23F0FF
:10237000A9FC14D8204623F011FB05460022D04BBF
:1023800023F004F9074623F0C5FA80B2ADF8000047
:1023900003208DF8020001208DF8030044E0204660
:1023A00023F0FCFA05460022C64B23F08BFC14D820
:1023B000204623F0F3FA05460022C34B23F0E6F84B
:1023C000074623F0A7FA80B2ADF8000001208DF88F
:1023D000020000208DF8030026E0204623F0DEFAFC
:1023E00005460022B44B23F06DFC14D8204623F0A0
:1023F000D5FA05460022B54B23F0C8F8074623F06E
:1024000089FA80B2ADF8000002208DF802000020A9
:102410008DF8030008E0A0B2ADF8000003208DF8AD
:10242000020000208DF803000098BDE8F8832DE934
:10243000F8430446204623F0B1FA054600229B4BA0
:1024400023F040FC0AD29A4C41F29C30ADF80000D7
:1024500002208DF802008DF803007EE0204623F074
:102460009DFA05460022934B23F02CFC14D82046FD
:1024700023F094FA054600228F4B23F087F8074695
:1024800023F048FA80B2ADF8000002208DF8020077
:1024900003208DF8030060E0204623F07FFA054614
:1024A0000022864B23F00EFC14D8204623F076FA47
:1024B00005460022824B23F069F8074623F02AFAEA
:1024C00080B2ADF8000001208DF8020002208DF8E6
:1024D000030042E0204623F061FA05460022794BD2
:1024E00023F0F0FB14D8204623F058FA05460022CA
:1024F000734B23F04BF8074623F00CFA80B2ADF88B
:10250000000001208DF8020002208DF8030024E075
:10251000204623F043FA05460022674B23F0D2FB06
:1025200013D8204623F03AFA05460022664B23F0E2
:102530002DF8074623F0EEF980B2ADF80000022036
:102540008DF802008DF8030007E0A0B2ADF800009E
:1025500001208DF802008DF803000098BDE8F88393
:1025600038B504465A481DF012FC5A481DF004FCC8
:1025700059481DF01DFC00201DF058FC5749002350
:10258000042208680321FFF73DF955A155481AF0C8
:1025900022F804EB8400800000F128025021514809
:1025A0001DF08CF83F4890F8360000EB80013D4864
:1025B000383050F83100052872D2DFE800F003040B
:1025C00053BEEF0000BF454840684FF6FF71884298
:1025D00006D1444844A10A6802608988818033E0BA
:1025E0003048C08D01281CD13C4842682D4890F8E5
:1025F0003610491E00F5FD7030F81100824203D2FA
:102600000020364948600CE034484268254890F87C
:102610003610491E00F5FD7030F81100101A2F49D0
:10262000486033480078012807D12C490023042250
:1026300048680321FFF7E6F806E028490023042252
:1026400048680221FFF7DEF82AA1264819F0C3FFE7
:1026500004EB8400800000F12802A02121481DF035
:102660002DF89DE01D4840682349884206D11D4849
:1026700022A10A6802604968416058E01749486829
:10268000FFF7D5FE0090204800990160024691783E
:10269000108800230422FFF7B5F81B48C07835E006
:1026A0007DE00000E40F001018D8040084D78741B3
:1026B00080F0FA02D01263410088C34080842E412A
:1026C00000408F40006AF84000005940000024405C
:1026D000FFFF80003366CC006C68050030030010FB
:1026E0006B560000980F00105550504552000000E6
:1026F000FB0000106D412000F6FF090055505045C9
:1027000052202020000000002C00001000EB4000B0
:10271000FE4A02EB4001FE4819F05DFF04EB840025
:10272000800000F12802A021F9481CF0C7FF962282
:102730005A21F7481CF0C2FF32E0F64840684FF6D5
:10274000FF71884207D1F248AFF250010A68026077
:10275000496841600EE0EF494868FFF7CCFD009002
:10276000ED48009901600246917810880023042208
:10277000FFF748F8E848C07800EB4000E74A8118C6
:10278000E34819F028FF04EB8400800000F12802E0
:10279000A021DF481CF092FF02E0FFE700E000BF4D
:1027A00000BFDC490889002304220121FFF72AF831
:1027B000DBA1D74819F00FFFDC225421D4481CF0CC
:1027C0007DFF38BD2DE9F8430446204623F0E6F8A6
:1027D00005460022D34B23F075FA13D8204623F088
:1027E000DDF805460022D04B22F0D0FE074623F04C
:1027F00091F880B2ADF8000002208DF802008DF84B
:10280000030025E0204623F0C9F805460022C74B07
:1028100023F058FA13D8204623F0C0F805460022CA
:10282000C34B22F0B3FE074623F074F880B2ADF834
:10283000000002208DF802008DF8030008E0A0B22D
:10284000ADF8000003208DF8020001208DF8030090
:102850000098BDE8F88338B50120FFF78BF8062013
:10286000FFF759FB6FF07F401DF091FAB1481DF062
:102870009FFA00240FE0B04A02EB4412AF4B1B78E2
:1028800002EB031004EB8402642303EB0211282201
:102890001CF014FF641C032CEDD3A9481DF088FA2A
:1028A00000241EE0601C00EB80008000283002B293
:1028B00002231421601C1CF059FE611C01EB8101F4
:1028C000890001F12802611C01EB81039B49383129
:1028D00051F833109B4B03EBC10032211CF0EEFE8C
:1028E000641C964890F83500A042DBD896481DF04D
:1028F0004EFA90481DF05CFA002468E0611C01EB80
:1029000081028E49383101EBC2010023042248685C
:102910000321FEF777FFAFF238217D4819F05BFE07
:10292000601C00EB8000800000F1280250217848F4
:102930001CF0C4FE611C01EB81028049383101EBBF
:10294000C2018868FFF73EFF00909DF80210BDF8B5
:10295000000000230422FEF755FF601C00EB8001FD
:102960007648383050F8310040B1601C00EB8001EF
:102970007248383050F83100012804D17349644856
:1029800019F029FE13E0601C00EB80016B48383021
:1029900050F8310002280AD19DF803006B4A103A22
:1029A00002EB001000F10801594819F014FE601CF8
:1029B00000EB8000800000F12802A02154481CF0A8
:1029C0007DFE64221146EA201CF0BCFD641C5B48BD
:1029D00090F83500A04291D856481DF0E9F938BD6D
:1029E00038B50120FEF7C6FF0020FFF794FA6FF01C
:1029F0007F401DF0CCF956481DF0BEF9002448E098
:102A000004F0010010BB4D4991F8361001EB810331
:102A10004A49383151F833104D2359434D4B03EB9C
:102A20008101C4EBC40301EB8301444B1B78C3EB6E
:102A3000C30301EB4300611C490801EB4101C900DC
:102A400001F11A0204211CF039FE21E03B4991F802
:102A5000361001EB81033949383151F833104D23D9
:102A600059433C4B03EB8101C4EBC40301EB8301ED
:102A7000324B1B78C3EBC30301EB4300611E4908D3
:102A800001EB4101C90001F11A02B8211CF016FE48
:102A9000641C0B2CB4D36FF07F401DF078F92748ED
:102AA00090F8353090F836202BA1194819F032FBF8
:102AB0001A22642116481CF001FE204991F83610B4
:102AC00001EB81021D49383151F832101D4A02EBE9
:102AD000C1001A224FF48C711CF0F0FD174890F8D9
:102AE000360000EB80011548383050F831000528D9
:102AF0007ED2DFE800F003FEFDFCFB000F4991F8F9
:102B0000361001EB81020D49383129E0BB2C05005C
:102B1000980F0010300300102C000010EB2D050062
:102B200020730000006AF8400000594000409F40B8
:102B3000000024406C6805003CD10400E40F001044
:102B40007C1F06006C110500FFFF8000C41105000A
:102B50003366CC001CDE040025642F2564000000D1
:102B600001EBC2010023042248680321FEF74AFE5C
:102B7000AFF29441F84819F02EFD32226421F64854
:102B80001CF09CFDF54890F8360000EB8001F348FE
:102B9000383000EBC100C068C0B1F04991F8361080
:102BA00001EB8102ED49383101EBC201002304221F
:102BB000C8680121FEF726FEE9A1E74819F00BFDE0
:102BC0004A226421E4481CF079FD08E0E3490978D1
:102BD000E44A02EBC1004A2264211CF06FFDDF4889
:102BE000C08B90B3DD4890F8360000EB800100E028
:102BF000EAE3DA48383000EBC1008069D8B1D74841
:102C000090F8360000EB8001D448383000EBC1006A
:102C1000806909280FD8D14991F8361001EB81025B
:102C2000CE49383101EBC201012362228869642157
:102C30001CF09CFC37E0C9490978CB4A02EBC10083
:102C4000622264211CF03AFD2DE0FFE7C34890F8B2
:102C5000360000EB8001C148383000EBC1008069CC
:102C6000C0B1BE4991F8361001EB8102BB49383141
:102C700001EBC2010023032288690121FEF7C2FD96
:102C8000BAA1B54819F0A7FC62226421B2481CF031
:102C900015FD08E0B1490978B34A02EBC100622290
:102CA00064211CF00BFDAD4991F8361001EB810257
:102CB000AA49383101EBC2018868FFF783FD009013
:102CC0009DF80210BDF8000000230422FEF79AFDD3
:102CD000A749A14819F07FFC32224FF48C719E481D
:102CE0001CF0ECFC9D4890F8360003E081E3A2E282
:102CF000C7E161E000EB80019848383000EBC1008B
:102D00000069F8B1954991F8361001EB81029349B9
:102D1000383101EBC2010869FFF754FD00909DF8BE
:102D20000210BDF8000000230422FEF76BFD90495D
:102D3000894819F050FC4A224FF48C7186481CF0E7
:102D4000BDFC09E085490978874A02EBC1004A22A7
:102D50004FF48C711CF0B2FC4FF6FF701DF017F8A9
:102D600084481DF009F800201DF060F882481DF02D
:102D70001FF87822282181A01CF0A0FC7822F021E5
:102D8000AFF2A4601CF09AFCAA2228217CA01CF0BF
:102D900095FCAA22F02175A01CF090FC79481DF04A
:102DA00007F8F322342178A01CF088FCF3228C2150
:102DB0006BA01CF083FC67E3684991F8361001EBC7
:102DC00081026649383101EBC201002304224868C0
:102DD0000321FEF717FDAFF2F8615F4819F0FBFB26
:102DE000322264215C481CF069FC5C4890F8360093
:102DF00000EB80015948383000EBC100C068C0B119
:102E0000564991F8361001EB81025449383101EBF3
:102E1000C20100230422C8680121FEF7F3FC50A17F
:102E20004D4819F0D8FB4A2264214B481CF046FC5F
:102E300008E04A4909784B4A02EBC1004A22642162
:102E40001CF03CFC454991F8361001EB81024349E6
:102E5000383101EBC2018868FFF7B4FC00909DF89F
:102E60000210BDF8000000230422FEF7CBFC40490D
:102E7000394819F0B0FB32224FF48C7136481CF0FF
:102E80001DFC364890F8360000EB8001334838309E
:102E900000EBC1000069F8B1304991F8361001EB40
:102EA00081022E49383101EBC2010869FFF78AFC23
:102EB00000909DF80210BDF8000000230422FEF7E8
:102EC000A1FC2B49244819F086FB4A224FF48C714F
:102ED00021481CF0F3FB09E020490978224A02EB63
:102EE000C1004A224FF48C711CF0E8FB1B48C08BD8
:102EF00080B31A4890F8360000EB8001174838304C
:102F000000EBC1008069D8B1144890F8360000EB9E
:102F100080011248383000EBC100806909280FD8C1
:102F20000E4991F8361001EB81020C49383101EB62
:102F3000C20101236222886964211CF017FB6BE047
:102F400006490978084A02EBC100622264211CF09C
:102F5000B5FB61E01AE00000980F0010E40F0010CC
:102F6000730000005C1105006C1005006D4100004D
:102F7000C41105003366CC00CCC20500563A0000EF
:102F8000493A00006C68050054203A00FE4890F869
:102F9000360000EB8001FC48383000EBC10080694E
:102FA00080B3F94890F8360000EB8001F6483830DD
:102FB00000EBC1008069C8280AD9C821F24890F8FE
:102FC000360000EB8002F048383000EBC20081612F
:102FD000ED4991F8361001EB8102EB49383101EBF4
:102FE000C2010023032288690121FEF70BFCAFF226
:102FF0008401E64819F0EFFA62226421E3481CF0EC
:103000005DFB09E0FFE7E0490978E14A02EBC10016
:10301000622264211CF052FB4FF6FF701CF0B7FED9
:10302000DC481CF0A9FE00201CF000FFDA481CF070
:10303000BFFE78222821AFF2BC001CF03FFB7822B3
:10304000F021AFF664101CF039FBAA222821AFF260
:10305000D0001CF033FBAA22F021AFF2F0001CF0EC
:103060002DFBCE481CF0A4FEF3223421AFF2E80081
:103070001CF024FBF3228C21AFF21C101CF01EFB71
:1030800002E2C14991F8361001EB8102BE493831A4
:1030900001EBC2010023042248680321FEF7B2FBC2
:1030A000AFF6C411B94819F096FA32226421B74834
:1030B0001CF004FBB44890F8360000EB8001B248E5
:1030C000383000EBC100C068C8B1AF4991F8361084
:1030D00001EB8102AC49383101EBC201002304222B
:1030E000C8680121FEF78EFBAFF28C11A74819F0DA
:1030F00072FA4A226421A5481CF0E0FA08E0A249CD
:103100000978A74A02EBC1004A2264211CF0D6FAD2
:103110009D4890F8360000EB80019B48383000EB6A
:10312000C100806828B3984991F8361001EB8102FC
:103130009549383101EBC2018868FFF778F90090B2
:103140009DF80210BDF8000000230422FEF75AFB90
:103150009DF80300934A02EB001000F108018B4830
:1031600019F039FA32224FF48C7188481CF0A6FA13
:1031700009E085490978864A02EBC10032224FF402
:103180008C711CF09BFA804991F8361001EB81029A
:103190007D49383101EBC2010869FFF748F9009019
:1031A0009DF80210BDF8000000230422FEF72AFB60
:1031B0009DF803007B4A02EB001000F10801734800
:1031C00019F009FA4A224FF48C7170481CF076FA13
:1031D0004FF6FF701CF0DBFD6E481CF0CDFD0020AB
:1031E0001CF024FE6C481CF0E3FD78222821AFF28D
:1031F00074201CF063FA7822F021AFF61C301CF02A
:103200005DFAAA22282168A01CF058FAAA22F0210F
:1032100066A01CF053FA61481CF0CAFDF322342169
:10322000AFF29C201CF04AFAF3228C21AFF2D0209E
:103230001CF044FA28E1544890F8360000EB800175
:103240005148383000EBC10059A102694F4818F0CD
:1032500061FF322264214D481CF030FA4A4890F850
:10326000360000EB80014848383000EBC100806830
:10327000642813D3444890F8360000EB800142489C
:10328000383000EBC1004AA18268404818F042FF84
:103290004A2264213D481CF011FA08E03A490978B5
:1032A0003B4A02EBC1004A2264211CF007FA36486F
:1032B00090F8360000EB80013348383000EBC10055
:1032C000006AD0B3304890F8360000EB80012E48F9
:1032D000383000EBC100006AB0F57A7F13D32A487A
:1032E00090F8360000EB80012748383000EBC10031
:1032F000006A0A21B0FBF1F50023042202212846CE
:10330000FEF780FA0EE0204991F8361001EB8102B9
:103310001D49383101EBC20100230422086A032150
:10332000FEF770FA2449194819F055F932224FF482
:103330008C7116481CF0C2F906E0FFE732224FF408
:103340008C711EA01CF0BAF94FF6FF701CF01FFD27
:1033500010481CF011FD00201CF068FD0E481CF008
:1033600027FD78222821AFF2EC301CF0A7F9782253
:10337000F021AFF694401CF0A1F9AA22282111A057
:103380001CF09CF9AA2220E0E40F0010980F001016
:103390006C1005003366CC00CCC205006C680500DB
:1033A0005C110500B4110500523A0000CEA90000DE
:1033B0002533642525000000EE2D05004E4F4E45B7
:1033C00000000000433A00005DE0F021FEA01CF088
:1033D00075F9FE481CF0ECFCF3223421AFF25840A2
:1033E0001CF06CF9F3228C21AFF28C401CF066F9D2
:1033F0004AE032226421F6A01CF060F9F64991F807
:10340000361001EB8102F449383101EBC201496AFF
:10341000F24A02EB0111F04A127801EBC2003222AB
:103420004FF48C711CF04AF9EB4890F8360000EB31
:103430008001E948383000EBC100C068C8B1E649F6
:1034400091F8361001EB8102E349383101EBC201FA
:1034500000230422C8680121FEF7D4F9AFF200511D
:10346000DF4819F0B8F84A226421DD481CF026F93B
:1034700008E0D9490978DB4A02EBC1004A226421FD
:103480001CF01CF900E000BF00BF38BD10B50120E2
:10349000FEF770FA0320FEF73EFD4FF6FF701CF0BA
:1034A00076FCD1481CF068FC00242CE004F00100FC
:1034B000A0B9C4EB0411CD4B03EB4101C64B1B7803
:1034C000C3EB0313C818611C490801EB4101C90093
:1034D00001F11A0204211CF0F1F813E0C4EB04110D
:1034E000C24B03EB4101BC4B1B78C3EB0313C81861
:1034F000611E490801EB4101C90001F11A02B8211E
:103500001CF0DCF8641C0F2CD0D310BD38B5044679
:10351000012C00D100E0002005461DB1FF20B44978
:10352000486002E0B048B2494860B148808880B243
:103530004823C022302100905420FDF7B0FCAC4855
:10354000808880B20090AA48008883B2A948007899
:103550003130C2B230216C20FDF738FD022C01D190
:10356000012000E0002005461DB1FF20A049486071
:1035700002E09D489E4948609E49097801EB81021E
:103580009C49891C01EB8201C88900230422194649
:10359000FEF738F99648808880B25E23C0224A211F
:1035A00000905420FDF77BFC00238D4A4A215C20CB
:1035B000FEF756F8002390A24A218E20FEF750F81D
:1035C000032C01D1012000E0002005461DB1FF20A1
:1035D0008749486002E08448854948608549097800
:1035E00001EB81028349891C01EB8201088A0023D7
:1035F00004221946FEF706F97D48808880B27623BA
:10360000C022622100905420FDF749FC0023744A37
:1036100062215C20FEF724F8002377A262218E202D
:10362000FEF71EF8042C01D1012000E00020054621
:103630001DB1FF206E49486002E06B486C4948604C
:103640006E48006811281DD16948808880B24623E1
:103650004FF4C872302100904FF48670FDF71FFCC4
:103660006448007800EB80016248801C00EB810018
:103670004089634901EB0012002332214FF4867028
:10368000FDF7EEFF052C01D1012000E000200546EA
:103690001DB1FF205649486002E053485449486034
:1036A0005449097801EB81025249891C01EB8201DE
:1036B0004888002304221946FEF7A4F84C48808865
:1036C00080B25E234FF4C8724A2100904FF4847098
:1036D000FDF7E5FB0023424A4A214FF48D70FDF7C8
:1036E000BFFF002347A24A214FF4A070FDF7B8FFA7
:1036F000062C01D1012000E0002005461DB1FF206D
:103700003B49486002E038483949486039490978FE
:1037100001EB81023749891C01EB82018888002373
:1037200004220121FEF76EF800232D4A62214FF496
:103730008870FDF795FF0023AFF61C4262214FF41D
:10374000A070FDF78DFF38BD7CB506460D46012003
:10375000FEF710F902201CF069FB6FF07F401CF0AF
:1037600016FB0024C4E04FF4BE70ADF8000004EB7B
:103770004400042101EB0010062101FB040000B20B
:10378000ADF802004FF4EE70ADF80400601C00EBE1
:103790004000042101EB0010062101FB040000B2EF
:1037A000ADF80600052E3FD2DFE806F0033F576F65
:1037B0008700C5EBC50101EB8101134A02EB8101D2
:1037C000054A127822E000006E4600006C68050091
:1037D0005041555345000000E40F00106C100500E7
:1037E000980F00105C1105003366CC00C41305006F
:1037F00024000010B00800104DCEA90020010010D8
:10380000981E05002056000020E40400C2EBC2020E
:1038100002EB820201EB4201C4EBC40201EB420065
:103820000E2269461BF05EFF5FE0C5EBC50101EBB0
:103830008101FE4A02EB8101FD4A1278C2EBC2020D
:1038400002EB820201EB4201C4EBC40201EB420035
:103850000E2269461BF046FF47E0C5EBC50101EBB0
:103860008101F44A02EB8101F14A1278C2EBC202F3
:1038700002EB820201EB4201C4EBC40201EB420005
:103880000E2269461BF02EFF2FE0C5EBC50101EBB0
:103890008101E94A02EB8101E54A1278C2EBC202DA
:1038A00002EB820201EB4201C4EBC40201EB4200D5
:1038B0000E2269461BF016FF17E0C5EBC50101EBB0
:1038C0008101DE4A02EB8101D94A1278C2EBC202C1
:1038D00002EB820201EB4201C4EBC40201EB4200A5
:1038E0000E2269461BF0FEFE00BF00BF601CC4B282
:1038F000052CFFF638AF7CBDF8B50546CC4991F8EC
:10390000361001EB8102CA49383151F83210CC4AE5
:10391000515C481C00EBD071C1F34707012437E02C
:10392000AC4203D1FF201CF032FA02E0C5481CF083
:103930002EFA04F00100A0B1601E012202EB50003B
:1039400000EB4000C00000F11803601E00EB4000D7
:10395000C000182202EB5001B4225A201BF08EFF47
:1039600015E0601E012202EB500000EB4000C00099
:1039700000F11803601E400800EB4000C00000F199
:1039800018014FF4B7724FF48A701BF077FF641C74
:10399000A74890F8360000EB8001A548383050F871
:1039A0003100A749085C401CA042B9D802201CF095
:1039B0003DFA6FF07F401CF0EAF99D4890F83530F1
:1039C00090F83620AFF670619F4818F0A3FB1A22DA
:1039D00064219D481BF072FE954991F8361001EB69
:1039E00081029349383151F83210984A02EBC100F4
:1039F0001A224FF48C711BF061FE8D4890F836004E
:103A000000EB80018A48383050F83100052871D227
:103A1000DFE810F0050096019A03CA04670584499F
:103A200091F8361001EB81028149383101EBC20176
:103A30000023042248680321FDF7E4FE84A18248A4
:103A400018F0C9FD322264217F481BF037FE784808
:103A500090F8360000EB80017548383000EBC1006B
:103A6000C068C8B1724991F8361001EB8102704903
:103A7000383101EBC20100230422C8680121FDF79F
:103A8000C1FEAFF62431704818F0A5FD4A2264212A
:103A90006D481BF013FE08E0654909786D4A02EB9A
:103AA000C1004A2264211BF009FE614890F83600EB
:103AB00000EB80015E48383000EBC1004069D0B1B6
:103AC0005B4991F8361001EB81025949383101EB1D
:103AD000C2010023042248690121FDF793FEAFF6DD
:103AE0008031594818F077FD6222642156481BF056
:103AF000E5FD09E0F9E34E490978574A02EBC100B8
:103B0000622264211BF0DAFD494890F8360000EB90
:103B100080014748383000EBC100C069C8B1444952
:103B200091F8361001EB81024149383101EBC201B5
:103B300000230422C8690121FDF764FEAFF6E031DD
:103B4000414818F048FD7A2264213F481BF0B6FD39
:103B500008E037490978404A02EBC1007A22642123
:103B60001BF0ACFD324991F8361001EB810230496F
:103B7000383101EBC2018868FEF724FE00909DF801
:103B80000210BDF8000000230422FDF73BFE33497C
:103B90002D4818F020FD32224FF48C712A481BF07A
:103BA0008DFD234890F8360000EB80012048383026
:103BB00000EBC1000069F8B11D4991F8361001EB26
:103BC00081021B49383101EBC2010869FEF7FAFD99
:103BD00000909DF80210BDF8000000230422FDF7BC
:103BE00011FE1E49184818F0F6FC4A224FF48C7159
:103BF00015481BF063FD09E00D490978164A02EBF0
:103C0000C1004A224FF48C711BF058FD0848C08B4C
:103C100030B3074890F8360000EB80010448383094
:103C200000EBC1008069092826D91AE0F8ED0400EC
:103C3000E40F001088F404004C030500940605000E
:103C4000ECD004003366CC00980F00106C11050016
:103C50006B5600005C1105006C100500C4110500D6
:103C60003DE00921FB4890F8360000EB8002F9485E
:103C7000383000EBC2008161F64890F8360000EB66
:103C80008001F448383000EBC1008069E0B1F148B0
:103C900090F8360000EB8001EE48383000EBC100B0
:103CA0008069092810D8EB4991F8361001EB8102A0
:103CB000E849383101EBC2010123622288694FF4DF
:103CC0008C711BF053FC3AE0E2490978E24A02EBBE
:103CD000C10062224FF48C711BF0F0FC2FE0DD4834
:103CE00090F8360000EB8001DA48383000EBC10074
:103CF0008069D0B1D74991F8361001EB8102D549DE
:103D0000383101EBC2010023032288690121FDF74C
:103D100079FDAFF6A851D14818F05DFC62224FF44E
:103D20008C71CE481BF0CAFC09E0CA490978CA4A1E
:103D300002EBC10062224FF48C711BF0BFFC02E267
:103D4000C44991F8361001EB8102C249383101EBC8
:103D5000C2010023042248680321FDF753FDAFF29E
:103D60001011BE4818F037FC32226421BB481BF00A
:103D7000A5FCB84890F8360000EB8001B548383013
:103D800000EBC100C068C8B1B24991F8361001EB30
:103D90008102B049383101EBC20100230422C86816
:103DA0000121FDF72FFDAFF64861AC4818F013FC78
:103DB0004A226421A9481BF081FC08E0A549097842
:103DC000A74A02EBC1004A2264211BF077FCA148FC
:103DD00090F8360000EB80019E48383000EBC100BF
:103DE0004069C8B19B4991F8361001EB81029949AD
:103DF000383101EBC2010023042248690121FDF79B
:103E000001FDAFF6A461954818F0E5FB622264213C
:103E100092481BF053FC08E08E4909788E4A02EB69
:103E2000C100622264211BF049FC8A4890F83600E8
:103E300000EB80018748383000EBC100C069C8B191
:103E4000844991F8361001EB81028249383101EB47
:103E5000C20100230422C8690121FDF7D3FCAFF69B
:103E600000717E4818F0B7FB7A2264217B481BF072
:103E700025FC08E077490978774A02EBC1007A22ED
:103E800064211BF01BFC734890F8360000EB8001A6
:103E90007048383000EBC100406A80B36D4890F83C
:103EA000360000EB80016B48383000EBC100406AFF
:103EB00040F6AC51884209D3664890F8360000EBD2
:103EC00080026448383000EBC2004162614991F8D9
:103ED000361001EB81025F49383101EBC20100234A
:103EE0000422486A0121FDF78DFC5EA15B4818F0B1
:103EF00072FB9222642159481BF0E0FB15E0FFE7BA
:103F0000544991F8361001EB81025249383101EBE6
:103F1000C201496A504A02EB01114E4A127801EB84
:103F2000C200922264211BF0C9FB4A4991F8361065
:103F300001EB81024749383101EBC2018868FEF785
:103F400041FC00909DF80210BDF8000000230422FF
:103F5000FDF758FC4449414818F03DFB32224FF42C
:103F60008C713E481BF0AAFB3A4890F8360000EBF3
:103F700080013848383000EBC1000069F8B135499C
:103F800091F8361001EB81023249383101EBC20160
:103F90000869FEF717FC00909DF80210BDF80000BC
:103FA00000230422FDF72EFC2F492C4818F013FBA8
:103FB0004A224FF48C7129481BF080FB09E0254907
:103FC0000978254A02EBC1004A224FF48C711BF09C
:103FD00075FB2048C08BE0B31E4890F8360000EB1C
:103FE00080011C48383000EBC100806909280AD9DB
:103FF0000921184890F8360000EB80021548383047
:1040000000EBC2008161134890F8360000EB80019C
:104010001048383000EBC100806938B30D4890F883
:10402000360000EB80010B48383000EBC10080699E
:1040300009281FD8074991F8361001EB810205497C
:10404000383101EBC2010123622288694FF48C717F
:104050000DE01AE0E40F00106C100500980F00103E
:104060005C11050075410000C411050002E01BF061
:104070007DFA39E0FE490978FE4A02EBC10062226E
:104080004FF48C711BF01AFB2EE0F94890F83600C3
:1040900000EB8001F648383000EBC1008069C8B100
:1040A000F34991F8361001EB8102F149383101EB07
:1040B000C2010023042288690121FDF7A3FBEEA1C0
:1040C000EE4818F088FA62224FF48C71EB481BF02E
:1040D000F5FA09E0E6490978E64A02EBC1006222F6
:1040E0004FF48C711BF0EAFAE14890F8360000EBCF
:1040F0008001DF48383000EBC100006AC8B1DC49FC
:1041000091F8361001EB8102D949383101EBC20137
:1041100000230422086A0121FDF774FBD8A1D748C7
:1041200018F059FA7A224FF48C71D4481BF0C6FA71
:1041300009E0CF490978CF4A02EBC1007A224FF457
:104140008C711BF0BBFA18E2C94991F8361001EBEB
:104150008102C749383101EBC201002304224868BB
:104160000321FDF74FFBAFF21851C44818F033FAA2
:1041700032226421C1481BF0A1FABD4890F83600F4
:1041800000EB8001BA48383000EBC100C068C0B114
:10419000B74991F8361001EB8102B549383101EB8E
:1041A000C20100230422C8680121FDF72BFBB4A142
:1041B000B24818F010FA4A226421B0481BF07EFA87
:1041C00008E0AB490978AF4A02EBC1004A226421FA
:1041D0001BF074FAA64890F8360000EB8001A44862
:1041E000383000EBC1004069C0B1A14991F83610E8
:1041F00001EB81029E49383101EBC2010023042208
:1042000048690121FDF7FEFA9DA19C4818F0E3F9E9
:104210006222642199481BF051FA08E09449097818
:10422000944A02EBC100622264211BF047FA9048D5
:1042300090F8360000EB80018D48383000EBC1006B
:10424000C069C0B18A4991F8361001EB81028849F2
:10425000383101EBC20100230422C8690121FDF7B6
:10426000D1FA87A1854818F0B6F97A2264218348EB
:104270001BF024FA08E07E4909787E4A02EBC1006F
:104280007A2264211BF01AFA794890F8360000EB84
:1042900080017748383000EBC100806830B3744942
:1042A00091F8361001EB81027149383101EBC201FE
:1042B0008868FEF7BCF800909DF80210BDF8000079
:1042C00000230422FDF79EFA9DF803006E4A02EBDC
:1042D000001000F10801694818F07DF932224FF40E
:1042E0008C7166481BF0EAF90AE045E160490978FB
:1042F000604A02EBC10032224FF48C711BF0DEF9F0
:104300005B4991F8361001EB81025949383101EBD4
:10431000C2010869FEF78BF800909DF80210BDF805
:10432000000000230422FDF76DFA9DF80300564AB1
:1043300002EB001000F10801504818F04CF94A2235
:104340004FF48C714D481BF0B9F949490978C1EB1C
:10435000C1014E4A02EBC102454991F8361001EB0A
:1043600081034349383101EBC301896902EBC10084
:1043700062224FF48C711BF0A1F93D4991F836107F
:1043800001EB81023A49383101EBC201496A394AED
:1043900002EB0111364A127801EBC2007A224FF487
:1043A0008C711BF08BF9E8E0314890F8360000EB97
:1043B00080012F48383000EBC100354902692F4891
:1043C00017F0A8FE322264212C481BF077F9284808
:1043D00090F8360000EB80012548383000EBC10032
:1043E0008068642813D3224890F8360000EB8001DF
:1043F0001F48383000EBC100254982681F4817F07C
:1044000089FE4A2264211D481BF058F908E018492A
:104410000978184A02EBC1004A2264211BF04EF9C8
:10442000134890F8360000EB80011148383000EB5B
:10443000C100006A70B30E4890F8360000EB8001AE
:104440000B48383000EBC100006AB0F57A7F27D303
:10445000074890F8360000EB80010548383000EB43
:10446000C100006A0A21B0FBF1F60023042212E029
:10447000E40F00106C1005006D410000980F001053
:10448000730000005C110500B4110500EC1005007C
:10449000B03302001EE002213046FDF7B3F90EE012
:1044A000FA4991F8361001EB8102F849383101EBF5
:1044B000C20100230422086A0321FDF7A3F9F4498D
:1044C000F44818F088F832224FF48C71F1481BF050
:1044D000F5F805E032224FF48C71EF481BF0EEF84E
:1044E0004BE032226421AFF618501BF0E7F8E749A1
:1044F00091F8361001EB8102E449383101EBC20139
:10450000496AE64A02EB0111E04A127801EBC20067
:1045100032224FF48C711BF0D1F8DC4890F8360051
:1045200000EB8001D948383000EBC100C068C8B149
:10453000D64991F8361001EB8102D449383101EBAC
:10454000C20100230422C8680121FDF75BF9AFF224
:10455000D001D04818F03FF84A226421CD481BF022
:10456000ADF808E0C9490978CD4A02EBC1004A22FA
:1045700064211BF0A3F800E000BF00BFC34991F81D
:10458000361001EB8102C149383111F83200294659
:10459000FFF7DAF8F8BD7CB505460120FDF7EAF92A
:1045A00042F669201BF0E8FB02201BF03FFC6FF095
:1045B0007F401BF0ECFB002437E04FF4BE70ADF8F9
:1045C000000004EB4400042101EB0010062101FB74
:1045D000040000B2ADF802004FF4EE70ADF8040034
:1045E000601C00EB4000042101EB0010062101FBE0
:1045F000040000B2ADF80600C5EBC50101EB810176
:10460000A84A02EB8101A14A1278C2EBC20202EB76
:10461000820201EB4201C4EBC40201EB42000E2214
:1046200069461BF05FF8601CC4B2052CC5DB7CBD7D
:104630002DE9F0470746954C14340F2601253BE041
:10464000BD4203D1FF201BF0A2FB02E096481BF005
:104650009EFB701C00EBD071B5EB610F0FD805EB22
:104660004500C00000F11803681E00EB4000C000C8
:1046700000F11801B4225A201BF000F91BE006F1EA
:10468000010808EBD870A5EB600000EB4000C0000B
:1046900000F11803C14609EBD970A5EB6000401E7C
:1046A00000EB4000C00000F118014FF4B7724FF466
:1046B0008A701BF0E3F86D1CB5F5E17FC0D90220CC
:1046C0001BF0B4FB6FF07F401BF061FB002526E080
:1046D000012D0ED134F81500B0F57A7F09D105EB24
:1046E00045001A2101EBC002642170A01AF0E6FF18
:1046F00014E034F81500002303220121FDF782F8AD
:10470000AFF28421634817F066FF05EB45001A21DC
:1047100001EBC00264215F481AF0D0FF6D1C032D2D
:10472000D6D3E1885D4A02EB0111584A127801EBB9
:10473000C200622264211AF0C1FF21895C4A02EBA7
:10474000C1007A2264211AF0B9FF6189594A02EB4B
:1047500001114E4A127801EBC200922264211AF034
:10476000ADFFA08948B9494909784C4A02EBC1001C
:10477000AA2264211AF0A2FF0AE0A08900230222E3
:104780001946FDF73FF8AA22642142481AF096FF25
:10479000E189424A02EB01113C4A127801EBC20066
:1047A000C22264211AF08AFF218A3C4A02EB0111DD
:1047B000364A127801EBC2001A224FF48C711AF0BB
:1047C0007DFF618A354A02EB0111304A127801EB14
:1047D000C20032224FF48C711AF070FFA18A364A5F
:1047E00002EB0111294A127801EBC2004A224FF470
:1047F0008C711AF063FFE18A284A02EB0111234A07
:10480000127801EBC20062224FF48C711AF056FF4D
:10481000218B224A02EB01111C4A127801EBC200E3
:104820007A224FF48C711AF049FF618B1B4A02EB1C
:104830000111164A127801EBC20092224FF48C71DA
:104840001AF03CFFA08B88B1A08B0023022201212B
:10485000FCF7D8FFAFF2D8310E4817F0BCFEAA2201
:104860004FF48C710B481AF029FF09E007490978C9
:104870000A4A02EBC100AA224FF48C711AF01EFF03
:104880003846FFF788FEBDE8F0870000E40F00100F
:10489000EE2D0500980F0010BC3302006C100500CF
:1048A0005C1105008CFA04003366CC004B455900BE
:1048B00094110500CC1005008C1005001CB50120DA
:1048C000FDF758F802201BF0B1FA6FF07F401BF0A3
:1048D0005EFA00242BE04FF4BE70ADF8000004EB4C
:1048E0004400042101EB0010062101FB040000B28A
:1048F000ADF802004FF4EE70ADF80400601C00EB60
:104900004000042101EB0010062101FB040000B26D
:10491000ADF80600FB4901EB4411FB4A127801EBAC
:1049200002100E2269461AF0DDFE601CC4B2052C8E
:10493000D1DB1CBD10B502201BF078FA6FF07F4070
:104940001BF025FA32226421F0A01AF0B7FEEE49DE
:104950000978F04A02EB41104A2264211AF0AEFEB7
:10496000E9490A78EB49403101EB42107A2264218F
:104970001AF0A4FEE4490A78E649803101EB4210BE
:10498000922264211AF09AFEDF490A78E149C03187
:1049900001EB4210AA2264211AF090FEFFF78EFF6D
:1049A00010BD70B504460D46601EDB4A115C002345
:1049B00004222846FCF726FF601C00EB4000C000E4
:1049C00000F11A010123D54A4FF4A270FCF748FE0A
:1049D00070BD38B50546002432E0601C854203D125
:1049E000FF20CF49486002E0CE48CD494860CC481E
:1049F000808880B20090E01C00EB4000C0001630C0
:104A000083B2A01C00EB4000C000183081B2E82245
:104A1000A420FCF744FAC04A115DC34A32F82400CE
:104A200000230422FCF7EEFEA01C00EB4000C000B7
:104A30001A3081B20123B94AA420FCF711FE641C8C
:104A4000052CCAD3B748B649486038BD30B58DB0DB
:104A50000446B448B249486002A9B44810F0EEFEDA
:104A6000B3A10AA817F056FB00230AAAAA215E20C8
:104A7000FCF7F6FDB1A10AA817F04CFB00230AAA27
:104A8000C2217220FCF7ECFD062C01D1012000E0D0
:104A9000002005461DB1FF20A149486002E0A14861
:104AA0009F494860A8A10AA8099A17F033FB9C48BF
:104AB000808880B2BE238622AA2100905E20FCF767
:104AC000EEF900230AAAAA215E20FCF7C9FD072CF3
:104AD00001D1012000E0002005461DB1FF209049D2
:104AE000486002E08F488E49486097A10AA8089A5A
:104AF00017F010FB8A48808880B2BE23A422AA2126
:104B000000909020FCF7CBF900230AAAAA2190205C
:104B1000FCF7A6FD082C01D1012000E0002005468D
:104B20001DB1FF207E49486002E07E487C49486014
:104B300085A10AA8059A17F0EDFA7948808880B215
:104B4000BE23C222AA210090AE20FCF7A8F90023C0
:104B50000AAAAA21AE20FCF783FD092C01D101206D
:104B600000E0002005461DB1FF206D49486002E0CD
:104B70006C486B49486074A10AA8049A17F0CAFAF5
:104B80006748808880B2D6238622C2210090722096
:104B9000FCF785F900230AAAC2217220FCF760FD08
:104BA0000A2C01D1012000E0002005461DB1FF20A4
:104BB0005B49486002E05B485949486062A10AA825
:104BC000039A17F0A7FA5648808880B2D623A42209
:104BD000C22100909020FCF762F900230AAAC221AA
:104BE0009020FCF73DFD0B2C01D1012000E00020BE
:104BF00005461DB1FF204A49486002E0494848493E
:104C0000486051A10AA8029A17F084FA44488088A3
:104C100080B2D623C22211460090AE20FCF73FF9A5
:104C200000230AAAC221AE20FCF71AFD0DB030BD48
:104C30007CB505460120FCF79DFE02201BF0F6F82E
:104C40006FF07F401BF0A3F8002437E04FF4BE70F4
:104C5000ADF8000004EB4400042101EB0010062134
:104C600001FB040000B2ADF802004FF4EE70ADF8A5
:104C70000400601C00EB4000042101EB0010062141
:104C800001FB040000B2ADF80600C5EBC50101EB65
:104C900081012F4A02EB81011B4A1278C2EBC2024A
:104CA00002EB820201EB4201C4EBC40201EB4200C1
:104CB0000E2269461AF016FD601CC4B2052CC5DB35
:104CC0007CBD70B505460726012456E0AC4203D1F1
:104CD000FF201BF05CF802E012481BF058F8042C8F
:104CE00038D804EB4400C00000F11803601E00EB4C
:104CF0004000C00000F11801A0225A201AF0BEFDA9
:104D00003AE000003CD30400E40F00104A4B373176
:104D100033300000DCD60400482F0500980F001047
:104D2000240000103366CC00E00700100040024071
:104D3000202020203A20203A2020000020203A2065
:104D4000203A2020000000002530326400000000DE
:104D500098E90400201F00EB4000C00000F1180398
:104D6000601F00EB4000C00000F118014FF4AD726D
:104D70004FF48A701AF082FD641C701C8442A5D323
:104D800002201BF053F86FF07F401BF000F8FD4944
:104D90000978C1EBC10101EB8101FB4A02EB410142
:104DA000F84A1278C2EBC20201EB42001A226421D7
:104DB0001AF084FCF3490978C1EBC10101EB8102CF
:104DC000F1498C3101EB4201EE4A5278C2EBC2024A
:104DD00001EB4200322264211AF070FCE9490978A3
:104DE000C1EBC10101EB8102E84901EB4201E54A57
:104DF0009278C2EBC20201EB42004A2264211AF00F
:104E00005DFCE0490978C1EBC10101EB8102DF499A
:104E10008C3101EB4201DB4AD278C2EBC20201EBDA
:104E20004200622264211AF049FCD649497BC1EB59
:104E3000C10101EB8102D64901EB4201D14A12784E
:104E4000C2EBC20201EB42001A224FF48C711AF03D
:104E500035FCCC49887B032332224FF48C711AF045
:104E600085FBC8490978C1EBC10101EB8102C94941
:104E700001EB4201C34AD27BC2EBC20201EB42000A
:104E80004A224FF48C711AF019FC2846FFF7D0FE25
:104E900070BD10B50020FDF718F810BD10B5FFF774
:104EA000F8FF4FF6FF70BC49086040F23F204860B1
:104EB0004FF6FF700860B948486000240FE004EB2B
:104EC000840101EBC401B64BCA1804EB840149010B
:104ED000091D88B200233221FCF7C2FB641C032C9D
:104EE000EDD3002410E004EB840000EBC400AD4BD4
:104EF000C218A01C00EB4000C0001A3081B2002391
:104F00000420FCF7ADFB641C052CECD310BD08B5E8
:104F100043F6AC10B62340F2DF127A210090002055
:104F2000FBF7BDFF08BD10B50020FCF7CEFFFFF773
:104F3000EEFF10BD08B543F6AC10B62340F2DF1209
:104F40007A2100900020FBF7AAFF08BD10B50020D1
:104F5000FCF7BBFF10BD10B5FFF7F8FF4FF6FF7071
:104F60008D49086040F23F20486000238E4A0421AA
:104F70001846FCF775FB4FF6FF70874908608748B5
:104F800048600023894A1A210420FCF769FB0124A8
:104F90000CE0864901EB0412611E4D235943223176
:104FA00088B200233221FCF75BFB641C072CF0D392
:104FB0000020FCF762FE10BD38B5002416E04FF665
:104FC000FF700090601C00EB40001A2202EBC00052
:104FD000801E83B2601C00EB400002EBC000801E0C
:104FE00081B2BE225A20FBF7B4FE641C052CE6D326
:104FF00038BD10B50220FCF768FF10BD10B50120C8
:10500000FCF7B8FC0420FCF786FF4FF6FF701AF09F
:10501000BEFE62481AF0B0FE002410E0644901EBC5
:105020004411584B1B7801EB0310611C01EB41014B
:10503000C90001F11A0204211AF040FB641C062C7D
:10504000ECD310BD70B505462846FCF73EFF4FF681
:10505000FF7051490860086050484860022D11D126
:1050600000240DE0534800EB0412601C00EB4000EC
:10507000C0001A3081B200230420FCF7F1FA641C4E
:10508000072CEFD370BD2DE9F34F83B00C4642F2ED
:105090000F716068884206D90A216068B0FBF1F0A0
:1050A00060600420A060A068C0F10400A060D4F893
:1050B0000490E06820B94FF47A7009FB00F90EE023
:1050C000E06801280BD1484620F068FC0746002222
:1050D000394B20F0F9FC054620F01CFC8146A06805
:1050E00020F05CFC07463A460B46002033491FF08F
:1050F00009FC05460E46484620F050FC2A46334639
:10510000CDE9000120F042FA824620F003FC8146FE
:10511000484620F043FC05460022294B20F0D2FDF2
:1051200009D2DFF8A09040F6B83060600220A0609D
:105130000120E06084E0484620F030FC0546002273
:10514000214B20F0BFFD09D842F21070B9FBF0F0FE
:1051500060600220A0600120E06071E0484620F01D
:105160001DFC05460022144B20F0ACFD2ED84FF458
:105170007A70B9FBF0F060600320A0600120E0606D
:105180005EE00000E40F0010DC090500F40A0500F1
:10519000240D05003C0E0500240000103366CC00F1
:1051A0008A2A0500B12A0500E9280500CD2C050052
:1051B0007CD204005426050080842E410000244047
:1051C000389C7C4180C3C901D0126341484620F01D
:1051D000E5FB05460022FE4B20F074FD08D8642054
:1051E000B9FBF0F060600120A0600020E06027E0E3
:1051F000484620F0D3FB05460022F64B20F062FD26
:1052000008D80A20B9FBF0F060600220A0600020FE
:10521000E06015E0484620F0C1FB05460022EE4B59
:1052200020F050FD06D8C4F804900320A0600020B0
:10523000E06005E0C4F804900320A0600020E06076
:10524000C4F818901C222146039817F057FA05B0AD
:10525000BDE8F08F0146888800B270472DE9F04123
:1052600005460C46E06870BBA068052829D2DFE837
:1052700000F00314151C2200606820F08FFB064626
:105280000022D34B20F01EFD04D2D44860600020E1
:10529000206101E00120206114E013E04FF47A71F5
:1052A0006068B0FBF1F060600CE064216068B0FB06
:1052B000F1F0606006E00A216068B0FBF1F0606028
:1052C00000E000BF46E0FFE7A06806283ED2DFE826
:1052D00000F0031018192632C0496068884202D9CC
:1052E0000846606004E04FF47A716068484360608B
:1052F0002FE0606820B10A216068B0FBF1F06060C7
:1053000027E026E042F210716068884201D9084621
:105310006060606800EB80004000606019E06068D9
:10532000B0F57A7F02D94FF47A70606064216068CA
:10533000484360600DE06068642801D964206060C3
:105340004FF47A7160684843606002E0A44860608E
:1053500000BF00BF1C222146284617F0CFF9BDE848
:10536000F0812DE9F34F83B08A4642F20F71DAF8EB
:105370000400884209D90A21DAF80400B0FBF1F0F0
:10538000CAF804000420CAF808004FF47A71DAF869
:10539000040000FB01FBDAF80810C1F1040020F062
:1053A000FDFA02460B46CDE9000100208D491FF0B1
:1053B000A9FA04460D46584620F0F0FA0646224661
:1053C0002B4620F0E3F8804620F0A4FA83464EF600
:1053D0006020834500D9834642F21070834508D986
:1053E0000220CAF808000A20BBFBF0F0CAF804004B
:1053F00004E00320CAF80800CAF804B0CAF818B0DC
:105400001C225146039817F079F905B0BDE8F08FDA
:105410002DE9F05F82460C460020E060A06821F094
:105420002BF8834620F060FE07463A460B460020E4
:105430006C491FF067FA054620F06CFA81466068F7
:10544000B0FBF9F9B9F1640F01D90220A0601C2268
:105450002146504617F052F9BDE8F09F08B5624862
:10546000372328225C2100903C20FBF7FAFE5F489E
:10547000372328225C2100906420FBF7F2FE5C4871
:1054800037232822932100903C20FBF7EAFE57485F
:1054900037232822932100906420FBF7E2FE08BD09
:1054A00010B500240BE004EBC400C0EB841000F145
:1054B0006E0150A28C20FCF788F8601CC4B2032C4B
:1054C000F1DB10BD08B54D484D49486048483723C9
:1054D00028226E2100906420FBF7C3FE4948372341
:1054E00028226E2100904FF49670FBF7BAFE4648D2
:1054F000372328226E2100904FF4AA70FBF7B1FEEB
:10550000424837232822A52100906420FBF7A9FEFA
:105510003E4837232822A52100904FF4AA70FBF7BC
:10552000A0FE3B4837232822DC2100906420FBF7B3
:1055300098FE384837232822DC2100904FF4AA70C7
:10554000FBF78FFE08BD08B50146334800780228F6
:1055500006DC88B2ADF8000002208DF8020008E0F9
:1055600088B2ADF8000003208DF8020001208DF80C
:105570000300009808BD10B50446284901EB44110A
:10558000274A127801EB0210F222B4211AF096F8A1
:1055900010BD38B504466FF07F401AF0F8FB204884
:1055A00090F8353090F836201E491F4816F0B2FDAD
:1055B0001A2264211C481AF081F8194991F8361012
:1055C00001EB81021649383151F83210174A2FE0A9
:1055D000006AF8400088C34000408F40A086010068
:1055E00040420F0000002440498B0400618C0400FD
:1055F00048B404002D2D2D2D2D0000003366CC0065
:1056000024000010E0BC040065C40400EACB0400E0
:10561000FDCC040010CE0400FB000010DCD304001D
:10562000E40F0010582B0200980F00106C110500B9
:1056300002EBC1001A224FF48C711AF03FF8FA48BD
:105640001AF09AFBF9481AF0A2FB00201AF0EEFBC0
:10565000F7481AF0ADFBF74890F8360000EB8001F0
:10566000F448383050F8310004280FD0012C07D10D
:10567000F1490023042208680321FCF7C3F805E080
:105680000023042203211846FCF7BCF878225A2193
:10569000EA481AF013F8E74890F8360000EB80016A
:1056A000E448383050F83100052875D2DFE800F0C2
:1056B000030465A6E10000BF012C41D1DE4840682B
:1056C0004FF6FF71884206D1DC48DD490A68026066
:1056D000898881803AE0D748C08D01281CD1D648FE
:1056E0004268D44890F83610491E00F5FD7030F835
:1056F0001100824203D20020CF4948600CE0CE481E
:105700004268CC4890F83610491E00F5FD7030F81C
:105710001100101AC8494860CA480078012807D10A
:10572000C5490023042248680321FCF76BF80DE00B
:10573000C1490023042248680221FCF763F805E010
:105740000023042203211846FCF75CF8B6481AF03F
:105750001EFBE823F022AA215A201AF08FF8B34842
:105760001AF015FBAA225A21B44819F0A7FFAA2261
:10577000F021B5A019F0A2FF7DE0012C32D1AE4896
:105780004068B349884208D1AC48AD4914310A6831
:105790000260496841602BE06CE0A7494868FCF76B
:1057A00046FE00909DF80210BDF800000023042280
:1057B000FCF728F89C481AF0EAFAE823F022AA211C
:1057C0005A201AF05BF899481AF0E1FA9DF8031094
:1057D00001EB41019F4A02EB4100AA22F02119F09E
:1057E0006DFF05E00023032201211846FCF70AF8AB
:1057F000AA225A21914819F061FF3CE0012C1BD1EB
:105800008D4840684FF6FF71884207D18B488C491C
:1058100014310A6802604968416013E086494868AB
:10582000FFF791FE00909DF80210BDF800000023E4
:105830000422FBF7E7FF05E00023042203211846BA
:10584000FBF7E0FF78481AF0A2FAE823F022AA2139
:105850005A201AF013F875481AF099FAAA225A2118
:10586000764819F02BFFAA22F0217B4819F026FF79
:1058700001E000E000BF00BF78481AF099FA012C5F
:1058800007D16D490889002304220121FBF7BAFFE3
:1058900005E00023042201211846FBF7B3FFF322A1
:1058A0005421664819F00AFF6D490878FFF763FE36
:1058B00038BD30B585B004460D466AA003C8CDE9B1
:1058C00003016AA103C9CDE9010103A8005D40F20B
:1058D0001311484367490844372328225C2100906C
:1058E0004FF4BE70FBF7BDFC01A8405D40F2131100
:1058F000484360490844372328225C2100904FF434
:10590000D270FBF7AEFC05B030BD30B585B00446B3
:105910000D4654A003C8CDE9030154A103C9CDE944
:10592000010103A8005D40F21311484351490844A6
:1059300037232822932100904FF4BE70FBF791FC8F
:1059400001A8405D40F2131148434A4908443723F7
:105950002822932100904FF4D270FBF782FC05B00F
:1059600030BD10B586B0142101A816F001FF4248E1
:1059700000680090002409E01DF804103F480EF074
:10598000B7FB012002F07FF8601CC4B2032CF3DBEC
:1059900006B010BD38B50446234839494860394837
:1059A00000EB84020123C8211420FBF759FE36487E
:1059B00000EB84020123C8214FF48C70FBF750FEEA
:1059C00043F6AC102E4948603048372328227A210C
:1059D00000905020FBF745FC2D48372328227A21E0
:1059E00000907820FBF73DFC2A48372328227A21B3
:1059F00000908C20FBF735FC38BD70B504460D4691
:105A000004EB44001449C91E42180123C821802018
:105A1000FBF726FE05EB45001F4942180123C8216C
:105A20008820FBF71DFE70BD3366CC00FFFF8000B1
:105A3000CCC20500E40F001030030010980F0010D6
:105A4000E8260200FB0000106D412020000000004D
:105A5000F6FF0900BB2C0500EE2D05006C68050063
:105A6000240100100C0F1011160E0D001213140259
:105A70000B171600E9AE04006832050000C00040B4
:105A8000240000107F1A0500DB1A05006EB6040022
:105A9000B1C80400C4C90400182E050070B504463E
:105AA0000D4604EB4400FE4942180023C8214FF480
:105AB000C270FBF7D5FD05EB4500FA4942180023FB
:105AC000C8214FF4C670FBF7CBFD70BD10B50024A4
:105AD00021E0012C01DD072C01DB082C04DD43F65D
