:020000040002F8
:10000000F8230010153003001D3003001F300300DB
:1000100021300300233003002530030000000000DE
:100020000000000000000000000000002730030076
:1000300029300300000000002B300300317902005A
:100040002F300300E307020077080200B308020024
:10005000C5080200CF4903002F3003002F300300F2
:10006000E74903002F3003002F3003002F30030037
:100070002F3003002F3003002F3003002F300300F8
:100080002F3003002F3003002F3003002F300300E8
:100090002F3003002F3003002F3003002F300300D8
:1000A000517403002F3003002F3003002F30030062
:1000B0002F3003002F3003002F3003002F300300B8
:1000C0002F3003002F3003002F3003002F300300A8
:1000D0002F3003002F300300970502002F3003005C
:1000E0002F30030000F002F800F076F80AA090E844
:1000F000000C82448344AAF10107DA4501D100F0E3
:100100006BF8AFF2090EBAE80F0013F0010F18BF39
:10011000FB1A43F00103184728480400484804002C
:100120000A444FF0000C10F8013B13F0070408BF1D
:1001300010F8014B1D1108BF10F8015B641E05D0BB
:1001400010F8016B641E01F8016BF9D113F0080F70
:100150001EBF10F8014BAD1C0C1B09D16D1E58BF02
:1001600001F801CBFAD505E014F8016B01F8016B39
:100170006D1EF9D59142D6D37047000000230024AC
:1001800000250026103A28BF78C1FBD8520728BFA7
:1001900030C148BF0B607047662926F0838367290A
:1001A00026F0808364291CF08B8073291CF04D8617
:1001B000002070471FB51CF089FB040000200021BF
:1001C00025F022F9401C60600020002125F032F962
:1001D000E0601FBD10B510BD1DF0A2F91146FFF77C
:1001E000E9FF00F023F91DF03DFC03B4FFF7F2FF37
:1001F00003BC1DF041FC000040F201208249086070
:100200008249C1F88401804908310860091D0860ED
:10021000091D0860091D0860091D0860091D0860A6
:10022000091D0860091D0860091D0860091D086096
:10023000091D0860091D0860091D0860091D086086
:10024000714980310860091D0860091D0860091D99
:100250000860091D0860091D0860091D0860091D66
:100260000860091D0860091D0860091D0860091D56
:100270000860091D0860091D0860091D08606249C1
:10028000D4310860091D0860091D08605E494439C1
:1002900008605D49E4310860091F08605A49E83187
:1002A0000860594940390860091D0860091D086047
:1002B000554930390860544920390860524910398D
:1002C0000860091D086070472DE9F04100BF00BFBC
:1002D0004F48006840F400604D49C439C1F8C4007B
:1002E00041F61F704B49086001204B49086000200F
:1002F0008860FFF781FF494800684949B0FBF1F782
:100300004348C438D0F8000100B17F084FF47A7038
:10031000B0FBF7F404F11300B0FBF4F03E490863BE
:100320000F204863002088630120C86304F1130094
:10033000B0FBF4F0801C08640120486404F13E0026
:10034000B0FBF4F0886404F13E00B0FBF4F0C86444
:100350000F20086504F13E00B0FBF4F04865012071
:100360008865886240F203302E4908604FF4D060FF
:100370002949C1F800016421012000F0B4F940F2DC
:10038000831025490862C821012000F0ACF940F231
:1003900003102149086202204862002600E0761C12
:1003A000802EFCD341F68465A5F1100085B22D1195
:1003B00005FB07F04FF47A71B0FBF1F085B21648F7
:1003C00045628320144908621748058800200862A6
:1003D0001448001F006840F40020C1F8000101210A
:1003E000084600F080F90121084600F07CF9094830
:1003F000006820F01F0848F011000549C439C1F811
:10040000DC01BDE8F081000080C1024000C0024074
:10041000C4C00F40DCC10F4000C0092078010010AB
:1004200040420F0004C10920003003A0002013F057
:1004300030FA044600206C4908601D2001218140EB
:100440004209920002F1E022C2F8001100BF62B638
:100450006648B4FBF0F0411EB1F1807F00D31DE08F
:1004600021F07F40401E4FF0E022506150171F22C4
:10047000002807DAD3061E0E5D4B00F00F052D1F76
:100480005E5503E0D3061D0E5A4B1D5400BF0020DD
:100490004FF0E02290610720106100BF14F00CFFC4
:1004A00002205549086000205449088054490870CA
:1004B000544908703CE050480068801E182835D226
:1004C000DFE800F00C3412150F30343418341B34CC
:1004D00034342124272A2D34341E343107F0E8FC2B
:1004E00025E008F016F822E008F0DAFD1FE008F039
:1004F00023FE1CE011F0F9FC19E00EF0B0FB16E051
:100500000FF096FE13E00EF05BFB10E007F0E2FD4B
:100510000DE007F04FFF0AE007F0B8FF07E00DF02D
:1005200032FF04E003E00FF03CFE00E000BF00BF3C
:10053000C1E72DE9F041012133A016F087FB074602
:10054000002F25DD4FF47A6232480168384616F0F4
:100550005DFC022130A016F079FB0446002C11DD71
:10056000002500BF4FF47A622A480168204616F041
:10057000B7FD064635442B488542F3D3204616F096
:1005800046FE01E0BDE8F081384616F040FE00E08E
:10059000F8E700BFF6E710B500220621104612F07A
:1005A000E2FF30B10920204908604021002013F00B
:1005B00005F800220521104612F0D5FF30B10C20BD
:1005C000194908602021002012F0F8FF00220721BD
:1005D000104612F0C8FF30B10E2013490860802188
:1005E000002012F0EBFF10BDCC000010A08601002F
:1005F00018ED00E000E400E02001001018010010F8
:100600001A0100101B0100104D53524541442E5455
:10061000585400000C0200105A43353532302E5425
:1006200058540000809698002401001010B5FE4830
:1006300090F89E00FD490860FB4890F89E00086015
:10064000F94890F89E00086008460068072802D91B
:10065000084600680860F44890F89E00F349086076
:1006600008460068082803D108460068401C086056
:10067000EF480068EF49096888421DD0ED480068DE
:10068000EB490860EC480078002804DDEA4800786F
:10069000401EE9490870E848007820B9E24890F81F
:1006A0009E00002809DCE448007820B9DE4890F874
:1006B0009E0000B910BDFDE7FCE7DB4890F89E0006
:1006C000042800DA09E0D8480478DC48807BA0429E
:1006D00000D002E014F0AEFC00BF0020D24981F847
:1006E0009E0000BFE6E7F8B902224FF040235A60AF
:1006F0000022DA60D24A12684FF47A73B2FBF3F246
:10070000521E4A434FF040239A61FF221A6004228E
:100710005A6101225A6000BF4FF04022526802F035
:100720000102002AF8D15BE001281CD10222C54B4E
:100730005A600022DA60C24A12684FF47A73B2FB40
:10074000F3F2521E4A43BF4B9A61FF221A60042201
:100750005A6101225A6000BFBA4A526802F001028F
:10076000002AF9D13CE002281CD10222B64B5A6083
:100770000022DA60B24A12684FF47A73B2FBF3F2E5
:10078000521E4A43B04B9A61FF221A6004225A61FA
:1007900001225A6000BFAC4A526802F00102002AEE
:1007A000F9D11DE003281BD10222A84B5A60002278
:1007B000DA60A34A12684FF47A73B2FBF3F2521E66
:1007C0004A43A24B9A61FF221A6004225A61012215
:1007D0005A6000BF9D4A526802F00102002AF9D116
:1007E000704710B501204FF040210860984800681C
:1007F000062813D197480078401C9649087008468F
:100800000078092810DD0020087001209249087046
:1008100092480089401C9149088105E08D48007884
:1008200010B100208B4908708448407B88B98C48FF
:100830000078401C8A49087008460078092808DDBD
:10084000002008707B480068401C7A490860FFF768
:10085000EDFE00240CE0834850F8240030B18148BC
:1008600050F82400401E7F4941F82400601CC4B2A7
:10087000062CF0DB10BD10B50120724908607A48E3
:100880000078401C784908707148006806280FD12C
:10089000084600780A2802D107F0D7F808E0724825
:1008A0000078142804DB00206F49087007F0D3F8A3
:1008B00010BD0120644908606C480068401C6B4909
:1008C0000860704701206149086069480068401C61
:1008D00067490860704720B901214FF040225160FC
:1008E00010E0012803D10121564A51600AE0022894
:1008F00003D10121544A516004E0032802D10121AF
:10090000524A5160704720B900214FF04022516097
:1009100010E0012803D100214A4A51600AE0022870
:1009200003D10021484A516004E0032802D100218C
:10093000454A51607047014631B94FF04022506836
:1009400040F00200506016E0012905D13D4A506890
:1009500040F0020050600EE0022905D13A4A50688A
:1009600040F00200506006E0032904D1374A506885
:1009700040F002005060704770B505460C46F5B96E
:1009800000203C4908603C48006840F002003A49B9
:10099000C439C1F8C4004FF04020406840F0020064
:1009A0004FF0402148604EF65F20C86008468461E1
:1009B00003204861012000F07CF8012070BD012D6A
:1009C0001CD100202D4908602B48006840F004002D
:1009D0002949C439C1F8C4001A48406840F00200EF
:1009E000184948604EF65F20C860084684610320BD
:1009F0004861022000F05DF80120DFE7022D3FD1C1
:100A000000201A4908601C48006840F480001A4918
:100A1000C439C1F8C4000C48846103200A49486104
:100A200000F047F80120C9E7DB1600101C00001099
:100A3000140000101000001090010010E40F0010CE
:100A40007C01001000800040000009400040094087
:100A50002001001020000010FA00001030030010E8
:100A600021000010B80B0010220000100800001038
:100A70000C00001000000010C4C00F400400001063
:100A8000032D14D10020104908601048006840F47C
:100A900000000E49C439C1F8C4000D488461032028
:100AA0000B494861042000F004F8012086E700208B
:100AB00084E700F01F02012191404209920002F1F7
:100AC000E022C2F8001170470C000010C4C00F40B3
:100AD0000040094008B5B0B1F949896941F0010108
:100AE000F74A916142F21071009108E0F449896976
:100AF00041F40061F24A91610099491E0091009908
:100B00000029F3D115E0EE49896921F40061EC4A2E
:100B1000916142F21071009102E00099491E00912A
:100B200000990029F9D1E649896921F00101E44AD7
:100B3000916108BDE34A002102E008C808C2491CCF
:100B40008029FAD3704750B506460C4600BF2720CF
:100B5000DD490860DD49C1F81801DD490860091D5B
:100B60000860091D0860DA494C390860091D0860F1
:100B7000091D0860091D0860091D0860091D08603D
:100B8000D34918310860D24934390860091D08601A
:100B9000091D0860091D0860CD4914390860CC4959
:100BA00008390860CA4910390860C849C1F81001FD
:100BB000C848006A40F00200C64908620846806BD7
:100BC00040F0040088630846006840F002000860B6
:100BD0000846806940F02A008861BF48D0F8C40008
:100BE00040F00100BC49C1F8C400BC48006820F0D6
:100BF0000100BA4908600020B1498861084680694F
:100C000020F00E0088610846806940F00C00886181
:100C10000846806940F0200088610846806920F01D
:100C2000800088610846806920F4807088610846E9
:100C3000806920F4007088610846806920F4806033
:100C400088610846806920F400608861A4480068D3
:100C5000A449B0FBF1F0A049C1F8B80198488068F8
:100C600040F08060964988600846806820F0200047
:100C700088600846806840F40060886008468068A4
:100C800040F4805088600846806820F400508860F6
:100C90000846806820F48040886008468068924951
:100CA000084087498860084680689049084384491D
:100CB0008860002008600846006840F01C5008600A
:100CC0000846006840F4802008600846006840F448
:100CD000807008600846006840F0740008600020DA
:100CE00048600846406840F0006048600846406838
:100CF00040F4002048600846406840F48060486046
:100D00000846406840F20F1108436D494860784832
:100D10000861486114B12046FFF70CFF50BD744ACA
:100D2000002102E022F8020B491CB1F5FF3FF9D384
:100D3000704730B56E4BB0F5F07F02DAB1F5887FC1
:100D400000DB30BDC1EB011500EB451403EB4403A0
:100D50001A8000BFF5E72DE9F04F04460D46914695
:100D60009A46DDF824B04C4503DD0FFA89F7A14619
:100D7000BCB2554503DD0FFA8AF7AA46BDB2A9EB0E
:100D800004000FFA80F8AAEB050006B2B8F1000FD4
:100D90000BD100BF5A4629462046FFF7CAFF681C00
:100DA00085B2AA45F6DABDE8F08F56B900BF5A46BB
:100DB00029462046FFF7BDFF601C84B2A145F6DA44
:100DC000F1E7B04521DDC8EB460007B215E05A4611
:100DD00029462046FFF7ADFF601C84B2002F08DDD6
:100DE000681C85B27000022101FB1800384407B26C
:100DF00003E0022000FB067007B24C45E7D15A46DB
:100E000029462046FFF795FF20E0C6EB480007B2D1
:100E100015E05A4629462046FFF78BFF681C85B22D
:100E2000002F08DD601C84B27000022101FB180055
:100E3000384407B203E0022000FB067007B25545B4
:100E4000E7D15A4629462046FFF773FF00BFAAE7BD
:100E50002DE9F84105460E4617469846079CA0B274
:100E600033463A46314600902846FFF774FFA0B259
:100E700043463A46414600902846FFF76CFFA0B231
:100E800043462A46314600902846FFF764FFA0B249
:100E900043463A46314600903846FFF75CFFBDE8CE
:100EA000F8812DE9F0411C46069FC1EB011CDFF8DB
:100EB000408008EB8C1C0CEB400300262AE000006D
:100EC000008008200082082074C2024000C0024056
:100ED0001CC102400080092000C00F40008C082087
:100EE0007C0100109C997400FFFF00FC0000DF01F2
:100EF000000001A0002502E023F8027B6D1CA2EB9C
:100F0000000CAC45F8D8A2EB000CCCF5F07C03EB60
:100F10004C03761CA4EB010CB445EBD8BDE8F08182
:100F20002DE9F04704460D461746784200214FEA66
:100F30004708C8F10202F94E00BFA4EB000805EB18
:100F400001094FF4F07A0AFB098846F8283004EBCF
:100F5000000805EB01090AFB098846F8283004EB74
:100F60000008A5EB01090AFB098846F82830A4EB24
:100F70000008A5EB01090AFB098846F828309446C9
:100F80008C450DDC01F1010841464FF0010909EBE8
:100F900048084244C84203D1844501DC4FF0000CAC
:100FA000844507DD00F1010840464FF0010909EBD7
:100FB000480842440028C0DDBDE8F08770B505460A
:100FC0000E461446A2B231462846FFF7B2FE70BD67
:100FD0002DE9FF5F06460F4690469946DDF838B08A
:100FE0004146684600F0A8FC00241DE01DF804A05E
:100FF000002516E0C5F107004AFA00F000F00100F4
:1010000038B13A1991B2721990B24A46FFF791FE7F
:1010100006E03A1991B2721990B25A46FFF789FE6A
:101020006D1C082DE6D3641C102CDFD3BDE8FF9F98
:101030002DE9FE4F06460F4690469946DDF830B042
:101040004146684600F085FC002415E01DF804A028
:1010500000250EE0C5F107004AFA00F000F001009B
:1010600030B13A1991B2721990B24A46FFF761FE57
:101070006D1C082DEED3641C0C2CE7D3BDE8FE8F4D
:101080002DE9F84305460E4614469846DDF82090B3
:1010900000BF14F8017B43463A4631462846CDF856
:1010A0000090FFF795FFB5F5EC7F03DA05F1080036
:1010B00085B208E0FF2E04DC002506F1100086B2A0
:1010C00001E00025002620780028E2D1BDE8F88361
:1010D0002DE9FF4F074688469B463C464546BA46A3
:1010E00046464FF0000915E0A4F1140188B22946E4
:1010F000029AFFF71EFE601C84B2A6F1140081B2B2
:101100005046029AFFF715FE701C86B209F10100E5
:101110001FFA80F9B9F1280FE6DB3C464546BA468E
:1011200046464FF000092BE0A5F1140291B2A4F15C
:10113000140290B25A46FFF7FCFD05F1140291B279
:10114000A4F1140290B25A46FFF7F3FD601C84B27A
:10115000A6F1140291B2AAF1140290B25A46FFF716
:10116000E8FDA6F1140291B20AF1140290B25A46B7
:10117000FFF7DFFD701C86B209F101001FFA80F94C
:10118000B9F10A0FD0DB3C464546BA4646464FF019
:1011900000092BE0A5F1140291B204F10A0290B209
:1011A0005A46FFF7C6FD05F1140291B204F10A0296
:1011B00090B25A46FFF7BDFD601C84B206F10A02E8
:1011C00091B2AAF1140290B25A46FFF7B2FD06F1AD
:1011D0000A0291B20AF1140290B25A46FFF7A9FD31
:1011E000701C86B209F101001FFA80F9B9F10A0FEB
:1011F000D0DBBDE8FF8F10B50246002112E001EB05
:101200008110474B185C1378984209D1507801EB54
:101210008113434C23445B78984201D1084610BDAA
:10122000481C81B20029EAD00020F8E710B5024638
:10123000002114E001EB01103A4B13F81000137871
:1012400098420AD1507801EB0113364C04EB43036A
:101250005B78984201D1084610BD481C81B2B22982
:10126000E8D30020F8E72DE9F04F04460F46154675
:101270009846A3464FF0000900262FE0099810F881
:1012800006904FF0000A23E009F0800038B12648AC
:10129000008882B239462046FFF74BFD06E022481F
:1012A000808882B239462046FFF743FD4FEA496005
:1012B0004FEA1069601C84B2A4EB0B00A84203D172
:1012C0005C46781C87B206E00AF1010000F0FF0AD4
:1012D000BAF1080FD8DB00BF701C86B205FB08F01E
:1012E000C11700EB5171B6EBE10FC7DBBDE8F08F22
:1012F0002DE9F04F0546894692469B46A8460026B2
:10130000BBF1000F3CD1002437E00AEB0A1005497D
:1013100001EB4000801C065D002729E0000001A0D1
:10132000A4690400E56904002400001006F08000B0
:1013300038B1FD48008882B249462846FFF7F9FCDB
:1013400006E0F948808882B249462846FFF7F1FC5A
:101350007006060E681C85B2A5EB0800102805D1A2
:10136000454609F101001FFA80F903E0781CC7B275
:10137000082FDBDB00BF601CC4B2202CC5DB33E0D0
:1013800000242FE00AEB0A10E84901EB4000801C22
:10139000065D002721E006F0800038B1E248808831
:1013A00082B249462846FFF7C4FC06E0DE480088C2
:1013B00082B249462846FFF7BCFC7006060E681C40
:1013C00085B2A5EB0800102805D1454609F10100BA
:1013D0001FFA80F903E0781CC7B2082FDBDB00BFDF
:1013E000601CC4B2202CCDDBBDE8F08F2DE9F04F9E
:1013F0000546894692469B46A8460026BBF1000F4B
:1014000033D100242EE00AEB8A10C9490844801C1D
:10141000065D002721E006F0800038B1C248008850
:1014200082B249462846FFF784FC06E0BE48808821
:1014300082B249462846FFF77CFC7006060E681CFF
:1014400085B2A5EB0800182805D1454609F1010031
:101450001FFA80F903E0781CC7B2082FDBDB00BF5E
:10146000601CC4B23F2CCEDB32E000242EE00AEB3D
:101470008A10AF490844801C065D002721E006F071
:10148000800038B1A848808882B249462846FFF7D4
:1014900050FC06E0A448008882B249462846FFF77F
:1014A00048FC7006060E681C85B2A5EB08001828DB
:1014B00005D1454609F101001FFA80F903E0781CC7
:1014C000C7B2082FDBDB00BF601CC4B23F2CCEDBF1
:1014D000BDE8F08FF0B504460D4616461F463B4664
:1014E000224631462846FFF781FF1820F0BDF0B5AF
:1014F00004460D4616461F463B46224631462846C0
:10150000FFF7F6FE1220F0BD2DE9F84306460D4622
:1015100014461F464FF00008C14654E0207800B939
:1015200052E006EB090086B2207880281ADD06F129
:101530001800B0F5F07F07DD002605F1160085B232
:10154000B5F5887F00DD00252046FFF754FE1FFA21
:1015500080F83B462A4631464046FFF7BBFF8146AE
:10156000A41C2FE020780D280AD105F1160085B2C1
:10157000B5F5887F00DD0025641C4FF0000922E0EE
:1015800020780A2804D10026641C4FF000091AE0D4
:1015900006F10C00B0F5F07F07DD002605F10C0028
:1015A00085B2B5F5887F00DD00255F48808880B270
:1015B00000905D48008883B2227829463046FFF7C4
:1015C00007FD641C00BFA9E700BFBDE8F8832DE953
:1015D000F84305468846144600263FE0207800B9C7
:1015E0003DE02078302807DB2078392804DC20789B
:1015F00030381FFA80F919E020782E2802D14FF0F8
:101600000A0913E020782D2802D14FF00B090DE0D4
:101610002078202802D14FF00C0907E020785628C6
:1016200002D14FF00D0901E04FF00E094FEA4917C2
:10163000F81707EB5070C01000EBC001C1EB801031
:101640003C490844A919009088B23723202241461A
:10165000FFF709FE641C06F1200086B2BEE700BF5A
:10166000BDE8F8832DE9F84306460D4614461F46AB
:101670004FF00008C14656E0207800B95CE006EB68
:10168000090086B2207880281ADD06F11000B0F536
:10169000F07F07DD002605F1100085B2B5F5887FE3
:1016A00000DD00252046FFF7C1FD1FFA80F83B460C
:1016B0002A4631464046FFF71AFF8146A41C31E016
:1016C00020780D280AD105F1100085B2B5F5887F84
:1016D00000DD0025641C4FF0000924E020780A2872
:1016E00004D10026641C4FF000091CE006F108003C
:1016F000B0F5F07F07DD002605F1100085B2B5F5E5
:10170000887F00DD00250848808880B20090064868
:10171000008883B2227829463046FFF759FC641CC2
:101720004FF00A0900BFA7E724000010E569040094
:10173000A469040099A2040000BFBDE8F8832DE964
:10174000F84306460D4614461F464FF00008C146B2
:1017500056E0207800B954E006EB090086B2207804
:1017600080281ADD06F11000B0F5F07F07DD0026B5
:1017700005F1100085B2B5F5887F00DD0025204613
:10178000FFF754FD1FFA80F83B462A463146404693
:10179000FFF7ADFE8146A41C31E020780D280AD168
:1017A00005F1100085B2B5F5887F00DD0025641CC9
:1017B0004FF0000924E020780A2804D10026641C98
:1017C0004FF000091CE006F10800B0F5F07F07DDDE
:1017D000002605F1080085B2B5F5887F00DD0025FB
:1017E0005248808880B200905048008883B22278A6
:1017F00029463046FFF71CFC641C4FF0080900BF67
:10180000A7E700BFBDE8F883F0B504461D46062AE9
:1018100000DD0A2202B90122052900DD05219142DD
:1018200000DD1146002004E02026414F3E54461CB6
:10183000F0B20C28F8D310460FE00A26B4FBF6F7F6
:1018400006FB17463036471EDFF8E4C00CF8076089
:101850000A26B4FBF6F4461EF0B20028EDDC89B18E
:101860001346084605E05E1E314FBE5DFE545E1E07
:10187000F3B2061EA0F10107F8B2F4D12E262C4FC8
:10188000FE5402E020262A4FBE54A5B900200EE0E7
:10189000274E365C302E07D1254F461CBE5D2E2EBE
:1018A00002D020263E5400E004E0461CF0B2561E52
:1018B0008642EDDC00BF561CF2B2104604E0002662
:1018C0001B4F3E54461CF0B20C28F8D3F0BD30B587
:1018D000184A00210BE08478457844EA052405780D
:1018E00044EA054308C2401C401C401C491CB1F599
:1018F000FF3FF0D330BD70B50E4B002112E0002247
:101900000CE005782D04467845EA0625867845EAF8
:10191000060410C3401C401C401C521CB2F5F07F52
:10192000EFD3491CB1F5887FE9D370BD24000010C6
:10193000980F0010000001A070B505460C46A4F1F8
:1019400020000B4A02EB0011102228461AF0A7FED5
:1019500070BDA1F1200202EB4202064B03EB8202B2
:1019600013680360536843609268826070470000A8
:1019700089810400798704003EB5054642F6692056
:101980001EF05DFA00241DE0F74841000322CDE976
:1019900000210290601C00EB4000042202EB0010CA
:1019A000062202FB040304EB4400042202EB0010B5
:1019B000062202FB04014FF4EE724FF4BE701DF0DC
:1019C00013FF641C052CDFD33EBD10B542F6692021
:1019D000E64948604FF6FF7008600023E4A2F12159
:1019E0005420FFF73FFE0023E3A2F121A420FFF7DC
:1019F00039FE10BD70B5054642F66920DB494860E6
:101A00004FF6FF700860A5B900240FE004EB440115
:101A1000DB4B03EB410204EB8401542303EB011085
:101A20000023F121FFF71EFE601CC4B2052CEDDB84
:101A300014E0002410E0611D01EB4101D04B03EBE9
:101A4000410204EB8401542303EB01100023F12134
:101A5000FFF708FE601CC4B2052CECDB70BD10B5AE
:101A600042F66920C14948604FF6FF7008600023C4
:101A7000C4A2F1215420FFF7F5FD10BD10B542F6C8
:101A80006920BA4948604FF6FF7008600023C0A281
:101A9000F1215420FFF7E6FD10BD10B50446002CDF
:101AA00039D14FF6FF70B149086042F669204860AD
:101AB0000023B8A2E7215420FFF7D4FD0023B7A2EA
:101AC000FB215420FFF7CEFD0023B2A2E721A42082
:101AD000FFF7C8FD0023B3A2FB21A420FFF7C2FD3E
:101AE0000023B2A2E721F420FFF7BCFD0023ADA242
:101AF000FB21F420FFF7B6FD0023ACA2E7214FF451
:101B0000A270FFF7AFFD0023AAA2FB214FF4A27041
:101B1000FFF7A8FD2EE0012C2CD14FF6FF70934962
:101B2000086042F6692048600023A4A2E7215420FF
:101B3000FFF798FD0023A3A2FB215420FFF792FD9D
:101B40000023A2A2E721A420FFF78CFD0023A1A27D
:101B5000FB21A420FFF786FD0023A0A2E7214FF47C
:101B6000CA70FFF77FFD00239EA2FB214FF4CA70CD
:101B7000FFF778FD10BD10B54FF6FF707B49086088
:101B800042F669204860002398A2E7215420FFF71D
:101B900069FD002397A2FB215420FFF763FD00237A
:101BA00096A2F1214FF4A270FFF75CFD002396A2EC
:101BB000F1214FF4CA70FFF755FD10BD10B5044672
:101BC0000CB1012C33D14FF6FF706849086042F622
:101BD0006920486000238FA2F1215420FFF742FDC5
:101BE00000238FA2E721A420FFF73CFD00238EA253
:101BF000FB21A420FFF736FD00238DA2E721F4206E
:101C0000FFF730FD002388A2FB21F420FFF72AFD17
:101C100000237AA2F1214FF4A270FFF723FD0023E5
:101C200079A2F1214FF4CA70FFF71CFD26E04FF6B0
:101C3000FF704E49086042F669204860002375A293
:101C4000F1215420FFF70EFD002377A2E721A42005
:101C5000FFF708FD002378A2FB21A420FFF702FD77
:101C6000002366A2F1214FF4A270FFF7FBFC0023D2
:101C700065A2F1214FF4CA70FFF7F4FC10BD10B556
:101C80000446002C39D14FF6FF703849086042F6FF
:101C90006920486000233FA2E7215420FFF7E2FCBF
:101CA00000233EA2FB215420FFF7DCFC002339A2D5
:101CB000E721A420FFF7D6FC00233AA2FB21A420B1
:101CC000FFF7D0FC002339A2E721F420FFF7CAFC7C
:101CD000002334A2FB21F420FFF7C4FC002333A22D
:101CE000E7214FF4A270FFF7BDFC002331A2FB21D6
:101CF0004FF4A270FFF7B6FC34E0012C32D14FF65E
:101D0000FF701A49086042F66920486000232BA240
:101D1000E7215420FFF7A6FC00232AA2FB21542030
:101D2000FFF7A0FC002321A2E721A420FFF79AFCE3
:101D300000231CA2FB21A420FFF794FC002340A257
:101D4000F121F420FFF78EFC002324A2E7214FF4B9
:101D5000CA70FFF787FC002322A2FB214FF4CA7050
:101D6000FFF780FC10BD0000404040002400001040
:101D7000206DCEA92020000020CEA9200000000068
:101D8000652E050020E7A1AEE8AEA420000000000B
:101D90002A310000E6B58BE9878F0000E698BEE7A0
:101DA000A4BA0000E8AEBEE7BDAE0000E7B3BBE7F3
:101DB000BB9F0000E4BFA1E681AF0000E69687E488
:101DC000BBB60000E7AEA1E790860000E4BF9DE54A
:101DD000AD980000E695B0E68DAE0000E69BB4E558
:101DE000A49A000020322F3200000000E6B885E9F6
:101DF00099A40000E8A1A8E6A0BC0000E4B88AE429
:101E0000B880E9A1B5000000E4B88BE4B880E9A18E
:101E1000B5000000E588A0E999A4E8A18C000000C5
:101E2000E7BABFE680A70000E887AAE58AA8000015
:101E3000E5AFB9E695B00000E5A48DE588B60000F1
:101E4000E5B7A5E585B7000010B54FF6FF70FC4972
:101E5000086042F6692048600023AFF2C802E7211B
:101E60005420FFF7FFFB0023AFF2D002FB215420E8
:101E7000FFF7F8FB0023AFF2E402E721A420FFF70D
:101E8000F1FB0023AFF2E402FB21A420FFF7EAFB01
:101E90000023AFF2E802E721F420FFF7E3FB002381
:101EA000AFF20012FB21F420FFF7DCFB0023AFF2BE
:101EB0000412E7214FF4A270FFF7D4FB0023AFF226
:101EC0000C12FB214FF4A270FFF7CCFB10BD38B50C
:101ED00004460020182340F2E11201460090FEF76C
:101EE000E0FF0020D64948604FF6FF7008600023ED
:101EF000D4A203210420FFF7B5FB38BD08B543F693
:101F0000AC101DF09CFF0520FD234FF4BA725C213C
:101F1000009004201DF036FD08BD10B504464AF2BD
:101F2000FF501DF08CFFC9481DF09AFF1823C022F6
:101F3000002108461DF0FAFC00201DF080FF022061
:101F40001DF0CCFFC24901EB0410022200211DF05C
:101F50000DFC10BD10B50020FFF7DFFFFFF7CEFF2F
:101F600010BD7CB5054600201DF0B8FF42F6692083
:101F70001DF05AFF6FF07F401DF061FF00242EE03E
:101F80004FF4BE70ADF8000004EB4400042101EBF7
:101F90000010062101FB040000B2ADF802004FF46E
:101FA000EE70ADF80400601C00EB4000042101EB72
:101FB0000010062101FB040000B2ADF80600C4EBDE
:101FC000C401A44A02EB8101A34A1278C2EBC20207
:101FD00001EB42000E2269461DF0DCFB641C052C5F
:101FE000CED37CBD10B5FFF7B5FF0020FFF7C4FCD2
:101FF0000020FFF7B6FF00241FE0032C0ED2974805
:1020000000EB0412601C00EB40001A2303EBC0003D
:1020100081B200230420FFF725FB0DE08F4800EB81
:102020000412A01E00EB40001A2303EBC00081B293
:102030000023B820FFF716FB641C062CDDD310BD6F
:1020400008B543F6AC10BE2340F2DF1270210090B9
:102050000020FEF726FF08BD10B50020FFF737FF70
:10206000FFF7EEFF10BD08B543F6AC10A02340F219
:10207000DF12562100900020FEF713FF43F6AC104C
:10208000E32340F2DF12C12100900020FEF709FF98
:1020900008BD10B50020FFF71AFFFFF7E4FF10BDE1
:1020A00008B543F6AC10A02340F2DF126021009087
:1020B0000020FEF7F6FE08BD10B50020FFF707FF71
:1020C000FFF7EEFF10BD10B5FFF7F6FF4FF6FF70FC
:1020D0005B49086040F23F2048600023604A0421C9
:1020E0001846FFF7BFFA4FF6FF70554908605D4884
:1020F000486000235CA21A210420FFF7B3FA0023F2
:102100005CA232212C20FFF7ADFA00235CA2322121
:102110009020FFF7A7FA00235CA23221F420FFF7FA
:10212000A1FA00235BA232214FF4AC70FFF79AFAB8
:1021300000235AA232214FF4DE70FFF793FA0020F9
:10214000FFF7ABFC10BD704700B5FFF7FCFF00BD0B
:1021500010B50120FFF710FC0520FFF7DEFE4FF65B
:10216000FF701DF06CFE3F481DF05EFE002422E073
:10217000042C0FD24A4901EB4411374B1B7801EB79
:10218000031004EB4401C90001F11A0204211DF0FF
:10219000EDFA0FE0424901EB44112F4B1B7801EBA4
:1021A0000310211F01EB4101C90001F11A02B821FE
:1021B0001DF0DCFA641C072CDAD310BD70B50120C9
:1021C000FFF7DAFB0120FFF7A8FE4FF6FF701DF0C6
:1021D00036FE24481DF028FE1F4890F8360000EB1C
:1021E00080011D48383050F831002E490D5C002424
:1021F0007FE004F0010008BB174991F8361001EBAD
:1022000081031549383151F833104D235943264B7A
:1022100003EB8101C4EBC40301EB83010E4B1B787C
:10222000C3EBC30301EB4300610801EB4101C900AB
:1022300001F11A0204211DF099FA59E036E000007C
:10224000240000105A4374656B00000020690500EB
:102250008F28050003280500E40F0010151A05005B
:10226000412905003366CC00E696B9E5BC8F203ADB
:1022700000000000E9A291E78E875B487A5D0000CC
:10228000E794B5E5B9B35B565D00000043705B466B
:102290005D000000445B205D00000000434D5000E5
:1022A0004CD204009CD10400C8D80400FE4991F827
:1022B000361001EB8103FC49383151F833104D23BE
:1022C0005943FA4B03EB8101C4EBC40301EB8301D7
:1022D000F54B1B78C3EBC30301EB4300611E01EB1D
:1022E0004101C9001A2303EB5102B8211DF03EFA47
:1022F000641CAC42FFF47DAF70BD2DE9F843044689
:10230000204623F0A3FB05460022E94B23F032FDD3
:102310000BD2E84C41F29C30ADF8000002208DF861
:10232000020001208DF8030080E0204623F08EFBA0
:1023300005460022E04B23F01DFD14D8204623F073
:1023400085FB05460022DD4B23F078F9074623F094
:1023500039FB80B2ADF8000002208DF802000120A8
:102360008DF8030062E0204623F070FB0546002252
:10237000D34B23F0FFFC14D8204623F067FB05461F
:102380000022D04B23F05AF9074623F01BFB80B202
:10239000ADF8000003208DF8020001208DF8030045
:1023A00044E0204623F052FB05460022C64B23F0B2
:1023B000E1FC14D8204623F049FB05460022C34B1C
:1023C00023F03CF9074623F0FDFA80B2ADF8000097
:1023D00001208DF8020000208DF8030026E0204641
:1023E00023F034FB05460022B44B23F0C3FC14D881
:1023F000204623F02BFB05460022B54B23F01EF9A7
:10240000074623F0DFFA80B2ADF8000002208DF815
:10241000020000208DF8030008E0A0B2ADF8000033
:1024200003208DF8020000208DF803000098BDE81D
:10243000F8832DE9F8430446204623F007FB0546C0
:1024400000229B4B23F096FC0AD29A4C41F29C301E
:10245000ADF8000002208DF802008DF803007EE048
:10246000204623F0F3FA05460022934B23F082FC2A
:1024700014D8204623F0EAFA054600228F4B23F0B9
:10248000DDF8074623F09EFA80B2ADF80000022086
:102490008DF8020003208DF8030060E0204623F051
:1024A000D5FA05460022864B23F064FC14D820465A
:1024B00023F0CCFA05460022824B23F0BFF80746F2
:1024C00023F080FA80B2ADF8000001208DF8020000
:1024D00002208DF8030042E0204623F0B7FA0546BB
:1024E0000022794B23F046FC14D8204623F0AEFAA4
:1024F00005460022734B23F0A1F8074623F062FA49
:1025000080B2ADF8000001208DF8020002208DF8A5
:10251000030024E0204623F099FA05460022674B89
:1025200023F028FC13D8204623F090FA0546002219
:10253000664B23F083F8074623F044FA80B2ADF8E7
:10254000000002208DF802008DF8030007E0A0B221
:10255000ADF8000001208DF802008DF8030000980E
:10256000BDE8F88338B504465A481DF068FC5A485F
:102570001DF05AFC59481DF073FC00201DF0AEFC04
:1025800057490023042208680321FFF73DF955A1AC
:1025900055481AF078F804EB8400800000F1280216
:1025A000502151481DF0E2F83F4890F8360000EB0A
:1025B00080013D48383050F83100052872D2DFE8FC
:1025C00000F0030453B9E90000BF454840684FF6E6
:1025D000FF71884206D1444844A10A680260898894
:1025E000818033E03048C08D01281CD13C484268CE
:1025F0002D4890F83610491E00F5FD7030F8110096
:10260000824203D20020364948600CE034484268D8
:10261000254890F83610491E00F5FD7030F811007D
:10262000101A2F49486033480078012807D12C49F7
:102630000023042248680321FFF7E6F806E0284952
:102640000023042248680221FFF7DEF82AA1264869
:102650001AF019F804EB8400800000F12802A02190
:1026600021481DF083F897E01D48406823498842BF
:1026700006D11D4822A10A680260496841604FE006
:1026800017494868FFF7D5FE00902048009901607F
:1026900002469178108800230422FFF7B5F81B4802
:1026A000C07835E077E00000E40F0010C8D80400DF
:1026B00084D7874180F0FA02D01263410088C3407A
:1026C00080842E4100408F40006AF840000059404D
:1026D00000002440FFFF80003366CC002069050025
:1026E000300300106B560000980F001055505045F5
:1026F00052000000FB0000106D412000F6FF0900B1
:102700005550504552202020000000002C000010A1
:1027100000EB4000FE4A02EB4001FE4819F0B3FF17
:1027200004EB8400800000F12802A021F9481DF08C
:102730001DF831E0F84840684FF6FF71884207D134
:10274000F448AFF244010A680260496841600EE053
:10275000F1494868FFF7D1FD0090F0480099016009
:1027600002469178108800230422FFF74DF8EB48C9
:10277000C07800EB4000EA4A8118E64819F083FF70
:1027800004EB8400800000F12802A021E1481CF045
:10279000EDFF01E000E000BF00BFDF490889002332
:1027A00004220121FFF730F8DEA1DA4819F06BFFAF
:1027B000F3225421D7481CF0D9FF38BD2DE9F84346
:1027C0000446204623F042F905460022D64B23F06A
:1027D000D1FA13D8204623F039F905460022D34B0D
:1027E00022F02CFF074623F0EDF880B2ADF8000090
:1027F00002208DF802008DF8030025E0204623F02A
:1028000025F905460022CA4B23F0B4FA13D8204616
:1028100023F01CF905460022C64B22F00FFF0746A5
:1028200023F0D0F880B2ADF8000002208DF802004D
:102830008DF8030008E0A0B2ADF8000003208DF889
:10284000020001208DF803000098BDE8F88338B538
:102850000120FFF791F80620FFF75FFB6FF07F4044
:102860001DF0EDFAB4481DF0FBFA00240FE0B34A66
:1028700002EB4412B24B1B7802EB031004EB840210
:10288000642303EB021128221CF070FF641C032C4C
:10289000EDD3AC481DF0E4FA00241EE0601C00EB10
:1028A00080008000283002B202231421601C1CF03A
:1028B000B5FE611C01EB8101890001F12802611C58
:1028C00001EB81039E49383151F833109E4B03EBE5
:1028D000C10032211CF04AFF641C994890F8350071
:1028E000A042DBD899481DF0AAFA93481DF0B8FA27
:1028F000002468E0611C01EB81029149383101EB51
:10290000C2010023042248680321FEF77DFFAFF2D5
:102910002C21804819F0B7FE601C00EB800080007D
:1029200000F1280250217B481CF020FF611C01EBC4
:1029300081028349383101EBC2018868FFF73EFF0D
:1029400000909DF80210BDF8000000230422FEF75D
:102950005BFF601C00EB80017948383050F8310093
:1029600040B1601C00EB80017548383050F83100F0
:10297000012804D17649674819F085FE13E0601CF0
:1029800000EB80016E48383050F8310002280AD13F
:102990009DF803006E4A103A02EB001000F10801A6
:1029A0005C4819F070FE601C00EB8000800000F1B4
:1029B0002802A02157481CF0D9FE64221146EA20C3
:1029C0001CF018FE641C5E4890F83500A04291D8B7
:1029D00059481DF045FA38BD38B50120FEF7CCFF47
:1029E0000020FFF79AFA6FF07F401DF028FA59484F
:1029F0001DF01AFA002448E004F0010010BB504911
:102A000091F8361001EB81034D49383151F83310FC
:102A10004D235943504B03EB8101C4EBC40301EB3D
:102A20008301474B1B78C3EBC30301EB4300611CDD
:102A3000490801EB4101C90001F11A0204211CF00F
:102A400095FE21E03E4991F8361001EB81033C49A7
:102A5000383151F833104D2359433F4B03EB81017B
:102A6000C4EBC40301EB8301354B1B78C3EBC303F9
:102A700001EB4300611E490801EB4101C90001F16E
:102A80001A02B8211CF072FE641C0B2CB4D36FF038
:102A90007F401DF0D4F92A4890F8353090F8362060
:102AA0002EA11C4819F08EFB1A22642119481CF033
:102AB0005DFE234991F8361001EB8102204938313F
:102AC00051F83210204A02EBC1001A224FF48C71E7
:102AD0001CF04CFE1A4890F8360000EB80011848B4
:102AE000383050F8310005287ED2DFE800F003FED0
:102AF000FDFCFB00124991F8361001EB81021049F0
:102B0000383101EBC201002304224868032129E087
:102B10006B2D0500980F0010300300102C000010E2
:102B2000A12E050020730000006AF8400000594003
:102B300000409F400000244020690500ECD10400C3
:102B4000E40F00102C2006001C120500FFFF80007F
:102B5000741205003366CC00CCDE040025642F25FA
:102B600064000000FEF750FEAFF28841F84819F00B
:102B70008AFD32226421F6481CF0F8FDF54890F8F1
:102B8000360000EB8001F348383000EBC100C0682C
:102B9000C0B1F04991F8361001EB8102ED493831AE
:102BA00001EBC20100230422C8680121FEF72CFEBC
:102BB000E9A1E74819F067FD4A226421E4481CF0C6
:102BC000D5FD08E0E3490978E44A02EBC1004A2256
:102BD00064211CF0CBFDDF48C08B90B3DD4890F83A
:102BE000360000EB800100E0EAE3DA48383000EB21
:102BF000C1008069D8B1D74890F8360000EB800159
:102C0000D448383000EBC100806909280FD8D14979
:102C100091F8361001EB8102CE49383101EBC20147
:102C200001236222886964211CF0F8FC37E0C9495D
:102C30000978CB4A02EBC100622264211CF096FDA8
:102C40002DE0FFE7C34890F8360000EB8001C14853
:102C5000383000EBC1008069C0B1BE4991F8361030
:102C600001EB8102BB49383101EBC2010023032291
:102C700088690121FEF7C8FDBAA1B54819F003FD26
:102C800062226421B2481CF071FD08E0B149097864
:102C9000B34A02EBC100622264211CF067FDAD491A
:102CA00091F8361001EB8102AA49383101EBC201DB
:102CB0008868FFF783FD00909DF80210BDF80000C2
:102CC00000230422FEF7A0FDA749A14819F0DBFC70
:102CD00032224FF48C719E481CF048FD9D4890F8BC
:102CE000360003E081E3A2E2C7E161E000EB80018E
:102CF0009848383000EBC1000069F8B1954991F867
:102D0000361001EB81029349383101EBC2010869A9
:102D1000FFF754FD00909DF80210BDF8000000235D
:102D20000422FEF771FD9049894819F0ACFC4A2253
:102D30004FF48C7186481CF019FD09E0854909782B
:102D4000874A02EBC1004A224FF48C711CF00EFD41
:102D50004FF6FF701DF073F884481DF065F80020F1
:102D60001DF0BCF882481DF07BF87822282181A054
:102D70001CF0FCFC7822F021AFF298601CF0F6FC0D
:102D8000AA2228217CA01CF0F1FCAA22F02175A027
:102D90001CF0ECFC79481DF063F8F322342178A094
:102DA0001CF0E4FCF3228C216BA01CF0DFFC67E339
:102DB000684991F8361001EB81026649383101EB20
:102DC000C2010023042248680321FEF71DFDAFF273
:102DD000EC615F4819F057FC322264215C481CF01A
:102DE000C5FC5C4890F8360000EB8001594838304B
:102DF00000EBC100C068C0B1564991F8361001EB34
:102E000081025449383101EBC20100230422C86811
:102E10000121FEF7F9FC50A14D4819F034FC4A227B
:102E200064214B481CF0A2FC08E04A4909784B4A4F
:102E300002EBC1004A2264211CF098FC454991F83C
:102E4000361001EB81024349383101EBC201886839
:102E5000FFF7B4FC00909DF80210BDF800000023BD
:102E60000422FEF7D1FC4049394819F00CFC32220B
:102E70004FF48C7136481CF079FC364890F83600D7
:102E800000EB80013348383000EBC1000069F8B135
:102E9000304991F8361001EB81022E49383101EBAF
:102EA000C2010869FFF78AFC00909DF80210BDF886
:102EB000000000230422FEF7A7FC2B49244819F048
:102EC000E2FB4A224FF48C7121481CF04FFC09E0D0
:102ED00020490978224A02EBC1004A224FF48C7142
:102EE0001CF044FC1B48C08B80B31A4890F8360095
:102EF00000EB80011748383000EBC1008069D8B181
:102F0000144890F8360000EB80011248383000EB8E
:102F1000C100806909280FD80E4991F8361001EBDD
:102F200081020C49383101EBC20101236222886918
:102F300064211CF073FB6BE006490978084A02EB38
:102F4000C100622264211CF011FC61E01AE0000063
:102F5000980F0010E40F0010730000000C12050021
:102F60001C1105006D410000741205003366CC0091
:102F700080C30500563A0000493A00002069050068
:102F800054203A00FE4890F8360000EB8001FC48DF
:102F9000383000EBC100806980B3F94890F8360002
:102FA00000EB8001F648383000EBC1008069C8288A
:102FB0000AD9C821F24890F8360000EB8002F048A8
:102FC000383000EBC2008161ED4991F8361001EB19
:102FD0008102EB49383101EBC201002303228869E9
:102FE0000121FEF711FCAFF28401E64819F04BFB1A
:102FF00062226421E3481CF0B9FB09E0FFE7E049E5
:103000000978E14A02EBC100622264211CF0AEFBA8
:103010004FF6FF701CF013FFDC481CF005FF00208A
:103020001CF05CFFDA481CF01BFF78222821AFF26D
:10303000BC001CF09BFB7822F021AFF658101CF06E
:1030400095FBAA222821AFF2D0001CF08FFBAA2208
:10305000F021AFF2F0001CF089FBCE481CF000FF1D
:10306000F3223421AFF2E8001CF080FBF3228C2124
:10307000AFF21C101CF07AFB02E2C14991F8361045
:1030800001EB8102BE49383101EBC2010023042269
:1030900048680321FEF7B8FBAFF6B811B94819F03C
:1030A000F2FA32226421B7481CF060FBB44890F871
:1030B000360000EB8001B248383000EBC100C06838
:1030C000C8B1AF4991F8361001EB8102AC493831F3
:1030D00001EBC20100230422C8680121FEF794FB22
:1030E000AFF28C11A74819F0CEFA4A226421A54804
:1030F0001CF03CFB08E0A2490978A74A02EBC1009A
:103100004A2264211CF032FB9D4890F8360000EB07
:1031100080019B48383000EBC100806828B3984993
:1031200091F8361001EB81029549383101EBC2016B
:103130008868FFF77EF900909DF80210BDF8000046
:1031400000230422FEF760FB9DF80300934A02EB84
:10315000001000F108018B4819F095FA32224FF463
:103160008C7188481CF002FB09E085490978864A81
:1031700002EBC10032224FF48C711CF0F7FA804947
:1031800091F8361001EB81027D49383101EBC20123
:103190000869FFF74EF900909DF80210BDF8000095
:1031A00000230422FEF730FB9DF803007B4A02EB6C
:1031B000001000F10801734819F065FA4A224FF433
:1031C0008C7170481CF0D2FA4FF6FF701CF037FE7D
:1031D0006E481CF029FE00201CF080FE6C481CF09C
:1031E0003FFE78222821AFF274201CF0BFFA78222B
:1031F000F021AFF610301CF0B9FAAA22282168A0FD
:103200001CF0B4FAAA22F02166A01CF0AFFA6148C3
:103210001CF026FEF3223421AFF29C201CF0A6FA0B
:10322000F3228C21AFF2D0201CF0A0FA28E1544800
:1032300090F8360000EB80015148383000EBC100B7
:1032400059A102694F4818F0BDFF322264214D4850
:103250001CF08CFA4A4890F8360000EB8001484890
:10326000383000EBC1008068642813D3444890F8DC
:10327000360000EB80014248383000EBC1004AA123
:103280008268404818F09EFF4A2264213D481CF0A5
:103290006DFA08E03A4909783B4A02EBC1004A223C
:1032A00064211CF063FA364890F8360000EB800188
:1032B0003348383000EBC100006AD0B3304890F892
:1032C000360000EB80012E48383000EBC100006A68
:1032D000B0F57A7F13D32A4890F8360000EB8001CE
:1032E0002748383000EBC100006A0A21B0FBF1F535
:1032F0000023042202212846FEF786FA0EE0204928
:1033000091F8361001EB81021D49383101EBC20101
:1033100000230422086A0321FEF776FA244919489B
:1033200019F0B1F932224FF48C7116481CF01EFAD4
:1033300006E0FFE732224FF48C711EA01CF016FA53
:103340004FF6FF701CF07BFD10481CF06DFD002057
:103350001CF0C4FD0E481CF083FD78222821AFF23A
:10336000EC301CF003FA7822F021AFF688401CF014
:10337000FDF9AA22282111A01CF0F8F9AA2220E0C8
:10338000E40F0010980F00101C1105003366CC00EC
:1033900080C30500206905000C12050064120500B9
:1033A000523A0000CEA90000253364252500000014
:1033B000A42E05004E4F4E4500000000433A000089
:1033C0005DE0F021FEA01CF0D1F9FE481CF048FDA4
:1033D000F3223421AFF258401CF0C8F9F3228C21BB
:1033E000AFF28C401CF0C2F94AE032226421F6A010
:1033F0001CF0BCF9F64991F8361001EB8102F44952
:10340000383101EBC201496AF24A02EB0111F04A7C
:10341000127801EBC20032224FF48C711CF0A6F935
:10342000EB4890F8360000EB8001E948383000EBBB
:10343000C100C068C8B1E64991F8361001EB8102BD
:10344000E349383101EBC20100230422C86801219D
:10345000FEF7DAF9AFF20051DF4819F014F94A2209
:103460006421DD481CF082F908E0D9490978DB4A7B
:1034700002EBC1004A2264211CF078F900E000BF91
:1034800000BF38BD10B50120FEF776FA0320FEF725
:1034900044FD4FF6FF701CF0D2FCD1481CF0C4FC78
:1034A00000242CE004F00100A0B9C4EB0411CD4BC2
:1034B00003EB4101C64B1B78C3EB0313C818611C17
:1034C000490801EB4101C90001F11A0204211CF075
:1034D0004DF913E0C4EB0411C24B03EB4101BC4BAB
:1034E0001B78C3EB0313C818611E490801EB4101A7
:1034F000C90001F11A02B8211CF038F9641C0F2C24
:10350000D0D310BD38B50446012C00D100E0002016
:1035100005461DB1FF20B449486002E0B048B249F9
:103520004860B148808880B24823C0223021009092
:103530005420FDF7B6FCAC48808880B20090AA48C1
:10354000008883B2A94800783130C2B230216C20A3
:10355000FDF73EFD022C01D1012000E000200546D0
:103560001DB1FF20A049486002E09D489E49486087
:103570009E49097801EB81029C49891C01EB82017B
:10358000C889002304221946FEF73EF99648808830
:1035900080B25E23C0224A2100905420FDF781FCB6
:1035A00000238D4A4A215C20FEF75CF8002390A29C
:1035B0004A218E20FEF756F8032C01D1012000E0AD
:1035C000002005461DB1FF208749486002E084487D
:1035D000854948608549097801EB81028349891C46
:1035E00001EB8201088A002304221946FEF70CF938
:1035F0007D48808880B27623C022622100905420CA
:10360000FDF74FFC0023744A62215C20FEF72AF884
:10361000002377A262218E20FEF724F8042C01D12A
:10362000012000E0002005461DB1FF206E494860E2
:1036300002E06B486C4948606E48006811281DD153
:103640006948808880B246234FF4C87230210090C8
:103650004FF48670FDF725FC6448007800EB80018C
:103660006248801C00EB81004089634901EB001235
:10367000002332214FF48670FDF7F4FF052C01D1B1
:10368000012000E0002005461DB1FF20564948609A
:1036900002E05348544948605449097801EB8102DB
:1036A0005249891C01EB82014888002304221946F3
:1036B000FEF7AAF84C48808880B25E234FF4C872A7
:1036C0004A2100904FF48470FDF7EBFB0023424A3F
:1036D0004A214FF48D70FDF7C5FF002347A24A2110
:1036E0004FF4A070FDF7BEFF062C01D1012000E0D1
:1036F000002005461DB1FF203B49486002E03848E4
:10370000394948603949097801EB81023749891CF8
:1037100001EB82018888002304220121FEF774F85E
:1037200000232D4A62214FF48870FDF79BFF002390
:10373000AFF6104262214FF4A070FDF793FF38BD41
:103740007CB506460D460120FEF716F902201CF056
:10375000C5FB6FF07F401CF072FB0024C4E04FF407
:10376000BE70ADF8000004EB4400042101EB001032
:10377000062101FB040000B2ADF802004FF4EE7028
:10378000ADF80400601C00EB4000042101EB0010C8
:10379000062101FB040000B2ADF80600052E3FD261
:1037A000DFE806F0033F576F8700C5EBC50101EB6B
:1037B0008101134A02EB8101054A127822E00000E0
:1037C0006E46000020690500504155534500000039
:1037D000E40F00101C110500980F00100C120500DA
:1037E0003366CC007414050024000010B0080010EB
:1037F0004DCEA90020010010481F050020560000F2
:10380000D0E40400C2EBC20202EB820201EB4201EF
:10381000C4EBC40201EB42000E2269461BF0BAFF62
:103820005FE0C5EBC50101EB8101FE4A02EB8101BE
:10383000FD4A1278C2EBC20202EB820201EB4201A6
:10384000C4EBC40201EB42000E2269461BF0A2FF4A
:1038500047E0C5EBC50101EB8101F44A02EB8101B0
:10386000F14A1278C2EBC20202EB820201EB420182
:10387000C4EBC40201EB42000E2269461BF08AFF32
:103880002FE0C5EBC50101EB8101E94A02EB8101A3
:10389000E54A1278C2EBC20202EB820201EB42015E
:1038A000C4EBC40201EB42000E2269461BF072FF1A
:1038B00017E0C5EBC50101EB8101DE4A02EB810196
:1038C000D94A1278C2EBC20202EB820201EB42013A
:1038D000C4EBC40201EB42000E2269461BF05AFF02
:1038E00000BF00BF601CC4B2052CFFF638AF7CBD22
:1038F000F8B50546CC4991F8361001EB8102CA496A
:10390000383151F83210CC4A515C481C00EBD07170
:10391000C1F34707012437E0AC4203D1FF201CF07C
:103920008EFA02E0C5481CF08AFA04F00100A0B14A
:10393000601E012202EB500000EB4000C00000F1CD
:103940001803601E00EB4000C000182202EB50017B
:10395000B4225A201BF0EAFF15E0601E012202EBA0
:10396000500000EB4000C00000F11803601E40084A
:1039700000EB4000C00000F118014FF4B7724FF4A3
:103980008A701BF0D3FF641CA74890F8360000EB48
:103990008001A548383050F83100A749085C401C28
:1039A000A042B9D802201CF099FA6FF07F401CF0B9
:1039B00046FA9D4890F8353090F83620AFF66461AD
:1039C0009F4818F0FFFB1A2264219D481BF0CEFE91
:1039D000954991F8361001EB81029349383151F83D
:1039E0003210984A02EBC1001A224FF48C711BF07E
:1039F000BDFE8D4890F8360000EB80018A483830D3
:103A000050F83100052871D2DFE810F0050096016A
:103A10009A03CA046705844991F8361001EB8102C4
:103A20008149383101EBC201002304224868032197
:103A3000FDF7EAFE84A1824818F025FE32226421B7
:103A40007F481BF093FE784890F8360000EB800129
:103A50007548383000EBC100C068C8B1724991F8B0
:103A6000361001EB81027049383101EBC2010023AD
:103A70000422C8680121FDF7C7FEAFF62431704863
:103A800018F001FE4A2264216D481BF06FFE08E029
:103A9000654909786D4A02EBC1004A2264211BF096
:103AA00065FE614890F8360000EB80015E483830D2
:103AB00000EBC1004069D0B15B4991F8361001EBD1
:103AC00081025949383101EBC201002304224869BF
:103AD0000121FDF799FEAFF68031594818F0D3FD6A
:103AE0006222642156481BF041FE09E0F9E34E4989
:103AF0000978574A02EBC100622264211BF036FEAE
:103B0000494890F8360000EB80014748383000EB18
:103B1000C100C069C8B1444991F8361001EB810277
:103B20004149383101EBC20100230422C869012157
:103B3000FDF76AFEAFF6E031414818F0A4FD7A22A5
:103B400064213F481BF012FE08E037490978404ADB
:103B500002EBC1007A2264211BF008FE324991F881
:103B6000361001EB81023049383101EBC20188681F
:103B7000FEF724FE00909DF80210BDF8000000231F
:103B80000422FDF741FE33492D4818F07CFD322216
:103B90004FF48C712A481BF0E9FD234890F8360059
:103BA00000EB80012048383000EBC1000069F8B11B
:103BB0001D4991F8361001EB81021B49383101EBA8
:103BC000C2010869FEF7FAFD00909DF80210BDF8E9
:103BD000000000230422FDF717FE1E49184818F0C4
:103BE00052FD4A224FF48C7115481BF0BFFD09E0CD
:103BF0000D490978164A02EBC1004A224FF48C7134
:103C00001BF0B4FD0848C08B30B3074890F836006D
:103C100000EB80010448383000EBC10080690928BE
:103C200026D91AE0A8EE0400E40F001038F50400CD
:103C3000FC030500440705009CD104003366CC005A
:103C4000980F00101C1205006B5600000C120500A6
:103C50001C110500741205003DE00921FB4890F895
:103C6000360000EB8002F948383000EBC200816179
:103C7000F64890F8360000EB8001F448383000EB4D
:103C8000C1008069E0B1F14890F8360000EB800196
:103C9000EE48383000EBC1008069092810D8EB49A4
:103CA00091F8361001EB8102E849383101EBC2018D
:103CB0000123622288694FF48C711BF0AFFC3AE05B
:103CC000E2490978E24A02EBC10062224FF48C71AA
:103CD0001BF04CFD2FE0DD4890F8360000EB800132
:103CE000DA48383000EBC1008069D0B1D74991F88B
:103CF000361001EB8102D549383101EBC2010023B6
:103D0000032288690121FDF77FFDAFF6A851D14854
:103D100018F0B9FC62224FF48C71CE481BF026FDDE
:103D200009E0CA490978CA4A02EBC10062224FF48D
:103D30008C711BF01BFD02E2C44991F8361001EBB7
:103D40008102C249383101EBC201002304224868D4
:103D50000321FDF759FDAFF21011BE4818F093FC96
:103D600032226421BB481BF001FDB84890F83600B0
:103D700000EB8001B548383000EBC100C068C8B125
:103D8000B24991F8361001EB8102B049383101EBAC
:103D9000C20100230422C8680121FDF735FDAFF6FA
:103DA0004861AC4818F06FFC4A226421A9481BF016
:103DB000DDFC08E0A5490978A74A02EBC1004A22C8
:103DC00064211BF0D3FCA14890F8360000EB800181
:103DD0009E48383000EBC1004069C8B19B4991F85A
:103DE000361001EB81029949383101EBC201002301
:103DF000042248690121FDF707FDAFF6A46195484B
:103E000018F041FC6222642192481BF0AFFC08E0EC
:103E10008E4909788E4A02EBC100622264211BF0B0
:103E2000A5FC8A4890F8360000EB800187483830BE
:103E300000EBC100C069C8B1844991F8361001EBAC
:103E400081028249383101EBC20100230422C86992
:103E50000121FDF7D9FCAFF600717E4818F013FC84
:103E60007A2264217B481BF081FC08E077490978BD
:103E7000774A02EBC1007A2264211BF077FC734879
:103E800090F8360000EB80017048383000EBC1003C
:103E9000406A80B36D4890F8360000EB80016B48B3
:103EA000383000EBC100406A40F6AC51884209D37B
:103EB000664890F8360000EB80026448383000EB2A
:103EC000C2004162614991F8361001EB81025F49FD
:103ED000383101EBC20100230422486A0121FDF7B9
:103EE00093FC5EA15B4818F0CEFB922264215948F6
:103EF0001BF03CFC15E0FFE7544991F8361001EB4C
:103F000081025249383101EBC201496A504A02EB41
:103F100001114E4A127801EBC200922264211BF07B
:103F200025FC4A4991F8361001EB810247493831A6
:103F300001EBC2018868FEF741FC00909DF8021079
:103F4000BDF8000000230422FDF75EFC444941480F
:103F500018F099FB32224FF48C713E481BF006FC9E
:103F60003A4890F8360000EB80013848383000EBD2
:103F7000C1000069F8B1354991F8361001EB8102B2
:103F80003249383101EBC2010869FEF717FC009095
:103F90009DF80210BDF8000000230422FDF734FC58
:103FA0002F492C4818F06FFB4A224FF48C71294896
:103FB0001BF0DCFB09E025490978254A02EBC1002A
:103FC0004A224FF48C711BF0D1FB2048C08BE0B328
:103FD0001E4890F8360000EB80011C48383000EB9A
:103FE000C100806909280AD90921184890F83600CB
:103FF00000EB80021548383000EBC20081611348A5
:1040000090F8360000EB80011048383000EBC1001A
:10401000806938B30D4890F8360000EB80010B48FA
:10402000383000EBC100806909281FD8074991F892
:10403000361001EB81020549383101EBC201012341
:10404000622288694FF48C710DE01AE0E40F0010D1
:104050001C110500980F00100C120500754100009E
:104060007412050002E01BF0D9FA39E0FE49097824
:10407000FE4A02EBC10062224FF48C711BF076FB0A
:104080002EE0F94890F8360000EB8001F648383011
:1040900000EBC1008069C8B1F34991F8361001EB1B
:1040A0008102F149383101EBC20100230422886901
:1040B0000121FDF7A9FBEEA1EE4818F0E4FA622217
:1040C0004FF48C71EB481BF051FB09E0E64909788D
:1040D000E64A02EBC10062224FF48C711BF046FBF2
:1040E000E14890F8360000EB8001DF48383000EB03
:1040F000C100006AC8B1DC4991F8361001EB8102B9
:10410000D949383101EBC20100230422086A012198
:10411000FDF77AFBD8A1D74818F0B5FA7A224FF408
:104120008C71D4481BF022FB09E0CF490978CF4AB3
:1041300002EBC1007A224FF48C711BF017FB18E2DE
:10414000C94991F8361001EB8102C749383101EBBA
:10415000C2010023042248680321FDF755FBAFF29A
:104160001851C44818F08FFA32226421C1481BF05C
:10417000FDFABD4890F8360000EB8001BA483830AF
:1041800000EBC100C068C0B1B74991F8361001EB2F
:104190008102B549383101EBC20100230422C8680D
:1041A0000121FDF731FBB4A1B24818F06CFA4A22A4
:1041B0006421B0481BF0DAFA08E0AB490978AF4A4D
:1041C00002EBC1004A2264211BF0D0FAA64890F805
:1041D000360000EB8001A448383000EBC100406994
:1041E000C0B1A14991F8361001EB81029E493831E6
:1041F00001EBC2010023042248690121FDF704FB01
:104200009DA19C4818F03FFA6222642199481BF056
:10421000ADFA08E094490978944A02EBC1006222A1
:1042200064211BF0A3FA904890F8360000EB80015F
:104230008D48383000EBC100C069C0B18A4991F89F
:10424000361001EB81028849383101EBC2010023AD
:104250000422C8690121FDF7D7FA87A1854818F023
:1042600012FA7A22642183481BF080FA08E07E4922
:1042700009787E4A02EBC1007A2264211BF076FAAB
:10428000794890F8360000EB80017748383000EB31
:10429000C100806830B3744991F8361001EB810297
:1042A0007149383101EBC2018868FEF7C2F800900D
:1042B0009DF80210BDF8000000230422FDF7A4FAC7
:1042C0009DF803006E4A02EB001000F108016948F6
:1042D00018F0D9F932224FF48C7166481BF046FA77
:1042E0000AE045E160490978604A02EBC1003222E8
:1042F0004FF48C711BF03AFA5B4991F8361001EBE0
:1043000081025949383101EBC2010869FEF791F881
:1043100000909DF80210BDF8000000230422FDF774
:1043200073FA9DF80300564A02EB001000F10801F1
:10433000504818F0A8F94A224FF48C714D481BF0F0
:1043400015FA49490978C1EBC1014E4A02EBC10295
:10435000454991F8361001EB81034349383101EBAF
:10436000C301896902EBC10062224FF48C711BF01A
:10437000FDF93D4991F8361001EB81023A49383197
:1043800001EBC201496A394A02EB0111364A12783F
:1043900001EBC2007A224FF48C711BF0E7F9E8E0E0
:1043A000314890F8360000EB80012F48383000EBA0
:1043B000C100354902692F4817F004FF32226421F9
:1043C0002C481BF0D3F9284890F8360000EB800108
:1043D0002548383000EBC1008068642813D3224898
:1043E00090F8360000EB80011F48383000EBC10028
:1043F000254982681F4817F0E5FE4A2264211D48BE
:104400001BF0B4F908E018490978184A02EBC1001A
:104410004A2264211BF0AAF9134890F8360000EBF9
:1044200080011148383000EBC100006A70B30E48BB
:1044300090F8360000EB80010B48383000EBC100EB
:10444000006AB0F57A7F27D3074890F8360000EB72
:1044500080010548383000EBC100006A0A21B0FB3A
:10446000F1F60023042212E0E40F00101C110500F5
:104470006D410000980F0010730000000C12050041
:10448000641205009C110500A83302001EE0022101
:104490003046FDF7B9F90EE0FA4991F8361001EB14
:1044A0008102F849383101EBC20100230422086A75
:1044B0000321FDF7A9F9F449F44818F0E4F8322291
:1044C0004FF48C71F1481BF051F905E032224FF4A2
:1044D0008C71EF481BF04AF94BE032226421AFF6B1
:1044E00018501BF043F9E74991F8361001EB8102AF
:1044F000E449383101EBC201496AE64A02EB011195
:10450000E04A127801EBC20032224FF48C711BF0AA
:104510002DF9DC4890F8360000EB8001D94838309E
:1045200000EBC100C068C8B1D64991F8361001EB64
:104530008102D449383101EBC20100230422C8684A
:104540000121FDF761F9AFF2D001D04818F09BF8D6
:104550004A226421CD481BF009F908E0C9490978CD
:10456000CD4A02EBC1004A2264211BF0FFF800E0B3
:1045700000BF00BFC34991F8361001EB8102C14969
:10458000383111F832002946FFF7DAF8F8BD7CB56A
:1045900005460120FDF7F0F942F669201BF044FCC6
:1045A00002201BF09BFC6FF07F401BF048FC0024B6
:1045B00037E04FF4BE70ADF8000004EB4400042176
:1045C00001EB0010062101FB040000B2ADF802006F
:1045D0004FF4EE70ADF80400601C00EB40000421C5
:1045E00001EB0010062101FB040000B2ADF806004B
:1045F000C5EBC50101EB8101A84A02EB8101A14A8B
:104600001278C2EBC20202EB820201EB4201C4EB60
:10461000C40201EB42000E2269461BF0BBF8601C8D
:10462000C4B2052CC5DB7CBD2DE9F0470746954C8F
:1046300014340F2601253BE0BD4203D1FF201BF0BF
:10464000FEFB02E096481BF0FAFB701C00EBD071F9
:10465000B5EB610F0FD805EB4500C00000F1180362
:10466000681E00EB4000C00000F11801B4225A207F
:104670001BF05CF91BE006F1010808EBD870A5EB14
:10468000600000EB4000C00000F11803C14609EBD8
:10469000D970A5EB6000401E00EB4000C00000F1A7
:1046A00018014FF4B7724FF48A701BF03FF96D1C7C
:1046B000B5F5E17FC0D902201BF010FC6FF07F4000
:1046C0001BF0BDFB002526E0012D0ED134F81500AE
:1046D000B0F57A7F09D105EB45001A2101EBC00244
:1046E000642170A01BF042F814E034F81500002398
:1046F00003220121FDF788F8AFF28421634817F007
:10470000C2FF05EB45001A2101EBC00264215F489E
:104710001BF02CF86D1C032DD6D3E1885D4A02EB0B
:104720000111584A127801EBC200622264211BF089
:104730001DF821895C4A02EBC1007A2264211BF03A
:1047400015F86189594A02EB01114E4A127801EBC2
:10475000C200922264211BF009F8A08948B9494996
:1047600009784C4A02EBC100AA2264211AF0FEFF2C
:104770000AE0A089002302221946FDF745F8AA2283
:10478000642142481AF0F2FFE189424A02EB01112A
:104790003C4A127801EBC200C22264211AF0E6FF03
:1047A000218A3C4A02EB0111364A127801EBC20021
:1047B0001A224FF48C711AF0D9FF618A354A02EB44
:1047C0000111304A127801EBC20032224FF48C7191
:1047D0001AF0CCFFA18A364A02EB0111294A12785D
:1047E00001EBC2004A224FF48C711AF0BFFFE18A3C
:1047F000284A02EB0111234A127801EBC20062221F
:104800004FF48C711AF0B2FF218B224A02EB011196
:104810001C4A127801EBC2007A224FF48C711AF014
:10482000A5FF618B1B4A02EB0111164A127801EBBE
:10483000C20092224FF48C711AF098FFA08B88B1BD
:10484000A08B002302220121FCF7DEFFAFF2D8315A
:104850000E4817F018FFAA224FF48C710B481AF07B
:1048600085FF09E0074909780A4A02EBC100AA223C
:104870004FF48C711AF07AFF3846FFF788FEBDE8D6
:10488000F0870000E40F0010A42E0500980F001020
:10489000B43302001C1105000C1205003CFB04009F
:1048A0003366CC004B455900441205007C110500CD
:1048B0003C1105001CB50120FDF75EF802201BF03D
:1048C0000DFB6FF07F401BF0BAFA00242BE04FF491
:1048D000BE70ADF8000004EB4400042101EB0010B1
:1048E000062101FB040000B2ADF802004FF4EE70A7
:1048F000ADF80400601C00EB4000042101EB001047
:10490000062101FB040000B2ADF80600FB4901EBF3
:104910004411FB4A127801EB02100E2269461AF08C
:1049200039FF601CC4B2052CD1DB1CBD10B50220C0
:104930001BF0D4FA6FF07F401BF081FA3222642121
:10494000F0A01AF013FFEE490978F04A02EB41108B
:104950004A2264211AF00AFFE9490A78EB494031FA
:1049600001EB42107A2264211AF000FFE4490A7830
:10497000E649803101EB4210922264211AF0F6FEE2
:10498000DF490A78E149C03101EB4210AA226421D3
:104990001AF0ECFEFFF78EFF10BD70B504460D4611
:1049A000601EDB4A115C002304222846FCF72CFF22
:1049B000601C00EB4000C00000F11A010123D54A41
:1049C0004FF4A270FCF74EFE70BD38B505460024CA
:1049D00032E0601C854203D1FF20CF49486002E0ED
:1049E000CE48CD494860CC48808880B20090E01C19
:1049F00000EB4000C000163083B2A01C00EB40006A
:104A0000C000183081B2E822A420FCF74AFAC04A5C
:104A1000115DC34A32F8240000230422FCF7F4FE9F
:104A2000A01C00EB4000C0001A3081B20123B94A3B
:104A3000A420FCF717FE641C052CCAD3B748B6495E
:104A4000486038BD30B58DB00446B448B2494860BE
:104A500002A9B44810F04AFFB3A10AA817F0B2FBAC
:104A600000230AAAAA215E20FCF7FCFDB1A10AA836
:104A700017F0A8FB00230AAAC2217220FCF7F2FD5E
:104A8000062C01D1012000E0002005461DB1FF20C9
:104A9000A149486002E0A1489F494860A8A10AA82E
:104AA000099A17F08FFB9C48808880B2BE2386222B
:104AB000AA2100905E20FCF7F4F900230AAAAA219B
:104AC0005E20FCF7CFFD072C01D1012000E0002083
:104AD00005461DB1FF209049486002E08F488E498D
:104AE000486097A10AA8089A17F06CFB8A4880884A
:104AF00080B2BE23A422AA2100909020FCF7D1F915
:104B000000230AAAAA219020FCF7ACFD082C01D1B1
:104B1000012000E0002005461DB1FF207E494860CD
:104B200002E07E487C49486085A10AA8059A17F0F2
:104B300049FB7948808880B2BE23C222AA21009016
:104B4000AE20FCF7AEF900230AAAAA21AE20FCF79A
:104B500089FD092C01D1012000E0002005461DB18E
:104B6000FF206D49486002E06C486B49486074A1C1
:104B70000AA8049A17F026FB6748808880B2D623DB
:104B80008622C22100907220FCF78BF900230AAA2A
:104B9000C2217220FCF766FD0A2C01D1012000E041
:104BA000002005461DB1FF205B49486002E05B48DC
:104BB0005949486062A10AA8039A17F003FB5648B6
:104BC000808880B2D623A422C22100909020FCF7D6
:104BD00068F900230AAAC2219020FCF743FD0B2CA0
:104BE00001D1012000E0002005461DB1FF204A4907
:104BF000486002E049484849486051A10AA8029A21
:104C000017F0E0FA4448808880B2D623C2221146C9
:104C10000090AE20FCF745F900230AAAC221AE207D
:104C2000FCF720FD0DB030BD7CB505460120FCF73A
:104C3000A3FE02201BF052F96FF07F401BF0FFF83B
:104C4000002437E04FF4BE70ADF8000004EB4400E0
:104C5000042101EB0010062101FB040000B2ADF8B5
:104C600002004FF4EE70ADF80400601C00EB400051
:104C7000042101EB0010062101FB040000B2ADF895
:104C80000600C5EBC50101EB81012F4A02EB810152
:104C90001B4A1278C2EBC20202EB820201EB420114
:104CA000C4EBC40201EB42000E2269461AF072FD09
:104CB000601CC4B2052CC5DB7CBD70B5054607265B
:104CC000012456E0AC4203D1FF201BF0B8F802E00B
:104CD00012481BF0B4F8042C38D804EB4400C00090
:104CE00000F11803601E00EB4000C00000F1180145
:104CF000A0225A201AF01AFE3AE00000ECD3040079
:104D0000E40F00104A4B3731333000008CD70400D9
:104D1000FC2F0500980F0010240000103366CC0013
:104D2000E007001000400240202020203A20203AD6
:104D30002020000020203A20203A202000000000FF
:104D4000253032640000000048EA0400201F00EB18
:104D50004000C00000F11803601F00EB4000C000DD
:104D600000F1180140F25F124FF48A701AF0DEFD74
:104D7000641C701C8442A5D302201BF0AFF86FF0B6
:104D80007F401BF05CF8FD490978C1EBC10101EBE4
:104D90008101FB4A02EB4101F84A1278C2EBC202E0
:104DA00001EB42001A2264211AF0E0FCF349097871
:104DB000C1EBC10101EB8102F1498C3101EB4201F0
:104DC000EE4A5278C2EBC20201EB42003222642169
:104DD0001AF0CCFCE9490978C1EBC10101EB810271
:104DE000E84901EB4201E54A9278C2EBC20201EBCD
:104DF00042004A2264211AF0B9FCE0490978C1EB6B
:104E0000C10101EB8102DF498C3101EB4201DB4A38
:104E1000D278C2EBC20201EB4200622264211AF096
:104E2000A5FCD6490978C1EBC10101EB8102D64945
:104E300001EB4201D14A527BC2EBC20201EB4200BC
:104E40001A224FF48C711AF091FCCC49887B032311
:104E500032224FF48C711AF0E1FBC8490978C1EB9A
:104E6000C10101EB8102C94901EB4201C34AD27B76
:104E7000C2EBC20201EB42004A224FF48C711AF0DD
:104E800075FC2846FFF7D0FE70BD10B50020FDF779
:104E90001EF810BD10B5FFF7F8FF4FF6FF70BC49C4
:104EA000086040F23F2048604FF6FF700860B94844
:104EB000486000240FE004EB840101EBC401B64B11
:104EC000CA1804EB84014901091D88B2002332216C
:104ED000FCF7C8FB641C032CEDD3002410E004EBAA
:104EE000840000EBC400AD4BC218A01C00EB4000D6
:104EF000C0001A3081B200230420FCF7B3FB641C0D
:104F0000052CECD310BD08B543F6AC10B62340F227
:104F1000DF127A2100900020FBF7C3FF08BD10B517
:104F20000020FCF7D4FFFFF7EEFF10BD08B543F6F5
:104F3000AC10B62340F2DF127A2100900020FBF77C
:104F4000B0FF08BD10B50020FCF7C1FF10BD10B5C3
:104F5000FFF7F8FF4FF6FF708D49086040F23F20E1
:104F6000486000238E4A04211846FCF77BFB4FF66D
:104F7000FF7087490860874848600023894A1A21E2
:104F80000420FCF76FFB01240CE0864901EB0412BE
:104F9000611E4D235943223188B200233221FCF790
:104FA00061FB641C072CF0D30020FCF768FE10BDE9
:104FB00038B5002416E04FF6FF700090601C00EB3F
:104FC00040001A2202EBC000801E83B2601C00EB7E
:104FD000400002EBC000801E81B2BE225A20FBF7C7
:104FE000BAFE641C052CE6D338BD10B50220FCF7D0
:104FF0006EFF10BD10B50120FCF7BEFC0420FCF7CD
:105000008CFF4FF6FF701AF01AFF62481AF00CFF7F
:10501000002410E0644901EB4411584B1B7801EB6C
:105020000310611C01EB4101C90001F11A020421C6
:105030001AF09CFB641C062CECD310BD70B5054621
:105040002846FCF744FF4FF6FF705149086008609E
:1050500050484860022D11D100240DE0534800EB68
:105060000412601C00EB4000C0001A3081B2002323
:105070000420FCF7F7FA641C072CEFD370BD2DE970
:10508000F34F83B00C4642F20F716068884206D934
:105090000A216068B0FBF1F060600420A060A068A5
:1050A000C0F10400A060D4F80490E06820B94FF487
:1050B0007A7009FB00F90EE0E06801280BD1484640
:1050C00020F0C4FC07460022394B20F055FD054670
:1050D00020F078FC8146A06820F0B8FC07463A46EC
:1050E0000B46002033491FF065FC05460E46484636
:1050F00020F0ACFC2A463346CDE9000120F09EFAB0
:10510000824620F05FFC8146484620F09FFC054621
:105110000022294B20F02EFE09D2DFF8A09040F6A5
:10512000B83060600220A0600120E06084E0484662
:1051300020F08CFC05460022214B20F01BFE09D8F4
:1051400042F21070B9FBF0F060600220A060012014
:10515000E06071E0484620F079FC05460022144BDF
:1051600020F008FE2ED84FF47A70B9FBF0F06060A2
:105170000320A0600120E0605EE00000E40F00106A
:105180008C0A0500A40B0500D40D0500EC0E0500EB
:10519000240000103366CC003A2B0500612B05007B
:1051A00099290500832D05002CD304000427050050
:1051B00080842E4100002440389C7C4180C3C9017A
:1051C000D0126341484620F041FC05460022FE4BC8
:1051D00020F0D0FD08D86420B9FBF0F06060012019
:1051E000A0600020E06027E0484620F02FFC054644
:1051F0000022F64B20F0BEFD08D80A20B9FBF0F0E3
:1052000060600220A0600020E06015E0484620F0C9
:105210001DFC05460022EE4B20F0ACFD06D8C4F87C
:1052200004900320A0600020E06005E0C4F8049032
:105230000320A0600020E060C4F818901C222146E2
:10524000039817F0B3FA05B0BDE8F08F01468888DF
:1052500000B270472DE9F04105460C46E06870BB8E
:10526000A068052829D2DFE800F00314151C2200ED
:10527000606820F0EBFB06460022D34B20F07AFD5D
:1052800004D2D44860600020206101E00120206148
:1052900014E013E04FF47A716068B0FBF1F06060E5
:1052A0000CE064216068B0FBF1F0606006E00A2168
:1052B0006068B0FBF1F0606000E000BF46E0FFE72F
:1052C000A06806283ED2DFE800F003101819263245
:1052D000C0496068884202D90846606004E04FF423
:1052E0007A716068484360602FE0606820B10A21ED
:1052F0006068B0FBF1F0606027E026E042F21071D8
:105300006068884201D908466060606800EB8000F0
:105310004000606019E06068B0F57A7F02D94FF410
:105320007A70606064216068484360600DE0606886
:10533000642801D9642060604FF47A716068484342
:10534000606002E0A448606000BF00BF1C222146EC
:10535000284617F02BFABDE8F0812DE9F34F83B012
:105360008A4642F20F71DAF80400884209D90A210C
:10537000DAF80400B0FBF1F0CAF804000420CAF81F
:1053800008004FF47A71DAF8040000FB01FBDAF848
:105390000810C1F1040020F059FB02460B46CDE98C
:1053A000000100208D491FF005FB04460D465846BC
:1053B00020F04CFB064622462B4620F03FF9804663
:1053C00020F000FB83464EF66020834500D98346DB
:1053D00042F21070834508D90220CAF808000A205A
:1053E000BBFBF0F0CAF8040004E00320CAF8080090
:1053F000CAF804B0CAF818B01C225146039817F036
:10540000D5F905B0BDE8F08F2DE9F05F82460C4676
:105410000020E060A06821F087F8834620F0BCFE01
:1054200007463A460B4600206C491FF0C3FA054672
:1054300020F0C8FA81466068B0FBF9F9B9F1640F51
:1054400001D90220A0601C222146504617F0AEF977
:10545000BDE8F09F08B56248372328225C21009000
:105460003C20FBF700FF5F48372328225C21009097
:105470006420FBF7F8FE5C48372328229321009034
:105480003C20FBF7F0FE5748372328229321009059
:105490006420FBF7E8FE08BD10B500240BE004EB28
:1054A000C400C0EB841000F16E0150A28C20FCF708
:1054B0008EF8601CC4B2032CF1DB10BD08B54D485A
:1054C0004D4948604848372328226E2100906420C7
:1054D000FBF7C9FE4948372328226E2100904FF47C
:1054E0009670FBF7C0FE4648372328226E210090B5
:1054F0004FF4AA70FBF7B7FE424837232822A521B4
:1055000000906420FBF7AFFE3E4837232822A521F8
:1055100000904FF4AA70FBF7A6FE3B4837232822E1
:10552000DC2100906420FBF79EFE384837232822B8
:10553000DC2100904FF4AA70FBF795FE08BD08B57A
:10554000014633480078022806DC88B2ADF8000036
:1055500002208DF8020008E088B2ADF800000320B8
:105560008DF8020001208DF80300009808BD10B5E9
:105570000446284901EB4411274A127801EB021036
:10558000F222B4211AF0F2F810BD38B504466FF0DB
:105590007F401AF054FC204890F8353090F83620BF
:1055A0001E491F4816F00EFE1A2264211C481AF0EC
:1055B000DDF8194991F8361001EB810216493831AE
:1055C00051F83210174A2FE0006AF8400088C340B3
:1055D00000408F40A086010040420F0000002440A0
:1055E000F98B0400118D0400F8B404002D2D2D2D2D
:1055F0002D0000003366CC002400001090BD040094
:1056000015C504009ACC0400ADCD0400C0CE040042
:10561000FB0000108CD40400E40F00105C2B02008F
:10562000980F00101C12050002EBC1001A224FF463
:105630008C711AF09BF8FA481AF0F6FBF9481AF048
:10564000FEFB00201AF04AFCF7481AF009FCF74864
:1056500090F8360000EB8001F448383050F8310003
:1056600004280FD0012C07D1F14900230422086837
:105670000321FCF7C9F805E00023042203211846A2
:10568000FCF7C2F878225A21EA481AF06FF8E74886
:1056900090F8360000EB8001E448383050F83100D3
:1056A000052875D2DFE800F0030465A6E10000BF1D
:1056B000012C41D1DE4840684FF6FF71884206D187
:1056C000DC48DD490A680260898881803AE0D74871
:1056D000C08D01281CD1D6484268D44890F83610B5
:1056E000491E00F5FD7030F81100824203D20020FF
:1056F000CF4948600CE0CE484268CC4890F836105C
:10570000491E00F5FD7030F81100101AC8494860B4
:10571000CA480078012807D1C549002304224868F7
:105720000321FCF771F80DE0C14900230422486809
:105730000221FCF769F805E0002304220321184642
:10574000FCF762F8B6481AF07AFBE823F022AA21A7
:105750005A201AF0EBF8B3481AF071FBAA225A212A
:10576000B4481AF003F8AA22F021B5A019F0FEFF00
:105770007DE0012C32D1AE484068B349884208D15F
:10578000AC48AD4914310A680260496841602BE0B9
:105790006CE0A7494868FCF74CFE00909DF80210A9
:1057A000BDF8000000230422FCF72EF89C481AF0F4
:1057B00046FBE823F022AA215A201AF0B7F89948AC
:1057C0001AF03DFB9DF8031001EB41019F4A02EBEB
:1057D0004100AA22F02119F0C9FF05E000230322AD
:1057E00001211846FCF710F8AA225A21914819F015
:1057F000BDFF3CE0012C1BD18D4840684FF6FF7186
:10580000884207D18B488C4914310A680260496884
:10581000416013E086494868FFF791FE00909DF8CB
:105820000210BDF8000000230422FBF7EDFF05E0A5
:105830000023042203211846FBF7E6FF78481AF0FC
:10584000FEFAE823F022AA215A201AF06FF87548D0
:105850001AF0F5FAAA225A21764819F087FFAA22EF
:10586000F0217B4819F082FF01E000E000BF00BF9B
:1058700078481AF0F5FA012C07D16D490889002300
:1058800004220121FBF7C0FF05E0002304220121CF
:105890001846FBF7B9FFF3225421664819F066FF5A
:1058A0006D490878FFF763FE38BD30B585B0044612
:1058B0000D466AA003C8CDE903016AA103C9CDE979
:1058C000010103A8005D40F21311484367490844F1
:1058D000372328225C2100904FF4BE70FBF7C3FCF5
:1058E00001A8405D40F21311484360490844372342
:1058F00028225C2100904FF4D270FBF7B4FC05B075
:1059000030BD30B585B004460D4654A003C8CDE97E
:10591000030154A103C9CDE9010103A8005D40F2D0
:1059200013114843514908443723282293210090FA
:105930004FF4BE70FBF797FC01A8405D40F21311D5
:1059400048434A49084437232822932100904FF4C2
:10595000D270FBF788FC05B030BD10B586B01421BD
:1059600001A816F05DFF424800680090002409E09D
:105970001DF804103F480EF0FDFB012002F07FF8F7
:10598000601CC4B2032CF3DB06B010BD38B504466E
:10599000234839494860394800EB84020123C82173
:1059A0001420FBF75FFE364800EB84020123C82178
:1059B0004FF48C70FBF756FE43F6AC102E4948604E
:1059C0003048372328227A2100905020FBF74BFCE7
:1059D0002D48372328227A2100907820FBF743FCBA
:1059E0002A48372328227A2100908C20FBF73BFCA1
:1059F00038BD70B504460D4604EB44001449C91E79
:105A000042180123C8218020FBF72CFE05EB45003E
:105A10001F4942180123C8218820FBF723FE70BDCF
:105A20003366CC00FFFF800080C30500E40F001048
:105A300030030010980F0010EC260200FB0000104D
:105A40006D41202000000000F6FF09006B2D0500CD
:105A5000A42E050020690500240100100C0F101170
:105A6000160E0D00121314020B17160099AF040046
:105A70001C33050000C00040240000102F1B05004F
:105A80008B1B05001EB7040061C9040074CA040022
:105A9000CE2E050070B504460D4604EB4400FE49C9
:105AA00042180023C8214FF4C270FBF7DBFD05EB61
:105AB0004500FA4942180023C8214FF4C670FBF78D
:105AC000D1FD70BD10B5002421E0012C01DD072CB3
:105AD00001DB082C04DD43F6AC10F149486002E01C
