:020000040000FA
:1000000050250010AD020000B5020000B70200004C
:10001000B9020000BB020000BD02000000000000A9
:10002000000000000000000000000000BF0200000F
:10003000C102000000000000C302000011720000B5
:10004000C7020000250800008D080000C908000054
:10005000DB0800009BFD0000C7020000C702000093
:10006000B3FD0000C7020000C7020000C702000085
:10007000C7020000C7020000C7020000C70200005C
:10008000C7020000C7020000C7020000C70200004C
:10009000C7020000C7020000C7020000C70200003C
:1000A00015260100C7020000C7020000C7020000B9
:1000B000C7020000C7020000C7020000C70200001C
:1000C000C7020000C7020000C7020000C70200000C
:1000D000C7020000C702000089060000C702000036
:1000E000C702000000F002F800F0B0F80AA090E8A3
:1000F000000C82448344AAF10107DA4501D100F0E3
:10010000A5F8AFF2090EBAE80F0013F0010F18BFFF
:10011000FB1A43F001031847B82C0400D82C040044
:100120000A444FF0000C10F8013B13F0070408BF1D
:1001300010F8014B1D1108BF10F8015B641E05D0BB
:1001400010F8016B641E01F8016BF9D113F0080F70
:100150001EBF10F8014BAD1C0C1B09D16D1E58BF02
:1001600001F801CBFAD505E014F8016B01F8016B39
:100170006D1EF9D59142D6D37047000000230024AC
:1001800000250026103A28BF78C1FBD8520728BFA7
:1001900030C148BF0B6070476E2919F0288770295D
:1001A0001AF09782662924F06581652924F062811E
:1001B000672924F05F81612924F05E8103681B0AAE
:1001C00028BF41F08001692919F08283642919F060
:1001D0007F83752919F07C836F291AF0248278298E
:1001E0001AF06382E9291AF0BF81E4291AF0BC8170
:1001F000F5291AF0B981EF291AF02182F8291AF0AD
:1002000062820368DB0928BF41F0800163291AF08C
:10021000408173291AF04581E3291AF01386F329E6
:100220001AF01886002070471FB519F055FE04001B
:100230000020002122F0E8FE401C60600020002128
:1002400022F0F8FEE0601FBD10B510BD1AF068FF87
:100250001146FFF7E9FF00F06DF91BF003FA03B454
:10026000FFF7F2FF03BC1BF007FA000070B505466C
:100270000C46A4F120000B4A02EB00111022284684
:1002800019F013FD70BDA1F1200202EB4202064BF2
:1002900003EB8202136803605368436092688260D4
:1002A000704700005D5D02004D6302000948804711
:1002B00009480047FEE7FEE7FEE7FEE7FEE7FEE748
:1002C000FEE7FEE7FEE7FEE704480549034A054B63
:1002D0007047000065E70000E5000000501D0010B9
:1002E00050250010501D001010B519F0F5FD001D2F
:1002F00010BD00BF152D02001AF0A5BAFFFFFFFFC9
:1003000040F20120824908608249C1F88401804995
:1003100008310860091D0860091D0860091D086092
:10032000091D0860091D0860091D0860091D086095
:10033000091D0860091D0860091D0860091D086085
:10034000091D0860091D0860714980310860091D98
:100350000860091D0860091D0860091D0860091D65
:100360000860091D0860091D0860091D0860091D55
:100370000860091D0860091D0860091D0860091D45
:100380000860091D08606249D4310860091D0860D1
:10039000091D08605E49443908605D49E431086020
:1003A000091F08605A49E831086059494039086016
:1003B000091D0860091D0860554930390860544915
:1003C00020390860524910390860091D08607047DB
:1003D0002DE9F04100BF00BF4F48006840F40060C5
:1003E0004D49C439C1F8C40041F61F704B4908603B
:1003F00001204B49086000208860FFF781FF4948D1
:1004000000684949B0FBF1F74348C438D0F800010F
:1004100000B17F084FF47A70B0FBF7F404F11300D9
:10042000B0FBF4F03E4908630F2048630020886366
:100430000120C86304F11300B0FBF4F0801C0864D1
:100440000120486404F13E00B0FBF4F0886404F13C
:100450003E00B0FBF4F0C8640F20086504F13E00D4
:10046000B0FBF4F0486501208865886240F20330F3
:100470002E4908604FF4D0602949C1F80001642179
:10048000012000F051F940F2831025490862C8218B
:10049000012000F049F940F20310214908620220CE
:1004A0004862002600E0761C802EFCD341F684656D
:1004B000A5F1100085B22D1105FB07F04FF47A71FC
:1004C000B0FBF1F085B216484562832014490862FA
:1004D00017480588002008621448001F006840F48F
:1004E0000020C1F800010121084600F01DF901219A
:1004F000084600F019F90948006820F01F0848F084
:1005000011000549C439C1F8DC01BDE8F0810000E3
:1005100080C1024000C00240C4C00F40DCC10F4097
:1005200000C009205401001040420F0004C10920FE
:10053000003003A000200EF0E6FB044600206949CD
:1005400008606948B4FBF0F0411EB1F1807F00D330
:100550001DE021F07F40401E4FF0E0225061501717
:100560001F22002807DAD3061E0E604B00F00F058D
:100570002D1F5E5503E0D3061D0E5D4B1D5400BFBD
:1005800000204FF0E02290610720106100BF0FF0C3
:100590008DFD0220574908600020574908805749BF
:1005A0000870574908703CE052480068801E1828BF
:1005B00035D2DFE800F00C3412150F303434183423
:1005C0001B3434342124272A2D34341E343107F0CF
:1005D0009FF825E007F0CEFB22E008F0FBF81FE0D3
:1005E00008F074F91CE00CF08EFF19E00AF09EF898
:1005F00016E00BF04EFB13E00AF04CF810E007F0A9
:1006000091F90DE007F0DEFA0AE007F047FB07E09A
:1006100009F0F8FC04E003E00BF0F4FA00E000BF9E
:1006200000BFC1E72DE9F041012136A011F0F0FB38
:100630000746002F25DD4FF47A62354801683846B9
:1006400011F0C6FC022133A011F0E2FB0446002C9D
:1006500011DD002500BF4FF47A622D480168204665
:1006600011F020FE064635442D488542F3D320463E
:1006700011F0AFFE01E0BDE8F081384611F0A9FEAF
:1006800000E0F8E700BFF6E710B5002206211046AB
:100690000EF0A3F930B10920224908604021002062
:1006A0000EF0C6F90022052110460EF096F930B181
:1006B0000C201C490860202100200EF0B9F980218F
:1006C00000200EF0B5F90122072100200EF085F977
:1006D00030B10E2013490860802100200EF0A8F9E7
:1006E00010BD0000A8000010A086010018ED00E079
:1006F00000E400E0FC000010F4000010F600001020
:10070000F70000104D53524541442E5458540000F8
:10071000D80100105A43353532302E545854000059
:100720008096980000010010F8B902224FF0402393
:100730005A600022DA60D44A12684FF47A73B2FB2E
:10074000F3F2521E4A434FF040239A61FF221A608F
:1007500004225A6101225A6000BF4FF040225268C1
:1007600002F00102002AF8D15BE001281CD102222C
:10077000C64B5A600022DA60C34A12684FF47A739B
:10078000B2FBF3F2521E4A43C04B9A61FF221A6039
:1007900004225A6101225A6000BFBC4A526802F02A
:1007A0000102002AF9D13CE002281CD10222B84BF8
:1007B0005A600022DA60B44A12684FF47A73B2FBCE
:1007C000F3F2521E4A43B24B9A61FF221A6004228E
:1007D0005A6101225A6000BFAD4A526802F001021C
:1007E000002AF9D11DE003281BD10222A94B5A602F
:1007F0000022DA60A44A12684FF47A73B2FBF3F273
:10080000521E4A43A34B9A61FF221A6004225A6186
:1008100001225A6000BF9F4A526802F00102002A7A
:10082000F9D1704701214FF0402211609A490968BF
:10083000062913D199490978491C984A1170114623
:100840000978092910DD002111700121944A1170E5
:1008500094490989491C934A118105E08F49097817
:1008600011B100218D4A117000200CE08E4951F821
:10087000201031B18C4951F82010491E8A4A42F8A3
:100880002010411CC8B20528F0DB704710B50120CC
:100890007E49086085480078401C844908707E487D
:1008A000006806280FD1084600780A2802D106F011
:1008B0003CFD08E07D480078142804DB00207B49DB
:1008C000087006F038FD10BD0120714908607848B5
:1008D0000068401C76490860704701206D49086037
:1008E00074480068401C73490860704720B90121B2
:1008F0004FF04022516010E0012803D10121634AEA
:1009000051600AE0022803D10121614A516004E0EC
:10091000032802D101215F4A5160704720B90021AC
:100920004FF04022516010E0012803D10021574AC6
:1009300051600AE0022803D10021554A516004E0C9
:10094000032802D10021524A51607047014631B953
:100950004FF04022506840F00200506016E001293C
:1009600005D14A4A506840F0020050600EE002296A
:1009700005D1474A506840F00200506006E0032964
:1009800004D1444A506840F002005060704770B58E
:1009900005460C46F5B900204749086047480068FD
:1009A00040F002004549C439C1F8C4004FF040206E
:1009B000406840F002004FF0402148604EF65F2052
:1009C000C8600846846103204861012000F050F8A7
:1009D000012070BD012D1CD1002039490860374825
:1009E000006840F004003549C439C1F8C400274804
:1009F000406840F00200254948604EF65F20C8601C
:100A00000846846103204861022000F031F801208B
:100A1000DFE7022D13D10020254908602748006830
:100A200040F480002549C439C1F8C40018488461E5
:100A300003201749486100F01BF80120C9E7032D86
:100A400014D100201B4908601C48006840F40000D5
:100A50001A49C439C1F8C4000E48846103200D4905
:100A60004861042000F004F80120B2E70020B0E75C
:100A700000F01F02012191404209920002F1E022A0
:100A8000C2F80011704700005801001000800040BB
:100A90000000094000400940FC0000101000001058
:100AA000D600001010030010980B00101100001069
:100AB000080000100C00001000000010C4C00F401F
:100AC0000400001008B5B0B1F949896941F001018D
:100AD000F74A916142F21071009108E0F449896986
:100AE00041F40061F24A91610099491E0091009918
:100AF0000029F3D115E0EE49896921F40061EC4A3F
:100B0000916142F21071009102E00099491E00913A
:100B100000990029F9D1E649896921F00101E44AE7
:100B2000916108BDE34A002102E008C808C2491CDF
:100B30008029FAD3704750B506460C4600BF2720DF
:100B4000DD490860DD49C1F81801DD490860091D6B
:100B50000860091D0860DA494C390860091D086001
:100B6000091D0860091D0860091D0860091D08604D
:100B7000D34918310860D24934390860091D08602A
:100B8000091D0860091D0860CD4914390860CC4969
:100B900008390860CA4910390860C849C1F810010D
:100BA000C848006A40F00200C64908620846806BE7
:100BB00040F0040088630846006840F002000860C6
:100BC0000846806940F02A008861BF48D0F8C40018
:100BD00040F00100BC49C1F8C400BC48006820F0E6
:100BE0000100BA4908600020B1498861084680695F
:100BF00020F00E0088610846806940F00C00886192
:100C00000846806940F0200088610846806920F02D
:100C1000800088610846806920F4807088610846F9
:100C2000806920F4007088610846806920F4806043
:100C300088610846806920F400608861A4480068E3
:100C4000A449B0FBF1F0A049C1F8B8019848806808
:100C500040F08060964988600846806820F0200057
:100C600088600846806840F40060886008468068B4
:100C700040F4805088600846806820F40050886006
:100C80000846806820F48040886008468068924961
:100C9000084087498860084680689049084384492D
:100CA0008860002008600846006840F01C5008601A
:100CB0000846006840F4802008600846006840F458
:100CC000807008600846006840F0740008600020EA
:100CD00048600846406840F0006048600846406848
:100CE00040F4002048600846406840F48060486056
:100CF0000846406840F20F1108436D494860784843
:100D00000861486114B12046FFF70CFF50BD744ADA
:100D1000002102E022F8020B491CB1F5FF3FF9D394
:100D2000704730B56E4BB0F5F07F02DAB1F5887FD1
:100D300000DB30BDC1EB011500EB451403EB4403B0
:100D40001A8000BFF5E72DE9F04F04460D469146A5
:100D50009A46DDF824B04C4503DD0FFA89F7A14629
:100D6000BCB2554503DD0FFA8AF7AA46BDB2A9EB1E
:100D700004000FFA80F8AAEB050006B2B8F1000FE4
:100D80000BD100BF5A4629462046FFF7CAFF681C10
:100D900085B2AA45F6DABDE8F08F56B900BF5A46CB
:100DA00029462046FFF7BDFF601C84B2A145F6DA54
:100DB000F1E7B04521DDC8EB460007B215E05A4621
:100DC00029462046FFF7ADFF601C84B2002F08DDE6
:100DD000681C85B27000022101FB1800384407B27C
:100DE00003E0022000FB067007B24C45E7D15A46EB
:100DF00029462046FFF795FF20E0C6EB480007B2E2
:100E000015E05A4629462046FFF78BFF681C85B23D
:100E1000002F08DD601C84B27000022101FB180065
:100E2000384407B203E0022000FB067007B25545C4
:100E3000E7D15A4629462046FFF773FF00BFAAE7CD
:100E40002DE9F84105460E4617469846079CA0B284
:100E500033463A46314600902846FFF774FFA0B269
:100E600043463A46414600902846FFF76CFFA0B241
:100E700043462A46314600902846FFF764FFA0B259
:100E800043463A46314600903846FFF75CFFBDE8DE
:100E9000F8812DE9F0411C46069FC1EB011CDFF8EB
:100EA000408008EB8C1C0CEB400300262AE000007D
:100EB000008008200082082074C2024000C0024066
:100EC0001CC102400080092000C00F40008C082097
:100ED000580100109C997400FFFF00FC0000DF0126
:100EE000000001A0002502E023F8027B6D1CA2EBAC
:100EF000000CAC45F8D8A2EB000CCCF5F07C03EB71
:100F00004C03761CA4EB010CB445EBD8BDE8F08192
:100F10002DE9F04704460D461746784200214FEA76
:100F20004708C8F10202F94E00BFA4EB000805EB28
:100F300001094FF4F07A0AFB098846F8283004EBDF
:100F4000000805EB01090AFB098846F8283004EB84
:100F50000008A5EB01090AFB098846F82830A4EB34
:100F60000008A5EB01090AFB098846F828309446D9
:100F70008C450DDC01F1010841464FF0010909EBF8
:100F800048084244C84203D1844501DC4FF0000CBC
:100F9000844507DD00F1010840464FF0010909EBE7
:100FA000480842440028C0DDBDE8F08770B505461A
:100FB0000E461446A2B231462846FFF7B2FE70BD77
:100FC0002DE9FF5F06460F4690469946DDF838B09A
:100FD00041466846FFF74AF900241DE01DF804A0C9
:100FE000002516E0C5F107004AFA00F000F0010004
:100FF00038B13A1991B2721990B24A46FFF791FE90
:1010000006E03A1991B2721990B25A46FFF789FE7A
:101010006D1C082DE6D3641C102CDFD3BDE8FF9FA8
:101020002DE9FE4F06460F4690469946DDF830B052
:1010300041466846FFF727F9002415E01DF804A093
:1010400000250EE0C5F107004AFA00F000F00100AB
:1010500030B13A1991B2721990B24A46FFF761FE67
:101060006D1C082DEED3641C0C2CE7D3BDE8FE8F5D
:101070002DE9F84305460E4614469846DDF82090C3
:1010800000BF14F8017B43463A4631462846CDF866
:101090000090FFF795FFB5F5EC7F03DA05F1080046
:1010A00085B208E0FF2E04DC002506F1100086B2B0
:1010B00001E00025002620780028E2D1BDE8F88371
:1010C0002DE9FF4F074688469B463C464546BA46B3
:1010D00046464FF0000915E0A4F1140188B22946F4
:1010E000029AFFF71EFE601C84B2A6F1140081B2C2
:1010F0005046029AFFF715FE701C86B209F10100F6
:101100001FFA80F9B9F1280FE6DB3C464546BA469E
:1011100046464FF000092BE0A5F1140291B2A4F16C
:10112000140290B25A46FFF7FCFD05F1140291B289
:10113000A4F1140290B25A46FFF7F3FD601C84B28A
:10114000A6F1140291B2AAF1140290B25A46FFF726
:10115000E8FDA6F1140291B20AF1140290B25A46C7
:10116000FFF7DFFD701C86B209F101001FFA80F95C
:10117000B9F10A0FD0DB3C464546BA4646464FF029
:1011800000092BE0A5F1140291B204F10A0290B219
:101190005A46FFF7C6FD05F1140291B204F10A02A6
:1011A00090B25A46FFF7BDFD601C84B206F10A02F8
:1011B00091B2AAF1140290B25A46FFF7B2FD06F1BD
:1011C0000A0291B20AF1140290B25A46FFF7A9FD41
:1011D000701C86B209F101001FFA80F9B9F10A0FFB
:1011E000D0DBBDE8FF8F10B50246002112E001EB15
:1011F0008110474B185C1378984209D1507801EB65
:101200008113434C23445B78984201D1084610BDBA
:10121000481C81B20029EAD00020F8E710B5024648
:10122000002114E001EB01103A4B13F81000137881
:1012300098420AD1507801EB0113364C04EB43037A
:101240005B78984201D1084610BD481C81B2B22992
:10125000E8D30020F8E72DE9F04F04460F46154685
:101260009846A3464FF0000900262FE0099810F891
:1012700006904FF0000A23E009F0800038B12648BC
:10128000008882B239462046FFF74BFD06E022482F
:10129000808882B239462046FFF743FD4FEA496015
:1012A0004FEA1069601C84B2A4EB0B00A84203D182
:1012B0005C46781C87B206E00AF1010000F0FF0AE4
:1012C000BAF1080FD8DB00BF701C86B205FB08F02E
:1012D000C11700EB5171B6EBE10FC7DBBDE8F08F32
:1012E0002DE9F04F0546894692469B46A8460026C2
:1012F000BBF1000F3CD1002437E00AEB0A1005498E
:1013000001EB4000801C065D002729E0000001A0E1
:1013100078450200B94502001400001006F0800074
:1013200038B1FD48008882B249462846FFF7F9FCEB
:1013300006E0F948808882B249462846FFF7F1FC6A
:101340007006060E681C85B2A5EB0800102805D1B2
:10135000454609F101001FFA80F903E0781CC7B285
:10136000082FDBDB00BF601CC4B2202CC5DB33E0E0
:1013700000242FE00AEB0A10E84901EB4000801C32
:10138000065D002721E006F0800038B1E248808841
:1013900082B249462846FFF7C4FC06E0DE480088D2
:1013A00082B249462846FFF7BCFC7006060E681C50
:1013B00085B2A5EB0800102805D1454609F10100CA
:1013C0001FFA80F903E0781CC7B2082FDBDB00BFEF
:1013D000601CC4B2202CCDDBBDE8F08F2DE9F04FAE
:1013E0000546894692469B46A8460026BBF1000F5B
:1013F00033D100242EE00AEB8A10C9490844801C2E
:10140000065D002721E006F0800038B1C248008860
:1014100082B249462846FFF784FC06E0BE48808831
:1014200082B249462846FFF77CFC7006060E681C0F
:1014300085B2A5EB0800182805D1454609F1010041
:101440001FFA80F903E0781CC7B2082FDBDB00BF6E
:10145000601CC4B23F2CCEDB32E000242EE00AEB4D
:101460008A10AF490844801C065D002721E006F081
:10147000800038B1A848808882B249462846FFF7E4
:1014800050FC06E0A448008882B249462846FFF78F
:1014900048FC7006060E681C85B2A5EB08001828EB
:1014A00005D1454609F101001FFA80F903E0781CD7
:1014B000C7B2082FDBDB00BF601CC4B23F2CCEDB01
:1014C000BDE8F08FF0B504460D4616461F463B4674
:1014D000224631462846FFF781FF1820F0BDF0B5BF
:1014E00004460D4616461F463B46224631462846D0
:1014F000FFF7F6FE1220F0BD2DE9F84306460D4633
:1015000014461F464FF00008C14654E0207800B949
:1015100052E006EB090086B2207880281ADD06F139
:101520001800B0F5F07F07DD002605F1160085B242
:10153000B5F5887F00DD00252046FFF754FE1FFA31
:1015400080F83B462A4631464046FFF7BBFF8146BE
:10155000A41C2FE020780D280AD105F1160085B2D1
:10156000B5F5887F00DD0025641C4FF0000922E0FE
:1015700020780A2804D10026641C4FF000091AE0E4
:1015800006F10C00B0F5F07F07DD002605F10C0038
:1015900085B2B5F5887F00DD00255F48808880B280
:1015A00000905D48008883B2227829463046FFF7D4
:1015B00007FD641C00BFA9E700BFBDE8F8832DE963
:1015C000F84305468846144600263FE0207800B9D7
:1015D0003DE02078302807DB2078392804DC2078AB
:1015E00030381FFA80F919E020782E2802D14FF008
:1015F0000A0913E020782D2802D14FF00B090DE0E5
:101600002078202802D14FF00C0907E020785628D6
:1016100002D14FF00D0901E04FF00E094FEA4917D2
:10162000F81707EB5070C01000EBC001C1EB801041
:101630003C490844A919009088B23723202241462A
:10164000FFF709FE641C06F1200086B2BEE700BF6A
:10165000BDE8F8832DE9F84306460D4614461F46BB
:101660004FF00008C14656E0207800B95CE006EB78
:10167000090086B2207880281ADD06F11000B0F546
:10168000F07F07DD002605F1100085B2B5F5887FF3
:1016900000DD00252046FFF7C1FD1FFA80F83B461C
:1016A0002A4631464046FFF71AFF8146A41C31E026
:1016B00020780D280AD105F1100085B2B5F5887F94
:1016C00000DD0025641C4FF0000924E020780A2882
:1016D00004D10026641C4FF000091CE006F108004C
:1016E000B0F5F07F07DD002605F1100085B2B5F5F5
:1016F000887F00DD00250848808880B20090064879
:10170000008883B2227829463046FFF759FC641CD2
:101710004FF00A0900BFA7E714000010B945020006
:10172000784502006D7E020000BFBDE8F8832DE918
:10173000F84306460D4614461F464FF00008C146C2
:1017400056E0207800B954E006EB090086B2207814
:1017500080281ADD06F11000B0F5F07F07DD0026C5
:1017600005F1100085B2B5F5887F00DD0025204623
:10177000FFF754FD1FFA80F83B462A4631464046A3
:10178000FFF7ADFE8146A41C31E020780D280AD178
:1017900005F1100085B2B5F5887F00DD0025641CD9
:1017A0004FF0000924E020780A2804D10026641CA8
:1017B0004FF000091CE006F10800B0F5F07F07DDEE
:1017C000002605F1080085B2B5F5887F00DD00250B
:1017D0005248808880B200905048008883B22278B6
:1017E00029463046FFF71CFC641C4FF0080900BF77
:1017F000A7E700BFBDE8F883F0B504461D46062AFA
:1018000000DD0A2202B90122052900DD05219142ED
:1018100000DD1146002004E02026414F3E54461CC6
:10182000F0B20C28F8D310460FE00A26B4FBF6F706
:1018300006FB17463036471EDFF8E4C00CF8076099
:101840000A26B4FBF6F4461EF0B20028EDDC89B19E
:101850001346084605E05E1E314FBE5DFE545E1E17
:10186000F3B2061EA0F10107F8B2F4D12E262C4FD8
:10187000FE5402E020262A4FBE54A5B900200EE0F7
:10188000274E365C302E07D1254F461CBE5D2E2ECE
:1018900002D020263E5400E004E0461CF0B2561E62
:1018A0008642EDDC00BF561CF2B2104604E0002672
:1018B0001B4F3E54461CF0B20C28F8D3F0BD30B597
:1018C000184A00210BE08478457844EA052405781D
:1018D00044EA054308C2401C401C401C491CB1F5A9
:1018E000FF3FF0D330BD70B50E4B002112E0002257
:1018F0000CE005782D04467845EA0625867845EA09
:10190000060410C3401C401C401C521CB2F5F07F62
:10191000EFD3491CB1F5887FE9D370BD14000010E6
:10192000740F0010000001A03EB5054642F6692084
:101930001CF085F800241DE0F74841000322CDE9A2
:1019400000210290601C00EB4000042202EB00101A
:10195000062202FB040304EB4400042202EB001005
:10196000062202FB04014FF4EE724FF4BE701BF02E
:101970003BFD641C052CDFD33EBD10B542F669204B
:10198000E64948604FF6FF7008600023E4A2F121A9
:101990005420FFF75FFE0023E3A2F121A420FFF70C
:1019A00059FE10BD70B5054642F66920DB49486016
:1019B0004FF6FF700860A5B900240FE004EB440166
:1019C000DB4B03EB410204EB8401542303EB0110D6
:1019D0000023F121FFF73EFE601CC4B2052CEDDBB5
:1019E00014E0002410E0611D01EB4101D04B03EB3A
:1019F000410204EB8401542303EB01100023F12185
:101A0000FFF728FE601CC4B2052CECDB70BD10B5DE
:101A100042F66920C14948604FF6FF700860002314
:101A2000C4A2F1215420FFF715FE10BD10B542F6F7
:101A30006920BA4948604FF6FF7008600023C0A2D1
:101A4000F1215420FFF706FE10BD10B50446002C0E
:101A500039D14FF6FF70B149086042F669204860FD
:101A60000023B8A2E7215420FFF7F4FD0023B7A21A
:101A7000FB215420FFF7EEFD0023B2A2E721A420B2
:101A8000FFF7E8FD0023B3A2FB21A420FFF7E2FD4E
:101A90000023B2A2E721F420FFF7DCFD0023ADA272
:101AA000FB21F420FFF7D6FD0023ACA2E7214FF481
:101AB000A270FFF7CFFD0023AAA2FB214FF4A27072
:101AC000FFF7C8FD2EE0012C2CD14FF6FF70934993
:101AD000086042F6692048600023A4A2E721542050
:101AE000FFF7B8FD0023A3A2FB215420FFF7B2FDAE
:101AF0000023A2A2E721A420FFF7ACFD0023A1A2AE
:101B0000FB21A420FFF7A6FD0023A0A2E7214FF4AC
:101B1000CA70FFF79FFD00239EA2FB214FF4CA70FD
:101B2000FFF798FD10BD10B54FF6FF707B490860B8
:101B300042F669204860002398A2E7215420FFF76D
:101B400089FD002397A2FB215420FFF783FD00238A
:101B500096A2F1214FF4A270FFF77CFD002396A21C
:101B6000F1214FF4CA70FFF775FD10BD10B50446A2
:101B70000CB1012C33D14FF6FF706849086042F672
:101B80006920486000238FA2F1215420FFF762FDF5
:101B900000238FA2E721A420FFF75CFD00238EA283
:101BA000FB21A420FFF756FD00238DA2E721F4209E
:101BB000FFF750FD002388A2FB21F420FFF74AFD28
:101BC00000237AA2F1214FF4A270FFF743FD002316
:101BD00079A2F1214FF4CA70FFF73CFD26E04FF6E1
:101BE000FF704E49086042F669204860002375A2E4
:101BF000F1215420FFF72EFD002377A2E721A42036
:101C0000FFF728FD002378A2FB21A420FFF722FD87
:101C1000002366A2F1214FF4A270FFF71BFD002301
:101C200065A2F1214FF4CA70FFF714FD10BD10B585
:101C30000446002C39D14FF6FF703849086042F64F
:101C40006920486000233FA2E7215420FFF702FDEE
:101C500000233EA2FB215420FFF7FCFC002339A205
:101C6000E721A420FFF7F6FC00233AA2FB21A420E1
:101C7000FFF7F0FC002339A2E721F420FFF7EAFC8C
:101C8000002334A2FB21F420FFF7E4FC002333A25D
:101C9000E7214FF4A270FFF7DDFC002331A2FB2106
:101CA0004FF4A270FFF7D6FC34E0012C32D14FF68E
:101CB000FF701A49086042F66920486000232BA291
:101CC000E7215420FFF7C6FC00232AA2FB21542061
:101CD000FFF7C0FC002321A2E721A420FFF7BAFCF4
:101CE00000231CA2FB21A420FFF7B4FC002340A288
:101CF000F121F420FFF7AEFC002324A2E7214FF4EA
:101D0000CA70FFF7A7FC002322A2FB214FF4CA7080
:101D1000FFF7A0FC10BD0000404040001400001080
:101D2000206DCEA92020000020CEA92000000000B8
:101D3000EF07030020E7A1AEE8AEA42000000000FA
:101D40002A310000E6B58BE9878F0000E698BEE7F0
:101D5000A4BA0000E8AEBEE7BDAE0000E7B3BBE743
:101D6000BB9F0000E4BFA1E681AF0000E69687E4D8
:101D7000BBB60000E7AEA1E790860000E4BF9DE59A
:101D8000AD980000E695B0E68DAE0000E69BB4E5A8
:101D9000A49A000020322F3200000000E6B885E946
:101DA00099A40000E8A1A8E6A0BC0000E4B88AE479
:101DB000B880E9A1B5000000E4B88BE4B880E9A1DF
:101DC000B5000000E588A0E999A4E8A18C00000016
:101DD000E7BABFE680A70000E887AAE58AA8000066
:101DE000E5AFB9E695B00000E5A48DE588B6000042
:101DF000E5B7A5E585B7000010B54FF6FF70FC49C3
:101E0000086042F6692048600023AFF2C802E7216B
:101E10005420FFF71FFC0023AFF2D002FB21542017
:101E2000FFF718FC0023AFF2E402E721A420FFF73C
:101E300011FC0023AFF2E402FB21A420FFF70AFC0F
:101E40000023AFF2E802E721F420FFF703FC0023B0
:101E5000AFF20012FB21F420FFF7FCFB0023AFF2EE
:101E60000412E7214FF4A270FFF7F4FB0023AFF256
:101E70000C12FB214FF4A270FFF7ECFB10BD38B53C
:101E800004460020182340F2E11201460090FFF7BB
:101E900000F80020D64948604FF6FF700860002324
:101EA000D4A203210420FFF7D5FB38BD08B543F6C3
:101EB000AC101BF0C4FD0520FD234FF4BA725C2169
:101EC000009004201BF05EFB08BD10B504464AF2EA
:101ED000FF501BF0B4FDC9481BF0C2FD1823C022FF
:101EE000002108461BF022FB00201BF0A8FD022069
:101EF0001BF0F4FDC24901EB0410042200211BF089
:101F000035FA10BD10B50020FFF7DFFFFFF7CEFF59
:101F100010BD7CB5054600201BF0E0FD42F66920AF
:101F20001BF082FD6FF07F401BF089FD00242EE046
:101F30004FF4BE70ADF8000004EB4400042101EB47
:101F40000010062101FB040000B2ADF802004FF4BE
:101F5000EE70ADF80400601C00EB4000042101EBC2
:101F60000010062101FB040000B2ADF80600C4EB2E
:101F7000C401A44A02EB8101A34A1278C2EBC20257
:101F800001EB42000E2269461BF004FA641C052C8A
:101F9000CED37CBD10B5FFF7B5FF0020FFF7C4FC22
:101FA0000020FFF7B6FF00241FE0032C0ED2974855
:101FB00000EB0412601C00EB40001A2303EBC0008E
:101FC00081B200230420FFF745FB0DE08F4800EBB2
:101FD0000412A01E00EB40001A2303EBC00081B2E4
:101FE0000023B820FFF736FB641C062CDDD310BDA0
:101FF00008B543F6AC10BE2340F2DF12702100900A
:102000000020FEF746FF08BD10B50020FFF737FFA0
:10201000FFF7EEFF10BD08B543F6AC10A02340F269
:10202000DF12562100900020FEF733FF43F6AC107C
:10203000E32340F2DF12C12100900020FEF729FFC8
:1020400008BD10B50020FFF71AFFFFF7E4FF10BD31
:1020500008B543F6AC10A02340F2DF1260210090D7
:102060000020FEF716FF08BD10B50020FFF707FFA0
:10207000FFF7EEFF10BD10B5FFF7F6FF4FF6FF704C
:102080005B49086040F23F2048600023604A042119
:102090001846FFF7DFFA4FF6FF70554908604FF416
:1020A0000000486000235BA21A210420FFF7D2FA47
:1020B00000235BA232212C20FFF7CCFA00235BA285
:1020C00032219020FFF7C6FA00235BA23221F420D0
:1020D000FFF7C0FA00235AA232214FF4AC70FFF789
:1020E000B9FA002358A232214FF4DE70FFF7B2FA9A
:1020F0000020FFF7AAFC10BD704700B5FFF7FCFFFA
:1021000000BD10B50120FFF70FFC0520FFF7DDFE35
:102110004FF6FF701BF093FC4FF400001BF084FCA3
:10212000002422E0042C0FD2484901EB4411364B25
:102130001B7801EB031004EB4401C90001F11A0202
:1021400004211BF013F90FE0404901EB44112E4B21
:102150001B7801EB0310211F01EB4101C90001F1C4
:102160001A02B8211BF002F9641C072CDAD310BD47
:1021700070B50120FFF7D8FB0120FFF7A6FE4FF650
:10218000FF701BF05CFC4FF400001BF04DFC30486E
:10219000807800EB80012E48001D50F831002D4959
:1021A0000D5C00247CE004F0010000BB2849897824
:1021B00001EB81032649091D51F833104D23594382
:1021C000254B03EB8101C4EBC40301EB83010E4BF0
:1021D0001B78C3EBC30301EB4300610801EB410132
:1021E000C90001F11A0204211BF0C0F857E035E0E4
:1021F000140000105A4374656B000000584F030030
:102200001F0203009301030084110010A4F30200D5
:10221000D1020300E696B9E5BC8F203A0000000029
:10222000E9A291E78E875B487A5D0000E794B5E507
:10223000B9B35B565D00000043705B465D00000073
:10224000445B205D00000000434D50001FAE0200C3
:10225000C00F001070AD02007BB40200FE49897807
:1022600001EB8103FC49091D51F833104D235943FB
:10227000FA4B03EB8101C4EBC40301EB8301F84B80
:102280001B78C3EBC30301EB4300611E01EB41016B
:10229000C9001A2303EB5102B8211BF067F8641C34
:1022A000AC4280D370BD2DE9F8430446204621F0AE
:1022B000CDF905460022EB4B21F05CFB0AD2EA4C3B
:1022C00041F29C30ADF8000002208DF802008DF83C
:1022D00003007EE0204621F0B9F905460022E34BD9
:1022E00021F048FB14D8204621F0B0F90546002221
:1022F000DF4B20F0A3FF074621F064F980B2ADF870
:10230000000002208DF8020003208DF8030060E039
:10231000204621F09BF905460022D64B21F02AFBEE
:1023200014D8204621F092F905460022D24B20F025
:1023300085FF074621F046F980B2ADF80000012084
:102340008DF8020002208DF8030042E0204621F0C3
:102350007DF905460022C94B21F00CFB13D820461D
:1023600021F074F905460022C54B20F067FF0746AF
:1023700021F028F980B2ADF8000002208DF80200AB
:102380008DF8030025E0204621F060F90546002283
:10239000B74B21F0EFFA14D8204621F057F9054643
:1023A0000022B84B20F04AFF074621F00BF980B21B
:1023B000ADF8000003208DF8020002208DF8030024
:1023C00007E0A0B2ADF8000001208DF802008DF802
:1023D00003000098BDE8F88338B50446AA481BF00E
:1023E0002EFB4FF400001BF01FFBA8481BF038FB2E
:1023F00000201BF073FBA649002304220868032178
:10240000FFF7FAF9A3A1A44817F043FC04EB8400FA
:10241000800000F1280250219F481AF0A7FF9F4832
:1024200000684FF6FF71884206D19B489CA10A685C
:102430000260898881801CE098480068FFF733FFBC
:102440000090994800990160834A927802EB8203D8
:10245000814A121D52F83320C2EBC202934B1A4438
:10246000934B1B78D15C0246108800230422FFF7AF
:10247000C3F99048008802280AD18B48C07800EB45
:1024800040008D4A02EB4001834817F002FC0AE04D
:102490008848008818B187480088012803D187A19F
:1024A0007D4817F0F6FB04EB8400800000F1280261
:1024B000A02179481AF05AFF75490889002304229F
:1024C0000121FFF799F97EA1734817F0E2FBDC22A6
:1024D000542171481AF04AFF38BD2DE9F8430446EB
:1024E000204621F0B3F805460022644B21F042FA61
:1024F00013D8204621F0AAF805460022604B20F0B0
:102500009DFE074621F05EF880B2ADF80000022083
:102510008DF802008DF8030025E0204621F096F8A2
:1025200005460022674B21F025FA13D8204621F0FA
:102530008DF805460022534B20F080FE074621F01F
:1025400041F880B2ADF8000002208DF802008DF84D
:10255000030008E0A0B2ADF8000003208DF80200EF
:1025600001208DF803000098BDE8F88338B50120FC
:10257000FFF7DAF90620FFF7A8FC6FF07F401BF0A9
:102580005EFA42481BF06CFA00240FE04E4A02EB60
:102590004412334B1B7802EB031004EB84026423D8
:1025A00003EB021128221AF0E1FE641C032CEDD388
:1025B00046481BF055FA00241EE0601C00EB80002A
:1025C0008000283002B202231421601C1AF026FE7B
:1025D000611C01EB8101890001F12802611C01EB02
:1025E00081031D49091D51F83310394B03EBC1001C
:1025F00032211AF0BBFE641C17484078A042DCD898
:1026000021481BF01CFA21481BF02AFA0024A3E001
:10261000611C01EB81021049091D01EBC20100237D
:10262000042248680321FFF7E7F81AA11A4817F0B7
:1026300030FB601C00EB8000800000F1280250217C
:1026400015481AF093FE611C01EB81020249091D35
:1026500001EBC20188683DE0C00F00107BB40200AE
:102660008411001084D7874180F0FA02D0126341B0
:102670000088C34080842E4100408F40006AF840AB
:102680000000594000002440FFFF8000584F030025
:10269000100300106B560000740F0010C4000010EF
:1026A00055505045520000001C0000106C090300FA
:1026B000D7000010300F0010FB0603006D41200012
:1026C0002073000000409F40BFAD0200640404007E
:1026D0000FEC0200FFF701FF00909DF80210BDF81B
:1026E000000000230422FFF787F8601C00EB800144
:1026F000FE4850F8310038B1601C00EB8001FB4807
:1027000050F83100012804D1F949FA4817F0C1FA0C
:1027100012E0601C00EB8001F44850F83100022800
:102720000AD19DF80300F24A103A02EB001000F1C2
:102730000801F04817F0ADFA601C00EB8000800043
:1027400000F12802A021EB481AF010FE6422114685
:10275000EA201AF04FFD641CE448001F4078A042B4
:102760003FF656AFE4481BF07BF938BD2DE9F8433E
:102770000446204620F06AFF05460022DF4B21F088
:10278000F9F80BD2DE4C41F29C30ADF8000002208B
:102790008DF8020001208DF8030080E0204620F033
:1027A00055FF05460022D74B21F0E4F814D8204607
:1027B00020F04CFF05460022D34B20F03FFD07469A
:1027C00020F000FF80B2ADF8000002208DF802007A
:1027D00001208DF8030062E0204620F037FF054617
:1027E0000022CA4B21F0C6F814D8204620F02EFF54
:1027F00005460022C64B20F021FD074620F0E2FEF0
:1028000080B2ADF8000003208DF8020001208DF8A1
:10281000030044E0204620F019FF05460022BD4B8E
:1028200021F0A8F814D8204620F010FF0546002219
:10283000B94B20F003FD074620F0C4FE80B2ADF88E
:10284000000001208DF8020000208DF8030026E032
:10285000204620F0FBFE05460022AB4B21F08AF813
:1028600014D8204620F0F2FE05460022AB4B20F0A3
:10287000E5FC074620F0A6FE80B2ADF8000002207D
:102880008DF8020000208DF8030008E0A0B2ADF83A
:10289000000003208DF8020000208DF8030000984E
:1028A000BDE8F88338B50120FFF73EF80020FFF7B8
:1028B0000CFB6FF07F401BF0C2F84FF400001BF0E0
:1028C000B3F8002446E004F0010008BB8749091F63
:1028D000897801EB8103854951F833104D23594321
:1028E0008F4B03EB8101C4EBC40301EB83018D4BE0
:1028F0001B78C3EBC30301EB4300611C490801EBE8
:102900004101C90001F11A0204211AF02FFD20E053
:102910007649091F897801EB8103744951F8331016
:102920004D2359437E4B03EB8101C4EBC40301EB00
:1029300083017C4B1B78C3EBC30301EB4300611E97
:10294000490801EB4101C90001F11A02B8211AF04E
:102950000DFD641C0B2CB6D36FF07F401BF06FF89D
:102960006248001F437882786FA1624816F02EFFFC
:102970001A2264215F481AF0F9FC5C49091F897822
:1029800001EB8102594951F83210694A02EBC1004A
:102990001A224FF48C711AF0E9FC5448001F807819
:1029A00000EB8001514850F83100052878D2DFE86B
:1029B00000F003FEFDFCFB004C49091F897801EB88
:1029C00081024A4901EBC201002304224868032125
:1029D000FEF712FFAFF24431464817F05AF932229F
:1029E000642144481AF0C2FC4048001F807800EB84
:1029F00080013E4800EBC100C068B8B13B49091FE7
:102A0000897801EB8102394901EBC20100230422DC
:102A1000C8680121FEF7F0FE46A1364817F039F9E3
:102A20004A22642133481AF0A1FC08E03D490978A4
:102A3000414A02EBC1004A2264211AF097FC39484E
:102A4000C08B70B32948001F807800EB80012748B5
:102A500000EBC1008069C8B12448001F807800EBFA
:102A60008001224800EBC100806909280ED81F4967
:102A7000091F897801EB81021C4901EBC201012386
:102A80006222886964211AF0C9FB64E0254909784B
:102A90002A4A02EBC100622264211AF067FC5AE064
:102AA000ABE3FFE71148001F807800EB80010F487F
:102AB00000EBC1008069B8B10C49091F897801EBAE
:102AC00081020A4901EBC201002304228869022124
:102AD000FEF792FE1AA1074817F0DBF86222642184
:102AE00004481AF043FC36E02CE00000C40F00104C
:102AF00067EC0200740F0010584F030084D7874121
:102B000080F0FA02D01263410088C34080842E41D5
:102B100000408F40006AF840000059400000244007
:102B20007FBA02008411001025642F256400000084
:102B30000FEC020073000000FFEB02000FEB02003D
:102B40006D410000FE490978FE4A02EBC100622295
:102B500064211AF00BFCFC49897801EB8102FA49E7
:102B6000091D01EBC2018868FFF7B7FC00909DF8D2
:102B70000210BDF8000000230422FEF73DFEF349D9
:102B8000F34817F086F832224FF48C71F0481AF0AF
:102B9000EDFBED48807800EB8001EB48001D00EB79
:102BA000C100006918B303E026E384E296E15BE02C
:102BB000E549897801EB8102E349091D01EBC20176
:102BC0000869FFF78AFC00909DF80210BDF800002C
:102BD00000230422FEF710FEDC49DD4817F059F807
:102BE0004A224FF48C71DA481AF0C0FB09E0D4494C
:102BF0000978D44A02EBC1004A224FF48C711AF0D2
:102C0000B5FB4FF6FF701AF01AFF4FF400001AF0F0
:102C10000BFF00201AF062FFCE481AF021FF782245
:102C20002821CDA01AF0A2FB7822F021AFF29C500F
:102C30001AF09CFBAA222821C8A01AF097FBAA220E
:102C4000F021AFF204101AF091FBC5481AF008FF0A
:102C5000DC223421C3A01AF089FBDC22B421AFF2BC
:102C60002C101AF083FBC9E2B749897801EB810285
:102C7000B549091D01EBC201002304224868032164
:102C8000FEF7BAFDAFF2F451B14817F002F8322264
:102C90006421AF481AF06AFBAB48807800EB8001F2
:102CA000A948001D00EBC100C068C0B1A6498978E1
:102CB00001EB8102A449091D01EBC201002304229A
:102CC000C8680121FEF798FDAFF29811A04816F0F0
:102CD000E0FF4A2264219E481AF048FB08E0984928
:102CE0000978A14A02EBC1004A2264211AF03EFB96
:102CF0009549897801EB81029349091D01EBC201D5
:102D00008868FFF7EAFB00909DF80210BDF800000C
:102D100000230422FEF770FD8C498D4816F0B9FFA0
:102D200032224FF48C718A481AF020FB8648807852
:102D300000EB80018448001D00EBC1000069F0B188
:102D40008149897801EB81027F49091D01EBC201AC
:102D50000869FFF7C2FB00909DF80210BDF8000063
:102D600000230422FEF748FD7849794816F091FFC8
:102D70004A224FF48C7176481AF0F8FA09E070494B
:102D80000978704A02EBC1004A224FF48C711AF0A4
:102D9000EDFA6B48C08B68B36B48807800EB80011C
:102DA0006948001D00EBC1008069C8B166488078A1
:102DB00000EB80016448001D00EBC1008069092818
:102DC0000ED86149897801EB81025F49091D01EB49
:102DD000C20101236222886964211AF01FFA4AE0C5
:102DE00057490978574A02EBC100622264211AF060
:102DF000BDFA40E05448807800EB80015248001D45
:102E000000EBC100806968B34F48807800EB800117
:102E10004D48001D00EBC1008069C82809D9C821B0
:102E20004948807800EB80024748001D00EBC20053
:102E300081614549897801EB81024349091D01EB14
:102E4000C2010023032288690121FEF7D5FCAFF2FD
:102E500010313F4816F01DFF622264213C481AF0F1
:102E600085FA08E036490978364A02EBC100622249
:102E700064211AF07BFA4FF6FF701AF0E0FD4FF470
:102E800000001AF0D1FD00201AF028FE31481AF097
:102E9000E7FD7822282130A01AF068FA7822F02184
:102EA000AFF610001AF062FAAA2228212BA01AF01D
:102EB0005DFAAA22F021AFF278301AF057FA2848CA
:102EC0001AF0CEFDDC22342126A01AF04FFADC22C3
:102ED000B421AFF2A0301AF049FA8FE11A4989788B
:102EE00001EB81021849091D01EBC20100230422F4
:102EF00048680321FEF780FCAFF66801144816F01D
:102F0000C8FE3222642112481AF030FA0E48807846
:102F100000EB80010C48001D00EBC100C06870B1DF
:102F20000949897801EB81020749091D01EBC201BA
:102F300000230422C8680121FEF75EFC16E020E0B1
:102F4000841100100FEB0200C00F001067EC0200AC
:102F5000740F0010B8A90300563A0000493A000067
:102F6000584F030054203A00FFEB0200AFF23C41FF
:102F7000F74816F08EFE4A226421F5481AF0F6F959
:102F800008E0F4490978F44A02EBC1004A226421BE
:102F90001AF0ECF9F148807800EB8001EF48001D51
:102FA00000EBC100806820B3EC49897801EB810215
:102FB000EA49091D01EBC2018868FFF774F9009026
:102FC0009DF80210BDF8000000230422FEF714FC57
:102FD0009DF80300E24A02EB001000F10801DC4812
:102FE00016F057FE32224FF48C71D9481AF0BEF910
:102FF00009E0D8490978DB4A02EBC10032224FF4DC
:103000008C711AF0B3F9D549897801EB8102D34963
:10301000091D01EBC2010869FFF745F900909DF811
:103020000210BDF8000000230422FEF7E5FB9DF826
:103030000300CB4A02EB001000F10801C44816F06F
:1030400028FE4A224FF48C71C1481AF08FF94FF6CE
:10305000FF701AF0F4FC4FF400001AF0E5FC0020B9
:103060001AF03CFDC0481AF0FBFC78222821AFF290
:1030700018101AF07BF97822F021AFF6E8101AF058
:1030800075F9AA222821B9A01AF070F9AA22F02114
:10309000B7A01AF06BF9B7481AF0E2FCDC22342131
:1030A000AFF240101AF062F9DC22B421AFF27C508A
:1030B0001AF05CF9A2E0A948807800EB8001A748EB
:1030C000001D00EBC100ACA10269A14816F07EFB17
:1030D000322264219E481AF049F9A048807800EB1A
:1030E00080019E48001D00EBC1008068642812D357
:1030F0009A48807800EB80019848001D00EBC100E1
:103100009DA18268924816F061FB4A226421904892
:103110001AF02CF908E08F490978924A02EBC100B5
:103120004A2264211AF022F98C48807800EB800151
:103130008A48001D00EBC100006A18B387498978EE
:1031400001EB81028549091D01EBC201086AFFF705
:103150000DFB00909DF80210BDF800000023042232
:10316000FEF74AFB9DF8030000EB4000844A8118FB
:10317000774816F08EFD32224FF48C7174481AF0A5
:10318000F5F805E032224FF48C717EA01AF0EEF8CB
:103190004FF6FF701AF053FC4FF400001AF044FC95
:1031A00000201AF09BFC70481AF05AFC7822282163
:1031B000AFF25C201AF0DAF87822F021AFF62C306A
:1031C0001AF0D4F8AA22282170A01AF0CFF8AA2267
:1031D000F0216FA01AF0CAF866481AF041FCDC2210
:1031E0003421AFF280201AF0C1F8DC22B421AFF212
:1031F000BC601AF0BBF801E000E000BF00BF38BDC2
:1032000010B50120FEF790FB0320FEF75EFE4FF69F
:10321000FF701AF014FC4FF400001AF005FC0024B3
:103220002CE004F00100A0B9C4EB0411594B03EBEE
:103230004101484B1B78C3EB0313C818611C4908B4
:1032400001EB4101C90001F11A0204211AF08EF8C4
:1032500013E0C4EB04114F4B03EB41013D4B1B78D2
:10326000C3EB0313C818611E490801EB4101C900F3
:1032700001F11A02B8211AF079F8641C0F2CD0D38E
:1032800010BD38B50446012C00D100E000200546F1
:103290001DB1FF204049486003E04FF400003E4963
:1032A00048603D48808880B24823C0223021009089
:1032B0005420FDF7EEFD3848808880B200903648F3
:1032C000008883B2354800783130C2B230216C209A
:1032D000FDF776FE022C01D1012000E0002005461A
:1032E0001DB1FF202C49486003E04FF400002A493B
:1032F00048602A49097801EB81022849891C01EBC1
:103300008201C889002304221946FEF775FA224873
:10331000808880B25E23C0224A2100905420FDF7AD
:10332000B8FD00230A4A4A215C20FEF793F90023E6
:103330001BA24A218E20FEF78DF9032C01D101201A
:1033400000E0002005466DB3FF20134948602EE0E1
:10335000740F001084110010FFEB0200C00F00106A
:1033600057EC02000FEB0200B8A90300523A00002C
:10337000CEA90000584F0300253364252500000026
:103380002B0803004E4F4E4500000000433A00005A
:103390006E46000067EE0200140000109008001056
:1033A0004DCEA900FFE74FF40000FC494860FC49FE
:1033B000097801EB8102FA49891C01EB8201088A34
:1033C000002304221946FEF717FAF448808880B2D9
:1033D0007623C022622100905420FDF75AFD00237D
:1033E000F04A62215C20FEF735F90023AFF250026B
:1033F00062218E20FEF72EF9042C01D1012000E07D
:10340000002005461DB1FF20E449486003E04FF469
:103410000000E2494860E448006811281DD1DF48F7
:10342000808880B246234FF4C872302100904FF458
:103430008670FDF72EFDDA48007800EB8001D84851
:10344000801C00EB81004089D84901EB0012002369
:1034500032214FF48670FEF7FDF8052C01D10120D2
:1034600000E0002005461DB1FF20CC49486003E084
:103470004FF40000C9494860C949097801EB81024D
:10348000C749891C01EB82014888002304221946A0
:10349000FEF7B2F9C148808880B25E234FF4C8724B
:1034A0004A2100904FF48470FDF7F3FC0023BD4ADD
:1034B0004A214FF48D70FEF7CDF80023BCA24A21BB
:1034C0004FF4A070FEF7C6F8062C01D1012000E0F1
:1034D000002005461DB1FF20B049486003E04FF4CD
:1034E0000000AE494860AE49097801EB8102AC4961
:1034F000891C01EB82018888002304220121FEF748
:103500007BF90023A74A62214FF48870FEF7A2F8E6
:103510000023AFF6546262214FF4A070FEF79AF8D0
:1035200038BD7CB506460D460120FEF7FDF90220A8
:103530001AF0D4FA6FF07F401AF081FA0024A0E06C
:103540004FF4BE70ADF8000004EB4400042101EB21
:103550000010062101FB040000B2ADF802004FF498
:10356000EE70ADF80400601C00EB4000042101EB9C
:103570000010062101FB040000B2ADF80600052E84
:103580007CD2DFE806F0031B334B6300C5EBC501BB
:1035900001EB8101874A02EB8101874A1278C2EB75
:1035A000C20202EB820201EB4201C4EBC40201EB56
:1035B00042000E22694619F0EDFE5FE0C5EBC50141
:1035C00001EB81017D4A02EB81017B4A1278C2EB5B
:1035D000C20202EB820201EB4201C4EBC40201EB26
:1035E00042000E22694619F0D5FE47E0C5EBC50141
:1035F00001EB8101724A02EB81016F4A1278C2EB42
:10360000C20202EB820201EB4201C4EBC40201EBF5
:1036100042000E22694619F0BDFE2FE0C5EBC50140
:1036200001EB8101674A02EB8101634A1278C2EB28
:10363000C20202EB820201EB4201C4EBC40201EBC5
:1036400042000E22694619F0A5FE17E0C5EBC50140
:1036500001EB81015C4A02EB8101574A1278C2EB0F
:10366000C20202EB820201EB4201C4EBC40201EB95
:1036700042000E22694619F08DFE00BF00BF601C9B
:10368000C4B2052CFFF65CAF7CBDF8B505464F49CA
:10369000897801EB81024D49091D51F832104C4ADD
:1036A000515C481C00EBD071C1F34706012438E09F
:1036B000AC4203D1FF201AF0C2F903E04FF400003E
:1036C0001AF0BDF904F00100A0B1601E012202EB66
:1036D000500000EB4000C00000F11803601E00EB3A
:1036E0004000C000182202EB5001B4225A2019F009
:1036F0001DFF15E0601E012202EB500000EB4000B0
:10370000C00000F11803601E400800EB4000C0003C
:1037100000F118014FF4B7724FF48A7019F006FFE8
:10372000641C2A48807800EB80012848001D50F86E
:1037300031002749085C401CA042B9D802201AF089
:10374000CDF96FF07F401AF07AF9204843788278FB
:10375000AFF62C41134816F039F81A2264211148AB
:1037600019F004FE1949897801EB81021749091DF6
:1037700051F83210174A02EBC1001A224FF48C7133
:1037800019F0F4FD1148807800EB80010F48001D0E
:1037900050F8310005287DD21EE000001400001012
:1037A00090080010740F0010FC000010D8F8020000
:1037B000205600004FBF02008411001027C90200EC
:1037C000B7CF02007BDE0200C3E10200C00F001091
:1037D00070AD02000FEC0200DFE810F005006B0195
:1037E000570391040205FB49897801EB8102F949ED
:1037F000091D01EBC2010023042248680321FDF7E3
:10380000FBFFF5A1F54816F044FA32226421F34893
:1038100019F0ACFDEF48807800EB8001ED48001D09
:1038200000EBC100C068C0B1EA49897801EB8102B0
:10383000E849091D01EBC20100230422C8680121E7
:10384000FDF7DAFFAFF61451E44816F022FA4A22E7
:103850006421E24819F08AFD08E0E1490978E14A6B
:1038600002EBC1004A22642119F080FDD94880781A
:1038700000EB8001D748001D00EBC1004069D0B1CA
:10388000D449897801EB8102D249091D01EBC201BB
:10389000002300E0FDE3042248690121FDF7ACFFAD
:1038A000AFF67051CD4816F0F4F962226421CB488E
:1038B00019F05CFD08E0CA490978CB4A02EBC10067
:1038C0006222642119F052FDC248807800EB800129
:1038D000C048001D00EBC100C069C0B1BD49897876
:1038E00001EB8102BB49091D01EBC2010023042247
:1038F000C8690121FDF780FFAFF6C851B74816F03F
:10390000C8F97A226421B54819F030FD08E0B449BD
:103910000978B54A02EBC1007A22642119F026FD2C
:10392000AC49897801EB8102AA49091D01EBC2016A
:103930008868FEF7D2FD00909DF80210BDF80000E7
:1039400000230422FDF758FFA849A44816F0A1F966
:1039500032224FF48C71A14819F008FD9D488078FF
:1039600000EB80019B48001D00EBC1000069F0B135
:103970009849897801EB81029649091D01EBC20142
:103980000869FEF7AAFD00909DF80210BDF800003E
:1039900000230422FDF730FF9449904816F079F98E
:1039A0004A224FF48C718D4819F0E0FC09E08C49F3
:1039B00009788D4A02EBC1004A224FF48C7119F04C
:1039C000D5FC8748C08BC8B38248807800EB800163
:1039D0008048001D00EBC1008069092809D9092130
:1039E0007C48807800EB80027A48001D00EBC20022
:1039F00081617848807800EB80017648001D00EBFB
:103A0000C1008069D8B17348807800EB80017148AB
:103A1000001D00EBC1008069092810D86D49897824
:103A200001EB81026B49091D01EBC20101236222F6
:103A300088694FF48C7119F0F1FB39E00AE06849AC
:103A40000978694A02EBC10062224FF48C7119F0C7
:103A50008DFC2DE05F48807800EB80015D48001D03
:103A600000EBC1008069C8B15A49897801EB810235
:103A70005849091D01EBC201002303228869012175
:103A8000FDF7BAFEAFF64871544816F002F962220B
:103A90004FF48C71514819F069FC09E050490978DC
:103AA000514A02EBC10062224FF48C7119F05EFCA6
:103AB00098E34849897801EB81024649091D01EBE9
:103AC000C2010023042248680321FDF795FE42A1AC
:103AD000424816F0DEF832226421404819F046FCD4
:103AE0003C48807800EB80013A48001D00EBC100A3
:103AF000C068C0B13749897801EB81023549091D99
:103B000001EBC20100230422C8680121FDF774FE05
:103B1000AFF6E071314816F0BCF84A2264212F4814
:103B200019F024FC08E02E4909782E4A02EBC10066
:103B30004A22642119F01AFC2648807800EB8001A3
:103B40002448001D00EBC1004069B8B121498978C3
:103B500001EB81021F49091D01EBC2010023042270
:103B600048690121FDF748FE21A11C4816F091F893
:103B700062226421194819F0F9FB08E01849097814
:103B8000194A02EBC1006222642119F0EFFB1148CF
:103B9000807800EB80010F48001D00EBC100C06978
:103BA000B8B10C49897801EB81020A49091D01EB82
:103BB000C20100230422C8690121FDF71DFE0CA1EA
:103BC000064816F066F87A226421044819F0CEFB04
:103BD00019E00FE0C00F00106B560000740F0010CA
:103BE00084110010FFEB02000FEB020067EC0200F3
:103BF00073000000FE490978FE4A02EBC1007A22F8
:103C0000642119F0B3FBFC48807800EB8001FA488E
:103C1000001D00EBC100406A68B3F748807800EBF4
:103C20008001F548001D00EBC100406A40F6AC5130
:103C3000884208D3F048807800EB8002EE48001DEF
:103C400000EBC2004162EC49897801EB8102EA494C
:103C5000091D01EBC20100230422486A0121FDF77E
:103C6000CBFDE6A1E64816F014F892226421E44860
:103C700019F07CFB13E0E049897801EB8102DE4911
:103C8000091D01EBC201496ADA4A02EB0111D84A67
:103C9000127801EBC2009222642119F067FBD64929
:103CA000897801EB8102D449091D01EBC2018868C2
:103CB000FEF713FC00909DF80210BDF800000023F1
:103CC0000422FDF799FDCF49CD4815F0E2FF3222DD
:103CD0004FF48C71CA4819F049FBC748807800EB53
:103CE0008001C548001D00EBC1000069F0B1C24968
:103CF000897801EB8102C049091D01EBC201086905
:103D0000FEF7EBFB00909DF80210BDF800000023C9
:103D10000422FDF771FDBB49B94815F0BAFF4A22EC
:103D20004FF48C71B64819F021FB09E0B0490978CD
:103D3000B04A02EBC1004A224FF48C7119F016FB15
:103D4000AB48C08BC8B3AC48807800EB8001AA4870
:103D5000001D00EBC1008069092809D90921A64886
:103D6000807800EB8002A448001D00EBC200816156
:103D7000A148807800EB80019F48001D00EBC10046
:103D80008069D8B19C48807800EB80019A48001D7A
:103D900000EBC1008069092810D89749897801EBA8
:103DA00081029549091D01EBC20101236222886944
:103DB0004FF48C7119F032FA38E00AE08C49097836
:103DC0008C4A02EBC10062224FF48C7119F0CEFADA
:103DD0002CE08948807800EB80018748001D00EBCB
:103DE000C1008069C0B18449897801EB81028249B0
:103DF000091D01EBC2010023042288690121FDF79E
:103E0000FBFC81A17E4815F044FF62224FF48C71C7
:103E10007B4819F0ABFA09E075490978754A02EB5D
:103E2000C10062224FF48C7119F0A0FA72488078B8
:103E300000EB80017048001D00EBC100006AC8B1B2
:103E40006D49897801EB81026B49091D01EBC201C3
:103E500000230322086A0221FDF7CEFCAFF2702195
:103E6000674815F016FF7A224FF48C71644819F0F8
:103E70007DFA09E05E4909785E4A02EBC1007A22C8
:103E80004FF48C7119F072FAACE15B49897801EB5F
:103E900081025949091D01EBC2010023042248682F
:103EA0000321FDF7A9FCAFF2D021554815F0F1FE32
:103EB00032226421524819F059FA4F48807800EBB9
:103EC00080014D48001D00EBC100C068C0B14A49E7
:103ED000897801EB81024849091D01EBC2010023E9
:103EE0000422C8680121FDF787FCAFF2FC21444899
:103EF00015F0CFFE4A226421414819F037FA08E054
:103F00003B490978414A02EBC1004A22642119F079
:103F10002DFA3948807800EB80013748001D00EB0E
:103F2000C1004069C0B13449897801EB810232494E
:103F3000091D01EBC2010023042248690121FDF79C
:103F40005BFCAFF254312E4815F0A3FE62226421CF
:103F50002B4819F00BFA08E025490978254A02EBAD
:103F6000C1006222642119F001FA2348807800EB35
:103F700080012148001D00EBC100C069C0B11E498D
:103F8000897801EB81021C49091D01EBC201002364
:103F90000422C8690121FDF72FFCAFF2AC311848AB
:103FA00015F077FE7A226421154819F0DFF908E050
:103FB0000F4909780F4A02EBC1007A22642119F0F7
:103FC000D5F90D48807800EB80010B48001D00EB0F
:103FD000C1008068A8B30849897801EB81020649CD
:103FE000091D01EBC2018868FEF75DF900900FE042
:103FF000841100100FEB0200C00F0010754100008B
:10400000740F001067EC02006D410000FFEB02002E
:104010009DF80210BDF8000000230422FDF7ECFB20
:104020009DF80300FE4A02EB001000F10801FD4874
:1040300015F02FFE32224FF48C71FA4819F096F9E0
:104040000AE0FFE7F8490978F84A02EBC10032229A
:104050004FF48C7119F08AF9F549897801EB8102E6
:10406000F349091D01EBC2010869FEF71CF9009034
:104070009DF80210BDF8000000230422FDF7BCFBF0
:104080009DF80300E64A02EB001000F10801E54844
:1040900000E0A6E015F0FDFD4A224FF48C71E148E6
:1040A00019F064F9E0490978C1EBC101E14A02EB7A
:1040B000C102DF49897801EB8103DD49091D01EB6C
:1040C000C301896902EBC10062224FF48C7119F0BF
:1040D0004DF9D749897801EB8102D549091D01EBDA
:1040E000C201096AD14A02EB0111CF4A127801EBF1
:1040F000C2007A224FF48C7119F038F972E0CC4882
:10410000807800EB8001CA48001D00EBC100AFF6CB
:1041100098510269C34815F059FB32226421C14805
:1041200019F024F9C248807800EB8001C048001DD6
:1041300000EBC1008068642813D3BD48807800EB91
:104140008001BB48001D00EBC100AFF6D45182686E
:10415000B44815F03BFB4A226421B24819F006F935
:1041600008E0B1490978B14A02EBC1004A22642152
:1041700019F0FCF8AE48807800EB8001AC48001DD7
:1041800000EBC100006A18B3A949897801EB8102EC
:10419000A749091D01EBC201086AFEF7E7FA009082
:1041A0009DF80210BDF8000000230422FDF724FB57
:1041B0009DF8030000EB40009F4A8118994815F0D4
:1041C00068FD32224FF48C71964819F0CFF806E062
:1041D00032224FF48C71AFF6546019F0C7F801E049
:1041E00000E000BF00BF9249897801EB810290494D
:1041F000091D11F832002946FFF793F9F8BD7CB587
:1042000005460120FDF790FB42F6692019F00CFCF1
:10421000022019F063FC6FF07F4019F010FC0024BD
:1042200037E04FF4BE70ADF8000004EB4400042109
:1042300001EB0010062101FB040000B2ADF8020002
:104240004FF4EE70ADF80400601C00EB4000042158
:1042500001EB0010062101FB040000B2ADF80600DE
:10426000C5EBC50101EB8101744A02EB81016E4A85
:104270001278C2EBC20202EB820201EB4201C4EBF4
:10428000C40201EB42000E22694619F083F8601C5B
:10429000C4B2052CC5DB7CBD2DE9F0470746624C56
:1042A00014340F2601253CE0BD4203D1FF2019F054
:1042B000C6FB03E04FF4000019F0C1FB701C00EBDB
:1042C000D071B5EB610F0FD805EB4500C00000F1D0
:1042D0001803681E00EB4000C00000F11801B42272
:1042E0005A2019F023F91BE006F1010808EBD870F9
:1042F000A5EB600000EB4000C00000F11803C146D0
:1043000009EBD970A5EB6000401E00EB4000C00037
:1043100000F118014FF4B7724FF48A7019F006F9E2
:104320006D1CB5F5E17FBFD9022019F0D7FB6FF006
:104330007F4019F084FB002526E0012D0ED134F8D2
:104340001500B0F57A7F09D105EB45001A2101EB84
:10435000C00264213AA019F009F814E034F81500FD
:10436000002303220121FDF747FAAFF27C712D48AB
:1043700015F08FFC05EB45001A2101EBC00264210A
:10438000284818F0F3FF6D1C032DD6D3E188274A87
:1043900002EB0111244A127801EBC200622264216F
:1043A00018F0E4FF2189274A02EBC1007A22642138
:1043B00018F0DCFF6189244A02EB01111A4A1278D5
:1043C00001EBC2009222642118F0D0FFA189174AA4
:1043D00002EB0111144A127801EBC200AA226421F7
:1043E00018F0C4FFA08B48B90F4909780F4A02EBB7
:1043F000C100C222642118F0B9FF0AE0E08900235D
:1044000002221946FDF7F8F9C2226421054818F086
:10441000ADFF218A054A02EB0111034A127815E02B
:1044200057EC0200740F0010841100100FEB020013
:10443000C00F00108FEB02002B080300BBD5020059
:104440004B45590037EC02006FEB020001EBC20054
:104450001A224FF48C7118F089FF618AFE4A02EB30
:104460000111FE4A127801EBC20032224FF48C7126
:1044700018F07CFFA18AFA4A02EB0111F74A127880
:1044800001EBC2004A224FF48C7118F06FFFE18AF1
:10449000F14A02EB0111F14A127801EBC2006222EB
:1044A0004FF48C7118F062FF218BEB4A02EB011183
:1044B000EA4A127801EBC2007A224FF48C7118F0AC
:1044C00055FF618BE44A02EB0111E44A127801EBDB
:1044D000C20092224FF48C7118F048FF208F88B1EF
:1044E000A08B002302220121FDF786F9AFF600110F
:1044F000DC4815F0CEFBAA224FF48C71D94818F095
:1045000035FF09E0D5490978D34A02EBC100AA2258
:104510004FF48C7118F02AFF3846FFF770FEBDE8A3
:10452000F0871CB50120FDF7FFF9022019F0D6FA3B
:104530006FF07F4019F083FA00242BE04FF4BE7037
:10454000ADF8000004EB4400042101EB001006214B
:1045500001FB040000B2ADF802004FF4EE70ADF8BC
:104560000400601C00EB4000042101EB0010062158
:1045700001FB040000B2ADF80600BB4901EB441199
:10458000B64A127801EB02100E22694618F002FFBB
:10459000601CC4B2052CD1DB1CBD10B5022019F083
:1045A0009DFA6FF07F4019F04AFA32226421AFA0E1
:1045B00018F0DCFEA9490978AE4A02EB41104A2204
:1045C000642118F0D3FEA5490A78AA49403101EBCD
:1045D00042107A22642118F0C9FEA0490A78A54940
:1045E000803101EB42109222642118F0BFFE9B49FA
:1045F0000A78A049C03101EB4210AA22642118F0C8
:10460000B5FEFFF78EFF10BD70B504460D46601E67
:10461000994A115C002304222846FDF7EDF8601C3E
:1046200000EB4000C00000F11A0101238D4A4FF455
:10463000A270FDF70FF870BD38B50546002433E0D1
:10464000601C854203D1FF208C49486003E04FF491
:1046500000008A4948608948808880B20090E01C48
:1046600000EB4000C000163083B2A01C00EB4000FD
:10467000C000183081B2E822A420FCF70AFC7E4A70
:10468000115D7F4A32F8240000230422FDF7B4F8BC
:10469000A01C00EB4000C0001A3081B20123714A17
:1046A000A420FCF7D7FF641C052CC9D34FF40000ED
:1046B0007249486038BD30B58DB004464FF40000F3
:1046C0006E49486002A96F480CF00AF86EA10AA86A
:1046D00015F07CF800230AAAAA215E20FCF7BAFF95
:1046E0006CA10AA815F072F800230AAAC221722050
:1046F000FCF7B0FF062C01D1012000E000200546A8
:104700001DB1FF205D49486003E04FF400005B49A4
:10471000486063A10AA8099A15F058F8574880889C
:1047200080B2BE238622AA2100905E20FCF7B1FB56
:1047300000230AAAAA215E20FCF78CFF072C01D1D6
:10474000012000E0002005461DB1FF204B494860D4
:1047500003E04FF400004949486051A10AA8089AB3
:1047600015F034F84548808880B2BE23A422AA21DF
:1047700000909020FCF78DFB00230AAAAA2190202C
:10478000FCF768FF082C01D1012000E0002005465D
:104790001DB1FF203949486003E04FF4000037495C
:1047A00048603FA10AA8059A15F010F833488088A0
:1047B00080B2BE23C222AA210090AE20FCF769FB82
:1047C00000230AAAAA21AE20FCF744FF092C01D13C
:1047D000012000E0002005461DB1FF202749486068
:1047E00003E04FF40000254948602DA10AA8049A6F
:1047F00014F0ECFF2148808880B2D6238622C221A3
:1048000000907220FCF745FB00230AAAC221722007
:10481000FCF720FF0A2C01D1012000E00020054612
:104820001DB1FF201549486003E04FF40000134913
:1048300048601BA10AA8039A14F0C8FF0F4880889B
:1048400080B2D623A422C22100909020FCF721FB45
:1048500000230AAAC22127E00FEB020084110010F6
:104860002FEB0200740F0010BFAF02004A4B37312C
:10487000333000003FB30200880903001400001029
:10488000C007001000400240202020203A20203A9B
:104890002020000020203A20203A202000000000A4
:1048A00025303264000000009020FCF7D3FE0B2C72
:1048B00001D1012000E0002005461DB1FF20F8498C
:1048C000486003E04FF40000F5494860AFF2300162
:1048D0000AA8029A14F07AFFF148808880B2D623A1
:1048E000C22211460090AE20FCF7D3FA00230AAA98
:1048F000C221AE20FCF7AEFE0DB030BD7CB5054642
:104900000120FDF711F8022019F0E8F86FF07F4060
:1049100019F095F8002437E04FF4BE70ADF80000B0
:1049200004EB4400042101EB0010062101FB04000C
:1049300000B2ADF802004FF4EE70ADF80400601C58
:1049400000EB4000042101EB0010062101FB0400F4
:1049500000B2ADF80600C5EBC50101EB8101D14AFB
:1049600002EB8101D04A1278C2EBC20202EB820252
:1049700001EB4201C4EBC40201EB42000E22694686
:1049800018F008FD601CC4B2052CC5DB7CBD70B5F9
:104990000546072601242EE0AC4203D1FF2019F082
:1049A0004EF803E04FF4000019F049F8042C0FD83A
:1049B00004EB4400C00000F11803601E00EB40004F
:1049C000C00000F11801A0225A2018F0AFFD11E03C
:1049D000201F00EB4000C00000F11803601F00EB37
:1049E0004000C00000F118014FF4AD724FF48A701E
:1049F00018F09CFD641C701C8442CDD3022019F079
:104A00006DF86FF07F4019F01AF8A7490978C1EBEB
:104A1000C10101EB8101A54A02EB4101A24A1278D2
:104A2000C2EBC20201EB42001A22642118F09EFC84
:104A30009D490978C1EBC10101EB81029B498C3191
:104A400001EB4201984A5278C2EBC20201EB4200EC
:104A50003222642118F08AFC93490978C1EBC10124
:104A600001EB8102924901EB42018F4A9278C2EB3D
:104A7000C20201EB42004A22642118F077FC8A4905
:104A80000978C1EBC10101EB810289498C3101EB4D
:104A90004201854AD278C2EBC20201EB4200622297
:104AA000642118F063FC8049497BC1EBC10101EB33
:104AB0008102804901EB42017B4A1278C2EBC202BB
:104AC00001EB42001A224FF48C7118F04FFC76492A
:104AD000887B032332224FF48C7118F09FFB7249BC
:104AE0000978C1EBC10101EB8102734901EB42017D
:104AF0006D4AD27BC2EBC20201EB42004A224FF464
:104B00008C7118F033FC2846FFF7F8FE70BD10B525
:104B10000020FDF7B4F910BD10B5FFF7F8FF4FF610
:104B2000FF705F49086040F23F2048604FF6FF7019
:104B300008604FF40000486000240FE004EB84019B
:104B400001EBC4015D4BCA1804EB84014901091D46
:104B500088B200233221FCF77DFD641C032CEDD3C9
:104B6000002410E004EB840000EBC400544BC21896
:104B7000A01C00EB4000C0001A3081B200230420CA
:104B8000FCF768FD641C052CECD310BD08B543F69A
:104B9000AC10B62340F2DF127A2100900020FCF71F
:104BA00078F908BD10B50020FDF769F9FFF7EEFFB1
:104BB00010BD08B543F6AC10B62340F2DF127A21DF
:104BC00000900020FCF765F908BD10B50020FDF746
:104BD00056F910BD10B5FFF7F8FF4FF6FF703049DA
:104BE000086040F23F2048600023364A04211846FE
:104BF000FCF730FD4FF6FF70294908604FF40000C4
:104C000048600023304A1A210420FCF723FD0124C8
:104C10000CE02D4901EB0412611E4D235943223152
:104C200088B200233221FCF715FD641C072CF0D359
:104C30000020FCF7FCFF10BD38B5002416E04FF64D
:104C4000FF700090601C00EB40001A2202EBC000D5
:104C5000801E83B2601C00EB400002EBC000801E8F
:104C600081B2BE225A20FCF76EF8641C052CE6D3F4
:104C700038BD10B50220FDF702F910BD10B50120B6
:104C8000FCF752FE0420FDF720F94FF6FF7018F0F4
:104C9000D6FE4FF4000018F0C7FE002427E0000005
:104CA00014000010C7C40200841100107FE4020049
:104CB00097E50200C7E70200DFE80200CA0403002C
:104CC000F1040300290303000D070300FD4901EB74
:104CD0004411FD4B1B7801EB0310611C01EB4101FA
:104CE000C90001F11A02042118F040FB641C062CD3
:104CF000ECD310BD70B505462846FDF7C0F84FF659
:104D0000FF70F249086008604FF400004860022D0F
:104D100011D100240DE0EE4800EB0412601C00EB02
:104D20004000C0001A3081B200230420FCF792FC3E
:104D3000641C072CEFD370BD2DE9F34F83B00C46F4
:104D400042F20F716068884206D90A216068B0FBA0
:104D5000F1F060600420A060A068C0F10400A060D1
:104D6000D4F80490E06820B94FF47A7009FB00F998
:104D70000EE0E06801280BD148461EF067FC0746AC
:104D80000022D44B1EF0F8FC05461EF01BFC8146A9
:104D9000A0681EF05BFC07463A460B460020CE4951
:104DA0001DF008FC05460E4648461EF04FFC2A46FC
:104DB0003346CDE900011EF041FA82461EF002FCA6
:104DC000814648461EF042FC05460022C34B1EF0B9
:104DD000D1FD09D2DFF8089340F6B83060600220B8
:104DE000A0600120E0605FE048461EF02FFC054611
:104DF0000022BC4B1EF0BEFD09D842F21070B9FB78
:104E0000F0F060600220A0600120E0604CE04846C5
:104E10001EF01CFC05460022AE4B1EF0ABFD09D86F
:104E20004FF47A70B9FBF0F060600320A0600120BD
:104E3000E06039E048461EF009FC05460022AA4B16
:104E40001EF098FD08D86420B9FBF0F060600120E6
:104E5000A0600020E06027E048461EF0F7FB054612
:104E60000022A24B1EF086FD08D80A20B9FBF0F004
:104E700060600220A0600020E06015E048461EF05F
:104E8000E5FB054600229A4B1EF074FD06D8C4F8D7
:104E900004900320A0600020E06005E0C4F80490C6
:104EA0000320A0600020E060C4F818901C22214676
:104EB000039814F081FF05B0BDE8F08F01468888A3
:104EC00000B270472DE9F04105460C46E06870BB22
:104ED000A068052829D2DFE800F00314151C220081
:104EE00060681EF0B3FB064600227F4B1EF042FDB9
:104EF00004D2804860600020206101E00120206130
:104F000014E013E04FF47A716068B0FBF1F0606078
:104F10000CE064216068B0FBF1F0606006E00A21FB
:104F20006068B0FBF1F0606000E000BF46E0FFE7C2
:104F3000A06806283ED2DFE800F0031018192632D8
:104F40006C496068884202D90846606004E04FF40A
:104F50007A716068484360602FE0606820B10A2180
:104F60006068B0FBF1F0606027E026E042F210716B
:104F70006068884201D908466060606800EB800084
:104F80004000606019E06068B0F57A7F02D94FF4A4
:104F90007A70606064216068484360600DE060681A
:104FA000642801D9642060604FF47A7160684843D6
:104FB000606002E05048606000BF00BF1C222146D4
:104FC000284614F0F9FEBDE8F0812DE9F34F83B0D7
:104FD0008A4642F20F71DAF80400884209D90A21A0
:104FE000DAF80400B0FBF1F0CAF804000420CAF8B3
:104FF00008004FF47A71DAF8040000FB01FBDAF8DC
:105000000810C1F104001EF021FB02460B46CDE959
:105010000001002030491DF0CDFA04460D465846E7
:105020001EF014FB064622462B461EF007F980466A
:105030001EF0C8FA83464EF66020834500D98346A9
:1050400042F21070834508D90220CAF808000A20ED
:10505000BBFBF0F0CAF8040004E00320CAF8080023
:10506000CAF804B0CAF818B01C225146039814F0CC
:10507000A3FE05B0BDE8F08F2DE9F05F82460C4637
:105080000020E060A0681FF037F883461EF084FE21
:1050900007463A460B4600200F491DF08BFA05469D
:1050A0001EF090FA81466068B0FBF9F9B9F1640F1F
:1050B00001D90220A0601C222146504614F07CFE3B
:1050C000BDE8F09FFFAE0200841100101400001034
:1050D0009400030080842E4100002440389C7C41D1
:1050E00080C3C901D0126341006AF8400088C34000
:1050F00000408F40A086010040420F0008B5FC48E8
:10510000372328225C2100903C20FCF7A4F8F948C2
:10511000372328225C2100906420FCF79CF8F64895
:1051200037232822932100903C20FCF794F8F14883
:1051300037232822932100906420FCF78CF808BDC7
:1051400010B500240BE004EBC400C0EB841000F1A8
:105150006E01EAA28C20FCF732FA601CC4B2032C68
:10516000F1DB10BD08B54FF40000E6494860E248A5
:10517000372328226E2100906420FCF76CF8E24867
:10518000372328226E2100904FF49670FCF763F8C5
:10519000DE48372328226E2100904FF4AA70FCF7D6
:1051A0005AF8DB4837232822A52100906420FCF719
:1051B00052F8D74837232822A52100904FF4AA702F
:1051C000FCF749F8D34837232822DC2100906420DB
:1051D000FCF741F8D04837232822DC2100904FF417
:1051E000AA70FCF738F808BD10B50446CB4901EBAE
:1051F0004411CB4A127801EB0210F222282118F058
:10520000B5F810BD38B504466FF07F4018F017FCB4
:10521000C44843788278C449C44814F0D7FA1A22A3
:105220006421C24818F0A2F8BE49897801EB8102D6
:10523000BC49091D51F83210BD4A02EBC1001A22C7
:105240004FF48C7118F092F84FF4000018F0ECFB5A
:10525000B84818F0F4FB002018F040FCB64818F0ED
:10526000FFFBB048807800EB8001AE48001D50F88D
:10527000310004280FD0012C07D1B04900230422AB
:1052800008680321FCF7B8FA05E000230422032193
:105290001846FCF7B1FA78225A21A44818F066F8AB
:1052A000A048807800EB80019E48001D50F8310036
:1052B000052871D2DFE800F003043C71A40000BFB0
:1052C000012C24D19D4840684FF6FF71884206D1D9
:1052D00096489B490A680260898881801DE0974949
:1052E0004868FCF7E0FF00909648007838B9BDF8B0
:1052F0000000002304220221FCF77EFA0DE0BDF835
:105300000000002304220321FCF776FA05E00023C5
:10531000042203211846FCF76FFAAA225A21834877
:1053200018F024F8AA22D72187A018F01FF869E006
:10533000012C1AD1814840684FF6FF71884206D18E
:105340007A487F490A6802608988818013E07B4936
:105350004868FCF7A8FF00909DF80210BDF8000017
:1053600000230422FCF748FA05E00023042203216D
:105370001846FCF741FAAA225A216C4817F0F6FFAA
:105380009DF8031001EB4101714A02EB4100AA2292
:10539000D72117F0EBFF35E033E0012C1AD1674835
:1053A00040684FF6FF71884206D1604864490A6838
:1053B00002608988818013E060494868FDF7D6F96A
:1053C00000909DF80210BDF8000000230422FCF7B5
:1053D00013FA05E00023042203211846FCF70CFA17
:1053E000AA225A21514817F0C1FF9DF8031001EB82
:1053F0004101584A8818AA22F02117F0B7FF01E0AE
:1054000000E000BF00BF544818F02AFB012C07D170
:105410004A490889002304220121FCF7EDF905E03F
:105420000023042201211846FCF7E6F9DC2254216E
:105430003E4817F09BFF49490878FFF7D5FE38BD75
:1054400030B585B004460D4645A003C8CDE903013B
:1054500045A103C9CDE9010103A8005D40F2131184
:10546000484343490844372328225C2100904FF4E5
:10547000BE70FBF7F0FE01A8405D40F213114843F7
:105480003B490844372328225C2100904FF4D27016
:10549000FBF7E1FE05B030BD30B585B004460D46E2
:1054A0002FA003C8CDE903012FA103C9CDE9010154
:1054B00003A8005D40F2131148432D4908443723E7
:1054C0002822932100904FF4BE70FBF7C4FE01A880
:1054D000405D40F2131148432549084437232822F0
:1054E000932100904FF4D270FBF7B5FE05B030BDAC
:1054F000CD670200E5680200CC9002002D2D2D2D15
:105500002D0000001400001064990200E9A00200C0
:105510006EA8020081A9020094AA02005FB00200F6
:1055200084110010C00F0010282B0000740F001011
:105530000FEC0200FFFF8000B8A903001003001069
:10554000A0260000D70000106D41202000000000C0
:10555000FB0603002B080300584F03000001001056
:105560000C0F1011160E0D00121314020B1716005B
:105570006D8B020010B586B0142101A814F056FC02
:10558000FE4800680090002409E01DF80410FC4863
:105590000AF02AF8012001F0E2FE601CC4B2032CDC
:1055A000F3DB06B010BD38B504464FF40000F549F2
:1055B0004860F54800EB84020123C8211420FCF761
:1055C00049F8F24800EB84020123C8214FF48C70A3
:1055D000FCF740F843F6AC10EA494860EC48372342
:1055E00028227A2100905020FBF735FEE948372326
:1055F00028227A2100907820FBF72DFEE6483723F9
:1056000028227A2100908C20FBF725FE38BD70B54A
:1056100004460D4604EB4400E04942180123C8212A
:105620008020FCF717F805EB4500DD4942180123FF
:10563000C8218820FCF70EF870BD70B504460D46F1
:1056400004EB4400D54942180023C8214FF4C2702E
:10565000FCF700F805EB4500D14942180023C821AA
:105660004FF4C670FBF7F6FF70BD10B5002422E0C2
:10567000012C01DD072C01DB082C04DD43F6AC1006
:10568000C049486003E04FF40000BE494860C54986
:1056900051F82400002306221946FCF7ADF8C4EBAC
:1056A000041000F13A010123BF4A4FF4A270FCF745
:1056B0003EF8601CC4B20B2CDADB10BD2DE9F041C2
:1056C00004460D461646B94B1B5D03EB4303B44F2E
:1056D000DA19B1B2A8B20023FBF7BCFFBDE8F08134
:1056E0002DE9F04104460D46164604EB4403AC4F49
:1056F000DA19B1B2A8B20123FCF719F8BDE8F081BC
:1057000070B504460D46A9B2A0B20123A8A2FBF7CA
:10571000A1FF70BD70B504460D46A9B2A0B2012329
:10572000A4A2FBF797FF70BD38B5A34CA34D4FF46F
:10573000E270A34908606A200023224601210090FC
:1057400018460AF0EAFC4FF4E27000232A46194694
:10575000009005200AF0E1FC38BD38B5964C974D15
:105760006A20002322460121009018460AF04CFDD1
:105770004FF4E27000232A461946009005200AF0F3
:1057800043FD38BD30B58D4B5B780A2B02DD01231C
:105790008A4C6370894B9B78884C6478A34202DD05
:1057A0000123864CA370002297E0531C03EB830473
:1057B000824B1B1D53F83430042B07D90024531C93
:1057C00003EB83057D4B1B1D43F83540531C03EB56
:1057D00083047A4B1B1D03EBC401531C03EB8304AE
:1057E000764B1B1D53F83430052B72D2DFE803F0E3
:1057F0001E3903547000002015E051F82030714C20
:1058000004EBC0046468A34206D851F820306D4C04
:1058100054F83040A34204D26A4B53F8303041F878
:105820002030431CD8B20928E7DB53E0002015E004
:1058300051F82030644C04EBC0046468A34206D8DD
:1058400051F82030604C54F83040A34204D25E4BF3
:1058500053F8303041F82030431CD8B20928E7DB38
:1058600038E0002015E051F82030584C04EBC0041B
:105870006468A34206D851F82030544C54F83040A4
:10588000A34204D2514B53F8303041F82030431C2E
:10589000D8B20A28E7DB1DE0002015E051F82030DF
:1058A0004B4C04EBC0046468A34206D851F8203086
:1058B000474C54F83040A34204D2454B53F83030A3
:1058C00041F82030431CD8B20928E7DB02E000E0B1
:1058D00000E030BD00BF531CDAB20A2AFFF665AF04
:1058E00000BFF6E710B5344800783A494988884245
:1058F00003DD38480078304908702F484178354832
:10590000C088814203DD334800792B4948702A481A
:10591000817830484089814203DD2E48007A26494B
:1059200088702548C1782B48C089814203DD294809
:10593000007B2149C870204801792648408A81426D
:1059400003DD2448007C1C4908711B48417B214829
:10595000408B814203DD1F48007E1749487316487B
:10596000817B1C48C08B814203DD1A48007F1249AD
:1059700088731148C17B1748408C2DE0600C0300F0
:1059800000C0004014000010BEF402001AF502002E
:10599000F292020035A5020048A602002B0803007F
:1059A00058080300440F0010740F00104008030053
:1059B000560000006D41000084110010C00F00105F
:1059C00020000010F40A03005C0A0300A40A03008C
:1059D0003C0B0300E4090300814204DDFE4890F81B
:1059E0002000FE49C873FD48017CFB48C08C814201
:1059F00004DDF94890F82400F8490874F748417C20
:105A0000F548408D814204DDF34890F82800F349C1
:105A10004874F2480178F048C08D814204DDEE48B8
:105A200090F82C00ED49887406F020FA10BD10B5EE
:105A300004464FF40000EA49486074B9E948007828
:105A400000EB800101EBC000E7494218002332213E
:105A50004FF48870FBF7FEFD0DE0E248007800EBA4
:105A6000800101EBC000E1494218002332214FF4CC
:105A70008870FBF7EFFD10BD38B50446D8480568BF
:105A80004FF40000D6494860012C03D14FF4FC606C
:105A9000086009E0022C03D11F20D149086003E00F
:105AA0004FF40000CE490860D148152330227321FD
:105AB00000900220FBF7CFFBC948056038BD2DE9F7
:105AC000FC4104460127CB480088ADF80400C948D2
:105AD0004088ADF80600A0882189884201DD208930
