:020000040002F8
:100000005025001031290300392903003B29030042
:100010003D2903003F29030041290300000000009F
:100020000000000000000000000000004329030061
:1000300045290300000000004729030095780200CD
:100040004B2903009D070200050802004108020039
:1000500053080200434203004B2903004B290300CD
:100060005B4203004B2903004B2903004B2903008B
:100070004B2903004B2903004B2903004B290300A4
:100080004B2903004B2903004B2903004B29030094
:100090004B2903004B2903004B2903004B29030084
:1000A000BD6A03004B2903004B2903004B290300C1
:1000B0004B2903004B2903004B2903004B29030064
:1000C0004B2903004B2903004B2903004B29030054
:1000D0004B2903004B2903000B0602004B290300A8
:1000E0004B29030000F002F800F0B0F80AA090E8F5
:1000F000000C82448344AAF10107DA4501D100F0E3
:10010000A5F8AFF2090EBAE80F0013F0010F18BFFF
:10011000FB1A43F00103184788480400A84804006C
:100120000A444FF0000C10F8013B13F0070408BF1D
:1001300010F8014B1D1108BF10F8015B641E05D0BB
:1001400010F8016B641E01F8016BF9D113F0080F70
:100150001EBF10F8014BAD1C0C1B09D16D1E58BF02
:1001600001F801CBFAD505E014F8016B01F8016B39
:100170006D1EF9D59142D6D37047000000230024AC
:1001800000250026103A28BF78C1FBD8520728BFA7
:1001900030C148BF0B6070476E291CF02E82702959
:1001A0001CF09D85662926F08384652926F08084CD
:1001B000672926F07D84612926F07C8403681B0A68
:1001C00028BF41F0800169291BF0868664291BF055
:1001D000838675291BF080866F291CF02A85782973
:1001E0001CF06985E9291CF0C584E4291CF0C2844F
:1001F000F5291CF0BF84EF291CF02785F8291CF095
:1002000068850368DB0928BF41F0800163291CF081
:10021000468473291CF04B84E3291DF01981F329CE
:100220001DF01E81002070471FB51CF05BF9040013
:100230000020002125F0EEF9401C60600020002124
:1002400025F0FEF9E0601FBD10B510BD1DF06EFA7F
:100250001146FFF7E9FF00F023F91DF009FD03B493
:10026000FFF7F2FF03BC1DF00DFD000040F201207E
:10027000824908608249C1F88401804908310860D8
:10028000091D0860091D0860091D0860091D086036
:10029000091D0860091D0860091D0860091D086026
:1002A000091D0860091D0860091D0860091D086016
:1002B000091D0860714980310860091D0860091D29
:1002C0000860091D0860091D0860091D0860091DF6
:1002D0000860091D0860091D0860091D0860091DE6
:1002E0000860091D0860091D0860091D0860091DD6
:1002F00008606249D4310860091D0860091D086062
:100300005E49443908605D49E4310860091F0860AE
:100310005A49E8310860594940390860091D0860A8
:10032000091D086055493039086054492039086072
:10033000524910390860091D086070472DE9F041E5
:1003400000BF00BF4F48006840F400604D49C43909
:10035000C1F8C40041F61F704B49086001204B49A9
:10036000086000208860FFF781FF4948006849491C
:10037000B0FBF1F74348C438D0F8000100B17F0862
:100380004FF47A70B0FBF7F404F11300B0FBF4F013
:100390003E4908630F204863002088630120C8633A
:1003A00004F11300B0FBF4F0801C086401204864E1
:1003B00004F13E00B0FBF4F0886404F13E00B0FBB1
:1003C000F4F0C8640F20086504F13E00B0FBF4F0BF
:1003D000486501208865886240F203302E49086034
:1003E0004FF4D0602949C1F800016421012000F0D8
:1003F00057F940F2831025490862C821012000F016
:100400004FF940F203102149086202204862002699
:1004100000E0761C802EFCD341F68465A5F1100027
:1004200085B22D1105FB07F04FF47A71B0FBF1F0A6
:1004300085B216484562832014490862174805882A
:10044000002008621448001F006840F40020C1F832
:1004500000010121084600F023F90121084600F0BF
:100460001FF90948006820F01F0848F011000549ED
:10047000C439C1F8DC01BDE8F081000080C1024050
:1004800000C00240C4C00F40DCC10F4000C00920C2
:100490006801001040420F0004C10920003003A091
:1004A000002012F084FE044600206C4908601D20E4
:1004B000012181404209920002F1E022C2F80011BC
:1004C00000BF62B66648B4FBF0F0411EB1F1807F18
:1004D00000D31DE021F07F40401E4FF0E02250612C
:1004E00050171F22002807DAD3061E0E5D4B00F0BE
:1004F0000F052D1F5E5503E0D3061D0E5A4B1D54EC
:1005000000BF00204FF0E02290610720106100BF83
:1005100014F020F802205549086000205449088052
:1005200054490870544908703CE050480068801EE7
:10053000182835D2DFE800F00C3412150F303434AF
:1005400018341B3434342124272A2D34341E3431FA
:1005500007F066FC25E007F09FFF22E008F003FDAE
:100560001FE008F04CFD1CE011F0D7F919E00EF087
:1005700016F916E00FF0CEFB13E00EF0C3F810E012
:1005800007F060FD0DE007F0DAFE0AE007F043FF38
:1005900007E00DF0C6FC04E003E00FF074FB00E0A0
:1005A00000BF00BFC1E72DE9F041012133A015F0E4
:1005B00083FE0746002F25DD4FF47A62324801683A
:1005C000384615F059FF022130A015F075FE04469B
:1005D000002C11DD002500BF4FF47A622A48016823
:1005E000204616F0B3F8064635442B488542F3D32F
:1005F000204616F042F901E0BDE8F081384616F0D9
:100600003CF900E0F8E700BFF6E710B5002206214C
:10061000104612F036FC30B1092020490860402114
:10062000002012F059FC00220521104612F029FC8E
:1006300030B10C20194908602021002012F04CFC38
:1006400000220721104612F01CFC30B10E20134985
:1006500008608021002012F03FFC10BDBC0000109B
:10066000A086010018ED00E000E400E01001001099
:10067000080100100A0100100B0100104D535245F3
:1006800041442E5458540000EC0100105A433535B3
:1006900032302E54585400008096980014010010F7
:1006A000F8B902224FF040235A600022DA60D44A9F
:1006B00012684FF47A73B2FBF3F2521E4A434FF0C2
:1006C00040239A61FF221A6004225A6101225A6073
:1006D00000BF4FF04022526802F00102002AF8D118
:1006E0005BE001281CD10222C64B5A600022DA606E
:1006F000C34A12684FF47A73B2FBF3F2521E4A43B4
:10070000C04B9A61FF221A6004225A6101225A608A
:1007100000BFBC4A526802F00102002AF9D13CE055
:1007200002281CD10222B84B5A600022DA60B44A77
:1007300012684FF47A73B2FBF3F2521E4A43B24B83
:100740009A61FF221A6004225A6101225A6000BF96
:10075000AD4A526802F00102002AF9D11DE00328D7
:100760001BD10222A94B5A600022DA60A44A126807
:100770004FF47A73B2FBF3F2521E4A43A34B9A61D1
:10078000FF221A6004225A6101225A6000BF9F4A68
:10079000526802F00102002AF9D1704701214FF09E
:1007A000402211609A490968062913D199490978AC
:1007B000491C984A117011460978092910DD002159
:1007C00011700121944A117094490989491C934A76
:1007D000118105E08F49097811B100218D4A11700E
:1007E00000200CE08E4951F8201031B18C4951F8AD
:1007F0002010491E8A4A42F82010411CC8B206281F
:10080000F0DB704710B501207E490860854800780C
:10081000401C844908707E48006806280FD10846AD
:1008200000780A2802D107F0C2F808E07D48007875
:10083000142804DB00207B49087007F0BEF810BDC7
:1008400001207149086078480068401C76490860BA
:10085000704701206D49086074480068401C734966
:100860000860704720B901214FF04022516010E02C
:10087000012803D10121634A51600AE0022803D113
:100880000121614A516004E0032802D101215F4A3D
:100890005160704720B900214FF04022516010E0B4
:1008A000012803D10021574A51600AE0022803D1F0
:1008B0000021554A516004E0032802D10021524A28
:1008C00051607047014631B94FF04022506840F006
:1008D0000200506016E0012905D14A4A506840F0F4
:1008E000020050600EE0022905D1474A506840F0EE
:1008F0000200506006E0032904D1444A506840F0E9
:1009000002005060704770B505460C46F5B90020EE
:10091000474908604748006840F002004549C4392B
:10092000C1F8C4004FF04020406840F002004FF092
:10093000402148604EF65F20C8600846846103206D
:100940004861012000F050F8012070BD012D1CD13C
:100950000020394908603748006840F004003549F4
:10096000C439C1F8C4002748406840F00200254956
:1009700048604EF65F20C8600846846103204861E5
:10098000022000F031F80120DFE7022D13D1002012
:10099000254908602748006840F480002549C4398B
:1009A000C1F8C4001848846103201749486100F069
:1009B0001BF80120C9E7032D14D100201B49086052
:1009C0001C48006840F400001A49C439C1F8C4004A
:1009D0000E48846103200D494861042000F004F8AA
:1009E0000120B2E70020B0E700F01F020121914092
:1009F0004209920002F1E022C2F8001170470000A3
:100A00006C010010008000400000094000400940D7
:100A10001001001010000010EA0000101403001074
:100A20009C0B001011000010080000100C000010BA
:100A300000000010C4C00F400400001008B5B0B1A1
:100A4000F949896941F00101F74A916142F2107157
:100A5000009108E0F449896941F40061F24A91612A
:100A60000099491E009100990029F3D115E0EE4943
:100A7000896921F40061EC4A916142F210710091A0
:100A800002E00099491E009100990029F9D1E64938
:100A9000896921F00101E44A916108BDE34A00211E
:100AA00002E008C808C2491C8029FAD3704750B533
:100AB00006460C4600BF2720DD490860DD49C1F825
:100AC0001801DD490860091D0860091D0860DA4940
:100AD0004C390860091D0860091D0860091D08607F
:100AE000091D0860091D0860D34918310860D24902
:100AF00034390860091D0860091D0860091D086077
:100B0000CD4914390860CC4908390860CA49103900
:100B10000860C849C1F81001C848006A40F00200E6
:100B2000C64908620846806B40F0040088630846A6
:100B3000006840F0020008600846806940F02A0022
:100B40008861BF48D0F8C40040F00100BC49C1F83A
:100B5000C400BC48006820F00100BA4908600020C9
:100B6000B14988610846806920F00E008861084616
:100B7000806940F00C0088610846806940F02000E0
:100B800088610846806920F0800088610846806995
:100B900020F4807088610846806920F400708861C4
:100BA0000846806920F4806088610846806920F4E6
:100BB00000608861A4480068A449B0FBF1F0A04936
:100BC000C1F8B8019848806840F080609649886014
:100BD0000846806820F0200088600846806840F45D
:100BE000006088600846806840F48050886008464D
:100BF000806820F4005088600846806820F48040B7
:100C0000886008468068924908408749886008469D
:100C1000806890490843844988600020086008463D
:100C2000006840F01C5008600846006840F48020CE
:100C300008600846006840F4807008600846006854
:100C400040F074000860002048600846406840F0AA
:100C5000006048600846406840F40020486008464C
:100C6000406840F4806048600846406840F20F11D8
:100C700008436D49486078480861486114B12046CE
:100C8000FFF70CFF50BD744A002102E022F8020B6E
:100C9000491CB1F5FF3FF9D3704730B56E4BB0F545
:100CA000F07F02DAB1F5887F00DB30BDC1EB0115C2
:100CB00000EB451403EB44031A8000BFF5E72DE970
:100CC000F04F04460D4691469A46DDF824B04C4557
:100CD00003DD0FFA89F7A146BCB2554503DD0FFAD3
:100CE0008AF7AA46BDB2A9EB04000FFA80F8AAEB76
:100CF000050006B2B8F1000F0BD100BF5A462946D5
:100D00002046FFF7CAFF681C85B2AA45F6DABDE89F
:100D1000F08F56B900BF5A4629462046FFF7BDFF5F
:100D2000601C84B2A145F6DAF1E7B04521DDC8EBDD
:100D3000460007B215E05A4629462046FFF7ADFFA8
:100D4000601C84B2002F08DD681C85B2700002218F
:100D500001FB1800384407B203E0022000FB0670D4
:100D600007B24C45E7D15A4629462046FFF795FF82
:100D700020E0C6EB480007B215E05A462946204657
:100D8000FFF78BFF681C85B2002F08DD601C84B262
:100D90007000022101FB1800384407B203E0022072
:100DA00000FB067007B25545E7D15A462946204652
:100DB000FFF773FF00BFAAE72DE9F84105460E468D
:100DC00017469846079CA0B233463A4631460090F3
:100DD0002846FFF774FFA0B243463A4641460090CA
:100DE0002846FFF76CFFA0B243462A4631460090E2
:100DF0002846FFF764FFA0B243463A4631460090CA
:100E00003846FFF75CFFBDE8F8812DE9F0411C464C
:100E1000069FC1EB011CDFF8408008EB8C1C0CEB3B
:100E2000400300262AE000000080082000820820FD
:100E300074C2024000C002401CC102400080092070
:100E400000C00F40008C08206C0100109C997400B9
:100E5000FFFF00FC0000DF01000001A0002502E010
:100E600023F8027B6D1CA2EB000CAC45F8D8A2EB7A
:100E7000000CCCF5F07C03EB4C03761CA4EB010CCE
:100E8000B445EBD8BDE8F0812DE9F04704460D46A6
:100E90001746784200214FEA4708C8F10202F94E8E
:100EA00000BFA4EB000805EB01094FF4F07A0AFB40
:100EB000098846F8283004EB000805EB01090AFB15
:100EC000098846F8283004EB0008A5EB01090AFB65
:100ED000098846F82830A4EB0008A5EB01090AFBB5
:100EE000098846F8283094468C450DDC01F101084C
:100EF00041464FF0010909EB48084244C84203D17A
:100F0000844501DC4FF0000C844507DD00F1010849
:100F100040464FF0010909EB480842440028C0DD73
:100F2000BDE8F08770B505460E461446A2B23146BC
:100F30002846FFF7B2FE70BD2DE9FF5F06460F465B
:100F400090469946DDF838B04146684600F0A8FC66
:100F500000241DE01DF804A0002516E0C5F10700DF
:100F60004AFA00F000F0010038B13A1991B2721952
:100F700090B24A46FFF791FE06E03A1991B2721913
:100F800090B25A46FFF789FE6D1C082DE6D3641C0B
:100F9000102CDFD3BDE8FF9F2DE9FE4F06460F461C
:100FA00090469946DDF830B04146684600F085FC31
:100FB000002415E01DF804A000250EE0C5F107008F
:100FC0004AFA00F000F0010030B13A1991B27219FA
:100FD00090B24A46FFF761FE6D1C082DEED3641CEB
:100FE0000C2CE7D3BDE8FE8F2DE9F84305460E46ED
:100FF00014469846DDF8209000BF14F8017B434664
:101000003A4631462846CDF80090FFF795FFB5F5F2
:10101000EC7F03DA05F1080085B208E0FF2E04DC5E
:10102000002506F1100086B201E000250026207898
:101030000028E2D1BDE8F8832DE9FF4F0746884636
:101040009B463C464546BA4646464FF0000915E0E9
:10105000A4F1140188B22946029AFFF71EFE601C13
:1010600084B2A6F1140081B25046029AFFF715FE31
:10107000701C86B209F101001FFA80F9B9F1280F3E
:10108000E6DB3C464546BA4646464FF000092BE0B3
:10109000A5F1140291B2A4F1140290B25A46FFF7DE
:1010A000FCFD05F1140291B2A4F1140290B25A466B
:1010B000FFF7F3FD601C84B2A6F1140291B2AAF10D
:1010C000140290B25A46FFF7E8FDA6F1140291B25D
:1010D0000AF1140290B25A46FFF7DFFD701C86B287
:1010E00009F101001FFA80F9B9F10A0FD0DB3C4683
:1010F0004546BA4646464FF000092BE0A5F11402DA
:1011000091B204F10A0290B25A46FFF7C6FD05F10A
:10111000140291B204F10A0290B25A46FFF7BDFDE3
:10112000601C84B206F10A0291B2AAF1140290B2D4
:101130005A46FFF7B2FD06F10A0291B20AF1140213
:1011400090B25A46FFF7A9FD701C86B209F1010062
:101150001FFA80F9B9F10A0FD0DBBDE8FF8F10B597
:101160000246002112E001EB8110474B185C137816
:10117000984209D1507801EB8113434C23445B78AA
:10118000984201D1084610BD481C81B20029EAD01E
:101190000020F8E710B50246002114E001EB011031
:1011A0003A4B13F81000137898420AD1507801EBAB
:1011B0000113364C04EB43035B78984201D1084697
:1011C00010BD481C81B2B229E8D30020F8E72DE910
:1011D000F04F04460F4615469846A3464FF00009C7
:1011E00000262FE0099810F806904FF0000A23E03F
:1011F00009F0800038B12648008882B2394620467E
:10120000FFF74BFD06E02248808882B2394620462F
:10121000FFF743FD4FEA49604FEA1069601C84B252
:10122000A4EB0B00A84203D15C46781C87B206E011
:101230000AF1010000F0FF0ABAF1080FD8DB00BF85
:10124000701C86B205FB08F0C11700EB5171B6EBBC
:10125000E10FC7DBBDE8F08F2DE9F04F0546894669
:1012600092469B46A8460026BBF1000F3CD10024C5
:1012700037E00AEB0A10054901EB4000801C065DCF
:10128000002729E0000001A0B46B0400F56B040006
:101290001400001006F0800038B1FD48008882B2CA
:1012A00049462846FFF7F9FC06E0F948808882B2F3
:1012B00049462846FFF7F1FC7006060E681C85B209
:1012C000A5EB0800102805D1454609F101001FFAD9
:1012D00080F903E0781CC7B2082FDBDB00BF601C7D
:1012E000C4B2202CC5DB33E000242FE00AEB0A1047
:1012F000E84901EB4000801C065D002721E006F074
:10130000800038B1E248808882B249462846FFF71B
:10131000C4FC06E0DE48008882B249462846FFF752
:10132000BCFC7006060E681C85B2A5EB08001028F0
:1013300005D1454609F101001FFA80F903E0781C48
:10134000C7B2082FDBDB00BF601CC4B2202CCDDB92
:10135000BDE8F08F2DE9F04F0546894692469B4641
:10136000A8460026BBF1000F33D100242EE00AEB83
:101370008A10C9490844801C065D002721E006F058
:10138000800038B1C248008882B249462846FFF73B
:1013900084FC06E0BE48808882B249462846FFF7B2
:1013A0007CFC7006060E681C85B2A5EB08001828A8
:1013B00005D1454609F101001FFA80F903E0781CC8
:1013C000C7B2082FDBDB00BF601CC4B23F2CCEDBF2
:1013D00032E000242EE00AEB8A10AF490844801C5A
:1013E000065D002721E006F0800038B1A84880881B
:1013F00082B249462846FFF750FC06E0A448008820
:1014000082B249462846FFF748FC7006060E681C63
:1014100085B2A5EB0800182805D1454609F1010061
:101420001FFA80F903E0781CC7B2082FDBDB00BF8E
:10143000601CC4B23F2CCEDBBDE8F08FF0B5044693
:101440000D4616461F463B46224631462846FFF7C4
:1014500081FF1820F0BDF0B504460D4616461F4624
:101460003B46224631462846FFF7F6FE1220F0BDE5
:101470002DE9F84306460D4614461F464FF0000876
:10148000C14654E0207800B952E006EB090086B26C
:10149000207880281ADD06F11800B0F5F07F07DD0E
:1014A000002605F1160085B2B5F5887F00DD002520
:1014B0002046FFF754FE1FFA80F83B462A46314685
:1014C0004046FFF7BBFF8146A41C2FE020780D2883
:1014D0000AD105F1160085B2B5F5887F00DD00253B
:1014E000641C4FF0000922E020780A2804D100266D
:1014F000641C4FF000091AE006F10C00B0F5F07F13
:1015000007DD002605F10C0085B2B5F5887F00DD0A
:1015100000255F48808880B200905D48008883B2D3
:10152000227829463046FFF707FD641C00BFA9E773
:1015300000BFBDE8F8832DE9F84305468846144608
:1015400000263FE0207800B93DE02078302807DB16
:101550002078392804DC207830381FFA80F919E027
:1015600020782E2802D14FF00A0913E020782D2888
:1015700002D14FF00B090DE02078202802D14FF066
:101580000C0907E02078562802D14FF00D0901E040
:101590004FF00E094FEA4917F81707EB5070C010CB
:1015A00000EBC001C1EB80103C490844A919009030
:1015B00088B2372320224146FFF709FE641C06F15A
:1015C000200086B2BEE700BFBDE8F8832DE9F843EE
:1015D00006460D4614461F464FF00008C14656E029
:1015E000207800B95CE006EB090086B220788028FC
:1015F0001ADD06F11000B0F5F07F07DD002605F1D9
:10160000100085B2B5F5887F00DD00252046FFF784
:10161000C1FD1FFA80F83B462A4631464046FFF797
:101620001AFF8146A41C31E020780D280AD105F16B
:10163000100085B2B5F5887F00DD0025641C4FF0F1
:10164000000924E020780A2804D10026641C4FF009
:1016500000091CE006F10800B0F5F07F07DD002668
:1016600005F1100085B2B5F5887F00DD002508483A
:10167000808880B200900648008883B2227829468C
:101680003046FFF759FC641C4FF00A0900BFA7E77A
:1016900014000010F56B0400B46B0400A9A404004E
:1016A00000BFBDE8F8832DE9F84306460D46144611
:1016B0001F464FF00008C14656E0207800B954E0BC
:1016C00006EB090086B2207880281ADD06F11000AA
:1016D000B0F5F07F07DD002605F1100085B2B5F505
:1016E000887F00DD00252046FFF754FD1FFA80F8B3
:1016F0003B462A4631464046FFF7ADFE8146A41CD4
:1017000031E020780D280AD105F1100085B2B5F539
:10171000887F00DD0025641C4FF0000924E020785C
:101720000A2804D10026641C4FF000091CE006F1D1
:101730000800B0F5F07F07DD002605F1080085B24E
:10174000B5F5887F00DD00255248808880B2009082
:101750005048008883B2227829463046FFF71CFCA7
:10176000641C4FF0080900BFA7E700BFBDE8F8837D
:10177000F0B504461D46062A00DD0A2202B9012200
:10178000052900DD0521914200DD1146002004E01D
:101790002026414F3E54461CF0B20C28F8D3104688
:1017A0000FE00A26B4FBF6F706FB17463036471E55
:1017B000DFF8E4C00CF807600A26B4FBF6F4461E16
:1017C000F0B20028EDDC89B11346084605E05E1E44
:1017D000314FBE5DFE545E1EF3B2061EA0F101073E
:1017E000F8B2F4D12E262C4FFE5402E020262A4FC8
:1017F000BE54A5B900200EE0274E365C302E07D12E
:10180000254F461CBE5D2E2E02D020263E5400E001
:1018100004E0461CF0B2561E8642EDDC00BF561CAA
:10182000F2B2104604E000261B4F3E54461CF0B2B4
:101830000C28F8D3F0BD30B5184A00210BE08478AD
:10184000457844EA0524057844EA054308C2401C6B
:10185000401C401C491CB1F5FF3FF0D330BD70B5B2
:101860000E4B002112E000220CE005782D04467892
:1018700045EA0625867845EA060410C3401C401C4C
:10188000401C521CB2F5F07FEFD3491CB1F5887FA4
:10189000E9D370BD140000107C0F0010000001A0FF
:1018A00070B505460C46A4F120000B4A02EB00116E
:1018B000102228461AF0FFFC70BDA1F1200202EBB5
:1018C0004202064B03EB82021368036053684360D5
:1018D000926882607047000099830400898904003F
:1018E0003EB5054642F669201EF0AFFB00241DE020
:1018F000F74841000322CDE900210290601C00EB73
:101900004000042202EB0010062202FB040304EB59
:101910004400042202EB0010062202FB04014FF4F3
:10192000EE724FF4BE701EF065F8641C052CDFD318
:101930003EBD10B542F66920E64948604FF6FF709B
:1019400008600023E4A2F1215420FFF73FFE0023AA
:10195000E3A2F121A420FFF739FE10BD70B50546C2
:1019600042F66920DB4948604FF6FF700860A5B970
:1019700000240FE004EB4401DB4B03EB410204EBDA
:101980008401542303EB01100023F121FFF71EFE15
:10199000601CC4B2052CEDDB14E0002410E0611DD6
:1019A00001EB4101D04B03EB410204EB84015423D2
:1019B00003EB01100023F121FFF708FE601CC4B205
:1019C000052CECDB70BD10B542F66920C1494860BA
:1019D0004FF6FF7008600023C4A2F1215420FFF7E6
:1019E000F5FD10BD10B542F66920BA4948604FF6C2
:1019F000FF7008600023C0A2F1215420FFF7E6FD2C
:101A000010BD10B50446002C39D14FF6FF70B14916
:101A1000086042F6692048600023B8A2E7215420FC
:101A2000FFF7D4FD0023B7A2FB215420FFF7CEFD22
:101A30000023B2A2E721A420FFF7C8FD0023B3A230
:101A4000FB21A420FFF7C2FD0023B2A2E721F4206E
:101A5000FFF7BCFD0023ADA2FB21F420FFF7B6FD8C
:101A60000023ACA2E7214FF4A270FFF7AFFD0023E3
:101A7000AAA2FB214FF4A270FFF7A8FD2EE0012CD3
:101A80002CD14FF6FF709349086042F669204860F8
:101A90000023A4A2E7215420FFF798FD0023A3A26E
:101AA000FB215420FFF792FD0023A2A2E721A420EE
:101AB000FFF78CFD0023A1A2FB21A420FFF786FDE8
:101AC0000023A0A2E7214FF4CA70FFF77FFD002397
:101AD0009EA2FB214FF4CA70FFF778FD10BD10B530
:101AE0004FF6FF707B49086042F66920486000238A
:101AF00098A2E7215420FFF769FD002397A2FB215C
:101B00005420FFF763FD002396A2F1214FF4A27049
:101B1000FFF75CFD002396A2F1214FF4CA70FFF796
:101B200055FD10BD10B504460CB1012C33D14FF654
:101B3000FF706849086042F66920486000238FA260
:101B4000F1215420FFF742FD00238FA2E721A420BA
:101B5000FFF73CFD00238EA2FB21A420FFF736FDFA
:101B600000238DA2E721F420FFF730FD002388A297
:101B7000FB21F420FFF72AFD00237AA2F1214FF484
:101B8000A270FFF723FD002379A2F1214FF4CA7060
:101B9000FFF71CFD26E04FF6FF704E49086042F645
:101BA00069204860002375A2F1215420FFF70EFD43
:101BB000002377A2E721A420FFF708FD002378A2E5
:101BC000FB21A420FFF702FD002366A2F1214FF4C0
:101BD000A270FFF7FBFC002365A2F1214FF4CA704D
:101BE000FFF7F4FC10BD10B50446002C39D14FF6B8
:101BF000FF703849086042F66920486000233FA220
:101C0000E7215420FFF7E2FC00233EA2FB215420F1
:101C1000FFF7DCFC002339A2E721A420FFF7D6FC64
:101C200000233AA2FB21A420FFF7D0FC002339A215
:101C3000E721F420FFF7CAFC002334A2FB21F420A3
:101C4000FFF7C4FC002333A2E7214FF4A270FFF793
:101C5000BDFC002331A2FB214FF4A270FFF7B6FCBC
:101C600034E0012C32D14FF6FF701A49086042F679
:101C70006920486000232BA2E7215420FFF7A6FC2F
:101C800000232AA2FB215420FFF7A0FC002321A25D
:101C9000E721A420FFF79AFC00231CA2FB21A4202B
:101CA000FFF794FC002340A2F121F420FFF78EFC03
:101CB000002324A2E7214FF4CA70FFF787FC00231A
:101CC00022A2FB214FF4CA70FFF780FC10BD000078
:101CD0004040400014000010206DCEA920200000DC
:101CE00020CEA920000000006F30050020E7A1AE43
:101CF000E8AEA420000000002A310000E6B58BE920
:101D0000878F0000E698BEE7A4BA0000E8AEBEE701
:101D1000BDAE0000E7B3BBE7BB9F0000E4BFA1E698
:101D200081AF0000E69687E4BBB60000E7AEA1E70E
:101D300090860000E4BF9DE5AD980000E695B0E612
:101D40008DAE0000E69BB4E5A49A000020322F324D
:101D500000000000E6B885E999A40000E8A1A8E623
:101D6000A0BC0000E4B88AE4B880E9A1B500000096
:101D7000E4B88BE4B880E9A1B5000000E588A0E9EB
:101D800099A4E8A18C000000E7BABFE680A7000094
:101D9000E887AAE58AA80000E5AFB9E695B000009B
:101DA000E5A48DE588B60000E5B7A5E585B7000098
:101DB00010B54FF6FF70FC49086042F66920486094
:101DC0000023AFF2C802E7215420FFF7FFFB0023F6
:101DD000AFF2D002FB215420FFF7F8FB0023AFF253
:101DE000E402E721A420FFF7F1FB0023AFF2E402B5
:101DF000FB21A420FFF7EAFB0023AFF2E802E72172
:101E0000F420FFF7E3FB0023AFF20012FB21F420E4
:101E1000FFF7DCFB0023AFF20412E7214FF4A270BE
:101E2000FFF7D4FB0023AFF20C12FB214FF4A2709A
:101E3000FFF7CCFB10BD38B504460020182340F254
:101E4000E11201460090FEF7E0FF0020D64948600D
:101E50004FF6FF7008600023D4A203210420FFF78F
:101E6000B5FB38BD08B543F6AC101EF0EEF8052002
:101E7000FD234FF4BA725C21009004201DF088FE0F
:101E800008BD10B504464AF2FF501EF0DEF8C948FE
:101E90001EF0ECF81823C022002108461DF04CFE6D
:101EA00000201EF0D2F802201EF01EF9C24901EBFC
:101EB0000410022200211DF05FFD10BD10B50020AE
:101EC000FFF7DFFFFFF7CEFF10BD7CB50546002012
:101ED0001EF00AF942F669201EF0ACF86FF07F4060
:101EE0001EF0B3F800242EE04FF4BE70ADF80000F1
:101EF00004EB4400042101EB0010062101FB040067
:101F000000B2ADF802004FF4EE70ADF80400601CB2
:101F100000EB4000042101EB0010062101FB04004E
:101F200000B2ADF80600C4EBC401A44A02EB810183
:101F3000A34A1278C2EBC20201EB42000E226946AC
:101F40001DF02EFD641C052CCED37CBD10B5FFF713
:101F5000B5FF0020FFF7C4FC0020FFF7B6FF002408
:101F60001FE0032C0ED2974800EB0412601C00EB1C
:101F700040001A2303EBC00081B200230420FFF7C6
:101F800025FB0DE08F4800EB0412A01E00EB400083
:101F90001A2303EBC00081B20023B820FFF716FB21
:101FA000641C062CDDD310BD08B543F6AC10BE236F
:101FB00040F2DF12702100900020FEF726FF08BDDE
:101FC00010B50020FFF737FFFFF7EEFF10BD08B593
:101FD00043F6AC10A02340F2DF12562100900020FF
:101FE000FEF713FF43F6AC10E32340F2DF12C121EA
:101FF00000900020FEF709FF08BD10B50020FFF794
:102000001AFFFFF7E4FF10BD08B543F6AC10A0239C
:1020100040F2DF12602100900020FEF7F6FE08BDBE
:1020200010B50020FFF707FFFFF7EEFF10BD10B55A
:10203000FFF7F6FF4FF6FF705B49086040F23F2064
:1020400048600023604A04211846FFF7BFFA4FF6A4
:10205000FF70554908605D48486000235CA21A2162
:102060000420FFF7B3FA00235CA232212C20FFF7F3
:10207000ADFA00235CA232219020FFF7A7FA0023DB
:102080005CA23221F420FFF7A1FA00235BA23221E7
:102090004FF4AC70FFF79AFA00235AA232214FF4A2
:1020A000DE70FFF793FA0020FFF7ABFC10BD70471E
:1020B00000B5FFF7FCFF00BD10B50120FFF710FCD5
:1020C0000520FFF7DEFE4FF6FF701DF0BEFF3F4814
:1020D0001DF0B0FF002422E0042C0FD24A4901EB8E
:1020E0004411374B1B7801EB031004EB4401C9008A
:1020F00001F11A0204211DF03FFC0FE0424901EBFF
:1021000044112F4B1B7801EB0310211F01EB410100
:10211000C90001F11A02B8211DF02EFC641C072C25
:10212000DAD310BD70B50120FFF7DAFB0120FFF70D
:10213000A8FE4FF6FF701DF088FF24481DF07AFFBF
:102140001F4890F8360000EB80011D48383050F8E9
:1021500031002E490D5C00247FE004F0010008BB33
:10216000174991F8361001EB81031549383151F8C0
:1021700033104D235943264B03EB8101C4EBC403B9
:1021800001EB83010E4B1B78C3EBC30301EB430050
:10219000610801EB4101C90001F11A0204211DF09F
:1021A000EBFB59E036E00000140000105A43746560
:1021B0006B0000002C6B05009F2A0500132A050008
:1021C000C80F0010251C0500512B05003366CC00FC
:1021D000E696B9E5BC8F203A00000000E9A291E73D
:1021E0008E875B487A5D0000E794B5E5B9B35B562E
:1021F0005D00000043705B465D000000445B205DB5
:1022000000000000434D50005CD40400ACD3040037
:10221000D8DA0400FE4991F8361001EB8103FC493D
:10222000383151F833104D235943FA4B03EB8101F8
:10223000C4EBC40301EB8301F54B1B78C3EBC30371
:1022400001EB4300611E01EB4101C9001A2303EBBE
:102250005102B8211DF090FB641CAC42FFF47DAF2D
:1022600070BD2DE9F8430446204623F0F5FC0546F1
:102270000022E94B23F084FE0BD2E84C41F29C3063
:10228000ADF8000002208DF8020001208DF8030057
:1022900080E0204623F0E0FC05460022E04B23F0DE
:1022A0006FFE14D8204623F0D7FC05460022DD4BF4
:1022B00023F0CAFA074623F08BFC80B2ADF8000089
:1022C00002208DF8020001208DF8030062E0204614
:1022D00023F0C2FC05460022D34B23F051FE14D854
:1022E000204623F0B9FC05460022D04B23F0ACFA7F
:1022F000074623F06DFC80B2ADF8000003208DF896
:10230000020001208DF8030044E0204623F0A4FCE5
:1023100005460022C64B23F033FE14D8204623F096
:102320009BFC05460022C34B23F08EFA074623F0A0
:102330004FFC80B2ADF8000001208DF802000020B3
:102340008DF8030026E0204623F086FC0546002297
:10235000B44B23F015FE14D8204623F07DFC05462F
:102360000022B54B23F070FA074623F031FC80B20F
:10237000ADF8000002208DF8020000208DF8030067
:1023800008E0A0B2ADF8000003208DF802000020A4
:102390008DF803000098BDE8F8832DE9F843044662
:1023A000204623F059FC054600229B4B23F0E8FD14
:1023B0000AD29A4C41F29C30ADF8000002208DF810
:1023C00002008DF803007EE0204623F045FC054620
:1023D0000022934B23F0D4FD14D8204623F03CFC7C
:1023E000054600228F4B23F02FFA074623F0F0FB1F
:1023F00080B2ADF8000002208DF8020003208DF8B5
:10240000030060E0204623F027FC05460022864BAF
:1024100023F0B6FD14D8204623F01EFC054600220A
:10242000824B23F011FA074623F0D2FB80B2ADF8BD
:10243000000001208DF8020002208DF8030042E028
:10244000204623F009FC05460022794B23F098FD35
:1024500014D8204623F000FC05460022734B23F0DD
:10246000F3F9074623F0B4FB80B2ADF80000012079
:102470008DF8020002208DF8030024E0204623F0AE
:10248000EBFB05460022674B23F07AFD13D820466C
:1024900023F0E2FB05460022664B23F0D5F9074600
:1024A00023F096FB80B2ADF8000002208DF8020008
:1024B0008DF8030007E0A0B2ADF8000001208DF810
:1024C00002008DF803000098BDE8F88338B5044693
:1024D0005A481DF0BAFD5A481DF0ACFD59481DF090
:1024E000C5FD00201DF000FE5749002304220868A6
:1024F0000321FFF73DF955A1554819F0D0FE04EB33
:102500008400800000F12802502151481DF034FA67
:102510003F4890F8360000EB80013D48383050F8D5
:102520003100052872D2DFE800F0030453BEEF004B
:1025300000BF454840684FF6FF71884206D14448C5
:1025400044A10A6802608988818033E03048C08DE8
:1025500001281CD13C4842682D4890F83610491E8D
:1025600000F5FD7030F81100824203D20020364998
:1025700048600CE034484268254890F83610491EFF
:1025800000F5FD7030F81100101A2F4948603348EB
:102590000078012807D12C49002304224868032130
:1025A000FFF7E6F806E028490023042248680221E4
:1025B000FFF7DEF82AA1264819F071FE04EB84002B
:1025C000800000F12802A02121481DF0D5F99DE0EE
:1025D0001D4840682349884206D11D4822A10A6847
:1025E00002604968416058E017494868FFF7D5FE26
:1025F00000902048009901600246917810880023DD
:102600000422FFF7B5F81B48C07835E07DE00000F4
:10261000C80F0010D8DA040084D7874180F0FA028E
:10262000D01263410088C34080842E4100408F4017
:10263000006AF8400000594000002440FFFF80007D
:102640003366CC002C6B0500140300106B560000A1
:102650007C0F00105550504552000000EB00001058
:102660006D412000F6FF09005550504552202020B2
:10267000000000001C00001000EB4000FE4A02EBCE
:102680004001FE4819F00BFE04EB8400800000F1CD
:102690002802A021F9481DF06FF996225A21F74827
:1026A0001DF06AF932E0F64840684FF6FF71884243
:1026B00007D1F248AFF250010A68026049684160F0
:1026C0000EE0EF494868FFF7CCFD0090ED48009917
:1026D000016002469178108800230422FFF748F831
:1026E000E848C07800EB4000E74A8118E34819F059
:1026F000D6FD04EB8400800000F12802A021DF4811
:102700001DF03AF902E0FFE700E000BF00BFDC493E
:102710000889002304220121FFF72AF8DBA1D7480A
:1027200019F0BDFDDC225421D4481DF025F938BD37
:102730002DE9F8430446204623F08EFA0546002290
:10274000D34B23F01DFC13D8204623F085FA054611
:102750000022D04B23F078F8074623F039FA80B2F4
:10276000ADF8000002208DF802008DF8030025E08E
:10277000204623F071FA05460022C74B23F000FCE7
:1027800013D8204623F068FA05460022C34B23F0F5
:102790005BF8074623F01CFA80B2ADF80000022077
:1027A0008DF802008DF8030008E0A0B2ADF800003B
:1027B00003208DF8020001208DF803000098BDE889
:1027C000F88338B50120FFF78BF80620FFF759FB97
:1027D0006FF07F401DF039FCB1481DF047FC00242C
:1027E0000FE0B04A02EB4412AF4B1B7802EB031030
:1027F00004EB8402642303EB021128221DF0BCF8D1
:10280000641C032CEDD3A9481DF030FC00241EE00D
:10281000601C00EB80008000283002B202231421EB
:10282000601C1DF001F8611C01EB8101890001F1C0
:102830002802611C01EB81039B49383151F83310A8
:102840009B4B03EBC10032211DF096F8641C9648A7
:1028500090F83500A042DBD896481DF0F6FB904872
:102860001DF004FC002468E0611C01EB81028E492C
:10287000383101EBC2010023042248680321FEF72E
:1028800077FFAFF238217D4819F009FD601C00EB9D
:102890008000800000F12802502178481DF06CF87B
:1028A000611C01EB81028049383101EBC20188686B
:1028B000FFF73EFF00909DF80210BDF800000023D6
:1028C0000422FEF755FF601C00EB8001764838308B
:1028D00050F8310040B1601C00EB80017248383084
:1028E00050F83100012804D17349644819F0D7FC2D
:1028F00013E0601C00EB80016B48383050F8310069
:1029000002280AD19DF803006B4A103A02EB00102E
:1029100000F10801594819F0C2FC601C00EB80006E
:10292000800000F12802A02154481DF025F86422FF
:102930001146EA201CF064FF641C5B4890F83500E7
:10294000A04291D856481DF091FB38BD38B5012002
:10295000FEF7C6FF0020FFF794FA6FF07F401DF0EE
:1029600074FB56481DF066FB002448E004F00100AB
:1029700010BB4D4991F8361001EB81034A493831BB
:1029800051F833104D2359434D4B03EB8101C4EBF8
:10299000C40301EB8301444B1B78C3EBC30301EB7E
:1029A0004300611C490801EB4101C90001F11A0211
:1029B00004211CF0E1FF21E03B4991F8361001EBC6
:1029C00081033949383151F833104D2359433C4B79
:1029D00003EB8101C4EBC40301EB8301324B1B7891
:1029E000C3EBC30301EB4300611E490801EB410146
:1029F000C90001F11A02B8211CF0BEFF641C0B2CA7
:102A0000B4D36FF07F401DF020FB274890F835309D
:102A100090F836202BA1194819F0DCF91A2264210C
:102A200016481CF0A9FF204991F8361001EB8102ED
:102A30001D49383151F832101D4A02EBC1001A22EB
:102A40004FF48C711CF098FF174890F8360000EB9B
:102A500080011548383050F8310005287ED2DFE873
:102A600000F003FEFDFCFB000F4991F8361001EB6E
:102A700081020D49383129E07B2F05007C0F0010C1
:102A8000140300101C000010AB3005002073000080
:102A9000006AF8400000594000409F400000244078
:102AA0002C6B0500FCD30400C80F00103420060076
:102AB0002C140500FFFF8000841405003366CC0051
:102AC000DCE0040025642F256400000001EBC20156
:102AD0000023042248680321FEF74AFEAFF2944126
:102AE000F84819F0DCFB32226421F6481CF044FF60
:102AF000F54890F8360000EB8001F348383000EBE1
:102B0000C100C068C0B1F04991F8361001EB8102F4
:102B1000ED49383101EBC20100230422C8680121CC
:102B2000FEF726FEE9A1E74819F0B9FB4A22642125
:102B3000E4481CF021FF08E0E3490978E44A02EB8D
:102B4000C1004A2264211CF017FFDF48C08B90B3FC
:102B5000DD4890F8360000EB800100E0EAE3DA4857
:102B6000383000EBC1008069D8B1D74890F8360002
:102B700000EB8001D448383000EBC100806909289F
:102B80000FD8D14991F8361001EB8102CE49383186
:102B900001EBC20101236222886964211CF044FE1A
:102BA00037E0C9490978CB4A02EBC10062226421AF
:102BB0001CF0E2FE2DE0FFE7C34890F8360000EB82
:102BC0008001C148383000EBC1008069C0B1BE4906
:102BD00091F8361001EB8102BB49383101EBC2019B
:102BE0000023032288690121FEF7C2FDBAA1B5487E
:102BF00019F055FB62226421B2481CF0BDFE08E0CA
:102C0000B1490978B34A02EBC100622264211CF089
:102C1000B3FEAD4991F8361001EB8102AA49383173
:102C200001EBC2018868FFF783FD00909DF8021058
:102C3000BDF8000000230422FEF79AFDA749A14831
:102C400019F02DFB32224FF48C719E481CF094FE3B
:102C50009D4890F8360003E081E3A2E2C7E161E01D
:102C600000EB80019848383000EBC1000069F8B1F2
:102C7000954991F8361001EB81029349383101EB07
:102C8000C2010869FFF754FD00909DF80210BDF8DD
:102C9000000000230422FEF76BFD9049894819F0DB
:102CA000FEFA4A224FF48C7186481CF065FE09E05A
:102CB00085490978874A02EBC1004A224FF48C719A
:102CC0001CF05AFE4FF6FF701DF0BFF984481DF04E
:102CD000B1F900201DF008FA82481DF0C7F97822EA
:102CE000282181A01CF048FE7822F021AFF2A460D8
:102CF0001CF042FEAA2228217CA01CF03DFEAA2244
:102D0000F02175A01CF038FE79481DF0AFF9F322D0
:102D1000342178A01CF030FEF3228C216BA01CF033
:102D20002BFE67E3684991F8361001EB8102664992
:102D3000383101EBC2010023042248680321FEF769
:102D400017FDAFF2F8615F4819F0A9FA3222642149
:102D50005C481CF011FE5C4890F8360000EB8001E6
:102D60005948383000EBC100C068C0B1564991F8ED
:102D7000361001EB81025449383101EBC2010023C6
:102D80000422C8680121FEF7F3FC50A14D4819F058
:102D900086FA4A2264214B481CF0EEFD08E04A49BD
:102DA00009784B4A02EBC1004A2264211CF0E4FD81
:102DB000454991F8361001EB81024349383101EB66
:102DC000C2018868FFF7B4FC00909DF80210BDF8BE
:102DD000000000230422FEF7CBFC4049394819F0DB
:102DE0005EFA32224FF48C7136481CF0C5FD36482D
:102DF00090F8360000EB80013348383000EBC1001A
:102E00000069F8B1304991F8361001EB81022E4982
:102E1000383101EBC2010869FFF78AFC00909DF888
:102E20000210BDF8000000230422FEF7A1FC2B498C
:102E3000244819F034FA4A224FF48C7121481CF0CE
:102E40009BFD09E020490978224A02EBC1004A2291
:102E50004FF48C711CF090FD1B48C08B80B31A4856
:102E600090F8360000EB80011748383000EBC100C5
:102E70008069D8B1144890F8360000EB8001124800
:102E8000383000EBC100806909280FD80E4991F84D
:102E9000361001EB81020C49383101EBC2010123EC
:102EA0006222886964211CF0BFFC6BE00649097846
:102EB000084A02EBC100622264211CF05DFD61E062
:102EC0001AE000007C0F0010C80F00107300000013
:102ED0001C1405002C1305006D410000841405002E
:102EE0003366CC008CC50500563A0000493A000014
:102EF0002C6B050054203A00FE4890F8360000EB99
:102F00008001FC48383000EBC100806980B3F9488B
:102F100090F8360000EB8001F648383000EBC10035
:102F20008069C8280AD9C821F24890F8360000EB19
:102F30008002F048383000EBC2008161ED4991F821
:102F4000361001EB8102EB49383101EBC20100235D
:102F5000032288690121FEF70BFCAFF28401E648E9
:102F600019F09DF962226421E3481CF005FD09E097
:102F7000FFE7E0490978E14A02EBC10062226421DF
:102F80001CF0FAFC4FF6FF701DF05FF8DC481DF0F6
:102F900051F800201DF0A8F8DA481DF067F87822F3
:102FA0002821AFF2BC001CF0E7FC7822F021AFF63C
:102FB00064101CF0E1FCAA222821AFF2D0001CF022
:102FC000DBFCAA22F021AFF2F0001CF0D5FCCE48C9
:102FD0001DF04CF8F3223421AFF2E8001CF0CCFCD9
:102FE000F3228C21AFF21C101CF0C6FC02E2C14996
:102FF00091F8361001EB8102BE49383101EBC20174
:103000000023042248680321FEF7B2FBAFF6C41187
:10301000B94819F044F932226421B7481CF0ACFCDD
:10302000B44890F8360000EB8001B248383000EB2D
:10303000C100C068C8B1AF4991F8361001EB8102F8
:10304000AC49383101EBC20100230422C8680121D8
:10305000FEF78EFBAFF28C11A74819F020F94A2237
:103060006421A5481CF088FC08E0A2490978A74A19
:1030700002EBC1004A2264211CF07EFC9D4890F8BE
:10308000360000EB80019B48383000EBC1008068BF
:1030900028B3984991F8361001EB810295493831EF
:1030A00001EBC2018868FFF778F900909DF80210E3
:1030B000BDF8000000230422FEF75AFB9DF8030030
:1030C000934A02EB001000F108018B4819F0E7F871
:1030D00032224FF48C7188481CF04EFC09E085497F
:1030E0000978864A02EBC10032224FF48C711CF041
:1030F00043FC804991F8361001EB81027D4938315B
:1031000001EBC2010869FFF748F900909DF8021031
:10311000BDF8000000230422FEF72AFB9DF80300FF
:103120007B4A02EB001000F10801734819F0B7F870
:103130004A224FF48C7170481CF01EFC4FF6FF7051
:103140001CF083FF6E481CF075FF00201CF0CCFFC4
:103150006C481CF08BFF78222821AFF274201CF001
:103160000BFC7822F021AFF61C301CF005FCAA22E3
:10317000282168A01CF000FCAA22F02166A01CF007
:10318000FBFB61481CF072FFF3223421AFF29C205C
:103190001CF0F2FBF3228C21AFF2D0201CF0ECFBF0
:1031A00028E1544890F8360000EB8001514838304F
:1031B00000EBC10059A102694F4818F00BFE322202
:1031C00064214D481CF0D8FB4A4890F8360000EBCB
:1031D00080014848383000EBC1008068642813D370
:1031E000444890F8360000EB80014248383000EB4C
:1031F000C1004AA18268404818F0ECFD4A226421CF
:103200003D481CF0B9FB08E03A4909783B4A02EB1B
:10321000C1004A2264211CF0AFFB364890F836000A
:1032200000EB80013348383000EBC100006AD0B3B6
:10323000304890F8360000EB80012E48383000EB23
:10324000C100006AB0F57A7F13D32A4890F836009F
:1032500000EB80012748383000EBC100006A0A21EA
:10326000B0FBF1F50023042202212846FEF780FA84
:103270000EE0204991F8361001EB81021D493831EA
:1032800001EBC20100230422086A0321FEF770FA51
:103290002449194819F003F832224FF48C7116486A
:1032A0001CF06AFB06E0FFE732224FF48C711EA08F
:1032B0001CF062FB4FF6FF701CF0C7FE10481CF0BC
:1032C000B9FE00201CF010FF0E481CF0CFFE782243
:1032D0002821AFF2EC301CF04FFB7822F021AFF642
:1032E00094401CF049FBAA22282111A01CF044FBA9
:1032F000AA2220E0C80F00107C0F00102C1305003C
:103300003366CC008CC505002C6B05001C14050031
:1033100074140500523A0000CEA90000253364253C
:1033200025000000AE3005004E4F4E450000000065
:10333000433A00005DE0F021FEA01CF01DFBFE48BA
:103340001CF094FEF3223421AFF258401CF014FB21
:10335000F3228C21AFF28C401CF00EFB4AE03222AB
:103360006421F6A01CF008FBF64991F8361001EB39
:103370008102F449383101EBC201496AF24A02EB99
:103380000111F04A127801EBC20032224FF48C7125
:103390001CF0F2FAEB4890F8360000EB8001E948A7
:1033A000383000EBC100C068C8B1E64991F836106A
:1033B00001EB8102E349383101EBC2010023042211
:1033C000C8680121FEF7D4F9AFF20051DF4818F0C8
:1033D00066FF4A226421DD481CF0CEFA08E0D94994
:1033E0000978DB4A02EBC1004A2264211CF0C4FACE
:1033F00000E000BF00BF38BD10B50120FEF770FA35
:103400000320FEF73EFD4FF6FF701CF01EFED14874
:103410001CF010FE00242CE004F00100A0B9C4EB65
:103420000411CD4B03EB4101C64B1B78C3EB0313D7
:10343000C818611C490801EB4101C90001F11A02D9
:1034400004211CF099FA13E0C4EB0411C24B03EB06
:103450004101BC4B1B78C3EB0313C818611E49081C
:1034600001EB4101C90001F11A02B8211CF084FAF4
:10347000641C0F2CD0D310BD38B50446012C00D1EC
:1034800000E0002005461DB1FF20B449486002E07D
:10349000B048B2494860B148808880B24823C02211
:1034A000302100905420FDF7B0FCAC48808880B2F9
:1034B0000090AA48008883B2A94800783130C2B28F
:1034C00030216C20FDF738FD022C01D1012000E0F5
:1034D000002005461DB1FF20A049486002E09D483C
:1034E0009E4948609E49097801EB81029C49891CEC
:1034F00001EB8201C889002304221946FEF738F93E
:103500009648808880B25E23C0224A2100905420D1
:10351000FDF77BFC00238D4A4A215C20FEF756F81C
:10352000002390A24A218E20FEF750F8032C01D1EF
:10353000012000E0002005461DB1FF2087494860BA
:1035400002E08448854948608549097801EB810299
:103550008349891C01EB8201088A00230422194651
:10356000FEF706F97D48808880B27623C02262216A
:1035700000905420FDF749FC0023744A62215C202E
:10358000FEF724F8002377A262218E20FEF71EF8B2
:10359000042C01D1012000E0002005461DB1FF20D0
:1035A0006E49486002E06B486C4948606E480068AC
:1035B00011281DD16948808880B246234FF4C87213
:1035C000302100904FF48670FDF71FFC64480078AE
:1035D00000EB80016248801C00EB81004089634958
:1035E00001EB0012002332214FF48670FDF7EEFF4D
:1035F000052C01D1012000E0002005461DB1FF206F
:103600005649486002E05348544948605449097893
:1036100001EB81025249891C01EB82014888002399
:1036200004221946FEF7A4F84C48808880B25E2335
:103630004FF4C8724A2100904FF48470FDF7E5FB07
:103640000023424A4A214FF48D70FDF7BFFF00234B
:1036500047A24A214FF4A070FDF7B8FF062C01D114
:10366000012000E0002005461DB1FF203B494860D5
:1036700002E03848394948603949097801EB81024C
:103680003749891C01EB820188880023042201212B
:10369000FEF76EF800232D4A62214FF48870FDF783
:1036A00095FF0023AFF61C4262214FF4A070FDF796
:1036B0008DFF38BD7CB506460D460120FEF710F99A
:1036C00002201CF011FD6FF07F401CF0BEFC0024B6
:1036D000C4E04FF4BE70ADF8000004EB44000421D8
:1036E00001EB0010062101FB040000B2ADF802005E
:1036F0004FF4EE70ADF80400601C00EB40000421B4
:1037000001EB0010062101FB040000B2ADF8060039
:10371000052E3FD2DFE806F0033F576F8700C5EB69
:10372000C50101EB8101134A02EB8101054A1278C0
:1037300022E000006E4600002C6B050050415553FE
:1037400045000000C80F00102C1305007C0F00106E
:103750001C1405003366CC0084160500140000100C
:10376000940800104DCEA90010010010582105004A
:1037700020560000E0E60400C2EBC20202EB820227
:1037800001EB4201C4EBC40201EB42000E22694688
:103790001CF006F95FE0C5EBC50101EB8101FE4AB3
:1037A00002EB8101FD4A1278C2EBC20202EB8202F7
:1037B00001EB4201C4EBC40201EB42000E22694658
:1037C0001CF0EEF847E0C5EBC50101EB8101F44ABE
:1037D00002EB8101F14A1278C2EBC20202EB8202D3
:1037E00001EB4201C4EBC40201EB42000E22694628
:1037F0001CF0D6F82FE0C5EBC50101EB8101E94AC9
:1038000002EB8101E54A1278C2EBC20202EB8202AE
:1038100001EB4201C4EBC40201EB42000E226946F7
:103820001CF0BEF817E0C5EBC50101EB8101DE4AD3
:1038300002EB8101D94A1278C2EBC20202EB82028A
:1038400001EB4201C4EBC40201EB42000E226946C7
:103850001CF0A6F800BF00BF601CC4B2052CFFF628
:1038600038AF7CBDF8B50546CC4991F8361001EB70
:103870008102CA49383151F83210CC4A515C481C97
:1038800000EBD071C1F34707012437E0AC4203D10C
:10389000FF201CF0DAFB02E0C5481CF0D6FB04F068
:1038A0000100A0B1601E012202EB500000EB4000BD
:1038B000C00000F11803601E00EB4000C000182299
:1038C00002EB5001B4225A201CF036F915E0601EBC
:1038D000012202EB500000EB4000C00000F1180391
:1038E000601E400800EB4000C00000F118014FF4DA
:1038F000B7724FF48A701CF01FF9641CA74890F847
:10390000360000EB8001A548383050F83100A74957
:10391000085C401CA042B9D802201CF0E5FB6FF007
:103920007F401CF092FB9D4890F8353090F836208F
:10393000AFF670619F4818F04DFA1A2264219D4835
:103940001CF01AF8954991F8361001EB8102934961
:10395000383151F83210984A02EBC1001A224FF464
:103960008C711CF009F88D4890F8360000EB80014E
:103970008A48383050F83100052871D2DFE810F05D
:10398000050096019A03CA046705844991F8361028
:1039900001EB81028149383101EBC201002304228D
:1039A00048680321FDF7E4FE84A1824818F077FC03
:1039B000322264217F481BF0DFFF784890F8360000
:1039C00000EB80017548383000EBC100C068C8B119
:1039D000724991F8361001EB81027049383101EBE0
:1039E000C20100230422C8680121FDF7C1FEAFF621
:1039F0002431704818F053FC4A2264216D481BF0B2
:103A0000BBFF08E0654909786D4A02EBC1004A2214
:103A100064211BF0B1FF614890F8360000EB800193
:103A20005E48383000EBC1004069D0B15B4991F885
:103A3000361001EB81025949383101EBC2010023F4
:103A4000042248690121FDF793FEAFF68031594801
:103A500018F025FC6222642156481BF08DFF09E016
:103A6000F9E34E490978574A02EBC100622264210A
:103A70001BF082FF494890F8360000EB8001474870
:103A8000383000EBC100C069C8B1444991F8361024
:103A900001EB81024149383101EBC20100230422CC
:103AA000C8690121FDF764FEAFF6E031414818F026
:103AB000F6FB7A2264213F481BF05EFF08E037499D
:103AC0000978404A02EBC1007A2264211BF054FFBE
:103AD000324991F8361001EB81023049383101EB5F
:103AE000C2018868FEF724FE00909DF80210BDF820
:103AF000000000230422FDF73BFE33492D4818F057
:103B0000CEFB32224FF48C712A481BF035FF23483C
:103B100090F8360000EB80012048383000EBC100FF
:103B20000069F8B11D4991F8361001EB81021B497B
:103B3000383101EBC2010869FEF7FAFD00909DF8EB
:103B40000210BDF8000000230422FDF711FE1E49FB
:103B5000184818F0A4FB4A224FF48C7115481BF04A
:103B60000BFF09E00D490978164A02EBC1004A2211
:103B70004FF48C711BF000FF0848C08B30B307482E
:103B800090F8360000EB80010448383000EBC100AB
:103B90008069092826D91AE0B8F00400C80F00107F
:103BA00048F704000C06050054090500ACD30400D6
:103BB0003366CC007C0F00102C1405006B560000FF
:103BC0001C1405002C130500841405003DE0092198
:103BD000FB4890F8360000EB8002F948383000EBE3
:103BE000C2008161F64890F8360000EB8001F4488D
:103BF000383000EBC1008069E0B1F14890F8360040
:103C000000EB8001EE48383000EBC10080690928E4
:103C100010D8EB4991F8361001EB8102E8493831B0
:103C200001EBC2010123622288694FF48C711BF001
:103C3000FBFD3AE0E2490978E24A02EBC100622268
:103C40004FF48C711BF098FE2FE0DD4890F83600A1
:103C500000EB8001DA48383000EBC1008069D0B158
:103C6000D74991F8361001EB8102D549383101EB83
:103C7000C2010023032288690121FDF779FDAFF617
:103C8000A851D14818F00BFB62224FF48C71CE483A
:103C90001BF072FE09E0CA490978CA4A02EBC1006A
:103CA00062224FF48C711BF067FE02E2C44991F866
:103CB000361001EB8102C249383101EBC201002309
:103CC000042248680321FDF753FDAFF21011BE48EE
:103CD00018F0E5FA32226421BB481BF04DFEB848CB
:103CE00090F8360000EB8001B548383000EBC10099
:103CF000C068C8B1B24991F8361001EB8102B049F1
:103D0000383101EBC20100230422C8680121FDF70C
:103D10002FFDAFF64861AC4818F0C1FA4A22642181
:103D2000A9481BF029FE08E0A5490978A74A02EB3B
:103D3000C1004A2264211BF01FFEA14890F8360002
:103D400000EB80019E48383000EBC1004069C8B1EB
:103D50009B4991F8361001EB81029949383101EB0A
:103D6000C2010023042248690121FDF701FDAFF6DD
:103D7000A461954818F093FA6222642192481BF0DE
:103D8000FBFD08E08E4909788E4A02EBC1006222F1
:103D900064211BF0F1FD8A4890F8360000EB8001A9
:103DA0008748383000EBC100C069C8B1844991F838
:103DB000361001EB81028249383101EBC201002348
:103DC0000422C8690121FDF7D3FCAFF600717E48DB
:103DD00018F065FA7A2264217B481BF0CDFD08E0DB
:103DE00077490978774A02EBC1007A2264211BF0F7
:103DF000C3FD734890F8360000EB800170483830FE
:103E000000EBC100406A80B36D4890F8360000EBCB
:103E100080016B48383000EBC100406A40F6AC517D
:103E2000884209D3664890F8360000EB8002644867
:103E3000383000EBC2004162614991F8361001EB65
:103E400081025F49383101EBC20100230422486A34
:103E50000121FDF78DFC5EA15B4818F020FA92224B
:103E6000642159481BF088FD15E0FFE7544991F89B
:103E7000361001EB81025249383101EBC201496A27
:103E8000504A02EB01114E4A127801EBC200922215
:103E900064211BF071FD4A4991F8361001EB810253
:103EA0004749383101EBC2018868FEF741FC0090B8
:103EB0009DF80210BDF8000000230422FDF758FC15
:103EC0004449414818F0EBF932224FF48C713E48D6
:103ED0001BF052FD3A4890F8360000EB800138485C
:103EE000383000EBC1000069F8B1354991F836105F
:103EF00001EB81023249383101EBC2010869FEF75A
:103F000017FC00909DF80210BDF800000023042269
:103F1000FDF72EFC2F492C4818F0C1F94A224FF426
:103F20008C7129481BF028FD09E025490978254AAC
:103F300002EBC1004A224FF48C711BF01DFD20489A
:103F4000C08BE0B31E4890F8360000EB80011C489F
:103F5000383000EBC100806909280AD909211848C6
:103F600090F8360000EB80021548383000EBC200B4
:103F70008161134890F8360000EB8001104838301A
:103F800000EBC100806938B30D4890F8360000EBB3
:103F900080010B48383000EBC100806909281FD828
:103FA000074991F8361001EB81020549383101EBE0
:103FB000C2010123622288694FF48C710DE01AE07E
:103FC000C80F00102C1305007C0F00101C140500F6
:103FD000754100008414050002E01BF025FC39E067
:103FE000FE490978FE4A02EBC10062224FF48C714F
:103FF0001BF0C2FC2EE0F94890F8360000EB80017F
:10400000F648383000EBC1008069C8B1F34991F837
:10401000361001EB8102F149383101EBC201002376
:10402000042288690121FDF7A3FBEEA1EE4818F0F8
:1040300036F962224FF48C71EB481BF09DFC09E0CD
:10404000E6490978E64A02EBC10062224FF48C711E
:104050001BF092FCE14890F8360000EB8001DF484D
:10406000383000EBC100006AC8B1DC4991F8361065
:1040700001EB8102D949383101EBC201002304224E
:10408000086A0121FDF774FBD8A1D74818F007F999
:104090007A224FF48C71D4481BF06EFC09E0CF49B2
:1040A0000978CF4A02EBC1007A224FF48C711BF0E1
:1040B00063FC18E2C94991F8361001EB8102C74947
:1040C000383101EBC2010023042248680321FDF7C7
:1040D0004FFBAFF21851C44818F0E1F832226421C6
:1040E000C1481BF049FCBD4890F8360000EB800148
:1040F000BA48383000EBC100C068C0B1B74991F888
:10410000361001EB8102B549383101EBC2010023C1
:104110000422C8680121FDF72BFBB4A1B24818F0B6
:10412000BEF84A226421B0481BF026FC08E0AB49E7
:104130000978AF4A02EBC1004A2264211BF01CFC43
:10414000A64890F8360000EB8001A448383000EB18
:10415000C1004069C0B1A14991F8361001EB81025C
:104160009E49383101EBC201002304224869012134
:10417000FDF7FEFA9DA19C4818F091F86222642197
:1041800099481BF0F9FB08E094490978944A02EB3E
:10419000C100622264211BF0EFFB904890F83600CA
:1041A00000EB80018D48383000EBC100C069C0B120
:1041B0008A4991F8361001EB81028849383101EBC8
:1041C000C20100230422C8690121FDF7D1FA87A1A9
:1041D000854818F064F87A22642183481BF0CCFBF0
:1041E00008E07E4909787E4A02EBC1007A22642108
:1041F0001BF0C2FB794890F8360000EB800177484D
:10420000383000EBC100806830B3744991F8361043
:1042100001EB81027149383101EBC2018868FEF778
:10422000BCF800909DF80210BDF8000000230422A5
:10423000FDF79EFA9DF803006E4A02EB001000F1B4
:104240000801694818F02BF832224FF48C71664847
:104250001BF092FB0AE045E160490978604A02EBF5
:10426000C10032224FF48C711BF086FB5B4991F840
:10427000361001EB81025949383101EBC20108695E
:10428000FEF78BF800909DF80210BDF800000023A7
:104290000422FDF76DFA9DF80300564A02EB001068
:1042A00000F10801504817F0FAFF4A224FF48C71D0
:1042B0004D481BF061FB49490978C1EBC1014E4AE9
:1042C00002EBC102454991F8361001EB81034349E5
:1042D000383101EBC301896902EBC10062224FF45E
:1042E0008C711BF049FB3D4991F8361001EB8102BE
:1042F0003A49383101EBC201496A394A02EB0111EE
:10430000364A127801EBC2007A224FF48C711BF00E
:1043100033FBE8E0314890F8360000EB80012F488D
:10432000383000EBC100354902692F4817F052FDC3
:10433000322264212C481BF01FFB284890F83600DD
:1043400000EB80012548383000EBC100806864280C
:1043500013D3224890F8360000EB80011F48383014
:1043600000EBC100254982681F4817F033FD4A223F
:1043700064211D481BF000FB08E018490978184A21
:1043800002EBC1004A2264211BF0F6FA134890F8B0
:10439000360000EB80011148383000EBC100006AA4
:1043A00070B30E4890F8360000EB80010B483830AF
:1043B00000EBC100006AB0F57A7F27D3074890F878
:1043C000360000EB80010548383000EBC100006A80
:1043D0000A21B0FBF1F60023042212E0C80F0010FE
:1043E0002C1305006D4100007C0F001073000000CD
:1043F0001C14050074140500AC1305001C330200E6
:104400001EE002213046FDF7B3F90EE0FA4991F8BB
:10441000361001EB8102F849383101EBC20100236B
:104420000422086A0321FDF7A3F9F449F44817F0C0
:1044300036FF32224FF48C71F1481BF09DFA05E0F3
:1044400032224FF48C71EF481BF096FA4BE0322287
:104450006421AFF618501BF08FFAE74991F8361037
:1044600001EB8102E449383101EBC201496AE64AB5
:1044700002EB0111E04A127801EBC20032224FF444
:104480008C711BF079FADC4890F8360000EB800163
:10449000D948383000EBC100C068C8B1D64991F89E
:1044A000361001EB8102D449383101EBC2010023FF
:1044B0000422C8680121FDF75BF9AFF2D001D048B2
:1044C00017F0EDFE4A226421CD481BF055FA08E0B2
:1044D000C9490978CD4A02EBC1004A2264211BF088
:1044E0004BFA00E000BF00BFC34991F8361001EB62
:1044F0008102C149383111F832002946FFF7DAF854
:10450000F8BD7CB505460120FDF7EAF942F66920C1
:104510001BF090FD02201BF0E7FD6FF07F401BF0C9
:1045200094FD002437E04FF4BE70ADF8000004EBBA
:104530004400042101EB0010062101FB040000B23D
:10454000ADF802004FF4EE70ADF80400601C00EB13
:104550004000042101EB0010062101FB040000B221
:10456000ADF80600C5EBC50101EB8101A84A02EBDD
:104570008101A14A1278C2EBC20202EB820201EB76
:104580004201C4EBC40201EB42000E2269461BF05B
:1045900007FA601CC4B2052CC5DB7CBD2DE9F047D1
:1045A0000746954C14340F2601253BE0BD4203D14C
:1045B000FF201BF04AFD02E096481BF046FD701CF0
:1045C00000EBD071B5EB610F0FD805EB4500C000D3
:1045D00000F11803681E00EB4000C00000F1180154
:1045E000B4225A201BF0A8FA1BE006F1010808EBE0
:1045F000D870A5EB600000EB4000C00000F118038C
:10460000C14609EBD970A5EB6000401E00EB4000ED
:10461000C00000F118014FF4B7724FF48A701BF01C
:104620008BFA6D1CB5F5E17FC0D902201BF05CFD53
:104630006FF07F401BF009FD002526E0012D0ED113
:1046400034F81500B0F57A7F09D105EB45001A2141
:1046500001EBC002642170A01BF08EF914E034F865
:104660001500002303220121FDF782F8AFF2842117
:10467000634817F014FE05EB45001A2101EBC00258
:1046800064215F481BF078F96D1C032DD6D3E188B7
:104690005D4A02EB0111584A127801EBC200622216
:1046A00064211BF069F921895C4A02EBC1007A227E
:1046B00064211BF061F96189594A02EB01114E4AEC
:1046C000127801EBC200922264211BF055F9A089F7
:1046D00048B9494909784C4A02EBC100AA22642131
:1046E0001BF04AF90AE0A089002302221946FDF7CF
:1046F0003FF8AA22642142481BF03EF9E189424A70
:1047000002EB01113C4A127801EBC200C222642183
:104710001BF032F9218A3C4A02EB0111364A127829
:1047200001EBC2001A224FF48C711BF025F9618A4B
:10473000354A02EB0111304A127801EBC2003222F5
:104740004FF48C711BF018F9A18A364A02EB011163
:10475000294A127801EBC2004A224FF48C711BF0F7
:104760000BF9E18A284A02EB0111234A127801EB86
:10477000C20062224FF48C711BF0FEF8218B224A9A
:1047800002EB01111C4A127801EBC2007A224FF4AD
:104790008C711BF0F1F8618B1B4A02EB0111164A78
:1047A000127801EBC20092224FF48C711BF0E4F8F6
:1047B000A08B88B1A08B002302220121FCF7D8FF37
:1047C000AFF2D8310E4817F06AFDAA224FF48C716F
:1047D0000B481BF0D1F809E0074909780A4A02EBB7
:1047E000C100AA224FF48C711BF0C6F83846FFF7BF
:1047F00088FEBDE8F0870000C80F0010AE3005004D
:104800007C0F0010283302002C1305001C14050037
:104810004CFD04003366CC004B4559005414050090
:104820008C1305004C1305001CB50120FDF758F84A
:1048300002201BF059FC6FF07F401BF006FC0024A7
:104840002BE04FF4BE70ADF8000004EB44000421EF
:1048500001EB0010062101FB040000B2ADF80200DC
:104860004FF4EE70ADF80400601C00EB4000042132
:1048700001EB0010062101FB040000B2ADF80600B8
:10488000FB4901EB4411FB4A127801EB02100E22A6
:1048900069461BF085F8601CC4B2052CD1DB1CBD39
:1048A00010B502201BF020FC6FF07F401BF0CDFB09
:1048B00032226421F0A01BF05FF8EE490978F04A3B
:1048C00002EB41104A2264211BF056F8E9490A78AC
:1048D000EB49403101EB42107A2264211BF04CF885
:1048E000E4490A78E649803101EB421092226421C2
:1048F0001BF042F8DF490A78E149C03101EB421070
:10490000AA2264211BF038F8FFF78EFF10BD70B5A6
:1049100004460D46601EDB4A115C00230422284633
:10492000FCF726FF601C00EB4000C00000F11A01FC
:104930000123D54A4FF4A270FCF748FE70BD38B58C
:104940000546002432E0601C854203D1FF20CF4998
:10495000486002E0CE48CD494860CC48808880B2AB
:104960000090E01C00EB4000C000163083B2A01C99
:1049700000EB4000C000183081B2E822A420FCF710
:1049800044FAC04A115DC34A32F8240000230422CD
:10499000FCF7EEFEA01C00EB4000C0001A3081B214
:1049A0000123B94AA420FCF711FE641C052CCAD3CC
:1049B000B748B649486038BD30B58DB00446B448F4
:1049C000B249486002A9B44810F0DEF8B3A10AA8C1
:1049D00017F000FA00230AAAAA215E20FCF7F6FDD0
:1049E000B1A10AA817F0F6F900230AAAC221722081
:1049F000FCF7ECFD062C01D1012000E0002005466B
:104A00001DB1FF20A149486002E0A1489F494860CC
:104A1000A8A10AA8099A17F0DDF99C48808880B2FD
:104A2000BE238622AA2100905E20FCF7EEF9002327
:104A30000AAAAA215E20FCF7C9FD072C01D101209A
:104A400000E0002005461DB1FF209049486002E0CB
:104A50008F488E49486097A10AA8089A17F0BAF9BA
:104A60008A48808880B2BE23A422AA210090902088
:104A7000FCF7CBF900230AAAAA219020FCF7A6FD97
:104A8000082C01D1012000E0002005461DB1FF20C7
:104A90007E49486002E07E487C49486085A10AA8BA
:104AA000059A17F097F97948808880B2BE23C22210
:104AB000AA210090AE20FCF7A8F900230AAAAA2197
:104AC000AE20FCF783FD092C01D1012000E000207D
:104AD00005461DB1FF206D49486002E06C486B49F6
:104AE000486074A10AA8049A17F074F9674880888E
:104AF00080B2D6238622C22100907220FCF785F96D
:104B000000230AAAC2217220FCF760FD0A2C01D101
:104B1000012000E0002005461DB1FF205B494860F0
:104B200002E05B485949486062A10AA8039A17F05D
:104B300051F95648808880B2D623A422C221009021
:104B40009020FCF762F900230AAAC2219020FCF70A
:104B50003DFD0B2C01D1012000E0002005461DB1D8
:104B6000FF204A49486002E049484849486051A14D
:104B70000AA8029A17F02EF94448808880B2D623FA
:104B8000C22211460090AE20FCF73FF900230AAA8A
:104B9000C221AE20FCF71AFD0DB030BD7CB5054634
:104BA0000120FCF79DFE02201BF09EFA6FF07F4073
:104BB0001BF04BFA002437E04FF4BE70ADF8000054
:104BC00004EB4400042101EB0010062101FB04006A
:104BD00000B2ADF802004FF4EE70ADF80400601CB6
:104BE00000EB4000042101EB0010062101FB040052
:104BF00000B2ADF80600C5EBC50101EB81012F4AFB
:104C000002EB81011B4A1278C2EBC20202EB820264
:104C100001EB4201C4EBC40201EB42000E226946E3
:104C20001AF0BEFE601CC4B2052CC5DB7CBD70B59D
:104C300005460726012456E0AC4203D1FF201BF0B5
:104C400004FA02E012481BF000FA042C38D804EBF6
:104C50004400C00000F11803601E00EB4000C000DB
:104C600000F11801A0225A201AF066FF3AE0000075
:104C7000FCD50400C80F00104A4B37313330000018
:104C80009CD90400083205007C0F001014000010AD
:104C90003366CC00C40700100040024020202020D2
:104CA0003A20203A2020000020203A20203A2020DC
:104CB00000000000253032640000000058EC0400C1
:104CC000201F00EB4000C00000F11803601F00EB44
:104CD0004000C00000F118014FF4AD724FF48A702B
:104CE0001AF02AFF641C701C8442A5D302201BF01A
:104CF000FBF96FF07F401BF0A8F9FD490978C1EB83
:104D0000C10101EB8101FB4A02EB4101F84A127833
:104D1000C2EBC20201EB42001A2264211AF02CFEFF
:104D2000F3490978C1EBC10101EB8102F1498C31F2
:104D300001EB4201EE4A5278C2EBC20201EB4200A3
:104D4000322264211AF018FEE9490978C1EBC10149
:104D500001EB8102E84901EB4201E54A9278C2EB9E
:104D6000C20201EB42004A2264211AF005FEE0492A
:104D70000978C1EBC10101EB8102DF498C3101EB04
:104D80004201DB4AD278C2EBC20201EB420062224E
:104D900064211AF0F1FDD649497BC1EBC10101EB59
:104DA0008102D64901EB4201D14A1278C2EBC2021C
:104DB00001EB42001A224FF48C711AF0DDFDCC4950
:104DC000887B032332224FF48C711AF02DFDC849E1
:104DD0000978C1EBC10101EB8102C94901EB420134
:104DE000C34AD27BC2EBC20201EB42004A224FF41B
:104DF0008C711AF0C1FD2846FFF7D0FE70BD10B5CA
:104E00000020FDF718F810BD10B5FFF7F8FF4FF6BA
:104E1000FF70BC49086040F23F2048604FF6FF70C9
:104E20000860B948486000240FE004EB840101EBFE
:104E3000C401B64BCA1804EB84014901091D88B2AC
:104E400000233221FCF7C2FB641C032CEDD30024A9
:104E500010E004EB840000EBC400AD4BC218A01CB2
:104E600000EB4000C0001A3081B200230420FCF7A0
:104E7000ADFB641C052CECD310BD08B543F6AC109B
:104E8000B62340F2DF127A2100900020FBF7BDFF2D
:104E900008BD10B50020FCF7CEFFFFF7EEFF10BDF8
:104EA00008B543F6AC10B62340F2DF127A21009029
:104EB0000020FBF7AAFF08BD10B50020FCF7BBFFE0
:104EC00010BD10B5FFF7F8FF4FF6FF708D49086071
:104ED00040F23F20486000238E4A04211846FCF728
:104EE00075FB4FF6FF7087490860874848600023CC
:104EF000894A1A210420FCF769FB01240CE0864949
:104F000001EB0412611E4D235943223188B2002364
:104F10003221FCF75BFB641C072CF0D30020FCF76C
:104F200062FE10BD38B5002416E04FF6FF70009009
:104F3000601C00EB40001A2202EBC000801E83B20E
:104F4000601C00EB400002EBC000801E81B2BE225C
:104F50005A20FBF7B4FE641C052CE6D338BD10B50F
:104F60000220FCF768FF10BD10B50120FCF7B8FC6B
:104F70000420FCF786FF4FF6FF701BF066F86248CE
:104F80001BF058F8002410E0644901EB4411584B21
:104F90001B7801EB0310611C01EB4101C90001F119
:104FA0001A0204211AF0E8FC641C062CECD310BD94
:104FB00070B505462846FCF73EFF4FF6FF70514995
:104FC0000860086050484860022D11D100240DE0AF
:104FD000534800EB0412601C00EB4000C0001A3084
:104FE00081B200230420FCF7F1FA641C072CEFD3F4
:104FF00070BD2DE9F34F83B00C4642F20F7160682B
:10500000884206D90A216068B0FBF1F06060042094
:10501000A060A068C0F10400A060D4F80490E0682B
:1050200020B94FF47A7009FB00F90EE0E06801281E
:105030000BD1484620F010FE07460022394B20F0E5
:10504000A1FE054620F0C4FD8146A06820F004FEC4
:1050500007463A460B46002033491FF0B1FD05468E
:105060000E46484620F0F8FD2A463346CDE90001B9
:1050700020F0EAFB824620F0ABFD8146484620F056
:10508000EBFD05460022294B20F07AFF09D2DFF81C
:10509000A09040F6B83060600220A0600120E0607F
:1050A00084E0484620F0D8FD05460022214B20F040
:1050B00067FF09D842F21070B9FBF0F0606002207F
:1050C000A0600120E06071E0484620F0C5FD054683
:1050D0000022144B20F054FF2ED84FF47A70B9FB05
:1050E000F0F060600320A0600120E0605EE000005E
:1050F000C80F00109C0C0500B40D0500E40F05005E
:10510000FC100500140000103366CC004A2D050089
:10511000712D0500A92B05008D2F05003CD504003D
:105120001429050080842E4100002440389C7C41D5
:1051300080C3C901D0126341484620F08DFD054669
:105140000022FE4B20F01CFF08D86420B9FBF0F0D1
:1051500060600120A0600020E06027E0484620F069
:105160007BFD05460022F64B20F00AFF08D80A20F6
:10517000B9FBF0F060600220A0600020E06015E064
:10518000484620F069FD05460022EE4B20F0F8FE6F
:1051900006D8C4F804900320A0600020E06005E079
:1051A000C4F804900320A0600020E060C4F81890C8
:1051B0001C222146039817F005F905B0BDE8F08FD1
:1051C0000146888800B270472DE9F04105460C463B
:1051D000E06870BBA068052829D2DFE800F003145E
:1051E000151C2200606820F037FD06460022D34BD4
:1051F00020F0C6FE04D2D44860600020206101E0A7
:105200000120206114E013E04FF47A716068B0FB74
:10521000F1F060600CE064216068B0FBF1F0606068
:1052200006E00A216068B0FBF1F0606000E000BFBA
:1052300046E0FFE7A06806283ED2DFE800F0031052
:1052400018192632C0496068884202D90846606051
:1052500004E04FF47A716068484360602FE0606852
:1052600020B10A216068B0FBF1F0606027E026E021
:1052700042F210716068884201D908466060606837
:1052800000EB80004000606019E06068B0F57A7F54
:1052900002D94FF47A7060606421606848436060AE
:1052A0000DE06068642801D9642060604FF47A7171
:1052B00060684843606002E0A448606000BF00BFCF
:1052C0001C222146284617F07DF8BDE8F0812DE923
:1052D000F34F83B08A4642F20F71DAF80400884235
:1052E00009D90A21DAF80400B0FBF1F0CAF8040089
:1052F0000420CAF808004FF47A71DAF8040000FBC1
:1053000001FBDAF80810C1F1040020F0A5FC024608
:105310000B46CDE9000100208D491FF051FC0446E9
:105320000D46584620F098FC064622462B4620F0B3
:105330008BFA804620F04CFC83464EF66020834575
:1053400000D9834642F21070834508D90220CAF87A
:1053500008000A20BBFBF0F0CAF8040004E00320B8
:10536000CAF80800CAF804B0CAF818B01C2251469E
:10537000039817F027F805B0BDE8F08F2DE9F05F2E
:1053800082460C460020E060A06821F0D3F98346F5
:1053900021F008F807463A460B4600206C491FF0FA
:1053A0000FFC054620F014FC81466068B0FBF9F95B
:1053B000B9F1640F01D90220A0601C222146504699
:1053C00017F000F8BDE8F09F08B56248372328229F
:1053D0005C2100903C20FBF7FAFE5F48372328222F
:1053E0005C2100906420FBF7F2FE5C483723282202
:1053F000932100903C20FBF7EAFE574837232822F0
:10540000932100906420FBF7E2FE08BD10B5002454
:105410000BE004EBC400C0EB841000F16E0150A25D
:105420008C20FCF788F8601CC4B2032CF1DB10BDA3
:1054300008B54D484D4948604848372328226E2119
:1054400000906420FBF7C3FE4948372328226E21D1
:1054500000904FF49670FBF7BAFE46483723282297
:105460006E2100904FF4AA70FBF7B1FE424837233B
:105470002822A52100906420FBF7A9FE3E4837238F
:105480002822A52100904FF4AA70FBF7A0FE3B480C
:1054900037232822DC2100906420FBF798FE38484F
:1054A00037232822DC2100904FF4AA70FBF78FFEEF
:1054B00008BD08B5014633480078022806DC88B2EA
:1054C000ADF8000002208DF8020008E088B2ADF8C7
:1054D000000003208DF8020001208DF803000098E1
:1054E00008BD10B50446284901EB4411274A12783B
:1054F00001EB0210F222B4211AF03EFA10BD38B5C9
:1055000004466FF07F401AF0A0FD204890F8353037
:1055100090F836201E491F4816F05CFC1A226421C0
:105520001C481AF029FA194991F8361001EB81024A
:105530001649383151F83210174A2FE0006AF84006
:105540000088C34000408F40A086010040420F0009
:1055500000002440098E0400218F040008B70400D5
:105560002D2D2D2D2D0000003366CC0014000010D1
:10557000A0BF040025C70400AACE0400BDCF0400CC
:10558000D0D00400EB0000109CD60400C80F00101F
:10559000C42A02007C0F00102C14050002EBC1008D
:1055A0001A224FF48C711AF0E7F9FA481AF042FD0A
:1055B000F9481AF04AFD00201AF096FDF7481AF053
:1055C00055FDF74890F8360000EB8001F44838307C
:1055D00050F8310004280FD0012C07D1F1490023E5
:1055E000042208680321FCF7C3F805E00023042225
:1055F00003211846FCF7BCF878225A21EA481AF031
:10560000BBF9E74890F8360000EB8001E4483830F9
:1056100050F83100052875D2DFE800F0030465A6D4
:10562000E10000BF012C41D1DE4840684FF6FF7118
:10563000884206D1DC48DD490A6802608988818099
:105640003AE0D748C08D01281CD1D6484268D448DA
:1056500090F83610491E00F5FD7030F811008242B6
:1056600003D20020CF4948600CE0CE484268CC48C5
:1056700090F83610491E00F5FD7030F81100101A30
:10568000C8494860CA480078012807D1C5490023A5
:10569000042248680321FCF76BF80DE0C1490023A0
:1056A000042248680221FCF763F805E00023042285
:1056B00003211846FCF75CF8B6481AF0C6FCE8234C
:1056C000F022AA215A201AF037FAB3481AF0BDFC8A
:1056D000AA225A21B4481AF04FF9AA22F021B5A003
:1056E0001AF04AF97DE0012C32D1AE484068B34946
:1056F000884208D1AC48AD4914310A680260496853
:1057000041602BE06CE0A7494868FCF746FE00903A
:105710009DF80210BDF8000000230422FCF728F8D1
:105720009C481AF092FCE823F022AA215A201AF091
:1057300003FA99481AF089FC9DF8031001EB410126
:105740009F4A02EB4100AA22F0211AF015F905E068
:105750000023032201211846FCF70AF8AA225A2145
:1057600091481AF009F93CE0012C1BD18D484068A2
:105770004FF6FF71884207D18B488C4914310A6873
:1057800002604968416013E086494868FFF791FE6E
:1057900000909DF80210BDF8000000230422FBF7E2
:1057A000E7FF05E00023042203211846FBF7E0FF92
:1057B00078481AF04AFCE823F022AA215A201AF06D
:1057C000BBF975481AF041FCAA225A2176481AF012
:1057D000D3F8AA22F0217B481AF0CEF801E000E0CD
:1057E00000BF00BF78481AF041FC012C07D16D4979
:1057F0000889002304220121FBF7BAFF05E00023FA
:10580000042201211846FBF7B3FFF3225421664816
:105810001AF0B2F86D490878FFF763FE38BD30B56D
:1058200085B004460D466AA003C8CDE903016AA10C
:1058300003C9CDE9010103A8005D40F213114843FB
:1058400067490844372328225C2100904FF4BE703A
:10585000FBF7BDFC01A8405D40F2131148436049CD
:105860000844372328225C2100904FF4D270FBF7C4
:10587000AEFC05B030BD30B585B004460D4654A031
:1058800003C8CDE9030154A103C9CDE9010103A86F
:10589000005D40F213114843514908443723282240
:1058A000932100904FF4BE70FBF791FC01A8405D7E
:1058B00040F2131148434A490844372328229321D0
:1058C00000904FF4D270FBF782FC05B030BD10B5EC
:1058D00086B0142101A816F0AFFD42480068009080
:1058E000002409E01DF804103F480EF0D1F8012013
:1058F00002F077F8601CC4B2032CF3DB06B010BDD5
:1059000038B50446234839494860394800EB8402D9
:105910000123C8211420FBF759FE364800EB84020E
:105920000123C8214FF48C70FBF750FE43F6AC10F6
:105930002E4948603048372328227A210090502091
:10594000FBF745FC2D48372328227A210090782048
:10595000FBF73DFC2A48372328227A2100908C202F
:10596000FBF735FC38BD70B504460D4604EB44002A
:105970001449C91E42180123C8218020FBF726FEC6
:1059800005EB45001F4942180123C8218820FBF779
:105990001DFE70BD3366CC00FFFF80008CC5050086
:1059A000C80F0010140300107C0F001054260200D2
:1059B000EB0000106D41202000000000F6FF090000
:1059C0007B2F0500AE3005002C6B05001401001084
:1059D0000C0F1011160E0D00121314020B171600E7
:1059E000A9B104002835050000C0004014000010D3
:1059F0003F1D05009B1D05002EB9040071CB04005E
:105A000084CC0400D830050070B504460D4604EB84
:105A10004400FE4942180023C8214FF4C270FBF72E
:105A2000D5FD05EB4500FA4942180023C8214FF483
:105A3000C670FBF7CBFD70BD10B5002421E0012C32
:105A400001DD072C01DB082C04DD43F6AC10F14925
:105A5000486002E0F048EF494860F04951F82400FE
:105A6000002306221946FBF783FEC4EB041000F165
:105A70003A010123EA4A4FF4A270FBF714FE601CBE
:105A8000C4B20B2CDBDB10BD2DE9F04104460D4602
:105A90001646E44B1B5D03EB4303DD4FDA19B1B24D
:105AA000A8B20023FBF792FDBDE8F0812DE9F0419B
:105AB00004460D46164604EB4403D54FDA19B1B23D
:105AC000A8B20123FBF7EFFDBDE8F08170B50446F5
:105AD0000D46A9B2A0B20123D3A2FBF777FD70BD9A
