:020000040002F8
:10000000F833001085E403008DE403008FE403005F
:1000100091E4030093E4030095E403000000000072
:1000200000000000000000000000000097E4030052
:1000300099E40300000000009BE40300C1BD02003E
:100040009FE4030017080200AB080200E708020063
:10005000F9080200C51304009FE403009FE40300B5
:10006000DD1304009FE403009FE403009FE403000A
:100070009FE403009FE403009FE403009FE4030068
:100080009FE403009FE403009FE403009FE4030058
:100090009FE403009FE403009FE403009FE4030048
:1000A000593F04009FE403009FE403009FE4030022
:1000B0009FE403009FE403009FE403009FE4030028
:1000C0009FE403009FE403009FE403009FE4030018
:1000D0009FE403009FE40300970502009FE40300F0
:1000E0009FE4030000F002F800F076F80AA090E820
:1000F000000C82448344AAF10107DA4501D100F0E3
:100100006BF8AFF2090EBAE80F0013F0010F18BF39
:10011000FB1A43F001031847E825050008260500EF
:100120000A444FF0000C10F8013B13F0070408BF1D
:1001300010F8014B1D1108BF10F8015B641E05D0BB
:1001400010F8016B641E01F8016BF9D113F0080F70
:100150001EBF10F8014BAD1C0C1B09D16D1E58BF02
:1001600001F801CBFAD505E014F8016B01F8016B39
:100170006D1EF9D59142D6D37047000000230024AC
:1001800000250026103A28BF78C1FBD8520728BFA7
:1001900030C148BF0B607047662933F090806729F3
:1001A00033F08D80642928F00F86732929F0F183BC
:1001B000002070471FB529F02FF90400002000210E
:1001C00031F032FE401C60600020002131F042FE20
:1001D000E0601FBD10B510BD29F014FF1146FFF7F8
:1001E000E9FF00F023F92AF085F903B4FFF7F2FFE5
:1001F00003BC2AF089F9000040F20120824908601E
:100200008249C1F88401804908310860091D0860ED
:10021000091D0860091D0860091D0860091D0860A6
:10022000091D0860091D0860091D0860091D086096
:10023000091D0860091D0860091D0860091D086086
:10024000714980310860091D0860091D0860091D99
:100250000860091D0860091D0860091D0860091D66
:100260000860091D0860091D0860091D0860091D56
:100270000860091D0860091D0860091D08606249C1
:10028000D4310860091D0860091D08605E494439C1
:1002900008605D49E4310860091F08605A49E83187
:1002A0000860594940390860091D0860091D086047
:1002B000554930390860544920390860524910398D
:1002C0000860091D086070472DE9F04100BF00BFBC
:1002D0004F48006840F400604D49C439C1F8C4007B
:1002E00041F61F704B49086001204B49086000200F
:1002F0008860FFF781FF494800684949B0FBF1F782
:100300004348C438D0F8000100B17F084FF47A7038
:10031000B0FBF7F404F11300B0FBF4F03E490863BE
:100320000F204863002088630120C86304F1130094
:10033000B0FBF4F0801C08640120486404F13E0026
:10034000B0FBF4F0886404F13E00B0FBF4F0C86444
:100350000F20086504F13E00B0FBF4F04865012071
:100360008865886240F203302E4908604FF4D060FF
:100370002949C1F800016421012000F0CEF940F2C2
:10038000831025490862C821012000F0C6F940F217
:1003900003102149086202204862002600E0761C12
:1003A000802EFCD341F68465A5F1100085B22D1195
:1003B00005FB07F04FF47A71B0FBF1F085B21648F7
:1003C00045628320144908621748058800200862A6
:1003D0001448001F006840F40020C1F8000101210A
:1003E000084600F09AF90121084600F096F90948FC
:1003F000006820F01F0848F011000549C439C1F811
:10040000DC01BDE8F081000080C1024000C0024074
:10041000C4C00F40DCC10F4000C00920880100109B
:1004200040420F0004C10920003003A000201EF04C
:100430006AFC04460020784908601D2001218140A3
:100440004209920002F1E022C2F8001100BF62B638
:100450007248B4FBF0F0411EB1F1807F00D31DE083
:1004600021F07F40401E4FF0E022506150171F22C4
:10047000002807DAD3061E0E694B00F00F052D1F6A
:100480005E5503E0D3061D0E664B1D5400BF0020D1
:100490004FF0E02290610720106100BF21F090FC36
:1004A00002206149086000206049088060490870A6
:1004B000604908703CE05C480068801E182835D20E
:1004C000DFE800F00C3412150F30343418341B34CC
:1004D00034342124272A2D34341E34310BF030FFDC
:1004E00025E00CF001FB22E00DF0BCFC1FE00DF05C
:1004F00005FD1CE01BF03FFF19E018F00EFD16E0B3
:100500001AF001F813E018F0B9FC10E00CF02AF82A
:100510000DE00CF031FA0AE00CF09AFA07E018F05E
:1005200083F804E003E019F0A0FF00E000BF00BF83
:10053000C1E72DE9F04101213FA023F00BF9074667
:10054000002F25DD4FF47A623E480168384623F0DB
:10055000E1F902213CA023F0FDF80446002C11DD56
:10056000002500BF4FF47A6236480168204623F028
:100570003BFB0646354437488542F3D3204623F0FB
:10058000CAFB01E0BDE8F081384623F0C4FB00E07F
:10059000F8E700BFF6E710B50022062110461EF06E
:1005A0001CFA30B109202C490860402100201EF0BF
:1005B0003FFA0022052110461EF00FFA00B327482B
:1005C000B0F8A60D2B2148432449343101EBC0007B
:1005D000001D3439B1F8A61D2B2251431F4A343275
:1005E00002EBC1018978C1EBC10100EB8100408AB7
:1005F00010B10C2018490860202100201EF018FAC4
:100600000022072110461EF0E8F918B180210020D1
:100610001EF00EFA10BD0000DC000010A0860100E4
:1006200018ED00E000E400E03001001028010010A7
:100630002A0100102B0100104D53524541442E5405
:10064000585400001C0200105A43353532302E54E5
:10065000585400008096980034010010CC0F001010
:1006600010B5FE4890F89E00FD490860FB4890F8E0
:100670009E000860F94890F89E00086008460068EF
:10068000072802D9084600680860F44890F89E00E0
:10069000F349086008460068082803D10846006846
:1006A000401C0860EF480068EF49096888421DD087
:1006B000ED480068EB490860EC480078002804DD4C
:1006C000EA480078401EE9490870E848007820B9F7
:1006D000E24890F89E00002809DCE448007820B940
:1006E000DE4890F89E0000B910BDFDE7FCE7DB484E
:1006F00090F89E00042800DA09E0D8480478DC4825
:10070000807BA04200D002E021F011FA00BF00205F
:10071000D24981F89E0000BFE6E7F8B902224FF007
:1007200040235A600022DA60D24A12684FF47A738A
:10073000B2FBF3F2521E4A434FF040239A61FF226C
:100740001A6004225A6101225A6000BF4FF0402211
:10075000526802F00102002AF8D15BE001281CD1A6
:100760000222C54B5A600022DA60C24A12684FF476
:100770007A73B2FBF3F2521E4A43BF4B9A61FF22D7
:100780001A6004225A6101225A6000BFBA4A5268B4
:1007900002F00102002AF9D13CE002281CD1022219
:1007A000B64B5A600022DA60B24A12684FF47A738C
:1007B000B2FBF3F2521E4A43B04B9A61FF221A6019
:1007C00004225A6101225A6000BFAC4A526802F00A
:1007D0000102002AF9D11DE003281BD10222A84BF7
:1007E0005A600022DA60A34A12684FF47A73B2FBAF
:1007F000F3F2521E4A43A24B9A61FF221A6004226E
:100800005A6101225A6000BF9D4A526802F00102FB
:10081000002AF9D1704710B501204FF0402108603F
:1008200098480068062813D197480078401C9649DC
:10083000087008460078092810DD002008700120A3
:100840009249087092480089401C9149088105E04E
:100850008D48007810B100208B4908708448407B97
:1008600088B98C480078401C8A490870084600788E
:10087000092808DD002008707B480068401C7A4980
:100880000860FFF7EDFE00240CE0834850F82400D8
:1008900030B1814850F82400401E7F4941F82400BF
:1008A000601CC4B2062CF0DB10BD10B501207249EB
:1008B00008607A480078401C7849087071480068E0
:1008C00006280FD1084600780A2802D10BF005FB54
:1008D00008E072480078142804DB00206F49087093
:1008E0000BF001FB10BD0120644908606C480068F2
:1008F000401C6B49086070470120614908606948E5
:100900000068401C67490860704720B901214FF01A
:100910004022516010E0012803D10121564A516064
:100920000AE0022803D10121544A516004E003285F
:1009300002D10121524A5160704720B900214FF085
:100940004022516010E0012803D100214A4A516041
:100950000AE0022803D10021484A516004E003283C
:1009600002D10021454A51607047014631B94FF02C
:100970004022506840F00200506016E0012905D185
:100980003D4A506840F0020050600EE0022905D157
:100990003A4A506840F00200506006E0032904D152
:1009A000374A506840F002005060704770B5054605
:1009B0000C46F5B900203C4908603C48006840F00E
:1009C00002003A49C439C1F8C4004FF040204068E1
:1009D00040F002004FF0402148604DF20B50C860DB
:1009E0000846846103204861012000F07CF8012062
:1009F00070BD012D1CD100202D4908602B480068D6
:100A000040F004002949C439C1F8C4001A484068BC
:100A100040F00200184948604EF65F20C860084662
:100A2000846103204861022000F05DF80120DFE7C7
:100A3000022D3FD100201A4908601C48006840F48C
:100A400080001A49C439C1F8C4000C4884610320ED
:100A50000A49486100F047F80120C9E7DD2200108B
:100A60001C0000101400001010000010A001001065
:100A7000CC0F00108C0100100080004000000940E5
:100A80000040094030010010200000100A01001051
:100A90004003001021000010A00B001022000010E5
:100AA000080000100C00001000000010C4C00F402F
:100AB00004000010032D14D10020104908601048D4
:100AC000006840F400000E49C439C1F8C4000D4864
:100AD000846103200B494861042000F004F80120E0
:100AE00086E7002084E700F01F02012191404209BF
:100AF000920002F1E022C2F8001170470C000010D1
:100B0000C4C00F400040094008B5B0B1F949896937
:100B100041F00101F74A916142F21071009108E041
:100B2000F449896941F40061F24A91610099491ED2
:100B3000009100990029F3D115E0EE49896921F46B
:100B40000061EC4A916142F21071009102E000995B
:100B5000491E009100990029F9D1E649896921F0DF
:100B60000101E44A916108BDE34A002102E008C89E
:100B700008C2491C8029FAD3704750B506460C4676
:100B800000BF2720DD490860DD49C1F81801DD49B3
:100B90000860091D0860091D0860DA494C390860C1
:100BA000091D0860091D0860091D0860091D08600D
:100BB000091D0860D34918310860D24934390860EA
:100BC000091D0860091D0860091D0860CD49143918
:100BD0000860CC4908390860CA4910390860C8491A
:100BE000C1F81001C848006A40F00200C649086216
:100BF0000846806B40F0040088630846006840F0B7
:100C0000020008600846806940F02A008861BF48F9
:100C1000D0F8C40040F00100BC49C1F8C400BC4891
:100C2000006820F00100BA4908600020B1498861DD
:100C30000846806920F00E0088610846806940F00F
:100C40000C0088610846806940F0200088610846F1
:100C5000806920F0800088610846806920F48070F7
:100C600088610846806920F40070886108468069C0
:100C700020F4806088610846806920F40060886103
:100C8000A4480068A449B0FBF1F0A049C1F8B8013C
:100C90009848806840F0806096498860084680687F
:100CA00020F0200088600846806840F4006088607A
:100CB0000846806840F4805088600846806820F4C8
:100CC000005088600846806820F4804088600846AC
:100CD0008068924908408749886008468068904942
:100CE000084384498860002008600846006840F096
:100CF0001C5008600846006840F4802008600846E0
:100D0000006840F4807008600846006840F0740095
:100D10000860002048600846406840F00060486075
:100D20000846406840F4002048600846406840F4A7
:100D3000806048600846406840F20F1108436D49E2
:100D4000486078480861486114B12046FFF70CFFFD
:100D500050BD744A002102E022F8020B491CB1F593
:100D6000FF3FF9D3704730B56E4BB0F5F07F02DA34
:100D7000B1F5887F00DB30BDC1EB011500EB4514F8
:100D800003EB44031A8000BFF5E72DE9F04F04465A
:100D90000D4691469A46DDF824B04C4503DD0FFA26
:100DA00089F7A146BCB2554503DD0FFA8AF7AA467A
:100DB000BDB2A9EB04000FFA80F8AAEB050006B259
:100DC000B8F1000F0BD100BF5A4629462046FFF765
:100DD000CAFF681C85B2AA45F6DABDE8F08F56B99D
:100DE00000BF5A4629462046FFF7BDFF601C84B26B
:100DF000A145F6DAF1E7B04521DDC8EB460007B2C0
:100E000015E05A4629462046FFF7ADFF601C84B224
:100E1000002F08DD681C85B27000022101FB18005C
:100E2000384407B203E0022000FB067007B24C45CD
:100E3000E7D15A4629462046FFF795FF20E0C6EB4A
:100E4000480007B215E05A4629462046FFF78BFFB7
:100E5000681C85B2002F08DD601C84B2700002217E
:100E600001FB1800384407B203E0022000FB0670C3
:100E700007B25545E7D15A4629462046FFF773FF8A
:100E800000BFAAE72DE9F84105460E4617469846E9
:100E9000079CA0B233463A46314600902846FFF7F9
:100EA00074FFA0B243463A46414600902846FFF7F9
:100EB0006CFFA0B243462A46314600902846FFF711
:100EC00064FFA0B243463A46314600903846FFF7E9
:100ED0005CFFBDE8F8812DE9F0411C46069FC1EB9F
:100EE000011CDFF8408008EB8C1C0CEB4003002653
:100EF0002AE00000008008200082082074C202401E
:100F000000C002401CC102400080092000C00F4008
:100F1000008C08208C0100109C997400FFFF00FCDD
:100F20000000DF01000001A0002502E023F8027BA1
:100F30006D1CA2EB000CAC45F8D8A2EB000CCCF574
:100F4000F07C03EB4C03761CA4EB010CB445EBD80E
:100F5000BDE8F0812DE9F04704460D46174678427A
:100F600000214FEA4708C8F10202F94E00BFA4EB86
:100F7000000805EB01094FF4F07A0AFB098846F8EE
:100F8000283004EB000805EB01090AFB098846F844
:100F9000283004EB0008A5EB01090AFB098846F894
:100FA0002830A4EB0008A5EB01090AFB098846F8E4
:100FB000283094468C450DDC01F1010841464FF084
:100FC000010909EB48084244C84203D1844501DCC9
:100FD0004FF0000C844507DD00F1010840464FF05A
:100FE000010909EB480842440028C0DDBDE8F0874C
:100FF00070B505460E461446A2B231462846FFF7A4
:10100000B2FE70BD2DE9FF5F06460F469046994639
:10101000DDF838B04146684600F0A8FC00241DE029
:101020001DF804A0002516E0C5F107004AFA00F0FB
:1010300000F0010038B13A1991B2721990B24A46E3
:10104000FFF791FE06E03A1991B2721990B25A4632
:10105000FFF789FE6D1C082DE6D3641C102CDFD32E
:10106000BDE8FF9F2DE9FE4F06460F469046994684
:10107000DDF830B04146684600F085FC002415E0FC
:101080001DF804A000250EE0C5F107004AFA00F0A3
:1010900000F0010030B13A1991B2721990B24A468B
:1010A000FFF761FE6D1C082DEED3641C0C2CE7D3FA
:1010B000BDE8FE8F2DE9F84305460E4614469846D6
:1010C000DDF8209000BF14F8017B43463A463146D4
:1010D0002846CDF80090FFF795FFB5F5EC7F03DAD1
:1010E00005F1080085B208E0FF2E04DC002506F1BA
:1010F000100086B201E00025002620780028E2D109
:10110000BDE8F8832DE9FF4F074688469B463C46DD
:101110004546BA4646464FF0000915E0A4F11401D1
:1011200088B22946029AFFF71EFE601C84B2A6F11F
:10113000140081B25046029AFFF715FE701C86B269
:1011400009F101001FFA80F9B9F1280FE6DB3C46EE
:101150004546BA4646464FF000092BE0A5F1140279
:1011600091B2A4F1140290B25A46FFF7FCFD05F1CA
:10117000140291B2A4F1140290B25A46FFF7F3FDA3
:10118000601C84B2A6F1140291B2AAF1140290B2CA
:101190005A46FFF7E8FDA6F1140291B20AF11402D3
:1011A00090B25A46FFF7DFFD701C86B209F10100CC
:1011B0001FFA80F9B9F10A0FD0DB3C464546BA4622
:1011C00046464FF000092BE0A5F1140291B204F15C
:1011D0000A0290B25A46FFF7C6FD05F1140291B219
:1011E00004F10A0290B25A46FFF7BDFD601C84B2BA
:1011F00006F10A0291B2AAF1140290B25A46FFF720
:10120000B2FD06F10A0291B20AF1140290B25A46F6
:10121000FFF7A9FD701C86B209F101001FFA80F9E1
:10122000B9F10A0FD0DBBDE8FF8F10B502460021EF
:1012300012E001EB8110474B185C1378984209D1FA
:10124000507801EB8113434C23445B78984201D1E1
:10125000084610BD481C81B20029EAD00020F8E7FA
:1012600010B50246002114E001EB01103A4B13F8CF
:101270001000137898420AD1507801EB0113364CD4
:1012800004EB43035B78984201D1084610BD481C2B
:1012900081B2B229E8D30020F8E72DE9F04F0446E7
:1012A0000F4615469846A3464FF0000900262FE04A
:1012B000099810F806904FF0000A23E009F080002A
:1012C00038B12648008882B239462046FFF74BFDE8
:1012D00006E02248808882B239462046FFF743FD67
:1012E0004FEA49604FEA1069601C84B2A4EB0B001E
:1012F000A84203D15C46781C87B206E00AF10100DF
:1013000000F0FF0ABAF1080FD8DB00BF701C86B2EC
:1013100005FB08F0C11700EB5171B6EBE10FC7DB1D
:10132000BDE8F08F2DE9F04F0546894692469B4671
:10133000A8460026BBF1000F3CD1002437E00AEBA1
:101340000A10054901EB4000801C065D002729E0DA
:10135000000001A0BE330500FF330500240000108B
:1013600006F0800038B1FD48008882B24946284620
:10137000FFF7F9FC06E0F948808882B24946284622
:10138000FFF7F1FC7006060E681C85B2A5EB08009D
:10139000102805D1454609F101001FFA80F903E044
:1013A000781CC7B2082FDBDB00BF601CC4B2202C46
:1013B000C5DB33E000242FE00AEB0A10E84901EB1B
:1013C0004000801C065D002721E006F0800038B157
:1013D000E248808882B249462846FFF7C4FC06E00E
:1013E000DE48008882B249462846FFF7BCFC7006FA
:1013F000060E681C85B2A5EB0800102805D14546ED
:1014000009F101001FFA80F903E0781CC7B2082F28
:10141000DBDB00BF601CC4B2202CCDDBBDE8F08F4D
:101420002DE9F04F0546894692469B46A846002680
:10143000BBF1000F33D100242EE00AEB8A10C9491A
:101440000844801C065D002721E006F0800038B1CA
:10145000C248008882B249462846FFF784FC06E06D
:10146000BE48808882B249462846FFF77CFC700659
:10147000060E681C85B2A5EB0800182805D1454664
:1014800009F101001FFA80F903E0781CC7B2082FA8
:10149000DBDB00BF601CC4B23F2CCEDB32E000249B
:1014A0002EE00AEB8A10AF490844801C065D002735
:1014B00021E006F0800038B1A848808882B2494611
:1014C0002846FFF750FC06E0A448008882B249464F
:1014D0002846FFF748FC7006060E681C85B2A5EB8F
:1014E0000800182805D1454609F101001FFA80F9C6
:1014F00003E0781CC7B2082FDBDB00BF601CC4B25E
:101500003F2CCEDBBDE8F08FF0B504460D46164605
:101510001F463B46224631462846FFF781FF1820EA
:10152000F0BDF0B504460D4616461F463B46224622
:1015300031462846FFF7F6FE1220F0BD2DE9F843AC
:1015400006460D4614461F464FF00008C14654E0BB
:10155000207800B952E006EB090086B22078802896
:101560001ADD06F11800B0F5F07F07DD002605F161
:10157000160085B2B5F5887F00DD00252046FFF70F
:1015800054FE1FFA80F83B462A4631464046FFF794
:10159000BBFF8146A41C2FE020780D280AD105F15D
:1015A000160085B2B5F5887F00DD0025641C4FF07C
:1015B000000922E020780A2804D10026641C4FF09C
:1015C00000091AE006F10C00B0F5F07F07DD0026F7
:1015D00005F10C0085B2B5F5887F00DD00255F4878
:1015E000808880B200905D48008883B222782946C6
:1015F0003046FFF707FD641C00BFA9E700BFBDE848
:10160000F8832DE9F84305468846144600263FE056
:10161000207800B93DE02078302807DB2078392891
:1016200004DC207830381FFA80F919E020782E2861
:1016300002D14FF00A0913E020782D2802D14FF093
:101640000B090DE02078202802D14FF00C0907E0AB
:101650002078562802D14FF00D0901E04FF00E0915
:101660004FEA4917F81707EB5070C01000EBC001A4
:10167000C1EB80103C490844A919009088B2372377
:1016800020224146FFF709FE641C06F1200086B2C5
:10169000BEE700BFBDE8F8832DE9F84306460D46D6
:1016A00014461F464FF00008C14656E0207800B9A6
:1016B0005CE006EB090086B2207880281ADD06F18E
:1016C0001000B0F5F07F07DD002605F1100085B2AF
:1016D000B5F5887F00DD00252046FFF7C1FD1FFA24
:1016E00080F83B462A4631464046FFF71AFF8146BE
:1016F000A41C31E020780D280AD105F1100085B234
:10170000B5F5887F00DD0025641C4FF0000924E05A
:1017100020780A2804D10026641C4FF000091CE040
:1017200006F10800B0F5F07F07DD002605F1100096
:1017300085B2B5F5887F00DD00250848808880B235
:1017400000900648008883B2227829463046FFF789
:1017500059FC641C4FF00A0900BFA7E724000010E1
:10176000FF330500BE330500B36C050000BFBDE8C4
:10177000F8832DE9F84306460D4614461F464FF000
:101780000008C14656E0207800B954E006EB090095
:1017900086B2207880281ADD06F11000B0F5F07FBF
:1017A00007DD002605F1100085B2B5F5887F00DD64
:1017B00000252046FFF754FD1FFA80F83B462A46D5
:1017C00031464046FFF7ADFE8146A41C31E020784B
:1017D0000D280AD105F1100085B2B5F5887F00DD2E
:1017E0000025641C4FF0000924E020780A2804D169
:1017F0000026641C4FF000091CE006F10800B0F55B
:10180000F07F07DD002605F1080085B2B5F5887F79
:1018100000DD00255248808880B200905048008842
:1018200083B2227829463046FFF71CFC641C4FF037
:10183000080900BFA7E700BFBDE8F883F0B504467C
:101840001D46062A00DD0A2202B90122052900DD13
:101850000521914200DD1146002004E02026414F81
:101860003E54461CF0B20C28F8D310460FE00A266E
:10187000B4FBF6F706FB17463036471EDFF8E4C028
:101880000CF807600A26B4FBF6F4461EF0B20028F6
:10189000EDDC89B11346084605E05E1E314FBE5DA2
:1018A000FE545E1EF3B2061EA0F10107F8B2F4D199
:1018B0002E262C4FFE5402E020262A4FBE54A5B9F6
:1018C00000200EE0274E365C302E07D1254F461CF7
:1018D000BE5D2E2E02D020263E5400E004E0461CC1
:1018E000F0B2561E8642EDDC00BF561CF2B2104626
:1018F00004E000261B4F3E54461CF0B20C28F8D3DF
:10190000F0BD30B5184A00210BE08478457844EAF0
:101910000524057844EA054308C2401C401C401CCD
:10192000491CB1F5FF3FF0D330BD70B50E4B00211F
:1019300012E000220CE005782D04467845EA0625E1
:10194000867845EA060410C3401C401C401C521C0B
:10195000B2F5F07FEFD3491CB1F5887FE9D370BDB4
:1019600024000010800F0010000001A070B5054693
:101970000C46A4F120000B4A02EB0011102228466D
:1019800027F011FC70BDA1F1200202EB4202064BD0
:1019900003EB8202136803605368436092688260BD
:1019A00070470000A34B0500935105003EB5054666
:1019B00042F669202AF065FF00241DE0F748410047
:1019C0000322CDE900210290601C00EB40000422BC
:1019D00002EB0010062202FB040304EB4400042285
:1019E00002EB0010062202FB04014FF4EE724FF4EA
:1019F000BE702AF01BFC641C052CDFD33EBD10B565
:101A000042F66920E64948604FF6FF7008600023FF
:101A1000E4A2F1215420FFF73FFE0023E3A2F121CD
:101A2000A420FFF739FE10BD70B5054642F66920C7
:101A3000DB4948604FF6FF700860A5B900240FE04D
:101A400004EB4401DB4B03EB410204EB8401542320
:101A500003EB01100023F121FFF71EFE601CC4B24E
:101A6000052CEDDB14E0002410E0611D01EB4101C9
:101A7000D04B03EB410204EB8401542303EB011030
:101A80000023F121FFF708FE601CC4B2052CECDB3B
:101A900070BD10B542F66920C14948604FF6FF702D
:101AA00008600023C4A2F1215420FFF7F5FD10BD0A
:101AB00010B542F66920BA4948604FF6FF700860D9
:101AC0000023C0A2F1215420FFF7E6FD10BD10B5A0
:101AD0000446002C39D14FF6FF70B149086042F638
:101AE000692048600023B8A2E7215420FFF7D4FD05
:101AF0000023B7A2FB215420FFF7CEFD0023B2A2A2
:101B0000E721A420FFF7C8FD0023B3A2FB21A420F6
:101B1000FFF7C2FD0023B2A2E721F420FFF7BCFDCE
:101B20000023ADA2FB21F420FFF7B6FD0023ACA2F9
:101B3000E7214FF4A270FFF7AFFD0023AAA2FB211B
:101B40004FF4A270FFF7A8FD2EE0012C2CD14FF628
:101B5000FF709349086042F6692048600023A4A200
:101B6000E7215420FFF798FD0023A3A2FB21542076
:101B7000FFF792FD0023A2A2E721A420FFF78CFD2E
:101B80000023A1A2FB21A420FFF786FD0023A0A231
:101B9000E7214FF4CA70FFF77FFD00239EA2FB21CF
:101BA0004FF4CA70FFF778FD10BD10B54FF6FF7007
:101BB0007B49086042F669204860002398A2E7212B
:101BC0005420FFF769FD002397A2FB215420FFF763
:101BD00063FD002396A2F1214FF4A270FFF75CFD94
:101BE000002396A2F1214FF4CA70FFF755FD10BDF6
:101BF00010B504460CB1012C33D14FF6FF70684983
:101C0000086042F66920486000238FA2F121542029
:101C1000FFF742FD00238FA2E721A420FFF73CFD40
:101C200000238EA2FB21A420FFF736FD00238DA206
:101C3000E721F420FFF730FD002388A2FB21F420E8
:101C4000FFF72AFD00237AA2F1214FF4A270FFF7DB
:101C500023FD002379A2F1214FF4CA70FFF71CFD88
:101C600026E04FF6FF704E49086042F66920486052
:101C7000002375A2F1215420FFF70EFD002377A267
:101C8000E721A420FFF708FD002378A2FB21A42070
:101C9000FFF702FD002366A2F1214FF4A270FFF7C7
:101CA000FBFC002365A2F1214FF4CA70FFF7F4FC9E
:101CB00010BD10B50446002C39D14FF6FF703849DD
:101CC000086042F66920486000233FA2E7215420C3
:101CD000FFF7E2FC00233EA2FB215420FFF7DCFCCF
:101CE000002339A2E721A420FFF7D6FC00233AA263
:101CF000FB21A420FFF7D0FC002339A2E721F42028
:101D0000FFF7CAFC002334A2FB21F420FFF7C4FC38
:101D1000002333A2E7214FF4A270FFF7BDFC00239C
:101D200031A2FB214FF4A270FFF7B6FC34E0012C86
:101D300032D14FF6FF701A49086042F669204860B8
:101D400000232BA2E7215420FFF7A6FC00232AA2A0
:101D5000FB215420FFF7A0FC002321A2E721A420AF
:101D6000FFF79AFC00231CA2FB21A420FFF794FCA0
:101D7000002340A2F121F420FFF78EFC002324A2CF
:101D8000E7214FF4CA70FFF787FC002322A2FB2152
:101D90004FF4CA70FFF780FC10BD000040404000C7
:101DA00024000010206DCEA92020000020CEA92004
:101DB00000000000CD08060020E7A1AEE8AEA42098
:101DC000000000002A310000E6B58BE9878F000093
:101DD000E698BEE7A4BA0000E8AEBEE7BDAE0000DC
:101DE000E7B3BBE7BB9F0000E4BFA1E681AF000003
:101DF000E69687E4BBB60000E7AEA1E79086000058
:101E0000E4BF9DE5AD980000E695B0E68DAE00001C
:101E1000E69BB4E5A49A000020322F3200000000B7
:101E2000E6B885E999A40000E8A1A8E6A0BC0000F6
:101E3000E4B88AE4B880E9A1B5000000E4B88BE416
:101E4000B880E9A1B5000000E588A0E999A4E8A15F
:101E50008C000000E7BABFE680A70000E887AAE58B
:101E60008AA80000E5AFB9E695B00000E5A48DE5CD
:101E700088B60000E5B7A5E585B7000010B54FF6B8
:101E8000FF70FD49086042F6692048600023AFF208
:101E9000C802E7215420FFF7FFFB0023AFF2D00276
:101EA000FB215420FFF7F8FB0023AFF2E402E72107
:101EB000A420FFF7F1FB0023AFF2E402FB21A420F2
:101EC000FFF7EAFB0023AFF2E802E721F420FFF777
:101ED000E3FB0023AFF20012FB21F420FFF7DCFB51
:101EE0000023AFF20412E7214FF4A270FFF7D4FBF6
:101EF0000023AFF20C12FB214FF4A270FFF7CCFBD2
:101F000010BD38B504460020182340F2E112014606
:101F10000090FEF7E0FF0020D74948604FF6FF70C1
:101F200008600023D5A203210420FFF7B5FB38BDCC
:101F300008B543F6AC102AF0A4FC0520FD234FF4AD
:101F4000BA725C21009004202AF03EFA08BD10B558
:101F500004464AF2FF502AF094FCCA482AF0A2FC38
:101F60001823C022002108462AF002FA00202AF095
:101F700088FC02202AF0D4FCC34901EB4411C34A77
:101F8000127801EB0210022200212AF011F910BD93
:101F900010B50020FFF7DBFFFFF7CAFF10BD7CB5CF
:101FA000054600202AF0BCFC42F669202AF05EFCBF
:101FB0006FF07F402AF065FC00242EE04FF4BE70E5
:101FC000ADF8000004EB4400042101EB00100621F1
:101FD00001FB040000B2ADF802004FF4EE70ADF862
:101FE0000400601C00EB4000042101EB00100621FE
:101FF00001FB040000B2ADF80600C4EBC401A44A22
:1020000002EB8101A14A1278C2EBC20201EB42004D
:102010000E2269462AF0E0F8641C052CCED37CBD64
:1020200010B5FFF7B5FF0020FFF7C0FC0020FFF759
:10203000B6FF00241FE0032C0ED2964800EB0412DA
:10204000601C00EB40001A2303EBC00081B20023A8
:102050000420FFF721FB0DE08E4800EB0412A01EC8
:1020600000EB40001A2303EBC00081B20023B8202C
:10207000FFF712FB641C062CDDD310BD08B543F638
:10208000AC10BE2340F2DF12702100900020FEF75A
:1020900022FF08BD10B50020FFF733FFFFF7EEFF6A
:1020A00010BD08B543F6AC10A02340F2DF12562154
:1020B00000900020FEF70FFF43F6AC10E32340F240
:1020C000DF12C12100900020FEF705FF08BD10B50A
:1020D0000020FFF716FFFFF7E4FF10BD08B543F639
:1020E000AC10A02340F2DF12602100900020FEF728
:1020F000F2FE08BD10B50020FFF703FFFFF7EEFF6B
:1021000010BD10B5FFF7F6FF4FF6FF705A49086093
:1021100040F23F20486000235F4A04211846FFF741
:10212000BBFA4FF6FF70544908605C4848600023D2
:102130005BA21A210420FFF7AFFA00235BA2322131
:102140002C20FFF7A9FA00235BA232219020FFF791
:10215000A3FA00235BA23221F420FFF79DFA0023AB
:102160005AA232214FF4AC70FFF796FA002359A21D
:1021700032214FF4DE70FFF78FFA0020FFF7A7FC43
:1021800010BD704700B5FFF7FCFF00BD10B5012082
:10219000FFF70CFC0320FFF7DAFE4FF6FF702AF082
:1021A00070FB3E482AF062FB002422E0042C0FD290
:1021B000494901EB4411354B1B7801EB031004EB4B
:1021C0004401C90001F11A02042129F0F1FF0FE0D6
:1021D000414901EB44112D4B1B7801EB0310211FEA
:1021E00001EB4101C90001F11A02B82129F0E0FF19
:1021F000641C072CDAD310BD70B50120FFF7D6FBA5
:102200000120FFF7A4FE4FF6FF702AF03AFB2348A7
:102210002AF02CFB1D48B0F8A60D2B2148431B4982
:10222000343101EBC000001D3439B1F8A61D2B225A
:102230005143164A343202EBC1018978C1EBC10126
:1022400010F8210025490D5C00249CE004F00100F9
:1022500088B90E49B1F8A61D2B2359430B4B3433D3
:1022600003EBC101091D343BB3F8A63D2B26734394
:10227000064E343634E054E0240000105A437465AE
:102280006B000000F044060097020600CC0F00101F
:102290000B0206001DF40500990306003366CC000E
:1022A000E696B9E5BC8F203A00000000E9A291E76C
:1022B0008E875B487A5D0000E794B5E5B9B35B565D
:1022C0005D00000043705B465D000000445B205DE4
:1022D00000000000434D5000649C0500B49B0500C5
:1022E00006EBC3039B78C3EBC30311F823104D2304
:1022F0005943FE4B03EB8101C4EBC40301EB8301A3
:10230000A6F134031B78C3EBC30301EB4300610860
:1023100001EB4101C90001F11A02042129F048FF33
:1023200030E0F349B1F8A61D2B235943F04B343369
:1023300003EBC1031B1DEE49B1F8A61D2B2671430B
:10234000EB4E343606EBC1018978C1EBC10113F8BD
:1023500021104D235943E54B03EB8101C4EBC4032A
:1023600001EB8301E24B1B78C3EBC30301EB43009A
:10237000611E01EB4101C9001A2303EB5102B82190
:1023800029F016FF641CAC42FFF460AF70BD10B5BD
:102390000446D84901EB4411D54A127801EB0210EA
:1023A000F222B42129F004FF10BD2DE9F8430446C0
:1023B000204630F05BF805460022CF4B30F0EAF9BA
:1023C0000BD2CE4C41F29C30ADF8000002208DF8CB
:1023D000020001208DF8030080E0204630F046F82E
:1023E00005460022C64B30F0D5F914D8204630F00F
:1023F0003DF805460022C34B2FF030FE07462FF074
:10240000F1FF80B2ADF8000002208DF8020001203B
:102410008DF8030062E0204630F028F805460022DF
:10242000B94B30F0B7F914D8204630F01FF8054604
:102430000022B64B2FF012FE07462FF0D3FF80B2DA
:10244000ADF8000003208DF8020001208DF8030094
:1024500044E0204630F00AF805460022AC4B30F04C
:1024600099F914D8204630F001F805460022A94B0E
:102470002FF0F4FD07462FF0B5FF80B2ADF8000055
:1024800001208DF8020000208DF8030026E0204690
:102490002FF0ECFF054600229A4B30F07BF914D860
:1024A00020462FF0E3FF054600229B4B2FF0D6FD80
:1024B00007462FF097FF80B2ADF8000002208DF89C
:1024C000020000208DF8030008E0A0B2ADF8000083
:1024D00003208DF8020000208DF803000098BDE86D
:1024E000F8832DE9F843044620462FF0BFFF054648
:1024F0000022814B30F04EF90AD2804C41F29C30E0
:10250000ADF8000002208DF802008DF803007EE097
:1025100020462FF0ABFF05460022794B30F03AF908
:1025200014D820462FF0A2FF05460022754B2FF04D
:1025300095FD07462FF056FF80B2ADF8000002204F
:102540008DF8020003208DF8030060E020462FF094
:102550008DFF054600226C4B30F01CF914D8204644
:102560002FF084FF05460022684B2FF077FD0746C9
:102570002FF038FF80B2ADF8000001208DF8020086
:1025800002208DF8030042E020462FF06FFF054641
:1025900000225F4B30F0FEF814D820462FF066FF83
:1025A00005460022594B2FF059FD07462FF01AFF20
:1025B00080B2ADF8000001208DF8020002208DF8F5
:1025C000030024E020462FF051FF054600224D4B2A
:1025D00030F0E0F813D820462FF048FF05460022DF
:1025E0004C4B2FF03BFD07462FF0FCFE80B2ADF8C0
:1025F000000002208DF802008DF8030007E0A0B271
:10260000ADF8000001208DF802008DF8030000985D
:10261000BDE8F8832DE9FC47824640482AF031F9AD
:102620003F482AF023F93F482AF03CF900202AF0DD
:1026300077F92F48B0F8A60D2B2148432C493431A7
:1026400001EBC000001D3439B1F8A61D2B22514307
:10265000274A343202EBC1018978C1EBC10100EB9A
:10266000810040883049096888426BD82049B1F818
:10267000A61D2B2251431E4A343202EBC101091D13
:10268000343AB2F8A62D2B235A43194B343303EBBB
:10269000C2029278C2EBC20201EB820148882FF09D
:1026A000E5FECDE900011249B1F8A61D2B225143E8
:1026B0000F4A343202EBC101091D343AB2F8A62D9B
:1026C0002B235A430A4B343303EBC2029278C2EBFA
:1026D000C20201EB820148882FF0C8FE06460F4671
:1026E000114908682FF0C2FE80461FE000A40500D3
:1026F000CC0F0010849E050084D7874180F0FA0239
:10270000D01263410088C34080842E4100408F4036
:10271000006AF8400000594000002440FFFF80009C
:102720003366CC00F04406004003001032463B46BE
:1027300030F058F90446DDE900232FF08FFCF84A09
:1027400003C267E0F748B0F8A60D2B214843F549CE
:10275000343101EBC000001D3439B1F8A61D2B2225
:102760005143F04A343202EBC1018978C1EBC10117
:1027700000EB81004088EC49096888424AD9E94960
:10278000B1F8A61D2B225143E64A343202EBC101B7
:10279000091D343AB2F8A62D2B235A43E14B3433AA
:1027A00003EBC2029278C2EBC20201EB82014888BD
:1027B0002FF05CFE80468946DB4908682FF056FE04
:1027C00004460D46D749B1F8A61D2B225143D54AE0
:1027D000343202EBC102121DD249B1F8A61D2B23DF
:1027E0005943D04B343303EBC1018978C1EBC101AC
:1027F00002EB810148882FF039FE064622462B461F
:1028000030F0F0F842464B46CDE900012FF026FCAF
:10281000C34A03C2C54AC64BC14903C92FF080FE53
:102820001ED8C049B1F8A61D2B225143BD4A3432EF
:1028300002EBC101091D343AB2F8A62D2B235A43ED
:10284000B84B343303EBC2029278C2EBC20201EB05
:1028500082014888002304220321FEF7EFFF06E0EF
:10286000B1490023042208680321FEF7E7FFB1A164
:10287000B14826F08CFC0AEB8A00800000F12802A7
:102880005021AD4829F094FCA648B0F8A60D2B21A4
:102890004843A449343101EBC0004078022831D1CB
:1028A000A048B0F8A60D2B2148439E49343101EBD6
:1028B000C001091D9B48B0F8A60D2B225043994A30
:1028C000343202EBC0008078C0EBC00011F8200069
:1028D00002280BD11421994826F026FD97489649E5
:1028E0000968016096A126F052FC21E01421954868
:1028F00026F01AFD934890490968016090A126F0DE
:1029000046FC15E014218F4826F00EFD8D488A49BB
:10291000096801608AA126F03AFC1421874826F054
:1029200003FD864884490968016085A126F02FFCD3
:102930007C48B0F8A60D2B2148437A49343101EB8D
:10294000C000001D3439B1F8A61D2B225143754A31
:10295000343202EBC1018978C1EBC10110F82100CA
:10296000052875D2DFE800F0030493DBDA0000BF2E
:102970006D4840684FF6FF71884206D16E4872A1DB
:102980000A680260898881806FE06648C08D0128EE
:102990003CD16448B0F8A60D2B214843614934313D
:1029A00001EBC00101F5A1715E48B0F8A60D2B2224
:1029B00050435C4A343202EBC0008078401E31F84C
:1029C000100059494968884203D900205649486097
:1029D0001CE05448B0F8A60D2B214843514934312E
:1029E00001EBC00101F5A1714E48B0F8A60D2B22F4
:1029F00050434C4A343202EBC0008078401E31F81C
:102A0000100049494968081A474948605048007809
:102A100001280CD144490023042248680321FEF711
:102A20000DFF484844490968C0F807101DE04848B0
:102A3000007870B93C490023042248680221FEF75F
:102A4000FDFE40483C49D1F80110C0F807100CE0E9
:102A5000D6E035490023042248680121FEF7EEFE46
:102A600038483CA10968C0F807103CA1354826F059
:102A70008EFB3BA1304826F08AFB0AEB8A008000DF
:102A800000F12802A0212C4829F092FBB9E0264849
:102A90004068344988420AD1274833A10A68026055
:102AA0004968416033A1254826F071FB1CE01E49AE
:102AB0004868FFF716FD0190304801990160024611
:102AC0009178108800230422FEF7B8FE2B48C078C6
:102AD00000EB80002A4A02EB4001174826F057FB22
:102AE0001549164826F053FB0AEB8A00800000F1D6
:102AF0002802A021104829F05BFB2048C07820B9AB
:102B000020A10E4826F043FB48E01C48C07801286D
:102B10003CD11DA1094826F03AFB3FE06FE03EE0C2
:102B200040000010CC0F0010400300107B14AE4793
:102B3000E17A843F6B560000800F0010B40700104C
:102B40006B563B00A0070010555050455200000046
:102B50000B010010302E3030000000006D413B00B2
:102B60006D412000F6FF09005550504552202020AD
:102B7000000000003E3939393900000030000010F3
:102B8000C30706006B3B00004D3B0000FE48C078C9
:102B9000022803D1FDA1FE4826F0F9FA31E0FD48F4
:102BA00040684FF6FF71884207D1FB48AFF24801F9
:102BB0000A680260496841600EE0F6494868FFF71C
:102BC000F4FB0190F0480199016002469178108869
:102BD00000230422FEF732FEEB48C07800EB4000F1
:102BE000EE4A8118EC4826F0D2FA0AEB8A008000FF
:102BF00000F12802A021E84829F0DAFA01E000E01B
:102C000000BF00BFE3490889012304221946FEF7EB
:102C100015FEE3A1E04826F0BAFAF3225421DE487B
:102C200029F0C6FADF490878FFF7B1FBBDE8FC8759
:102C30002DE9F843044620462FF018FC05460022F3
:102C4000D94B2FF0A7FD13D820462FF00FFC0546D7
:102C50000022D64B2FF002FA07462FF0C3FB80B2BA
:102C6000ADF8000002208DF802008DF8030025E089
:102C700020462FF0FBFB05460022CD4B2FF08AFDAE
:102C800013D820462FF0F2FB05460022C94B2FF047
:102C9000E5F907462FF0A6FB80B2ADF80000022050
:102CA0008DF802008DF8030008E0A0B2ADF8000036
:102CB00003208DF8020001208DF803000098BDE884
:102CC000F88338B50120FEF771FE0520FFF73FF9C4
:102CD000B94829F0D6FD18234FF4B9720321C82052
:102CE00029F046FB022029F01BFE6FF07F4029F0FF
:102CF000C8FDB248B0F8A60D421CB1A1A64825F007
:102D0000E5FF0322C821A44829F052FA6FF07F4062
:102D100029F0B7FDAD4829F0C5FD00240FE0AC4A0D
:102D200002EB4412A54B1B7802EB031004EB840268
:102D3000642303EB0211282229F03AFA641C032CC5
:102D4000EDD3A44829F0AEFD002426E0601C00EB82
:102D500080008000283002B202231421601C29F078
:102D60007FF99649B1F8A61D2B235943934B343371
:102D700003EBC101091D631CC3EBC30311F823104E
:102D8000954B03EBC100611C01EB8101890001F14E
:102D90002802322129F00CFA641C8848B0F8A60DEC
:102DA0002B2148438549343101EBC0004078A042D3
:102DB000CCD88A4829F065FD844829F073FD0024A9
:102DC00090E07E49B1F8A61D2B2251437B4A343254
:102DD00002EBC101091D621CC2EBC20201EB8201C0
:102DE0004888002304220321FEF728FDAFF2BC210E
:102DF000694826F0CCF9601C00EB8000800000F1EF
:102E000028025021644829F0D3F96C49B1F8A61D75
:102E10002B225143694A343202EBC101091D621C65
:102E2000C2EBC20201EB82014868FFF701FF00908C
:102E30009DF80210BDF8000000230422FEF7FEFCFE
:102E40005E48B0F8A60D2B2148435C49343101EBB4
:102E5000C000001D611CC1EBC10110F8210080B150
:102E60005648B0F8A60D2B2148435449343101EBA4
:102E7000C000001D611CC1EBC10110F82100012838
:102E800004D15749444826F082F91BE04B48B0F87A
:102E9000A60D2B2148434949343101EBC000001DE8
:102EA000611CC1EBC10110F8210002280AD19DF874
:102EB00003004B4A103A02EB001000F108013648BB
:102EC00026F065F9601C00EB8000800000F128020C
:102ED000A021314829F06CF964221146EA2029F03A
:102EE000ABF8641C3548B0F8A60D2B214843334994
:102EF000343101EBC0004078A0423FF662AF334866
:102F000029F0D0FC38BD38B50120FEF74FFD002078
:102F1000FFF71DF8284829F0B4FC18234FF4B972C4
:102F20000321C82029F024FA022029F0F9FC6FF0CF
:102F30007F4029F0A6FC2148B0F8A60D421C20A134
:102F4000154825F0C3FE0322C821134829F030F9A3
:102F50006FF07F4029F095FC174829F087FC00248A
:102F600096E004F00100E8BB1449B1F8A61D2B233C
:102F70005943124B343303EBC101091D343BB3F801
:102F8000A63D2B256B432EE030000010473B000090
:102F9000B407001040030010800F0010090906005C
:102FA0002073000034010010006AF840000059400E
:102FB00000409F40000024403366CC00CC0F00103E
:102FC00047726F75702025302E326400F044060081
:102FD000049C0500ECFD060008EA0500FFFF8000E8
:102FE00060EA050022E0FE4D05EBC3039B78C3EBCE
:102FF000C30311F823104D235943FA4B03EB81010E
:10300000C4EBC40301EB8301A5F134031B78C3EBCC
:10301000C30301EB4300611C490801EB4101C900F6
:1030200001F11A02042129F0C3F830E0EC493439E7
:10303000B1F8A61D2B235943E94B03EBC101091D30
:10304000343BB3F8A63D2B256B43E54D05EBC3039D
:103050009B78C3EBC30311F823104D235943E14B75
:1030600003EB8101C4EBC40301EB8301A5F134033D
:103070001B78C3EBC30301EB4300611E490801EB5E
:103080004101C90001F11A02B82129F091F8641C2C
:103090000B2CFFF466AF6FF07F4029F0F2FBD048B5
:1030A0003438B0F8A60D2B214843CD4901EBC000C0
:1030B0004378A1F13400B0F8A60D2B214843C8494C
:1030C00001EBC0008278C8A1C94825F0FFFD1A2293
:1030D0007821C74829F06CF8C1493439B1F8A61DE8
:1030E0002B225143BE4A02EBC101091D343AB2F80A
:1030F000A62D2B235A43BA4B03EBC2029278C2EBA4
:10310000C20211F82210BB4A02EBC1001A224FF48E
:10311000967129F04DF8B2483438B0F8A60D2B213D
:103120004843AF4901EBC000001D3439B1F8A61D7A
:103130002B225143AA4A02EBC1018978C1EBC1019C
:1031400010F8210005286FD2DFE810F00500F0012B
:1031500016044A058706A2493439B1F8A61D2B2268
:1031600051439F4A02EBC101091D343AB2F8A62D22
:103170002B235A439A4B03EBC2029278C2EBC20252
:1031800001EB82014888002304220321FEF756FB4D
:10319000AFF26061964825F0FAFF32227821944818
:1031A00029F006F88E483438B0F8A60D2B21484394
:1031B0008B4901EBC001091D89483438B0F8A60DD0
:1031C0002B225043864A02EBC0008078C0EBC0003F
:1031D00001EB8000008940B3A2F13401B1F8A61DD3
:1031E0002B2251437E4A02EBC102121D7C49343925
:1031F000B1F8A61D2B235943794B03EBC101897804
:10320000C1EBC10102EB81010889002304220121E5
:10321000FEF714FB78A1764825F0B9FF4A22782101
:10322000734828F0C5FF0BE0FDE3FFE76C49343934
:103230000978724A02EBC1004A22782128F0B8FFCF
:1032400067483438C08B00285ED065483438B0F801
:10325000A60D2B214843624901EBC001091D6048BE
:103260003438B0F8A60D2B2250435D4A02EBC00063
:103270008078C0EBC00001EB8000408A002838DD78
:10328000A2F13400B0F8A60D2B214843114601EB02
:10329000C000001D3439B1F8A61D2B225143504AFD
:1032A00002EBC1018978C1EBC10100EB8100408ACA
:1032B00009281EDCA2F13401B1F8A61D2B225143CE
:1032C000474A02EBC102121D45493439B1F8A61D27
:1032D0002B235943424B03EBC1018978C1EBC10158
:1032E00002EB8101488A01236222782128F0B8FE8E
:1032F00055E03B4934390978414A02EBC10062226A
:10330000782128F055FF4AE035483438B0F8A60D4A
:103310002B214843324901EBC001091D30483438A4
:10332000B0F8A60D2B2250432D4A02EBC000807846
:10333000C0EBC00001EB8000408A30B3A2F1340141
:10334000B1F8A61D2B225143254A02EBC101091DEC
:10335000343AB2F8A62D2B235A43214B03EBC20279
:103360009278C2EBC20201EB8201488A0023032259
:103370000121FEF763FA23A11D4825F008FF622210
:1033800078211B4828F014FF09E0154934390978E1
:103390001B4A02EBC1006222782128F009FF104984
:1033A0003439B1F8A61D2B2251430D4A02EBC1015D
:1033B000091D343AB2F8A62D2B235A43084B03EBD0
:1033C000C2029278C2EBC20201EB82014868FFF7A9
:1033D0002FFC00909DF80210BDF80000002313E0C0
:1033E0000010001004AA050025642F2564000000C9
:1033F000800F001008EA050073000000F8E90500DE
:10340000E8E805006D4100000422FEF717FAFE49C6
:10341000FE4825F0BCFE32224FF49671FB4828F09E
:10342000C7FEFB48B0F8A60D2B214843F8493431BC
:1034300001EBC001091DF648B0F8A60D2B22504340
:10344000F34A343202EBC0008078C0EBC00001EBDD
:103450008000C06870B3EE49B1F8A61D2B2251431D
:10346000EB4A343202EBC102121DE949B1F8A61D44
:103470002B235943E64B343303EBC1018978C1EB6D
:10348000C10102EB8101C868FFF7D2FB00909DF8F3
:103490000210BDF8000000230422FEF7CFF9DA493C
:1034A000DA4825F074FE4A224FF49671D74828F086
:1034B0007FFE09E0D6490978D64A02EBC1004A22CC
:1034C0004FF4967128F074FE4FF6FF7029F0D9F989
:1034D000D14829F0CBF9002029F022FACF4829F071
:1034E000E1F978222821CEA028F062FE7822F0218E
:1034F000AFF6C01028F05CFEAA222821C9A028F04F
:1035000057FEAA22F021AFF2041028F051FEC6485F
:1035100029F0C8F9F3223421C4A028F049FEF3228F
:103520008C21AFF22C1028F043FE24E2B849B1F808
:10353000A61D2B225143B64A343202EBC102121DA2
:10354000B349B1F8A61D2B235943B14B343303EBD8
:10355000C1018978C1EBC10102EB810148880023D8
:1035600004220321FEF76AF9AFF63821A74825F0B7
:103570000EFE32227821A54828F01AFEA448B0F8A1
:10358000A60D2B214843A249343101EBC000001D98
:103590003439B1F8A61D2B2251439D4A343202EB37
:1035A000C1018978C1EBC10100EB8100008940B302
:1035B0009749B1F8A61D2B225143954A343202EBAC
:1035C000C101091D343AB2F8A62D2B235A43904B62
:1035D000343303EBC2029278C2EBC20201EB8201E8
:1035E0000889002304220121FEF728F9AFF2F8111F
:1035F000864825F0CCFD4A227821844828F0D8FD61
:1036000008E0834909788A4A02EBC1004A227821FE
:1036100028F0CEFD7E49B1F8A61D2B2251437C4AED
:10362000343202EBC101091D343AB2F8A62D2B2326
:103630005A43774B343303EBC2029278C2EBC20297
:1036400001EB82014868FFF7F3FA00909DF8021041
:10365000BDF8000000230422FEF7F0F86A496B4829
:1036600025F095FD32224FF49671684828F0A0FDB0
:103670006748B0F8A60D2B2148436549343101EB6A
:10368000C000001D3439B1F8A61D2B225143604AF9
:10369000343202EBC1018978C1EBC10100EB81003A
:1036A000C06870B35A49B1F8A61D2B225143584A3D
:1036B000343202EBC102121D5549B1F8A61D2B236D
:1036C0005943534B343303EBC1018978C1EBC1013A
:1036D00002EB8101C868FFF7ABFA00909DF8021079
:1036E000BDF8000000230422FEF7A8F84649474829
:1036F00025F04DFD4A224FF49671444828F058FDBC
:103700000AE0FFE742490978424A02EBC1004A2237
:103710004FF4967128F04CFD3D48C08BF0B33C4807
:10372000B0F8A60D2B2148433949343101EBC000D4
:10373000001D3439B1F8A61D2B225143344A3432CE
:1037400002EBC1018978C1EBC10100EB8100408A25
:1037500000283ADD2E48B0F8A60D2B21484311462B
:1037600001EBC000001D3439B1F8A61D2B225143D6
:10377000274A343202EBC1018978C1EBC10100EB69
:103780008100408A092820DC2149B1F8A61D2B229E
:1037900051431F4A343202EBC10200E01FE0121D08
:1037A0001B49B1F8A61D2B235943194B343303EBA6
:1037B000C1018978C1EBC10102EB8101488A012373
:1037C0006222782128F04CFCA1E011490978114AC5
:1037D00002EBC1006222782128F0EAFC97E00C4855
:1037E000B0F8A60D2B2148430949343101EBC00143
:1037F000091D0748B0F8A60D2B225043044A343265
:1038000002EBC000807815E060EA0500800F001030
:10381000CC0F0010E8E805003366CC009CA0060041
:10382000563A0000493A0000F044060054203A009D
:10383000F8E90500C0EBC00001EB8000408AE8B366
:10384000A2F13400B0F8A60D2B214843114601EB3C
:10385000C000001D3439B1F8A61D2B225143FE4A89
:1038600002EBC1018978C1EBC10100EB8100408A04
:10387000C82818DDC823A2F13400B0F8A60D2B210A
:103880004843114601EBC000001D3439B1F8A61DB4
:103890002B224A43F04901EBC2018978C1EBC101F7
:1038A00000EB81004382EC493439B1F8A61D2B228C
:1038B0005143E94A02EBC101091D00E01DE0343A21
:1038C000B2F8A62D2B235A43E34B03EBC2029278A6
:1038D000C2EBC20201EB8201488A002303220121CC
:1038E000FDF7ACFFAFF2E441DC4825F050FC62226A
:1038F0007821DA4828F05CFC09E0D74934390978A6
:10390000D74A02EBC1006222782128F051FC4FF621
:10391000FF7028F0B6FFD34828F0A8FF002028F059
:10392000FFFFD14828F0BEFF78222821AFF2101007
:1039300028F03EFC7822F021AFF6086028F038FC31
:10394000AA222821AFF2241028F032FCAA22F0216A
:10395000AFF2505028F02CFCC44828F0A3FFF3220B
:103960003421AFF2381028F023FCF3228C21AFF27F
:10397000785028F01DFCE8E2B7493439B1F8A61DAB
:103980002B225143B44A02EBC102121DB249343911
:10399000B1F8A61D2B235943AF4B03EBC101897826
:1039A000C1EBC10102EB81014888002304220321FD
:1039B000FDF744FFAFF68461A84825F0E8FB32220A
:1039C0007821A64828F0F4FBA3483438B0F8A60DB7
:1039D0002B214843A04901EBC000001D3439B1F848
:1039E000A61D2B2251439C4A02EBC1018978C1EBF1
:1039F000C10100EB8100008948B3A2F13401B1F8A4
:103A0000A61D2B225143944A02EBC101091D343AF1
:103A1000B2F8A62D2B235A438F4B03EBC2029278A8
:103A2000C2EBC20200E08FE201EB820108890023B1
:103A300004220121FDF702FFAFF24461874825F01F
:103A4000A6FB4A227821854828F0B2FB09E082498A
:103A500034390978864A02EBC1004A22782128F0DD
:103A6000A7FB7D483438B0F8A60D2B2148437A498E
:103A700001EBC001091D78483438B0F8A60D2B229F
:103A80005043754A02EBC0008078C0EBC00001EBE8
:103A90008000406898B3A2F13401B1F8A61D2B2232
:103AA00051436D4A02EBC101091D343AB2F8A62D0B
:103AB0002B235A43684B03EBC2029278C2EBC2023B
:103AC00001EB82014868FEF70CFD00909DF80210A2
:103AD000BDF8000000230422FDF7B0FE9DF80300AE
:103AE000644A02EB001000F108015C4825F04FFB2E
:103AF00032224FF49671594828F05AFB0BE0FFE749
:103B0000554934390978564A02EBC10032224FF444
:103B1000967128F04DFB50493439B1F8A61D2B227F
:103B200051434D4A02EBC101091D343AB2F8A62DAA
:103B30002B235A43484B03EBC2029278C2EBC202DA
:103B400001EB8201C868FEF7CCFC00909DF80210E2
:103B5000BDF8000000230422FDF770FE9DF803006D
:103B6000444A02EB001000F108013C4825F00FFB2D
:103B70004A224FF49671394828F01AFB4FF6FF702D
:103B800028F07FFE374828F071FE002028F0C8FE9C
:103B9000354828F087FE78222821AFF27C3028F0C3
:103BA00007FB7822F02134A028F002FBAA2228216A
:103BB00032A028F0FDFAAA22F02131A028F0F8FA6C
:103BC0002A4828F06FFEF3223421AFF2A03028F00B
:103BD000EFFAF3228C21AFF2E07028F0E9FAB4E1B9
:103BE0001D483438B0F8A60D2B2148431A4901EB83
:103BF000C000001D3439B1F8A61D2B235943164BC4
:103C000003EBC1018978C1EBC10100EB81001DA16B
:103C1000C268124825F05AF8322278210F4828F05D
:103C2000C7FA0D483438B0F8A60D2B2148430A498D
:103C300001EBC001091D08483438B0F8A60D2B224D
:103C40005043054A02EBC0008078C0EBC00001EB96
:103C500080004068642819E000100010800F0010F8
:103C6000E8E805003366CC009CA00600F04406009E
:103C7000F8E9050050EA05006B560000523A0000D2
:103C8000CEA90000253364252500000022D3A2F12F
:103C90003400B0F8A60D2B214843114601EBC000BB
:103CA000001D3439B1F8A61D2B235943134603EBED
:103CB000C1018978C1EBC10100EB8100AFF23C0189
:103CC0004268FE4825F002F84A227821FB4828F095
:103CD0006FFA08E0FA490978FA4A02EBC1004A2271
:103CE000782128F065FAF648B0F8A60D2B21484354
:103CF000F349343101EBC000001D3439B1F8A61D81
:103D00002B225143EE4A343202EBC1018978C1EBD8
:103D1000C10100EB8100C08AE0B3E948B0F8A60D0C
:103D20002B214843114601EBC000001D3439B1F886
:103D3000A61D2B225143E24A343202EBC10189789D
:103D4000C1EBC10100EB8100C08AB0F57A7F22DBB4
:103D5000DB48B0F8A60D2B214843114601EBC0010A
:103D6000091DD748B0F8A60D2B225043D44A34324F
:103D700002EBC0008078C0EBC00001EB8000C08A7D
:103D80000A2190FBF1F50023042202212846FDF7C9
:103D900055FD1EE028E0CA49B1F8A61D2B2251436B
:103DA000C74A343202EBC101091D343AB2F8A62DDC
:103DB0002B235A43C24B343303EBC2029278C2EB3B
:103DC000C20201EB8201C88A002304220321FDF70D
:103DD00035FDBD49B94825F0DAF932224FF4967124
:103DE000B64828F0E5F905E032224FF49671B7A005
:103DF00028F0DEF94FF6FF7028F043FDB54828F0B3
:103E000035FD002028F08CFDB34828F04BFD7822CA
:103E10002821AFF2F45028F0CBF97822F021AFF24C
:103E2000A81028F0C5F9AA222821ACA028F0C0F9D2
:103E3000AA22F021AAA028F0BBF9AA4828F032FD56
:103E4000F3223421AFF21C6028F0B2F9F3228C2166
:103E5000AFF65C2028F0ACF977E032227821A2A0FE
:103E600028F0A6F99649B1F8A61D2B225143944A91
:103E7000343202EBC102121D9149B1F8A61D2B2369
:103E800059438F4B343303EBC1018978C1EBC10136
:103E900002EB810189698B4A02EB0111884A127891
:103EA00001EBC20032224FF4967128F081F9844868
:103EB000B0F8A60D2B2148438149343101EBC000F5
:103EC000001D3439B1F8A61D2B2251437C4A3432EF
:103ED00002EBC1018978C1EBC10100EB81000089CF
:103EE00040B37749B1F8A61D2B225143744A3432AE
:103EF00002EBC102121D7249B1F8A61D2B235943D2
:103F00006F4B343303EBC1018978C1EBC10102EB84
:103F100081010889002304220121FDF78FFCAFF6FF
:103F20002831664825F033F94A227821634828F081
:103F30003FF908E0624909786D4A02EBC1004A2264
:103F4000782128F035F900E000BF00BF38BD10B57A
:103F50000120FDF72BFD0220FDF7F9FF4FF6FF7062
:103F600028F08FFC5B4828F081FC00242CE004F052
:103F70000100A0B9C4EB04115E4B03EB4101504BAF
:103F80001B78C3EB0313C818611C490801EB4101FE
:103F9000C90001F11A02042128F00AF913E0C4EB68
:103FA0000411544B03EB4101454B1B78C3EB031346
:103FB000C818611E490801EB4101C90001F11A024C
:103FC000B82128F0F5F8641C102CD0D310BD38B5FA
:103FD0000446012C00D100E0002005461DB1FF2061
:103FE0004549486002E03B48434948604248808870
:103FF00080B24823C022302100905420FCF76BFF90
:104000003D48808880B200903B48008883B23B489E
:1040100000783130C2B230216C20FCF7F3FF022C63
:1040200001D1012000E0002005461DB1FF203249EA
:10403000486002E02748304948603049097801EB80
:1040400081022E49891C01EB8201C88900230422C8
:104050001946FDF7F3FB2848808880B25E23C02212
:104060004A2100905420FCF736FF0023134A4A21CE
:104070005C20FDF711FB002321A24A218E20FDF7D1
:104080000BFB032C01D1012000E0002005461DB1EF
:10409000FF201949486002E00E4817494860174957
:1040A000097801EB81021549891C01EB8201088A1C
:1040B000002304221946FDF7C1FB23E0800F001006
:1040C000CC0F0010E8E805000C0906004E4F4E45E5
:1040D000000000003366CC009CA00600433A0000BC
:1040E0006E460000F0440600504155534500000064
:1040F000F8E905005EEE05002400001098080010A5
:104100004DCEA900FB48808880B27623C022622170
:1041100000905420FCF7DFFE0023F74A62215C2068
:10412000FDF7BAFA0023AFF2280262218E20FDF7D4
:10413000B3FA042C01D1012000E0002005461DB196
:10414000FF20EC49486002E0EC48EA494860EC484E
:10415000006811281DD1E748808880B246234FF4BB
:10416000C872302100904FF48670FCF7B4FEE54829
:10417000007800EB8001E348801C00EB810040895F
:10418000E14901EB0012002332214FF48670FDF764
:1041900083FA052C01D1012000E0002005461DB165
:1041A000FF20D449486002E0D448D2494860D5494C
:1041B000097801EB8102D349891C01EB820148880F
:1041C000002304221946FDF739FBCA48808880B2D3
:1041D0005E234FF4C8724A2100904FF48470FCF7BC
:1041E0007AFE0023C44A4A214FF48D70FDF754FA39
:1041F0000023C6A24A214FF4A070FDF74DFA062C09
:1042000001D1012000E0002005461DB1FF20B94981
:10421000486002E0B948B7494860BA49097801EBFB
:104220008102B849891C01EB82018888002304229D
:104230000121FDF703FB0023AF4A62214FF4887090
:10424000FDF72AFA0023B2A262214FF4A070FDF715
:1042500023FA38BD7CB506460D460120FDF7A6FBC6
:10426000022028F05DFB6FF07F4028F00AFB00245D
:10427000F7E04FF4BE70ADF8000004EB44000421F9
:1042800001EB0010062101FB040000B2ADF80200B2
:104290004FF4EE70ADF80400601C00EB4000042108
:1042A00001EB0010062101FB040000B2ADF806008E
:1042B000052E38D2DFE806F0033850689D00954897
:1042C00090F8A50D032817D0C5EBC50101EB8101BE
:1042D000914A02EB81018F4A1278C2EBC20202EBD3
:1042E000820201EB4201C4EBC40201EB42000E2248
:1042F000694627F071FF16E0C5EBC50101EB8101AE
:10430000864A02EB8101834A1278C2EBC20202EBB9
:10431000820201EB4201C4EBC40201EB42000E2217
:10432000694627F059FF99E0C5EBC50101EB810112
:104330007B4A02EB8101774A1278C2EBC20202EBA0
:10434000820201EB4201C4EBC40201EB42000E22E7
:10435000694627F041FF81E0C5EBC50101EB810112
:10436000704A02EB81016B4A1278C2EBC20202EB87
:10437000820201EB4201C4EBC40201EB42000E22B7
:10438000694627F029FF69E0624890F8A50D0328E7
:1043900017D0C5EBC50101EB8101634A02EB810136
:1043A0005C4A1278C2EBC20202EB820201EB4201CC
:1043B000C4EBC40201EB42000E22694627F00CFF59
:1043C00016E0C5EBC50101EB8101584A02EB810102
:1043D000504A1278C2EBC20202EB820201EB4201A8
:1043E000C4EBC40201EB42000E22694627F0F4FE42
:1043F00034E0484890F8A50D032817D0C5EBC50157
:1044000001EB81014A4A02EB8101424A1278C2EB78
:10441000C20202EB820201EB4201C4EBC40201EBD7
:1044200042000E22694627F0D7FE16E0C5EBC50113
:1044300001EB81013F4A02EB8101364A1278C2EB5F
:10444000C20202EB820201EB4201C4EBC40201EBA7
:1044500042000E22694627F0BFFE00BF00BF601C6D
:10446000C4B2052CFFF605AF7CBDF8B5054600BF0C
:10447000224828F006FA18234FF4B9720321C82005
:1044800027F076FF022028F04BFA6FF07F4028F0EB
:10449000F8F92048B0F8A60D421C2749164824F028
:1044A00015FC0322C821144827F082FE01245CE099
:1044B000AC4203D1FF2028F0E4F902E00F4828F0D5
:1044C000E0F904F00100A0B1601E012202EB5000EF
:1044D00000EB4000C00000F11803601E00EB40003C
:1044E000C000182202EB5001B4225A2027F040FFEE
:1044F0003AE023E024000010800F00103366CC0067
:10450000300100109808001050F9050020560000F6
:1045100020730000CC0F001008B0050010BC05008F
:1045200078CC050008D3050080B5050088C10500DA
:10453000C8B80500D0C40500C02F0200601E0122CB
:1045400002EB500000EB4000C00000F11803601EB9
:10455000400800EB4000C00000F118014FF4B772B2
:104560004FF48A7027F004FF641CFE48B0F8A60DD3
:104570002B214843FB49343101EBC000001D343985
:10458000B1F8A61D2B225143F64A343202EBC10189
:104590008978C1EBC10110F82100F349085C401C87
:1045A000A04285D8022028F0BBF96FF07F4028F0A8
:1045B00068F9EC48B0F8A60D2B214843E94934319D
:1045C00001EBC0004378E748B0F8A60D2B21484323
:1045D000E449343101EBC0008278E449E44824F036
:1045E00075FB1A227821E24827F0E2FDDD49B1F897
:1045F000A61D2B225143DB4A343202EBC101091DB7
:10460000343AB2F8A62D2B235A43D64B343303EB5E
:10461000C2029278C2EBC20211F82210D54A02EB14
:10462000C1001A224FF4967127F0C2FDCD48B0F8B0
:10463000A60D2B214843CB49343101EBC001091DA4
:10464000C848B0F8A60D2B225043C64A343202EBBC
:10465000C0008078C0EBC00011F82000052881F070
:104660006081DFE810F005008B020406F707E6081A
:10467000BC49B1F8A61D2B225143BA4A343202EB91
:10468000C101091D343AB2F8A62D2B235A43B54B6C
:10469000343303EBC2029278C2EBC20201EB820117
:1046A0004888002304220321FDF7C8F8AFF638211B
:1046B000AF4824F06CFD32227821AD4827F078FD18
:1046C000A848B0F8A60D2B214843A649343101EB88
:1046D000C001091DA348B0F8A60D2B225043A14AE2
:1046E000343202EBC0008078C0EBC00001EB8000E8
:1046F000008938B39B49B1F8A61D2B225143994A32
:10470000343202EBC102121D9649B1F8A61D2B23CB
:104710005943944B343303EBC1018978C1EBC10198
:1047200002EB81010889002304220121FDF786F8AC
:1047300091A18F4824F02BFD4A2278218C4827F044
:1047400037FD08E0874909788C4A02EBC1004A220C
:10475000782127F02DFD8348B0F8A60D2B21484382
:104760008049343101EBC001091D7E48B0F8A60D27
:104770002B2250437B4A343202EBC0008078C0EBDE
:10478000C00001EB8000008A38B37649B1F8A61D5D
:104790002B225143734A343202EBC101091D343AD2
:1047A000B2F8A62D2B235A436E4B343303EBC202CF
:1047B0009278C2EBC20201EB8201088A0023042234
:1047C0000121FDF73BF86CA1694824F0E0FC62226E
:1047D0007821674827F0ECFC08E062490978684ACC
:1047E00002EBC1006222782127F0E2FC5D48B0F8BC
:1047F000A60D2B2148435B49343101EBC000001D5D
:104800003439B1F8A61D2B225143564A343202EBFB
:10481000C1018978C1EBC10100EB8100808A38B306
:104820005049B1F8A61D2B2251434E4A343202EBB7
:10483000C102121D4B49B1F8A61D2B235943494B08
:10484000343303EBC1018978C1EBC10102EB810173
:10485000888A002304220121FCF7F0FF46A1444886
:1048600024F095FC7A227821414827F0A1FC08E049
:104870003C490978424A02EBC1007A22782127F0AC
:1048800097FC3849B1F8A61D2B225143354A3432E2
:1048900002EBC102121D3349B1F8A61D2B23594367
:1048A000304B343303EBC1018978C1EBC10102EB1A
:1048B00081014868FEF7BCF900909DF80210BDF830
:1048C000000000230422FCF7B9FF2E49284824F0F9
:1048D0005EFC32224FF49671254827F069FC21488E
:1048E000B0F8A60D2B2148431E49343101EBC0001E
:1048F000001D3439B1F8A61D2B225143194A343218
:1049000002EBC1018978C1EBC10100EB8100C068F5
:10491000D0B31449B1F8A61D2B225143114A3432A9
:1049200002EBC101091D343AB2F8A62D2B235A43DC
:104930000C4B343303EBC2029278C2EBC20201EBA0
:104940008201C868FEF774F900909DF80210BDF866
:10495000000000230422FCF771FF0A49044824F0F8
:1049600016FC12E0CC0F0010B49B0500E8330200E7
:10497000800F001008EA050073000000F8E9050048
:10498000E8E8050060EA050006E04A224FF4967167
:10499000FC4827F00DFC09E0FB490978FB4A02EBD3
:1049A000C1004A224FF4967127F002FCF648C08BF2
:1049B00000287DD0F448B0F8A60D2B214843F249D9
:1049C000343101EBC000001D3439B1F8A61D2B2293
:1049D0005143ED4A343202EBC1018978C1EBC10188
:1049E00000EB8100408A092818DD0923E648B0F869
:1049F000A60D2B214843114601EBC001091DE248D9
:104A0000B0F8A60D2B225043DF4A343202EBC0002F
:104A10008078C0EBC00001EB80004382DA48B0F838
:104A2000A60D2B214843D849343101EBC000001DAD
:104A30003439B1F8A61D2B225143D34A343202EB4C
:104A4000C1018978C1EBC10100EB8100408A0028D7
:104A50003BDDCD48B0F8A60D2B214843114601EBB4
:104A6000C001091DC848B0F8A60D2B225043C64A04
:104A7000343202EBC0008078C0EBC00001EB800054
:104A8000408A092821DCC049B1F8A61D2B225143D8
:104A9000BD4A343202EBC101091D343AB2F8A62DE9
:104AA0002B235A43B84B343303EBC202927800E015
:104AB00016E0C2EBC20201EB8201488A01236222A6
:104AC0004FF4967127F0CCFA57E0AF490978AF4A16
:104AD00002EBC10062224FF4967127F069FB4CE0B3
:104AE000A948B0F8A60D2B214843A749343101EB62
:104AF000C000001D3439B1F8A61D2B225143A24A33
:104B0000343202EBC1018978C1EBC10100EB8100B5
:104B1000408A40B39C49B1F8A61D2B2251439A4AC2
:104B2000343202EBC101091D343AB2F8A62D2B2311
:104B30005A43954B343303EBC2029278C2EBC20264
:104B400001EB8201488A002303220121FCF776FE53
:104B50008FA18C4824F01BFB62224FF49671894888
:104B600027F026FB09E088490978884A02EBC10052
:104B700062224FF4967127F01BFB77E38249B1F86C
:104B8000A61D2B225143804A343202EBC101091D7C
:104B9000343AB2F8A62D2B235A437B4B343303EB24
:104BA000C2029278C2EBC20201EB82014888002364
:104BB00004220321FCF742FEAFF64471714824F051
:104BC000E6FA322278216F4827F0F2FA6E48B0F800
:104BD000A60D2B2148436C49343101EBC001091D5E
:104BE0006948B0F8A60D2B225043674A343202EBD5
:104BF000C0008078C0EBC00001EB8000008940B3AA
:104C00006149B1F8A61D2B2251435F4A343202EBB1
:104C1000C101091D343AB2F8A62D2B235A435A4B31
:104C2000343303EBC2029278C2EBC20201EB820181
:104C30000889002304220121FCF700FEAFF2C821FD
:104C4000504824F0A4FA4A2278214E4827F0B0FABE
:104C500008E04D4909784F4A02EBC1004A22782109
:104C600027F0A6FA4848B0F8A60D2B21484346493C
:104C7000343101EBC001091D4348B0F8A60D2B22C9
:104C80005043414A343202EBC0008078C0EBC00090
:104C900001EB8000008A40B33B49B1F8A61D2B22EE
:104CA0005143394A343202EBC101091D343AB2F89A
:104CB000A62D2B235A43344B343303EBC202927894
:104CC000C2EBC20201EB8201088A00230422012107
:104CD000FCF7B4FDAFF260312A4824F058FA6222A2
:104CE0007821284827F064FA08E027490978274AFC
:104CF00002EBC1006222782127F05AFA2248B0F86C
:104D0000A60D2B2148432049343101EBC001091D78
:104D10001D48B0F8A60D2B2250431B4A343202EB3B
:104D2000C0008078C0EBC00001EB8000808A40B3F7
:104D30001549B1F8A61D2B225143134A343202EB18
:104D4000C101091D343AB2F8A62D2B235A430E4B4C
:104D5000343303EBC2029278C2EBC20201EB820150
:104D6000888A002304220121FCF768FDAFF2F831A4
:104D7000044824F00CFA7A227821024827F018FA25
:104D800013E009E0800F0010CC0F0010E8E80500E8
:104D90006D410000F8E90500FE490978FE4A02EB82
:104DA000C1007A22782127F003FAFA48B0F8A60D5C
:104DB0002B214843F749343101EBC000001D343941
:104DC000B1F8A61D2B225143F24A343202EBC10145
:104DD0008978C1EBC10100EB81008069F0B3ED4837
:104DE000B0F8A60D2B214843114601EBC000001D71
:104DF0003439B1F8A61D2B225143E64A343202EB76
:104E0000C1018978C1EBC10100EB8100806940F6E6
:104E1000AC51884218D30B46DE48B0F8A60D2B21C2
:104E20004843114601EBC001091DDA48B0F8A60D50
:104E30002B225043D74A343202EBC0008078C0EBBB
:104E4000C00001EB80008361D249B1F8A61D2B227E
:104E50005143D04A343202EBC10200E01EE0121D81
:104E6000CC49B1F8A61D2B235943CA4B343303EB6D
:104E7000C1018978C1EBC10102EB81010023042249
:104E800088690121FCF7DAFCC4A1C54824F07FF948
:104E900092227821C24827F08BF923E0BD49B1F86E
:104EA000A61D2B225143BB4A343202EBC102121D14
:104EB000B849B1F8A61D2B235943B64B343303EB45
:104EC000C1018978C1EBC10102EB81018969B24A54
:104ED00002EB0111AF4A127801EBC2009222782155
:104EE00027F066F9AB49B1F8A61D2B225143A94A18
:104EF000343202EBC102121DA649B1F8A61D2B23C4
:104F00005943A44B343303EBC1018978C1EBC10190
:104F100002EB81014868FDF78BFE00909DF80210BE
:104F2000BDF8000000230422FCF788FC9D499C4842
:104F300024F02DF932224FF49671994827F038F970
:104F40009448B0F8A60D2B2148439249343101EB27
:104F5000C001091D8F48B0F8A60D2B2250438D4A81
:104F6000343202EBC0008078C0EBC00001EB80005F
:104F7000C06870B38749B1F8A61D2B225143854AFA
:104F8000343202EBC102121D8249B1F8A61D2B2357
:104F90005943804B343303EBC1018978C1EBC10124
:104FA00002EB8101C868FDF743FE00909DF80210F6
:104FB000BDF8000000230422FCF740FC7949784842
:104FC00024F0E5F84A224FF49671754827F0F0F87E
:104FD0000AE0FFE76F4909786F4A02EBC1004A22F5
:104FE0004FF4967127F0E4F86A48C08B00287DD012
:104FF0006848B0F8A60D2B2148436649343101EBCF
:10500000C000001D3439B1F8A61D2B225143614A5E
:10501000343202EBC1018978C1EBC10100EB8100A0
:10502000408A092818DD09235A48B0F8A60D2B211B
:105030004843114601EBC001091D5648B0F8A60DC2
:105040002B225043534A343202EBC0008078C0EB2D
:10505000C00001EB800043824E48B0F8A60D2B2122
:1050600048434C49343101EBC001091D4948B0F8AF
:10507000A60D2B225043474A343202EBC000807801
:10508000C0EBC00001EB8000408A00283BDD4148B6
:10509000B0F8A60D2B214843114601EBC001091DB4
:1050A0003C48B0F8A60D2B2250433A4A343202EB6A
:1050B000C0008078C0EBC00001EB8000408A092866
:1050C00021DC3449B1F8A61D2B225143314A343238
:1050D00002EBC102121D2F49B1F8A61D2B23594323
:1050E0002C4B343303EBC101897800E016E0C1EBAF
:1050F000C10102EB8101488A012362224FF49671BB
:1051000026F0AEFF64E023490978234A02EBC10090
:1051100062224FF4967127F04BF859E01D48B0F821
:10512000A60D2B2148431B49343101EBC000001D63
:105130003439B1F8A61D2B225143164A343202EB02
:10514000C1018978C1EBC10100EB8100408A58B3ED
:105150001049B1F8A61D2B2251430E4A343202EBFE
:10516000C101091D343AB2F8A62D2B235A43094B2D
:10517000343303EBC2029278C2EBC20201EB82012C
:10518000488A002304220121FCF758FBAFF20041BA
:1051900003480AE0CC0F0010E8E805007541000064
:1051A000800F001060EA050008E023F0F0FF6222A3
:1051B0004FF49671FE4826F0FBFF09E0FD4909789F
:1051C000FD4A02EBC10062224FF4967126F0F0FF17
:1051D000F848B0F8A60D2B214843F649343101EBCD
:1051E000C000001D3439B1F8A61D2B225143F14AED
:1051F000343202EBC1018978C1EBC10100EB8100BF
:10520000C08A48B3EB49B1F8A61D2B225143E94AA5
:10521000343202EBC101091D343AB2F8A62D2B231A
:105220005A43E44B343303EBC2029278C2EBC2021E
:1052300001EB8201C88A002304220121FCF7FEFA57
:10524000AFF6CC01DA4823F0A2FF7A224FF4967130
:10525000D74826F0ADFF09E0D6490978D64A02EBD7
:10526000C1007A224FF4967126F0A2FF5AE3D14989
:10527000B1F8A61D2B225143CE4A343202EBC101B4
:10528000091D343AB2F8A62D2B235A43C94B3433A7
:1052900003EBC2029278C2EBC20201EB82014888A2
:1052A000002304220321FCF7C9FAC4A1C04823F05B
:1052B0006EFF32227821BE4826F07AFFBD48B0F852
:1052C000A60D2B214843BB49343101EBC000001D22
:1052D0003439B1F8A61D2B225143B64A343202EBC1
:1052E000C1018978C1EBC10100EB8100008940B3A5
:1052F000B049B1F8A61D2B225143AE4A343202EB1D
:10530000C102121DAB49B1F8A61D2B235943A94B6D
:10531000343303EBC1018978C1EBC10102EB810198
:105320000889002304220121FCF788FAAFF6B8119E
:105330009F4823F02CFF4A2278219D4826F038FF11
:1053400008E09C4909789E4A02EBC1004A22782174
:1053500026F02EFF9748B0F8A60D2B21484395491B
:10536000343101EBC001091D9248B0F8A60D2B2283
:105370005043904A343202EBC0008078C0EBC0004A
:1053800001EB8000008A40B38A49B1F8A61D2B22A8
:105390005143884A343202EBC101091D343AB2F854
:1053A000A62D2B235A43834B343303EBC20292784E
:1053B000C2EBC20201EB8201088A00230422012110
:1053C000FCF73CFAAFF65021794823F0E0FE622268
:1053D0007821774826F0ECFE08E076490978764A8D
:1053E00002EBC1006222782126F0E2FE7148B0F89B
:1053F000A60D2B2148436F49343101EBC001091D33
:105400006C48B0F8A60D2B2250436A4A343202EBA6
:10541000C0008078C0EBC00001EB8000808A40B300
:105420006449B1F8A61D2B225143624A343202EB83
:10543000C102121D5F49B1F8A61D2B2359435D4BD4
:10544000343303EBC1018978C1EBC10102EB810167
:10545000888A002304220121FCF7F0F9AFF6E82145
:10546000534823F094FE7A227821514826F0A0FE7A
:1054700008E050490978504A02EBC1007A227821AD
:1054800026F096FE4B48B0F8A60D2B21484349491B
:10549000343101EBC000001D3439B1F8A61D2B22B8
:1054A0005143444A343202EBC1018978C1EBC10156
:1054B00000EB81004068A0B33E49B1F8A61D2B2245
:1054C00051433C4A343202EBC102121D3949B1F852
:1054D000A61D2B235943374B343303EBC101897885
:1054E000C1EBC10102EB81014868FCF7FAFF0090B3
:1054F0009DF80210BDF8000000230422FCF79EF97D
:105500009DF803002F4A02EB001000F10801284823
:1055100023F03DFE32224FF49671254826F048FED6
:105520000AE0FFE723490978234A02EBC10032224F
:105530004FF4967126F03CFE1E49B1F8A61D2B22B1
:1055400051431C4A343202EBC102121D1949B1F811
:10555000A61D2B235943174B343303EBC101897824
:10556000C1EBC10102EB8101C868FCF7BAFF0090F2
:105570009DF80210BDF8000000230422FCF75EF93C
:105580009DF803000F4A02EB001000F108010848E3
:1055900023F0FDFD4A224FF49671054826F008FEDF
:1055A0000449B1F8A61D2B225143024A34320BE0C4
:1055B000800F0010CC0F0010E8E805006B560000CB
:1055C000F8E9050050EA050002EBC102121DFE4990
:1055D000B1F8A61D2B235943FB4B343303EBC10118
:1055E0008978C1EBC10102EB8101498AF64A127840
:1055F000C2EBC202F54B03EBC20202EBC100622216
:105600004FF4967126F0D4FDEF49B1F8A61D2B2278
:105610005143ED4A343202EBC102121DEA49B1F89E
:10562000A61D2B235943E84B343303EBC101897882
:10563000C1EBC10102EB81018969E54A02EB01116D
:10564000E14A127801EBC2007A224FF4967126F0FB
:10565000AFFD67E1DC48B0F8A60D2B214843DA49DD
:10566000343101EBC001091DD748B0F8A60D2B233A
:105670005843D54B343303EBC0008078C0EBC000F7
:1056800001EB8000D349C268D34823F01FFB3222CC
:105690007821D14826F08CFDCB48B0F8A60D2B21FF
:1056A0004843C949343101EBC001091DC648B0F86F
:1056B000A60D2B225043C44A343202EBC00080783E
:1056C000C0EBC00001EB80004068642820D3BE48D6
:1056D000B0F8A60D2B214843114601EBC001091D6E
:1056E000B948B0F8A60D2B235843134603EBC0006E
:1056F0008078C0EBC00001EB8000B6494268B64834
:1057000023F0E4FA4A227821B34826F051FD08E05C
:10571000AD490978AE4A02EBC1004A22782126F051
:1057200047FDA948B0F8A60D2B214843A6493431BE
:1057300001EBC000001D3439B1F8A61D2B225143E6
:10574000A14A343202EBC1018978C1EBC10100EBFF
:105750008100C08AE0B39C48B0F8A60D2B214843D5
:10576000114601EBC000001D3439B1F8A61D2B22F3
:105770005143954A343202EBC1018978C1EBC10132
:1057800000EB8100C08AB0F57A7F22DB8E48B0F84A
:10579000A60D2B214843114601EBC001091D8A4883
:1057A000B0F8A60D2B225043874A343202EBC000DA
:1057B0008078C0EBC00001EB8000C08A0A2190FB1A
:1057C000F1F60023042202213046FCF737F81EE0F0
:1057D00028E07D49B1F8A61D2B2251437A4A343284
:1057E00002EBC101091D343AB2F8A62D2B235A430E
:1057F000754B343303EBC2029278C2EBC20201EB69
:105800008201C88A002304220321FCF717F8734998
:10581000714823F0BCFC32224FF496716E4826F09A
:10582000C7FC05E032224FF496716D4826F0C0FCAB
:1058300078E0322278216A481C3026F0B9FC6249AF
:10584000B1F8A61D2B2251435F4A343202EBC1024C
:10585000121D5D49B1F8A61D2B2359435A4B343311
:1058600003EBC1018978C1EBC10102EB81018969B8
:10587000574A02EB0111544A127801EBC20032225E
:105880004FF4967126F094FC4F48B0F8A60D2B21EA
:1058900048434D49343101EBC000001D3439B1F8A3
:1058A000A61D2B225143484A343202EBC1018978AC
:1058B000C1EBC10100EB8100008940B34249B1F85E
:1058C000A61D2B225143404A343202EBC102121D65
:1058D0003D49B1F8A61D2B2359433B4B343303EB11
:1058E000C1018978C1EBC10102EB81010889002364
:1058F00004220121FBF7A2FFAFF68471364823F0A2
:1059000046FC4A227821344826F052FC08E02E4911
:105910000978344A02EBC1004A22782126F048FC7B
:1059200000E000BF00BF2849B1F8A61D2B2251435B
:10593000254A343202EBC101091D343AB2F8A62DD2
:105940002B235A43204B343303EBC2029278C2EB31
:10595000C20211F822002946FEF77CFCF8BD7CB596
:1059600005460120FCF722F842F6692026F07EFF6A
:10597000022026F0D5FF6FF07F4026F082FF002442
:1059800049E04FF4BE70ADF8000004EB4400042180
:1059900001EB0010062101FB040000B2ADF802008B
:1059A0004FF4EE70ADF80400601C00EB40000421E1
:1059B00001EB0010062101FB040000B2ADF8060067
:1059C000C5EBC50110E00000CC0F001088E9050010
:1059D000E8E80500843C0200800F00100C09060076
:1059E000CC400200F8E9050001EB8101F94A02EB25
:1059F0008101F94A1278C2EBC20202EB820201EB8A
:105A00004201C4EBC40201EB42000E22694626F0BB
:105A1000E3FB601CC4B2052CB3DB7CBD2DE9F04771
:105A20000746ED4C1434102601253BE0BD4203D15E
:105A3000FF2026F026FF02E0E84826F022FF701C37
:105A400000EBD071B5EB610F0FD805EB4500C0003E
:105A500000F11803681E00EB4000C00000F11801BF
:105A6000B4226E2026F084FC1BE006F1010808EB4E
:105A7000D870A5EB600000EB4000C00000F11803F7
:105A8000C14609EBD970A5EB6000401E00EB400059
:105A9000C00000F118014FF4B7724FF4947026F073
:105AA00067FC6D1CB5F5F07FC0D9022026F038FFE9
:105AB0006FF07F4026F0E5FE002525E0012D0ED198
:105AC00034F81500B0F57A7F09D105EB45001A21AD
:105AD00001EBC0027821C2A026F06AFB13E034F883
