:020000040002F8
:10000000F823001071330300793303007B330300BE
:100010007D3303007F3303008133030000000000C1
:100020000000000000000000000000008333030017
:10003000853303000000000087330300C17A02000B
:100040008B330300E307020077080200B3080200C5
:10005000C50802002B4D03008B3303008B330300D4
:10006000434D03008B3303008B3303008B330300BA
:100070008B3303008B3303008B3303008B3303007C
:100080008B3303008B3303008B3303008B3303006C
:100090008B3303008B3303008B3303008B3303005C
:1000A000B57703008B3303008B3303008B330300DE
:1000B0008B3303008B3303008B3303008B3303003C
:1000C0008B3303008B3303008B3303008B3303002C
:1000D0008B3303008B330300970502008B3303003F
:1000E0008B33030000F002F800F076F80AA090E8E5
:1000F000000C82448344AAF10107DA4501D100F0E3
:100100006BF8AFF2090EBAE80F0013F0010F18BF39
:10011000FB1A43F001031847C85B0400E85B0400C6
:100120000A444FF0000C10F8013B13F0070408BF1D
:1001300010F8014B1D1108BF10F8015B641E05D0BB
:1001400010F8016B641E01F8016BF9D113F0080F70
:100150001EBF10F8014BAD1C0C1B09D16D1E58BF02
:1001600001F801CBFAD505E014F8016B01F8016B39
:100170006D1EF9D59142D6D37047000000230024AC
:1001800000250026103A28BF78C1FBD8520728BFA7
:1001900030C148BF0B607047662926F03585672956
:1001A00026F0328564291CF03D8273291CF0FF87FC
:1001B000002070471FB51CF03BFD0400002000210B
:1001C00025F0D4FA401C60600020002125F0E4FAFC
:1001D000E0601FBD10B510BD1DF054FB1146FFF7C8
:1001E000E9FF00F023F91DF0EFFD03B4FFF7F2FF84
:1001F00003BC1DF0F3FD000040F2012082490860BD
:100200008249C1F88401804908310860091D0860ED
:10021000091D0860091D0860091D0860091D0860A6
:10022000091D0860091D0860091D0860091D086096
:10023000091D0860091D0860091D0860091D086086
:10024000714980310860091D0860091D0860091D99
:100250000860091D0860091D0860091D0860091D66
:100260000860091D0860091D0860091D0860091D56
:100270000860091D0860091D0860091D08606249C1
:10028000D4310860091D0860091D08605E494439C1
:1002900008605D49E4310860091F08605A49E83187
:1002A0000860594940390860091D0860091D086047
:1002B000554930390860544920390860524910398D
:1002C0000860091D086070472DE9F04100BF00BFBC
:1002D0004F48006840F400604D49C439C1F8C4007B
:1002E00041F61F704B49086001204B49086000200F
:1002F0008860FFF781FF494800684949B0FBF1F782
:100300004348C438D0F8000100B17F084FF47A7038
:10031000B0FBF7F404F11300B0FBF4F03E490863BE
:100320000F204863002088630120C86304F1130094
:10033000B0FBF4F0801C08640120486404F13E0026
:10034000B0FBF4F0886404F13E00B0FBF4F0C86444
:100350000F20086504F13E00B0FBF4F04865012071
:100360008865886240F203302E4908604FF4D060FF
:100370002949C1F800016421012000F0B4F940F2DC
:10038000831025490862C821012000F0ACF940F231
:1003900003102149086202204862002600E0761C12
:1003A000802EFCD341F68465A5F1100085B22D1195
:1003B00005FB07F04FF47A71B0FBF1F085B21648F7
:1003C00045628320144908621748058800200862A6
:1003D0001448001F006840F40020C1F8000101210A
:1003E000084600F080F90121084600F07CF9094830
:1003F000006820F01F0848F011000549C439C1F811
:10040000DC01BDE8F081000080C1024000C0024074
:10041000C4C00F40DCC10F4000C0092078010010AB
:1004200040420F0004C10920003003A0002013F057
:10043000DEFB044600206C4908601D20012181403C
:100440004209920002F1E022C2F8001100BF62B638
:100450006648B4FBF0F0411EB1F1807F00D31DE08F
:1004600021F07F40401E4FF0E022506150171F22C4
:10047000002807DAD3061E0E5D4B00F00F052D1F76
:100480005E5503E0D3061D0E5A4B1D5400BF0020DD
:100490004FF0E02290610720106100BF15F0BEF818
:1004A00002205549086000205449088054490870CA
:1004B000544908703CE050480068801E182835D226
:1004C000DFE800F00C3412150F30343418341B34CC
:1004D00034342124272A2D34341E343107F0B0FD62
:1004E00025E008F0E6F822E008F017FF1FE008F02A
:1004F00060FF1CE011F05DFE19E00EF010FD16E04B
:100500000FF0FFFF13E00EF0BBFC10E007F0AAFEB7
:100510000DE008F01DF80AE008F086F807E00EF09C
:1005200090F804E003E00FF0A7FF00E000BF00BF79
:10053000C1E72DE9F041012133A016F039FD07464E
:10054000002F25DD4FF47A6232480168384616F0F4
:100550000FFE022130A016F02BFD0446002C11DD09
:10056000002500BF4FF47A622A480168204616F041
:1005700069FF064635442B488542F3D3204616F0E2
:10058000F8FF01E0BDE8F081384616F0F2FF00E028
:10059000F8E700BFF6E710B500220621104613F079
:1005A00090F930B10920204908604021002013F063
:1005B000B3F900220521104613F083F930B10C2065
:1005C000194908602021002013F0A6F90022072114
:1005D000104613F076F930B10E20134908608021DF
:1005E000002013F099F910BDCC000010A086010086
:1005F00018ED00E000E400E02001001018010010F8
:100600001A0100101B0100104D53524541442E5455
:10061000585400000C0200105A43353532302E5425
:1006200058540000809698002401001010B5FE4830
:1006300090F89E00FD490860FB4890F89E00086015
:10064000F94890F89E00086008460068072802D91B
:10065000084600680860F44890F89E00F349086076
:1006600008460068082803D108460068401C086056
:10067000EF480068EF49096888421DD0ED480068DE
:10068000EB490860EC480078002804DDEA4800786F
:10069000401EE9490870E848007820B9E24890F81F
:1006A0009E00002809DCE448007820B9DE4890F874
:1006B0009E0000B910BDFDE7FCE7DB4890F89E0006
:1006C000042800DA09E0D8480478DC48807BA0429E
:1006D00000D002E014F05FFE00BF0020D24981F894
:1006E0009E0000BFE6E7F8B902224FF040235A60AF
:1006F0000022DA60D24A12684FF47A73B2FBF3F246
:10070000521E4A434FF040239A61FF221A6004228E
:100710005A6101225A6000BF4FF04022526802F035
:100720000102002AF8D15BE001281CD10222C54B4E
:100730005A600022DA60C24A12684FF47A73B2FB40
:10074000F3F2521E4A43BF4B9A61FF221A60042201
:100750005A6101225A6000BFBA4A526802F001028F
:10076000002AF9D13CE002281CD10222B64B5A6083
:100770000022DA60B24A12684FF47A73B2FBF3F2E5
:10078000521E4A43B04B9A61FF221A6004225A61FA
:1007900001225A6000BFAC4A526802F00102002AEE
:1007A000F9D11DE003281BD10222A84B5A60002278
:1007B000DA60A34A12684FF47A73B2FBF3F2521E66
:1007C0004A43A24B9A61FF221A6004225A61012215
:1007D0005A6000BF9D4A526802F00102002AF9D116
:1007E000704710B501204FF040210860984800681C
:1007F000062813D197480078401C9649087008468F
:100800000078092810DD0020087001209249087046
:1008100092480089401C9149088105E08D48007884
:1008200010B100208B4908708448407B88B98C48FF
:100830000078401C8A49087008460078092808DDBD
:10084000002008707B480068401C7A490860FFF768
:10085000EDFE00240CE0834850F8240030B18148BC
:1008600050F82400401E7F4941F82400601CC4B2A7
:10087000062CF0DB10BD10B50120724908607A48E3
:100880000078401C784908707148006806280FD12C
:10089000084600780A2802D107F09FF908E072485C
:1008A0000078142804DB00206F49087007F09BF9DA
:1008B00010BD0120644908606C480068401C6B4909
:1008C0000860704701206149086069480068401C61
:1008D00067490860704720B901214FF040225160FC
:1008E00010E0012803D10121564A51600AE0022894
:1008F00003D10121544A516004E0032802D10121AF
:10090000524A5160704720B900214FF04022516097
:1009100010E0012803D100214A4A51600AE0022870
:1009200003D10021484A516004E0032802D100218C
:10093000454A51607047014631B94FF04022506836
:1009400040F00200506016E0012905D13D4A506890
:1009500040F0020050600EE0022905D13A4A50688A
:1009600040F00200506006E0032904D1374A506885
:1009700040F002005060704770B505460C46F5B96E
:1009800000203C4908603C48006840F002003A49B9
:10099000C439C1F8C4004FF04020406840F0020064
:1009A0004FF0402148604EF65F20C86008468461E1
:1009B00003204861012000F07CF8012070BD012D6A
:1009C0001CD100202D4908602B48006840F004002D
:1009D0002949C439C1F8C4001A48406840F00200EF
:1009E000184948604EF65F20C860084684610320BD
:1009F0004861022000F05DF80120DFE7022D3FD1C1
:100A000000201A4908601C48006840F480001A4918
:100A1000C439C1F8C4000C48846103200A49486104
:100A200000F047F80120C9E7DF1600101C00001095
:100A3000140000101000001090010010E40F0010CE
:100A40007C01001000800040000009400040094087
:100A50002001001020000010FA00001030030010E8
:100A600021000010B80B0010220000100800001038
:100A70000C00001000000010C4C00F400400001063
:100A8000032D14D10020104908601048006840F47C
:100A900000000E49C439C1F8C4000D488461032028
:100AA0000B494861042000F004F8012086E700208B
:100AB00084E700F01F02012191404209920002F1F7
:100AC000E022C2F8001170470C000010C4C00F40B3
:100AD0000040094008B5B0B1F949896941F0010108
:100AE000F74A916142F21071009108E0F449896976
:100AF00041F40061F24A91610099491E0091009908
:100B00000029F3D115E0EE49896921F40061EC4A2E
:100B1000916142F21071009102E00099491E00912A
:100B200000990029F9D1E649896921F00101E44AD7
:100B3000916108BDE34A002102E008C808C2491CCF
:100B40008029FAD3704750B506460C4600BF2720CF
:100B5000DD490860DD49C1F81801DD490860091D5B
:100B60000860091D0860DA494C390860091D0860F1
:100B7000091D0860091D0860091D0860091D08603D
:100B8000D34918310860D24934390860091D08601A
:100B9000091D0860091D0860CD4914390860CC4959
:100BA00008390860CA4910390860C849C1F81001FD
:100BB000C848006A40F00200C64908620846806BD7
:100BC00040F0040088630846006840F002000860B6
:100BD0000846806940F02A008861BF48D0F8C40008
:100BE00040F00100BC49C1F8C400BC48006820F0D6
:100BF0000100BA4908600020B1498861084680694F
:100C000020F00E0088610846806940F00C00886181
:100C10000846806940F0200088610846806920F01D
:100C2000800088610846806920F4807088610846E9
:100C3000806920F4007088610846806920F4806033
:100C400088610846806920F400608861A4480068D3
:100C5000A449B0FBF1F0A049C1F8B80198488068F8
:100C600040F08060964988600846806820F0200047
:100C700088600846806840F40060886008468068A4
:100C800040F4805088600846806820F400508860F6
:100C90000846806820F48040886008468068924951
:100CA000084087498860084680689049084384491D
:100CB0008860002008600846006840F01C5008600A
:100CC0000846006840F4802008600846006840F448
:100CD000807008600846006840F0740008600020DA
:100CE00048600846406840F0006048600846406838
:100CF00040F4002048600846406840F48060486046
:100D00000846406840F20F1108436D494860784832
:100D10000861486114B12046FFF70CFF50BD744ACA
:100D2000002102E022F8020B491CB1F5FF3FF9D384
:100D3000704730B56E4BB0F5F07F02DAB1F5887FC1
:100D400000DB30BDC1EB011500EB451403EB4403A0
:100D50001A8000BFF5E72DE9F04F04460D46914695
:100D60009A46DDF824B04C4503DD0FFA89F7A14619
:100D7000BCB2554503DD0FFA8AF7AA46BDB2A9EB0E
:100D800004000FFA80F8AAEB050006B2B8F1000FD4
:100D90000BD100BF5A4629462046FFF7CAFF681C00
:100DA00085B2AA45F6DABDE8F08F56B900BF5A46BB
:100DB00029462046FFF7BDFF601C84B2A145F6DA44
:100DC000F1E7B04521DDC8EB460007B215E05A4611
:100DD00029462046FFF7ADFF601C84B2002F08DDD6
:100DE000681C85B27000022101FB1800384407B26C
:100DF00003E0022000FB067007B24C45E7D15A46DB
:100E000029462046FFF795FF20E0C6EB480007B2D1
:100E100015E05A4629462046FFF78BFF681C85B22D
:100E2000002F08DD601C84B27000022101FB180055
:100E3000384407B203E0022000FB067007B25545B4
:100E4000E7D15A4629462046FFF773FF00BFAAE7BD
:100E50002DE9F84105460E4617469846079CA0B274
:100E600033463A46314600902846FFF774FFA0B259
:100E700043463A46414600902846FFF76CFFA0B231
:100E800043462A46314600902846FFF764FFA0B249
:100E900043463A46314600903846FFF75CFFBDE8CE
:100EA000F8812DE9F0411C46069FC1EB011CDFF8DB
:100EB000408008EB8C1C0CEB400300262AE000006D
:100EC000008008200082082074C2024000C0024056
:100ED0001CC102400080092000C00F40008C082087
:100EE0007C0100109C997400FFFF00FC0000DF01F2
:100EF000000001A0002502E023F8027B6D1CA2EB9C
:100F0000000CAC45F8D8A2EB000CCCF5F07C03EB60
:100F10004C03761CA4EB010CB445EBD8BDE8F08182
:100F20002DE9F04704460D461746784200214FEA66
:100F30004708C8F10202F94E00BFA4EB000805EB18
:100F400001094FF4F07A0AFB098846F8283004EBCF
:100F5000000805EB01090AFB098846F8283004EB74
:100F60000008A5EB01090AFB098846F82830A4EB24
:100F70000008A5EB01090AFB098846F828309446C9
:100F80008C450DDC01F1010841464FF0010909EBE8
:100F900048084244C84203D1844501DC4FF0000CAC
:100FA000844507DD00F1010840464FF0010909EBD7
:100FB000480842440028C0DDBDE8F08770B505460A
:100FC0000E461446A2B231462846FFF7B2FE70BD67
:100FD0002DE9FF5F06460F4690469946DDF838B08A
:100FE0004146684600F0A8FC00241DE01DF804A05E
:100FF000002516E0C5F107004AFA00F000F00100F4
:1010000038B13A1991B2721990B24A46FFF791FE7F
:1010100006E03A1991B2721990B25A46FFF789FE6A
:101020006D1C082DE6D3641C102CDFD3BDE8FF9F98
:101030002DE9FE4F06460F4690469946DDF830B042
:101040004146684600F085FC002415E01DF804A028
:1010500000250EE0C5F107004AFA00F000F001009B
:1010600030B13A1991B2721990B24A46FFF761FE57
:101070006D1C082DEED3641C0C2CE7D3BDE8FE8F4D
:101080002DE9F84305460E4614469846DDF82090B3
:1010900000BF14F8017B43463A4631462846CDF856
:1010A0000090FFF795FFB5F5EC7F03DA05F1080036
:1010B00085B208E0FF2E04DC002506F1100086B2A0
:1010C00001E00025002620780028E2D1BDE8F88361
:1010D0002DE9FF4F074688469B463C464546BA46A3
:1010E00046464FF0000915E0A4F1140188B22946E4
:1010F000029AFFF71EFE601C84B2A6F1140081B2B2
:101100005046029AFFF715FE701C86B209F10100E5
:101110001FFA80F9B9F1280FE6DB3C464546BA468E
:1011200046464FF000092BE0A5F1140291B2A4F15C
:10113000140290B25A46FFF7FCFD05F1140291B279
:10114000A4F1140290B25A46FFF7F3FD601C84B27A
:10115000A6F1140291B2AAF1140290B25A46FFF716
:10116000E8FDA6F1140291B20AF1140290B25A46B7
:10117000FFF7DFFD701C86B209F101001FFA80F94C
:10118000B9F10A0FD0DB3C464546BA4646464FF019
:1011900000092BE0A5F1140291B204F10A0290B209
:1011A0005A46FFF7C6FD05F1140291B204F10A0296
:1011B00090B25A46FFF7BDFD601C84B206F10A02E8
:1011C00091B2AAF1140290B25A46FFF7B2FD06F1AD
:1011D0000A0291B20AF1140290B25A46FFF7A9FD31
:1011E000701C86B209F101001FFA80F9B9F10A0FEB
:1011F000D0DBBDE8FF8F10B50246002112E001EB05
:101200008110474B185C1378984209D1507801EB54
:101210008113434C23445B78984201D1084610BDAA
:10122000481C81B20029EAD00020F8E710B5024638
:10123000002114E001EB01103A4B13F81000137871
:1012400098420AD1507801EB0113364C04EB43036A
:101250005B78984201D1084610BD481C81B2B22982
:10126000E8D30020F8E72DE9F04F04460F46154675
:101270009846A3464FF0000900262FE0099810F881
:1012800006904FF0000A23E009F0800038B12648AC
:10129000008882B239462046FFF74BFD06E022481F
:1012A000808882B239462046FFF743FD4FEA496005
:1012B0004FEA1069601C84B2A4EB0B00A84203D172
:1012C0005C46781C87B206E00AF1010000F0FF0AD4
:1012D000BAF1080FD8DB00BF701C86B205FB08F01E
:1012E000C11700EB5171B6EBE10FC7DBBDE8F08F22
:1012F0002DE9F04F0546894692469B46A8460026B2
:10130000BBF1000F3CD1002437E00AEB0A1005497D
:1013100001EB4000801C065D002729E0000001A0D1
:10132000086D0400496D04002400001006F08000E0
:1013300038B1FD48008882B249462846FFF7F9FCDB
:1013400006E0F948808882B249462846FFF7F1FC5A
:101350007006060E681C85B2A5EB0800102805D1A2
:10136000454609F101001FFA80F903E0781CC7B275
:10137000082FDBDB00BF601CC4B2202CC5DB33E0D0
:1013800000242FE00AEB0A10E84901EB4000801C22
:10139000065D002721E006F0800038B1E248808831
:1013A00082B249462846FFF7C4FC06E0DE480088C2
:1013B00082B249462846FFF7BCFC7006060E681C40
:1013C00085B2A5EB0800102805D1454609F10100BA
:1013D0001FFA80F903E0781CC7B2082FDBDB00BFDF
:1013E000601CC4B2202CCDDBBDE8F08F2DE9F04F9E
:1013F0000546894692469B46A8460026BBF1000F4B
:1014000033D100242EE00AEB8A10C9490844801C1D
:10141000065D002721E006F0800038B1C248008850
:1014200082B249462846FFF784FC06E0BE48808821
:1014300082B249462846FFF77CFC7006060E681CFF
:1014400085B2A5EB0800182805D1454609F1010031
:101450001FFA80F903E0781CC7B2082FDBDB00BF5E
:10146000601CC4B23F2CCEDB32E000242EE00AEB3D
:101470008A10AF490844801C065D002721E006F071
:10148000800038B1A848808882B249462846FFF7D4
:1014900050FC06E0A448008882B249462846FFF77F
:1014A00048FC7006060E681C85B2A5EB08001828DB
:1014B00005D1454609F101001FFA80F903E0781CC7
:1014C000C7B2082FDBDB00BF601CC4B23F2CCEDBF1
:1014D000BDE8F08FF0B504460D4616461F463B4664
:1014E000224631462846FFF781FF1820F0BDF0B5AF
:1014F00004460D4616461F463B46224631462846C0
:10150000FFF7F6FE1220F0BD2DE9F84306460D4622
:1015100014461F464FF00008C14654E0207800B939
:1015200052E006EB090086B2207880281ADD06F129
:101530001800B0F5F07F07DD002605F1160085B232
:10154000B5F5887F00DD00252046FFF754FE1FFA21
:1015500080F83B462A4631464046FFF7BBFF8146AE
:10156000A41C2FE020780D280AD105F1160085B2C1
:10157000B5F5887F00DD0025641C4FF0000922E0EE
:1015800020780A2804D10026641C4FF000091AE0D4
:1015900006F10C00B0F5F07F07DD002605F10C0028
:1015A00085B2B5F5887F00DD00255F48808880B270
:1015B00000905D48008883B2227829463046FFF7C4
:1015C00007FD641C00BFA9E700BFBDE8F8832DE953
:1015D000F84305468846144600263FE0207800B9C7
:1015E0003DE02078302807DB2078392804DC20789B
:1015F00030381FFA80F919E020782E2802D14FF0F8
:101600000A0913E020782D2802D14FF00B090DE0D4
:101610002078202802D14FF00C0907E020785628C6
:1016200002D14FF00D0901E04FF00E094FEA4917C2
:10163000F81707EB5070C01000EBC001C1EB801031
:101640003C490844A919009088B23723202241461A
:10165000FFF709FE641C06F1200086B2BEE700BF5A
:10166000BDE8F8832DE9F84306460D4614461F46AB
:101670004FF00008C14656E0207800B95CE006EB68
:10168000090086B2207880281ADD06F11000B0F536
:10169000F07F07DD002605F1100085B2B5F5887FE3
:1016A00000DD00252046FFF7C1FD1FFA80F83B460C
:1016B0002A4631464046FFF71AFF8146A41C31E016
:1016C00020780D280AD105F1100085B2B5F5887F84
:1016D00000DD0025641C4FF0000924E020780A2872
:1016E00004D10026641C4FF000091CE006F108003C
:1016F000B0F5F07F07DD002605F1100085B2B5F5E5
:10170000887F00DD00250848808880B20090064868
:10171000008883B2227829463046FFF759FC641CC2
:101720004FF00A0900BFA7E724000010496D04002C
:10173000086D0400FDA5040000BFBDE8F8832DE995
:10174000F84306460D4614461F464FF00008C146B2
:1017500056E0207800B954E006EB090086B2207804
:1017600080281ADD06F11000B0F5F07F07DD0026B5
:1017700005F1100085B2B5F5887F00DD0025204613
:10178000FFF754FD1FFA80F83B462A463146404693
:10179000FFF7ADFE8146A41C31E020780D280AD168
:1017A00005F1100085B2B5F5887F00DD0025641CC9
:1017B0004FF0000924E020780A2804D10026641C98
:1017C0004FF000091CE006F10800B0F5F07F07DDDE
:1017D000002605F1080085B2B5F5887F00DD0025FB
:1017E0005248808880B200905048008883B22278A6
:1017F00029463046FFF71CFC641C4FF0080900BF67
:10180000A7E700BFBDE8F883F0B504461D46062AE9
:1018100000DD0A2202B90122052900DD05219142DD
:1018200000DD1146002004E02026414F3E54461CB6
:10183000F0B20C28F8D310460FE00A26B4FBF6F7F6
:1018400006FB17463036471EDFF8E4C00CF8076089
:101850000A26B4FBF6F4461EF0B20028EDDC89B18E
:101860001346084605E05E1E314FBE5DFE545E1E07
:10187000F3B2061EA0F10107F8B2F4D12E262C4FC8
:10188000FE5402E020262A4FBE54A5B900200EE0E7
:10189000274E365C302E07D1254F461CBE5D2E2EBE
:1018A00002D020263E5400E004E0461CF0B2561E52
:1018B0008642EDDC00BF561CF2B2104604E0002662
:1018C0001B4F3E54461CF0B20C28F8D3F0BD30B587
:1018D000184A00210BE08478457844EA052405780D
:1018E00044EA054308C2401C401C401C491CB1F599
:1018F000FF3FF0D330BD70B50E4B002112E0002247
:101900000CE005782D04467845EA0625867845EAF8
:10191000060410C3401C401C401C521CB2F5F07F52
:10192000EFD3491CB1F5887FE9D370BD24000010C6
:10193000980F0010000001A070B505460C46A4F1F8
:1019400020000B4A02EB0011102228461BF059F828
:1019500070BDA1F1200202EB4202064B03EB8202B2
:1019600013680360536843609268826070470000A8
:10197000ED840400DD8A04003EB5054642F6692088
:101980001EF00FFC00241DE0F74841000322CDE9C2
:1019900000210290601C00EB4000042202EB0010CA
:1019A000062202FB040304EB4400042202EB0010B5
:1019B000062202FB04014FF4EE724FF4BE701EF0DB
:1019C000C5F8641C052CDFD33EBD10B542F6692076
:1019D000E64948604FF6FF7008600023E4A2F12159
:1019E0005420FFF73FFE0023E3A2F121A420FFF7DC
:1019F00039FE10BD70B5054642F66920DB494860E6
:101A00004FF6FF700860A5B900240FE004EB440115
:101A1000DB4B03EB410204EB8401542303EB011085
:101A20000023F121FFF71EFE601CC4B2052CEDDB84
:101A300014E0002410E0611D01EB4101D04B03EBE9
:101A4000410204EB8401542303EB01100023F12134
:101A5000FFF708FE601CC4B2052CECDB70BD10B5AE
:101A600042F66920C14948604FF6FF7008600023C4
:101A7000C4A2F1215420FFF7F5FD10BD10B542F6C8
:101A80006920BA4948604FF6FF7008600023C0A281
:101A9000F1215420FFF7E6FD10BD10B50446002CDF
:101AA00039D14FF6FF70B149086042F669204860AD
:101AB0000023B8A2E7215420FFF7D4FD0023B7A2EA
:101AC000FB215420FFF7CEFD0023B2A2E721A42082
:101AD000FFF7C8FD0023B3A2FB21A420FFF7C2FD3E
:101AE0000023B2A2E721F420FFF7BCFD0023ADA242
:101AF000FB21F420FFF7B6FD0023ACA2E7214FF451
:101B0000A270FFF7AFFD0023AAA2FB214FF4A27041
:101B1000FFF7A8FD2EE0012C2CD14FF6FF70934962
:101B2000086042F6692048600023A4A2E7215420FF
:101B3000FFF798FD0023A3A2FB215420FFF792FD9D
:101B40000023A2A2E721A420FFF78CFD0023A1A27D
:101B5000FB21A420FFF786FD0023A0A2E7214FF47C
:101B6000CA70FFF77FFD00239EA2FB214FF4CA70CD
:101B7000FFF778FD10BD10B54FF6FF707B49086088
:101B800042F669204860002398A2E7215420FFF71D
:101B900069FD002397A2FB215420FFF763FD00237A
:101BA00096A2F1214FF4A270FFF75CFD002396A2EC
:101BB000F1214FF4CA70FFF755FD10BD10B5044672
:101BC0000CB1012C33D14FF6FF706849086042F622
:101BD0006920486000238FA2F1215420FFF742FDC5
:101BE00000238FA2E721A420FFF73CFD00238EA253
:101BF000FB21A420FFF736FD00238DA2E721F4206E
:101C0000FFF730FD002388A2FB21F420FFF72AFD17
:101C100000237AA2F1214FF4A270FFF723FD0023E5
:101C200079A2F1214FF4CA70FFF71CFD26E04FF6B0
:101C3000FF704E49086042F669204860002375A293
:101C4000F1215420FFF70EFD002377A2E721A42005
:101C5000FFF708FD002378A2FB21A420FFF702FD77
:101C6000002366A2F1214FF4A270FFF7FBFC0023D2
:101C700065A2F1214FF4CA70FFF7F4FC10BD10B556
:101C80000446002C39D14FF6FF703849086042F6FF
:101C90006920486000233FA2E7215420FFF7E2FCBF
:101CA00000233EA2FB215420FFF7DCFC002339A2D5
:101CB000E721A420FFF7D6FC00233AA2FB21A420B1
:101CC000FFF7D0FC002339A2E721F420FFF7CAFC7C
:101CD000002334A2FB21F420FFF7C4FC002333A22D
:101CE000E7214FF4A270FFF7BDFC002331A2FB21D6
:101CF0004FF4A270FFF7B6FC34E0012C32D14FF65E
:101D0000FF701A49086042F66920486000232BA240
:101D1000E7215420FFF7A6FC00232AA2FB21542030
:101D2000FFF7A0FC002321A2E721A420FFF79AFCE3
:101D300000231CA2FB21A420FFF794FC002340A257
:101D4000F121F420FFF78EFC002324A2E7214FF4B9
:101D5000CA70FFF787FC002322A2FB214FF4CA7050
:101D6000FFF780FC10BD0000404040002400001040
:101D7000206DCEA92020000020CEA9200000000068
:101D80004141050020E7A1AEE8AEA420000000001C
:101D90002A310000E6B58BE9878F0000E698BEE7A0
:101DA000A4BA0000E8AEBEE7BDAE0000E7B3BBE7F3
:101DB000BB9F0000E4BFA1E681AF0000E69687E488
:101DC000BBB60000E7AEA1E790860000E4BF9DE54A
:101DD000AD980000E695B0E68DAE0000E69BB4E558
:101DE000A49A000020322F3200000000E6B885E9F6
:101DF00099A40000E8A1A8E6A0BC0000E4B88AE429
:101E0000B880E9A1B5000000E4B88BE4B880E9A18E
:101E1000B5000000E588A0E999A4E8A18C000000C5
:101E2000E7BABFE680A70000E887AAE58AA8000015
:101E3000E5AFB9E695B00000E5A48DE588B60000F1
:101E4000E5B7A5E585B7000010B54FF6FF70FE4970
:101E5000086042F6692048600023AFF2C802E7211B
:101E60005420FFF7FFFB0023AFF2D002FB215420E8
:101E7000FFF7F8FB0023AFF2E402E721A420FFF70D
:101E8000F1FB0023AFF2E402FB21A420FFF7EAFB01
:101E90000023AFF2E802E721F420FFF7E3FB002381
:101EA000AFF20012FB21F420FFF7DCFB0023AFF2BE
:101EB0000412E7214FF4A270FFF7D4FB0023AFF226
:101EC0000C12FB214FF4A270FFF7CCFB10BD38B50C
:101ED00004460020182340F2E11201460090FEF76C
:101EE000E0FF0020D84948604FF6FF7008600023EB
:101EF000D6A203210420FFF7B5FB38BD08B543F691
:101F0000AC101EF04EF90520FD234FF4BA725C218F
:101F1000009004201DF0E8FE08BD10B504464AF20A
:101F2000FF501EF03EF9CB481EF04CF91823C0229A
:101F3000002108461DF0ACFE00201EF032F9022000
:101F40001EF07EF9C44901EB4411C44A127801EB3A
:101F50000210022200211DF0BBFD10BD10B50020B3
:101F6000FFF7DBFFFFF7CAFF10BD7CB50546002079
:101F70001EF066F942F669201EF008F96FF07F4006
:101F80001EF00FF900242EE04FF4BE70ADF80000F3
:101F900004EB4400042101EB0010062101FB0400C6
:101FA00000B2ADF802004FF4EE70ADF80400601C12
:101FB00000EB4000042101EB0010062101FB0400AE
:101FC00000B2ADF80600C4EBC401A54A02EB8101E2
:101FD000A24A1278C2EBC20201EB42000E2269460D
:101FE0001DF08AFD641C052CCED37CBD10B5FFF717
:101FF000B5FF0020FFF7C0FC0020FFF7B6FF00246C
:102000001FE0032C0ED2974800EB0412601C00EB7B
:1020100040001A2303EBC00081B200230420FFF725
:1020200021FB0DE08F4800EB0412A01E00EB4000E6
:102030001A2303EBC00081B20023B820FFF712FB84
:10204000641C062CDDD310BD08B543F6AC10BE23CE
:1020500040F2DF12702100900020FEF722FF08BD41
:1020600010B50020FFF733FFFFF7EEFF10BD08B5F6
:1020700043F6AC10A02340F2DF125621009000205E
:10208000FEF70FFF43F6AC10E32340F2DF12C1214D
:1020900000900020FEF705FF08BD10B50020FFF7F7
:1020A00016FFFFF7E4FF10BD08B543F6AC10A02300
:1020B00040F2DF12602100900020FEF7F2FE08BD22
:1020C00010B50020FFF703FFFFF7EEFF10BD10B5BE
:1020D000FFF7F6FF4FF6FF705B49086040F23F20C4
:1020E00048600023604A04211846FFF7BBFA4FF608
:1020F000FF70554908605D48486000235CA21A21C2
:102100000420FFF7AFFA00235CA232212C20FFF756
:10211000A9FA00235CA232219020FFF7A3FA002342
:102120005CA23221F420FFF79DFA00235BA232214A
:102130004FF4AC70FFF796FA00235AA232214FF405
:10214000DE70FFF78FFA0020FFF7A7FC10BD704785
:1021500000B5FFF7FCFF00BD10B50120FFF70CFC38
:102160000320FFF7DAFE4FF6FF701EF01AF83F4823
:102170001EF00CF8002422E0042C0FD24A4901EB97
:102180004411364B1B7801EB031004EB4401C900EA
:1021900001F11A0204211DF09BFC0FE0424901EB02
:1021A00044112E4B1B7801EB0310211F01EB410161
:1021B000C90001F11A02B8211DF08AFC641C072C29
:1021C000DAD310BD70B50120FFF7D6FB0120FFF771
:1021D000A4FE4FF6FF701DF0E4FF24481DF0D6FF6B
:1021E0001E4890F8360000EB80011C48383050F84B
:1021F00031002E490D5C00247FE004F0010008BB93
:10220000164991F8361001EB81031449383151F821
:1022100033104D235943264B03EB8101C4EBC40318
:1022200001EB83010D4B1B78C3EBC30301EB4300B0
:10223000610801EB4101C90001F11A0204211DF0FE
:1022400047FC59E036E00000240000105A43746552
:102250006B000000447C05001B3B0500E40F0010F0
:102260008F3A05009F2C05001D3C05003366CC000D
:10227000E696B9E5BC8F203A00000000E9A291E79C
:102280008E875B487A5D0000E794B5E5B9B35B568D
:102290005D00000043705B465D000000445B205D14
:1022A00000000000434D5000B0D5040000D50400EC
:1022B0004CDD0400FC4991F8361001EB8103FA492A
:1022C000383151F833104D235943F84B03EB81015A
:1022D000C4EBC40301EB8301F34B1B78C3EBC303D3
:1022E00001EB4300611E01EB4101C9001A2303EB1E
:1022F0005102B8211DF0ECFB641CAC42FFF47DAF31
:1023000070BD10B50446EA4901EB4411E64A127863
:1023100001EB0210F222B4211DF0DAFB10BD2DE911
:10232000F8430446204623F043FD05460022E14BD6
:1023300023F0D2FE0BD2E04C41F29C30ADF800000D
:1023400002208DF8020001208DF8030080E0204675
:1023500023F02EFD05460022D84B23F0BDFE14D8F5
:10236000204623F025FD05460022D54B23F018FB1F
:10237000074623F0D9FC80B2ADF8000002208DF8AA
:10238000020001208DF8030062E0204623F010FDDA
:1023900005460022CB4B23F09FFE14D8204623F0A5
:1023A00007FD05460022C84B23F0FAFA074623F042
:1023B000BBFC80B2ADF8000003208DF802000120C4
:1023C0008DF8030044E0204623F0F2FC054600228D
:1023D000BE4B23F081FE14D8204623F0E9FC0546CD
:1023E0000022BB4B23F0DCFA074623F09DFC80B2B1
:1023F000ADF8000001208DF8020000208DF80300E8
:1024000026E0204623F0D4FC05460022AC4B23F006
:1024100063FE14D8204623F0CBFC05460022AD4BCA
:1024200023F0BEFA074623F07FFC80B2ADF800002F
:1024300002208DF8020000208DF8030008E0A0B211
:10244000ADF8000003208DF8020000208DF8030095
:102450000098BDE8F8832DE9F8430446204623F0B0
:10246000A7FC05460022934B23F036FE0AD2924C7D
:1024700041F29C30ADF8000002208DF802008DF88A
:1024800003007EE0204623F093FC054600228B4BA0
:1024900023F022FE14D8204623F08AFC05460022B1
:1024A000874B23F07DFA074623F03EFC80B2ADF85F
:1024B000000002208DF8020003208DF8030060E088
:1024C000204623F075FC054600227E4B23F004FED7
:1024D00014D8204623F06CFC054600227A4B23F0EA
:1024E0005FFA074623F020FC80B2ADF8000001201F
:1024F0008DF8020002208DF8030042E0204623F010
:1025000057FC05460022714B23F0E6FD14D8204607
:1025100023F04EFC054600226B4B23F041FA0746A0
:1025200023F002FC80B2ADF8000001208DF802001B
:1025300002208DF8030024E0204623F039FC0546F4
:1025400000225F4B23F0C8FD13D8204623F030FC57
:10255000054600225E4B23F023FA074623F0E4FBF6
:1025600080B2ADF8000002208DF802008DF8030063
:1025700007E0A0B2ADF8000001208DF802008DF850
:1025800003000098BDE8F88338B5044652481DF0B2
:1025900008FE52481DF0FAFD51481DF013FE0020C0
:1025A0001DF04EFE4F490023042208680321FFF767
:1025B0002BF94DA14D481AF018FA04EB8400800065
:1025C00000F12802502149481DF082FA364890F85F
:1025D000360000EB80013448383050F831000528CF
:1025E00060D2DFE800F0030453B8E80000BF3D48C4
:1025F00040684FF6FF71884206D13C483CA10A680A
:1026000002608988818033E02748C08D01281CD171
:1026100034484268244890F83610491E00F5FD7091
:1026200030F81100824203D200202E4948600CE0AD
:102630002C4842681C4890F83610491E00F5FD7081
:1026400030F81100101A274948602B4800780128FB
:1026500007D124490023042248680321FFF7D4F856
:1026600006E020490023042248680221FFF7CCF845
:1026700022A11E481AF0B9F904EB8400800000F191
:102680002802A02119481DF023FA96E01548406859
:102690001B4988423CD115481AA10A680260496862
:1026A00041604EE088E00000E40F00104CDD0400C3
:1026B000D0D7040084D7874180F0FA02D01263415A
:1026C0000088C34080842E4100408F40006AF8405B
:1026D0000000594000002440FFFF80003366CC001A
:1026E000447C0500300300106B560000980F00106A
:1026F0005550504552000000FB0000106D41200075
:10270000F6FF0900555050455220202000000000DF
:10271000FE494868FFF79FFE0090FD480099016060
:1027200002469178108800230422FFF76DF8F848DC
:10273000C07800EB4000F74A02EB4001F6481AF07F
:1027400054F904EB8400800000F12802A021F24833
:102750001DF0BEF931E0ED4840684FF6FF71884248
:1027600007D1ED48AFF264010A6802604968416030
:102770000EE0E6494868FFF7D2FD0090E448009972
:10278000016002469178108800230422FFF73CF88C
:10279000DF48C07800EB4000E04A8118DE481AF0BC
:1027A00024F904EB8400800000F12802A021DA481B
:1027B0001DF08EF901E000E000BF00BFD349088999
:1027C000002304220121FFF71FF8D5A1D2481AF0F7
:1027D0000CF9F3225421D0481DF07AF9D149087838
:1027E000FFF78FFD38BD2DE9F8430446204623F05E
:1027F000DFFA05460022CC4B23F06EFC13D82046AE
:1028000023F0D6FA05460022C84B23F0C9F8074644
:1028100023F08AFA80B2ADF8000002208DF80200A1
:102820008DF8030025E0204623F0C2FA0546002279
:10283000BF4B23F051FC13D8204623F0B9FA0546CC
:102840000022BC4B23F0ACF8074623F06DFA80B2AF
:10285000ADF8000002208DF802008DF8030008E0BA
:10286000A0B2ADF8000003208DF8020001208DF821
:1028700003000098BDE8F88338B50120FFF77CF825
:102880000520FFF74AFB6FF07F401DF08AFCAA4845
:102890001DF098FC00240FE0A84A02EB4412A84B5C
:1028A0001B7802EB031004EB8402642303EB021198
:1028B00028221DF00DF9641C032CEDD3A1481DF056
:1028C00081FC00241EE0601C00EB800080002830AA
:1028D00002B202231421601C1DF052F8611C01EBAE
:1028E0008101890001F12802611C01EB81039449F7
:1028F000383151F83310944B03EBC10032211DF0F5
:10290000E7F8641C8E4890F83500A042DBD88F4869
:102910001DF047FC88481DF055FC002468E0611C50
:1029200001EB81028649383101EBC2010023042208
:1029300048680321FEF768FFAFF2542176481AF089
:1029400054F8601C00EB8000800000F12802502148
:1029500071481DF0BDF8611C01EB810278493831E6
:1029600001EBC2018868FFF73EFF00909DF802105E
:10297000BDF8000000230422FEF746FF601C00EBB8
:1029800080016F48383050F8310040B1601C00EBD6
:1029900080016B48383050F83100012804D16C496F
:1029A0005D481AF022F813E0601C00EB80016448D7
:1029B000383050F8310002280AD19DF80300644AEB
:1029C000103A02EB001000F1080153481AF00DF81C
:1029D000601C00EB8000800000F12802A0214E481E
:1029E0001DF076F864221146EA201CF0B5FF641C45
:1029F000534890F83500A04291D84F481DF0E2FBB3
:102A000038BD38B50120FEF7B7FF0020FFF785FA83
:102A10006FF07F401DF0C5FB4E481DF0B7FB002452
:102A200048E004F0010010BB454991F8361001EB75
:102A300081034349383151F833104D235943464BF4
:102A400003EB8101C4EBC40301EB83013C4B1B7816
:102A5000C3EBC30301EB4300611C490801EB4101D7
:102A6000C90001F11A0204211DF032F821E03449B5
:102A700091F8361001EB81033149383151F83310A8
:102A80004D235943344B03EB8101C4EBC40301EBE9
:102A900083012B4B1B78C3EBC30301EB4300611E87
:102AA000490801EB4101C90001F11A02B8211DF0EA
:102AB0000FF8641C0B2CB4D36FF07F401DF071FB3A
:102AC0001F4890F8353090F8362024A1124819F0AC
:102AD0002BFD1A22782110481CF0FAFF184991F8B2
:102AE000361001EB81021649383151F83210164A7E
:102AF00002EBC1001A224FF496711CF0E9FF104856
:102B000090F8360000EB80010D482BE030030010F8
:102B10002C00001047400500980F00107D41050073
:102B20002073000024010010006AF84000005940A2
:102B300000409F4000002440447C050050D5040024
:102B4000E40F0010CC330600A8220500FFFF800030
:102B5000002305003366CC0050E3040025642F25D4
:102B600064000000383050F83100052874D2DFE8E6
:102B700000F003F9F8F7F600FA4991F8361001EB86
:102B80008102F849383101EBC20100230422486870
:102B90000321FEF739FEAFF2B041F34819F025FFEB
:102BA00032227821F0481CF093FFEE4890F836006E
:102BB00000EB8001EB48383000EBC100C068C0B1C9
:102BC000E84991F8361001EB8102E649383101EB12
:102BD000C20100230422C8680121FEF715FEE3A10B
:102BE000E14819F002FF4A227821DF481CF070FF0B
:102BF00008E0DC490978DE4A02EBC1004A2278216C
:102C00001CF066FFD748C08B38B3D64890F8360022
:102C100000EB8001D348383000EBC1008069E8B197
:102C2000D04890F8360000EB8001CE48383000EBF9
:102C3000C1008069092811D8CA4991F8361001EB02
:102C40008102C849383101EBC2010123622288693F
:102C500078211CF095FE38E0FEE309E0C1490978CF
:102C6000C44A02EBC100622278211CF031FF2CE043
:102C7000BC4890F8360000EB8001BA48383000EBD1
:102C8000C1008069C0B1B74991F8361001EB8102EB
:102C9000B449383101EBC2010023032288690121C4
:102CA000FEF7B2FDB4A1B04819F09FFE6222782170
:102CB000AD481CF00DFF08E0AA490978AD4A02EBC7
:102CC000C100622278211CF003FFA64991F836105A
:102CD00001EB8102A349383101EBC2018868FFF79B
:102CE00082FD00909DF80210BDF800000023042230
:102CF000FEF78AFDA1499C4819F077FE32224FF475
:102D0000967199481CF0E4FE964890F8360000EB66
:102D100080019448383000EBC100006918B3914934
:102D200091F8361001EB81028E49383101EBC20176
:102D30000869FFF758FD00909DF80210BDF80000EB
:102D400000230422FEF760FD8C49874819F04DFEF0
:102D50004A224FF4967184481CF0BAFE0DE056E307
:102D60007AE29FE139E07F490978824A02EBC100AB
:102D70004A224FF496711CF0ABFE4FF6FF701DF027
:102D800010FA7F481DF002FA00201DF059FA7D4824
:102D90001DF018FA782228217BA01CF099FE7822D9
:102DA000F021AFF2BC601CF093FEAA22282177A08C
:102DB0001CF08EFEAA22F0216FA01CF089FE744840
:102DC0001DF000FAF322342172A01CF081FEF322E0
:102DD0008C2166A01CF07CFE66E3624991F83610F7
:102DE00001EB81025F49383101EBC201002304226B
:102DF00048680321FEF708FDAFF214715A4819F034
:102E0000F4FD3222782158481CF062FE554890F8B3
:102E1000360000EB80015348383000EBC100C06839
:102E2000C0B1504991F8361001EB81024D4938315B
:102E300001EBC20100230422C8680121FEF7E4FC73
:102E40004AA1494819F0D1FD4A22782146481CF090
:102E50003FFE08E043490978454A02EBC1004A2297
:102E600078211CF035FE3F4991F8361001EB8102C4
:102E70003C49383101EBC2018868FFF7B4FC00908F
:102E80009DF80210BDF8000000230422FEF7BCFCF0
:102E90003A49354819F0A9FD32224FF4967132486B
:102EA0001CF016FE2F4890F8360000EB80012D48EC
:102EB000383000EBC1000069F8B12A4991F83610AA
:102EC00001EB81022749383101EBC2010869FFF7A4
:102ED0008AFC00909DF80210BDF800000023042237
:102EE000FEF792FC2549204819F07FFD4A224FF455
:102EF00096711D481CF0ECFD09E01A4909781D4A3D
:102F000002EBC1004A224FF496711CF0E1FD154816
:102F1000C08B30B3134890F8360000EB80011148A5
:102F2000383000EBC1008069B0B30E4890F836002D
:102F300000EB80010B48383000EBC10080690928A4
:102F40002BD8084991F8361001EB81020549383138
:102F500001EBC20101236222886978211CF010FD77
:102F60006BE024E0E40F0010980F001073000000E5
:102F700098220500A82105006D41000000230500EE
:102F80003366CC00A4D60500563A0000493A00004A
:102F9000447C050054203A00FFE7FE490978FE4AC8
:102FA00002EBC100622278211CF092FD45E0F94855
:102FB00090F8360000EB8001F648383000EBC10095
:102FC000806980B3F34890F8360000EB8001F14847
:102FD000383000EBC1008069C8280AD9C821ED4803
:102FE00090F8360000EB8002EA48383000EBC2006F
:102FF0008161E84991F8361001EB8102E5493831E9
:1030000001EBC2010023032288690121FEF7FCFBCA
:10301000AFF29C01E14819F0E8FC62227821DF4818
:103020001CF056FD09E0FFE7DA490978DA4A02EBBD
:10303000C100622278211CF04BFD4FF6FF701DF09D
:10304000B0F8D7481DF0A2F800201DF0F9F8D548D7
:103050001DF0B8F878222821AFF2D4001CF038FD1A
:103060007822F021AFF680101CF032FDAA22282130
:10307000AFF2E8001CF02CFDAA22F021AFF20810FC
:103080001CF026FDC8481DF09DF8F3223421AFF254
:10309000FC001CF01DFDF3228C21AFF230101CF05F
:1030A00017FD01E2BB4991F8361001EB8102B949E5
:1030B000383101EBC2010023042248680321FEF7E6
:1030C000A3FBAFF6DC11B54819F08FFC3222782152
:1030D000B2481CF0FDFCAF4890F8360000EB8001D0
:1030E000AC48383000EBC100C068C8B1A94991F8BC
:1030F000361001EB8102A749383101EBC2010023F0
:103100000422C8680121FEF77FFBAFF2A011A3489B
:1031100019F06BFC4A227821A0481CF0D9FC08E089
:103120009C490978A14A02EBC1004A2278211CF08F
:10313000CFFC984890F8360000EB80019548383075
:1031400000EBC100806828B3924991F8361001EB7A
:1031500081029049383101EBC2018868FFF77BF9A1
:1031600000909DF80210BDF8000000230422FEF735
:103170004BFB9DF803008E4A02EB001000F10801A2
:10318000864819F032FC32224FF4967183481CF0C5
:103190009FFC09E07F4909787F4A02EBC100322297
:1031A0004FF496711CF094FC7A4991F8361001EBBB
:1031B00081027849383101EBC2010869FFF74BF908
:1031C00000909DF80210BDF8000000230422FEF7D5
:1031D0001BFB9DF80300764A02EB001000F108018A
:1031E0006E4819F002FC4A224FF496716B481CF0AD
:1031F0006FFC4FF6FF701CF0D4FF69481CF0C6FF4F
:1032000000201DF01DF867481CF0DCFF7822282103
:10321000AFF28C201CF05CFC7822F021AFF6383045
:103220001CF056FCAA22282162A01CF051FCAA2204
:10323000F02161A01CF04CFC5B481CF0C3FFF322A2
:103240003421AFF2B0201CF043FCF3228C21AFF20A
:10325000E4201CF03DFC27E14E4890F8360000EBDE
:1032600080014C48383000EBC10054A102694B4842
:1032700019F05AF93222782148481CF029FC4548B7
:1032800090F8360000EB80014248383000EBC10076
:103290008068642813D33F4890F8360000EB800123
:1032A0003C48383000EBC10044A182683B4819F02B
:1032B0003BF94A22782139481CF00AFC08E03549DC
:1032C0000978354A02EBC1004A2278211CF000FC43
:1032D000304890F8360000EB80012E48383000EB83
:1032E000C100006AD0B32B4890F8360000EB800193
:1032F0002848383000EBC100006AB0F57A7F13D35C
:10330000244890F8360000EB80012248383000EB6A
:10331000C100006A0A21B0FBF1F50023042202215A
:103320002846FEF771FA0EE01A4991F8361001EBC3
:1033300081021849383101EBC20100230422086AD6
:103340000321FEF761FA1F49144819F04EFB32229F
:103350004FF4967111481CF0BBFB06E0FFE73222E8
:103360004FF4967118A01CF0B3FB4FF6FF701CF0E1
:1033700018FF0B481CF00AFF00201CF061FF0948F1
:103380001CF020FF78222821AFF204401CF0A0FBA3
:1033900078221DE0E40F0010A8210500980F00100E
:1033A0003366CC00A4D60500447C050098220500B5
:1033B000F0220500523A0000CEA900002533642512
:1033C00025000000804105004E4F4E4500000000E2
:1033D000F021AFF6EC401CF07BFBAA222821FBA0D9
:1033E0001CF076FBAA22F021F9A01CF071FBF94831
:1033F0001CF0E8FEF3223421AFF268401CF068FBB9
:10340000F3228C21AFF29C401CF062FB4CE0322294
:103410007821F1A01CF05CFBF14991F8361001EB2A
:103420008102EF49383101EBC201496AED4A02EBF2
:103430000111EB4A127801EBC20032224FF496716F
:103440001CF046FBE64890F8360000EB8001E448AB
:10345000383000EBC10000E025E0C068C8B1E049A9
:1034600091F8361001EB8102DD49383101EBC201E0
:1034700000230422C8680121FEF7C6F9AFF21451F7
:10348000D94819F0B2FA4A227821D7481CF020FB1B
:1034900008E0D3490978D54A02EBC1004A227821D5
:1034A0001CF016FB00E000BF00BF38BD10B50120C6
:1034B000FEF762FA0220FEF730FD4FF6FF701CF0B7
:1034C00070FECB481CF062FE00242CE004F00100EA
:1034D000A0B9C4EB0411C74B03EB4101C04B1B78EF
:1034E000C3EB0313C818611C490801EB4101C90073
:1034F00001F11A0204211CF0EBFA13E0C4EB0411F1
:10350000BC4B03EB4101B64B1B78C3EB0313C8184C
:10351000611E490801EB4101C90001F11A02B821FD
:103520001CF0D6FA641C0F2CD0D310BD38B504465D
:10353000012C00D100E0002005461DB1FF20AE495E
:10354000486002E0AA48AC494860AB48808880B235
:103550004823C022302100905420FDF7A2FCA64849
:10356000808880B20090A448008883B2A348007885
:103570003130C2B230216C20FDF72AFD022C01D17E
:10358000012000E0002005461DB1FF209A49486057
:1035900002E09748984948609849097801EB810210
:1035A0009649891C01EB8201C8890023042219462F
:1035B000FEF72AF99048808880B25E23C0224A2113
:1035C00000905420FDF76DFC0023874A4A215C20BF
:1035D000FEF748F800238AA24A218E20FEF742F81F
:1035E000032C01D1012000E0002005461DB1FF2081
:1035F0008149486002E07E487F4948607F490978F8
:1036000001EB81027D49891C01EB8201088A0023BC
:1036100004221946FEF7F8F87748808880B27623AE
:10362000C022622100905420FDF73BFC00236E4A2B
:1036300062215C20FEF716F8002371A262218E2021
:10364000FEF710F8042C01D1012000E0002005460F
:103650001DB1FF206849486002E06548664948603E
:103660006848006811281DD16348808880B24623CD
:103670004FF4C872302100904FF48670FDF711FCB2
:103680005E48007800EB80015C48801C00EB810004
:1036900040895D4901EB0012002332214FF486700E
:1036A000FDF7E0FF052C01D1012000E000200546D8
:1036B0001DB1FF205049486002E04D484E49486026
:1036C0004E49097801EB81024C49891C01EB8201CA
:1036D0004888002304221946FEF796F84648808859
:1036E00080B25E234FF4C8724A2100904FF4847078
:1036F000FDF7D7FB00233C4A4A214FF48D70FDF7BC
:10370000B1FF002341A24A214FF4A070FDF7AAFFA8
:10371000062C01D1012000E0002005461DB1FF204C
:103720003549486002E032483349486033490978F6
:1037300001EB81023149891C01EB82018888002359
:1037400004220121FEF760F80023274A62214FF48A
:103750008870FDF787FF0023AFF63C4262214FF4EB
:10376000A070FDF77FFF38BD7CB506460D460120F1
:10377000FEF702F902201CF063FD6FF07F401CF0A1
:1037800010FD00241BE14FF4BE70ADF8000004EB07
:103790004400042101EB0010062101FB040000B2EB
:1037A000ADF802004FF4EE70ADF80400601C00EBC1
:1037B0004000042101EB0010062101FB040000B2CF
:1037C000ADF80600052E5CD222E00000433A00006E
:1037D0006E460000447C05005041555345000000F2
:1037E000E40F0010A8210500980F00109822050092
:1037F0003366CC00FE26050024000010B00800103F
:103800004DCEA90020010010D43105002056000043
:10381000DFE806F0033850689D00FE4890F811027A
:10382000032817D0C5EBC50101EB8101FA4A02EB71
:103830008101F84A1278C2EBC20202EB820201EB6C
:103840004201C4EBC40201EB42000E2269461CF0A7
:1038500053F916E0C5EBC50101EB8101EF4A02EB1C
:103860008101EC4A1278C2EBC20202EB820201EB48
:103870004201C4EBC40201EB42000E2269461CF077
:103880003BF999E0C5EBC50101EB8101E44A02EB8C
:103890008101E04A1278C2EBC20202EB820201EB24
:1038A0004201C4EBC40201EB42000E2269461CF047
:1038B00023F981E0C5EBC50101EB8101D94A02EB97
:1038C0008101D44A1278C2EBC20202EB820201EB00
:1038D0004201C4EBC40201EB42000E2269461CF017
:1038E0000BF969E0CB4890F81102032817D0C5EB1B
:1038F000C50101EB8101CC4A02EB8101C54A127876
:10390000C2EBC20202EB820201EB4201C4EBC40231
:1039100001EB42000E2269461CF0EEF816E0C5EB02
:10392000C50101EB8101C14A02EB8101B94A12785C
:10393000C2EBC20202EB820201EB4201C4EBC40201
:1039400001EB42000E2269461CF0D6F834E0B14883
:1039500090F81102032817D0C5EBC50101EB8101D6
:10396000B34A02EB8101AB4A1278C2EBC20202EB0E
:10397000820201EB4201C4EBC40201EB42000E22C1
:1039800069461CF0B9F816E0C5EBC50101EB8101F1
:10399000A84A02EB81019F4A1278C2EBC20202EBF5
:1039A000820201EB4201C4EBC40201EB42000E2291
:1039B00069461CF0A1F800BF00BF601CC4B2052C12
:1039C000FFF6E1AE7CBDF8B50546924991F8361098
:1039D00001EB81028F49383151F83210964A515C1F
:1039E000481C00EBD071C1F34707012437E0AC421B
:1039F00003D1FF201CF0D5FB02E090481CF0D1FB66
:103A000004F00100A0B1601E012202EB500000EBA7
:103A10004000C00000F11803601E00EB4000C00031
:103A2000182202EB5001B4225A201CF031F915E0A3
:103A3000601E012202EB500000EB4000C00000F1CC
:103A40001803601E400800EB4000C00000F11801A0
:103A50004FF4B7724FF48A701CF01AF9641C6D4869
:103A600090F8360000EB80016A48383050F8310099
:103A70007149085C401CA042B9D802201CF0E0FB50
:103A80006FF07F401CF08DFB624890F8353090F865
:103A90003620AFF638716A4818F046FD1A227821B0
:103AA00067481CF015F85B4991F8361001EB81026C
:103AB0005849383151F83210624A02EBC1001A22DB
:103AC0004FF496711CF004F8524890F8360000EB61
:103AD00080015048383050F83100052871D2DFE8B5
:103AE00010F005009E01A203E6047105494991F812
:103AF000361001EB81024749383101EBC201002346
:103B0000042248680321FDF77FFE4FA14C4818F0BE
:103B10006CFF322278214A481BF0DAFF3D4890F8CA
:103B2000360000EB80013B48383000EBC100C06834
:103B3000C8B1384991F8361001EB81023549383166
:103B400001EBC20100230422C8680121FDF75CFEDD
:103B5000AFF6E8313A4818F048FF4A227821384851
:103B60001BF0B6FF08E02B490978384A02EBC10088
:103B70004A2278211BF0ACFF264890F8360000EB73
:103B800080012448383000EBC1004069D0B12149A0
:103B900091F8361001EB81021E49383101EBC20168
:103BA0000023042248690121FDF72EFEAFF64441AF
:103BB000234818F01AFF6222782121481BF088FF61
:103BC00009E0FDE313490978214A02EBC1006222B2
:103BD00078211BF07DFF0F4890F8360000EB800144
:103BE0000C48383000EBC100C06990B1094991F828
:103BF000361001EB81020749383101EBC201002385
:103C00000422C8690121FDF7FFFDAFF6A0410C4871
:103C100020E027E0E40F001054E904005CF5040004
:103C2000C4050500540C0500CCEE0400D4FA0400D1
:103C300014F204001CFE040000D504003366CC001E
:103C4000980F0010A82205006B560000982205006E
:103C5000A821050018F0C9FE7A227821FE481BF041
:103C600037FF08E0FD490978FD4A02EBC1007A22DE
:103C700078211BF02DFFF94991F8361001EB8102F4
:103C8000F649383101EBC2018868FEF7ACFD0090BF
:103C90009DF80210BDF8000000230422FDF7B4FDDA
:103CA000F049ED4818F0A1FE32224FF49671EA482F
:103CB0001BF00EFFE94890F8360000EB8001E74862
:103CC000383000EBC1000069F8B1E44991F83610D2
:103CD00001EB8102E149383101EBC2010869FEF7CD
:103CE00082FD00909DF80210BDF800000023042220
:103CF000FDF78AFDDB49D84818F077FE4A224FF4D9
:103D00009671D5481BF0E4FE09E0D4490978D44AFD
:103D100002EBC1004A224FF496711BF0D9FECF4846
:103D2000C08BE0B3CD4890F8360000EB8001CB4863
:103D3000383000EBC100806909280AD90921C74839
:103D400090F8360000EB8002C448383000EBC20027
:103D50008161C24890F8360000EB8001BF483830DE
:103D600000EBC1008069F0B1BC4890F8360000EB70
:103D70008001BA48383000EBC1008069092812D8A8
:103D8000B64991F8361001EB8102B449383101EBA4
:103D9000C2010123622288694FF4967100E00DE0B0
:103DA0001BF0EEFD3AE0AD490978AD4A02EBC100E7
:103DB00062224FF496711BF08BFE2FE0A74890F81B
:103DC000360000EB8001A548383000EBC100806967
:103DD000D0B1A24991F8361001EB81029F493831E8
:103DE00001EBC2010023032288690121FDF70CFDCC
:103DF000AFF67C61984818F0F8FD62224FF4967196
:103E000095481BF065FE09E094490978944A02EB55
:103E1000C10062224FF496711BF05AFE02E28F49F4
:103E200091F8361001EB81028C49383101EBC20167
:103E30000023042248680321FDF7E6FCAFF2F811E5
:103E4000854818F0D2FD3222782183481BF040FECD
:103E5000824890F8360000EB80018048383000EB53
:103E6000C100C068C8B17D4991F8361001EB8102EC
:103E70007A49383101EBC20100230422C8680121CC
:103E8000FDF7C2FCAFF61C71734818F0AEFD4A2274
:103E9000782171481BF01CFE08E070490978724ACD
:103EA00002EBC1004A2278211BF012FE6B4890F809
:103EB000360000EB80016948383000EBC1004069F2
:103EC000C8B1664991F8361001EB81026349383177
:103ED00001EBC2010023042248690121FDF794FC93
:103EE000AFF678715C4818F080FD622278215A485C
:103EF0001BF0EEFD08E059490978594A02EBC10070
:103F0000622278211BF0E4FD544890F8360000EB63
:103F100080015248383000EBC100C069C8B14F4938
:103F200091F8361001EB81024C49383101EBC201A6
:103F300000230422C8690121FDF766FCAFF6D471A5
:103F4000454818F052FD7A22782143481BF0C0FD05
:103F500008E042490978424A02EBC1007A227821FE
:103F60001BF0B6FD3D4890F8360000EB80013B4861
:103F7000383000EBC100406A80B3384890F8360012
:103F800000EB80013548383000EBC100406A40F654
:103F9000AC51884209D3314890F8360000EB8002DA
:103FA0002E48383000EBC20041622C4991F836109F
:103FB00001EB81022949383101EBC20100230422BF
:103FC000486A0121FDF720FC28A1234818F00DFDC7
:103FD0009222782120481BF07BFD15E0FFE71F4966
:103FE00091F8361001EB81021C49383101EBC20116
:103FF000496A1B4A02EB0111184A127801EBC20010
:10400000922278211BF064FD144991F8361001EBDF
:1040100081021249383101EBC2018868FEF7E3FBE7
:1040200000909DF80210BDF8000000230422FDF767
:10403000EBFB0C49084818F0D8FC32224FF496717B
:1040400005481BF045FD054890F8360000EB80015F
:10405000024838300CE00000980F0010E40F001008
:10406000A8210500002305009822050075410000E5
:1040700000EBC1000069F8B1FE4991F8361001EB80
:104080008102FC49383101EBC2010869FEF7ABFB44
:1040900000909DF80210BDF8000000230422FDF7F7
:1040A000B3FBF549F54818F0A0FC4A224FF496718D
:1040B000F2481BF00DFD09E0EE490978F04A02EBE9
:1040C000C1004A224FF496711BF002FDE948C08BF3
:1040D000F0B3E84890F8360000EB8001E54838304E
:1040E00000EBC100806909280AD90921E14890F84C
:1040F000360000EB8002DF48383000EBC2008161FF
:10410000DC4890F8360000EB8001DA48383000EBEC
:10411000C1008069E8B1D74890F8360000EB800113
:10412000D448383000EBC1008069092811D8D14942
:1041300091F8361001EB8102CE49383101EBC20112
:104140000123622288694FF496711BF019FC3AE052
:104150000AE0C8490978CA4A02EBC10062224FF45A
:1041600096711BF0B5FC2EE0C24890F8360000EBCB
:104170008001C048383000EBC1008069C8B1BD493A
:1041800091F8361001EB8102BA49383101EBC201D6
:104190000023042288690121FDF736FBB9A1B74845
:1041A00018F023FC62224FF49671B4481BF090FC87
:1041B00009E0B0490978B24A02EBC10062224FF42B
:1041C00096711BF085FCAB4890F8360000EB80013F
:1041D000A848383000EBC100006AC8B1A54991F881
:1041E000361001EB8102A349383101EBC2010023F3
:1041F0000422086A0121FDF707FBA3A19F4818F0DC
:10420000F4FB7A224FF496719C481BF061FC09E0A4
:10421000984909789A4A02EBC1007A224FF49671C4
:104220001BF056FC1AE2934991F8361001EB81021B
:104230009049383101EBC201002304224868032170
:10424000FDF7E2FAAFF200618C4818F0CEFB3222A3
:1042500078218A481BF03CFC864890F8360000EB39
:1042600080018448383000EBC100C068C0B181498A
:1042700091F8361001EB81027E49383101EBC20121
:1042800000230422C8680121FDF7BEFA7EA17B4805
:1042900018F0ABFB4A22782178481BF019FC08E0A3
:1042A00074490978794A02EBC1004A2278211BF04F
:1042B0000FFC704890F8360000EB80016D483830F4
:1042C00000EBC1004069C0B16A4991F8361001EBBA
:1042D00081026849383101EBC20100230422486998
:1042E0000121FDF791FA68A1644818F07EFB622273
:1042F000782162481BF0ECFB08E05E490978604ACF
:1043000002EBC100622278211BF0E2FB594890F8D1
:10431000360000EB80015748383000EBC100C0691F
:10432000C0B1544991F8361001EB8102514938313E
:1043300001EBC20100230422C8690121FDF764FAE0
:1043400051A14E4818F051FB7A2278214B481BF0BE
:10435000BFFB08E047490978494A02EBC1007A22CD
:1043600078211BF0B5FB434890F8360000EB800144
:104370004048383000EBC100806840B33D4991F8B7
:10438000361001EB81023B49383101EBC2018868EC
:10439000FEF761F800909DF80210BDF800000023C0
:1043A0000422FDF731FA9DF80300334A103A02EB7C
:1043B000001000F10801314818F017FB322200E02C
:1043C0004BE14FF496712D481BF082FB09E029491F
:1043D00009782B4A02EBC10032224FF496711BF090
:1043E00077FB244991F8361001EB810221493831DD
:1043F00001EBC2010869FEF72EF800909DF802104B
:10440000BDF8000000230422FDF7FEF99DF803002B
:10441000194A103A02EB001000F10801174818F091
:10442000E4FA4A224FF4967114481BF051FB1149EB
:104430000978C1EBC101164A02EBC1020D4991F89E
:10444000361001EB81030B49383101EBC301896957
:1044500002EBC10062224FF496711BF039FB054953
:1044600091F8361001EB81020249383101EBC201AB
:10447000496A0FE0E40F001000230500980F0010B8
:10448000A82105006D41000073000000982205007E
:1044900028220500FE4A02EB0111FE4A127801EBC8
:1044A000C2007A224FF496711BF012FBD6E0F94855
:1044B00090F8360000EB8001F648383000EBC10080
:1044C000F5490269F54818F02FF832227821F348AF
:1044D0001BF0FEFAEF4890F8360000EB8001ED4843
:1044E000383000EBC1008068642813D3E94890F8A5
:1044F000360000EB8001E748383000EBC100E649A8
:104500008268E64818F010F84A227821E3481BF048
:10451000DFFA08E0DF490978DD4A02EBC1004A22F0
:1045200078211BF0D5FADB4890F8360000EB8001CB
:10453000D848383000EBC100006AD0B3D54890F8B5
:10454000360000EB8001D348383000EBC100006A30
:10455000B0F57A7F13D3CF4890F8360000EB800196
:10456000CC48383000EBC100006A0A21B0FBF1F6FC
:104570000023042202213046FDF746F90EE0C5492A
:1045800091F8361001EB8102C249383101EBC201CA
:1045900000230422086A0321FDF736F9C049BF4809
:1045A00018F023FA32224FF49671BC481BF090FAAF
:1045B00007E0FFE732224FF49671B7480C301BF04A
:1045C00087FA4BE032227821AFF6F4501BF080FAE4
:1045D000B04991F8361001EB8102AE49383101EB58
:1045E000C201496AAA4A02EB0111AA4A127801EBF8
:1045F000C20032224FF496711BF06AFAA54890F877
:10460000360000EB8001A348383000EBC100C068E1
:10461000C8B1A04991F8361001EB81029D493831AB
:1046200001EBC20100230422C8680121FDF7ECF868
:10463000AFF2AC11994818F0D8F94A22782197487E
:104640001BF046FA08E093490978964A02EBC1004C
:104650004A2278211BF03CFA00E000BF00BF8D49E0
:1046600091F8361001EB81028A49383111F8320095
:104670002946FFF779F8F8BD7CB505460120FDF71E
:104680007BF942F669201BF081FD02201BF0D8FD6A
:104690006FF07F401BF085FD002437E04FF4BE70C3
:1046A000ADF8000004EB4400042101EB00100621EA
:1046B00001FB040000B2ADF802004FF4EE70ADF85B
:1046C0000400601C00EB4000042101EB00100621F7
:1046D00001FB040000B2ADF80600C5EBC50101EB1B
:1046E0008101714A02EB81016A4A1278C2EBC2026F
:1046F00002EB820201EB4201C4EBC40201EB420077
:104700000E2269461BF0F8F9601CC4B2052CC5DB0B
:104710007CBD2DE9F04707465E4C14340F26012579
:104720003BE0BD4203D1FF201BF03BFD02E05F48B0
:104730001BF037FD701C00EBD071B5EB610F0FD88B
:1047400005EB4500C00000F11803681E00EB4000B7
:10475000C00000F11801B4226E201BF099FA1BE092
:1047600006F1010808EBD870A5EB600000EB4000F3
:10477000C00000F11803C14609EBD970A5EB600039
:10478000401E00EB4000C00000F118014FF4B7726A
:104790004FF494701BF07CFA6D1CB5F5E17FC0D925
:1047A00002201BF04DFD6FF07F401BF0FAFC00254E
:1047B00026E0012D0ED134F81500B0F57A7F09D12D
:1047C00005EB45001A2101EBC002782138A01BF04F
:1047D0007FF914E034F81500002303220121FDF7CE
:1047E00013F8AFF25C312D4818F0FFF805EB4500E7
:1047F0001A2101EBC002782128481BF069F96D1CD1
:10480000032DD6D3E188224A02EB0111214A127806
:1048100001EBC200622278211BF05AF92189254A56
:1048200002EBC1007A2278211BF052F96189224AF9
:1048300002EB0111174A127801EBC2009222782193
:104840001BF046F9A08948B912490978104A02EBD1
:10485000C100AA2278211BF03BF90AE0A0890023BD
:1048600002221946FCF7D0FFAA2278210B481BF040
:104870002FF9E189064A02EB0111064A127801EB91
:10488000C200C22278211BF023F9218A004A15E0D8
:10489000A8210500E40F0010BC330200980F00109F
:1048A0008041050098220500581205003366CC00AF
:1048B0004B455900D02205000822050002EB0111EA
:1048C000FB4A127801EBC2001A224FF496711BF0DA
:1048D000FFF8618AF74A02EB0111F54A127801EB01
:1048E000C20032224FF496711BF0F2F8A18AF24A0C
:1048F00002EB0111EE4A127801EBC2004A224FF49A
:1049000096711BF0E5F8E18AEA4A02EB0111E84AE8
:10491000127801EBC20062224FF496711BF0D8F8B6
:10492000218BE44A02EB0111E14A127801EBC2004B
:104930007A224FF496711BF0CBF8618BDD4A02EBC3
:104940000111DB4A127801EBC20092224FF49671FA
:104950001BF0BEF8A08B88B1A08B0023022201219E
:10496000FCF752FFAFF2E041D44818F03EF8AA221B
:104970004FF49671D1481BF0ABF809E0CC490978A7
:10498000CC4A02EBC100AA224FF496711BF0A0F8AA
:104990003846FFF771FEBDE8F0871CB50120FCF733
:1049A000EBFF02201BF04CFC6FF07F401BF0F9FB8B
:1049B00000242BE04FF4BE70ADF8000004EB44007F
:1049C000042101EB0010062101FB040000B2ADF848
:1049D00002004FF4EE70ADF80400601C00EB4000E4
:1049E000042101EB0010062101FB040000B2ADF828
:1049F0000600B34901EB4411AD4A127801EB0210F5
:104A00000E2269461BF078F8601CC4B2052CD1DB7D
:104A10001CBD10B502201BF013FC6FF07F401BF093
:104A2000C0FBA34890F8100278B9A14991F811127F
:104A3000491EA44A02EB81119D4A127801EB4210F3
:104A4000322278211BF044F821E0994991F81112A3
:104A5000491E9D4A02EB8111954A127801EB4210E2
:104A6000322278211BF034F891490A78974901EBFA
:104A700042107A2278211BF02BF88D490A7893494D
:104A8000403101EB4210922278211BF021F8884935
:104A900009788E4A403A02EB4110622278211BF0DD
:104AA00017F8FFF77AFF10BD70B504460D46601E7B
:104AB000874A115C002304222846FCF7A5FE601CEF
:104AC00000EB4000C00000F11A0101237B4A4FF4C3
:104AD000A270FCF7C7FD70BD38B50546002432E072
:104AE000601C854203D1FF207A49486002E07A4881
:104AF000784948607748808880B20090E01C00EBDD
:104B00004000C000163083B2A01C00EB4000C00083
:104B1000183081B2E822A420FCF7C3F96C4A115D79
:104B20006E4A32F8240000230422FCF76DFEA01C1C
:104B300000EB4000C0001A3081B201235F4AA4207C
:104B4000FCF790FD641C052CCAD36348614948609A
:104B500038BD30B58DB004465F485E49486002A953
:104B60005F4811F075F85FA10AA817F0DDFC00237B
:104B70000AAAAA215E20FCF775FD5DA10AA817F01C
:104B8000D3FC00230AAAC2217220FCF76BFD062C7D
:104B900001D1012000E0002005461DB1FF204D4954
:104BA000486002E04C484B49486054A10AA8099A61
:104BB00017F0BAFC4748808880B2BE238622AA211B
:104BC00000905E20FCF76DF900230AAAAA215E205E
:104BD000FCF748FD072C01D1012000E0002005462C
:104BE0001DB1FF203B49486002E03B48394948601D
:104BF00042A10AA8089A17F097FC3648808880B22C
:104C0000BE23A422AA2100909020FCF74AF9002399
:104C10000AAAAA219020FCF725FD082C01D1012029
:104C200000E0002005461DB1FF202A49486002E04F
:104C300029482849486031A10AA8059A17F074FC50
:104C40002448808880B2BE23C222AA210090AE20D0
:104C5000FCF727F900230AAAAA21AE20FCF702FDDF
:104C6000092C01D1012000E0002005461DB1FF20E4
:104C70001849486002E01848164948601FA10AA870
:104C8000049A17F051FC1348808880B2D6238622FC
:104C9000C22100907220FCF704F900230AAAC22165
:104CA0007220FCF7DFFC0A2C2CD101202BE0000045
:104CB000E40F0010A8210500C8210500980F00107E
:104CC00030D7040090DB0400D0DA040090DC04004C
:104CD000D8420500240000103366CC00E007001025
:104CE00000400240202020203A20203A20200000CE
:104CF00020203A20203A2020000000002530326495
:104D000000000000002005461DB1FF20FC4948605E
:104D100002E0FC48FA494860AFF220010AA8039A71
:104D200017F002FCF648808880B2D623A422C22164
:104D300000909020FCF7B5F800230AAAC221902029
:104D4000FCF790FC0B2C01D1012000E0002005466F
:104D50001DB1FF20EA49486002E0EA48E84948609E
:104D6000AFF268010AA8029A17F0DEFBE4488088D7
:104D700080B2D623C22211460090AE20FCF791F8F3
:104D800000230AAAC221AE20FCF76CFC0DB030BD96
:104D90007CB505460120FCF7EFFD02201BF050FA20
:104DA0006FF07F401BF0FDF9002437E04FF4BE7038
:104DB000ADF8000004EB4400042101EB00100621D3
:104DC00001FB040000B2ADF802004FF4EE70ADF844
:104DD0000400601C00EB4000042101EB00100621E0
:104DE00001FB040000B2ADF80600C5EBC50101EB04
:104DF0008101C54A02EB8101C44A1278C2EBC202AA
:104E000002EB820201EB4201C4EBC40201EB42005F
:104E10000E2269461AF070FE601CC4B2052CC5DB78
:104E20007CBD70B50546072601242DE0AC4203D1B8
:104E3000FF201BF0B6F902E0B2481BF0B2F9042CD7
:104E40000FD804EB4400C00000F11803601E00EB13
:104E50004000C00000F11801A0226E201AF018FFD7
:104E600011E0201F00EB4000C00000F11803601F9C
:104E700000EB4000C00000F1180140F25F124FF457
:104E800094701AF005FF641C701C8442CED302207B
:104E90001BF0D6F96FF07F401BF083F99B4909782E
:104EA000C1EBC10101EB8101994A02EB4101974A33
:104EB0001278C2EBC20201EB42001A2278211AF0EA
:104EC00007FE92490978C1EBC10101EB81029049CB
:104ED0008C3101EB42018D4A5278C2EBC20201EBE8
:104EE0004200322278211AF0F3FD88490978C1EB9B
:104EF000C10101EB8102874901EB4201834A9278AB
:104F0000C2EBC20201EB42004A2278211AF0E0FD16
:104F10007E490978C1EBC10101EB81027D498C31E9
:104F200001EB4201794AD278C2EBC20201EB4200A6
:104F3000622278211AF0CCFD74490978C1EBC101D5
:104F400001EB8102744901EB4201704A527BC2EBD2
:104F5000C20201EB42001A224FF496711AF0B8FD1A
:104F60006A49887B032332224FF496711AF008FDB8
:104F700066490978C1EBC10101EB8102674901EB88
:104F80004201624AD27BC2EBC20201EB42004A22DA
:104F90004FF496711AF09CFD2846FFF7F9FE70BD9C
:104FA00010B50020FCF793FF10BD10B5FFF7F8FF18
:104FB0004FF6FF705249086040F23F2048604FF6BC
:104FC000FF7008604F48486000240FE004EB840144
:104FD00001EBC401524BCA1804EB84014901091DBD
:104FE00088B200233221FCF73DFB641C032CEDD377
:104FF000002410E004EB840000EBC400494BC2180D
:10500000A01C00EB4000C0001A3081B20023042035
:10501000FCF728FB641C052CECD310BD08B543F647
:10502000AC10B62340F2DF127A2100900020FBF78B
:1050300038FF08BD10B50020FCF749FFFFF7EEFF71
:1050400010BD08B543F6AC10B62340F2DF127A214A
:1050500000900020FBF725FF08BD10B50020FCF7ED
:1050600036FF10BD10B5FFF7F8FF4FF6FF7024496B
:10507000086040F23F20486000232B4A0421184674
:10508000FCF7F0FA4FF6FF701D4908601D484860B4
:105090000023264A1A210420FCF7E4FA01240CE03C
:1050A000224901EB0412611E4D235943223188B27B
:1050B00000233221FCF7D6FA641C072CF0D3002021
:1050C000FCF7DDFD10BD38B5002416E04FF6FF708B
:1050D0000090601C00EB40001A2202EBC000801E12
:1050E00083B2601C00EB400002EBC000801E81B266
:1050F000BE225A20FBF72FFE641C052CE6D338BDD8
:10510000240000103366CC0064010500E40F001099
:10511000181B0500301C0500601E0500781F0500E7
:10512000163E05003D3E0500753C05005F4005004C
:1051300010B50220FCF7CBFE10BD10B50120FCF726
:105140001BFC0420FCF7E9FE4FF6FF701BF029F86A
:10515000FE481BF01BF8002410E0FD4901EB441150
:10516000FC4B1B7801EB0310611C01EB4101C900F2
:1051700001F11A0204211AF0ABFC641C052CECD3DB
:1051800010BD70B505462846FCF7A1FE4FF6FF702E
:10519000F14908600860ED484860022D11D10024F3
:1051A0000DE0EE4800EB0412601C00EB4000C00074
:1051B0001A3081B200230420FCF754FA641C072C37
:1051C000EFD370BD2DE9F34F83B00C4642F20F715F
:1051D0006068884206D90A216068B0FBF1F060601F
:1051E0000420A060A068C0F10400A060D4F804907E
:1051F000E06820B94FF47A7009FB00F90EE0E0682E
:1052000001280BD1484620F0D3FD07460022D44B9D
:1052100020F064FE054620F087FD8146A06820F05E
:10522000C7FD07463A460B460020CE491FF074FDE5
:1052300005460E46484620F0BBFD2A463346CDE9DA
:10524000000120F0ADFB824620F06EFD814648460D
:1052500020F0AEFD05460022C34B20F03DFF09D2F1
:10526000DFF8089340F6B83060600220A0600120AB
:10527000E0605FE0484620F09BFD05460022BC4B05
:1052800020F02AFF09D842F21070B9FBF0F06060FC
:105290000220A0600120E0604CE0484620F088FD3C
:1052A00005460022AE4B20F017FF09D84FF47A7064
:1052B000B9FBF0F060600320A0600120E06039E0FD
:1052C000484620F075FD05460022AA4B20F004FF59
:1052D00008D86420B9FBF0F060600120A0600020D5
:1052E000E06027E0484620F063FD05460022A24B1F
:1052F00020F0F2FE08D80A20B9FBF0F0606002202E
:10530000A0600020E06015E0484620F051FD054611
:1053100000229A4B20F0E0FE06D8C4F80490032047
:10532000A0600020E06005E0C4F804900320A060C5
:105330000020E060C4F818901C222146039817F062
:10534000E7FB05B0BDE8F08F0146888800B27047E2
:105350002DE9F04105460C46E06870BBA0680528C1
:1053600029D2DFE800F00314151C2200606820F049
:105370001FFD064600227F4B20F0AEFE04D280487F
:1053800060600020206101E00120206114E013E052
:105390004FF47A716068B0FBF1F060600CE064215A
:1053A0006068B0FBF1F0606006E00A216068B0FB65
:1053B000F1F0606000E000BF46E0FFE7A06806286B
:1053C0003ED2DFE800F00310181926326C496068FD
:1053D000884202D90846606004E04FF47A71606840
:1053E000484360602FE0606820B10A216068B0FB2C
:1053F000F1F0606027E026E042F2107160688842B8
:1054000001D908466060606800EB80004000606081
:1054100019E06068B0F57A7F02D94FF47A70606065
:1054200064216068484360600DE06068642801D9C9
:10543000642060604FF47A7160684843606002E005
:105440005048606000BF00BF1C222146284617F06C
:105450005FFBBDE8F0812DE9F34F83B08A4642F24D
:105460000F71DAF80400884209D90A21DAF8040039
:10547000B0FBF1F0CAF804000420CAF808004FF4A9
:105480007A71DAF8040000FB01FBDAF80810C1F1C8
:10549000040020F08DFC02460B46CDE900010020FF
:1054A00030491FF039FC04460D46584620F080FC78
:1054B000064622462B4620F073FA804620F034FC44
:1054C00083464EF66020834500D9834642F2107031
:1054D000834508D90220CAF808000A20BBFBF0F077
:1054E000CAF8040004E00320CAF80800CAF804B0AF
:1054F000CAF818B01C225146039817F009FB05B0F2
:10550000BDE8F08F2DE9F05F82460C460020E06098
:10551000A06821F0BBF9834620F0F0FF07463A4629
:105520000B4600200F491FF0F7FB054620F0FCFB5F
:1055300081466068B0FBF9F9B9F1640F01D9022026
:10554000A0601C22214650461EE000003366CC00BD
:1055500090D60400E40F00102400001090390500DC
:1055600080842E4100002440389C7C4180C3C901C6
:10557000D0126341006AF8400088C34000408F4069
:10558000A086010040420F0017F0C2FABDE8F09F6C
:1055900008B5FE48372328225C2100903C20FBF709
:1055A00062FEFB48372328225C2100906420FBF731
:1055B0005AFEF84837232822932100903C20FBF71D
:1055C00052FEF34837232822932100906420FBF7F2
:1055D0004AFE08BD10B500240BE004EBC400C0EB8C
:1055E000841000F16E01ECA28C20FBF7F0FF601C30
:1055F000C4B2032CF1DB10BD08B5E948E9494860A5
:10560000E448372328226E2100906420FBF72BFE0C
:10561000E548372328226E2100904FF49670FBF75F
:1056200022FEE248372328226E2100904FF4AA7010
:10563000FBF719FEDE4837232822A52100906420BD
:10564000FBF711FEDA4837232822A52100904FF4FA
:10565000AA70FBF708FED74837232822DC210090E8
:105660006420FBF700FED44837232822DC21009079
:105670004FF4AA70FBF7F7FD08BD08B50146CF4807
:105680000078022806DC88B2ADF8000002208DF810
:10569000020008E088B2ADF8000003208DF8020097
:1056A00001208DF80300009808BD38B504466FF05E
:1056B0007F401AF076FDC24890F8353090F83620D9
:1056C000C049C14816F030FF1A227821BE481AF0AE
:1056D000FFF9BB4991F8361001EB8102B849383126
:1056E00051F83210B94A02EBC1001A224FF49671F8
:1056F0001AF0EEF9AA481AF049FDB5481AF051FD22
:1057000000201AF09DFDB3481AF05CFDAC4890F8FB
:10571000360000EB8001AA48383050F831000428E8
:105720000FD0012C07D1AC490023042208680321C3
:10573000FCF76AF805E00023042203211846FCF771
:1057400063F878225A21A0481AF0C2F99C4890F8D0
:10575000360000EB80019A48383050F831000528B7
:1057600075D2DFE800F0030465A6E10000BF012C5C
:1057700041D1994840684FF6FF71884206D192485E
:1057800096490A680260898881803AE08C48C08D19
:1057900001281CD190484268894890F83610491E6B
:1057A00000F5FD7030F81100824203D200208A49D2
:1057B00048600CE088484268814890F83610491EDD
:1057C00000F5FD7030F81100101A834948607B48DD
:1057D0000078012807D1804900230422486803216A
:1057E000FCF712F80DE07C490023042248680221EE
:1057F000FCF70AF805E00023042203211846FCF711
:1058000003F867481AF0CDFCE823F022AA215A20B9
:105810001AF03EFA6E481AF0C4FCAA225A216A48CD
:105820001AF056F9AA22F0216DA01AF051F97DE084
:10583000012C32D1684840686B49884208D16248DF
:10584000664914310A680260496841602BE06CE0E7
:1058500061494868FCF7FFFD00909DF80210BDF813
:10586000000000230422FBF7CFFF4D481AF099FCFB
:10587000E823F022AA215A201AF00AFA54481AF012
:1058800090FC9DF8031001EB4101584A02EB4100E6
:10589000AA22F0211AF01CF905E0002303220121BD
:1058A0001846FBF7B1FFAA225A2147481AF010F90F
:1058B0003CE0012C1BD1484840684FF6FF718842FC
:1058C00007D14148454914310A680260496841607E
:1058D00013E041494868FFF7D0FE00909DF80210A0
:1058E000BDF8000000230422FBF78EFF05E0002333
:1058F000042203211846FBF787FF29481AF051FCC0
:10590000E823F022AA215A201AF0C2F930481AF0EE
:1059100048FCAA225A212C481AF0DAF8AA22F021CF
:1059200033481AF0D5F801E000E000BF00BF31486D
:105930001AF048FC012C07D12749088900230422CA
:105940000121FBF761FF05E0002304220121184635
:10595000FBF75AFFF32254211B481AF0B9F82649E5
:105960000878FCF7CEFC38BD30B585B004460D464E
:1059700022A003C8CDE9030122A103C9CDE9010199
:1059800003A8005D40F2131148433FE05D8F04001F
:10599000759004005CB804002D2D2D2D2D00000005
:1059A0003366CC0024000010F4C0040079C8040061
:1059B000FECF040011D1040024D20400FB0000102B
:1059C000E40F00105C2B0200980F0010A8220500C5
:1059D000FFFF8000A4D6050030030010F02602006F
:1059E0006D41202000000000F6FF0900474005003F
:1059F00080410500447C0500240100100C0F1011AB
:105A0000160E0D00121314020B171600FD49084460
:105A1000372328225C2100904FF4BE70FBF723FC53
:105A200001A8405D40F213114843F649084437236A
:105A300028225C2100904FF4D270FBF714FC05B0D3
:105A400030BD30B585B004460D46AFF2500003C8F6
:105A5000CDE90301AFF2540103C9CDE9010103A867
:105A6000005D40F213114843E649084437232822D9
:105A7000932100904FF4BE70FBF7F5FB01A8405D49
:105A800040F213114843DF49084437232822932169
:105A900000904FF4D270FBF7E6FB05B030BD10B5B7
:105AA00086B0142101A817F06DF8D748006800905F
:105AB000002409E01DF80410D4480EF009FD01206F
:105AC00002F0A5F8601CC4B2032CF3DB06B010BDD5
:105AD00038B50446CE48CF494860CF4800EB840231
