:020000040000FA
:1000000030210010AD020000B5020000B702000070
:10001000B9020000BB020000BD02000000000000A9
:10002000000000000000000000000000BF0200000F
:10003000C102000000000000C3020000AD72000019
:10004000C7020000350800009D080000D908000024
:10005000EB08000039ED0000C7020000C7020000F5
:10006000C7020000C7020000C7020000C70200006C
:10007000C7020000C7020000C7020000C70200005C
:10008000C7020000C7020000C7020000C70200004C
:10009000C7020000C7020000C7020000C70200003C
:1000A000D5160100C7020000C7020000C702000009
:1000B000C7020000C7020000C7020000C70200001C
:1000C000C7020000C7020000C7020000C70200000C
:1000D000C7020000C702000089060000C702000036
:1000E000C702000000F002F800F0B0F80AA090E8A3
:1000F000000C82448344AAF10107DA4501D100F0E3
:10010000A5F8AFF2090EBAE80F0013F0010F18BFFF
:10011000FB1A43F00103184768CB030088CB0300A8
:100120000A444FF0000C10F8013B13F0070408BF1D
:1001300010F8014B1D1108BF10F8015B641E05D0BB
:1001400010F8016B641E01F8016BF9D113F0080F70
:100150001EBF10F8014BAD1C0C1B09D16D1E58BF02
:1001600001F801CBFAD505E014F8016B01F8016B39
:100170006D1EF9D59142D6D37047000000230024AC
:1001800000250026103A28BF78C1FBD8520728BFA7
:1001900030C148BF0B6070476E2914F06D8670291E
:1001A00014F0A98766291EF0EF8465291EF0EC84FF
:1001B00067291EF0E9846129AFF3008003681B0AF8
:1001C00028BF41F08001692914F0AC83642914F040
:1001D000A983752914F0A6836F2914F0368778292E
:1001E00014F07587E92914F0D186E42914F0CE863D
:1001F000F52914F0CB86EF2914F03387F82914F091
:1002000074870368DB0928BF41F08001632915F07A
:100210007882732915F07D82E32915F08882F3290D
:1002200015F08D82002070471FB515F0FFFA04000D
:10023000002000211DF0FEFA401C6060002000211B
:100240001DF0E2FAE0601FBD10B510BD15F0C0FA58
:100250001146FFF7E9FF00F06DF915F019FE03B440
:10026000FFF7F2FF03BC15F05DFE000070B5054618
:100270000C46A4F120000B4A02EB00111022284684
:1002800014F07BFC70BDA1F1200202EB4202064B90
:1002900003EB8202136803605368436092688260D4
:1002A000704700006D0402005D0A020009488047A3
:1002B00009480047FEE7FEE7FEE7FEE7FEE7FEE748
:1002C000FEE7FEE7FEE7FEE704480549034A054B63
:1002D0007047000089D70000E500000030190010C9
:1002E00030210010301900107047704770470A68BD
:1002F00002F8010B0A60704770477047FFFFFFFF6D
:1003000040F20120824908608249C1F88401804995
:1003100008310860091D0860091D0860091D086092
:10032000091D0860091D0860091D0860091D086095
:10033000091D0860091D0860091D0860091D086085
:10034000091D0860091D0860714980310860091D98
:100350000860091D0860091D0860091D0860091D65
:100360000860091D0860091D0860091D0860091D55
:100370000860091D0860091D0860091D0860091D45
:100380000860091D08606249D4310860091D0860D1
:10039000091D08605E49443908605D49E431086020
:1003A000091F08605A49E831086059494039086016
:1003B000091D0860091D0860554930390860544915
:1003C00020390860524910390860091D08607047DB
:1003D0002DE9F04100BF00BF4F48006840F40060C5
:1003E0004D49C439C1F8C40041F61F704B4908603B
:1003F00001204B49086000208860FFF781FF4948D1
:1004000000684949B0FBF1F74348C438D0F800010F
:1004100000B17F084FF47A70B0FBF7F404F11300D9
:10042000B0FBF4F03E4908630F2048630020886366
:100430000120C86304F11300B0FBF4F0801C0864D1
:100440000120486404F13E00B0FBF4F0886404F13C
:100450003E00B0FBF4F0C8640F20086504F13E00D4
:10046000B0FBF4F0486501208865886240F20330F3
:100470002E4908604FF4D0602949C1F80001642179
:10048000012000F059F940F2831025490862C82183
:10049000012000F051F940F20310214908620220C6
:1004A0004862002600E0761C802EFCD341F684656D
:1004B000A5F1100085B22D1105FB07F04FF47A71FC
:1004C000B0FBF1F085B216484562832014490862FA
:1004D00017480588002008621448001F006840F48F
:1004E0000020C1F800010121084600F025F9012192
:1004F000084600F021F90948006820F01F0848F07C
:1005000011000549C439C1F8DC01BDE8F0810000E3
:1005100080C1024000C00240C4C00F40DCC10F4097
:1005200000C009200C01001040420F0004C1092046
:10053000003003A000200DF0E4FB044600206D49CC
:1005400008606D48B4FBF0F0411EB1F1807F00D32C
:100550001DE021F07F40401E4FF0E0225061501717
:100560001F22002807DAD3061E0E644B00F00F0589
:100570002D1F5E5503E0D3061D0E614B1D5400BFB9
:1005800000204FF0E02290610720106100BF0EF0C4
:10059000EDFD02205B49086000205B4908805B4953
:1005A00008705B4908703CE056480068801E1828B7
:1005B00035D2DFE800F00C3412150F303434183423
:1005C0001B3434342124272A2D34341E343107F0CF
:1005D000CBF825E007F0AEFB22E008F096F81FE02C
:1005E00008F0DFF81CE00CF0A0FE19E00AF038F883
:1005F00016E00BF050FA13E009F0E1FF10E007F00D
:100600009AF90DE007F0BEFA0AE007F027FB07E0D1
:1006100009F08CFC04E003E00BF0F6F900E000BF09
:1006200000BFC1E72DE9F04101213AA010F050FCD4
:100630000746002F25DD4FF47A62394801683846B5
:1006400010F026FD022137A010F042FC0446002CD9
:1006500011DD002500BF4FF47A6231480168204661
:1006600010F080FE0646354431488542F3D32046DB
:1006700010F00FFF01E0BDE8F081384610F009FFEF
:1006800000E0F8E700BFF6E710B5012205210020E1
:100690000DF0A0F930B10C2026490860202100207F
:1006A0000DF0C3F90122062100200DF093F930B1BD
:1006B000092020490860402100200DF0B6F90122F0
:1006C000072100200DF086F930B10E20194908608D
:1006D000802100200DF0A9F900200BF014FD00206E
:1006E0000BF08AFF002006F047F800200BF0D7FF40
:1006F00010BD000098000010A086010018ED00E079
:1007000000E400E0EC000010E4000010E60000103F
:10071000E70000104D53524541442E5458540000F8
:10072000900100105A43353532302E545854000091
:1007300080969800F0000010F8B902224FF0402394
:100740005A600022DA60D44A12684FF47A73B2FB1E
:10075000F3F2521E4A434FF040239A61FF221A607F
:1007600004225A6101225A6000BF4FF040225268B1
:1007700002F00102002AF8D15BE001281CD102221C
:10078000C64B5A600022DA60C34A12684FF47A738B
:10079000B2FBF3F2521E4A43C04B9A61FF221A6029
:1007A00004225A6101225A6000BFBC4A526802F01A
:1007B0000102002AF9D13CE002281CD10222B84BE8
:1007C0005A600022DA60B44A12684FF47A73B2FBBE
:1007D000F3F2521E4A43B24B9A61FF221A6004227E
:1007E0005A6101225A6000BFAD4A526802F001020C
:1007F000002AF9D11DE003281BD10222A94B5A601F
:100800000022DA60A44A12684FF47A73B2FBF3F262
:10081000521E4A43A34B9A61FF221A6004225A6176
:1008200001225A6000BF9F4A526802F00102002A6A
:10083000F9D1704701214FF0402211609A490968AF
:10084000062913D199490978491C984A1170114613
:100850000978092910DD002111700121944A1170D5
:1008600094490989491C934A118105E08F49097807
:1008700011B100218D4A117000200CE08E4951F811
:10088000201031B18C4951F82010491E8A4A42F893
:100890002010411CC8B20528F0DB704710B50120BC
:1008A0007E49086085480078401C844908707E486D
:1008B000006806280FD1084600780A2802D106F001
:1008C00082FD08E07D480078142804DB00207B4985
:1008D000087006F07EFD10BD01207149086078485F
:1008E0000068401C76490860704701206D49086027
:1008F00074480068401C73490860704720B90121A2
:100900004FF04022516010E0012803D10121634AD9
:1009100051600AE0022803D10121614A516004E0DC
:10092000032802D101215F4A5160704720B900219C
:100930004FF04022516010E0012803D10021574AB6
:1009400051600AE0022803D10021554A516004E0B9
:10095000032802D10021524A51607047014631B943
:100960004FF04022506840F00200506016E001292C
:1009700005D14A4A506840F0020050600EE002295A
:1009800005D1474A506840F00200506006E0032954
:1009900004D1444A506840F002005060704770B57E
:1009A00005460C46F5B900204749086047480068ED
:1009B00040F002004549C439C1F8C4004FF040205E
:1009C000406840F002004FF0402148604EF65F2042
:1009D000C8600846846103204861012000F050F897
:1009E000012070BD012D1CD1002039490860374815
:1009F000006840F004003549C439C1F8C4002748F4
:100A0000406840F00200254948604EF65F20C8600B
:100A10000846846103204861022000F031F801207B
:100A2000DFE7022D13D10020254908602748006820
:100A300040F480002549C439C1F8C40018488461D5
:100A400003201749486100F01BF80120C9E7032D76
:100A500014D100201B4908601C48006840F40000C5
:100A60001A49C439C1F8C4000E48846103200D49F5
:100A70004861042000F004F80120B2E70020B0E74C
:100A800000F01F02012191404209920002F1E02290
:100A9000C2F80011704700001001001000800040F3
:100AA0000000094000400940EC0000101000001058
:100AB000C6000010C8020010280B00101100001022
:100AC000080000100C00001000000010C4C00F400F
:100AD0000400001008B5B0B1F949896941F001017D
:100AE000F74A916142F21071009108E0F449896976
:100AF00041F40061F24A91610099491E0091009908
:100B00000029F3D115E0EE49896921F40061EC4A2E
:100B1000916142F21071009102E00099491E00912A
:100B200000990029F9D1E649896921F00101E44AD7
:100B3000916108BDE34A002102E008C808C2491CCF
:100B40008029FAD3704750B506460C4600BF2720CF
:100B5000DD490860DD49C1F81801DD490860091D5B
:100B60000860091D0860DA494C390860091D0860F1
:100B7000091D0860091D0860091D0860091D08603D
:100B8000D34918310860D24934390860091D08601A
:100B9000091D0860091D0860CD4914390860CC4959
:100BA00008390860CA4910390860C849C1F81001FD
:100BB000C848006A40F00200C64908620846806BD7
:100BC00040F0040088630846006840F002000860B6
:100BD0000846806940F02A008861BF48D0F8C40008
:100BE00040F00100BC49C1F8C400BC48006820F0D6
:100BF0000100BA4908600020B1498861084680694F
:100C000020F00E0088610846806940F00C00886181
:100C10000846806940F0200088610846806920F01D
:100C2000800088610846806920F4807088610846E9
:100C3000806920F4007088610846806920F4806033
:100C400088610846806920F400608861A4480068D3
:100C5000A449B0FBF1F0A049C1F8B80198488068F8
:100C600040F08060964988600846806820F0200047
:100C700088600846806840F40060886008468068A4
:100C800040F4805088600846806820F400508860F6
:100C90000846806820F48040886008468068924951
:100CA000084087498860084680689049084384491D
:100CB0008860002008600846006840F01C5008600A
:100CC0000846006840F4802008600846006840F448
:100CD000807008600846006840F0740008600020DA
:100CE00048600846406840F0006048600846406838
:100CF00040F4002048600846406840F48060486046
:100D00000846406840F20F1108436D494860784832
:100D10000861486114B12046FFF70CFF50BD744ACA
:100D2000002102E022F8020B491CB1F5FF3FF9D384
:100D3000704730B56E4BB0F5F07F02DAB1F5887FC1
:100D400000DB30BDC1EB011500EB451403EB4403A0
:100D50001A8000BFF5E72DE9F04F04460D46914695
:100D60009A46DDF824B04C4503DD0FFA89F7A14619
:100D7000BCB2554503DD0FFA8AF7AA46BDB2A9EB0E
:100D800004000FFA80F8AAEB050006B2B8F1000FD4
:100D90000BD100BF5A4629462046FFF7CAFF681C00
:100DA00085B2AA45F6DABDE8F08F56B900BF5A46BB
:100DB00029462046FFF7BDFF601C84B2A145F6DA44
:100DC000F1E7B04521DDC8EB460007B215E05A4611
:100DD00029462046FFF7ADFF601C84B2002F08DDD6
:100DE000681C85B27000022101FB1800384407B26C
:100DF00003E0022000FB067007B24C45E7D15A46DB
:100E000029462046FFF795FF20E0C6EB480007B2D1
:100E100015E05A4629462046FFF78BFF681C85B22D
:100E2000002F08DD601C84B27000022101FB180055
:100E3000384407B203E0022000FB067007B25545B4
:100E4000E7D15A4629462046FFF773FF00BFAAE7BD
:100E50002DE9F84105460E4617469846079CA0B274
:100E600033463A46314600902846FFF774FFA0B259
:100E700043463A46414600902846FFF76CFFA0B231
:100E800043462A46314600902846FFF764FFA0B249
:100E900043463A46314600903846FFF75CFFBDE8CE
:100EA000F8812DE9F0411C46069FC1EB011CDFF8DB
:100EB000408008EB8C1C0CEB400300262AE000006D
:100EC000008008200082082074C2024000C0024056
:100ED0001CC102400080092000C00F40008C082087
:100EE000100100109C997400FFFF00FC0000DF015E
:100EF000000001A0002502E023F8027B6D1CA2EB9C
:100F0000000CAC45F8D8A2EB000CCCF5F07C03EB60
:100F10004C03761CA4EB010CB445EBD8BDE8F08182
:100F20002DE9F04704460D461746784200214FEA66
:100F30004708C8F10202F94E00BFA4EB000805EB18
:100F400001094FF4F07A0AFB098846F8283004EBCF
:100F5000000805EB01090AFB098846F8283004EB74
:100F60000008A5EB01090AFB098846F82830A4EB24
:100F70000008A5EB01090AFB098846F828309446C9
:100F80008C450DDC01F1010841464FF0010909EBE8
:100F900048084244C84203D1844501DC4FF0000CAC
:100FA000844507DD00F1010840464FF0010909EBD7
:100FB000480842440028C0DDBDE8F08770B505460A
:100FC0000E461446A2B231462846FFF7B2FE70BD67
:100FD0002DE9FF5F06460F4690469946DDF838B08A
:100FE00041466846FFF742F900241DE01DF804A0C1
:100FF000002516E0C5F107004AFA00F000F00100F4
:1010000038B13A1991B2721990B24A46FFF791FE7F
:1010100006E03A1991B2721990B25A46FFF789FE6A
:101020006D1C082DE6D3641C102CDFD3BDE8FF9F98
:101030002DE9FE4F06460F4690469946DDF830B042
:1010400041466846FFF71FF9002415E01DF804A08B
:1010500000250EE0C5F107004AFA00F000F001009B
:1010600030B13A1991B2721990B24A46FFF761FE57
:101070006D1C082DEED3641C0C2CE7D3BDE8FE8F4D
:101080002DE9F84305460E4614469846DDF82090B3
:1010900000BF14F8017B43463A4631462846CDF856
:1010A0000090FFF795FFB5F5EC7F03DA05F1080036
:1010B00085B208E0FF2E04DC002506F1100086B2A0
:1010C00001E00025002620780028E2D1BDE8F88361
:1010D0002DE9FF4F074688469B463C464546BA46A3
:1010E00046464FF0000915E0A4F1140188B22946E4
:1010F000029AFFF71EFE601C84B2A6F1140081B2B2
:101100005046029AFFF715FE701C86B209F10100E5
:101110001FFA80F9B9F1280FE6DB3C464546BA468E
:1011200046464FF000092BE0A5F1140291B2A4F15C
:10113000140290B25A46FFF7FCFD05F1140291B279
:10114000A4F1140290B25A46FFF7F3FD601C84B27A
:10115000A6F1140291B2AAF1140290B25A46FFF716
:10116000E8FDA6F1140291B20AF1140290B25A46B7
:10117000FFF7DFFD701C86B209F101001FFA80F94C
:10118000B9F10A0FD0DB3C464546BA4646464FF019
:1011900000092BE0A5F1140291B204F10A0290B209
:1011A0005A46FFF7C6FD05F1140291B204F10A0296
:1011B00090B25A46FFF7BDFD601C84B206F10A02E8
:1011C00091B2AAF1140290B25A46FFF7B2FD06F1AD
:1011D0000A0291B20AF1140290B25A46FFF7A9FD31
:1011E000701C86B209F101001FFA80F9B9F10A0FEB
:1011F000D0DBBDE8FF8F10B50246002112E001EB05
:101200008110474B185C1378984209D1507801EB54
:101210008113434C23445B78984201D1084610BDAA
:10122000481C81B20029EAD00020F8E710B5024638
:10123000002114E001EB01103A4B13F81000137871
:1012400098420AD1507801EB0113364C04EB43036A
:101250005B78984201D1084610BD481C81B2B22982
:10126000E8D30020F8E72DE9F04F04460F46154675
:101270009846A3464FF0000900262FE0099810F881
:1012800006904FF0000A23E009F0800038B12648AC
:10129000008882B239462046FFF74BFD06E022481F
:1012A000808882B239462046FFF743FD4FEA496005
:1012B0004FEA1069601C84B2A4EB0B00A84203D172
:1012C0005C46781C87B206E00AF1010000F0FF0AD4
:1012D000BAF1080FD8DB00BF701C86B205FB08F01E
:1012E000C11700EB5171B6EBE10FC7DBBDE8F08F22
:1012F0002DE9F04F0546894692469B46A8460026B2
:10130000BBF1000F3CD1002437E00AEB0A1005497D
:1013100001EB4000801C065D002729E0000001A0D1
:1013200088EC0100C9EC01001400001006F08000F8
:1013300038B1FD48008882B249462846FFF7F9FCDB
:1013400006E0F948808882B249462846FFF7F1FC5A
:101350007006060E681C85B2A5EB0800102805D1A2
:10136000454609F101001FFA80F903E0781CC7B275
:10137000082FDBDB00BF601CC4B2202CC5DB33E0D0
:1013800000242FE00AEB0A10E84901EB4000801C22
:10139000065D002721E006F0800038B1E248808831
:1013A00082B249462846FFF7C4FC06E0DE480088C2
:1013B00082B249462846FFF7BCFC7006060E681C40
:1013C00085B2A5EB0800102805D1454609F10100BA
:1013D0001FFA80F903E0781CC7B2082FDBDB00BFDF
:1013E000601CC4B2202CCDDBBDE8F08F2DE9F04F9E
:1013F0000546894692469B46A8460026BBF1000F4B
:1014000033D100242EE00AEB8A10C9490844801C1D
:10141000065D002721E006F0800038B1C248008850
:1014200082B249462846FFF784FC06E0BE48808821
:1014300082B249462846FFF77CFC7006060E681CFF
:1014400085B2A5EB0800182805D1454609F1010031
:101450001FFA80F903E0781CC7B2082FDBDB00BF5E
:10146000601CC4B23F2CCEDB32E000242EE00AEB3D
:101470008A10AF490844801C065D002721E006F071
:10148000800038B1A848808882B249462846FFF7D4
:1014900050FC06E0A448008882B249462846FFF77F
:1014A00048FC7006060E681C85B2A5EB08001828DB
:1014B00005D1454609F101001FFA80F903E0781CC7
:1014C000C7B2082FDBDB00BF601CC4B23F2CCEDBF1
:1014D000BDE8F08FF0B504460D4616461F463B4664
:1014E000224631462846FFF781FF1820F0BDF0B5AF
:1014F00004460D4616461F463B46224631462846C0
:10150000FFF7F6FE1220F0BD2DE9F84306460D4622
:1015100014461F464FF00008C14654E0207800B939
:1015200052E006EB090086B2207880281ADD06F129
:101530001800B0F5F07F07DD002605F1160085B232
:10154000B5F5887F00DD00252046FFF754FE1FFA21
:1015500080F83B462A4631464046FFF7BBFF8146AE
:10156000A41C2FE020780D280AD105F1160085B2C1
:10157000B5F5887F00DD0025641C4FF0000922E0EE
:1015800020780A2804D10026641C4FF000091AE0D4
:1015900006F10C00B0F5F07F07DD002605F10C0028
:1015A00085B2B5F5887F00DD00255F48808880B270
:1015B00000905D48008883B2227829463046FFF7C4
:1015C00007FD641C00BFA9E700BFBDE8F8832DE953
:1015D000F84305468846144600263FE0207800B9C7
:1015E0003DE02078302807DB2078392804DC20789B
:1015F00030381FFA80F919E020782E2802D14FF0F8
:101600000A0913E020782D2802D14FF00B090DE0D4
:101610002078202802D14FF00C0907E020785628C6
:1016200002D14FF00D0901E04FF00E094FEA4917C2
:10163000F81707EB5070C01000EBC001C1EB801031
:101640003C490844A919009088B23723202241461A
:10165000FFF709FE641C06F1200086B2BEE700BF5A
:10166000BDE8F8832DE9F84306460D4614461F46AB
:101670004FF00008C14656E0207800B95CE006EB68
:10168000090086B2207880281ADD06F11000B0F536
:10169000F07F07DD002605F1100085B2B5F5887FE3
:1016A00000DD00252046FFF7C1FD1FFA80F83B460C
:1016B0002A4631464046FFF71AFF8146A41C31E016
:1016C00020780D280AD105F1100085B2B5F5887F84
:1016D00000DD0025641C4FF0000924E020780A2872
:1016E00004D10026641C4FF000091CE006F108003C
:1016F000B0F5F07F07DD002605F1100085B2B5F5E5
:10170000887F00DD00250848808880B20090064868
:10171000008883B2227829463046FFF759FC641CC2
:101720004FF00A0900BFA7E714000010C9EC010040
:1017300088EC01007D25020000BFBDE8F8832DE99B
:10174000F84306460D4614461F464FF00008C146B2
:1017500056E0207800B954E006EB090086B2207804
:1017600080281ADD06F11000B0F5F07F07DD0026B5
:1017700005F1100085B2B5F5887F00DD0025204613
:10178000FFF754FD1FFA80F83B462A463146404693
:10179000FFF7ADFE8146A41C31E020780D280AD168
:1017A00005F1100085B2B5F5887F00DD0025641CC9
:1017B0004FF0000924E020780A2804D10026641C98
:1017C0004FF000091CE006F10800B0F5F07F07DDDE
:1017D000002605F1080085B2B5F5887F00DD0025FB
:1017E0005248808880B200905048008883B22278A6
:1017F00029463046FFF71CFC641C4FF0080900BF67
:10180000A7E700BFBDE8F883F0B504461D46062AE9
:1018100000DD0A2202B90122052900DD05219142DD
:1018200000DD1146002004E02026414F3E54461CB6
:10183000F0B20C28F8D310460FE00A26B4FBF6F7F6
:1018400006FB17463036471EDFF8E4C00CF8076089
:101850000A26B4FBF6F4461EF0B20028EDDC89B18E
:101860001346084605E05E1E314FBE5DFE545E1E07
:10187000F3B2061EA0F10107F8B2F4D12E262C4FC8
:10188000FE5402E020262A4FBE54A5B900200EE0E7
:10189000274E365C302E07D1254F461CBE5D2E2EBE
:1018A00002D020263E5400E004E0461CF0B2561E52
:1018B0008642EDDC00BF561CF2B2104604E0002662
:1018C0001B4F3E54461CF0B20C28F8D3F0BD30B587
:1018D000184A00210BE08478457844EA052405780D
:1018E00044EA054308C2401C401C401C491CB1F599
:1018F000FF3FF0D330BD70B50E4B002112E0002247
:101900000CE005782D04467845EA0625867845EAF8
:10191000060410C3401C401C401C521CB2F5F07F52
:10192000EFD3491CB1F5887FE9D370BD14000010D6
:10193000040F0010000001A03EB5054642F66920E4
:1019400016F0E1FC00241DE0F74841000322CDE938
:1019500000210290601C00EB4000042202EB00100A
:10196000062202FB040304EB4400042202EB0010F5
:10197000062202FB04014FF4EE724FF4BE7016F023
:1019800097F9641C052CDFD33EBD10B542F66920E3
:10199000E64948604FF6FF7008600023E4A2F12199
:1019A0005420FFF75FFE0023E3A2F121A420FFF7FC
:1019B00059FE10BD70B5054642F66920DB49486006
:1019C0004FF6FF700860A5B900240FE004EB440156
:1019D000DB4B03EB410204EB8401542303EB0110C6
:1019E0000023F121FFF73EFE601CC4B2052CEDDBA5
:1019F00014E0002410E0611D01EB4101D04B03EB2A
:101A0000410204EB8401542303EB01100023F12174
:101A1000FFF728FE601CC4B2052CECDB70BD10B5CE
:101A200042F66920C14948604FF6FF700860002304
:101A3000C4A2F1215420FFF715FE10BD10B542F6E7
:101A40006920BA4948604FF6FF7008600023C0A2C1
:101A5000F1215420FFF706FE10BD10B50446002CFE
:101A600039D14FF6FF70B149086042F669204860ED
:101A70000023B8A2E7215420FFF7F4FD0023B7A20A
:101A8000FB215420FFF7EEFD0023B2A2E721A420A2
:101A9000FFF7E8FD0023B3A2FB21A420FFF7E2FD3E
:101AA0000023B2A2E721F420FFF7DCFD0023ADA262
:101AB000FB21F420FFF7D6FD0023ACA2E7214FF471
:101AC000A270FFF7CFFD0023AAA2FB214FF4A27062
:101AD000FFF7C8FD2EE0012C2CD14FF6FF70934983
:101AE000086042F6692048600023A4A2E721542040
:101AF000FFF7B8FD0023A3A2FB215420FFF7B2FD9E
:101B00000023A2A2E721A420FFF7ACFD0023A1A29D
:101B1000FB21A420FFF7A6FD0023A0A2E7214FF49C
:101B2000CA70FFF79FFD00239EA2FB214FF4CA70ED
:101B3000FFF798FD10BD10B54FF6FF707B490860A8
:101B400042F669204860002398A2E7215420FFF75D
:101B500089FD002397A2FB215420FFF783FD00237A
:101B600096A2F1214FF4A270FFF77CFD002396A20C
:101B7000F1214FF4CA70FFF775FD10BD10B5044692
:101B80000CB1012C33D14FF6FF706849086042F662
:101B90006920486000238FA2F1215420FFF762FDE5
:101BA00000238FA2E721A420FFF75CFD00238EA273
:101BB000FB21A420FFF756FD00238DA2E721F4208E
:101BC000FFF750FD002388A2FB21F420FFF74AFD18
:101BD00000237AA2F1214FF4A270FFF743FD002306
:101BE00079A2F1214FF4CA70FFF73CFD26E04FF6D1
:101BF000FF704E49086042F669204860002375A2D4
:101C0000F1215420FFF72EFD002377A2E721A42025
:101C1000FFF728FD002378A2FB21A420FFF722FD77
:101C2000002366A2F1214FF4A270FFF71BFD0023F1
:101C300065A2F1214FF4CA70FFF714FD10BD10B575
:101C40000446002C39D14FF6FF703849086042F63F
:101C50006920486000233FA2E7215420FFF702FDDE
:101C600000233EA2FB215420FFF7FCFC002339A2F5
:101C7000E721A420FFF7F6FC00233AA2FB21A420D1
:101C8000FFF7F0FC002339A2E721F420FFF7EAFC7C
:101C9000002334A2FB21F420FFF7E4FC002333A24D
:101CA000E7214FF4A270FFF7DDFC002331A2FB21F6
:101CB0004FF4A270FFF7D6FC34E0012C32D14FF67E
:101CC000FF701A49086042F66920486000232BA281
:101CD000E7215420FFF7C6FC00232AA2FB21542051
:101CE000FFF7C0FC002321A2E721A420FFF7BAFCE4
:101CF00000231CA2FB21A420FFF7B4FC002340A278
:101D0000F121F420FFF7AEFC002324A2E7214FF4D9
:101D1000CA70FFF7A7FC002322A2FB214FF4CA7070
:101D2000FFF7A0FC10BD0000404040001400001070
:101D3000206DCEA92020000020CEA92000000000A8
:101D40003BB1020020E7A1AEE8AEA42000000000F5
:101D50002A310000E6B58BE9878F0000E698BEE7E0
:101D6000A4BA0000E8AEBEE7BDAE0000E7B3BBE733
:101D7000BB9F0000E4BFA1E681AF0000E69687E4C8
:101D8000BBB60000E7AEA1E790860000E4BF9DE58A
:101D9000AD980000E695B0E68DAE0000E69BB4E598
:101DA000A49A000020322F3200000000E6B885E936
:101DB00099A40000E8A1A8E6A0BC0000E4B88AE469
:101DC000B880E9A1B5000000E4B88BE4B880E9A1CF
:101DD000B5000000E588A0E999A4E8A18C00000006
:101DE000E7BABFE680A70000E887AAE58AA8000056
:101DF000E5AFB9E695B00000E5A48DE588B6000032
:101E0000E5B7A5E585B7000010B54FF6FF70F849B6
:101E1000086042F6692048600023AFF2C802E7215B
:101E20005420FFF71FFC0023AFF2D002FB21542007
:101E3000FFF718FC0023AFF2E402E721A420FFF72C
:101E400011FC0023AFF2E402FB21A420FFF70AFCFF
:101E50000023AFF2E802E721F420FFF703FC0023A0
:101E6000AFF20012FB21F420FFF7FCFB0023AFF2DE
:101E70000412E7214FF4A270FFF7F4FB0023AFF246
:101E80000C12FB214FF4A270FFF7ECFB10BD38B52C
:101E900004460020182340F2E11201460090FFF7AB
:101EA00000F80020D24948604FF6FF700860002318
:101EB000D0A203210420FFF7D5FB38BD08B543F6B7
:101EC000AC1016F020FA0520FD234FF4BA725C2105
:101ED0000090042015F0BAFF08BD10B504464AF280
:101EE000FF5016F010FAC54816F01EFA1823C0224B
:101EF0000021084615F07EFF002016F004FA0220AB
:101F000016F050FABE4901EB04100422002115F02E
:101F100091FE10BD10B50020FFF7DFFFFFF7CEFFE9
:101F200010BD7CB50546002016F03CFA42F669204B
:101F300016F0DEF96FF07F4016F0E5F900242EE090
:101F40004FF4BE70ADF8000004EB4400042101EB37
:101F50000010062101FB040000B2ADF802004FF4AE
:101F6000EE70ADF80400601C00EB4000042101EBB2
:101F70000010062101FB040000B2ADF80600C4EB1E
:101F8000C401A04A02EB81019F4A1278C2EBC2024F
:101F900001EB42000E22694615F060FE641C052C20
:101FA000CED37CBD10B5FFF7B5FF0020FFF7C4FC12
:101FB0000020FFF7B6FF00241FE0032C0ED2934849
:101FC00000EB0412601C00EB40001A2303EBC0007E
:101FD00081B200230420FFF745FB0DE08B4800EBA6
:101FE0000412A01E00EB40001A2303EBC00081B2D4
:101FF0000023B820FFF736FB641C062CDDD310BD90
:1020000008B543F6AC10BE2340F2DF1270210090F9
:102010000020FEF746FF08BD10B50020FFF737FF90
:10202000FFF7EEFF10BD08B543F6AC10A02340F259
:10203000DF12562100900020FEF733FF43F6AC106C
:10204000E32340F2DF12C12100900020FEF729FFB8
:1020500008BD10B50020FFF71AFFFFF7E4FF10BD21
:1020600008B543F6AC10A02340F2DF1260210090C7
:102070000020FEF716FF08BD10B50020FFF707FF90
:10208000FFF7EEFF10BD10B5FFF7F6FF4FF6FF703C
:102090005749086040F23F20486000235C4A042111
:1020A0001846FFF7DFFA4FF6FF70514908604FF40A
:1020B00000004860002357A21A210420FFF7D2FA3B
:1020C000002357A232212C20FFF7CCFA002357A27D
:1020D00032219020FFF7C6FA002357A23221F420C4
:1020E000FFF7C0FA002356A232214FF4AC70FFF77D
:1020F000B9FA002354A232214FF4DE70FFF7B2FA8E
:102100000020FFF7AAFC10BD704700B5FFF7FCFFE9
:1021100000BD10B50120FFF70FFC0520FFF7DDFE25
:102120004FF6FF7016F0EFF84FF4000016F0E0F8ED
:10213000002426E004F0010088B9444901EB441171
:10214000314B1B7801EB0310611C490801EB410185
:10215000C90001F11A02042115F06CFD10E03B49A1
:1021600001EB4411284B1B7801EB0310611E490859
:1021700001EB4101C90001F11A02B82115F05AFD25
:10218000641C0C2CD6D3002413E0C4EB0411304B98
:1021900003EB41011C4B1B78C3EB0313C818A11DB3
:1021A00001EB4101C90001F11A02042115F042FDC1
:1021B000641C022CE9D310BD70B50120FFF7BCFBF5
:1021C0000120FFF78AFE4FF6FF7016F09CF84FF4DF
:1021D000000016F08DF81F48807800EB80011D4844
:1021E000001D50F831001C490D5C00247CE000000B
:1021F000140000105A4374656B00000054F802008C
:102200006BAB0200DFAA020014110010F29C020066
:102210001DAC0200E696B9E5BC8F203A0000000034
:10222000E9A291E78E875B487A5D0000E794B5E507
:10223000B9B35B565D00000043705B465D00000073
:10224000445B205D00000000434D50002F5502000C
:10225000EF5A0200500F00108054020004F00100F9
:1022600000BBFC49897801EB8103FA49091D51F84B
:1022700033104D235943F84B03EB8101C4EBC403E6
:1022800001EB8301F54B1B78C3EBC30301EB430068
:10229000610801EB4101C90001F11A02042115F0A6
:1022A000C9FC20E0EB49897801EB8103E949091D6C
:1022B00051F833104D235943E74B03EB8101C4EB35
:1022C000C40301EB8301E54B1B78C3EBC30301EBB4
:1022D0004300611E01EB4101C9001A2303EB5102C7
:1022E000B82115F0A7FC641CAC42B7D370BD2DE932
:1022F000F843044620461BF079FD05460022D84BE2
:102300001BF0C2FE0AD2D74C41F29C30ADF800005F
:1023100002208DF802008DF803007EE020461BF0BD
:1023200065FD05460022D04B1BF0AEFE14D82046BA
:102330001BF05CFD05460022CC4B1BF07FFB0746E3
:102340001BF010FD80B2ADF8000002208DF80200F5
:1023500003208DF8030060E020461BF047FD054692
:102360000022C34B1BF090FE14D820461BF03EFD0C
:1023700005460022BF4B1BF061FB07461BF0F2FC39
:1023800080B2ADF8000001208DF8020002208DF827
:10239000030042E020461BF029FD05460022B64B13
:1023A0001BF072FE13D820461BF020FD05460022CC
:1023B000B24B1BF043FB07461BF0D4FC80B2ADF8D8
:1023C000000002208DF802008DF8030025E0204671
:1023D0001BF00CFD05460022A44B1BF055FE14D843
:1023E00020461BF003FD05460022A54B1BF026FBF3
:1023F00007461BF0B7FC80B2ADF8000003208DF853
:10240000020002208DF8030007E0A0B2ADF8000042
:1024100001208DF802008DF803000098BDE8F883D4
:1024200038B50446974815F06EFF4FF4000015F0DC
:102430005FFF954815F078FF002015F0B3FF934932
:102440000023042208680321FFF7DEF990A19148D8
:1024500012F087FB04EB8400800000F12802502179
:102460008C4815F0E7FB894840684FF6FF718842B9
:1024700006D1884888A10A6802608988818019E0AD
:1024800082494868FFF733FF0090724A927802EB66
:102490008203704A121D52F83320C2EBC202804BF5
:1024A0001A44804B1B78D15CBDF800000023042245
:1024B000FFF7AAF97C48008802280AD19DF803009A
:1024C00000EB4000794A02EB4001724812F049FBF0
:1024D0000AE07548008818B173480088012803D1C4
:1024E00073A16C4812F03DFB04EB8400800000F106
:1024F0002802A021674815F09DFB64490889002344
:1025000004220121FFF780F96AA1624812F029FB39
:10251000DC2254215F4815F08DFB38BD2DE9F843CE
:10252000044620461BF062FC05460022524B1BF07D
:10253000ABFD13D820461BF059FC054600224F4B3B
:102540001BF07CFA07461BF00DFC80B2ADF80000D2
:1025500002208DF802008DF8030025E020461BF0D4
:1025600045FC05460022544B1BF08EFD13D8204637
:102570001BF03CFC05460022414B1BF05FFA07466E
:102580001BF0F0FB80B2ADF8000002208DF80200D5
:102590008DF8030008E0A0B2ADF8000003208DF82C
:1025A000020001208DF803000098BDE8F88338B5DB
:1025B0000120FFF7C1F90620FFF78FFC6FF07F4085
:1025C00015F0A1FE304815F0AFFE00240FE03B4AA5
:1025D00002EB4412214B1B7802EB031004EB840244
:1025E000642303EB0211282215F024FB641C032C46
:1025F000EDD3334815F098FE00241EE0601C00EB7C
:1026000080008000283002B202231421601C15F0E3
:1026100069FA611C01EB8101890001F12802611C4A
:1026200001EB81030B49091D51F83310254B03EBD6
:10263000C100322115F0FEFA641C06484078A04221
:10264000DCD8104815F05FFE0F4815F06DFE002431
:102650009EE00000500F00102B5B020014110010D0
:1026600084D7874180F0FA02D01263410088C340CA
:1026700080842E4100408F40006AF840000059409D
:1026800000002440FFFF800054F80200C802001040
:102690006B560000040F00105550504552000000CA
:1026A000B8B20200C7000010C00E001047B0020010
:1026B0006D4120002073000000409F40CF54020075
:1026C00080A703007B950200611C01EB8102FD499C
:1026D00001EBC2010023042248680321FFF794F8AC
:1026E000AFF25401F84812F03CFA601C00EB800095
:1026F000800000F128025021F34815F09BFA611C7C
:1027000001EB8102EF4901EBC2018868FFF706FF88
:1027100000909DF80210BDF8000000230422FFF78E
:1027200073F8601C00EB8001E64850F8310038B1C6
:10273000601C00EB8001E34850F83100012804D10F
:10274000E249E14812F00DFA12E0601C00EB800152
:10275000DC4850F8310002280AD19DF80300DB4A1A
:10276000103A02EB001000F10801D74812F0F9F915
:10277000601C00EB8000800000F12802A021D248FC
:1027800015F058FA64221146EA2015F097F9641CF6
:10279000CC48001F4078A04296D8CD4815F0C4FD23
:1027A00038BD2DE9F843044620461BF01FFB0546C3
:1027B0000022C84B1BF068FC0BD2C74C41F29C3086
:1027C000ADF8000002208DF8020001208DF8030012
:1027D00080E020461BF00AFB05460022BF4B1BF0A1
:1027E00053FC14D820461BF001FB05460022BC4BCD
:1027F0001BF024F907461BF0B5FA80B2ADF80000D3
:1028000002208DF8020001208DF8030062E02046CE
:102810001BF0ECFA05460022B24B1BF035FC14D835
:1028200020461BF0E3FA05460022AF4B1BF006F9E9
:1028300007461BF097FA80B2ADF8000003208DF830
:10284000020001208DF8030044E020461BF0CEFA80
:1028500005460022A54B1BF017FC14D820461BF0A0
:10286000C5FA05460022A24B1BF0E8F807461BF00C
:1028700079FA80B2ADF8000001208DF80200002046
:102880008DF8030026E020461BF0B0FA0546002232
:10289000934B1BF0F9FB14D820461BF0A7FA054612
:1028A0000022944B1BF0CAF807461BF05BFA80B27B
:1028B000ADF8000002208DF8020000208DF8030022
:1028C00008E0A0B2ADF8000003208DF8020000205F
:1028D0008DF803000098BDE8F88338B50120FFF7B4
:1028E0002BF80020FFF7F9FA6FF07F4015F00BFD91
:1028F0004FF4000015F0FCFC002446E004F0010059
:1029000008BB7049091F897801EB81036D4951F8B3
:1029100033104D235943784B03EB8101C4EBC403BF
:1029200001EB8301754B1B78C3EBC30301EB430041
:10293000611C490801EB4101C90001F11A0204219F
:1029400015F078F920E05F49091F897801EB8103D0
:102950005C4951F833104D235943674B03EB810118
:10296000C4EBC40301EB8301644B1B78C3EBC303CB
:1029700001EB4300611E490801EB4101C90001F16F
:102980001A02B82115F056F9641C0B2CB6D36FF05F
:102990007F4015F0B8FC4B48001F4378827858A15F
:1029A000494811F081FF1A226421474815F042F985
:1029B0004449091F897801EB8102424951F83210DC
:1029C000514A02EBC1001A224FF48C7115F032F912
:1029D0003C48001F807800EB80013A4850F83100F5
:1029E00005286CD2DFE800F003FCFBFAF90035495A
:1029F000091F897801EB8102324901EBC2010023F2
:102A0000042248680321FEF7FFFEAFF27C312E4816
:102A100012F0A7F8322264212B4815F00BF929484F
:102A2000001F807800EB8001264800EBC100C068E1
:102A3000B8B12449091F897801EB8102214901EBD2
:102A4000C20100230422C8680121FEF7DDFE2FA188
:102A50001D4812F086F84A2264211B4815F0EAF856
:102A600008E0264909782A4A02EBC1004A2264217B
:102A700015F0E0F82148C08B10B31248001F807891
:102A800000EB80010F4800EBC1008069C8B10D4820
:102A9000001F807800EB80010A4800EBC1008069CC
:102AA00009283AD80749091F897801EB81020549AD
:102AB00001EBC20101236222886964212AE0B0E3AC
:102AC00035E02AE0540F0010040F0010D3950200E7
:102AD00054F8020084D7874180F0FA02D012634193
:102AE0000088C34080842E4100408F40006AF84037
:102AF00000005940000024402F6102001411001012
:102B000025642F25640000007B95020073000000FF
:102B10006B95020014F0E6FF34E0FA490978FA4AAE
:102B200002EBC1006222642115F084F82AE0F74824
:102B3000807800EB8001F548001D00EBC100806942
:102B4000B8B1F249897801EB8102F049091D01EB26
:102B5000C2010023042288690221FEF755FEECA180
:102B6000EC4811F0FEFF62226421EA4815F062F899
:102B700008E0E4490978E44A02EBC10062226421DA
:102B800015F058F8E149897801EB8102DF49091D08
:102B900001EBC2018868FFF7C1FC00909DF80210AC
:102BA000BDF8000000230422FEF72EFEDA49D948C2
:102BB00011F0D7FF32224FF48C71D64815F03AF855
:102BC000D248807800EB8001D048001D00EBC100A6
:102BD000006918B3CD49897803E021E37FE2A9E1D8
:102BE00058E001EB8102C949091D01EBC2010869E6
:102BF000FFF794FC00909DF80210BDF80000002340
:102C00000422FEF701FEC449C24811F0AAFF4A227D
:102C10004FF48C71BF4815F00DF809E0B9490978F7
:102C2000B94A02EBC1004A224FF48C7115F002F848
:102C30004FF6FF7015F067FB4FF4000015F058FBDE
:102C4000002015F0AFFBB54815F06EFB7822282167
:102C5000B3A014F0EFFF7822F021AFF2CC5014F0C3
:102C6000E9FFAA222821AFA014F0E4FFAA22F02154
:102C7000A7A014F0DFFFAC4815F056FBDC2234218E
:102C8000AAA014F0D7FFDC22B421AFF2801014F018
:102C9000D1FFC7E29D49897801EB81029B49091D5B
:102CA00001EBC2010023042248680321FEF7ACFDBA
:102CB000AFF22461974811F054FF32226421954805
:102CC00014F0B8FF9148807800EB80018F48001D18
:102CD00000EBC100C068C0B18C49897801EB81026A
:102CE0008A49091D01EBC20100230422C8680121A1
:102CF000FEF78AFDAFF2EC11864811F032FF4A224E
:102D00006421844814F096FF08E07E490978884AD7
:102D100002EBC1004A22642114F08CFF7B498978C0
:102D200001EB81027949091D01EBC2018868FFF7B7
:102D3000F5FB00909DF80210BDF80000002304226E
:102D4000FEF762FD7449734811F00BFF32224FF415
:102D50008C71704814F06EFF6C48807800EB800135
:102D60006A48001D00EBC1000069F0B1674989782D
:102D700001EB81026549091D01EBC2010869FFF7FA
:102D8000CDFB00909DF80210BDF800000023042246
:102D9000FEF73AFD60495F4811F0E3FE4A224FF426
:102DA0008C715C4814F046FF09E056490978564A90
:102DB00002EBC1004A224FF48C7114F03BFF5148E2
:102DC000C08B68B35148807800EB80014F48001DEC
:102DD00000EBC1008069C8B14C48807800EB8001ED
:102DE0004A48001D00EBC100806909280ED84749F8
:102DF000897801EB81024549091D01EBC2010123DC
:102E000062228869642114F06DFE49E03D49097829
:102E10003D4A02EBC1006222642114F00BFF3FE047
:102E20003A48807800EB80013848001D00EBC10073
:102E3000806960B33548807800EB80013348001D1D
:102E400000EBC1008069C82809D9C8212F488078C3
:102E500000EB80022D48001D00EBC20081612B4970
:102E6000897801EB81022949091D01EBC201002388
:102E7000032288690121FEF7C7FC25A1254811F02E
:102E800070FE62226421234814F0D4FE08E01D493C
:102E900009781D4A02EBC1006222642114F0CAFEC7
:102EA0004FF6FF7015F02FFA4FF4000015F020FADE
:102EB000002015F077FA194815F036FA7822282103
:102EC00017A014F0B7FE7822F021AFF63C0014F002
:102ED000B1FEAA22282113A014F0ACFEAA22F021F0
:102EE0000BA014F0A7FE104815F01EFADC223421C6
:102EF0000EA014F09FFEDC22B421AFF2F03014F0EB
:102F000099FE8FE1141100107B940200500F001005
:102F10006D410000040F0010D3950200B45203006D
:102F2000563A0000493A000054F8020054203A0092
:102F30006B950200F749897801EB8102F549091D7B
:102F400001EBC2010023042248680321FEF75CFC68
:102F5000AFF6C401F04811F004FE32226421EE48BD
:102F600014F068FEEB48807800EB8001E948001D12
:102F700000EBC100C068C0B1E649897801EB81026D
:102F8000E449091D01EBC20100230422C8680121A4
:102F9000FEF73AFCAFF28C41DF4811F0E2FD4A2225
:102FA0006421DD4814F046FE08E0DC490978DC4A7B
:102FB00002EBC1004A22642114F03CFED54880781F
:102FC00000EB8001D348001D00EBC100806820B3F6
:102FD000D049897801EB8102CE49091D01EBC2017C
:102FE0008868FFF784F900909DF80210BDF8000092
:102FF00000230422FEF708FC9DF80300C94A02EBF7
:10300000001000F10801C44811F0ABFD32224FF46A
:103010008C71C14814F00EFE09E0C0490978C24A1B
:1030200002EBC10032224FF48C7114F003FEB94957
:10303000897801EB8102B749091D01EBC2010869DA
:10304000FFF755F900909DF80210BDF8000000232D
:103050000422FEF7D9FB9DF80300B24A02EB0010F0
:1030600000F10801AC4811F07CFD4A224FF48C714C
:10307000A94814F0DFFD4FF6FF7015F044F94FF446
:10308000000015F035F9002015F08CF9A74815F06F
:103090004BF978222821AFF2781014F0CBFD78227A
:1030A000F021AFF6142014F0C5FDAA222821A0A01B
:1030B00014F0C0FDAA22F0219EA014F0BBFD9E4892
:1030C00015F032F9DC223421AFF2A01014F0B2FD79
:1030D000DC22B421AFF2CC5014F0ACFDA2E08D485C
:1030E000807800EB80018B48001D00EBC10093A1AC
:1030F0000269894811F0D8FB32226421864814F015
:1031000099FD8448807800EB80018248001D00EB27
:10311000C1008068642812D37E48807800EB80016B
:103120007C48001D00EBC10084A182687A4811F040
:10313000BBFB4A226421784814F07CFD08E0774903
:103140000978794A02EBC1004A22642114F072FD29
:103150007048807800EB80016E48001D00EBC100D4
:10316000006A18B36B49897801EB81026949091D2E
:1031700001EBC201086AFFF714FB00909DF80210F2
:10318000BDF8000000230422FEF73EFB9DF803007B
:1031900000EB40006B4A81185F4811F0E2FC3222DC
:1031A0004FF48C715C4814F045FD05E032224FF479
:1031B0008C7165A014F03EFD4FF6FF7015F0A3F87A
:1031C0004FF4000015F094F8002015F0EBF8574884
:1031D00015F0AAF878222821AFF2BC2014F02AFDBD
:1031E0007822F021AFF6583014F024FDAA222821CD
:1031F00057A014F01FFDAA22F02156A014F01AFDCA
:103200004D4815F091F8DC223421AFF2E02014F0A3
:1032100011FDDC22B421AFF20C7014F00BFD01E0C3
:1032200000E000BF00BF38BD10B50120FEF784FBF1
:103230000320FEF752FE4FF6FF7015F064F84FF4CE
:10324000000015F055F800242CE004F00100A0B9AE
:10325000C4EB0411404B03EB4101304B1B78C3EB33
:103260000313C818611C490801EB4101C90001F1B1
:103270001A02042114F0DEFC13E0C4EB0411364BF7
:1032800003EB4101254B1B78C3EB0313C818611EE8
:10329000490801EB4101C90001F11A02B82114F0FB
:1032A000C9FC641C0F2CD0D310BD38B50446012CCA
:1032B00000D100E0002005461DB1FF2027494860ED
:1032C00003E04FF40000254948602448808880B21C
:1032D0004823C022302100905420FDF7E2FD1F4812
:1032E000808880B200901D48008883B21C48007816
:1032F0003130C2B230216C20FDF76AFE022C01D1C0
:10330000012000E0002005461DB1FF201349486060
:103310002CE027E0500F0010040F001014110010D3
:103320006B950200C39502007B940200B452030027
:10333000523A0000CEA9000054F80200253364255B
:103340002500000077B102004E4F4E4500000000FE
:10335000433A00006E460000B597020014000010CA
:10336000480800104FF40000FE494860FE49097803
:1033700001EB8102FC49891C01EB8201C889002311
:1033800004221946FEF740FAF648808880B25E2390
:10339000C0224A2100905420FDF783FD0023F34A08
:1033A0004A215C20FEF75EF90023F1A24A218E201B
:1033B000FEF758F9032C01D1012000E0002005465A
:1033C0001DB1FF20E749486003E04FF40000E549E4
:1033D0004860E549097801EB8102E349891C01EB6A
:1033E0008201088A002304221946FEF70DFADD48FF
:1033F000808880B27623C022622100905420FDF79D
:1034000050FD0023D94A62215C20FEF72BF90023EE
:10341000D7A262218E20FEF725F9042C01D10120CC
:1034200000E0002005461DB1FF20CE49486003E0C2
:103430004FF40000CB494860CE48006811281DD1E8
:10344000C848808880B246234FF4C872302100906B
:103450004FF48670FDF725FDC348007800EB80012E
:10346000C148801C00EB81004089C34901EB001278
:10347000002332214FF48670FEF7F4F8052C01D1B9
:10348000012000E0002005461DB1FF20B54948603D
:1034900003E04FF40000B3494860B349097801EBF9
:1034A0008102B149891C01EB820148880023042272
:1034B0001946FEF7A9F9AB48808880B25E234FF425
:1034C000C8724A2100904FF48470FDF7EAFC002393
:1034D000A64A4A214FF48D70FEF7C4F80023A7A234
:1034E0004A214FF4A070FEF7BDF8062C01D101204F
:1034F00000E0002005461DB1FF209A49486003E026
:103500004FF40000974948609749097801EB810220
:103510009549891C01EB820188880023042201213E
:10352000FEF772F90023914A62214FF48870FEF78A
:1035300099F80023AFF6846262214FF4A070FEF781
:1035400091F838BD7CB506460D460120FEF7F4F92A
:10355000022014F027FF6FF07F4014F0D4FE002407
:10356000A0E04FF4BE70ADF8000004EB440004216D
:1035700001EB0010062101FB040000B2ADF80200CF
:103580004FF4EE70ADF80400601C00EB4000042125
:1035900001EB0010062101FB040000B2ADF80600AB
:1035A000052E7CD2DFE806F0031B334B6300C5EB2E
:1035B000C50101EB8101724A02EB8101714A127867
:1035C000C2EBC20202EB820201EB4201C4EBC40275
:1035D00001EB42000E22694614F040FB5FE0C5EBB0
:1035E000C50101EB8101684A02EB8101654A12784D
:1035F000C2EBC20202EB820201EB4201C4EBC40245
:1036000001EB42000E22694614F028FB47E0C5EBAF
:10361000C50101EB81015D4A02EB8101594A127833
:10362000C2EBC20202EB820201EB4201C4EBC40214
:1036300001EB42000E22694614F010FB2FE0C5EBAF
:10364000C50101EB8101524A02EB81014D4A12781A
:10365000C2EBC20202EB820201EB4201C4EBC402E4
:1036600001EB42000E22694614F0F8FA17E0C5EBB0
:10367000C50101EB8101474A02EB8101414A127801
:10368000C2EBC20202EB820201EB4201C4EBC402B4
:1036900001EB42000E22694614F0E0FA00BF00BFC1
:1036A000601CC4B2052CFFF65CAF7CBDF8B50546C6
:1036B0003949897801EB81023749091D51F83210E7
:1036C000364A515C481C00EBD071C1F34706012417
:1036D00038E0AC4203D1FF2014F015FE03E04FF4B4
:1036E000000014F010FE04F00100A0B1601E0122E1
:1036F00002EB500000EB4000C00000F11803601E18
:1037000000EB4000C000182202EB5001B4225A2006
:1037100014F070FB15E0601E012202EB500000EB7C
:103720004000C00000F11803601E400800EB40009C
:10373000C00000F118014FF4B7724FF48A7014F012
:1037400059FB641C1448807800EB80011248001D6E
:1037500050F831001149085C401CA042B9D8022041
:103760001EE000001400001048080010040F0010B4
:103770004DCEA900EC00001024A20200205600004B
:10378000FF650200141100109372020023790200F9
:10379000E78702002F8B0200500F001080540200B8
:1037A00014F000FE6FF07F4014F0ADFDFB4843784D
:1037B0008278AFF6B441FA4811F076F81A22642103
:1037C000F74814F037FAF549897801EB8102F3499B
:1037D000091D51F83210F34A02EBC1001A224FF4CE
:1037E0008C7114F027FAED48807800EB8001EB48EB
:1037F000001D50F8310005287ED2DFE810F00500EA
:103800006B015A0391040205E449897801EB8102B6
:10381000E249091D01EBC20100230422486803218B
:10382000FDF7F2FFE0A1DE4811F09BF9322264219E
:10383000DB4814F0FFF9D948807800EB8001D748C5
:10384000001D00EBC100C068C0B1D449897801EB0C
:103850008102D249091D01EBC20100230422C8687C
:103860000121FDF7D1FFAFF65C51CD4811F079F998
:103870004A226421CA4814F0DDF908E0CB490978EE
:10388000CB4A02EBC1004A22642114F0D3F9C348A9
:10389000807800EB8001C148001D00EBC100406949
:1038A000C0B1BE49897801EB8102BC49091D01EB19
:1038B000C2010023042248690121FDF7A5FFAFF6EC
:1038C000B451B74811F04DF962226421B44814F0A4
:1038D000B1F908E0B5490978B64A02EBC1006222A5
:1038E000642114F0A7F9AD48807800EB8001AB4863
:1038F000001D00EBC10000E0FDE3C069C0B1A749B5
:10390000897801EB8102A549091D01EBC201002361
:103910000422C8690121FDF777FFAFF61061A048C6
:1039200011F01FF97A2264219D4814F083F908E010
:103930009E4909789F4A02EBC1007A22642114F063
:1039400079F99649897801EB81029449091D01EBC7
:10395000C2018868FEF7E2FD00909DF80210BDF8F4
:10396000000000230422FDF74FFF93498C4811F01B
:10397000F8F832224FF48C71894814F05BF98748CB
:10398000807800EB80018548001D00EBC1000069D4
:10399000F0B18249897801EB81028049091D01EB70
:1039A000C2010869FEF7BAFD00909DF80210BDF84B
:1039B000000000230422FDF727FF7F49784811F01B
:1039C000D0F84A224FF48C71754814F033F909E0AD
:1039D00076490978774A02EBC1004A224FF48C718C
:1039E00014F028F97148C08BC8B36C48807800EB9C
:1039F00080016A48001D00EBC1008069092809D9CF
:103A000009216648807800EB80026448001D00EBC5
:103A1000C20081616148807800EB80015F48001D31
:103A200000EBC1008069D8B15C48807800EB800170
:103A30005A48001D00EBC1008069092810D8574979
:103A4000897801EB81025549091D01EBC20101236F
:103A5000622288694FF48C7114F044F839E00AE06E
:103A600052490978534A02EBC10062224FF48C712B
:103A700014F0E0F82DE04948807800EB80014748D9
:103A8000001D00EBC1008069C8B14449897801EB91
:103A900081024249091D01EBC2010023032288690A
:103AA0000121FDF7B1FEAFF698313D4811F059F80C
:103AB00062224FF48C713A4814F0BCF809E03B499B
:103AC00009783C4A02EBC10062224FF48C7114F079
:103AD000B1F898E33149897801EB81022F49091D3A
:103AE00001EBC2010023042248680321FDF78CFE8C
:103AF0002DA12B4811F035F832226421284814F00A
:103B000099F82648807800EB80012448001D00EBDE
:103B1000C100C068B8B12149897801EB81021F4911
:103B2000091D01EBC20100230422C8680121FDF731
:103B30006BFE22A11A4811F014F84A226421184899
:103B400014F078F808E019490978194A02EBC10025
:103B50004A22642114F06EF81048807800EB80014E
:103B60000E48001D00EBC100406948B30B4989783D
:103B700001EB81020949091D01EBC2010023042266
:103B800048690121FDF740FE0CA1054810F0E9FF4E
:103B900062226421024814F04DF81BE0500F00101F
:103BA000040F00107B9502006B56000014110010EA
:103BB0006B9502007B940200D39502007300000015
:103BC000FFE7FE490978FE4A02EBC1006222642148
:103BD00014F030F8FB48807800EB8001F948001DB4
:103BE00000EBC100C069C0B1F649897801EB8102E0
:103BF000F449091D01EBC20100230422C869012117
:103C0000FDF702FEAFF24C01EF4810F0AAFF7A2256
:103C10006421ED4814F00EF808E0E8490978E84A14
:103C200002EBC1007A22642114F004F8E5488078A0
:103C300000EB8001E348001D00EBC100406A68B35F
:103C4000E048807800EB8001DE48001D00EBC100F9
:103C5000406A40F6AC51884208D3DA48807800EBDD
:103C60008002D848001D00EBC2004162D549897826
:103C700001EB8102D349091D01EBC201002304229B
:103C8000486A0121FDF7C0FDD0A1CF4810F069FFBF
:103C900092226421CC4813F0CDFF13E0C949897802
:103CA00001EB8102C749091D01EBC201496AC44AFF
:103CB00002EB0111C14A127801EBC2009222642189
:103CC00013F0B8FFBF49897801EB8102BD49091D96
:103CD00001EBC2018868FEF721FC00909DF80210FC
:103CE000BDF8000000230422FDF78EFDB849B64858
:103CF00010F037FF32224FF48C71B34813F09AFF63
:103D0000B048807800EB8001AE48001D00EBC10098
:103D10000069F0B1AB49897801EB8102A949091D1D
:103D200001EBC2010869FEF7F9FB00909DF8021053
:103D3000BDF8000000230422FDF766FDA449A24857
:103D400010F00FFF4A224FF48C719F4813F072FF5E
:103D500009E09A4909789A4A02EBC1004A224FF4D5
:103D60008C7113F067FF9548C08BC8B39548807875
:103D700000EB80019348001D00EBC1008069092819
:103D800009D909218F48807800EB80028D48001DF9
:103D900000EBC20081618B48807800EB800189488C
:103DA000001D00EBC1008069D8B18648807800EB27
:103DB00080018448001D00EBC1008069092810D8EB
:103DC0008049897801EB81027E49091D01EBC2011E
:103DD0000123622288694FF48C7113F083FE39E06D
:103DE0000AE076490978764A02EBC10062224FF474
:103DF0008C7113F01FFF2DE07248807800EB80017A
:103E00007048001D00EBC1008069C8B16D49897818
:103E100001EB81026B49091D01EBC2010023042261
:103E200088690121FDF7F0FCAFF61C71664810F0BF
:103E300098FE62224FF48C71634813F0FBFE09E098
:103E40005E4909785E4A02EBC10062224FF48C7130
:103E500013F0F0FE5B48807800EB80015948001DAC
:103E600000EBC100006AC8B15649897801EB8102B4
:103E70005449091D01EBC20100230322086A0221F3
:103E8000FDF7C2FCAFF2CC214F4810F06AFE7A2257
:103E90004FF48C714C4813F0CDFE09E04749097886
:103EA000474A02EBC1007A224FF48C7113F0C2FE34
:103EB000A9E14449897801EB81024249091D01EBDE
:103EC000C2010023042248680321FDF79DFCAFF2E4
:103ED00028313D4810F045FE322264213A4813F063
:103EE000A9FE3848807800EB80013648001D00EBC1
:103EF000C100C068C0B13349897801EB8102314902
:103F0000091D01EBC20100230422C8680121FDF74D
:103F10007BFCAFF258312C4810F023FE4A2264217A
:103F2000294813F087FE08E024490978294A02EB62
:103F3000C1004A22642113F07DFE2248807800EB04
:103F400080012048001D00EBC1004069C0B11D493F
:103F5000897801EB81021B49091D01EBC201002395
:103F6000042248690121FDF74FFCAFF2B031164839
:103F700010F0F7FD62226421134813F05BFE08E0A5
:103F80000E4909780E4A02EBC1006222642113F047
:103F900051FE0C48807800EB80010A48001D00EBC0
:103FA000C100C06938B30749897801EB810205492E
:103FB000091D01EBC201002304220DE014110010C1
:103FC0007B940200500F0010040F00107541000098
:103FD000D39502006B950200C8690121FDF714FC1E
:103FE000AFF22841FE4810F0BCFD7A226421FC4863
:103FF00013F020FE08E0FB490978FB4A02EBC10000
:104000007A22642113F016FEF848807800EB8001D4
:10401000F648001D00EBC100806820B3F3498978A1
:1040200001EB8102F149091D01EBC2018868FEF72D
:104030005EF900909DF80210BDF8000000230422F4
:10404000FDF7E2FB9DF80300E94A02EB001000F1E6
:104050000801E34810F085FD32224FF48C71E048EE
:1040600013F0E8FD09E0DF490978DF4A02EBC100FF
:1040700032224FF48C7113F0DDFDDC49897801EBBD
:104080008102DA49091D01EBC2010869FEF72FF927
:1040900000909DF80210BDF8000000230422FDF7F7
:1040A000B3FB9DF80300D24A02EB001000F10801B7
:1040B000CB4810F056FD4A224FF48C71C84813F0DB
:1040C000B9FDC8490978C1EBC101CA4A02EBC10276
:1040D000C649897801EB8103C449091D01EBC3017D
:1040E000896902EBC10062224FF48C7113F0A2FDCA
:1040F000BE49897800E085E001EB8102BB49091DDA
:1041000001EBC201096AB84A02EB0111B54A127803
:1041100001EBC2007A224FF48C7113F08BFD72E038
:10412000B248807800EB8001B048001D00EBC10070
:10413000AFF6F8510269AA4810F0B6FB32226421AA
:10414000A74813F077FDA948807800EB8001A748C5
:10415000001D00EBC1008068642813D3A348807859
:1041600000EB8001A148001D00EBC100AFF63461F7
:1041700082689B4810F098FB4A226421984813F00B
:1041800059FD08E097490978974A02EBC1004A2295
:10419000642113F04FFD9548807800EB800193482F
:1041A000001D00EBC100006A18B39049897801EB4B
:1041B00081028E49091D01EBC201086AFEF7F1FA7E
:1041C00000909DF80210BDF8000000230422FDF7C6
:1041D0001BFB9DF8030000EB4000874A81188048D4
:1041E00010F0BFFC32224FF48C717D4813F022FD99
:1041F00006E032224FF48C71AFF6B46013F01AFD72
:1042000001E000E000BF00BF7849897801EB81023E
:104210007649091D11F832002946FFF793F9F8BDD8
:104220007CB505460120FDF787FB42F6692014F0B6
:104230005FF8022014F0B6F86FF07F4014F063F8D6
:10424000002437E04FF4BE70ADF8000004EB4400EA
:10425000042101EB0010062101FB040000B2ADF8BF
:1042600002004FF4EE70ADF80400601C00EB40005B
:10427000042101EB0010062101FB040000B2ADF89F
:104280000600C5EBC50101EB81015C4A02EB81012F
:10429000544A1278C2EBC20202EB820201EB4201E5
:1042A000C4EBC40201EB42000E22694613F0D6FCB7
:1042B000601CC4B2052CC5DB7CBD2DE9F047074668
:1042C000484C14340F2601253CE0BD4203D1FF20A9
:1042D00014F019F803E04FF4000014F014F8701C07
:1042E00000EBD071B5EB610F0FD805EB4500C000B6
:1042F00000F11803681E00EB4000C00000F1180137
:10430000B4225A2013F076FD1BE006F1010808EBF9
:10431000D870A5EB600000EB4000C00000F118036E
:10432000C14609EBD970A5EB6000401E00EB4000D0
:10433000C00000F118014FF4B7724FF48A7013F007
:1043400059FD6D1CB5F5E17FBFD9022014F02AF8A4
:104350006FF07F4013F0D7FF002526E0012D0ED12E
:1043600034F81500B0F57A7F09D105EB45001A2124
:1043700001EBC002642122A013F05CFC14E034F8CD
:104380001500002303220121FDF73EFAAFF2D4719C
:10439000134810F0E6FB05EB45001A2101EBC002C3
:1043A00064210F4813F046FC6D1C032DD6D3E18821
:1043B0000D4A02EB01110B4A127801EBC200622296
:1043C000642113F037FC21890E4A02EBC1007A22E6
:1043D000642113F02FFC61890B4A02EB011115E0F7
:1043E000040F0010141100107B940200500F0010F5
:1043F000C3950200FB94020077B10200277F020000
:104400004B455900A3950200DB940200FE4A127846
:1044100001EBC2009222642113F00CFCA189FB4A3B
:1044200002EB0111F84A127801EBC200AA226421C2
:1044300013F000FCA08B48B9F3490978F34A02EB6A
:10444000C100C222642113F0F5FB0AE0E0890023D9
:1044500002221946FDF7D8F9C2226421EC4813F074
:10446000E9FB218AE94A02EB0111E74A127801EBE4
:10447000C2001A224FF48C7113F0DCFB618AE34A0C
:1044800002EB0111E04A127801EBC20032224FF434
:104490008C7113F0CFFBA18ADE4A02EB0111DA4ADC
:1044A000127801EBC2004A224FF48C7113F0C2FB68
:1044B000E18AD64A02EB0111D34A127801EBC2001D
:1044C00062224FF48C7113F0B5FB218BCF4A02EBC3
:1044D0000111CD4A127801EBC2007A224FF48C719F
:1044E00013F0A8FB618BC94A02EB0111C64A12788E
:1044F00001EBC20092224FF48C7113F09BFB208FD2
:1045000088B1A08B002302220121FDF77DF9AFF6CF
:104510005411BF4810F025FBAA224FF48C71BC48FF
:1045200013F088FB09E0B8490978B84A02EBC100EA
:10453000AA224FF48C7113F07DFB3846FFF770FE12
:10454000BDE8F0871CB542F6692013F0D1FE0020CB
:1045500013F028FF6FF07F4013F0D5FE00242BE00E
:104560004FF4BE70ADF8000004EB4400042101EBF1
:104570000010062101FB040000B2ADF802004FF468
:10458000EE70ADF80400601C00EB4000042101EB6C
:104590000010062101FB040000B2ADF806009E49A0
:1045A00001EB4411984A127801EB02100E22694681
:1045B00013F054FB601CC4B2052CD1DB1CBD10B53C
:1045C000022013F0EFFE6FF07F4013F09CFE3222CA
:1045D000642192A013F02EFB8B490978914A02EBDB
:1045E00041104A22642113F025FB8749088B0023E0
:1045F00003220121FDF708F9AFF64021844810F0AD
:10460000B0FA62226421824813F014FB7E490A78D2
:104610008449403101EB42107A22642113F00AFBF5
:1046200079490A787F49803101EB42109222642156
:1046300013F000FB74490A787A49C03101EB42104B
:10464000AA22642113F0F6FAFFF77CFF10BD70B5C3
:1046500004460D46601E744A115C0023042228465D
:10466000FDF7D2F8601C00EB4000C00000F11A0119
:104670000123674A4FF4A270FCF7F4FF70BD38B510
:104680000546002433E0601C854203D1FF206749C2
:10469000486003E04FF40000644948606348808844
:1046A00080B20090E01C00EB4000C000163083B2E6
:1046B000A01C00EB4000C000183081B2E822A4200A
:1046C000FCF7EFFB584A115D594A32F824000023E9
:1046D0000422FDF799F8A01C00EB4000C0001A303E
:1046E00081B201234A4AA420FCF7BCFF641C052CBC
:1046F000C9D34FF400004D49486038BD30B58DB086
:1047000004464FF400004949486002A949480BF0AB
:1047100047F849A10AA810F0C7F800230AAAAA215D
:104720005E20FCF79FFF47A10AA810F0BDF8002308
:104730000AAAC2217220FCF795FF062C01D10120A4
:1047400000E0002005461DB1FF203849486003E025
:104750004FF40000354948603DA10AA8099A10F0BD
:10476000A3F83248808880B2BE238622AA21009016
:104770005E20FCF796FB00230AAAAA215E20FCF724
:1047800071FF072C01D1012000E0002005461DB17A
:10479000FF202649486003E04FF4000023494860A9
:1047A0002BA10AA8089A10F07FF82048808880B2D0
:1047B000BE23A422AA2100909020FCF772FB0023C4
:1047C0000AAAAA219020FCF74DFF082C01D1012054
:1047D00000E0002005461DB1FF201449486003E0B9
:1047E0004FF400001149486019A10AA8059A10F079
:1047F0005BF80E48808880B2BE23C222AA210090B6
:10480000AE20FCF74EFB27E0141100107B94020051
:10481000040F00109B9402006F5702004A4B37317F
:1048200033300000EF590200D4B20200140000102F
:104830007807001000400240202020203A20203A33
:104840002020000020203A20203A202000000000F4
:10485000253032640000000000230AAAAA21AE20FD
:10486000FCF700FF092C01D1012000E000200546E3
:104870001DB1FF20F749486003E04FF40000F549FF
:104880004860AFF234010AA8049A10F00DF8F1481C
:10489000808880B2D6238622C22100907220FCF745
:1048A00000FB00230AAAC2217220FCF7DBFE0A2CBF
:1048B00001D1012000E0002005461DB1FF20E5499F
:1048C000486003E04FF40000E2494860AFF2800125
:1048D0000AA8039A0FF0E8FFDE48808880B2D6234A
:1048E000A422C22100909020FCF7DBFA00230AAA40
:1048F000C2219020FCF7B6FE0B2C01D1012000E074
:10490000002005461DB1FF20D249486003E04FF466
:104910000000D0494860AFF2C8010AA8029A0FF01F
:10492000C3FFCC48808880B2D623C22211460090B3
:10493000AE20FCF7B6FA00230AAAC221AE20FCF78B
:1049400091FE0DB030BD7CB5054642F6692013F0EE
:10495000CFFC002013F026FD6FF07F4013F0D3FC56
:10496000002437E04FF4BE70ADF8000004EB4400C3
:10497000042101EB0010062101FB040000B2ADF898
:1049800002004FF4EE70ADF80400601C00EB400034
:10499000042101EB0010062101FB040000B2ADF878
:1049A0000600C5EBC50101EB8101AB4A02EB8101B9
:1049B000AA4A1278C2EBC20202EB820201EB420168
:1049C000C4EBC40201EB42000E22694613F046F923
:1049D000601CC4B2052CC5DB7CBD2DE9F041064648
:1049E0000C2501243BE0B44203D1FF2013F08BFCE3
:1049F00003E04FF4000013F086FC681C00EBD0715C
:104A0000B4EB610F0FD804EB4400C00000F11803B1
:104A1000601E00EB4000C00000F11801A0225A20E7
:104A200013F0E8F91AE06F1C07EBD770A4EB6000F5
:104A300000EB4000C00000F11803B84608EBD87046
:104A4000A4EB6000401E00EB4000C00000F1180124
:104A50004FF4AD724FF48A7013F0CCF9641C681CEB
:104A60008442C0D3022013F09DFC6FF07F4013F00E
:104A70004AFC7A490978C1EBC10101EB8101784A0E
:104A800002EB4101754A1278C2EBC20201EB42000F
:104A90001A22642113F0CEF870490978C1EBC101E4
:104AA00001EB81026E498C3101EB42016B4A527875
:104AB000C2EBC20201EB42003222642113F0BAF8C9
:104AC00066490978C1EBC10101EB8102654901EB3F
:104AD0004201624A9278C2EBC20201EB42004A22D2
:104AE000642113F0A7F85D490978C1EBC10101EB1E
:104AF00081025C498C3101EB4201584AD278C2EB09
:104B0000C20201EB42006222642113F093F8534980
:104B10000978C1EBC10101EB8102534901EB42016C
:104B20004E4A1279C2EBC20201EB42007A226421A2
:104B300013F080F8922264214848401D13F07AF85F
:104B40004649497BC1EBC10101EB8102474901EBB9
:104B50004201424A1278C2EBC20201EB42001A2221
:104B60004FF48C7113F066F83C49887B03233222A2
:104B70004FF48C7112F0B6FF38490978C1EBC101CE
:104B800001EB81023A4901EB4201344AD27BC2EB8C
:104B9000C20201EB42004A224FF48C7113F04AF832
:104BA0002E490978C1EBC10101EB8102314901EBCA
:104BB00042012A4A127CC2EBC20201EB420062228D
:104BC0004FF48C7113F036F824490978C1EBC10118
:104BD00001EB810226498C3101EB42011F4A527CD4
:104BE000C2EBC20201EB42007A224FF48C7113F047
:104BF00021F81A490978C1EBC10101EB81021D4975
:104C000001EB4201154A927CC2EBC20201EB420069
:104C100092224FF48C7113F00DF83046FFF793FE9B
:104C2000BDE8F08110B50020FDF731F910BD10B5D9
:104C3000FFF7F8FF4FF6FF700649086040F23F208B
:104C400048604FF6FF7008604FF400004860002491
:104C500022E0000014000010776B02001411001015
:104C6000EB8D0200038F02001B90020033910200C3
:104C70004B9202006393020004EB840101EBC40138
:104C8000F94BCA1804EB84014901091D88B20023BD
:104C90003221FCF7E7FC641C032CEDD3002410E068
:104CA00004EB840000EBC400F04BC218A01C00EB26
:104CB0004000C0001A3081B200230420FCF7D2FC6F
:104CC000641C052CECD310BD08B543F6AC10B6231C
:104CD00040F2DF127A2100900020FCF7E2F808BDD4
:104CE00010B50020FDF7D3F8FFF7EEFF10BD08B5B3
:104CF00043F6AC10B62340F2DF127A210090002078
:104D0000FCF7CFF808BD10B50020FDF7C0F810BDC6
:104D100010B5FFF7F8FF4FF6FF70D549086040F275
:104D20003F2048600023D34A04211846FCF79AFC30
:104D30004FF6FF70CE4908604FF400004860002332
:104D4000CD4A1A210420FCF78DFC01240CE0CA494D
:104D500001EB0412611E4D235943223188B2002316
:104D60003221FCF77FFC641C072CF0D30020FCF7F9
:104D700066FF10BD38B5002416E04FF6FF700090B6
:104D8000601C00EB40001A2202EBC000801E83B2C0
:104D9000601C00EB400002EBC000801E81B2BE220E
:104DA0005A20FBF7D8FF641C052CE6D338BD10B59C
:104DB0000220FDF76CF810BD10B50120FCF7BCFD1A
:104DC0000420FDF78AF84FF6FF7013F09CFA4FF4B9
:104DD000000013F08DFA002410E0A84901EB441103
:104DE000A74B1B7801EB0310611C01EB4101C900CB
:104DF00001F11A02042112F01DFF641C062CECD3F1
:104E000010BD70B505462846FDF741F84FF6FF7016
:104E10009749086008604FF400004860022D11D1E6
:104E200000240DE0974800EB0412601C00EB4000EA
:104E3000C0001A3081B200230420FCF713FC641C6C
:104E4000072CEFD370BD2DE9F34F83B00C4642F22F
:104E50000F716068884206D90A216068B0FBF1F0E2
:104E600060600420A060A068C0F10400A060D4F8D5
:104E70000490E06820B94FF47A7009FB00F90EE065
:104E8000E06801280BD1484618F0B0FF0746002221
:104E90007D4B18F0FBFF054618F064FF8146A068C3
:104EA00018F0A4FF07463A460B460020774917F052
:104EB00099FF05460E46484618F098FF2A463346A5
:104EC000CDE9000118F0BAFD824618F04BFF81468B
:104ED000484618F08BFF054600226D4B19F0D4F8B8
:104EE00009D2DFF8B09140F6B83060600220A060CF
:104EF0000120E0605FE0484618F078FF0546002298
:104F0000654B19F0C1F809D842F21070B9FBF0F006
:104F100060600220A0600120E0604CE0484618F08C
:104F200065FF05460022584B19F0AEF809D84FF43A
:104F30007A70B9FBF0F060600320A0600120E060AF
:104F400039E0484618F052FF05460022534B19F04D
:104F50009BF808D86420B9FBF0F060600120A060E5
:104F60000020E06027E0484618F040FF0546002298
:104F70004B4B19F089F808D80A20B9FBF0F06060B3
:104F80000220A0600020E06015E0484618F02EFFE7
:104F900005460022434B19F077F806D8C4F8049070
:104FA0000320A0600020E06005E0C4F80490032026
:104FB000A0600020E060C4F818901C2221460398ED
:104FC0000FF062FE05B0BDE8F08F0146888800B2A0
:104FD00070472DE9F04105460C46E06870BBA068BB
:104FE000052829D2DFE800F00314151C22006068B0
:104FF00018F0FCFE06460022284B19F045F804D2B2
:10500000294860600020206101E00120206114E057
:1050100013E04FF47A716068B0FBF1F060600CE06F
:1050200064216068B0FBF1F0606006E00A2160680E
:10503000B0FBF1F0606000E000BF68E0A068062807
:1050400061D2DFE800F003333B3C49551649606804
:10505000884202D90846606004E04FF47A716068C3
:105060004843606052E0000016AE02003DAE020010
:105070001400001075AC020059B00200AF560200D7
:1050800014110010E0A9020080842E410000244089
:10509000389C7C4180C3C901D0126341006AF8404A
:1050A0000088C34000408F40A0860100606820B1A6
:1050B0000A216068B0FBF1F0606027E026E042F270
:1050C00010716068884201D908466060606800EB32
:1050D00080004000606019E06068B0F57A7F02D916
:1050E0004FF47A70606064216068484360600DE04E
:1050F0006068642801D9642060604FF47A71606848
:105100004843606002E0FA48606000BF00BF1C22B4
:10511000214628460FF0B8FDBDE8F0812DE9F34F98
:1051200083B08A4642F20F71DAF80400884209D946
:105130000A21DAF80400B0FBF1F0CAF804000420F8
:10514000CAF808004FF47A71DAF8040000FB01FB9A
:10515000DAF80810C1F1040018F048FE02460B46C8
:10516000CDE900010020E34917F03CFE04460D465E
:10517000584618F03BFE064622462B4618F05EFCC9
:10518000804618F0EFFD83464EF66020834500D937
:10519000834642F21070834508D90220CAF80800FD
:1051A0000A20BBFBF0F0CAF8040004E00320CAF8B0
:1051B0000800CAF804B0CAF818B01C225146039877
:1051C0000FF062FD05B0BDE8F08F2DE9F05F82467B
:1051D0000C460020E060A06819F018FB834619F027
:1051E00065F907463A460B460020C24917F0FAFD1A
:1051F000054618F0B7FD81466068B0FBF9F9B9F1D2
:10520000640F01D90220A0601C22214650460FF0F5
:105210003BFDBDE8F09F08B5B748372328225C2145
:1052200000903C20FCF71FF8B448372328225C216B
:1052300000906420FCF717F8B14837232822932107
:1052400000903C20FCF70FF8AC483723282293212C
:1052500000906420FCF707F808BD10B500240BE0AF
:1052600004EBC400C0EB841000F16E01A5A28C20F9
:10527000FCF7ADF9601CC4B2032CF1DB10BD08B51E
:105280004FF40000A14948609D48372328226E2131
:1052900000906420FBF7E7FF9D48372328226E210A
:1052A00000904FF49670FBF7DEFF9A4837232822D0
:1052B0006E2100904FF4AA70FBF7D5FF9648372374
:1052C0002822A52100906420FBF7CDFF92483723C8
:1052D0002822A52100904FF4AA70FBF7C4FF8F4845
:1052E00037232822DC2100906420FBF7BCFF8C4888
:1052F00037232822DC2100904FF4AA70FBF7B3FF7C
:1053000008BD10B50446874901EB4411864A12785E
:1053100001EB0210F222282112F08CFC10BD38B5EE
:1053200004466FF07F4012F0EEFF804843788278A9
:105330007F4980480FF0B8FA1A2264217D4812F0A4
:1053400079FC7A49897801EB81027849091D51F885
:105350003210794A02EBC1001A224FF48C7112F01C
:1053600069FC4FF4000012F0C3FF744812F0CBFF49
:10537000002013F017F8724812F0D6FF6B488078BF
:1053800000EB80016948001D50F8310004280FD05F
:10539000012C07D16B490023042208680321FCF784
:1053A00033FA05E00023042203211846FCF72CFA07
:1053B00078225A215F4812F03DFC5C48807800EB6F
:1053C00080015A48001D50F83100052871D2DFE8ED
:1053D00000F003043C71DB0000BF012C24D15948CC
:1053E00040684FF6FF71884206D1524856490A6814
:1053F0000260898881801DE052494868FCF777FF88
:1054000000905248007838B9BDF80000002304220B
:105410000221FCF7F9F90DE0BDF800000023042299
:105420000321FCF7F1F905E00023042203211846CB
:10543000FCF7EAF9AA225A213E4812F0FBFBAA2205
:10544000D72143A012F0F6FBA0E0012C1AD13D4871
:1054500040684FF6FF71884206D136483A490A68DB
:1054600002608988818013E036494868FCF73FFF75
:1054700000909DF80210BDF8000000230422FCF704
:10548000C3F905E00023042203211846FCF7BCF908
:10549000AA225A21274812F0CDFB9DF8031001EBF8
:1054A00041012D4A02EB4100AA22D72112F0C2FB92
:1054B0006CE06AE0012C51D1224840684FF6FF7140
:1054C000884206D11B4820490A6802608988818089
:1054D0004AE01C494868FDF764F900909DF8021005
:1054E000BDF8000000230422FCF78EF93CE0000028
:1054F00040420F0000002440DD0E0200F50F0200C4
:10550000DC3702002D2D2D2D2D0000001400001081
:1055100074400200F94702007E4F020091500200E1
:10552000A45102000F58020014110010500F001077
:10553000002B0000040F00107B950200FFFF80008D
:10554000B4520300C802001098260000C7000010E3
:105550006D4120200000000047B00200002304221B
:1055600003211846FCF750F9AA225A21FE4812F0EE
:1055700061FB9DF8031001EB4101FC4A8818AA2247
:10558000F02112F057FB01E000E000BF00BFF84837
:1055900012F0CAFE012C07D1F64908890023042223
:1055A0000121FCF731F905E000230422012118460E
:1055B000FCF72AF9DC225421EB4812F03BFBEE49C0
:1055C0000878FFF79EFE38BD30B585B004460D461D
:1055D000EAA003C8CDE90301EAA103C9CDE90101AD
:1055E00003A8005D40F213114843E84908443723FB
:1055F00028225C2100904FF4BE70FBF734FE01A816
:10560000405D40F213114843E04908443723282203
:105610005C2100904FF4D270FBF725FE05B030BD41
:1056200030B585B004460D46D4A003C8CDE90301CA
:10563000D4A103C9CDE9010103A8005D40F2131113
:105640004843D249084437232822932100904FF43D
:10565000BE70FBF708FE01A8405D40F213114843FD
:10566000CA49084437232822932100904FF4D2706E
:10567000FBF7F9FD05B030BD10B586B0142101A8C7
:105680000FF034FBC24800680090002409E01DF8C8
:105690000410C04808F0A6FF012001F0AEFE601C17
:1056A000C4B2032CF3DB06B010BD38B504464FF48A
:1056B0000000B9494860B94800EB84020123C821C1
:1056C0001420FBF7CFFFB64800EB84020123C8216A
:1056D0004FF48C70FBF7C6FF43F6AC10AE49486040
:1056E000B048372328227A2100905020FBF7BBFDD9
:1056F000AD48372328227A2100907820FBF7B3FDAC
:10570000AA48372328227A2100908C20FBF7ABFD92
:1057100038BD70B504460D4604EB44009349421869
:105720000123C8218020FBF79DFF05EB4500A04920
:1057300042180123C8218820FBF794FF70BD70B583
:1057400004460D4604EB4400884942180023C82152
:105750004FF4C270FBF786FF05EB450094494218F1
:105760000023C8214FF4C670FBF77CFF70BD10B555
:10577000002422E0012C01DD072C01DB082C04DDD4
:1057800043F6AC108449486003E04FF400008249BE
:105790004860884951F82400002306221946FCF786
:1057A00033F8C4EB041000F13A0101236E4A4FF4C0
:1057B000A270FBF7C4FF601CC4B20B2CDADB10BD77
:1057C0002DE9F04104460D4616467B4B1B5D03EB6D
:1057D0004303774FDA19B1B2A8B20023FBF742FFB7
:1057E000BDE8F0812DE9F04104460D46164604EB74
:1057F00044036F4FDA19B1B2A8B20123FBF79FFF40
:10580000BDE8F08170B504460D46A9B2A0B20123EF
:105810006AA2FBF727FF70BD70B504460D46A9B21A
:10582000A0B2012366A2FBF71DFF70BD38B5654C21
:105830006A200023224601210090184609F0CDFC81
:1058400038BD38B55F4C6A20002322460121009004
:10585000184609F039FD38BD30B55B4B5B780A2B33
:1058600002DD0123584C6370574B9B78564C64788B
:10587000A34202DD0123544CA3700022D1E0531C4B
:1058800003EB8304504B1B1D53F83430042B07D912
:105890000024531C03EB83054B4B1B1D43F8354081
:1058A000531C03EB8304484B1B1D03EBC401531C27
:1058B00003EB8304444B1B1D53F83430052B51D2AA
:1058C000DFE803F01E39038FAA00002015E051F82D
:1058D00020303E4C04EBC0046468A34206D851F863
:1058E00020303A4C54F83040A34204D2374B53F89E
:1058F000303041F82030431CD8B20928E7DB8DE076
:10590000002015E051F82030314C04EBC0046468ED
:10591000A34206D851F820302D4C54F83040A34211
:1059200004D22B4B53F8303041F82030431CD8B20E
:105930000928E7DB72E0002050E051F82030254CC8
:1059400004EBC0046468A34206D851F82030214C0F
:1059500054F83040A34204D21E4B53F8303041F883
:10596000203039E059E00000040F001077B1020048
:1059700054F80200C8020010F00000100C0F1011C3
:10598000160E0D00121314020B1716007D320200C2
:10599000ACB5020000C00040140000100C9E0200D4
:1059A000689E0200023A0200454C0200584D020077
:1059B000A4B10200D40E00108CB102005600000009
:1059C0006D41000014110010500F001040B402008F
:1059D000A8B30200F0B30200431CD8B20A28ACDB23
:1059E0001CE0002015E051F82030FB4C04EBC00413
:1059F0006468A34206D851F82030F74C54F8304080
:105A0000A34204D2F44B53F8303041F82030431C09
:105A1000D8B20928E7DB01E000E030BD00BF531C2D
:105A2000DAB20A2AFFF62BAF00BFF6E710B5EB4853
:105A30000078EB494988884203DDE9480078E74966
:105A40000870E6484178E648C088814203DDE448B2
:105A50000079E2494870E1488178E1484089814213
:105A600003DDDF48007ADD498870DC48C178DC4816
:105A7000C089814203DDDA48007BD849C870D74825
:105A80000179D748408A814203DDD548007CD3495B
:105A90000871D248417BD248408B814203DDD04817
:105AA000007ECE494873CD48817BCD48C08B814272
:105AB00003DDCB48007FC9498873C848C17BC8480B
:105AC000408C814204DDC64890F82000C349C87369
:105AD000C248017CC248C08C814204DDC04890F8B5
