:020000040002F8
:10000000F833001089E4030091E4030093E4030053
:1000100095E4030097E4030099E403000000000066
:100020000000000000000000000000009BE403004E
:100030009DE40300000000009FE40300C5BD020032
:10004000A3E4030019080200AD080200E908020059
:10005000FB080200C9130400A3E40300A3E40300A7
:10006000E1130400A3E40300A3E40300A3E40300FA
:10007000A3E40300A3E40300A3E40300A3E4030058
:10008000A3E40300A3E40300A3E40300A3E4030048
:10009000A3E40300A3E40300A3E40300A3E4030038
:1000A000693F0400A3E40300A3E40300A3E4030006
:1000B000A3E40300A3E40300A3E40300A3E4030018
:1000C000A3E40300A3E40300A3E40300A3E4030008
:1000D000A3E40300A3E4030097050200A3E40300E4
:1000E000A3E4030000F002F800F076F80AA090E81C
:1000F000000C82448344AAF10107DA4501D100F0E3
:100100006BF8AFF2090EBAE80F0013F0010F18BF39
:10011000FB1A43F001031847F825050018260500CF
:100120000A444FF0000C10F8013B13F0070408BF1D
:1001300010F8014B1D1108BF10F8015B641E05D0BB
:1001400010F8016B641E01F8016BF9D113F0080F70
:100150001EBF10F8014BAD1C0C1B09D16D1E58BF02
:1001600001F801CBFAD505E014F8016B01F8016B39
:100170006D1EF9D59142D6D37047000000230024AC
:1001800000250026103A28BF78C1FBD8520728BFA7
:1001900030C148BF0B607047662933F098806729EB
:1001A00033F09580642928F01786732929F0F983A4
:1001B000002070471FB529F037F904000020002106
:1001C00031F03AFE401C60600020002131F04AFE10
:1001D000E0601FBD10B510BD29F01CFF1146FFF7F0
:1001E000E9FF00F023F92AF08DF903B4FFF7F2FFDD
:1001F00003BC2AF091F9000040F201208249086016
:100200008249C1F88401804908310860091D0860ED
:10021000091D0860091D0860091D0860091D0860A6
:10022000091D0860091D0860091D0860091D086096
:10023000091D0860091D0860091D0860091D086086
:10024000714980310860091D0860091D0860091D99
:100250000860091D0860091D0860091D0860091D66
:100260000860091D0860091D0860091D0860091D56
:100270000860091D0860091D0860091D08606249C1
:10028000D4310860091D0860091D08605E494439C1
:1002900008605D49E4310860091F08605A49E83187
:1002A0000860594940390860091D0860091D086047
:1002B000554930390860544920390860524910398D
:1002C0000860091D086070472DE9F04100BF00BFBC
:1002D0004F48006840F400604D49C439C1F8C4007B
:1002E00041F61F704B49086001204B49086000200F
:1002F0008860FFF781FF494800684949B0FBF1F782
:100300004348C438D0F8000100B17F084FF47A7038
:10031000B0FBF7F404F11300B0FBF4F03E490863BE
:100320000F204863002088630120C86304F1130094
:10033000B0FBF4F0801C08640120486404F13E0026
:10034000B0FBF4F0886404F13E00B0FBF4F0C86444
:100350000F20086504F13E00B0FBF4F04865012071
:100360008865886240F203302E4908604FF4D060FF
:100370002949C1F800016421012000F0CFF940F2C1
:10038000831025490862C821012000F0C7F940F216
:1003900003102149086202204862002600E0761C12
:1003A000802EFCD341F68465A5F1100085B22D1195
:1003B00005FB07F04FF47A71B0FBF1F085B21648F7
:1003C00045628320144908621748058800200862A6
:1003D0001448001F006840F40020C1F8000101210A
:1003E000084600F09BF90121084600F097F90948FA
:1003F000006820F01F0848F011000549C439C1F811
:10040000DC01BDE8F081000080C1024000C0024074
:10041000C4C00F40DCC10F4000C00920880100109B
:1004200040420F0004C10920003003A000201EF04C
:100430006CFC04460020784908601D2001218140A1
:100440004209920002F1E022C2F8001100BF62B638
:100450007248B4FBF0F0411EB1F1807F00D31DE083
:1004600021F07F40401E4FF0E022506150171F22C4
:10047000002807DAD3061E0E694B00F00F052D1F6A
:100480005E5503E0D3061D0E664B1D5400BF0020D1
:100490004FF0E02290610720106100BF21F098FC2E
:1004A00002206149086000206049088060490870A6
:1004B000604908703CE05C480068801E182835D20E
:1004C000DFE800F00C3412150F30343418341B34CC
:1004D00034342124272A2D34341E34310BF032FFDA
:1004E00025E00CF003FB22E00DF0BEFC1FE00DF058
:1004F00007FD1CE01BF041FF19E018F010FD16E0AD
:100500001AF003F813E018F0BBFC10E00CF02CF824
:100510000DE00CF033FA0AE00CF09CFA07E018F05A
:1005200085F804E003E019F0A2FF00E000BF00BF7F
:10053000C1E72DE9F04101213FA023F013F907465F
:10054000002F25DD4FF47A623E480168384623F0DB
:10055000E9F902213CA023F005F90446002C11DD45
:10056000002500BF4FF47A6236480168204623F028
:1005700043FB0646354437488542F3D3204623F0F3
:10058000D2FB01E0BDE8F081384623F0CCFB00E06F
:10059000F8E700BFF6E710B50022062110461EF06E
:1005A0001EFA30B109202C490860402100201EF0BD
:1005B00041FA0022052110461EF011FA00B3274827
:1005C000B0F8A60D2B2148432449343101EBC0007B
:1005D000001D3439B1F8A61D2B2251431F4A343275
:1005E00002EBC1018978C1EBC10100EB8100408AB7
:1005F00010B10C2018490860202100201EF01AFAC2
:100600000022072110461EF0EAF918B180210020CF
:100610001EF010FA10BD0000DC000010A0860100E2
:1006200018ED00E000E400E03001001028010010A7
:100630002A0100102B0100104D53524541442E5405
:10064000585400001C0200105A43353532302E54E5
:10065000585400008096980034010010CC0F001010
:1006600010B5FE4890F89E00FD490860FB4890F8E0
:100670009E000860F94890F89E00086008460068EF
:10068000072802D9084600680860F44890F89E00E0
:10069000F349086008460068082803D10846006846
:1006A000401C0860EF480068EF49096888421DD087
:1006B000ED480068EB490860EC480078002804DD4C
:1006C000EA480078401EE9490870E848007820B9F7
:1006D000E24890F89E00002809DCE448007820B940
:1006E000DE4890F89E0000B910BDFDE7FCE7DB484E
:1006F00090F89E00042800DA0AE0D8480478DC4824
:10070000807BA04201D004B102E021F019FA00BFC1
:100710000020D24981F89E0000BFE5E7F8B9022227
:100720004FF040235A600022DA60D24A12684FF438
:100730007A73B2FBF3F2521E4A434FF040239A61A0
:10074000FF221A6004225A6101225A6000BF4FF052
:100750004022526802F00102002AF8D15BE0012831
:100760001CD10222C44B5A600022DA60C14A1268CE
:100770004FF47A73B2FBF3F2521E4A43BE4B9A61B6
:10078000FF221A6004225A6101225A6000BFBA4A4D
:10079000526802F00102002AF9D13CE002281CD183
:1007A0000222B64B5A600022DA60B24A12684FF455
:1007B0007A73B2FBF3F2521E4A43B04B9A61FF22A6
:1007C0001A6004225A6101225A6000BFAB4A526883
:1007D00002F00102002AF9D11DE003281BD10222F8
:1007E000A74B5A600022DA60A24A12684FF47A736B
:1007F000B2FBF3F2521E4A43A14B9A61FF221A60E8
:1008000004225A6101225A6000BF9D4A526802F0D8
:100810000102002AF9D1704710B501204FF04021A4
:10082000086098480068062813D197480078401C53
:100830009549087008460078092810DD00200870E6
:1008400001209249087092480089401C9049088113
:1008500005E08D48007810B100208B49087084486D
:10086000407B88B98B480078401C8A49087008464C
:100870000078002808DD002008707B480068401CD4
:1008800079490860FFF7ECFE00240CE0824850F83C
:10089000240030B1804850F82400401E7E4941F8C1
:1008A0002400601CC4B2062CF0DB10BD10B5012082
:1008B0007149086079480078401C7849087071488F
:1008C000006806280FD1084600780A2802D10BF0EC
:1008D00006FB08E071480078142804DB00206F490B
:1008E00008700BF002FB10BD0120644908606C48E1
:1008F0000068401C6A490860704701206049086030
:1009000068480068401C67490860704720B90121A9
:100910004FF04022516010E0012803D10121564AD6
:1009200051600AE0022803D10121544A516004E0D9
:10093000032802D10121524A5160704720B9002199
:100940004FF04022516010E0012803D100214A4AB3
:1009500051600AE0022803D10021484A516004E0B6
:10096000032802D10021454A51607047014631B940
:100970004FF04022506840F00200506016E001291C
:1009800005D13D4A506840F0020050600EE0022957
:1009900005D13A4A506840F00200506006E0032951
:1009A00004D1374A506840F002005060704770B57B
:1009B00005460C46F5B900203B4908603B480068F5
:1009C00040F002003949C439C1F8C4004FF040205A
:1009D000406840F002004FF0402148604DF20B505B
:1009E000C8600846846103204861012000F07DF85A
:1009F000012070BD012D1CD100202D4908602B481D
:100A0000006840F004002949C439C1F8C4001A48FC
:100A1000406840F00200184948604EF65F20C86008
:100A20000846846103204861022000F05EF801203E
:100A3000DFE7022D40D10020194908601B480068FB
:100A400040F480001949C439C1F8C4000B488461DE
:100A500003200A49486100F048F82BE0DD2200102D
:100A60001C0000101400001010000010A001001065
:100A7000CC0F00108C0100100080004000000940E5
:100A80000040094030010010200000100A01001051
:100A90004003001021000010A00B001022000010E5
:100AA000080000100C00001000000010C4C00F402F
:100AB0000400001001209CE7032D14D100201049F0
:100AC00008601048006840F400000E49C439C1F8BD
:100AD000C4000D48846103200B494861042000F0E4
:100AE00004F8012085E7002083E700F01F020121C0
:100AF00091404209920002F1E022C2F800117047D1
:100B00000C000010C4C00F400040094008B5B0B14F
:100B1000F949896941F00101F74A916142F2107186
:100B2000009108E0F449896941F40061F24A916159
:100B30000099491E009100990029F3D115E0EE4972
:100B4000896921F40061EC4A916142F210710091CF
:100B500002E00099491E009100990029F9D1E64967
:100B6000896921F00101E44A916108BDE34A00214D
:100B700002E008C808C2491C8029FAD3704750B562
:100B800006460C4600BF2720DD490860DD49C1F854
:100B90001801DD490860091D0860091D0860DA496F
:100BA0004C390860091D0860091D0860091D0860AE
:100BB000091D0860091D0860D34918310860D24931
:100BC00034390860091D0860091D0860091D0860A6
:100BD000CD4914390860CC4908390860CA49103930
:100BE0000860C849C1F81001C848006A40F0020016
:100BF000C64908620846806B40F0040088630846D6
:100C0000006840F0020008600846806940F02A0051
:100C10008861BF48D0F8C40040F00100BC49C1F869
:100C2000C400BC48006820F00100BA4908600020F8
:100C3000B14988610846806920F00E008861084645
:100C4000806940F00C0088610846806940F020000F
:100C500088610846806920F08000886108468069C4
:100C600020F4807088610846806920F400708861F3
:100C70000846806920F4806088610846806920F415
:100C800000608861A4480068A449B0FBF1F0A04965
:100C9000C1F8B8019848806840F080609649886043
:100CA0000846806820F0200088600846806840F48C
:100CB000006088600846806840F48050886008467C
:100CC000806820F4005088600846806820F48040E6
:100CD00088600846806892490840874988600846CD
:100CE000806890490843844988600020086008466D
:100CF000006840F01C5008600846006840F48020FE
:100D000008600846006840F4807008600846006883
:100D100040F074000860002048600846406840F0D9
:100D2000006048600846406840F40020486008467B
:100D3000406840F4806048600846406840F20F1107
:100D400008436D49486078480861486114B12046FD
:100D5000FFF70CFF50BD744A002102E022F8020B9D
:100D6000491CB1F5FF3FF9D3704730B56E4BB0F574
:100D7000F07F02DAB1F5887F00DB30BDC1EB0115F1
:100D800000EB451403EB44031A8000BFF5E72DE99F
:100D9000F04F04460D4691469A46DDF824B04C4586
:100DA00003DD0FFA89F7A146BCB2554503DD0FFA02
:100DB0008AF7AA46BDB2A9EB04000FFA80F8AAEBA5
:100DC000050006B2B8F1000F0BD100BF5A46294604
:100DD0002046FFF7CAFF681C85B2AA45F6DABDE8CF
:100DE000F08F56B900BF5A4629462046FFF7BDFF8F
:100DF000601C84B2A145F6DAF1E7B04521DDC8EB0D
:100E0000460007B215E05A4629462046FFF7ADFFD7
:100E1000601C84B2002F08DD681C85B270000221BE
:100E200001FB1800384407B203E0022000FB067003
:100E300007B24C45E7D15A4629462046FFF795FFB1
:100E400020E0C6EB480007B215E05A462946204686
:100E5000FFF78BFF681C85B2002F08DD601C84B291
:100E60007000022101FB1800384407B203E00220A1
:100E700000FB067007B25545E7D15A462946204681
:100E8000FFF773FF00BFAAE72DE9F84105460E46BC
:100E900017469846079CA0B233463A463146009022
:100EA0002846FFF774FFA0B243463A4641460090F9
:100EB0002846FFF76CFFA0B243462A463146009011
:100EC0002846FFF764FFA0B243463A4631460090F9
:100ED0003846FFF75CFFBDE8F8812DE9F0411C467C
:100EE000069FC1EB011CDFF8408008EB8C1C0CEB6B
:100EF000400300262AE0000000800820008208202D
:100F000074C2024000C002401CC10240008009209F
:100F100000C00F40008C08208C0100109C997400C8
:100F2000FFFF00FC0000DF01000001A0002502E03F
:100F300023F8027B6D1CA2EB000CAC45F8D8A2EBA9
:100F4000000CCCF5F07C03EB4C03761CA4EB010CFD
:100F5000B445EBD8BDE8F0812DE9F04704460D46D5
:100F60001746784200214FEA4708C8F10202F94EBD
:100F700000BFA4EB000805EB01094FF4F07A0AFB6F
:100F8000098846F8283004EB000805EB01090AFB44
:100F9000098846F8283004EB0008A5EB01090AFB94
:100FA000098846F82830A4EB0008A5EB01090AFBE4
:100FB000098846F8283094468C450DDC01F101087B
:100FC00041464FF0010909EB48084244C84203D1A9
:100FD000844501DC4FF0000C844507DD00F1010879
:100FE00040464FF0010909EB480842440028C0DDA3
:100FF000BDE8F08770B505460E461446A2B23146EC
:101000002846FFF7B2FE70BD2DE9FF5F06460F468A
:1010100090469946DDF838B04146684600F0A8FC95
:1010200000241DE01DF804A0002516E0C5F107000E
:101030004AFA00F000F0010038B13A1991B2721981
:1010400090B24A46FFF791FE06E03A1991B2721942
:1010500090B25A46FFF789FE6D1C082DE6D3641C3A
:10106000102CDFD3BDE8FF9F2DE9FE4F06460F464B
:1010700090469946DDF830B04146684600F085FC60
:10108000002415E01DF804A000250EE0C5F10700BE
:101090004AFA00F000F0010030B13A1991B2721929
:1010A00090B24A46FFF761FE6D1C082DEED3641C1A
:1010B0000C2CE7D3BDE8FE8F2DE9F84305460E461C
:1010C00014469846DDF8209000BF14F8017B434693
:1010D0003A4631462846CDF80090FFF795FFB5F522
:1010E000EC7F03DA05F1080085B208E0FF2E04DC8E
:1010F000002506F1100086B201E0002500262078C8
:101100000028E2D1BDE8F8832DE9FF4F0746884665
:101110009B463C464546BA4646464FF0000915E018
:10112000A4F1140188B22946029AFFF71EFE601C42
:1011300084B2A6F1140081B25046029AFFF715FE60
:10114000701C86B209F101001FFA80F9B9F1280F6D
:10115000E6DB3C464546BA4646464FF000092BE0E2
:10116000A5F1140291B2A4F1140290B25A46FFF70D
:10117000FCFD05F1140291B2A4F1140290B25A469A
:10118000FFF7F3FD601C84B2A6F1140291B2AAF13C
:10119000140290B25A46FFF7E8FDA6F1140291B28C
:1011A0000AF1140290B25A46FFF7DFFD701C86B2B6
:1011B00009F101001FFA80F9B9F10A0FD0DB3C46B2
:1011C0004546BA4646464FF000092BE0A5F1140209
:1011D00091B204F10A0290B25A46FFF7C6FD05F13A
:1011E000140291B204F10A0290B25A46FFF7BDFD13
:1011F000601C84B206F10A0291B2AAF1140290B204
:101200005A46FFF7B2FD06F10A0291B20AF1140242
:1012100090B25A46FFF7A9FD701C86B209F1010091
:101220001FFA80F9B9F10A0FD0DBBDE8FF8F10B5C6
:101230000246002112E001EB8110474B185C137845
:10124000984209D1507801EB8113434C23445B78D9
:10125000984201D1084610BD481C81B20029EAD04D
:101260000020F8E710B50246002114E001EB011060
:101270003A4B13F81000137898420AD1507801EBDA
:101280000113364C04EB43035B78984201D10846C6
:1012900010BD481C81B2B229E8D30020F8E72DE93F
:1012A000F04F04460F4615469846A3464FF00009F6
:1012B00000262FE0099810F806904FF0000A23E06E
:1012C00009F0800038B12648008882B239462046AD
:1012D000FFF74BFD06E02248808882B2394620465F
:1012E000FFF743FD4FEA49604FEA1069601C84B282
:1012F000A4EB0B00A84203D15C46781C87B206E041
:101300000AF1010000F0FF0ABAF1080FD8DB00BFB4
:10131000701C86B205FB08F0C11700EB5171B6EBEB
:10132000E10FC7DBBDE8F08F2DE9F04F0546894698
:1013300092469B46A8460026BBF1000F3CD10024F4
:1013400037E00AEB0A10054901EB4000801C065DFE
:10135000002729E0000001A0CE3305000F3405006E
:101360002400001006F0800038B1FD48008882B2E9
:1013700049462846FFF7F9FC06E0F948808882B222
:1013800049462846FFF7F1FC7006060E681C85B238
:10139000A5EB0800102805D1454609F101001FFA08
:1013A00080F903E0781CC7B2082FDBDB00BF601CAC
:1013B000C4B2202CC5DB33E000242FE00AEB0A1076
:1013C000E84901EB4000801C065D002721E006F0A3
:1013D000800038B1E248808882B249462846FFF74B
:1013E000C4FC06E0DE48008882B249462846FFF782
:1013F000BCFC7006060E681C85B2A5EB0800102820
:1014000005D1454609F101001FFA80F903E0781C77
:10141000C7B2082FDBDB00BF601CC4B2202CCDDBC1
:10142000BDE8F08F2DE9F04F0546894692469B4670
:10143000A8460026BBF1000F33D100242EE00AEBB2
:101440008A10C9490844801C065D002721E006F087
:10145000800038B1C248008882B249462846FFF76A
:1014600084FC06E0BE48808882B249462846FFF7E1
:101470007CFC7006060E681C85B2A5EB08001828D7
:1014800005D1454609F101001FFA80F903E0781CF7
:10149000C7B2082FDBDB00BF601CC4B23F2CCEDB21
:1014A00032E000242EE00AEB8A10AF490844801C89
:1014B000065D002721E006F0800038B1A84880884A
:1014C00082B249462846FFF750FC06E0A44800884F
:1014D00082B249462846FFF748FC7006060E681C93
:1014E00085B2A5EB0800182805D1454609F1010091
:1014F0001FFA80F903E0781CC7B2082FDBDB00BFBE
:10150000601CC4B23F2CCEDBBDE8F08FF0B50446C2
:101510000D4616461F463B46224631462846FFF7F3
:1015200081FF1820F0BDF0B504460D4616461F4653
:101530003B46224631462846FFF7F6FE1220F0BD14
:101540002DE9F84306460D4614461F464FF00008A5
:10155000C14654E0207800B952E006EB090086B29B
:10156000207880281ADD06F11800B0F5F07F07DD3D
:10157000002605F1160085B2B5F5887F00DD00254F
:101580002046FFF754FE1FFA80F83B462A463146B4
:101590004046FFF7BBFF8146A41C2FE020780D28B2
:1015A0000AD105F1160085B2B5F5887F00DD00256A
:1015B000641C4FF0000922E020780A2804D100269C
:1015C000641C4FF000091AE006F10C00B0F5F07F42
:1015D00007DD002605F10C0085B2B5F5887F00DD3A
:1015E00000255F48808880B200905D48008883B203
:1015F000227829463046FFF707FD641C00BFA9E7A3
:1016000000BFBDE8F8832DE9F84305468846144637
:1016100000263FE0207800B93DE02078302807DB45
:101620002078392804DC207830381FFA80F919E056
:1016300020782E2802D14FF00A0913E020782D28B7
:1016400002D14FF00B090DE02078202802D14FF095
:101650000C0907E02078562802D14FF00D0901E06F
:101660004FF00E094FEA4917F81707EB5070C010FA
:1016700000EBC001C1EB80103C490844A91900905F
:1016800088B2372320224146FFF709FE641C06F189
:10169000200086B2BEE700BFBDE8F8832DE9F8431D
:1016A00006460D4614461F464FF00008C14656E058
:1016B000207800B95CE006EB090086B2207880282B
:1016C0001ADD06F11000B0F5F07F07DD002605F108
:1016D000100085B2B5F5887F00DD00252046FFF7B4
:1016E000C1FD1FFA80F83B462A4631464046FFF7C7
:1016F0001AFF8146A41C31E020780D280AD105F19B
:10170000100085B2B5F5887F00DD0025641C4FF020
:10171000000924E020780A2804D10026641C4FF038
:1017200000091CE006F10800B0F5F07F07DD002697
:1017300005F1100085B2B5F5887F00DD0025084869
:10174000808880B200900648008883B222782946BB
:101750003046FFF759FC641C4FF00A0900BFA7E7A9
:10176000240000100F340500CE330500C36C0500C3
:1017700000BFBDE8F8832DE9F84306460D46144640
:101780001F464FF00008C14656E0207800B954E0EB
:1017900006EB090086B2207880281ADD06F11000D9
:1017A000B0F5F07F07DD002605F1100085B2B5F534
:1017B000887F00DD00252046FFF754FD1FFA80F8E2
:1017C0003B462A4631464046FFF7ADFE8146A41C03
:1017D00031E020780D280AD105F1100085B2B5F569
:1017E000887F00DD0025641C4FF0000924E020788C
:1017F0000A2804D10026641C4FF000091CE006F101
:101800000800B0F5F07F07DD002605F1080085B27D
:10181000B5F5887F00DD00255248808880B20090B1
:101820005048008883B2227829463046FFF71CFCD6
:10183000641C4FF0080900BFA7E700BFBDE8F883AC
:10184000F0B504461D46062A00DD0A2202B901222F
:10185000052900DD0521914200DD1146002004E04C
:101860002026414F3E54461CF0B20C28F8D31046B7
:101870000FE00A26B4FBF6F706FB17463036471E84
:10188000DFF8E4C00CF807600A26B4FBF6F4461E45
:10189000F0B20028EDDC89B11346084605E05E1E73
:1018A000314FBE5DFE545E1EF3B2061EA0F101076D
:1018B000F8B2F4D12E262C4FFE5402E020262A4FF7
:1018C000BE54A5B900200EE0274E365C302E07D15D
:1018D000254F461CBE5D2E2E02D020263E5400E031
:1018E00004E0461CF0B2561E8642EDDC00BF561CDA
:1018F000F2B2104604E000261B4F3E54461CF0B2E4
:101900000C28F8D3F0BD30B5184A00210BE08478DC
:10191000457844EA0524057844EA054308C2401C9A
:10192000401C401C491CB1F5FF3FF0D330BD70B5E1
:101930000E4B002112E000220CE005782D044678C1
:1019400045EA0625867845EA060410C3401C401C7B
:10195000401C521CB2F5F07FEFD3491CB1F5887FD3
:10196000E9D370BD24000010800F0010000001A01A
:1019700070B505460C46A4F120000B4A02EB00119D
:101980001022284627F017FC70BDA1F1200202EBBF
:101990004202064B03EB8202136803605368436004
:1019A0009268826070470000B34B0500A3510500A8
:1019B0003EB5054642F669202AF06BFF00241DE083
:1019C000F74841000322CDE900210290601C00EBA2
:1019D0004000042202EB0010062202FB040304EB89
:1019E0004400042202EB0010062202FB04014FF423
:1019F000EE724FF4BE702AF021FC641C052CDFD37C
:101A00003EBD10B542F66920E64948604FF6FF70CA
:101A100008600023E4A2F1215420FFF73FFE0023D9
:101A2000E3A2F121A420FFF739FE10BD70B50546F1
:101A300042F66920DB4948604FF6FF700860A5B99F
:101A400000240FE004EB4401DB4B03EB410204EB09
:101A50008401542303EB01100023F121FFF71EFE44
:101A6000601CC4B2052CEDDB14E0002410E0611D05
:101A700001EB4101D04B03EB410204EB8401542301
:101A800003EB01100023F121FFF708FE601CC4B234
:101A9000052CECDB70BD10B542F66920C1494860E9
:101AA0004FF6FF7008600023C4A2F1215420FFF715
:101AB000F5FD10BD10B542F66920BA4948604FF6F1
:101AC000FF7008600023C0A2F1215420FFF7E6FD5B
:101AD00010BD10B50446002C39D14FF6FF70B14946
:101AE000086042F6692048600023B8A2E72154202C
:101AF000FFF7D4FD0023B7A2FB215420FFF7CEFD52
:101B00000023B2A2E721A420FFF7C8FD0023B3A25F
:101B1000FB21A420FFF7C2FD0023B2A2E721F4209D
:101B2000FFF7BCFD0023ADA2FB21F420FFF7B6FDBB
:101B30000023ACA2E7214FF4A270FFF7AFFD002312
:101B4000AAA2FB214FF4A270FFF7A8FD2EE0012C02
:101B50002CD14FF6FF709349086042F66920486027
:101B60000023A4A2E7215420FFF798FD0023A3A29D
:101B7000FB215420FFF792FD0023A2A2E721A4201D
:101B8000FFF78CFD0023A1A2FB21A420FFF786FD17
:101B90000023A0A2E7214FF4CA70FFF77FFD0023C6
:101BA0009EA2FB214FF4CA70FFF778FD10BD10B55F
:101BB0004FF6FF707B49086042F6692048600023B9
:101BC00098A2E7215420FFF769FD002397A2FB218B
:101BD0005420FFF763FD002396A2F1214FF4A27079
:101BE000FFF75CFD002396A2F1214FF4CA70FFF7C6
:101BF00055FD10BD10B504460CB1012C33D14FF684
:101C0000FF706849086042F66920486000238FA28F
:101C1000F1215420FFF742FD00238FA2E721A420E9
:101C2000FFF73CFD00238EA2FB21A420FFF736FD29
:101C300000238DA2E721F420FFF730FD002388A2C6
:101C4000FB21F420FFF72AFD00237AA2F1214FF4B3
:101C5000A270FFF723FD002379A2F1214FF4CA708F
:101C6000FFF71CFD26E04FF6FF704E49086042F674
:101C700069204860002375A2F1215420FFF70EFD72
:101C8000002377A2E721A420FFF708FD002378A214
:101C9000FB21A420FFF702FD002366A2F1214FF4EF
:101CA000A270FFF7FBFC002365A2F1214FF4CA707C
:101CB000FFF7F4FC10BD10B50446002C39D14FF6E7
:101CC000FF703849086042F66920486000233FA24F
:101CD000E7215420FFF7E2FC00233EA2FB21542021
:101CE000FFF7DCFC002339A2E721A420FFF7D6FC94
:101CF00000233AA2FB21A420FFF7D0FC002339A245
:101D0000E721F420FFF7CAFC002334A2FB21F420D2
:101D1000FFF7C4FC002333A2E7214FF4A270FFF7C2
:101D2000BDFC002331A2FB214FF4A270FFF7B6FCEB
:101D300034E0012C32D14FF6FF701A49086042F6A8
:101D40006920486000232BA2E7215420FFF7A6FC5E
:101D500000232AA2FB215420FFF7A0FC002321A28C
:101D6000E721A420FFF79AFC00231CA2FB21A4205A
:101D7000FFF794FC002340A2F121F420FFF78EFC32
:101D8000002324A2E7214FF4CA70FFF787FC002349
:101D900022A2FB214FF4CA70FFF780FC10BD0000A7
:101DA0004040400024000010206DCEA920200000FB
:101DB00020CEA92000000000DD08060020E7A1AE2B
:101DC000E8AEA420000000002A310000E6B58BE94F
:101DD000878F0000E698BEE7A4BA0000E8AEBEE731
:101DE000BDAE0000E7B3BBE7BB9F0000E4BFA1E6C8
:101DF00081AF0000E69687E4BBB60000E7AEA1E73E
:101E000090860000E4BF9DE5AD980000E695B0E641
:101E10008DAE0000E69BB4E5A49A000020322F327C
:101E200000000000E6B885E999A40000E8A1A8E652
:101E3000A0BC0000E4B88AE4B880E9A1B5000000C5
:101E4000E4B88BE4B880E9A1B5000000E588A0E91A
:101E500099A4E8A18C000000E7BABFE680A70000C3
:101E6000E887AAE58AA80000E5AFB9E695B00000CA
:101E7000E5A48DE588B60000E5B7A5E585B70000C7
:101E800010B54FF6FF70FD49086042F669204860C2
:101E90000023AFF2C802E7215420FFF7FFFB002325
:101EA000AFF2D002FB215420FFF7F8FB0023AFF282
:101EB000E402E721A420FFF7F1FB0023AFF2E402E4
:101EC000FB21A420FFF7EAFB0023AFF2E802E721A1
:101ED000F420FFF7E3FB0023AFF20012FB21F42014
:101EE000FFF7DCFB0023AFF20412E7214FF4A270EE
:101EF000FFF7D4FB0023AFF20C12FB214FF4A270CA
:101F0000FFF7CCFB10BD38B504460020182340F283
:101F1000E11201460090FEF7E0FF0020D74948603B
:101F20004FF6FF7008600023D5A203210420FFF7BD
:101F3000B5FB38BD08B543F6AC102AF0AAFC052065
:101F4000FD234FF4BA725C21009004202AF044FA79
:101F500008BD10B504464AF2FF502AF09AFCCA4860
:101F60002AF0A8FC1823C022002108462AF008FA0B
:101F700000202AF08EFC02202AF0DAFCC34901EB93
:101F80004411C34A127801EB0210022200212AF008
:101F900017F910BD10B50020FFF7DBFFFFF7CAFFF0
:101FA00010BD7CB5054600202AF0C2FC42F669202F
:101FB0002AF064FC6FF07F402AF06BFC00242EE0D6
:101FC0004FF4BE70ADF8000004EB4400042101EBB7
:101FD0000010062101FB040000B2ADF802004FF42E
:101FE000EE70ADF80400601C00EB4000042101EB32
:101FF0000010062101FB040000B2ADF80600C4EB9E
:10200000C401A44A02EB8101A14A1278C2EBC202C8
:1020100001EB42000E2269462AF0E6F8641C052C0A
:10202000CED37CBD10B5FFF7B5FF0020FFF7C0FC95
:102030000020FFF7B6FF00241FE0032C0ED29648C5
:1020400000EB0412601C00EB40001A2303EBC000FD
:1020500081B200230420FFF721FB0DE08E4800EB46
:102060000412A01E00EB40001A2303EBC00081B253
:102070000023B820FFF712FB641C062CDDD310BD33
:1020800008B543F6AC10BE2340F2DF127021009079
:102090000020FEF722FF08BD10B50020FFF733FF38
:1020A000FFF7EEFF10BD08B543F6AC10A02340F2D9
:1020B000DF12562100900020FEF70FFF43F6AC1010
:1020C000E32340F2DF12C12100900020FEF705FF5C
:1020D00008BD10B50020FFF716FFFFF7E4FF10BDA5
:1020E00008B543F6AC10A02340F2DF126021009047
:1020F0000020FEF7F2FE08BD10B50020FFF703FF39
:10210000FFF7EEFF10BD10B5FFF7F6FF4FF6FF70BB
:102110005A49086040F23F20486000235F4A04218A
:102120001846FFF7BBFA4FF6FF70544908605C4849
:10213000486000235BA21A210420FFF7AFFA0023B6
:102140005BA232212C20FFF7A9FA00235BA23221E7
:102150009020FFF7A3FA00235BA23221F420FFF7BF
:102160009DFA00235AA232214FF4AC70FFF796FA81
:10217000002359A232214FF4DE70FFF78FFA0020BE
:10218000FFF7A7FC10BD704700B5FFF7FCFF00BDCF
:1021900010B50120FFF70CFC0320FFF7DAFE4FF625
:1021A000FF702AF076FB3E482AF068FB002422E00C
:1021B000042C0FD2494901EB4411354B1B7801EB3C
:1021C000031004EB4401C90001F11A02042129F0B3
:1021D000F7FF0FE0414901EB44112D4B1B7801EB58
:1021E0000310211F01EB4101C90001F11A02B821BE
:1021F00029F0E6FF641C072CDAD310BD70B501206E
:10220000FFF7D6FB0120FFF7A4FE4FF6FF702AF080
:1022100040FB23482AF032FB1D48B0F8A60D2B21C5
:1022200048431B49343101EBC000001D3439B1F87B
:10223000A61D2B225143164A343202EBC101897884
:10224000C1EBC10110F8210025490D5C00249CE080
:1022500004F0010088B90E49B1F8A61D2B2359439B
:102260000B4B343303EBC101091D343BB3F8A63DDE
:102270002B267343064E343634E054E0240000101D
:102280005A4374656B00000000450600A702060073
:10229000CC0F00101B0206002DF40500A903060058
:1022A0003366CC00E696B9E5BC8F203A000000000A
:1022B000E9A291E78E875B487A5D0000E794B5E577
:1022C000B9B35B565D00000043705B465D000000E3
:1022D000445B205D00000000434D5000749C0500ED
:1022E000C49B050006EBC3039B78C3EBC30311F843
:1022F00023104D235943FE4B03EB8101C4EBC40370
:1023000001EB8301A6F134031B78C3EBC30301EB9C
:102310004300610801EB4101C90001F11A020421E7
:1023200029F04EFF30E0F349B1F8A61D2B235943A5
:10233000F04B343303EBC1031B1DEE49B1F8A61D6E
:102340002B267143EB4E343606EBC1018978C1EB85
:10235000C10113F821104D235943E54B03EB8101D3
:10236000C4EBC40301EB8301E24B1B78C3EBC30353
:1023700001EB4300611E01EB4101C9001A2303EB8D
:102380005102B82129F01CFF641CAC42FFF460AF7D
:1023900070BD10B50446D84901EB4411D54A1278F6
:1023A00001EB0210F222B42129F00AFF10BD2DE941
:1023B000F8430446204630F061F805460022CF4B32
:1023C00030F0F0F90BD2CE4C41F29C30ADF8000069
:1023D00002208DF8020001208DF8030080E02046E5
:1023E00030F04CF805460022C64B30F0DBF914D82B
:1023F000204630F043F805460022C34B2FF036FE4E
:1024000007462FF0F7FF80B2ADF8000002208DF8EC
:10241000020001208DF8030062E0204630F02EF823
:1024200005460022B94B30F0BDF914D8204630F0F3
:1024300025F805460022B64B2FF018FE07462FF070
:10244000D9FF80B2ADF8000003208DF80200012012
:102450008DF8030044E0204630F010F805460022D5
:10246000AC4B30F09FF914D8204630F007F8054601
:102470000022A94B2FF0FAFD07462FF0BBFF80B2D8
:10248000ADF8000001208DF8020000208DF8030057
:1024900026E020462FF0F2FF054600229A4B30F04E
:1024A00081F914D820462FF0E9FF054600229B4B06
:1024B0002FF0DCFD07462FF09DFF80B2ADF8000045
:1024C00002208DF8020000208DF8030008E0A0B281
:1024D000ADF8000003208DF8020000208DF8030005
:1024E0000098BDE8F8832DE9F843044620462FF014
:1024F000C5FF05460022814B30F054F90AD2804CCA
:1025000041F29C30ADF8000002208DF802008DF8F9
:1025100003007EE020462FF0B1FF05460022794BF4
:1025200030F040F914D820462FF0A8FF05460022CD
:10253000754B2FF09BFD07462FF05CFF80B2ADF886
:10254000000002208DF8020003208DF8030060E0F7
:1025500020462FF093FF054600226C4B30F022F905
:1025600014D820462FF08AFF05460022684B2FF032
:102570007DFD07462FF03EFF80B2ADF80000012040
:102580008DF8020002208DF8030042E020462FF073
:1025900075FF054600225F4B30F004F914D8204641
:1025A0002FF06CFF05460022594B2FF05FFD0746C8
:1025B0002FF020FF80B2ADF8000001208DF802005E
:1025C00002208DF8030024E020462FF057FF054637
:1025D00000224D4B30F0E6F813D820462FF04EFF86
:1025E000054600224C4B2FF041FD07462FF002FF1D
:1025F00080B2ADF8000002208DF802008DF80300D3
:1026000007E0A0B2ADF8000001208DF802008DF8BF
:1026100003000098BDE8F8832DE9FC478246404856
:102620002AF037F93F482AF029F93F482AF042F9C1
:1026300000202AF07DF92F48B0F8A60D2B21484341
:102640002C49343101EBC000001D3439B1F8A61D0E
:102650002B225143274A343202EBC1018978C1EB66
:10266000C10100EB810040883049096888426BD87D
:102670002049B1F8A61D2B2251431E4A343202EBE9
:10268000C101091D343AB2F8A62D2B235A43194B28
:10269000343303EBC2029278C2EBC20201EB820137
:1026A00048882FF0EBFECDE900011249B1F8A61DD4
:1026B0002B2251430F4A343202EBC101091D343A37
:1026C000B2F8A62D2B235A430A4B343303EBC20234
:1026D0009278C2EBC20201EB820148882FF0CEFE55
:1026E00006460F46114908682FF0C8FE80461FE0D5
:1026F00010A40500CC0F0010949E050084D78741DC
:1027000080F0FA02D01263410088C34080842E41D9
:1027100000408F40006AF84000005940000024400B
:10272000FFFF80003366CC00004506004003001028
:1027300032463B4630F05EF90446DDE900232FF0D7
:1027400095FCF84A03C267E0F748B0F8A60D2B21C4
:102750004843F549343101EBC000001D3439B1F86C
:10276000A61D2B225143F04A343202EBC101897875
:10277000C1EBC10100EB81004088EC490968884247
:102780004AD9E949B1F8A61D2B225143E64A343211
:1027900002EBC101091D343AB2F8A62D2B235A438E
:1027A000E14B343303EBC2029278C2EBC20201EB7D
:1027B000820148882FF062FE80468946DB4908681E
:1027C0002FF05CFE04460D46D749B1F8A61D2B221A
:1027D0005143D54A343202EBC102121DD249B1F83D
:1027E000A61D2B235943D04B343303EBC101897809
:1027F000C1EBC10102EB810148882FF03FFE064684
:1028000022462B4630F0F6F842464B46CDE9000111
:102810002FF02CFCC34A03C2C54AC64BC14903C9A9
:102820002FF086FE1ED8C049B1F8A61D2B225143B9
:10283000BD4A343202EBC101091D343AB2F8A62D6B
:102840002B235A43B84B343303EBC2029278C2EBCA
:10285000C20201EB82014888002304220321FEF713
:10286000EFFF06E0B1490023042208680321FEF7C8
:10287000E7FFB1A1B14826F092FC0AEB8A00800084
:1028800000F128025021AD4829F09AFCA648B0F882
:10289000A60D2B214843A449343101EBC0004078F8
:1028A000022831D1A048B0F8A60D2B2148439E49FB
:1028B000343101EBC001091D9B48B0F8A60D2B2255
:1028C0005043994A343202EBC0008078C0EBC0001C
:1028D00011F8200002280BD11421994826F02CFD74
:1028E000974896490968016096A126F058FC21E0B6
:1028F0001421954826F020FD93489049096801600D
:1029000090A126F04CFC15E014218F4826F014FD10
:102910008D488A49096801608AA126F040FC14218B
:10292000874826F009FD864884490968016085A129
:1029300026F035FC7C48B0F8A60D2B2148437A4997
:10294000343101EBC000001D3439B1F8A61D2B2233
:102950005143754A343202EBC1018978C1EBC101A0
:1029600010F82100052875D2DFE800F0030493DB9E
:10297000DA0000BF6D4840684FF6FF71884206D10B
:102980006E4872A10A680260898881806FE066489B
:10299000C08D01283CD16448B0F8A60D2B214843D6
:1029A0006149343101EBC00101F5A1715E48B0F815
:1029B000A60D2B2250435C4A343202EBC0008078D3
:1029C000401E31F8100059494968884203D9002057
:1029D000564948601CE05448B0F8A60D2B214843E6
:1029E0005149343101EBC00101F5A1714E48B0F8F5
:1029F000A60D2B2250434C4A343202EBC0008078A3
:102A0000401E31F8100049494968081A4749486092
:102A10005048007801280CD144490023042248681A
:102A20000321FEF70DFF484844490968C0F8071024
:102A30001DE04848007870B93C49002304224868EA
:102A40000221FEF7FDFE40483C49D1F80110C0F8D4
:102A500007100CE0D6E03549002304224868012124
:102A6000FEF7EEFE38483CA10968C0F807103CA10B
:102A7000354826F094FB3BA1304826F090FB0AEB4A
:102A80008A00800000F12802A0212C4829F098FB40
:102A9000B9E026484068344988420AD1274833A122
:102AA0000A6802604968416033A1254826F077FB37
:102AB0001CE01E494868FFF716FD01903048019957
:102AC000016002469178108800230422FEF7B8FEC8
:102AD0002B48C07800EB80002A4A02EB40011748DF
:102AE00026F05DFB1549164826F059FB0AEB8A00D3
:102AF000800000F12802A021104829F061FB204845
:102B0000C07820B920A10E4826F049FB48E01C48B7
:102B1000C07801283CD11DA1094826F040FB3FE0C8
:102B20006FE03EE040000010CC0F001040030010AA
:102B30007B14AE47E17A843F6B560000800F001093
:102B4000B40700106B563B00A007001055505045CD
:102B5000520000000B010010302E30300000000049
:102B60006D413B006D412000F6FF09005550504576
:102B700052202020000000003E3939393900000081
:102B800030000010D30706006B3B00004D3B0000F7
:102B9000FE48C078022803D1FDA1FE4826F0FFFAC6
:102BA00031E0FD4840684FF6FF71884207D1FB488D
:102BB000AFF248010A680260496841600EE0F649D8
:102BC0004868FFF7F4FB0190F04801990160024664
:102BD0009178108800230422FEF732FEEB48C0787B
:102BE00000EB4000EE4A8118EC4826F0D8FA0AEBD8
:102BF0008A00800000F12802A021E84829F0E0FACC
:102C000001E000E000BF00BFE3490889012304227E
:102C10001946FEF715FEE3A1E04826F0C0FAF322BC
:102C20005421DE4829F0CCFADF490878FFF7B1FBE0
:102C3000BDE8FC872DE9F843044620462FF01EFC32
:102C400005460022D94B2FF0ADFD13D820462FF0BA
:102C500015FC05460022D64B2FF008FA07462FF048
:102C6000C9FB80B2ADF8000002208DF802008DF89B
:102C7000030025E020462FF001FC05460022CD4B45
:102C80002FF090FD13D820462FF0F8FB05460022C8
:102C9000C94B2FF0EBF907462FF0ACFB80B2ADF833
:102CA000000002208DF802008DF8030008E0A0B2B9
:102CB000ADF8000003208DF8020001208DF803001C
:102CC0000098BDE8F88338B50120FEF771FE0520B5
:102CD000FFF73FF9B94829F0DCFD18234FF4B9722A
:102CE0000321C82029F04CFB022029F021FE6FF0BF
:102CF0007F4029F0CEFDB248B0F8A60D421CB1A12C
:102D0000A64825F0EBFF0322C821A44829F058FA71
:102D10006FF07F4029F0BDFDAD4829F0CBFD0024C8
:102D20000FE0AC4A02EB4412A54B1B7802EB0310F8
:102D300004EB8402642303EB0211282229F040FAF9
:102D4000641C032CEDD3A44829F0B4FD002426E034
:102D5000601C00EB80008000283002B202231421A6
:102D6000601C29F085F99649B1F8A61D2B2359431B
:102D7000934B343303EBC101091D631CC3EBC30345
:102D800011F82310954B03EBC100611C01EB81018D
:102D9000890001F12802322129F012FA641C8848C6
:102DA000B0F8A60D2B2148438549343101EBC00012
:102DB0004078A042CCD88A4829F06BFD844829F09D
:102DC00079FD002490E07E49B1F8A61D2B225143E5
:102DD0007B4A343202EBC101091D621CC2EBC20204
:102DE00001EB82014888002304220321FEF728FD1D
:102DF000AFF2BC21694826F0D2F9601C00EB8000DC
:102E0000800000F128025021644829F0D9F96C496A
:102E1000B1F8A61D2B225143694A343202EBC1019D
:102E2000091D621CC2EBC20201EB82014868FFF778
:102E300001FF00909DF80210BDF80000002304225D
:102E4000FEF7FEFC5E48B0F8A60D2B2148435C4916
:102E5000343101EBC000001D611CC1EBC10110F851
:102E6000210080B15648B0F8A60D2B2148435449A3
:102E7000343101EBC000001D611CC1EBC10110F831
:102E80002100012804D15749444826F088F91BE065
:102E90004B48B0F8A60D2B2148434949343101EB8A
:102EA000C000001D611CC1EBC10110F82100022807
:102EB0000AD19DF803004B4A103A02EB001000F1D2
:102EC0000801364826F06BF9601C00EB800080009A
:102ED00000F12802A021314829F072F9642211463C
:102EE000EA2029F0B1F8641C3548B0F8A60D2B2172
:102EF00048433349343101EBC0004078A0423FF6EB
:102F000062AF334829F0D6FC38BD38B50120FEF752
:102F10004FFD0020FFF71DF8284829F0BAFC1823C0
:102F20004FF4B9720321C82029F02AFA022029F0AF
:102F3000FFFC6FF07F4029F0ACFC2148B0F8A60DF3
:102F4000421C20A1154825F0C9FE0322C8211348C0
:102F500029F036F96FF07F4029F09BFC174829F0E3
:102F60008DFC002496E004F00100E8BB1449B1F8A0
:102F7000A61D2B235943124B343303EBC101091D0A
:102F8000343BB3F8A63D2B256B432EE030000010F8
:102F9000473B0000B407001040030010800F0010F2
:102FA000190906002073000034010010006AF8407F
:102FB0000000594000409F40000024403366CC0090
:102FC000CC0F001047726F75702025302E326400D0
:102FD00000450600149C0500FCFD060018EA0500EB
:102FE000FFFF800070EA050022E0FE4D05EBC30301
:102FF0009B78C3EBC30311F823104D235943FA4BBD
:1030000003EB8101C4EBC40301EB8301A5F134039D
:103010001B78C3EBC30301EB4300611C490801EBC0
:103020004101C90001F11A02042129F0C9F830E078
:10303000EC493439B1F8A61D2B235943E94B03EB76
:10304000C101091D343BB3F8A63D2B256B43E54D6B
:1030500005EBC3039B78C3EBC30311F823104D2387
:103060005943E14B03EB8101C4EBC40301EB830142
:10307000A5F134031B78C3EBC30301EB4300611ECE
:10308000490801EB4101C90001F11A02B82129F0F8
:1030900097F8641C0B2CFFF466AF6FF07F4029F0AB
:1030A000F8FBD0483438B0F8A60D2B214843CD4961
:1030B00001EBC0004378A1F13400B0F8A60D2B213C
:1030C0004843C84901EBC0008278C8A1C94825F02F
:1030D00005FE1A227821C74829F072F8C14934390F
:1030E000B1F8A61D2B225143BE4A02EBC101091DB6
:1030F000343AB2F8A62D2B235A43BA4B03EBC20243
:103100009278C2EBC20211F82210BB4A02EBC10056
:103110001A224FF4967129F053F8B2483438B0F8B7
:10312000A60D2B214843AF4901EBC000001D3439E7
:10313000B1F8A61D2B225143AA4A02EBC10189789E
:10314000C1EBC10110F8210005286FD2DFE810F0B3
:103150000500F00116044A058706A2493439B1F882
:10316000A61D2B2251439F4A02EBC101091D343A8F
:10317000B2F8A62D2B235A439A4B03EBC202927846
:10318000C2EBC20201EB8201488800230422032122
:10319000FEF756FBAFF26061964826F000F8322247
:1031A0007821944829F00CF88E483438B0F8A60DF0
:1031B0002B2148438B4901EBC001091D8948343854
:1031C000B0F8A60D2B225043864A02EBC00080784F
:1031D000C0EBC00001EB8000008940B3A2F13401D4
:1031E000B1F8A61D2B2251437E4A02EBC102121DEB
:1031F0007C493439B1F8A61D2B235943794B03EB95
:10320000C1018978C1EBC10102EB8101088900236A
:1032100004220121FEF714FB78A1764825F0BFFFB8
:103220004A227821734828F0CBFF0BE0FDE3FFE74B
:103230006C4934390978724A02EBC1004A2278217C
:1032400028F0BEFF67483438C08B00285ED0654840
:103250003438B0F8A60D2B214843624901EBC00178
:10326000091D60483438B0F8A60D2B2250435D4A42
:1032700002EBC0008078C0EBC00001EB8000408A08
:10328000002838DDA2F13400B0F8A60D2B21484308
:10329000114601EBC000001D3439B1F8A61D2B22E8
:1032A0005143504A02EBC1018978C1EBC10100EBE7
:1032B0008100408A09281EDCA2F13401B1F8A61D64
:1032C0002B225143474A02EBC102121D45493439B2
:1032D000B1F8A61D2B235943424B03EBC10189785A
:1032E000C1EBC10102EB8101488A012362227821EE
:1032F00028F0BEFE55E03B4934390978414A02EBDB
:10330000C1006222782128F05BFF4AE0354834385A
:10331000B0F8A60D2B214843324901EBC001091D2D
:1033200030483438B0F8A60D2B2250432D4A02EB1A
:10333000C0008078C0EBC00001EB8000408A30B351
:10334000A2F13401B1F8A61D2B225143254A02EB0C
:10335000C101091D343AB2F8A62D2B235A43214B43
:1033600003EBC2029278C2EBC20201EB8201488AEF
:10337000002303220121FEF763FA23A11D4825F053
:103380000EFF622278211B4828F01AFF09E0154938
:10339000343909781B4A02EBC1006222782128F0F7
:1033A0000FFF10493439B1F8A61D2B2251430D4AA5
:1033B00002EBC101091D343AB2F8A62D2B235A4362
:1033C000084B03EBC2029278C2EBC20201EB82010E
:1033D0004868FFF72FFC00909DF80210BDF8000030
:1033E000002313E00010001014AA050025642F2507
:1033F00064000000800F001018EA05007300000050
:1034000008EA0500F8E805006D4100000422FEF717
:1034100017FAFE49FE4825F0C2FE32224FF496719B
:10342000FB4828F0CDFEFB48B0F8A60D2B21484301
:10343000F849343101EBC001091DF648B0F8A60D7A
:103440002B225043F34A343202EBC0008078C0EBA9
:10345000C00001EB8000C06870B3EE49B1F8A61D52
:103460002B225143EB4A343202EBC102121DE949CF
:10347000B1F8A61D2B235943E64B343303EBC101AE
:103480008978C1EBC10102EB8101C868FFF7D2FB6B
:1034900000909DF80210BDF8000000230422FEF702
:1034A000CFF9DA49DA4825F07AFE4A224FF49671CC
:1034B000D74828F085FE09E0D6490978D64A02EBBC
:1034C000C1004A224FF4967128F07AFE4FF6FF7041
:1034D00029F0DFF9D14829F0D1F9002029F028FAA4
:1034E000CF4829F0E7F978222821CEA028F068FEFD
:1034F0007822F021AFF6C01028F062FEAA2228211F
:10350000C9A028F05DFEAA22F021AFF2041028F035
:1035100057FEC64829F0CEF9F3223421C4A028F082
:103520004FFEF3228C21AFF22C1028F049FE24E24A
:10353000B849B1F8A61D2B225143B64A343202EBEA
:10354000C102121DB349B1F8A61D2B235943B14B3B
:10355000343303EBC1018978C1EBC10102EB810176
:103560004888002304220321FEF76AF9AFF63821C8
:10357000A74825F014FE32227821A54828F020FE25
:10358000A448B0F8A60D2B214843A249343101EBE1
:10359000C000001D3439B1F8A61D2B2251439D4AAD
:1035A000343202EBC1018978C1EBC10100EB81002B
:1035B000008940B39749B1F8A61D2B225143954A83
:1035C000343202EBC101091D343AB2F8A62D2B2387
:1035D0005A43904B343303EBC2029278C2EBC202DF
:1035E00001EB82010889002304220121FEF728F95A
:1035F000AFF2F811864825F0D2FD4A22782184489E
:1036000028F0DEFD08E0834909788A4A02EBC10010
:103610004A22782128F0D4FD7E49B1F8A61D2B223C
:1036200051437C4A343202EBC101091D343AB2F8ED
:10363000A62D2B235A43774B343303EBC2029278E7
:10364000C2EBC20201EB82014868FFF7F3FA009077
:103650009DF80210BDF8000000230422FEF7F0F8E8
:103660006A496B4825F09BFD32224FF496716848F9
:1036700028F0A6FD6748B0F8A60D2B214843654900
:10368000343101EBC000001D3439B1F8A61D2B22E6
:103690005143604A343202EBC1018978C1EBC10168
:1036A00000EB8100C06870B35A49B1F8A61D2B2207
:1036B0005143584A343202EBC102121D5549B1F848
:1036C000A61D2B235943534B343303EBC101897897
:1036D000C1EBC10102EB8101C868FFF7ABFA0090B2
:1036E0009DF80210BDF8000000230422FEF7A8F8A0
:1036F0004649474825F053FD4A224FF49671444805
:1037000028F05EFD0AE0FFE742490978424A02EBF1
:10371000C1004A224FF4967128F052FD3D48C08BFB
:10372000F0B33C48B0F8A60D2B2148433949343159
:1037300001EBC000001D3439B1F8A61D2B22514306
:10374000344A343202EBC1018978C1EBC10100EB8C
:103750008100408A00283ADD2E48B0F8A60D2B21C2
:103760004843114601EBC000001D3439B1F8A61DD5
:103770002B225143274A343202EBC1018978C1EB35
:10378000C10100EB8100408A092820DC2149B1F801
:10379000A61D2B2251431F4A343202EBC10200E026
:1037A0001FE0121D1B49B1F8A61D2B235943194BCD
:1037B000343303EBC1018978C1EBC10102EB810114
:1037C000488A01236222782128F052FCA1E01149A5
:1037D0000978114A02EBC1006222782128F0F0FC3E
:1037E00097E00C48B0F8A60D2B2148430949343125
:1037F00001EBC001091D0748B0F8A60D2B2250436C
:10380000044A343202EBC000807815E070EA05000B
:10381000800F0010CC0F0010F8E805003366CC00D4
:10382000ACA00600563A0000493A000000450600E8
:1038300054203A0008EA0500C0EBC00001EB80000C
:10384000408AE8B3A2F13400B0F8A60D2B2148431A
:10385000114601EBC000001D3439B1F8A61D2B2222
:103860005143FE4A02EBC1018978C1EBC10100EB73
:103870008100408AC82818DDC823A2F13400B0F8BE
:10388000A60D2B214843114601EBC000001D343921
:10389000B1F8A61D2B224A43F04901EBC2018978F9
:1038A000C1EBC10100EB81004382EC493439B1F82E
:1038B000A61D2B225143E94A02EBC101091D00E07C
:1038C0001DE0343AB2F8A62D2B235A43E34B03EB09
:1038D000C2029278C2EBC20201EB8201488A002345
:1038E00003220121FDF7ACFFAFF2E441DC4825F0F3
:1038F00056FC62227821DA4828F062FC09E0D749B8
:1039000034390978D74A02EBC1006222782128F0C5
:1039100057FC4FF6FF7028F0BCFFD34828F0AEFFED
:10392000002029F005F8D14828F0C4FF782228218A
:10393000AFF2101028F044FC7822F021AFF60860B6
:1039400028F03EFCAA222821AFF2241028F038FCEF
:10395000AA22F021AFF2505028F032FCC44828F0DF
:10396000A9FFF3223421AFF2381028F029FCF3220A
:103970008C21AFF2785028F023FCE8E2B7493439C3
:10398000B1F8A61D2B225143B44A02EBC102121D0D
:10399000B2493439B1F8A61D2B235943AF4B03EB81
:1039A000C1018978C1EBC10102EB81014888002384
:1039B00004220321FDF744FFAFF68461A84825F0F7
:1039C000EEFB32227821A64828F0FAFBA3483438CF
:1039D000B0F8A60D2B214843A04901EBC000001D03
:1039E0003439B1F8A61D2B2251439C4A02EBC10188
:1039F0008978C1EBC10100EB8100008948B3A2F1D5
:103A00003401B1F8A61D2B225143944A02EBC101A7
:103A1000091D343AB2F8A62D2B235A438F4B03EBE2
:103A2000C2029278C2EBC20200E08FE201EB820197
:103A30000889002304220121FDF702FFAFF244614F
:103A4000874825F0ACFB4A227821854828F0B8FB4E
:103A500009E0824934390978864A02EBC1004A22DA
:103A6000782128F0ADFB7D483438B0F8A60D2B2125
:103A700048437A4901EBC001091D78483438B0F851
:103A8000A60D2B225043754A02EBC0008078C0EB94
:103A9000C00001EB8000406898B3A2F13401B1F896
:103AA000A61D2B2251436D4A02EBC101091D343A78
:103AB000B2F8A62D2B235A43684B03EBC20292782F
:103AC000C2EBC20201EB82014868FEF70CFD0090D8
:103AD0009DF80210BDF8000000230422FDF7B0FE9F
:103AE0009DF80300644A02EB001000F108015C48F5
:103AF00025F055FB32224FF49671594828F060FBAF
:103B00000BE0FFE7554934390978564A02EBC1000A
:103B100032224FF4967128F053FB50493439B1F8F2
:103B2000A61D2B2251434D4A02EBC101091D343A17
:103B3000B2F8A62D2B235A43484B03EBC2029278CE
:103B4000C2EBC20201EB8201C868FEF7CCFC009018
:103B50009DF80210BDF8000000230422FDF770FE5E
:103B60009DF80300444A02EB001000F108013C48B4
:103B700025F015FB4A224FF49671394828F020FBB6
:103B80004FF6FF7028F085FE374828F077FE0020BA
:103B900028F0CEFE354828F08DFE78222821AFF29D
:103BA0007C3028F00DFB7822F02134A028F008FBAF
:103BB000AA22282132A028F003FBAA22F02131A05A
:103BC00028F0FEFA2A4828F075FEF3223421AFF2DD
:103BD000A03028F0F5FAF3228C21AFF2E07028F043
:103BE000EFFAB4E11D483438B0F8A60D2B21484354
:103BF0001A4901EBC000001D3439B1F8A61D2B2372
:103C00005943164B03EBC1018978C1EBC10100EBAD
:103C100081001DA1C268124825F060F83222782187
:103C20000F4828F0CDFA0D483438B0F8A60D2B21F6
:103C300048430A4901EBC001091D08483438B0F86F
:103C4000A60D2B225043054A02EBC0008078C0EB42
:103C5000C00001EB80004068642819E000100010EB
:103C6000800F0010F8E805003366CC00ACA0060019
:103C70000045060008EA050060EA05006B560000F2
:103C8000523A0000CEA9000025336425250000002B
:103C900022D3A2F13400B0F8A60D2B2148431146DF
:103CA00001EBC000001D3439B1F8A61D2B23594388
:103CB000134603EBC1018978C1EBC10100EB810020
:103CC000AFF23C014268FE4825F008F84A2278210C
:103CD000FB4828F075FA08E0FA490978FA4A02EB3D
:103CE000C1004A22782128F06BFAF648B0F8A60DF8
:103CF0002B214843F349343101EBC000001D343916
:103D0000B1F8A61D2B225143EE4A343202EBC10119
:103D10008978C1EBC10100EB8100C08AE0B3E948BA
:103D2000B0F8A60D2B214843114601EBC000001D41
:103D30003439B1F8A61D2B225143E24A343202EB4A
:103D4000C1018978C1EBC10100EB8100C08AB0F5E7
:103D50007A7F22DBDB48B0F8A60D2B2148431146C1
:103D600001EBC001091DD748B0F8A60D2B22504326
:103D7000D44A343202EBC0008078C0EBC00001EBC3
:103D80008000C08A0A2190FBF1F500230422022161
:103D90002846FDF755FD1EE028E0CA49B1F8A61DEA
:103DA0002B225143C74A343202EBC101091D343A78
:103DB000B2F8A62D2B235A43C24B343303EBC20275
:103DC0009278C2EBC20201EB8201C88A002304226E
:103DD0000321FDF735FDBD49B94825F0E0F9322250
:103DE0004FF49671B64828F0EBF905E032224FF413
:103DF0009671B7A028F0E4F94FF6FF7028F049FD5E
:103E0000B54828F03BFD002028F092FDB34828F08B
:103E100051FD78222821AFF2F45028F0D1F9782210
:103E2000F021AFF2A81028F0CBF9AA222821ACA0EB
:103E300028F0C6F9AA22F021AAA028F0C1F9AA48C0
:103E400028F038FDF3223421AFF21C6028F0B8F9D5
:103E5000F3228C21AFF65C2028F0B2F977E0322211
:103E60007821A2A028F0ACF99649B1F8A61D2B2222
:103E70005143944A343202EBC102121D9149B1F808
:103E8000A61D2B2359438F4B343303EBC101897893
:103E9000C1EBC10102EB810189698B4A02EB01117F
:103EA000884A127801EBC20032224FF4967128F052
:103EB00087F98448B0F8A60D2B2148438149343155
:103EC00001EBC000001D3439B1F8A61D2B2251436F
:103ED0007C4A343202EBC1018978C1EBC10100EBAD
:103EE0008100008940B37749B1F8A61D2B225143C8
:103EF000744A343202EBC102121D7249B1F8A61D98
:103F00002B2359436F4B343303EBC1018978C1EB49
:103F1000C10102EB81010889002304220121FDF780
:103F20008FFCAFF62831664825F039F94A2278210E
:103F3000634828F045F908E0624909786D4A02EBC8
:103F4000C1004A22782128F03BF900E000BF00BF01
:103F500038BD10B50120FDF72BFD0220FDF7F9FF5C
:103F60004FF6FF7028F095FC5B4828F087FC002492
:103F70002CE004F00100A0B9C4EB04115E4B03EB8C
:103F80004101504B1B78C3EB0313C818611C49084F
:103F900001EB4101C90001F11A02042128F010F9D6
:103FA00013E0C4EB0411544B03EB4101454B1B7868
:103FB000C3EB0313C818611E490801EB4101C90096
:103FC00001F11A02B82128F0FBF8641C102CD0D3A0
:103FD00010BD38B50446012C00D100E00020054694
:103FE0001DB1FF204549486002E03B484349486015
:103FF0004248808880B24823C0223021009054205B
:10400000FCF76BFF3D48808880B200903B480088F9
:1040100083B23B4800783130C2B230216C20FCF7CB
:10402000F3FF022C01D1012000E0002005461DB164
:10403000FF203249486002E0274830494860304953
:10404000097801EB81022E49891C01EB8201C889A4
:10405000002304221946FDF7F3FB2848808880B22C
:104060005E23C0224A2100905420FCF736FF002333
:10407000134A4A215C20FDF711FB002321A24A21AB
:104080008E20FDF70BFB032C01D1012000E0002066
:1040900005461DB1FF201949486002E00E48174946
:1040A00048601749097801EB81021549891C01EB29
:1040B0008201088A002304221946FDF7C1FB23E090
:1040C000800F0010CC0F0010F8E805001C09060056
:1040D0004E4F4E45000000003366CC00ACA00600F9
:1040E000433A00006E46000000450600504155531B
:1040F0004500000008EA05006EEE050024000010EF
:10410000980800104DCEA900FB48808880B2762325
:10411000C022622100905420FCF7DFFE0023F74A02
:1041200062215C20FDF7BAFA0023AFF22802622177
:104130008E20FDF7B3FA042C01D1012000E000200D
:1041400005461DB1FF20EC49486002E0EC48EA4911
:104150004860EC48006811281DD1E748808880B28B
:1041600046234FF4C872302100904FF48670FCF75C
:10417000B4FEE548007800EB8001E348801C00EBCA
:1041800081004089E14901EB0012002332214FF404
:104190008670FDF783FA052C01D1012000E0002094
:1041A00005461DB1FF20D449486002E0D448D249F9
:1041B0004860D549097801EB8102D349891C01EB9C
:1041C00082014888002304221946FDF739FBCA48BA
:1041D000808880B25E234FF4C8724A2100904FF469
:1041E0008470FCF77AFE0023C44A4A214FF48D7094
:1041F000FDF754FA0023C6A24A214FF4A070FDF740
:104200004DFA062C01D1012000E0002005461DB129
:10421000FF20B949486002E0B948B7494860BA4947
:10422000097801EB8102B849891C01EB8201888879
:10423000002304220121FDF703FB0023AF4A622182
:104240004FF48870FDF72AFA0023B2A262214FF4DE
:10425000A070FDF723FA38BD7CB506460D46012057
:10426000FDF7A6FB022028F063FB6FF07F4028F0EB
:1042700010FB0024F7E04FF4BE70ADF8000004EB33
:104280004400042101EB0010062101FB040000B2F0
:10429000ADF802004FF4EE70ADF80400601C00EBC6
:1042A0004000042101EB0010062101FB040000B2D4
:1042B000ADF80600052E38D2DFE806F00338506866
:1042C0009D00954890F8A50D032817D0C5EBC501B2
:1042D00001EB8101914A02EB81018F4A1278C2EB16
:1042E000C20202EB820201EB4201C4EBC40201EB09
:1042F00042000E22694627F077FF16E0C5EBC501A4
:1043000001EB8101864A02EB8101834A1278C2EBFC
:10431000C20202EB820201EB4201C4EBC40201EBD8
:1043200042000E22694627F05FFF99E0C5EBC50108
:1043300001EB81017B4A02EB8101774A1278C2EBE3
:10434000C20202EB820201EB4201C4EBC40201EBA8
:1043500042000E22694627F047FF81E0C5EBC50108
:1043600001EB8101704A02EB81016B4A1278C2EBCA
:10437000C20202EB820201EB4201C4EBC40201EB78
:1043800042000E22694627F02FFF69E0624890F84C
:10439000A50D032817D0C5EBC50101EB8101634AC8
:1043A00002EB81015C4A1278C2EBC20202EB82028C
:1043B00001EB4201C4EBC40201EB42000E2269464C
:1043C00027F012FF16E0C5EBC50101EB8101584A49
:1043D00002EB8101504A1278C2EBC20202EB820268
:1043E00001EB4201C4EBC40201EB42000E2269461C
:1043F00027F0FAFE34E0484890F8A50D032817D0BE
:10440000C5EBC50101EB81014A4A02EB8101424A39
:104410001278C2EBC20202EB820201EB4201C4EB52
:10442000C40201EB42000E22694627F0DDFE16E0D1
:10443000C5EBC50101EB81013F4A02EB8101364A20
:104440001278C2EBC20202EB820201EB4201C4EB22
:10445000C40201EB42000E22694627F0C5FE00BFF0
:1044600000BF601CC4B2052CFFF605AF7CBDF8B5DB
:10447000054600BF224828F00CFA18234FF4B97201
:104480000321C82027F07CFF022028F051FA6FF0AA
:104490007F4028F0FEF92048B0F8A60D421C2749BD
:1044A000164824F01BFC0322C821144827F088FE7C
:1044B00001245CE0AC4203D1FF2028F0EAF902E0DD
:1044C0000F4828F0E6F904F00100A0B1601E0122B7
:1044D00002EB500000EB4000C00000F11803601E2A
:1044E00000EB4000C000182202EB5001B4225A2019
:1044F00027F046FF3AE023E024000010800F001070
:104500003366CC00300100109808001060F90500F7
:104510002056000020730000CC0F001018B00500DA
:1045200020BC050088CC050018D3050090B5050017
:1045300098C10500D8B80500E0C40500C42F0200EA
:10454000601E012202EB500000EB4000C00000F1B1
:104550001803601E400800EB4000C00000F1180185
:104560004FF4B7724FF48A7027F00AFF641CFE48BC
:10457000B0F8A60D2B214843FB49343101EBC000B4
:10458000001D3439B1F8A61D2B225143F64A3432AE
:1045900002EBC1018978C1EBC10110F82100F34998
:1045A000085C401CA04285D8022028F0C1F96FF0B9
:1045B0007F4028F06EF9EC48B0F8A60D2B21484357
:1045C000E949343101EBC0004378E748B0F8A60D63
:1045D0002B214843E449343101EBC0008278E4499F
:1045E000E44824F07BFB1A227821E24827F0E8FD1A
:1045F000DD49B1F8A61D2B225143DB4A343202EBD0
:10460000C101091D343AB2F8A62D2B235A43D64BCB
:10461000343303EBC2029278C2EBC20211F82210CB
:10462000D54A02EBC1001A224FF4967127F0C8FD5B
:10463000CD48B0F8A60D2B214843CB49343101EBCE
:10464000C001091DC848B0F8A60D2B225043C64A28
:10465000343202EBC0008078C0EBC00011F82000BB
:10466000052881F06081DFE810F005008B02040668
:10467000F707E608BC49B1F8A61D2B225143BA4AF8
:10468000343202EBC101091D343AB2F8A62D2B23B6
:104690005A43B54B343303EBC2029278C2EBC202E9
:1046A00001EB82014888002304220321FDF7C8F8AA
:1046B000AFF63821AF4824F072FD32227821AD48A0
:1046C00027F07EFDA848B0F8A60D2B214843A64947
:1046D000343101EBC001091DA348B0F8A60D2B220F
:1046E0005043A14A343202EBC0008078C0EBC000D6
:1046F00001EB8000008938B39B49B1F8A61D2B223D
:104700005143994A343202EBC102121D9649B1F865
:10471000A61D2B235943944B343303EBC1018978F5
:10472000C1EBC10102EB81010889002304220121B0
:10473000FDF786F891A18F4824F031FD4A227821B7
:104740008C4827F03DFD08E0874909788C4A02EB48
:10475000C1004A22782127F033FD8348B0F8A60D26
:104760002B2148438049343101EBC001091D7E48AB
:10477000B0F8A60D2B2250437B4A343202EBC00026
:104780008078C0EBC00001EB8000008A38B3764926
:10479000B1F8A61D2B225143734A343202EBC101FA
:1047A000091D343AB2F8A62D2B235A436E4B3433ED
:1047B00003EBC2029278C2EBC20201EB8201088ACB
:1047C000002304220121FDF73BF86CA1694824F085
:1047D000E6FC62227821674827F0F2FC08E0624993
:1047E0000978684A02EBC1006222782127F0E8FCD0
:1047F0005D48B0F8A60D2B2148435B49343101EBED
:10480000C000001D3439B1F8A61D2B225143564A71
:10481000343202EBC1018978C1EBC10100EB8100A8
:10482000808A38B35049B1F8A61D2B2251434E4A15
:10483000343202EBC102121D4B49B1F8A61D2B23E5
:104840005943494B343303EBC1018978C1EBC101B2
:1048500002EB8101888A002304220121FCF7F0FF8A
:1048600046A1444824F09BFC7A227821414827F055
:10487000A7FC08E03C490978424A02EBC1007A22D1
:10488000782127F09DFC3849B1F8A61D2B22514311
:10489000354A343202EBC102121D3349B1F8A61D6C
:1048A0002B235943304B343303EBC1018978C1EBDF
:1048B000C10102EB81014868FEF7BCF900909DF848
:1048C0000210BDF8000000230422FCF7B9FF2E49B6
:1048D000284824F064FC32224FF49671254827F0D2
:1048E0006FFC2148B0F8A60D2B2148431E493431F6
:1048F00001EBC000001D3439B1F8A61D2B22514335
:10490000194A343202EBC1018978C1EBC10100EBD5
:104910008100C068D0B31449B1F8A61D2B225143C1
:10492000114A343202EBC101091D343AB2F8A62D06
:104930002B235A430C4B343303EBC2029278C2EB65
:10494000C20201EB8201C868FEF774F900909DF87D
:104950000210BDF8000000230422FCF771FF0A4991
:10496000044824F01CFC12E0CC0F0010C49B05008E
:10497000EC330200800F001018EA050073000000FD
:1049800008EA0500F8E8050070EA050006E04A229A
:104990004FF49671FC4827F013FC09E0FB490978B5
:1049A000FB4A02EBC1004A224FF4967127F008FC43
:1049B000F648C08B00287DD0F448B0F8A60D2B2116
:1049C0004843F249343101EBC000001D3439B1F8DD
:1049D000A61D2B225143ED4A343202EBC1018978E6
:1049E000C1EBC10100EB8100408A092818DD0923D1
:1049F000E648B0F8A60D2B214843114601EBC00153
:104A0000091DE248B0F8A60D2B225043DF4A34328C
:104A100002EBC0008078C0EBC00001EB8000438255
:104A2000DA48B0F8A60D2B214843D849343101EBC0
:104A3000C000001D3439B1F8A61D2B225143D34AC2
:104A4000343202EBC1018978C1EBC10100EB810076
:104A5000408A00283BDDCD48B0F8A60D2B21484305
:104A6000114601EBC001091DC848B0F8A60D2B2264
:104A70005043C64A343202EBC0008078C0EBC0001D
:104A800001EB8000408A092821DCC049B1F8A61D4D
:104A90002B225143BD4A343202EBC101091D343A85
:104AA000B2F8A62D2B235A43B84B343303EBC20282
:104AB000927800E016E0C2EBC20201EB8201488A64
:104AC000012362224FF4967127F0D2FA57E0AF49E2
:104AD0000978AF4A02EBC10062224FF4967127F0C9
:104AE0006FFB4CE0A948B0F8A60D2B214843A7491D
:104AF000343101EBC000001D3439B1F8A61D2B2262
:104B00005143A24A343202EBC1018978C1EBC101A1
:104B100000EB8100408A40B39C49B1F8A61D2B22CE
:104B200051439A4A343202EBC101091D343AB2F8BA
:104B3000A62D2B235A43954B343303EBC2029278B4
:104B4000C2EBC20201EB8201488A00230322012149
:104B5000FCF776FE8FA18C4824F021FB62224FF4F3
:104B60009671894827F02CFB09E088490978884A22
:104B700002EBC10062224FF4967127F021FB77E32C
:104B80008249B1F8A61D2B225143804A343202EBF0
:104B9000C101091D343AB2F8A62D2B235A437B4B91
:104BA000343303EBC2029278C2EBC20201EB820102
:104BB0004888002304220321FCF742FEAFF644712B
:104BC000714824F0ECFA322278216F4827F0F8FA85
:104BD0006E48B0F8A60D2B2148436C49343101EBE7
:104BE000C001091D6948B0F8A60D2B225043674A41
:104BF000343202EBC0008078C0EBC00001EB8000D3
:104C0000008940B36149B1F8A61D2B2251435F4A88
:104C1000343202EBC101091D343AB2F8A62D2B2320
:104C20005A435A4B343303EBC2029278C2EBC202AE
:104C300001EB82010889002304220121FCF700FE18
:104C4000AFF2C821504824F0AAFA4A2278214E48EF
:104C500027F0B6FA08E04D4909784F4A02EBC10047
:104C60004A22782127F0ACFA4848B0F8A60D2B214B
:104C700048434649343101EBC001091D4348B0F8AF
:104C8000A60D2B225043414A343202EBC0008078FB
:104C9000C0EBC00001EB8000008A40B33B49B1F893
:104CA000A61D2B225143394A343202EBC101091DA2
:104CB000343AB2F8A62D2B235A43344B343303EB4A
:104CC000C2029278C2EBC20201EB8201088A002381
:104CD00004220121FCF7B4FDAFF260312A4824F030
:104CE0005EFA62227821284827F06AFA08E027490C
:104CF0000978274A02EBC1006222782127F060FA86
:104D00002248B0F8A60D2B2148432049343101EB4D
:104D1000C001091D1D48B0F8A60D2B2250431B4AA7
:104D2000343202EBC0008078C0EBC00001EB8000A1
:104D3000808A40B31549B1F8A61D2B225143134A6E
:104D4000343202EBC101091D343AB2F8A62D2B23EF
:104D50005A430E4B343303EBC2029278C2EBC202C9
:104D600001EB8201888A002304220121FCF768FDFF
:104D7000AFF2F831044824F012FA7A22782102487E
:104D800027F01EFA13E009E0800F0010CC0F00108E
:104D9000F8E805006D41000008EA0500FE490978C1
:104DA000FE4A02EBC1007A22782127F009FAFA487C
:104DB000B0F8A60D2B214843F749343101EBC00070
:104DC000001D3439B1F8A61D2B225143F24A34326A
:104DD00002EBC1018978C1EBC10100EB8100806960
:104DE000F0B3ED48B0F8A60D2B214843114601EB76
:104DF000C000001D3439B1F8A61D2B225143E64AEC
:104E0000343202EBC1018978C1EBC10100EB8100B2
:104E1000806940F6AC51884218D30B46DE48B0F8A2
:104E2000A60D2B214843114601EBC001091DDA48AC
:104E3000B0F8A60D2B225043D74A343202EBC00003
:104E40008078C0EBC00001EB80008361D249B1F8EB
:104E5000A61D2B225143D04A343202EBC10200E09E
:104E60001EE0121DCC49B1F8A61D2B235943CA4B95
:104E7000343303EBC1018978C1EBC10102EB81013D
:104E80000023042288690121FCF7DAFCC4A1C5488B
:104E900024F085F992227821C24827F091F923E085
:104EA000BD49B1F8A61D2B225143BB4A343202EB57
:104EB000C102121DB849B1F8A61D2B235943B64BA8
:104EC000343303EBC1018978C1EBC10102EB8101ED
:104ED0008969B24A02EB0111AF4A127801EBC200B4
:104EE0009222782127F06CF9AB49B1F8A61D2B224C
:104EF0005143A94A343202EBC102121DA649B1F84E
:104F0000A61D2B235943A44B343303EBC1018978ED
:104F1000C1EBC10102EB81014868FDF78BFE0090F7
:104F20009DF80210BDF8000000230422FCF788FC65
:104F30009D499C4824F033F932224FF496719948E8
:104F400027F03EF99448B0F8A60D2B21484392492A
:104F5000343101EBC001091D8F48B0F8A60D2B229A
:104F600050438D4A343202EBC0008078C0EBC00061
:104F700001EB8000C06870B38749B1F8A61D2B22F1
:104F80005143854A343202EBC102121D8249B1F805
:104F9000A61D2B235943804B343303EBC101897881
:104FA000C1EBC10102EB8101C868FDF743FE00902F
:104FB0009DF80210BDF8000000230422FCF740FC1D
:104FC0007949784824F0EBF84A224FF496717548F5
:104FD00027F0F6F80AE0FFE76F4909786F4A02EB1D
:104FE000C1004A224FF4967127F0EAF86A48C08B54
:104FF00000287DD06848B0F8A60D2B2148436649AB
:10500000343101EBC000001D3439B1F8A61D2B224C
:105010005143614A343202EBC1018978C1EBC101CD
:1050200000EB8100408A092818DD09235A48B0F8AE
:10503000A60D2B214843114601EBC001091D56481E
:10504000B0F8A60D2B225043534A343202EBC00075
:105050008078C0EBC00001EB800043824E48B0F87E
:10506000A60D2B2148434C49343101EBC001091DE9
:105070004948B0F8A60D2B225043474A343202EB80
:10508000C0008078C0EBC00001EB8000408A00289F
:105090003BDD4148B0F8A60D2B214843114601EBFA
:1050A000C001091D3C48B0F8A60D2B2250433A4AD6
:1050B000343202EBC0008078C0EBC00001EB80000E
:1050C000408A092821DC3449B1F8A61D2B2251431E
:1050D000314A343202EBC102121D2F49B1F8A61D2C
:1050E0002B2359432C4B343303EBC101897800E067
:1050F00016E0C1EBC10102EB8101488A0123622263
:105100004FF4967126F0B4FF64E023490978234AEE
:1051100002EBC10062224FF4967127F051F859E07A
:105120001D48B0F8A60D2B2148431B49343101EB33
:10513000C000001D3439B1F8A61D2B225143164A78
:10514000343202EBC1018978C1EBC10100EB81006F
:10515000408A58B31049B1F8A61D2B2251430E4A7C
:10516000343202EBC101091D343AB2F8A62D2B23CB
:105170005A43094B343303EBC2029278C2EBC202AA
:1051800001EB8201488A002304220121FCF758FB2D
:10519000AFF2004103480AE0CC0F0010F8E8050028
:1051A00075410000800F001070EA050008E023F050
:1051B000F6FF62224FF49671FE4827F001F809E0ED
:1051C000FD490978FD4A02EBC10062224FF4967155
:1051D00026F0F6FFF848B0F8A60D2B214843F64913
:1051E000343101EBC000001D3439B1F8A61D2B226B
:1051F0005143F14A343202EBC1018978C1EBC1015C
:1052000000EB8100C08A48B3EB49B1F8A61D2B2200
:105210005143E94A343202EBC101091D343AB2F874
:10522000A62D2B235A43E44B343303EBC20292786E
:10523000C2EBC20201EB8201C88A002304220121D1
:10524000FCF7FEFAAFF6CC01DA4823F0A8FF7A2289
:105250004FF49671D74826F0B3FF09E0D649097894
:10526000D64A02EBC1007A224FF4967126F0A8FFCD
:105270005AE3D149B1F8A61D2B225143CE4A34320C
:1052800002EBC101091D343AB2F8A62D2B235A4373
:10529000C94B343303EBC2029278C2EBC20201EB7A
:1052A00082014888002304220321FCF7C9FAC4A123
:1052B000C04823F074FF32227821BE4826F080FFD8
:1052C000BD48B0F8A60D2B214843BB49343101EB52
:1052D000C000001D3439B1F8A61D2B225143B64A37
:1052E000343202EBC1018978C1EBC10100EB8100CE
:1052F000008940B3B049B1F8A61D2B225143AE4AF4
:10530000343202EBC102121DAB49B1F8A61D2B23AA
:105310005943A94B343303EBC1018978C1EBC10177
:1053200002EB81010889002304220121FCF788FA9D
:10533000AFF6B8119F4823F032FF4A2278219D48EA
:1053400026F03EFF08E09C4909789E4A02EBC10026
:105350004A22782126F034FF9748B0F8A60D2B2179
:1053600048439549343101EBC001091D9248B0F81A
:10537000A60D2B225043904A343202EBC0008078B5
:10538000C0EBC00001EB8000008A40B38A49B1F84D
:10539000A61D2B225143884A343202EBC101091D5C
:1053A000343AB2F8A62D2B235A43834B343303EB04
:1053B000C2029278C2EBC20201EB8201088A00238A
:1053C00004220121FCF73CFAAFF65021794823F082
:1053D000E6FE62227821774826F0F2FE08E0764960
:1053E0000978764A02EBC1006222782126F0E8FEB5
:1053F0007148B0F8A60D2B2148436F49343101EBB9
:10540000C001091D6C48B0F8A60D2B2250436A4A12
:10541000343202EBC0008078C0EBC00001EB8000AA
:10542000808A40B36449B1F8A61D2B225143624AD9
:10543000343202EBC102121D5F49B1F8A61D2B23C5
:1054400059435D4B343303EBC1018978C1EBC10192
:1054500002EB8101888A002304220121FCF7F0F984
:10546000AFF6E821534823F09AFE7A22782151487A
:1054700026F0A6FE08E050490978504A02EBC10028
:105480007A22782126F09CFE4B48B0F8A60D2B21FD
:1054900048434949343101EBC000001D3439B1F8AB
:1054A000A61D2B225143444A343202EBC1018978B4
:1054B000C1EBC10100EB81004068A0B33E49B1F8E7
:1054C000A61D2B2251433C4A343202EBC102121D6D
:1054D0003949B1F8A61D2B235943374B343303EB1D
:1054E000C1018978C1EBC10102EB81014868FCF779
:1054F000FAFF00909DF80210BDF80000002304227E
:10550000FCF79EF99DF803002F4A02EB001000F112
:105510000801284823F043FE32224FF496712548B3
:1055200026F04EFE0AE0FFE723490978234A02EB02
:10553000C10032224FF4967126F042FE1E49B1F8A6
:10554000A61D2B2251431C4A343202EBC102121D0C
:105550001949B1F8A61D2B235943174B343303EBDC
:10556000C1018978C1EBC10102EB8101C868FCF778
:10557000BAFF00909DF80210BDF80000002304223D
:10558000FCF75EF99DF803000F4A02EB001000F1F2
:105590000801084823F003FE4A224FF4967105489B
:1055A00026F00EFE0449B1F8A61D2B225143024AF3
:1055B00034320BE0800F0010CC0F0010F8E805002B
:1055C0006B56000008EA050060EA050002EBC10224
:1055D000121DFE49B1F8A61D2B235943FB4B343352
:1055E00003EBC1018978C1EBC10102EB8101498A5A
:1055F000F64A1278C2EBC202F54B03EBC20202EB91
:10560000C10062224FF4967126F0DAFDEF49B1F83D
:10561000A61D2B225143ED4A343202EBC102121D6A
:10562000EA49B1F8A61D2B235943E84B343303EB69
:10563000C1018978C1EBC10102EB81018969E54AA9
:1056400002EB0111E14A127801EBC2007A224FF419
:10565000967126F0B5FD67E1DC48B0F8A60D2B2168
:105660004843DA49343101EBC001091DD748B0F88D
:10567000A60D2B235843D54B343303EBC000807861
:10568000C0EBC00001EB8000D349C268D34823F0CF
:1056900025FB32227821D14826F092FDCB48B0F884
:1056A000A60D2B214843C949343101EBC001091D26
:1056B000C648B0F8A60D2B225043C44A343202EB40
:1056C000C0008078C0EBC00001EB80004068642817
:1056D00020D3BE48B0F8A60D2B214843114601EB5C
:1056E000C001091DB948B0F8A60D2B235843134635
:1056F00003EBC0008078C0EBC00001EB8000B6492E
:105700004268B64823F0EAFA4A227821B34826F0E4
:1057100057FD08E0AD490978AE4A02EBC1004A22C4
:10572000782126F04DFDA948B0F8A60D2B2148435D
:10573000A649343101EBC000001D3439B1F8A61D73
:105740002B225143A14A343202EBC1018978C1EBCB
:10575000C10100EB8100C08AE0B39C48B0F8A60DFF
:105760002B214843114601EBC000001D3439B1F82C
:10577000A61D2B225143954A343202EBC101897890
:10578000C1EBC10100EB8100C08AB0F57A7F22DB5A
:105790008E48B0F8A60D2B214843114601EBC001FD
:1057A000091D8A48B0F8A60D2B225043874A34328F
:1057B00002EBC0008078C0EBC00001EB8000C08A23
:1057C0000A2190FBF1F60023042202213046FCF767
:1057D00037F81EE028E07D49B1F8A61D2B22514381
:1057E0007A4A343202EBC101091D343AB2F8A62DCF
:1057F0002B235A43754B343303EBC2029278C2EB2E
:10580000C20201EB8201C88A002304220321FCF7B3
:1058100017F87349714823F0C2FC32224FF4967195
:105820006E4826F0CDFC05E032224FF496716D48AB
:1058300026F0C6FC78E0322278216A481C3026F037
:10584000BFFC6249B1F8A61D2B2251435F4A343296
:1058500002EBC102121D5D49B1F8A61D2B2359436D
:105860005A4B343303EBC1018978C1EBC10102EB20
:1058700081018969574A02EB0111544A127801EB00
:10588000C20032224FF4967126F09AFC4F48B0F8CD
:10589000A60D2B2148434D49343101EBC000001DBA
:1058A0003439B1F8A61D2B225143484A343202EB59
:1058B000C1018978C1EBC10100EB8100008940B3CF
:1058C0004249B1F8A61D2B225143404A343202EB23
:1058D000C102121D3D49B1F8A61D2B2359433B4B74
:1058E000343303EBC1018978C1EBC10102EB8101C3
:1058F0000889002304220121FBF7A2FFAFF684717F
:10590000364823F04CFC4A227821344826F058FCD3
:1059100008E02E490978344A02EBC1004A22782176
:1059200026F04EFC00E000BF00BF2849B1F8A61DDC
:105930002B225143254A343202EBC101091D343A6E
:10594000B2F8A62D2B235A43204B343303EBC2026B
:105950009278C2EBC20211F822002946FEF77CFCC5
:10596000F8BD7CB505460120FCF722F842F6692017
:1059700026F084FF022026F0DBFF6FF07F4026F048
:1059800088FF002449E04FF4BE70ADF8000004EB3E
:105990004400042101EB0010062101FB040000B2C9
:1059A000ADF802004FF4EE70ADF80400601C00EB9F
:1059B0004000042101EB0010062101FB040000B2AD
:1059C000ADF80600C5EBC50110E00000CC0F0010DB
:1059D00098E90500F8E80500883C0200800F0010F7
:1059E0001C090600D040020008EA050001EB810115
:1059F000F94A02EB8101F94A1278C2EBC20202EBCA
:105A0000820201EB4201C4EBC40201EB42000E2210
:105A1000694626F0E9FB601CC4B2052CB3DB7CBDF3
:105A20002DE9F0470746ED4C1434102601253BE0E4
:105A3000BD4203D1FF2026F02CFF02E0E84826F00B
:105A400028FF701C00EBD071B5EB610F0FD805EB90
:105A50004500C00000F11803681E00EB4000C000C4
:105A600000F11801B4226E2026F08AFC1BE006F13A
:105A7000010808EBD870A5EB600000EB4000C00007
:105A800000F11803C14609EBD970A5EB6000401E78
:105A900000EB4000C00000F118014FF4B7724FF462
:105AA000947026F06DFC6D1CB5F5F07FC0D9022016
:105AB00026F03EFF6FF07F4026F0EBFE002525E04C
:105AC000012D0ED134F81500B0F57A7F09D105EB20
:105AD00045001A2101EBC0027821C2A026F070FB1C
