:020000040000FA
:10000000584A0010B1020000B9020000BB02000013
:10001000BD020000BF020000C1020000000000009D
:10002000000000000000000000000000C30200000B
:10003000C502000000000000C7020000495C00008B
:10004000CB020000050A0000190A00002B0A00007C
:100050003D0A00006BB00000CB020000CB020000A4
:1000600011B10000CB020000CB020000CB02000067
:10007000CB020000CB020000CB020000CB0200004C
:10008000CB020000CB020000CB020000CB0200003C
:10009000CB020000CB020000CB020000CB0200002C
:1000A00071C30000CB020000CB020000CB020000B5
:1000B000CB020000CB020000CB020000CB0200000C
:1000C000CB020000CB020000CB020000CB020000FC
:1000D000CB020000CB02000031060000CB02000082
:1000E000CB02000000F002F800F090F80AA090E8BF
:1000F000000C82448344AAF10107DA4501D100F0E3
:1001000085F8AFF2090EBAE80F0013F0010F18BF1F
:10011000FB1A43F0010318479C0E0600BC0E0600B4
:10012000103A24BF78C878C1FAD8520724BF30C823
:1001300030C144BF04680C607047000000230024F5
:1001400000250026103A28BF78C1FBD8520728BFE7
:1001500030C148BF0B6070476E290DF05B8070297D
:100160000DF09E81662910F07081652910F06D8177
:10017000672910F06A816129AFF3008003681B0AC8
:1001800028BF41F0800169290DF0088064290DF035
:10019000058075290DF002806F290DF029817829DD
:1001A0000DF06A81E9290DF0C180E4290DF0BE80CF
:1001B000F5290DF0BB80EF290DF02681F8290DF00F
:1001C00069810368DB0928BF41F0800163290DF0D4
:1001D000F88473290DF0FD84E3290DF00885F329D7
:1001E0000DF00D85002070471FB50DF05FFD040078
:1001F000002000210EF0BEFF401C606000200021A6
:100200000EF0A2FFE0601FBD10B510BD0DF020FD87
:100210001146FFF7E9FF00F039FA0DF0FDFD03B4D8
:10022000FFF7F2FF03BC0DF03DFE000070B5054680
:100230000C46A4F120000B4A02EB001110222846C4
:100240000CF09EFE70BDA1F1200202EB4202064BB3
:1002500003EB820213680360536843609268826014
:100260007047000058C0050048C605000E4843F618
:10027000C46102E000220270401C0A00A1F10103E7
:1002800099B2F7D1094843F6482102E0FF220270F3
:10029000401C0A00A1F1010399B2F7D10023024AE0
:1002A00082F87C3470470000000200107C060010C9
:1002B0000948804709480047FEE7FEE7FEE7FEE7FA
:1002C000FEE7FEE7FEE7FEE7FEE7FEE70448054936
:1002D000034A054B70470000679A0000E5000000E4
:1002E00058480010584A001058480010704770478E
:1002F00070470A6802F8010B0A607047FFFFFFFFB2
:1003000040F20120B1490860B149C1F88401B14906
:10031000086001F10401086001F10401086001F1C5
:100320000401086001F10401086001F104010860A2
:1003300001F10401086001F10401086001F1040108
:10034000086001F10401086001F10401086001F195
:100350000401086001F10401086001F10401086072
:1003600001F10401086001F10401086001F10401D8
:10037000086001F10401086001F10401086001F165
:100380000401086001F10401086001F10401086042
:1003900001F10401086001F10401086001F10401A8
:1003A000086001F10401086001F10401086001F135
:1003B0000401086001F10401086001F10401086012
:1003C00001F10401086001F10401086001F1040178
:1003D000086001F10401086001F10401086001F105
:1003E0000401086001F10401086001F104010860E2
:1003F00001F10401086001F10401086001F1040148
:10040000086001F10401086001F10401086001F1D4
:100410000401086001F10401086001F104010860B1
:1004200001F10401086001F10401086001F1040117
:10043000086001F10401086001F10401086001F1A4
:100440000401086001F10401086001F10401086081
:10045000614908606149086001F10401086001F127
:10046000040108605E4908605E4908605E490860F2
:1004700001F10401086001F1040108605449C1F868
:100480007C0170472DE9F04100BF00BF574800686C
:1004900040F400605649C1F8C40041F61F70554948
:1004A00008604FF00100544908604FF00000886078
:1004B000FFF726FF514800685149B0FBF1F74C485F
:1004C000D0F8000100B17F084FF47A70B0FBF7F468
:1004D00004F11300B0FBF4F0474908630F204863B0
:1004E000002088630120C86304F11300B0FBF4F01E
:1004F000801C08640120486404F13E00B0FBF4F065
:10050000886404F13E00B0FBF4F0C8640F20086575
:1005100004F13E00B0FBF4F0486501208865886274
:1005200040F20330374908604FF48D403249C1F83A
:100530000001354908604FF064014FF0000000F001
:10054000E7F940F283102C490862C821002000F02E
:10055000DFF940F2031028490862022048620026B1
:1005600000E0761C802EFCD341F68465A5F11000D6
:1005700085B22D1105FB07F04FF47A71B0FBF1F055
:1005800085B21D48456283201B4908621F48D0F888
:100590000080002008621C48006840F40020C1F878
:1005A00000014FF001014FF0000000F0B1F901210E
:1005B000002000F0ADF90F48006820F01F0848F057
:1005C00011000B49C1F8DC01BDE8F08180C1024097
:1005D00000C0024088C1024064C2024040C10240E3
:1005E00050C1024060C1024070C10240C4C00F400F
:1005F00000C00F40DCC10F4000C009208000001087
:1006000040420F0004C1092000C10920004006A09B
:1006100010B5002807DACA06140EA74A00F00F0327
:100620001B1FD45403E0CA06130EA44A135410BD72
:1006300010B501221321002009F04DFB28B36FF003
:100640007F4400E0641E002CFCD19D48006830B15E
:1006500000209B4908600F209A49086005E00120AE
:10066000974908600220974908604FF40021002054
:1006700009F05CFB262000F01F0201219140924A04
:10068000430942F8231000BF00BF10BD8CB000200A
:1006900009F0D3FC06460020894908604FF47A70BF
:1006A000B6FBF0F0451EB5F1807F00D311E025F0D8
:1006B0007F40401E4FF0E02148611F214FF0FF3086
:1006C000FFF7A6FF00204FF0E021886107200861B6
:1006D00000BF0122D104002009F0E2FA0121262006
:1006E000FFF796FF262000F01F02012191404209EA
:1006F0004FF0E02303EB8202C2F8001100BF0AF0C2
:100700006FFE05F0CBFB05F037FB704801F028F9D0
:100710000F206C4908609CE06A480068801E0F2822
:1007200075D2DFE800F0085F58660B434A516D94BC
:1007300083757C8A8D0005F029FD89E0644890F876
:10074000CC0020B10121634809F038FE03E000210C
:10075000604809F033FE5E4991F8CD000AF031FCA3
:1007600000205D4908705A4890F8CE00B8B10BF0EF
:100770000AFD0BF0F9FFC4B28CB901AA0BA90AA8B3
:100780000CF049FAC4B254B90AF0A2FFC4B234B9A9
:10079000132152A005F04FFD01204F4908704FF082
:1007A000501000F07CFB05F060FF51E04FF050105E
:1007B00000F075FB07F054F84AE04FF0501000F0DD
:1007C0006EFB07F001F943E04FF0501000F067FBBB
:1007D00007F0D7F93CE04FF0501000F060FB06F056
:1007E000E9FA35E04FF0501000F059FB06F054FFE5
:1007F0002EE04FF0501000F052FB06F0EBFC27E02B
:100800004FF0501000F04BFB08F038FD20E01EE0E8
:100810004FF0501000F043FB07F074FF18E04FF06A
:10082000501000F03CFB07F0ACFA11E04FF0501014
:1008300000F035FB08F057FA0AE008F035FA07E057
:100840004FF0501000F02BFB08F0B2F900E000BFB1
:1008500000BF61E72DE9F041012125A00BF052F91D
:100860000746002F25DD4FF47A6224480168384698
:100870000BF028FA022122A00BF044F90446002CC8
:1008800011DD002500BF4FF47A621C480168204644
:100890000BF082FB064635441C488542F3D32046C4
:1008A0000BF011FC01E0BDE8F08138460BF00BFCC9
:1008B00000E0F8E700BFF6E718ED00E000E400E034
:1008C000540000107000001080E100E03E050100BF
:1008D0000C01001000C0094058000010B5E7D7E82F
:1008E0000909B5E7D1B90909B7D6D1A10D0A0000A8
:1008F0004D53524541442E545854000000010010FD
:100900004A4B32353230422E54585400809698006B
:10091000F0B902224FF040235A600022DA60B04A58
:1009200012684FF47A73B2FBF3F2521E4A434FF04F
:1009300040239A61FF221A6004225A6101225A6000
:1009400000BF4FF04022526812F0010FF9D158E079
:1009500001281BD10222A34B5A600022DA60A04A70
:1009600012684FF47A73B2FBF3F2521E4A439D4B66
:100970009A61FF221A6004225A6101225A6000BF64
:10098000984A526812F0010FFAD13AE002281BD1BE
:100990000222954B5A600022DA60914A12684FF4A5
:1009A0007A73B2FBF3F2521E4A438F4B9A61FF22D5
:1009B0001A6004225A6101225A6000BF8A4A5268B2
:1009C00012F0010FFAD11CE003281AD10222874B42
:1009D0005A600022DA60824A12684FF47A73B2FBDE
:1009E000F3F2521E4A43814B9A61FF221A6004229D
:1009F0005A6101225A6000BF7C4A526812F0010F0E
:100A0000FAD1704701204FF0402108607848006813
:100A1000401C77490860704701207249086075489A
:100A20000068401C73490860704701206E490860E7
:100A300071480068401C70490860704701206B498C
:100A400008606E480068401C6C490860704720B917
:100A500001214FF04022516010E0012803D1012113
:100A6000604A51600AE0022803D101215E4A5160C8
:100A700004E0032802D101215C4A5160704720B98B
:100A800000214FF04022516010E0012803D10021E5
:100A9000544A51600AE0022803D10021524A5160B1
:100AA00004E0032802D100214F4A516070470146FB
:100AB00031B94FF04022506840F00200506016E01B
:100AC000012905D1474A506840F0020050600EE00D
:100AD000022905D1444A506840F00200506006E007
:100AE000032904D1414A506840F002005060704729
:100AF00070B505460C46FDB900203D4908604048E8
:100B0000006840F002003F49C1F8C4004FF04020A7
:100B1000406840F002004FF0402148604EF65F20F0
:100B2000C860084684614FF0030048614FF001003F
:100B300000F049F8012070BD012D15D100202D498C
:100B400008602F48006840F004002E49C1F8C40036
:100B5000244884614FF00300224948614FF00200AD
:100B600000F031F80120E6E7022D13D100202249E0
:100B700008602348006840F480002249C1F8C4009E
:100B8000194884614FF003001749486100F01BF8D1
:100B90000120D0E7032D14D100201849086018481F
:100BA000006840F400001749C1F8C4000F48846190
:100BB00028460E4948614FF0040000F004F8012077
:100BC000B9E70020B7E700F01F0201219140420978
:100BD0004FF0E02303EB8202C2F8001170470000DF
:100BE00084000010008000400000094000400940DF
:100BF0000000001004000010080000100C0000109D
:100C0000C4C00F4000C00F4008B5B0B1F7498969B2
:100C100041F00101F54A916142F21071009108E042
:100C2000F249896941F40061F04A91610099491ED5
:100C3000009100990029F3D115E0EC49896921F46C
:100C40000061EA4A916142F21071009102E000995C
:100C5000491E009100990029F9D1E449896921F0E0
:100C60000101E24A916108BDE14A002102E008C8A1
:100C700008C2491C8029FAD370472DE97043814688
:100C80000D46DFF8708300BF2720DB49086148610B
:100C9000DA490860D849C1F87402D949086001F1FD
:100CA0000401086001F10401086001F10401086019
:100CB000D1498861C861D349086001F10401086025
:100CC00001F10401086001F10401086001F104016F
:100CD000086001F104010860C74908624862CA4916
:100CE000086001F104010860C849086001F10401CD
:100CF000086001F10401086001F104010860C449C1
:100D00000860C4490860C449086001F10401086032
:100D1000B949C1F80001C148006C40F00200BF4968
:100D200008640846806D40F00A008865BC48D0F829
:100D3000C40040F00100BA49C1F8C400B9480068D5
:100D400020F00100B74908604FF00000A749886112
:100D50000846806920F00E0088610846806940F0EE
:100D60000A0088610846806940F0200088610846D2
:100D7000806920F0800088610846806920F48070D6
:100D800088610846806920F400708861084680699F
:100D900020F4806088610846806920F400608861E2
:100DA000A1480068A149B0FBF1F09D49C1F8B80124
:100DB0008E48806840F080608C4988600846806872
:100DC00020F0200088600846806840F40060886059
:100DD0000846806840F4805088600846806820F4A7
:100DE000005088600846806820F48040886008468B
:100DF00080688F4900EA01007C4988600846806865
:100E00008C4940EA0100794988604FF00000086091
:100E10000846006840F01C5008600846006840F42E
:100E2000802008600846006840F48070086008462A
:100E3000006840F0740008604FF000004860084609
:100E4000406840F0006048600846406840F4002078
:100E500048600846406840F4806048600846406842
:100E600040F20F1140EA01006049486040460861C5
:100E7000486115B12846FFF7F7FE5E4E002403E0F7
:100E80004FF47F0001C6641CB4F5FF3FF8D342F273
:100E9000107400E0641E002CFCD1BDE87083554A3C
:100EA000002101E001C2491CB1F5FF3FFAD37047B0
:100EB0002DE9F0411C46069FC1F5887CACF1010C80
:100EC000CCEB0C1CDFF82C8108EBCC18C0F5F07CC7
:100ED000ACF1010C08EB8C0300260FE0002502E0CA
:100EE00043F804796D1CA2EB000CAC45F8D8A2EBDA
:100EF000000CCCF5F07CA3EB8C03761CA4EB010C6E
:100F0000B445EBD8BDE8F08170B53A4BB0F5F07F51
:100F100002DAB1F5887F00DB70BDC0F5F0756D1E9B
:100F2000C1F58876761EC6EB061605EB461403EB74
:100F300084031A6000BFEFE72DE9F04F04460D4629
:100F400091469A46DDF824B04C4503DD0FFA89F747
:100F5000A146BCB2554503DD0FFA8AF7AA46BDB2D9
:100F6000A9EB04000FFA80F8AAEB050006B2B8F16D
:100F7000000F0BD100BF5A4629462046FFF7C4FF99
:100F8000681C85B2AA45F6DABDE8F08F56B900BFF5
:100F90005A4629462046FFF7B7FF601C84B2A14598
:100FA000F6DAF1E7B04547DDC8EB460007B215E0D9
:100FB0005A4629462046FFF7A7FF601C84B2002F3F
:100FC00008DD681C85B27000022101FB180038445E
:100FD00007B203E0022000FB067007B24C45E7D1E0
:100FE0005A4629462046FFF78FFF46E0008008203A
:100FF00000820820000001A000C0024070C2024030
:1010000018C10240D0C0024030C10240E8C00240D6
:1010100008C1024014C102400CC1024000800920F6
:1010200000C00F40008C0820840000109C997400C0
:10103000FFFF00FC0000DF01C6EB480007B215E02F
:101040005A4629462046FFF75FFF681C85B2002FED
:1010500008DD601C84B27000022101FB18003844D6
:1010600007B203E0022000FB067007B25545E7D146
:101070005A4629462046FFF747FF00BF84E72DE97F
:10108000FF5F06460F4690469946DDF838B0414668
:101090006846FFF7CBF800241DE01DF804A00025EA
:1010A00016E0C5F107004AFA00F010F0010F07D072
:1010B0003A1991B2721990B24A46FFF725FF06E03D
:1010C0003A1991B2721990B25A46FFF71DFF6D1C82
:1010D000082DE6D3641C102CDFD3BDE8FF9F2DE95B
:1010E000FE4F06460F4690469946DDF830B0414621
:1010F0006846FFF7A8F8002415E01DF804A00025B5
:101100000EE0C5F107004AFA00F010F0010F06D01A
:101110003A1991B2721990B24A46FFF7F5FE6D1C6A
:10112000082DEED3641C0C2CE7D3BDE8FE8F2DE90F
:10113000F84305460E4614469846DDF8209000BF59
:1011400014F8017B43463A4631462846CDF80090D4
:10115000FFF795FFB5F5EC7F03DA05F1080085B2DE
:1011600008E0FF2E04DC002506F1100086B201E045
:101170000025002620780028E2D1BDE8F8832DE97B
:10118000FF4F074688469B463C464546BA4646467C
:101190004FF0000915E0A4F1140188B22946029A23
:1011A000FFF7B2FE601C84B2A6F1140081B2504673
:1011B000029AFFF7A9FE701C86B209F101001FFA1E
:1011C00080F9B9F1280FE6DB3C464546BA4646466B
:1011D0004FF000092BE0A5F1140291B2A4F1140222
:1011E00090B25A46FFF790FE05F1140291B2A4F1B5
:1011F000140290B25A46FFF787FE601C84B2A6F133
:10120000140291B2AAF1140290B25A46FFF77CFE82
:10121000A6F1140291B20AF1140290B25A46FFF7F5
:1012200073FE701C86B209F101001FFA80F9B9F152
:101230000A0FD0DB3C464546BA4646464FF0000909
:101240002BE0A5F1140291B204F10A0290B25A46C1
:10125000FFF75AFE05F1140291B204F10A0290B2AE
:101260005A46FFF751FE601C84B206F10A0291B2A1
:10127000AAF1140290B25A46FFF746FE06F10A029E
:1012800091B20AF1140290B25A46FFF73DFE701C6B
:1012900086B209F101001FFA80F9B9F10A0FD0DB1B
:1012A000BDE8FF8F10B50246002112E001EB81106E
:1012B000F74B185C1378984209D1507801EB8113F1
:1012C000F34C23445B78984201D1084610BD481C7A
:1012D00081B27729EAD30020F8E710B50246002151
:1012E00014E001EB0110EB4B13F810001378984257
:1012F0000AD1507801EB0113E64C04EB43035B7811
:10130000984201D1084610BD481C81B2A129E8D3FA
:101310000020F8E72DE9F04F04460F4615469846A1
:10132000A3464FF0000900262DE0099810F806901A
:101330004FF0000A21E019F0800F06D0D648394658
:1013400002682046FFF7E0FD05E0D34839464268D1
:101350002046FFF7D9FD4FEA49604FEA1069601C4B
:1013600084B2A4EB0B00A84203D15C46781C87B280
:1013700006E00AF1010000F0FF0ABAF1080FDADB1B
:1013800000BF701C86B205FB08F0C11700EB51715D
:10139000B6EBE10FC9DBBDE8F08F2DE9F04F054654
:1013A000894692469B46A8460026BBF1000F32D1E3
:1013B00000242DE00AEB0A10B64901EB4000801C26
:1013C000065D00271FE016F0800F06D0B2484946A0
:1013D00002682846FFF798FD05E0AF484946426895
:1013E0002846FFF791FD7006060E681C85B2A5EB36
:1013F0000800102805D1454609F101001FFA80F9BF
:1014000003E0781CC7B2082FDDDB00BF601CC4B24C
:10141000202CCFDB31E000242DE00AEB0A109D499F
:1014200001EB4000801C065D00271FE016F0800FD6
:1014300006D09948494642682846FFF765FD05E011
:101440009548494602682846FFF75EFD7006060E7D
:10145000681C85B2A5EB0800102805D1454609F1A6
:1014600001001FFA80F903E0781CC7B2082FDDDB0A
:1014700000BF601CC4B2202CCFDBBDE8F08F2DE98B
:10148000F04F0546894692469B46A8460026BBF18A
:10149000000F31D100242CE00AEB8A107C4908446B
:1014A000801C065D00271FE016F0800F06D07A48EA
:1014B000494602682846FFF727FD05E07648494679
:1014C00042682846FFF720FD7006060E681C85B2AC
:1014D000A5EB0800182805D1454609F101001FFABF
:1014E00080F903E0781CC7B2082FDDDB00BF601C69
:1014F000C4B23F2CD0DB30E000242CE00AEB8A1091
:1015000063490844801C065D00271FE016F0800F29
:1015100006D06148494642682846FFF7F5FC05E0D9
:101520005D48494602682846FFF7EEFC7006060E45
:10153000681C85B2A5EB0800182805D1454609F1BD
:1015400001001FFA80F903E0781CC7B2082FDDDB29
:1015500000BF601CC4B23F2CD0DBBDE8F08FF0B5FB
:1015600004460D4616461F463B462246314628464F
:10157000FFF785FF1820F0BDF0B504460D4616466E
:101580001F463B46224631462846FFF706FF1220FB
:10159000F0BD2DE9F84306460D4614461F464FF0B0
:1015A0000008C14652E0207800B950E006EB09007F
:1015B00086B2207880281ADD06F11800B0F5F07F99
:1015C00007DD002605F1160085B2B5F5887F00DD40
:1015D00000252046FFF766FE1FFA80F83B462A46A4
:1015E00031464046FFF7BBFF8146A41C2DE0207822
:1015F0000D280AD105F1160085B2B5F5887F00DD0A
:101600000025641C4FF0000920E020780A2804D14E
:101610000026641C4FF0000918E006F10C00B0F53C
:10162000F07F07DD002605F10C0085B2B5F5887F57
:1016300000DD0025184840680090174822782946A8
:1016400003683046FFF71BFD641C00BFABE700BF1B
:10165000BDE8F8832DE9F8470546884614464FF063
:10166000000A00263AE0207800B938E020783028D7
:1016700007DB2078392804DC207830381FFA80F91D
:1016800014E020782E2809D14FF00A090EE000005E
:101690001E87050055A505001000001020782D2894
:1016A00002D14FF00B0901E04FF00C094FEA491746
:1016B000F81707EB5070C01000EBC001C1EB8010B1
:1016C000B6490844A919009088B237232022414620
:1016D000FFF720FE641C06F1200086B2C3E700BFBE
:1016E000BDE8F8872DE9F84306460D4614461F4627
:1016F0004FF00008C14654E0207800B952E006EBF4
:10170000090086B2207880281ADD06F11000B0F5B5
:10171000F07F07DD002605F1100085B2B5F5887F62
:1017200000DD00252046FFF7D8FD1FFA80F83B4674
:101730002A4631464046FFF71FFF8146A41C2FE092
:1017400020780D280AD105F1100085B2B5F5887F03
:1017500000DD0025641C4FF0000922E020780A28F3
:1017600004D10026641C4FF000091AE006F10800BD
:10177000B0F5F07F07DD002605F1080085B2B5F56C
:10178000887F00DD002586484068009084482278E4
:10179000294603683046FFF772FC641C4FF00A09C3
:1017A00000BFA9E700BFBDE8F8832DE9F84306466E
:1017B0000D4614461F464FF00008C14654E02078FD
:1017C00000B952E006EB090086B2207880281ADDC5
:1017D00006F11000B0F5F07F07DD002605F11000DE
:1017E00085B2B5F5887F00DD00252046FFF775FD41
:1017F0001FFA80F83B462A4631464046FFF7BCFEBA
:101800008146A41C2FE020780D280AD105F1100094
:1018100085B2B5F5887F00DD0025641C4FF0000916
:1018200022E020780A2804D10026641C4FF0000929
:101830001AE006F10800B0F5F07F07DD002605F19B
:10184000080085B2B5F5887F00DD00255448406862
:10185000009053482278294603683046FFF73FFC42
:10186000641C4FF0080900BFA9E700BFBDE8F8837A
:10187000F0B504461D46062A00DD0A2202B90122FF
:10188000052900DD0521914200DD1146002004E01C
:101890002026444F3E54461CF0B20C28F8D3104684
:1018A0000FE00A26B4FBF6F706FB17463036471E54
:1018B000DFF8F0C00CF807600A26B4FBF6F4461E09
:1018C000F0B20028EDDC89B11346084605E05E1E43
:1018D000344FBE5DFE545E1EF3B20600A0F1010758
:1018E000F8B2F4D12E262F4FFE5402E020262D4FC1
:1018F000BE54A5B900200EE02A4E365C302E07D12A
:10190000284F461CBE5D2E2E02D020263E5400E0FD
:1019100004E0461CF0B2561E8642EDDC00BF561CA9
:10192000F2B2104604E000261E4F3E54461CF0B2B0
:101930000C28F8D3F0BD30B51B4A00210CE0047828
:101940002404457844EA0524857844EA050308C25E
:10195000401C401C401C491CB1F5FF3FEFD330BD7B
:1019600070B51149002214E000230CE005782D0425
:10197000467845EA0625867845EA060410C1401CEB
:10198000401C401C5B1CB3F5B57FEFD301F5EC7137
:10199000521CB2F5887FE7D370BD0000F8CC05007B
:1019A0001000001038450010000001A038B50024D8
:1019B00074E0FD48A10004EB440303EB041301EBC6
:1019C0008301009088B204EB84014C2303EB0111E6
:1019D0008AB240F20F13E421FFF76AFAF34804EBEE
:1019E00084014C2303EB01118AB204EB8401090149
:1019F000491C009088B2E3231946FFF79DFAEB4893
:101A000004EB84014C2303EB01118AB204EB840143
:101A100003EB0111009088B240F20F13E321FFF7AE
:101A20008BFA002004EB84014C2303EB0111491CC9
:101A30008AB204EB840103EB0111491C009088B2C7
:101A400040F20F13E321FFF777FA002004EB840143
:101A50004C2303EB0111891C8AB204EB840103EBD4
:101A60000111891C009088B240F20F13E321FFF7A7
:101A700063FA002004EB84014C2303EB0111C91C21
:101A80008AB204EB840103EB0111C91C009088B2F7
:101A900040F20F13E321FFF74FFA641C062C88D3A2
:101AA00038BD10B5FFF782FFBF48C14948606FF0ED
:101AB0007F4008600023BFA2F1215420FFF712FEEF
:101AC0000023BEA2F121A420FFF70CFE10BD70B5CB
:101AD0000546FFF76BFFB448B54948606FF07F409B
:101AE0000860A5B900240FE004EB4401B54B03EBFB
:101AF000410204EB8401542303EB01100023F12184
:101B0000FFF7F0FD601CC4B2052CEDDB14E00024EF
:101B100010E0611D01EB4101AA4B03EB410204EB14
:101B20008401542303EB01100023F121FFF7DAFDB8
:101B3000601CC4B2052CECDB70BD10B5FFF736FF9E
:101B400099489B4948606FF07F40086000239EA23F
:101B5000F1215420FFF7C6FD10BD10B5FFF726FF99
:101B60009148934948606FF07F400860002398A235
:101B7000F1215420FFF7B6FD10BD10B50446FFF764
:101B800015FF002C38D16FF07F40894908608648E6
:101B9000486000238FA2E7215420FFF7A3FD002314
:101BA0008EA2FB215420FFF79DFD002389A2E7218F
:101BB000A420FFF797FD00238AA2FB21A420FFF7B2
:101BC00091FD002389A2E721F420FFF78BFD00237C
:101BD00084A2FB21F420FFF785FD002383A2E721E7
:101BE0004FF4A270FFF77EFD002382A2FB214FF489
:101BF000A270FFF777FD2DE0012C2BD16FF07F4015
:101C00006B4908606848486000237CA2E7215420A3
:101C1000FFF768FD00237BA2FB215420FFF762FD44
:101C200000237AA2E721A420FFF75CFD002379A21C
:101C3000FB21A420FFF756FD002378A2E7214FF4F3
:101C4000CA70FFF74FFD002376A2FB214FF4CA7044
:101C5000FFF748FD10BD10B5FFF7A8FE6FF07F40FD
:101C60005349086050484860002370A2E72154207F
:101C7000FFF738FD00236FA2FB215420FFF732FD50
:101C800000236EA2F1214FF4A270FFF72BFD002379
:101C90006CA2F1214FF4CA70FFF724FD10BD10B5FE
:101CA0000446FFF783FE0CB1012C32D16FF07F4068
:101CB0003F4908603C484860002364A2F121542059
:101CC000FFF710FD002363A2E721A420FFF70AFD20
:101CD000002362A2FB21A420FFF704FD002361A2E0
:101CE000E721F420FFF7FEFC00235CA2FB21F42097
:101CF000FFF7F8FC002351A2F1214FF4A270FFF787
:101D0000F1FC00234FA2F1214FF4CA70FFF7EAFC67
:101D100025E06FF07F402649086023484860002393
:101D20004AA2F1215420FFF7DDFC00234BA2E7215A
:101D3000A420FFF7D7FC00234CA2FB21A420FFF72F
:101D4000D1FC00233DA2F1214FF4A270FFF7CAFCA1
:101D500000233CA2F1214FF4CA70FFF7C3FC10BD71
:101D600010B50446FFF722FE002C1CD16FF07F4017
:101D70000F4908600C484860002316A2E721542050
:101D8000FFF7B0FC002315A2FB215420FFF7AAFCAB
:101D9000002310A2E721A420FFF7A4FC002311A236
:101DA000FB21A42066E086E038003100684369002A
:101DB00010000010206DA6B82020000020A6B8203A
:101DC000000000003E0B060020C8B7C8CF2000006E
:101DD0002A310000B2E2C1BF00000000CFD4CABE69
:101DE00000000000C9E8D6C300000000CFB5CDB3A5
:101DF00000000000D0C5CFA200000000CEC4BCFE91
:101E000000000000B9DCC0ED00000000B1A3B4E6A2
:101E100000000000CAFDBEDD00000000B8FCB6E016
:101E20000000000020322F3200000000C7E5B3FDA3
:101E300000000000B1EDB8F100000000C9CFD2BB36
:101E4000D2B30000CFC2D2BBD2B30000C9BEB3FD33
:101E5000D0D00000CFDFD0D400000000D7D4B6AF80
:101E600000000000B6D4CAFD00000000B8B4D6C619
:101E700000000000FFF736FC0023AFF29002E721DC
:101E8000F420FFF72FFC0023AFF2A802FB21F4207F
:101E9000FFF728FC0023AFF2AC02E7214FF4A27059
:101EA000FFF720FC0023AFF2B402FB214FF4A27035
:101EB000FFF718FC39E0012C37D16FF07F40FE4965
:101EC0000860FE4848600023AFF2D002E7215420AA
:101ED000FFF708FC0023AFF2D402FB215420FFF7E8
:101EE00001FC0023AFF2FC02E721A420FFF7FAFB7C
:101EF0000023AFF21012FB21A420FFF7F3FB002315
:101F0000EFA2F121F420FFF7EDFB0023AFF2F40282
:101F1000E7214FF4CA70FFF7E5FB0023AFF2FC02A4
:101F2000FB214FF4CA70FFF7DDFB10BD10B56FF059
:101F30007F40E1490860E14848600023AFF26C123D
:101F4000E7215420FFF7CEFB0023AFF27012FB21F4
:101F50005420FFF7C7FB0023AFF28812E721A4202B
:101F6000FFF7C0FB0023AFF28412FB21A420FFF790
:101F7000B9FB0023AFF28C12E721F420FFF7B2FB8C
:101F80000023AFF2A012FB21F420FFF7ABFB0023EC
:101F9000AFF2A812E7214FF4A270FFF7A3FB0023D2
:101FA000AFF2B012FB214FF4A270FFF79BFB10BD04
:101FB00008B5C5481623F022002100900846FEF718
:101FC00077FF08BD08B5C148CA2340F2DF125C2183
:101FD00000900020FEF76CFF08BD10B5FFF7E8FF8A
:101FE000FFF7E4FCFFF7EEFF10BD10B5FFF7F5FFBC
:101FF0006FF07F40B0490860B34848600023B44A9E
:1020000004211846FFF76EFB6FF07F40AA49086075
:102010004FF050104860002426E0032C11D204EB4E
:102020008400AC4B03EB400204EB440000EBC40023
:102030001A2303EB400081B200231846FFF752FB3E
:1020400011E004EB8400A34B03EB4002E01E00EB25
:10205000400303EBC0001A2303EB400081B20023CE
:10206000FA20FFF73FFB641C062CD6D30020FFF7B5
:1020700084FD10BD08B59548BE2340F2DF127021E3
:1020800000900020FEF714FF08BD10B5FFF790FF89
:10209000FFF78CFCFFF7EEFF10BD38B504464FF09C
:1020A0005010854948608C4800EB84020123C82108
:1020B0001420FFF717FB894800EB84020123C82195
:1020C0004FF48C70FFF70EFB80487B4948608448D2
:1020D000372328227A2100905020FFF71BF98148EE
:1020E000372328227A2100907820FFF713F97E48C1
:1020F000372328227A2100908C20FFF70BF938BD76
:1021000010B5FFF7C2FF6FF07F406B4908606E4863
:10211000486000236E4A163204211846FFF7E2FA9F
:102120006FF07F40644908604FF050104860002411
:1021300022E0032C0FD26D4800EBC40204EB4400F4
:1021400000EBC4001A2303EB400081B200231846C1
:10215000FFF7C8FA0FE0654800EBC402E01E00EB91
:10216000400303EBC0001A2303EB400081B20023BD
:10217000FA20FFF7B7FA641C072CDAD35C4991F810
:10218000B803FFF78AFF0020FFF7F7FC10BD08B582
:102190004E48A02340F2DF12562100900020FEF7A7
:1021A00087FE4A48E32340F2DF12C121009000205D
:1021B000FEF77EFE08BD10B5FFF7FAFEFFF7F6FB4F
:1021C000FFF7E5FF10BD2DE9F04104460D46164628
:1021D000484B1B5D03EB4303474FDA19B1B2A8B27A
:1021E0000023FFF77FFABDE8F08110B5FFF7E3FFAA
:1021F0006FF07F4030490860334848600023344A1C
:102200002C3204211846FFF76DFA6FF07F402A49FF
:1022100008604FF05010486000240EE0C4EBC40189
:10222000364BCA1804EB84014FF6FF7303EA4110E2
:1022300000231A21FFF756FA641C032CEED32C4816
:10224000D0F8C00300EB400101EBC0002C4942185C
:1022500001231A213C20FFF745FA254A92F80C1178
:102260000023D2F808010622FFF702FB0123254ACA
:102270001A21DC20FFF736FA1D48D0F8100100EBD8
:1022800040002149421801231A214FF49170FFF7B1
:1022900029FA17491A22D1F8B8034FF49671FFF7BB
:1022A00092FF002319A22E211846FFF77EFA002381
:1022B00017A22E2178202FE01000001038003100E6
:1022C000B9A4BEDF00000000F352030034346500FF
:1022D0006106060081F7050004FB050060FB0500B0
:1022E000FDDF050040F2050053F305005A03060028
:1022F000000200108F0B0600A70B06002F08060037
:1023000070FC0500384500107A0B060042494E006B
:102310004C4F57205B465D00FFF747FA0023FEA2B3
:102320002E21F020FFF741FA0023FDA22E214FF4C9
:10233000C870FFF73AFA06243FE0A01F012801D930
:10234000072802D3A01F082803D9F748F749486097
:1023500003E04FF05010F5494860A01FC0EBC001EA
:10236000F34800EBC1004068E0B1A21FC2EBC2031A
:10237000EF4A02EBC302117AA21FC2EBC203EC4A7E
:1023800002EBC302012350680622FFF771FAA01F77
:10239000C0EB00103A3081B20123E64A7820FFF703
:1023A00004FA09E0A01FC0EB00103A3081B201230B
:1023B000E1A27820FFF7F9F9641C0F2CBDD3DA48AD
:1023C000DA494860DE48D0F8440378B1DC4A92F834
:1023D00048130123D2F844030622FFF749FA0123E8
:1023E000D44AC4217820FFF7E0F905E00123D2A206
:1023F000C4217820FFF7D9F9102447E0A4F1100098
:10240000012801D9072803D3A4F11000082803D913
:10241000C548C649486003E04FF05010C3494860C2
:10242000A4F11000C0EBC001C14800EBC100006A7C
:1024300000B3A4F11002C2EBC203BD4A02EBC30217
:1024400092F82410A4F11002C2EBC203B84A02EBC6
:10245000C3020123106A0622FFF70AFAA4F1100052
:10246000C0EB00103A3081B20123B24AFA20FFF7E4
:102470009CF90AE0A4F11000C0EB00103A3081B2E0
:102480000123ADA2FA20FFF790F9641C192CB5D3F3
:10249000A548A6494860AA48D0F8440378B1A84A9C
:1024A00092F82C130123D2F828030622FFF7E0F953
:1024B0000123A04AC421FA20FFF777F905E00123A0
:1024C0009DA2C421FA20FFF770F9012419E0022C23
:1024D00005D9082C03D294489449486003E04FF092
:1024E000501092494860601E00EBC000954BC21826
:1024F000C4EB04102B3081B200230820FFF755F9FC
:10250000641C0A2CE3D388488849486000238EA2C3
:10251000C4211846FFF749F900238CA2D42118469C
:10252000FFF743F900238BA2D421F020FFF73DF9F8
:102530000020FFF722FB10BD08B57B48A02340F226
:10254000DF12602100900020FEF7B2FC08BD10B53C
:10255000FFF72EFDFFF72AFAFFF7EEFF10BD10B5CB
:10256000FFF7F5FF6FF07F40704908607B484860D7
:1025700000237B4A04211846FFF7B4F86FF07F4030
:102580006A4908604FF050104860002375A21A2174
:102590001846FFF7A7F8002374A230212820FFF780
:1025A000A1F8002374A230218C20FFF79BF80023B0
:1025B00073A23021F020FFF795F8002372A230219A
:1025C0004FF4AA70FFF78EF8002371A230214FF468
:1025D000DC70FFF787F80020FFF7CFFA10BD08B5D1
:1025E00051489A2340F2DF125A2100900020FEF752
:1025F0005FFC08BD10B5FFF7DBFCFFF7D7F9FFF76D
:10260000EEFF10BD10B5FFF7F5FF6FF07F404749B3
:102610000860524848600023514A16320421184687
:10262000FFF760F86FF07F40404908604FF05010AE
:10263000486000243AE0092C1AD2022C05D9062C55
:1026400003D239483949486003E04FF05010374908
:10265000486004EB84004F4B03EB4002162304FB5D
:1026600003F01A3081B200231846FFF73BF81CE054
:10267000A4F10900022805D9062803D22A482B49CB
:10268000486003E04FF050102849486004EB840094
:10269000404B03EB4002A4F10900162358431A30C3
:1026A00081B20023FA20FFF71DF8641C122CC2D35C
:1026B0000020FFF755FB10BDF8B505464FF0501050
:1026C0001A4948601E48D0F8B80300EBC0003249F0
:1026D000421801231A215820FFF704F81848D0F8AF
:1026E000C00300EB400101EBC0002C49421801235C
:1026F00030215820FEF7F6FF1148D0F8C40300EB54
:10270000400101EBC0002649421801234621582010
:10271000FEF7E8FF0A4845E0484947485B465D0048
:10272000434F554E54000000343465001000001033
:102730002C030010384500102D2D2D2D2D2D0000BF
:102740000002001030F70500326E64004155583A1F
:10275000000000004F55543A00000000F3520300FF
:10276000A3060600B7BDCABD203A0000C6B5C2CA5E
:102770005B487A5D00000000B5E7C6BD5B565D00B2
:1027800043705B465D000000445B205D000000007C
:10279000434D5000CA0306002CFA050070FC0500EA
:1027A00070FE0500D0F8180400EB400101EBC000FA
:1027B000FE49421800231A214FF4A970FEF792FF38
:1027C000FB48D0F8200400EB400101EBC000F949C0
:1027D0004218012346214FF4A970FEF783FFF44805
:1027E000D0F81C0400EB400101EBC000F249421894
:1027F000012330214FF4A970FEF774FF28780128D7
:1028000000D100E0002006461EB1FF20EB494860E1
:1028100003E04FF05010E9494860E84840686E23F3
:102820004FF4DD725A2100904FF4A970FEF740FB7F
:10283000DF48D0F8280100EB400101EBC000DE4981
:10284000421801235C214FF4A970FEF74BFFFFF7FC
:10285000ADF8287801281BD16FF07F40D749086078
:10286000D7484860002410E004EB440101EBC401A8
:10287000D14BCA1804EB8401542303EB011188B235
:102880000023F121FEF72EFF641C022CECD302E0A2
:102890000020FFF772F9F8BDF8B505464FF050106B
:1028A000C64948602878012800D100E0002006468B
:1028B0001EB1FF20C149486003E04FF05010BF49EE
:1028C0004860BE4840682A234FF4D7721A2100900E
:1028D0004FF4BE70FEF7ECFAB548D0F85C0300EB9D
:1028E000400101EBC000B449421801231A214FF402
:1028F000BE70FEF7F7FEFFF759F8287801281BD1C4
:102900006FF07F40AD490860AD484860002410E09A
:1029100004EB440101EBC401A74BCA1804EB84018A
:10292000542303EB011188B20023F121FEF7DAFEF4
:10293000641C022CECD302E00020FFF71EF9F8BD66
:1029400070B50546012466E1022C05DD072C03DA8B
:102950009C489A49486003E04FF0501097494860FE
:10296000601E934991F87D1401EB810100EB410059
:1029700000EB8001944800EB81008068401C08D186
:10298000332000EB0411002390A2F620FEF70DFF88
:1029900027E0621E864B93F87D3403EB830302EB42
:1029A000430202EB8203884A02EB8302117B621E20
:1029B0007F4B93F87D3403EB830302EB430202EB7E
:1029C0008203814A02EB8302012390680522FEF70D
:1029D0004FFF332000EB041100237E4AF620FEF760
:1029E000E4FE601E724991F87D1401EB810100EB59
:1029F000410000EB8001784800EB81008068401CBA
:102A000009D1332000EB0411002370A24FF4AD7004
:102A1000FEF7CBFE28E0621E654B93F87D3403EB96
:102A2000830302EB430202EB82036B4A02EB830255
:102A3000117B621E5E4B93F87D3403EB830302EB44
:102A4000430202EB8203644A02EB83020123906893
:102A50000522FEF70DFF332000EB041100235D4A31
:102A60004FF4AD70FEF7A1FE601E514991F87D1440
:102A700001EB810100EB41015848405CFF2809D17E
:102A8000332000EB0411002355A24FF4DF70FEF752
:102A90008CFE1DE0601E464991F87D1401EB81011A
:102AA00000EB41014D48405C48B1332000EB04117C
:102AB00000234CA24FF4DF70FEF777FE08E03320CE
:102AC00000EB0411002348A24FF4DF70FEF76DFE07
:102AD000022C05DD072C03DA3A483849486003E048
:102AE0004FF0501035494860601E314991F87D140F
:102AF00001EB810100EB41013C48405C1E2808DDF0
:102B0000332000EB0411002330A22620FEF74DFEF7
:102B100016E0601E264B93F87D3403EB830300EB35
:102B200043033248C05C00EB400303EBC000304B72
:102B3000C218332000EB041100232620FEF735FED7
:102B4000601E1B4991F87D1401EB810100EB4101EE
:102B50002648D230405C022808DD332000EB041107
:102B600000231AA29220FEF720FE17E0601E104BF1
:102B700093F87D3403EB830300EB43031B48D2300F
:102B8000C05C00EB400303EBC0001A4BC2183320BB
:102B900000EB041100239220FEF707FE044991F890
:102BA0007D1401EB810104EB410025E0B9FE050035
:102BB000000200109EFF0500D7FF05001000001066
:102BC0003800310034346500240800102D2D2D2DDF
:102BD00000000000384500108C180010F428001088
:102BE0002D00000050000000460000007E0600108E
:102BF00070FC050070FE0500012303220021FEF792
:102C000037FE332000EB04110023FE4A0820FEF7B4
:102C1000CCFD601CC4B20B2CFFF696AE70BDF8B5AF
:102C200005462878022802D1FFF715F805E0287834
:102C3000022802DDA878FFF732F82878012805D1AC
:102C4000A87818B9FF20F049486003E04FF0501011
:102C5000ED494860EC4840682A235E221A21009022
:102C60003620FEF725F9E948D0F8840300EBC000D0
:102C7000E749421800231A213620FEF733FD287851
:102C8000022805D1A87818B9FF20DF49486003E081
:102C90004FF05010DC494860DB48406842231E2258
:102CA000322100900020FEF703F90023D9A232213F
:102CB0001846FEF717FD0324D2E12878A04206D17A
:102CC000A878022803D1FF20CF49486003E04FF0E5
:102CD0005010CD494860CC4840680090A01E332277
:102CE00002EB0010103083B2A01E02EB001081B284
:102CF0004FF49972FA20FEF7DBF8E01EE97801EB59
:102D0000810100EB410000EB8001C34800EB810032
:102D10008068401C0BD1A01E332202EB001081B250
:102D20000023AFF25812FA20FEF73FFD25E0E21E25
:102D3000EB7803EB830302EB430202EB8203B64A18
:102D400002EB8302117BE21EEB7803EB830302EBC1
:102D5000430202EB8203B04A02EB83020123906834
:102D60000522FEF785FDA01E332202EB001081B282
:102D70000023A44AFA20FEF718FD2878A04206D1C5
:102D8000A878032803D1FF209F49486003E04FF053
:102D900050109D4948609C4840680090A01E332216
:102DA00002EB0010103083B2A01E02EB001081B2C3
:102DB0004FF4C1724FF4A570FEF77AF8E01EE9787F
:102DC00001EB810100EB410000EB8001934800EB37
:102DD00081008068401C0CD1A01E332202EB001041
:102DE00081B20023AFF21C224FF4A570FEF7DDFC88
:102DF00026E0E21EEB7803EB830302EB430202EBD7
:102E00008203864A02EB8302117BE21EEB7803EB1E
:102E1000830302EB430202EB8203804A02EB83024C
:102E2000012390680522FEF723FDA01E332202EB4A
:102E3000001081B20023734A4FF4A570FEF7B5FC71
:102E40002878A04206D1A878042803D1FF206E4933
:102E5000486003E04FF050106B4948606A48406892
:102E60000090A01E332202EB0010103083B2A01E8F
:102E700002EB001081B240F2DF124FF4D270FEF785
:102E800017F8E01EE97801EB810100EB410164488D
:102E9000405CFF280CD1A01E332202EB001081B24F
:102EA0000023AFF2D8224FF4D270FEF77EFC0BE085
:102EB000A01E332202EB001081B20023AFF2DC220D
:102EC0004FF4D270FEF771FC2878A04205D1A878A3
:102ED00018B9FF204C49486003E04FF050104A49B0
:102EE0004860494840680090A01E332202EB001061
:102EF000103083B2A01E02EB001081B27E22282087
:102F0000FDF7D6FFE01EE97801EB810100EB4101FE
:102F10004448405C30280BDDA01E332202EB001039
:102F200081B20023AFF25C322820FEF73EFC16E0AF
:102F3000E01EEB7803EB830300EB43033948C05CEE
:102F400000EB400303EBC000374BC218A01E332335
:102F500003EB001081B200232820FEF726FC28781E
:102F6000A04206D1A878012803D1FF202649486055
:102F700003E04FF050102449486023484068009017
:102F8000A01E332202EB0010103083B2A01E02EB11
:102F9000001081B2C4227E20FDF78AFFE01EE9788E
:102FA00001EB810100EB41011E48D230405C022858
:102FB0000BDDA01E332202EB001081B20023AFF222
:102FC000F4327E20FEF7F1FB17E0E01EEB7803EB16
:102FD000830300EB43031348D230C05C00EB400393
:102FE00003EBC000114BC218A01E332303EB0010EB
:102FF00081B200237E20FEF7D8FB4FF0501002492B
:10300000486015E038450010100000100002001064
:103010002CFA05004E6F2E00240800108C180010AA
:10302000F42800107E06001070FC050070FE0500FC
:103030004860E97801EB810104EB4101881E01231E
:1030400003220021FEF714FCA01E332202EB001025
:1030500081B20023F94A0820FEF7A7FB601CC4B226
:103060000D2CFFF62AAEF8BDF8B505464FF050100E
:10307000F34948602878012800D100E00020064686
:103080001EB1FF20EE49486003E04FF05010EC49BC
:103090004860EB4840682A2358221A2100903020CB
:1030A000FDF706FFE74890F87C0400EB8000E64956
:1030B000421801231A213020FEF714FB2878022839
:1030C00001D1012000E0002006461EB1FF20DC49AE
:1030D000486003E04FF05010D9494860D848406834
:1030E00040231E22302100900820FDF7E1FE01233D
:1030F000AFF2E00230210820FEF7F4FAFEF756FCAA
:103100002878012819D16FF07F40CD490860CF4859
:10311000486000240EE004EB8401CB4BCA1804EB9A
:103120008401542303EB011188B20023F121FEF73F
:10313000D9FA641C022CEED320E0287802281AD198
:103140006FF07F40BE490860C048486000240FE02F
:10315000C4EBC401BE4BCA18E11C01EB810154232E
:1031600003EB011188B20023F121FEF7BBFA641CC6
:10317000022CEDD302E06878FEF7FFFCF8BDF8B54D
:1031800004462078012800D100E0002005461DB14A
:10319000FF20AB49486003E04FF05010A849486059
:1031A000A74840682C23C022182100905820FDF722
:1031B0007FFEA8480078C0EBC000A7494218002352
:1031C0001A215820FEF78EFA2078022801D101201A
:1031D00000E0002005461DB1FF209949486003E04A
:1031E0004FF05010964948609A4A92F868100023B0
:1031F000506E0422FEF73CFB0023904A30215820F9
:10320000FEF770FA9348C06E30B1002393A23021CC
:103210008A20FEF767FA05E0002391A230218A2078
:10322000FEF760FA2078032801D1012000E0002099
:1032300005461DB1FF208249486003E04FF0501061
:103240007F494860834A117B002390680422FEF77F
:103250000FFB0023794A46215820FEF743FA7D48A8
:10326000006930B100237DA246218A20FEF73AFA98
:1032700005E000237AA246218A20FEF733FA20785F
:10328000042801D1012000E0002005461DB1FF20E7
:103290006B49486003E04FF0501069494860684846
:1032A00040682C234FF4DD72182100904FF4A97070
:1032B000FDF7FEFD2078052801D1012000E0002067
:1032C00005461DB1FF205E49486003E04FF05010F5
:1032D0005B4948605F4A92F8A0100023D2F89C0036
:1032E0000422FEF7C5FA0023544A30214FF4A97096
:1032F000FEF7F8F900235BA230214FF4C170FEF70E
:10330000F1F92078062801D1012000E000200546CF
:103310001DB1FF204A49486003E04FF05010484972
:1033200048604C4A92F82C100023906A0422FEF761
:103330009FFA0023414A46214FF4A970FEF7D2F9C3
:10334000002348A246214FF4C170FEF7CBF9FEF7E7
:103350002DFB207810B101281ED103E00020FEF7DC
:103360000CFC1AE06FF07F40354908603748486030
:1033700000260EE0C6EBC601374BCA1806EB8601E5
:10338000542303EB011188B20023F121FEF7AAF9BF
:10339000761C022EEED300E000BF00BFF8BDF8B5EA
:1033A00005462878012800D100E0002006461EB11D
:1033B000FF202349486003E04FF050102049486047
:1033C0001F4840682C23C022182100905820FDF788
:1033D0006FFD20480078C0EBC0001F494218002351
:1033E0001A215820FEF77EF92878022801D1012001
:1033F00000E0002006461EB1FF201149486003E0AE
:103400004FF050100E4948600D4840684223C022DA
:103410002E2100905820FDF74BFD0E484078C0EB60
:10342000C00011494218002330215820FEF75AF9F4
:10343000287803281AD1012019E00000384500102F
:103440001000001000020010EDFF050038003100F0
:10345000F7FF05000C010010BDF7050020A6B8001D
:103460006DA6B80020560000CBF7050000200646E8
:103470001EB1FF20F749486002E0F748F54948606F
:10348000F44840686E23C0225A2100905820FDF76E
:103490000FFDF2488078C0EBC000F14942180023CC
:1034A0005C215820FEF71EF92878042801D101205C
:1034B00000E0002006461EB1FF20E649486002E019
:1034C000E548E4494860E54A117B002390680422FE
:1034D000FEF7CEF9DF4840688423C02270210090B7
:1034E0005820FDF7E5FC0023DE4A72215820FEF744
:1034F000F9F8DA48006938B10023AFF2A00272216E
:103500008A20FEF7EFF806E00023AFF2AC0272214A
:103510008A20FEF7E7F82878052801D1012000E08D
:10352000002006461EB1FF20CA49486003E04FF064
:103530005010C8494860C7484068B023C0229C2149
:1035400000905820FDF7B4FCC44890F82000C0EB70
:10355000C000C349421800239E215820FEF7C2F83C
:103560002878062801D1012000E0002006461EB17F
:10357000FF20B849486003E04FF05010B54948605B
:10358000B64A92F82C100023906A0422FEF770F9D4
:10359000B0484068C623C022B22100905820FDF7F1
:1035A00087FC0023AF4AB4215820FEF79BF8002384
:1035B000AFF25012B4218820FEF794F8287807283B
:1035C00001D1012000E0002006461EB1FF20A149E4
:1035D000486003E04FF050109E4948609D484068A5
:1035E0002C234FF4DD72182100904FF4A970FDF7E1
:1035F0005FFC9A4890F8400000EB400101EBC000EE
:103600009949421800231A214FF4A970FEF76AF86D
:103610002878082801D1012000E0002006461EB1CC
:10362000FF208C49486003E04FF050108949486002
:103630008848406842234FF4DD722E2100904FF4F9
:10364000A970FDF735FC854890F84100C0EBC0003B
:1036500086494218002330214FF4A970FEF742F842
:103660002878092801D1012000E0002006461EB17B
:10367000FF207849486002E0774876494860774AF9
:1036800092F84C100023906C0422FEF7F1F8714878
:1036900040686E234FF4DD725A2100904FF4A970F8
:1036A000FDF706FC00236F4A5C214FF4A970FEF77A
:1036B00019F86A48006D40B10023AFF260225C2126
:1036C0004FF4C270FEF70EF807E00023AFF270224D
:1036D0005C214FF4C270FEF705F828780A2801D162
:1036E000012000E0002006461EB1FF205949486035
:1036F00002E0594857494860584A92F86810002338
:10370000506E0422FEF7B4F85248406884234FF408
:10371000DD72702100904FF4A970FDF7C9FB002302
:10372000504A72214FF4A970FDF7DCFF4B48C06E80
:1037300040B10023AFF2DC2272214FF4C270FDF7DA
:10374000D1FF07E00023AFF2E82272214FF4C270EC
:10375000FDF7C8FF28780B2801D1012000E00020E8
:1037600006461EB1FF203B49486003E04FF0501071
:1037700038494860394A92F884100023D2F8800012
:103780000422FEF775F833484068B0234FF4DD7229
:103790009C2100904FF4A970FDF78AFB0023314A69
:1037A0009E214FF4A970FDF79DFF0023AFF24C322C
:1037B0009E214FF4C170FDF795FF28780C2801D1A8
:1037C000012000E0002006461EB1FF20214948608C
:1037D00003E04FF050101F494860204A92F8A010B3
:1037E0000023D2F89C000422FEF742F819484068F2
:1037F000C6234FF4DD72B22100904FF4A970FDF79B
:1038000057FB0023174AB4214FF4A970FDF76AFF54
:103810000023AFF2B032B4214FF4C170FDF762FF64
:10382000FEF7C4F828780D2873D2DFE800F0070B04
:10383000354F696A8586A2BCBDBEBF000020FEF779
:103840008FFAB5E06FF07F40024908600848486091
:1038500000241EE010000010343465000C0100103C
:10386000D9F7050038450010B9FE050033FE050004
:1038700038003100C4EBC401FD4BCA1804EB8401CD
:10388000542303EB011188B20023F121FDF72AFF35
:10389000641C022CEED38BE06FF07F40F54908608A
:1038A000F548486000240EE0C4EBC401F34BCA188D
:1038B00004EB8401542303EB011188B20023F121AE
:1038C000FDF710FF641C022CEED371E06FF07F4017
:1038D000E8490860E848486000240EE0C4EBC401F1
:1038E000E74BCA1804EB8401542303EB011188B29F
:1038F0000023F121FDF7F6FE641C022CEED357E005
:1039000056E06FF07F40DB490860DB4848600024E8
:103910000FE04CE0C4EBC401D94BCA1804EB84019E
:10392000542303EB011188B20023F121FDF7DAFEE5
:10393000641C022CEED33BE03AE06FF07F40CD49AF
:103940000860CD484860002410E004EB440101EB1E
:10395000C401CC4BCA1804EB8401542303EB0111BE
:1039600088B20023F121FDF7BDFE641C052CECD3C9
:103970001EE06FF07F40BF490860BF4848600024E8
:103980000EE0C4EBC401C04BCA1804EB84015423FD
:1039900003EB011188B20023F121FDF7A3FE641CA3
:1039A000032CEED304E003E002E001E000E000BFFE
:1039B00000BFF8BD2DE9F04104460D46164604EB64
:1039C0004403B24FDA19B1B2A8B20123FDF7EDFEFC
:1039D000BDE8F081F8B505464FF05010A5494860A4
:1039E000AB48D0F8200178B9A9494122D1F8B803F1
:1039F0004FF4B471FFF7DEFFA5494122D1F8B803B7
:103A0000C821FFF7D7FF0CE00023A2A241214FF409
:103A1000B470FDF7CAFE00239EA24121C820FDF725
:103A2000C4FE2878012800D100E0002006461EB11F
:103A3000FF209049486003E04FF050108D494860E6
:103A40008C4840682C237022182100904620FDF7F6
:103A50002FFA8F48D0F8B80300EBC0008E49421807
:103A600001231A214620FDF73DFE2878022801D1C6
:103A7000012000E0002006461EB1FF207D4948607D
:103A800003E04FF050107B494860814A92F80C11D6
:103A90000023D2F808010522FDF7EAFE75484068C8
:103AA0002A234FF492721A210090E220FDF700FAC7
:103AB00001237A4A1A21E220FDF714FE7448D0F857
:103AC000100100EB40007649421801231A214FF4FF
:103AD0008E70FDF707FE2878032801D1012000E051
:103AE000002006461EB1FF206249486003E04FF007
:103AF0005010604948605F4840682C234FF4E272E0
:103B0000182100900801FDF7D3F96148D0F8200191
:103B1000644901EB800201231A214FF4C070FDF7C4
:103B2000E1FD2878042801D1012000E000200646AC
:103B30001EB1FF204F49486003E04FF050104D493F
:103B400048604C484068422370222E210090462055
:103B5000FDF7AEF94E48D0F8000100EB8000524965
:103B60004218002330214620FDF7BCFD28780528A7
:103B700001D1012000E0002006461EB1FF203D4992
:103B8000486003E04FF050103A49486039484068B7
:103B900042234FF4AB722E210090FA20FDF788F9F2
:103BA0003B48D0F8280100EB80003F494218012330
:103BB0003021FA20FDF796FD06249DE02878A042EA
:103BC00003D1FF202B4948600CE0A01F022805D933
:103BD000072803D235482749486003E04FF05010CA
:103BE00024494860234840680090A01FC0EB0010A3
:103BF0005B3083B2A01FC0EB00104C3081B2DC22DE
:103C00009820FDF755F9A01FC0EBC001284800EB34
:103C1000C100406858B3A21FC2EBC203244A02EBA2
:103C2000C302117AA21FC2EBC203214A02EBC302F4
:103C3000002350680522FDF71BFEA01FC0EB0010FB
:103C40004C3081B201231BA29820FDF7AEFDA01FCE
:103C5000C0EB00104C3081B20123104AA020FDF7C8
:103C6000A4FD0B48D0F8200130BBA01F25E038E0B0
:103C7000BDF705001000001038003100CBF705003B
:103C8000D9F70500B9FE050033FE0500A70B0600B5
:103C900000020010250000002CFA05003845001035
:103CA0007A0B0600E8090600360006003434650089
:103CB0002C0300102D0000001DE0C0EBC003FD48E8
:103CC00000EBC300C06800EB4000FB4BC218A01F14
:103CD000C0EB00104C3081B20123D020FDF765FD10
:103CE00009E0A01FC0EB00104C3081B20123F34A61
:103CF000A020FDF75AFD641C102CFFF45FAF1024C8
:103D00007DE02878A04203D1FF20ED4948600DE016
:103D1000A4F11000022805D9072803D2E948E84990
:103D2000486003E04FF05010E5494860E4484068BF
:103D30000090A4F11000C0EB00105F3083B2A4F13A
:103D40001000C0EB00104C3081B24FF4BE724FF443
:103D5000A070FDF7ADF8A4F11000C0EBC001D5488C
:103D600000EBC100006AE0B3A4F11002C2EBC20391
:103D7000D04A02EBC30292F82410A4F11002C2EB65
:103D8000C203CC4A02EBC3020023106A0522FDF7EE
:103D90006FFDA4F11000C0EB00104C3081B2002385
:103DA000C94A4FF4A070FDF700FDC848D0F82001C3
:103DB00020BBA4F11000C0EBC003BE4800EBC30061
:103DC000806A00EB4000BC4BC218A4F11000C0EBAD
:103DD00000104C3081B201234FF4B870FDF7E5FCC0
:103DE0000CE0FFE7A4F11000C0EB00104C3081B2F2
:103DF0000123B24A4FF4A070FDF7D7FC641C1A2CC3
:103E0000FFF47FAFFDF7D2FD2878062857D2DFE810
:103E100000F003070809223C6878FDF7A1FF64E081
:103E200063E062E06FF07F40A5490860A848486001
:103E300000240DE0A74901EB840204EB8401542324
:103E400003EB011188B20023F121FDF74BFC641C48
:103E5000022CEFD349E06FF07F40994908609C48FD
:103E6000486000240EE004EB84019B4BCA1804EB6D
:103E70008401542303EB011188B20023F121FDF7E3
:103E800031FC641C022CEED32FE06FF07F408C4994
:103E900008608F48486000240EE004EB84018E4BDC
:103EA000CA1804EB8401542303EB011188B20023E8
:103EB000F121FDF717FC641C022CEED315E0002362
:103EC00086A2F1215420FDF70DFC0023854AE7214D
:103ED0004FF4CA70FDF706FC0023824A0832FB212A
:103EE0004FF4CA70FDF7FEFB00BF00BFF8BD2DE91F
:103EF000F04104460D461646207828B32078042861
:103F000011DD28460CF092F8074605F019FC2078E0
:103F10001622504300F11A0101236B4A4FF4A0709E
:103F2000FDF7E0FB10E030460CF080F8074602F0A9
:103F30009FF920781622504300F11A010123624AAA
:103F40004FF4A070FDF7CEFBBDE8F08138B5054613
:103F500000242FE02978601C814203D1FF205849BA
:103F6000486003E04FF0501055494860544840689D
:103F70000090A01C16225043163083B2601C5043A0
:103F8000183081B2E822A020FCF792FF564A115D5A
:103F9000564A32F8240000230422FDF769FC601C15
:103FA000162250431A3081B20123474AA020FDF760
:103FB00099FB641C062CCDD34FF05010404948604B
:103FC00038BDF8B505462878012800D100E000206A
:103FD00006461EB1FF203A49486003E04FF05010FA
:103FE00037494860364840682C23C0221A21009087
:103FF0005A20FCF75DFF3D48B43890F8CC00C0EB88
:10400000C0003B49421800231C215A20FDF76AFBDF
:104010002878022801D1012000E0002006461EB1C8
:10402000FF202749486003E04FF0501024494860C2
:10403000234840684223C022302100905A20FCF7D8
:1040400037FF2A48B43890F8CD00C0EBC0002949AA
:104050004218002332215A20FDF744FB2878032818
:1040600001D1012000E0002006461EB1FF201449C6
:10407000486003E04FF05010114948601048406814
:104080005823C022462100905A20FCF711FF174800
:10409000B43890F8CE00C0EBC00015494218002398
:1040A00048215A20FDF71EFB2878042824D101203E
:1040B00023E000002C0300107A0B060038270000D4
:1040C0001000001034346500384500100002001064
:1040D00038003100E809060036000600C7E5B3FDE8
:1040E000D0D000002C1E0000AC0C0600C001001057
:1040F000D9F70500060B0600002006461EB1FF207A
:10410000FE49486003E04FF05010FC494860FB480E
:1041100040686E23C0225C2100905A20FCF7C8FE44
:10412000F74890F8CF00C0EBC000F64942180023D2
:104130005E215A20FDF7D6FA2878052801D1012002
:1041400000E0002006461EB1FF20EC49486003E075
:104150004FF05010E9494860E84840688423C02285
:10416000722100905A20FCF7A3FEE54890F8D00099
:10417000E54901EBC002002374215A20FDF7B2FA91
:10418000FDF714FC28780C2872D2DFE800F006094D
:10419000233D57728BA4BDD6F1EFFDF7C7FE1BE19F
:1041A0006FF07F40D5490860D848486000240EE091
:1041B000C4EBC401D34BCA1804EB8401542303EBB2
:1041C000011188B20023F121FDF78CFA641C022C46
:1041D000EED301E16FF07F40C8490860CB484860EA
:1041E00000240EE0C4EBC401C94BCA1804EB8401DF
:1041F000542303EB011188B20023F121FDF772FA79
:10420000641C052CEED3E7E06FF07F40BB490860EB
:10421000BE48486000240EE0C4EBC401B94BCA1884
:1042200004EB8401542303EB011188B20023F12134
:10423000FDF758FA641C022CEED3CDE06FF07F40FE
:10424000AE490860B148486000240EE0C4EBC401E8
:10425000AC4BCA1804EB8401542303EB011188B260
:104260000023F121FDF73EFA641C022CEED3B3E0EB
:10427000B1E06FF07F40A1490860A4484860002485
:104280000DE0A14901EBC40204EB8401542303EBCC
:10429000011188B20023F121FDF724FA641C022CDD
:1042A000EFD399E06FF07F409449086097484860E9
:1042B00000240DE0974901EBC40204EB8401542370
:1042C00003EB011188B20023F121FDF70BFA641C06
:1042D000022CEFD380E06FF07F40884908608B4864
:1042E000486000240DE08B4901EBC40204EB84011B
:1042F000542303EB011188B20023F121FDF7F2F9F9
:10430000641C022CEFD367E06FF07F407B490860AC
:104310007E48486000240DE07E4901EBC40204EBB6
:104320008401542303EB011188B20023F121FDF72E
:10433000D9F9641C022CEFD34EE06FF07F406F4937
:1043400008607248486000240DE0724901EBC40225
:1043500004EB8401542303EB011188B20023F12103
:10436000FDF7C0F9641C022CEFD335E019E0FFE73C
:104370006FF07F40614908606448486000240DE0A8
:10438000644901EBC40204EB8401542303EB0111E3
:1043900088B20023F121FDF7A5F9641C022CEFD3AC
:1043A0001AE06FF07F405549086058484860002483
:1043B0000EE0C4EBC401584BCA1804EB840154232B
:1043C00003EB011188B20023F121FDF78BF9641C86
:1043D000022CEED300E000BF00BFF8BD10B5FDF722
:1043E000E7FDFDF7E3FA10BD10B5FFF7F7FF6FF03B
:1043F0007F4042490860494848600023484A0421F8
:104400001846FDF76FF96FF07F403C4908604FF0A8
:104410005010486000240EE004EB840101EBC4015D
:10442000404BCA1804EB84014905080C00231A21EB
:10443000FDF758F9641C032CEED300240FE004EBC5
:10444000840000EBC400384BC218601C162358438C
:104450001A3081B200231846FDF744F9641C062C7B
:10446000EDD310BD08B53148B62340F2DF127A21F2
:1044700000900020FCF71CFD08BD10B5FDF798FD6D
:10448000FDF794FAFFF7EEFF10BD10B5FFF7F5FF4B
:104490006FF07F4019490860204848600023204A97
:1044A000163204211846FDF71DF96FF07F401349BD
:1044B00008604FF05010486000241CE0032C0CD220
:1044C0001B4901EBC40204EB8401002303EB4111FF
:1044D00088B21A21FDF706F90CE0154901EBC40278
:1044E000E11E01EB8101002303EB411188B2302171
:1044F000FDF7F8F8641C062CE0D31BE01000001058
:104500000C010010D9F70500F60A0600380031004A
:10451000060B06008EFF050005000600F35203009F
:10452000CF060600590806008008060034346500EE
:10453000B8090600002417E0032C05D9082C03D283
:10454000FD48FE49486003E04FF05010FB494860C9
:10455000FB4800EB8402C4EB0410413081B200231D
:104560001846FDF722F9641C0B2CE5D30023F5A2B5
:104570004121A020FDF719F90023F3A241214FF4B6
:10458000A070FDF712F9F2491A22D1F8B8034FF4DE
:104590009371FDF718FE0020FDF7E2FB10BD08B592
:1045A000E548B62340F2DF127A2100900020FCF7A4
:1045B0007FFC08BD10B5FDF7FBFCFDF7F7F910BD5A
:1045C00010B5FFF7F7FF6FF07F40DC490860E14866
:1045D00048600023E04A04211846FDF783F86FF095
:1045E0007F40D64908604FF0501048600023DB4AF6
:1045F0001A211846FDF776F801240DE004EBC401FA
:10460000D64BCA18611E4D2359431E3188B2002370
:104610003021FDF767F8641C072CEFD30020FDF76D
:104620009FFB10BD38B500241BE06FF07F40009069
:10463000601C00EB400202EBC0001A2202EB4000BB
:10464000801E83B2601C00EB400202EBC0001A2205
:1046500002EB4000801E81B2BE225A20FCF76CFCA7
:10466000641C052CE1D338BD10B5FDF7A1FCFDF7A6
:104670009DF910BD10B5FFF7F7FF6FF07F40AF4910
:104680000860B44848600023B34A42320421184607
:10469000FDF728F86FF07F40A84908604FF05010F0
:1046A000486000240FE0C4EBC40000EB4000AC4BBA
:1046B000C218162304FB03F01A3081B200231846F7
:1046C000FDF710F8641C052CEDD3A64890F8E9001E
:1046D00055280ED10023A34AE1325C215A20FDF770
:1046E00001F800239F4AEA3272215A20FCF7FAFFB0
:1046F0000BE000239CA25C215A20FCF7F3FF00236F
:104700009BA272215A20FCF7EDFFFDF70FFC10BDB4
:1047100010B5FFF7A9FF6FF07F40884908608D480A
:10472000486000238C4A163204211846FCF7DAFF51
:104730006FF07F40814908604FF0501048600024BE
:104740000FE004EB440000EBC4008B4BC2181623AF
:1047500004FB03F01A3081B200231846FCF7C2FFB5
:10476000641C052CEDD3FFF75DFFFDF7DFFB10BDEB
:104770002DE9F34F83B00C4642F20F716068884216
:1047800006D90A216068B0FBF1F060600420A060E7
:10479000A068C0F10400A060D4F80490E06820B9DB
:1047A0004FF47A7009FB00F90EE0E06801280BD1A4
:1047B00048460AF07FFF07460022704B0AF0CAFF06
:1047C00005460AF033FF8146A0680AF073FF0746EA
:1047D0003A460B4600206A4909F0A0FF05460E46FE
:1047E00048460AF067FF2A463346CDE900010AF041
:1047F000C5FD82460AF01AFF814648460AF05AFF74
:10480000054600225F4B0BF0A3F809D2DFF8789140
:1048100040F6B83060600220A0600120E0605FE0F8
:1048200048460AF047FF05460022584B0BF090F827
:1048300009D842F21070B9FBF0F060600220A0606D
:104840000120E0604CE048460AF034FF05460022B3
:104850004A4B0BF07DF809D84FF47A70B9FBF0F0B1
:1048600060600320A0600120E06039E048460AF063
:1048700021FF05460022464B0BF06AF808D8642059
:10488000B9FBF0F060600120A0600020E06027E04C
:1048900048460AF00FFF054600223E4B0BF058F841
:1048A00008D80A20B9FBF0F060600220A060002068
:1048B000E06015E048460AF0FDFE05460022364B52
:1048C0000BF046F806D8C4F804900320A06000203E
:1048D000E06005E0C4F804900320A0600020E060E0
:1048E000C4F818901C222146039808F08EFB05B0EE
:1048F000BDE8F08F0146888800B270472DE9F0418D
:1049000005460C46E068A8B9A06805285FD2DFE834
:1049100000F0034A4B52580060680AF0CBFE06468E
:1049200000221B4B0BF014F83AD21C4860600020A8
:10493000206137E04DE000003434650010000010C5
:10494000200A06004C4F5700484947480000000025
:1049500000020010F3520300FB060600780A06006E
:10496000320506000C010010323031372E31320092
:1049700030303030303030009B05060080842E41CE
:1049800000002440389C7C4180C3C901D01263419F
:10499000006AF8400088C34000408F40A0860100B4
:1049A0000120206114E013E04FF47A716068B0FBDD
:1049B000F1F060600CE064216068B0FBF1F06060D1
:1049C00006E00A216068B0FBF1F0606000E000BF23
:1049D00045E0A06806283ED2DFE800F00310181971
:1049E0002632FA496068884202D90846606004E0CD
:1049F0004FF47A716068484360602FE0606820B1CE
:104A00000A216068B0FBF1F0606027E026E042F226
:104A100010716068884201D908466060606800EBE8
:104A200080004000606019E06068B0F57A7F02D9CC
:104A30004FF47A70606064216068484360600DE004
:104A40006068642801D9642060604FF47A716068FE
:104A50004843606002E0DE48606000BF00BF1C2287
:104A60002146284608F0D1FABDE8F0812DE9F34F40
:104A700083B08A4642F20F71DAF80400884209D9FD
:104A80000A21DAF80400B0FBF1F0CAF804000420AF
:104A9000CAF808004FF47A71DAF8040000FB01FB51
:104AA000DAF80810C1F104000AF004FE02460B46D1
:104AB000CDE900010020C74909F030FE04460D464B
:104AC00058460AF0F7FD064622462B460AF056FCE9
:104AD00080460AF0ABFD83464EF66020834500D940
:104AE000834642F21070834508D90220CAF80800B4
:104AF0000A20BBFBF0F0CAF8040004E00320CAF867
:104B00000800CAF804B0CAF818B01C22514603982D
:104B100008F07BFA05B0BDE8F08F2DE9F05F824622
:104B20000C460020E060A0680BF0D4FA83460BF03E
:104B300021F907463A460B460020A64909F0EEFD4A
:104B400005460AF073FD81466068B0FBF9F9B9F1DA
:104B5000640F01D90220A0601C222146504608F0B3
:104B600054FABDE8F09F08B59B48372328225C2102
:104B700000903C20FCF7CEFB9848372328225C218C
:104B800000906420FCF7C6FB954837232822932128
:104B900000903C20FCF7BEFB92483723282293214B
:104BA00000906420FCF7B6FB08BD08B58A4837239F
:104BB00028225C2100903C20FCF7ACFB874837237F
:104BC00028225C2100906420FCF7A4FB8648372350
:104BD0002822932100903C20FCF79CFB814837233E
:104BE0002822932100906420FCF794FB08BD08B5AF
:104BF0007948372328225C2100903C20FCF78AFB6F
:104C00007648372328225C2100906420FCF782FB41
:104C1000764837232822932100903C20FCF77AFB2A
:104C2000704837232822932100906420FCF772FB00
:104C300008BD08B56848372328225C2100903C2035
:104C4000FCF768FB6548372328225C21009064202C
:104C5000FCF760FB664837232822932100903C2014
:104C6000FCF758FB5D4837232822932100906420ED
:104C7000FCF750FB08BD08B55748372328225C21B4
:104C800000903C20FCF746FB5A48372328225C2141
:104C900000906420FCF73EFB5548372328229321DF
:104CA00000903C20FCF736FB524837232822932102
:104CB00000906420FCF72EFB08BD08B5464837235A
:104CC00028225C2100903C20FCF724FB4948372334
:104CD00028225C2100906420FCF71CFB404837230D
:104CE0002822932100903C20FCF714FB3D483723F9
:104CF0002822932100906420FCF70CFB08BD08B526
:104D00003548372328225C2100903C20FCF702FB29
:104D10003848372328225C2100906420FCF7FAFAF7
:104D2000314837232822932100903C20FCF7F2FAE7
:104D30002C4837232822932100906420FCF7EAFABC
:104D400008BD08B52C48372328225C2100903C2060
:104D5000FCF7E0FA2148372328225C2100906420E8
:104D6000FCF7D8FA204837232822932100903C20D2
:104D7000FCF7D0FA1B4837232822932100906420A7
:104D8000FCF7C8FA08BD08B51B48372328225C2168
:104D900000903C20FCF7BEFA1048372328225C2103
:104DA00000906420FCF7B6FA11483723282293219B
:104DB00000903C20FCF7AEFA0848372328229321C4
:104DC00000906420FCF7A6FA08BD0000A086010050
:104DD00040420F0000002440C8CA0500E0CB050097
:104DE00010E105001AF0050023E20500EADE0500E7
:104DF000D7DD05009EDA05008BD9050008B5FB4814
:104E0000372328225C2100903C20FCF783FAF848E5
:104E1000372328225C2100906420FCF77BFAF548B8
:104E200037232822932100903C20FCF773FAF248A4
:104E300037232822932100906420FCF76BFA08BDE9
:104E400008B5EA48372328225C2100903C20FCF773
:104E500061FAE748372328225C2100906420FCF7A0
:104E600059FAE64837232822932100903C20FCF78A
:104E700051FAE34837232822932100906420FCF75D
:104E800049FA08BD08B5D948372328225C2100908B
:104E90003C20FCF73FFAD648372328225C210090BB
:104EA0006420FCF737FAD748372328229321009053
:104EB0003C20FCF72FFAD248372328229321009078
:104EC0006420FCF727FA08BD08B5C8483723282214
:104ED0005C2100903C20FCF71DFACB4837232822A8
:104EE0005C2100906420FCF715FAC448372328227F
:104EF000932100903C20FCF70DFAC148372328226B
:104F0000932100906420FCF705FA08BD08B5B74866
:104F1000372328225C2100903C20FCF7FBF9BA489B
:104F2000372328225C2100906420FCF7F3F9B7486E
:104F300037232822932100903C20FCF7EBF9B0485E
:104F400037232822932100906420FCF7E3F908BD61
:104F500008B5A648372328225C2100903C20FCF7A6
:104F6000D9F9A948372328225C2100906420FCF756
:104F7000D1F9A04837232822932100903C20FCF748
:104F8000C9F9A14837232822932100906420FCF717
:104F9000C1F908BD08B59548372328225C21009047
:104FA0003C20FCF7B7F99848372328225C21009071
:104FB0006420FCF7AFF98F48372328229321009013
:104FC0003C20FCF7A7F98C48372328229321009036
:104FD0006420FCF79FF908BD08B58D4837232822C7
:104FE0005C2100903C20FCF795F985483723282266
:104FF0005C2100906420FCF78DF97F48372328223C
:10500000932100903C20FCF785F97D483723282226
:10501000932100906420FCF77DF908BD08B57C4819
:10502000372328225C2100903C20FCF773F9744858
:10503000372328225C2100906420FCF76BF9754827
:1050400037232822932100903C20FCF763F96C4819
:1050500037232822932100906420FCF75BF908BDD8
:1050600008B56D48372328225C2100903C20FCF7CE
:1050700051F96348372328225C2100906420FCF713
:1050800049F95D4837232822932100903C20FCF702
:1050900041F95B4837232822932100906420FCF7D4
:1050A00039F908BD08B55C48372328225C210090F7
:1050B0003C20FCF72FF95248372328225C2100902E
:1050C0006420FCF727F953483723282293210090C6
:1050D0003C20FCF71FF94A483723282293210090EF
:1050E0006420FCF717F908BD08B54C484C494860E6
:1050F0004048372328225C2100903C20FCF70AF925
:105100004848372328225C2100904FF4AA70FCF70E
:1051100001F9454837232822932100903C20FCF7D1
:10512000F9F8414837232822932100904FF4AA70C0
:10513000FCF7F0F83D48007848B131483723282281
:105140005C2100904FF49670FCF7E4F808E03848D2
:10515000372328225C2100904FF49670FCF7DAF890
:1051600008BD08B5294837232822932100903C2008
:10517000FCF7D0F81F48372328225C2100903C2000
:10518000FCF7C8F82048372328225C2100906420CF
:10519000FCF7C0F81A483723282293210090642096
:1051A000FCF7B8F808BD08B51248372328225C215F
:1051B00000903C20FCF7AEF80D48372328225C21F4
:1051C00000906420FCF7A6F810483723282293218A
:1051D00000903C20FCF79EF80948372328229321B1
:1051E00000906420FCF796F808BD00008BD90500FC
:1051F000E0CB0500D7DD050036E3050010E1050032
:105200001AF00500EADE05009EDA050023E205003B
:10521000B1DB050049E40500C4DC05003434650059
:1052200010000010F4ED050079F5050046000010AF
:10523000BBEA050008B5FE48372328225C21009010
:105240003C20FCF767F8FB48372328229321009085
:105250003C20FCF75FF808BD2DE9F84F8346174660
:105260001C464FF00109CA460020A07000BF00F0A4
:1052700093FE0646FF2EFAD1EF4890F8B803A070CF
:10528000EAE0BAF1000F33D04FF0000A6FF07F4030
:10529000EA490860EA484860FCF788FBFF20E749D4
:1052A0004860084640682C23C022182100905820EE
:1052B000FBF7FEFDA07800EBC000E2494218012395
:1052C0001A215820FCF70EFADD48DC494860002519
:1052D0000CE007EBC50205EB8501542303EB01103D
:1052E0000023F121FCF7FEF9681CC5B2052DF0DBA7
:1052F00000F052FE0646FF2E02D14FF0000801E0FA
:1053000008F10108B8F1030FBAD14FF0010A0B2ED2
:1053100079D00CDC032E77D004DC012E59D0022E7C
:1053200073D18DE0092E0FD00A2EF9D16FE0132E24
:1053300070D004DC112E18D0122EF1D185E0192E78
:105340002DD01B2EECD171E0E078BF49085CFF281E
:1053500004D0E078085CA0704FF00009A078B6494E
:10536000C1F8B803FF20A07075E0E178B648C01D11
:10537000405CFF2806D0E178B348C01D405CA070B7
:105380004FF00009A078AC49C1F8B803E178AE4805
:105390001530405CFF2801D0FF20A0705BE0E17871
:1053A000A9480E30405CFF2806D0E178A6480E30B0
:1053B000405CA0704FF00009A0789F49C1F8B80385
:1053C000E178A1481530405CFF2801D0FF20A07093
:1053D00041E0E1789C481530405CFF2806D0E17838
:1053E00099481530405CA0704FF00009A0789249B0
:1053F000C1F8B803E17894481530405CFF2801D02B
:10540000FF20A07027E00BE015E023E002E04FF062
:10541000000920E006208D4908604FF000091AE0DD
:1054200005208A4908604FF0000914E04FF0000998
:10543000002020700FE04FF000090A2020700AE0E1
:105440004FF000090220207005E04FF00009002015
:10545000207000E000BF00BFB9F1000F7FF411AF72
:10546000BDE8F88F70B504460D46012C02D00CB192
:10547000042C02D1FF2071490860754A5C21842008
:10548000FCF7E8F8022C03D0032C01D0042C03D144
:10549000FF206A49086003E06FF07F4067490860B9
:1054A000284604F04DF96B48807828B16AA2932110
:1054B0006420FCF7CFF804E068A293216420FCF795
:1054C000C9F8634A93218420FCF7C4F86FF07F4049
:1054D0005A4908604FF050104860002360A2D22162
:1054E0001E20FCF7FFF870BD30B585B004460D46B0
:1054F0005DA003C8CDE903015DA103C9CDE90101A8
:1055000003A8005D40F2131148435B490844372368
:1055100028225C2100904FF4BE70FBF7FBFE01A82F
:10552000405D40F213114843534908443723282271
:105530005C2100904FF4D270FBF7ECFE05B030BD5B
:1055400030B585B004460D4647A003C8CDE9030138
:1055500047A103C9CDE9010103A8005D40F2131181
:1055600048434549084437232822932100904FF4AB
:10557000BE70FBF7CFFE01A8405D40F21311484317
:105580003D49084437232822932100904FF4D270DC
:10559000FBF7C0FE05B030BD3EB50446374A07CA2A
:1055A0008DE80700364890F840008DF80200BF20D3
:1055B0008DF803006946334805F0C8F93EBD00B5D3
:1055C00087B0142102A807F052FD2C480C30006867
:1055D000019060208DF808001748D0F8B80300EB60
:1055E00040002949085C8DF8090070208DF80A00F8
:1055F0001148D0F8B80300EB4000084440788DF81B
:105600000B0071208DF80C000B48D0F8B80300EBAC
:105610004000084480788DF80D0080208DF80E0041
:10562000054890F8C0038DF80F0090202EE0000090
:10563000EADE0500FDDF050000020010100000108A
:10564000380031002CFA0500BCFB0500700000108A
:105650003845001046000010200000002D0000001A
:10566000546573742E2E2E000C0F1011160E0D00A3
:10567000121314020B17160078D80500C80C060088
:105680000C01001000C00040480D06008DF810000D
:10569000FC4890F8C4038DF81100A0208DF812008A
:1056A000F84890F820048DF81300B0208DF814000D
:1056B000F44890F818048DF81500C0208DF81600F5
:1056C000F04890F824048DF81700E0208DF81800B9
:1056D000EC4890F8D0038DF80F0080208DF8190069
:1056E000BF208DF81A0000208DF81B0001A9E648A4
:1056F00005F02CF907B000BD0EB5E44A07CA8DE8E5
:1057000007006946E04805F021F90EBD3EB50446A4
:10571000DE4A0C3207CA8DE80700AA21DC4805F0F2
:10572000FFF82146DA4805F011F93EBD00B585B015
:1057300000200190029003900490D4481830006833
:10574000009010208DF801000D208DF80200D14846
:1057500000788DF8030002208DF8040000208DF8F9
:105760000400BF208DF80A0000208DF80B00694668
:10577000C54805F0EBF805B000BD70B504460D4610
:1057800004EB4400C44942180123C8218020FBF7E0
:10579000A9FF05EB4500C14942180123C821882013
:1057A000FBF7A0FF70BD70B504460D4604EB440046
:1057B000B94942180023C8214FF4C270FBF792FF89
:1057C00005EB4500B54942180023C8214FF4C670C7
:1057D000FBF788FF70BD00B58DB01822B0A107A8F7
:1057E00007F013FC1822B4A101A807F00EFC4FF03B
:1057F0005010B74948600123B64AC8213420FBF74E
:1058000071FF0123B34A0A32C8214FF49C70FBF7A1
:1058100069FF9C4AD2F8B82307AB995CAD4A713A4C
:1058200092F89D00FFF7A9FF964AD2F8B82301AB82
:10583000995CA84A713A92F89E00FFF7B4FF0DB048
:1058400000BD10B5002421E0012C01DD072C01DB97
:10585000082C03DDA0489E49486003E04FF050103B
:105860009B4948609D4951F82400002306221946AF
:10587000FBF7FEFFC4EB041000F13A010123984A44
:105880004FF4C370FBF791FF601CC4B20B2CDBDB41
:1058900010BD70B504460D46A9B2A0B2012391A275
:1058A000FBF720FF70BD70B504460D46A9B2A0B24B
:1058B00001238DA2FBF716FF70BD38B5714890F833
:1058C000B8038A4908706F4890F8C00348706D4863
:1058D00090F8C40388706B4890F8C803C870694892
:1058E00090F8D0030871674890F81804487165482B
:1058F00090F82004C871634890F824040872614845
:1059000090F8280448725F4890F8C40388705D4896
:1059100090F8740488725B4890F87804C8724FF469
:10592000187273497148443007F06FFB714CF420D2
:105930000023224619460090184605F087FD38BD21
:1059400038B56C4CF42000232246194600901846C6
:1059500005F0F4FD38BD674A1278012A02DD002205
:10596000644B1A70634A5278012A02DD0022614BAF
:105970005A70604A9278012A02DD00225D4B9A70CB
:105980005C4A526E42F20F739A4203D94FF47A7313
:10599000584A5366574A926E032A02D90223554A3F
:1059A0009366544AD26E012A02D90023514AD36623
:1059B000504A92F82020012A03DD00224D4B83F843
:1059C00020204C4A92F84120022A03DD0022494B54
:1059D00083F84120474A926C42F20F739A4203D9EE
:1059E0004FF47A73434A9364424AD26C032A02D931
:1059F0000323404AD3643F4A126D012A02D900238F
:105A00003C4A13653B4A526E42F20F739A4203D9E5
:105A10004FF47A73374A5366364A926E032A02D994
:105A20000323344A9366334AD26E012A02D90023F3
:105A3000304AD3662F4AD2F8802042F20F739A423E
:105A400004D94FF47A732B4AC2F88030294AD2F82D
:105A50008420032A03D90323264AC2F88430254A26
:105A6000926A42F20F739A4203D94FF47A73214A31
:105A70009362204AD26A032A02D903231D4AD362C1
:105A8000002052E00002001000C00040D80C0600C8
:105A900000C009403C0000107A0B0600A70B06006E
:105AA00000000000000000010101010101010102EC
:105AB00002030302020200000606030206060206B3
:105AC000020206060602020504050402060600009C
:105AD00010000010D9430010343465000845001050
